{
	"contracts/PrescriptionAndDiagnosis.sol": {
		"PrescriptionAndDiagnosis": {
			"abi": [
				{
					"inputs": [
						{
							"internalType": "address",
							"name": "_identityContract",
							"type": "address"
						},
						{
							"internalType": "address",
							"name": "_accessControl",
							"type": "address"
						}
					],
					"stateMutability": "nonpayable",
					"type": "constructor"
				},
				{
					"anonymous": false,
					"inputs": [
						{
							"indexed": true,
							"internalType": "uint256",
							"name": "diagnosisId",
							"type": "uint256"
						},
						{
							"indexed": true,
							"internalType": "address",
							"name": "patient",
							"type": "address"
						},
						{
							"indexed": true,
							"internalType": "address",
							"name": "doctor",
							"type": "address"
						},
						{
							"indexed": false,
							"internalType": "uint256",
							"name": "timestamp",
							"type": "uint256"
						}
					],
					"name": "DiagnosisAdded",
					"type": "event"
				},
				{
					"anonymous": false,
					"inputs": [
						{
							"indexed": true,
							"internalType": "uint256",
							"name": "prescriptionId",
							"type": "uint256"
						},
						{
							"indexed": true,
							"internalType": "address",
							"name": "patient",
							"type": "address"
						},
						{
							"indexed": true,
							"internalType": "address",
							"name": "doctor",
							"type": "address"
						},
						{
							"indexed": false,
							"internalType": "uint256",
							"name": "expiresAt",
							"type": "uint256"
						}
					],
					"name": "PrescriptionAdded",
					"type": "event"
				},
				{
					"anonymous": false,
					"inputs": [
						{
							"indexed": true,
							"internalType": "uint256",
							"name": "prescriptionId",
							"type": "uint256"
						},
						{
							"indexed": true,
							"internalType": "address",
							"name": "patient",
							"type": "address"
						},
						{
							"indexed": true,
							"internalType": "address",
							"name": "pharmacist",
							"type": "address"
						},
						{
							"indexed": false,
							"internalType": "uint256",
							"name": "dispensedAt",
							"type": "uint256"
						}
					],
					"name": "PrescriptionDispensed",
					"type": "event"
				},
				{
					"anonymous": false,
					"inputs": [
						{
							"indexed": true,
							"internalType": "uint256",
							"name": "prescriptionId",
							"type": "uint256"
						},
						{
							"indexed": true,
							"internalType": "address",
							"name": "patient",
							"type": "address"
						},
						{
							"indexed": false,
							"internalType": "uint256",
							"name": "expiredAt",
							"type": "uint256"
						}
					],
					"name": "PrescriptionExpired",
					"type": "event"
				},
				{
					"inputs": [],
					"name": "DEFAULT_PRESCRIPTION_VALIDITY",
					"outputs": [
						{
							"internalType": "uint256",
							"name": "",
							"type": "uint256"
						}
					],
					"stateMutability": "view",
					"type": "function"
				},
				{
					"inputs": [],
					"name": "accessControl",
					"outputs": [
						{
							"internalType": "contract IAccessControl",
							"name": "",
							"type": "address"
						}
					],
					"stateMutability": "view",
					"type": "function"
				},
				{
					"inputs": [
						{
							"internalType": "address",
							"name": "patient",
							"type": "address"
						},
						{
							"internalType": "string",
							"name": "diagnosisDetails",
							"type": "string"
						},
						{
							"internalType": "string",
							"name": "ipfsHash",
							"type": "string"
						}
					],
					"name": "addDiagnosis",
					"outputs": [],
					"stateMutability": "nonpayable",
					"type": "function"
				},
				{
					"inputs": [
						{
							"internalType": "address",
							"name": "patient",
							"type": "address"
						},
						{
							"internalType": "string",
							"name": "medicationDetails",
							"type": "string"
						},
						{
							"internalType": "string",
							"name": "ipfsHash",
							"type": "string"
						},
						{
							"internalType": "uint256",
							"name": "validityDays",
							"type": "uint256"
						}
					],
					"name": "addPrescription",
					"outputs": [],
					"stateMutability": "nonpayable",
					"type": "function"
				},
				{
					"inputs": [
						{
							"internalType": "uint256",
							"name": "",
							"type": "uint256"
						}
					],
					"name": "diagnoses",
					"outputs": [
						{
							"internalType": "uint256",
							"name": "diagnosisId",
							"type": "uint256"
						},
						{
							"internalType": "address",
							"name": "patient",
							"type": "address"
						},
						{
							"internalType": "address",
							"name": "doctor",
							"type": "address"
						},
						{
							"internalType": "string",
							"name": "diagnosisDetails",
							"type": "string"
						},
						{
							"internalType": "string",
							"name": "ipfsHash",
							"type": "string"
						},
						{
							"internalType": "uint256",
							"name": "timestamp",
							"type": "uint256"
						}
					],
					"stateMutability": "view",
					"type": "function"
				},
				{
					"inputs": [],
					"name": "diagnosisCount",
					"outputs": [
						{
							"internalType": "uint256",
							"name": "",
							"type": "uint256"
						}
					],
					"stateMutability": "view",
					"type": "function"
				},
				{
					"inputs": [
						{
							"internalType": "uint256",
							"name": "prescriptionId",
							"type": "uint256"
						}
					],
					"name": "dispensePrescription",
					"outputs": [],
					"stateMutability": "nonpayable",
					"type": "function"
				},
				{
					"inputs": [
						{
							"internalType": "uint256",
							"name": "prescriptionId",
							"type": "uint256"
						}
					],
					"name": "expirePrescription",
					"outputs": [],
					"stateMutability": "nonpayable",
					"type": "function"
				},
				{
					"inputs": [
						{
							"internalType": "address",
							"name": "patient",
							"type": "address"
						}
					],
					"name": "getDiagnosesByPatient",
					"outputs": [
						{
							"internalType": "uint256[]",
							"name": "",
							"type": "uint256[]"
						}
					],
					"stateMutability": "view",
					"type": "function"
				},
				{
					"inputs": [
						{
							"internalType": "uint256",
							"name": "prescriptionId",
							"type": "uint256"
						}
					],
					"name": "getPrescription",
					"outputs": [
						{
							"components": [
								{
									"internalType": "uint256",
									"name": "prescriptionId",
									"type": "uint256"
								},
								{
									"internalType": "address",
									"name": "patient",
									"type": "address"
								},
								{
									"internalType": "address",
									"name": "doctor",
									"type": "address"
								},
								{
									"internalType": "string",
									"name": "medicationDetails",
									"type": "string"
								},
								{
									"internalType": "string",
									"name": "ipfsHash",
									"type": "string"
								},
								{
									"internalType": "enum PrescriptionAndDiagnosis.PrescriptionStatus",
									"name": "status",
									"type": "uint8"
								},
								{
									"internalType": "uint256",
									"name": "issuedAt",
									"type": "uint256"
								},
								{
									"internalType": "uint256",
									"name": "expiresAt",
									"type": "uint256"
								},
								{
									"internalType": "address",
									"name": "dispensedBy",
									"type": "address"
								},
								{
									"internalType": "uint256",
									"name": "dispensedAt",
									"type": "uint256"
								}
							],
							"internalType": "struct PrescriptionAndDiagnosis.Prescription",
							"name": "",
							"type": "tuple"
						}
					],
					"stateMutability": "view",
					"type": "function"
				},
				{
					"inputs": [
						{
							"internalType": "address",
							"name": "patient",
							"type": "address"
						}
					],
					"name": "getPrescriptionsByPatient",
					"outputs": [
						{
							"internalType": "uint256[]",
							"name": "",
							"type": "uint256[]"
						}
					],
					"stateMutability": "view",
					"type": "function"
				},
				{
					"inputs": [],
					"name": "identityContract",
					"outputs": [
						{
							"internalType": "contract IPatientConsent",
							"name": "",
							"type": "address"
						}
					],
					"stateMutability": "view",
					"type": "function"
				},
				{
					"inputs": [
						{
							"internalType": "uint256",
							"name": "prescriptionId",
							"type": "uint256"
						}
					],
					"name": "isValidPrescription",
					"outputs": [
						{
							"internalType": "bool",
							"name": "",
							"type": "bool"
						}
					],
					"stateMutability": "view",
					"type": "function"
				},
				{
					"inputs": [],
					"name": "prescriptionCount",
					"outputs": [
						{
							"internalType": "uint256",
							"name": "",
							"type": "uint256"
						}
					],
					"stateMutability": "view",
					"type": "function"
				},
				{
					"inputs": [
						{
							"internalType": "uint256",
							"name": "",
							"type": "uint256"
						}
					],
					"name": "prescriptions",
					"outputs": [
						{
							"internalType": "uint256",
							"name": "prescriptionId",
							"type": "uint256"
						},
						{
							"internalType": "address",
							"name": "patient",
							"type": "address"
						},
						{
							"internalType": "address",
							"name": "doctor",
							"type": "address"
						},
						{
							"internalType": "string",
							"name": "medicationDetails",
							"type": "string"
						},
						{
							"internalType": "string",
							"name": "ipfsHash",
							"type": "string"
						},
						{
							"internalType": "enum PrescriptionAndDiagnosis.PrescriptionStatus",
							"name": "status",
							"type": "uint8"
						},
						{
							"internalType": "uint256",
							"name": "issuedAt",
							"type": "uint256"
						},
						{
							"internalType": "uint256",
							"name": "expiresAt",
							"type": "uint256"
						},
						{
							"internalType": "address",
							"name": "dispensedBy",
							"type": "address"
						},
						{
							"internalType": "uint256",
							"name": "dispensedAt",
							"type": "uint256"
						}
					],
					"stateMutability": "view",
					"type": "function"
				}
			],
			"devdoc": {
				"kind": "dev",
				"methods": {
					"addPrescription(address,string,string,uint256)": {
						"params": {
							"validityDays": "0 = use default 180 days"
						}
					}
				},
				"version": 1
			},
			"evm": {
				"assembly": "    /* \"contracts/PrescriptionAndDiagnosis.sol\":2014:13609  contract PrescriptionAndDiagnosis is ReentrancyGuard {... */\n  mstore(0x40, 0x80)\n    /* \"contracts/PrescriptionAndDiagnosis.sol\":1847:1848  1 */\n  0x01\n    /* \"contracts/PrescriptionAndDiagnosis.sol\":1816:1848  uint256 private _guardStatus = 1 */\n  0x00\n  sstore\n    /* \"contracts/PrescriptionAndDiagnosis.sol\":6727:7083  constructor(address _identityContract, address _accessControl) {... */\n  callvalue\n  dup1\n  iszero\n  tag_1\n  jumpi\n  revert(0x00, 0x00)\ntag_1:\n  pop\n  mload(0x40)\n  sub(codesize, bytecodeSize)\n  dup1\n  bytecodeSize\n  dup4\n  codecopy\n  dup2\n  dup2\n  add\n  0x40\n  mstore\n  dup2\n  add\n  swap1\n  tag_2\n  swap2\n  swap1\n  tag_3\n  jump\t// in\ntag_2:\n    /* \"contracts/PrescriptionAndDiagnosis.sol\":6837:6838  0 */\n  0x00\n    /* \"contracts/PrescriptionAndDiagnosis.sol\":6808:6839  _identityContract != address(0) */\n  0xffffffffffffffffffffffffffffffffffffffff\n  and\n    /* \"contracts/PrescriptionAndDiagnosis.sol\":6808:6825  _identityContract */\n  dup3\n    /* \"contracts/PrescriptionAndDiagnosis.sol\":6808:6839  _identityContract != address(0) */\n  0xffffffffffffffffffffffffffffffffffffffff\n  and\n  sub\n    /* \"contracts/PrescriptionAndDiagnosis.sol\":6800:6869  require(_identityContract != address(0), \"Invalid identity contract\") */\n  tag_6\n  jumpi\n  mload(0x40)\n  0x08c379a000000000000000000000000000000000000000000000000000000000\n  dup2\n  mstore\n  0x04\n  add\n  tag_7\n  swap1\n  tag_8\n  jump\t// in\ntag_7:\n  mload(0x40)\n  dup1\n  swap2\n  sub\n  swap1\n  revert\ntag_6:\n    /* \"contracts/PrescriptionAndDiagnosis.sol\":6916:6917  0 */\n  0x00\n    /* \"contracts/PrescriptionAndDiagnosis.sol\":6887:6918  _accessControl    != address(0) */\n  0xffffffffffffffffffffffffffffffffffffffff\n  and\n    /* \"contracts/PrescriptionAndDiagnosis.sol\":6887:6901  _accessControl */\n  dup2\n    /* \"contracts/PrescriptionAndDiagnosis.sol\":6887:6918  _accessControl    != address(0) */\n  0xffffffffffffffffffffffffffffffffffffffff\n  and\n  sub\n    /* \"contracts/PrescriptionAndDiagnosis.sol\":6879:6954  require(_accessControl    != address(0), \"Invalid access control contract\") */\n  tag_9\n  jumpi\n  mload(0x40)\n  0x08c379a000000000000000000000000000000000000000000000000000000000\n  dup2\n  mstore\n  0x04\n  add\n  tag_10\n  swap1\n  tag_11\n  jump\t// in\ntag_10:\n  mload(0x40)\n  dup1\n  swap2\n  sub\n  swap1\n  revert\ntag_9:\n    /* \"contracts/PrescriptionAndDiagnosis.sol\":6999:7016  _identityContract */\n  dup2\n    /* \"contracts/PrescriptionAndDiagnosis.sol\":6964:6980  identityContract */\n  0x01\n  0x00\n    /* \"contracts/PrescriptionAndDiagnosis.sol\":6964:7017  identityContract = IPatientConsent(_identityContract) */\n  0x0100\n  exp\n  dup2\n  sload\n  dup2\n  0xffffffffffffffffffffffffffffffffffffffff\n  mul\n  not\n  and\n  swap1\n  dup4\n  0xffffffffffffffffffffffffffffffffffffffff\n  and\n  mul\n  or\n  swap1\n  sstore\n  pop\n    /* \"contracts/PrescriptionAndDiagnosis.sol\":7061:7075  _accessControl */\n  dup1\n    /* \"contracts/PrescriptionAndDiagnosis.sol\":7027:7040  accessControl */\n  0x02\n  0x00\n    /* \"contracts/PrescriptionAndDiagnosis.sol\":7027:7076  accessControl    = IAccessControl(_accessControl) */\n  0x0100\n  exp\n  dup2\n  sload\n  dup2\n  0xffffffffffffffffffffffffffffffffffffffff\n  mul\n  not\n  and\n  swap1\n  dup4\n  0xffffffffffffffffffffffffffffffffffffffff\n  and\n  mul\n  or\n  swap1\n  sstore\n  pop\n    /* \"contracts/PrescriptionAndDiagnosis.sol\":6727:7083  constructor(address _identityContract, address _accessControl) {... */\n  pop\n  pop\n    /* \"contracts/PrescriptionAndDiagnosis.sol\":2014:13609  contract PrescriptionAndDiagnosis is ReentrancyGuard {... */\n  jump(tag_12)\n    /* \"#utility.yul\":88:205   */\ntag_14:\n    /* \"#utility.yul\":197:198   */\n  0x00\n    /* \"#utility.yul\":194:195   */\n  0x00\n    /* \"#utility.yul\":187:199   */\n  revert\n    /* \"#utility.yul\":334:460   */\ntag_16:\n    /* \"#utility.yul\":371:378   */\n  0x00\n    /* \"#utility.yul\":411:453   */\n  0xffffffffffffffffffffffffffffffffffffffff\n    /* \"#utility.yul\":404:409   */\n  dup3\n    /* \"#utility.yul\":400:454   */\n  and\n    /* \"#utility.yul\":389:454   */\n  swap1\n  pop\n    /* \"#utility.yul\":334:460   */\n  swap2\n  swap1\n  pop\n  jump\t// out\n    /* \"#utility.yul\":466:562   */\ntag_17:\n    /* \"#utility.yul\":503:510   */\n  0x00\n    /* \"#utility.yul\":532:556   */\n  tag_31\n    /* \"#utility.yul\":550:555   */\n  dup3\n    /* \"#utility.yul\":532:556   */\n  tag_16\n  jump\t// in\ntag_31:\n    /* \"#utility.yul\":521:556   */\n  swap1\n  pop\n    /* \"#utility.yul\":466:562   */\n  swap2\n  swap1\n  pop\n  jump\t// out\n    /* \"#utility.yul\":568:690   */\ntag_18:\n    /* \"#utility.yul\":641:665   */\n  tag_33\n    /* \"#utility.yul\":659:664   */\n  dup2\n    /* \"#utility.yul\":641:665   */\n  tag_17\n  jump\t// in\ntag_33:\n    /* \"#utility.yul\":634:639   */\n  dup2\n    /* \"#utility.yul\":631:666   */\n  eq\n    /* \"#utility.yul\":621:684   */\n  tag_34\n  jumpi\n    /* \"#utility.yul\":680:681   */\n  0x00\n    /* \"#utility.yul\":677:678   */\n  0x00\n    /* \"#utility.yul\":670:682   */\n  revert\n    /* \"#utility.yul\":621:684   */\ntag_34:\n    /* \"#utility.yul\":568:690   */\n  pop\n  jump\t// out\n    /* \"#utility.yul\":696:839   */\ntag_19:\n    /* \"#utility.yul\":753:758   */\n  0x00\n    /* \"#utility.yul\":784:790   */\n  dup2\n    /* \"#utility.yul\":778:791   */\n  mload\n    /* \"#utility.yul\":769:791   */\n  swap1\n  pop\n    /* \"#utility.yul\":800:833   */\n  tag_36\n    /* \"#utility.yul\":827:832   */\n  dup2\n    /* \"#utility.yul\":800:833   */\n  tag_18\n  jump\t// in\ntag_36:\n    /* \"#utility.yul\":696:839   */\n  swap3\n  swap2\n  pop\n  pop\n  jump\t// out\n    /* \"#utility.yul\":845:1352   */\ntag_3:\n    /* \"#utility.yul\":924:930   */\n  0x00\n    /* \"#utility.yul\":932:938   */\n  0x00\n    /* \"#utility.yul\":981:983   */\n  0x40\n    /* \"#utility.yul\":969:978   */\n  dup4\n    /* \"#utility.yul\":960:967   */\n  dup6\n    /* \"#utility.yul\":956:979   */\n  sub\n    /* \"#utility.yul\":952:984   */\n  slt\n    /* \"#utility.yul\":949:1068   */\n  iszero\n  tag_38\n  jumpi\n    /* \"#utility.yul\":987:1066   */\n  tag_39\n  tag_14\n  jump\t// in\ntag_39:\n    /* \"#utility.yul\":949:1068   */\ntag_38:\n    /* \"#utility.yul\":1107:1108   */\n  0x00\n    /* \"#utility.yul\":1132:1196   */\n  tag_40\n    /* \"#utility.yul\":1188:1195   */\n  dup6\n    /* \"#utility.yul\":1179:1185   */\n  dup3\n    /* \"#utility.yul\":1168:1177   */\n  dup7\n    /* \"#utility.yul\":1164:1186   */\n  add\n    /* \"#utility.yul\":1132:1196   */\n  tag_19\n  jump\t// in\ntag_40:\n    /* \"#utility.yul\":1122:1196   */\n  swap3\n  pop\n    /* \"#utility.yul\":1078:1206   */\n  pop\n    /* \"#utility.yul\":1245:1247   */\n  0x20\n    /* \"#utility.yul\":1271:1335   */\n  tag_41\n    /* \"#utility.yul\":1327:1334   */\n  dup6\n    /* \"#utility.yul\":1318:1324   */\n  dup3\n    /* \"#utility.yul\":1307:1316   */\n  dup7\n    /* \"#utility.yul\":1303:1325   */\n  add\n    /* \"#utility.yul\":1271:1335   */\n  tag_19\n  jump\t// in\ntag_41:\n    /* \"#utility.yul\":1261:1335   */\n  swap2\n  pop\n    /* \"#utility.yul\":1216:1345   */\n  pop\n    /* \"#utility.yul\":845:1352   */\n  swap3\n  pop\n  swap3\n  swap1\n  pop\n  jump\t// out\n    /* \"#utility.yul\":1358:1527   */\ntag_20:\n    /* \"#utility.yul\":1442:1453   */\n  0x00\n    /* \"#utility.yul\":1476:1482   */\n  dup3\n    /* \"#utility.yul\":1471:1474   */\n  dup3\n    /* \"#utility.yul\":1464:1483   */\n  mstore\n    /* \"#utility.yul\":1516:1520   */\n  0x20\n    /* \"#utility.yul\":1511:1514   */\n  dup3\n    /* \"#utility.yul\":1507:1521   */\n  add\n    /* \"#utility.yul\":1492:1521   */\n  swap1\n  pop\n    /* \"#utility.yul\":1358:1527   */\n  swap3\n  swap2\n  pop\n  pop\n  jump\t// out\n    /* \"#utility.yul\":1533:1708   */\ntag_21:\n    /* \"#utility.yul\":1673:1700   */\n  0x496e76616c6964206964656e7469747920636f6e747261637400000000000000\n    /* \"#utility.yul\":1669:1670   */\n  0x00\n    /* \"#utility.yul\":1661:1667   */\n  dup3\n    /* \"#utility.yul\":1657:1671   */\n  add\n    /* \"#utility.yul\":1650:1701   */\n  mstore\n    /* \"#utility.yul\":1533:1708   */\n  pop\n  jump\t// out\n    /* \"#utility.yul\":1714:2080   */\ntag_22:\n    /* \"#utility.yul\":1856:1859   */\n  0x00\n    /* \"#utility.yul\":1877:1944   */\n  tag_45\n    /* \"#utility.yul\":1941:1943   */\n  0x19\n    /* \"#utility.yul\":1936:1939   */\n  dup4\n    /* \"#utility.yul\":1877:1944   */\n  tag_20\n  jump\t// in\ntag_45:\n    /* \"#utility.yul\":1870:1944   */\n  swap2\n  pop\n    /* \"#utility.yul\":1953:2046   */\n  tag_46\n    /* \"#utility.yul\":2042:2045   */\n  dup3\n    /* \"#utility.yul\":1953:2046   */\n  tag_21\n  jump\t// in\ntag_46:\n    /* \"#utility.yul\":2071:2073   */\n  0x20\n    /* \"#utility.yul\":2066:2069   */\n  dup3\n    /* \"#utility.yul\":2062:2074   */\n  add\n    /* \"#utility.yul\":2055:2074   */\n  swap1\n  pop\n    /* \"#utility.yul\":1714:2080   */\n  swap2\n  swap1\n  pop\n  jump\t// out\n    /* \"#utility.yul\":2086:2505   */\ntag_8:\n    /* \"#utility.yul\":2252:2256   */\n  0x00\n    /* \"#utility.yul\":2290:2292   */\n  0x20\n    /* \"#utility.yul\":2279:2288   */\n  dup3\n    /* \"#utility.yul\":2275:2293   */\n  add\n    /* \"#utility.yul\":2267:2293   */\n  swap1\n  pop\n    /* \"#utility.yul\":2339:2348   */\n  dup2\n    /* \"#utility.yul\":2333:2337   */\n  dup2\n    /* \"#utility.yul\":2329:2349   */\n  sub\n    /* \"#utility.yul\":2325:2326   */\n  0x00\n    /* \"#utility.yul\":2314:2323   */\n  dup4\n    /* \"#utility.yul\":2310:2327   */\n  add\n    /* \"#utility.yul\":2303:2350   */\n  mstore\n    /* \"#utility.yul\":2367:2498   */\n  tag_48\n    /* \"#utility.yul\":2493:2497   */\n  dup2\n    /* \"#utility.yul\":2367:2498   */\n  tag_22\n  jump\t// in\ntag_48:\n    /* \"#utility.yul\":2359:2498   */\n  swap1\n  pop\n    /* \"#utility.yul\":2086:2505   */\n  swap2\n  swap1\n  pop\n  jump\t// out\n    /* \"#utility.yul\":2511:2692   */\ntag_23:\n    /* \"#utility.yul\":2651:2684   */\n  0x496e76616c69642061636365737320636f6e74726f6c20636f6e747261637400\n    /* \"#utility.yul\":2647:2648   */\n  0x00\n    /* \"#utility.yul\":2639:2645   */\n  dup3\n    /* \"#utility.yul\":2635:2649   */\n  add\n    /* \"#utility.yul\":2628:2685   */\n  mstore\n    /* \"#utility.yul\":2511:2692   */\n  pop\n  jump\t// out\n    /* \"#utility.yul\":2698:3064   */\ntag_24:\n    /* \"#utility.yul\":2840:2843   */\n  0x00\n    /* \"#utility.yul\":2861:2928   */\n  tag_51\n    /* \"#utility.yul\":2925:2927   */\n  0x1f\n    /* \"#utility.yul\":2920:2923   */\n  dup4\n    /* \"#utility.yul\":2861:2928   */\n  tag_20\n  jump\t// in\ntag_51:\n    /* \"#utility.yul\":2854:2928   */\n  swap2\n  pop\n    /* \"#utility.yul\":2937:3030   */\n  tag_52\n    /* \"#utility.yul\":3026:3029   */\n  dup3\n    /* \"#utility.yul\":2937:3030   */\n  tag_23\n  jump\t// in\ntag_52:\n    /* \"#utility.yul\":3055:3057   */\n  0x20\n    /* \"#utility.yul\":3050:3053   */\n  dup3\n    /* \"#utility.yul\":3046:3058   */\n  add\n    /* \"#utility.yul\":3039:3058   */\n  swap1\n  pop\n    /* \"#utility.yul\":2698:3064   */\n  swap2\n  swap1\n  pop\n  jump\t// out\n    /* \"#utility.yul\":3070:3489   */\ntag_11:\n    /* \"#utility.yul\":3236:3240   */\n  0x00\n    /* \"#utility.yul\":3274:3276   */\n  0x20\n    /* \"#utility.yul\":3263:3272   */\n  dup3\n    /* \"#utility.yul\":3259:3277   */\n  add\n    /* \"#utility.yul\":3251:3277   */\n  swap1\n  pop\n    /* \"#utility.yul\":3323:3332   */\n  dup2\n    /* \"#utility.yul\":3317:3321   */\n  dup2\n    /* \"#utility.yul\":3313:3333   */\n  sub\n    /* \"#utility.yul\":3309:3310   */\n  0x00\n    /* \"#utility.yul\":3298:3307   */\n  dup4\n    /* \"#utility.yul\":3294:3311   */\n  add\n    /* \"#utility.yul\":3287:3334   */\n  mstore\n    /* \"#utility.yul\":3351:3482   */\n  tag_54\n    /* \"#utility.yul\":3477:3481   */\n  dup2\n    /* \"#utility.yul\":3351:3482   */\n  tag_24\n  jump\t// in\ntag_54:\n    /* \"#utility.yul\":3343:3482   */\n  swap1\n  pop\n    /* \"#utility.yul\":3070:3489   */\n  swap2\n  swap1\n  pop\n  jump\t// out\n    /* \"contracts/PrescriptionAndDiagnosis.sol\":2014:13609  contract PrescriptionAndDiagnosis is ReentrancyGuard {... */\ntag_12:\n  dataSize(sub_0)\n  dup1\n  dataOffset(sub_0)\n  0x00\n  codecopy\n  0x00\n  return\nstop\n\nsub_0: assembly {\n        /* \"contracts/PrescriptionAndDiagnosis.sol\":2014:13609  contract PrescriptionAndDiagnosis is ReentrancyGuard {... */\n      mstore(0x40, 0x80)\n      callvalue\n      dup1\n      iszero\n      tag_1\n      jumpi\n      revert(0x00, 0x00)\n    tag_1:\n      pop\n      jumpi(tag_2, lt(calldatasize, 0x04))\n      shr(0xe0, calldataload(0x00))\n      dup1\n      0x81024971\n      gt\n      tag_18\n      jumpi\n      dup1\n      0xe7a0e985\n      gt\n      tag_19\n      jumpi\n      dup1\n      0xe7a0e985\n      eq\n      tag_14\n      jumpi\n      dup1\n      0xf115d955\n      eq\n      tag_15\n      jumpi\n      dup1\n      0xf49ac617\n      eq\n      tag_16\n      jumpi\n      dup1\n      0xf84441b2\n      eq\n      tag_17\n      jumpi\n      jump(tag_2)\n    tag_19:\n      dup1\n      0x81024971\n      eq\n      tag_10\n      jumpi\n      dup1\n      0xb6558498\n      eq\n      tag_11\n      jumpi\n      dup1\n      0xe0acc698\n      eq\n      tag_12\n      jumpi\n      dup1\n      0xe437bea4\n      eq\n      tag_13\n      jumpi\n      jump(tag_2)\n    tag_18:\n      dup1\n      0x67031bae\n      gt\n      tag_20\n      jumpi\n      dup1\n      0x67031bae\n      eq\n      tag_6\n      jumpi\n      dup1\n      0x6f16af10\n      eq\n      tag_7\n      jumpi\n      dup1\n      0x6f8d7bb8\n      eq\n      tag_8\n      jumpi\n      dup1\n      0x734027e3\n      eq\n      tag_9\n      jumpi\n      jump(tag_2)\n    tag_20:\n      dup1\n      0x13007d55\n      eq\n      tag_3\n      jumpi\n      dup1\n      0x31dfc91b\n      eq\n      tag_4\n      jumpi\n      dup1\n      0x380bd443\n      eq\n      tag_5\n      jumpi\n    tag_2:\n      revert(0x00, 0x00)\n        /* \"contracts/PrescriptionAndDiagnosis.sol\":3765:3801  IAccessControl  public accessControl */\n    tag_3:\n      tag_21\n      tag_22\n      jump\t// in\n    tag_21:\n      mload(0x40)\n      tag_23\n      swap2\n      swap1\n      tag_24\n      jump\t// in\n    tag_23:\n      mload(0x40)\n      dup1\n      swap2\n      sub\n      swap1\n      return\n        /* \"contracts/PrescriptionAndDiagnosis.sol\":3937:3990  mapping(uint256 => Prescription) public prescriptions */\n    tag_4:\n      tag_25\n      0x04\n      dup1\n      calldatasize\n      sub\n      dup2\n      add\n      swap1\n      tag_26\n      swap2\n      swap1\n      tag_27\n      jump\t// in\n    tag_26:\n      tag_28\n      jump\t// in\n    tag_25:\n      mload(0x40)\n      tag_29\n      swap11\n      swap10\n      swap9\n      swap8\n      swap7\n      swap6\n      swap5\n      swap4\n      swap3\n      swap2\n      swap1\n      tag_30\n      jump\t// in\n    tag_29:\n      mload(0x40)\n      dup1\n      swap2\n      sub\n      swap1\n      return\n        /* \"contracts/PrescriptionAndDiagnosis.sol\":4277:4341  uint256 public constant DEFAULT_PRESCRIPTION_VALIDITY = 180 days */\n    tag_5:\n      tag_31\n      tag_32\n      jump\t// in\n    tag_31:\n      mload(0x40)\n      tag_33\n      swap2\n      swap1\n      tag_34\n      jump\t// in\n    tag_33:\n      mload(0x40)\n      dup1\n      swap2\n      sub\n      swap1\n      return\n        /* \"contracts/PrescriptionAndDiagnosis.sol\":3720:3759  IPatientConsent public identityContract */\n    tag_6:\n      tag_35\n      tag_36\n      jump\t// in\n    tag_35:\n      mload(0x40)\n      tag_37\n      swap2\n      swap1\n      tag_38\n      jump\t// in\n    tag_37:\n      mload(0x40)\n      dup1\n      swap2\n      sub\n      swap1\n      return\n        /* \"contracts/PrescriptionAndDiagnosis.sol\":12921:13194  function getPrescription(uint256 prescriptionId)... */\n    tag_7:\n      tag_39\n      0x04\n      dup1\n      calldatasize\n      sub\n      dup2\n      add\n      swap1\n      tag_40\n      swap2\n      swap1\n      tag_27\n      jump\t// in\n    tag_40:\n      tag_41\n      jump\t// in\n    tag_39:\n      mload(0x40)\n      tag_42\n      swap2\n      swap1\n      tag_43\n      jump\t// in\n    tag_42:\n      mload(0x40)\n      dup1\n      swap2\n      sub\n      swap1\n      return\n        /* \"contracts/PrescriptionAndDiagnosis.sol\":7608:8423  function addDiagnosis(... */\n    tag_8:\n      tag_44\n      0x04\n      dup1\n      calldatasize\n      sub\n      dup2\n      add\n      swap1\n      tag_45\n      swap2\n      swap1\n      tag_46\n      jump\t// in\n    tag_45:\n      tag_47\n      jump\t// in\n    tag_44:\n      stop\n        /* \"contracts/PrescriptionAndDiagnosis.sol\":8548:9766  function addPrescription(... */\n    tag_9:\n      tag_48\n      0x04\n      dup1\n      calldatasize\n      sub\n      dup2\n      add\n      swap1\n      tag_49\n      swap2\n      swap1\n      tag_50\n      jump\t// in\n    tag_49:\n      tag_51\n      jump\t// in\n    tag_48:\n      stop\n        /* \"contracts/PrescriptionAndDiagnosis.sol\":3808:3837  uint256 public diagnosisCount */\n    tag_10:\n      tag_52\n      tag_53\n      jump\t// in\n    tag_52:\n      mload(0x40)\n      tag_54\n      swap2\n      swap1\n      tag_34\n      jump\t// in\n    tag_54:\n      mload(0x40)\n      dup1\n      swap2\n      sub\n      swap1\n      return\n        /* \"contracts/PrescriptionAndDiagnosis.sol\":3843:3875  uint256 public prescriptionCount */\n    tag_11:\n      tag_55\n      tag_56\n      jump\t// in\n    tag_55:\n      mload(0x40)\n      tag_57\n      swap2\n      swap1\n      tag_34\n      jump\t// in\n    tag_57:\n      mload(0x40)\n      dup1\n      swap2\n      sub\n      swap1\n      return\n        /* \"contracts/PrescriptionAndDiagnosis.sol\":13259:13406  function getPrescriptionsByPatient(address patient) external view returns (uint256[] memory) {... */\n    tag_12:\n      tag_58\n      0x04\n      dup1\n      calldatasize\n      sub\n      dup2\n      add\n      swap1\n      tag_59\n      swap2\n      swap1\n      tag_60\n      jump\t// in\n    tag_59:\n      tag_61\n      jump\t// in\n    tag_58:\n      mload(0x40)\n      tag_62\n      swap2\n      swap1\n      tag_63\n      jump\t// in\n    tag_62:\n      mload(0x40)\n      dup1\n      swap2\n      sub\n      swap1\n      return\n        /* \"contracts/PrescriptionAndDiagnosis.sol\":3882:3931  mapping(uint256 => Diagnosis)    public diagnoses */\n    tag_13:\n      tag_64\n      0x04\n      dup1\n      calldatasize\n      sub\n      dup2\n      add\n      swap1\n      tag_65\n      swap2\n      swap1\n      tag_27\n      jump\t// in\n    tag_65:\n      tag_66\n      jump\t// in\n    tag_64:\n      mload(0x40)\n      tag_67\n      swap7\n      swap6\n      swap5\n      swap4\n      swap3\n      swap2\n      swap1\n      tag_68\n      jump\t// in\n    tag_67:\n      mload(0x40)\n      dup1\n      swap2\n      sub\n      swap1\n      return\n        /* \"contracts/PrescriptionAndDiagnosis.sol\":12422:12762  function isValidPrescription(uint256 prescriptionId)... */\n    tag_14:\n      tag_69\n      0x04\n      dup1\n      calldatasize\n      sub\n      dup2\n      add\n      swap1\n      tag_70\n      swap2\n      swap1\n      tag_27\n      jump\t// in\n    tag_70:\n      tag_71\n      jump\t// in\n    tag_69:\n      mload(0x40)\n      tag_72\n      swap2\n      swap1\n      tag_73\n      jump\t// in\n    tag_72:\n      mload(0x40)\n      dup1\n      swap2\n      sub\n      swap1\n      return\n        /* \"contracts/PrescriptionAndDiagnosis.sol\":10457:11161  function dispensePrescription(uint256 prescriptionId)... */\n    tag_15:\n      tag_74\n      0x04\n      dup1\n      calldatasize\n      sub\n      dup2\n      add\n      swap1\n      tag_75\n      swap2\n      swap1\n      tag_27\n      jump\t// in\n    tag_75:\n      tag_76\n      jump\t// in\n    tag_74:\n      stop\n        /* \"contracts/PrescriptionAndDiagnosis.sol\":13468:13607  function getDiagnosesByPatient(address patient) external view returns (uint256[] memory) {... */\n    tag_16:\n      tag_77\n      0x04\n      dup1\n      calldatasize\n      sub\n      dup2\n      add\n      swap1\n      tag_78\n      swap2\n      swap1\n      tag_60\n      jump\t// in\n    tag_78:\n      tag_79\n      jump\t// in\n    tag_77:\n      mload(0x40)\n      tag_80\n      swap2\n      swap1\n      tag_63\n      jump\t// in\n    tag_80:\n      mload(0x40)\n      dup1\n      swap2\n      sub\n      swap1\n      return\n        /* \"contracts/PrescriptionAndDiagnosis.sol\":11316:11849  function expirePrescription(uint256 prescriptionId) external {... */\n    tag_17:\n      tag_81\n      0x04\n      dup1\n      calldatasize\n      sub\n      dup2\n      add\n      swap1\n      tag_82\n      swap2\n      swap1\n      tag_27\n      jump\t// in\n    tag_82:\n      tag_83\n      jump\t// in\n    tag_81:\n      stop\n        /* \"contracts/PrescriptionAndDiagnosis.sol\":3765:3801  IAccessControl  public accessControl */\n    tag_22:\n      0x02\n      0x00\n      swap1\n      sload\n      swap1\n      0x0100\n      exp\n      swap1\n      div\n      0xffffffffffffffffffffffffffffffffffffffff\n      and\n      dup2\n      jump\t// out\n        /* \"contracts/PrescriptionAndDiagnosis.sol\":3937:3990  mapping(uint256 => Prescription) public prescriptions */\n    tag_28:\n      mstore(0x20, 0x06)\n      dup1\n      0x00\n      mstore\n      keccak256(0x00, 0x40)\n      0x00\n      swap2\n      pop\n      swap1\n      pop\n      dup1\n      0x00\n      add\n      sload\n      swap1\n      dup1\n      0x01\n      add\n      0x00\n      swap1\n      sload\n      swap1\n      0x0100\n      exp\n      swap1\n      div\n      0xffffffffffffffffffffffffffffffffffffffff\n      and\n      swap1\n      dup1\n      0x02\n      add\n      0x00\n      swap1\n      sload\n      swap1\n      0x0100\n      exp\n      swap1\n      div\n      0xffffffffffffffffffffffffffffffffffffffff\n      and\n      swap1\n      dup1\n      0x03\n      add\n      dup1\n      sload\n      tag_84\n      swap1\n      tag_85\n      jump\t// in\n    tag_84:\n      dup1\n      0x1f\n      add\n      0x20\n      dup1\n      swap2\n      div\n      mul\n      0x20\n      add\n      mload(0x40)\n      swap1\n      dup2\n      add\n      0x40\n      mstore\n      dup1\n      swap3\n      swap2\n      swap1\n      dup2\n      dup2\n      mstore\n      0x20\n      add\n      dup3\n      dup1\n      sload\n      tag_86\n      swap1\n      tag_85\n      jump\t// in\n    tag_86:\n      dup1\n      iszero\n      tag_87\n      jumpi\n      dup1\n      0x1f\n      lt\n      tag_88\n      jumpi\n      0x0100\n      dup1\n      dup4\n      sload\n      div\n      mul\n      dup4\n      mstore\n      swap2\n      0x20\n      add\n      swap2\n      jump(tag_87)\n    tag_88:\n      dup3\n      add\n      swap2\n      swap1\n      0x00\n      mstore\n      keccak256(0x00, 0x20)\n      swap1\n    tag_89:\n      dup2\n      sload\n      dup2\n      mstore\n      swap1\n      0x01\n      add\n      swap1\n      0x20\n      add\n      dup1\n      dup4\n      gt\n      tag_89\n      jumpi\n      dup3\n      swap1\n      sub\n      0x1f\n      and\n      dup3\n      add\n      swap2\n    tag_87:\n      pop\n      pop\n      pop\n      pop\n      pop\n      swap1\n      dup1\n      0x04\n      add\n      dup1\n      sload\n      tag_90\n      swap1\n      tag_85\n      jump\t// in\n    tag_90:\n      dup1\n      0x1f\n      add\n      0x20\n      dup1\n      swap2\n      div\n      mul\n      0x20\n      add\n      mload(0x40)\n      swap1\n      dup2\n      add\n      0x40\n      mstore\n      dup1\n      swap3\n      swap2\n      swap1\n      dup2\n      dup2\n      mstore\n      0x20\n      add\n      dup3\n      dup1\n      sload\n      tag_91\n      swap1\n      tag_85\n      jump\t// in\n    tag_91:\n      dup1\n      iszero\n      tag_92\n      jumpi\n      dup1\n      0x1f\n      lt\n      tag_93\n      jumpi\n      0x0100\n      dup1\n      dup4\n      sload\n      div\n      mul\n      dup4\n      mstore\n      swap2\n      0x20\n      add\n      swap2\n      jump(tag_92)\n    tag_93:\n      dup3\n      add\n      swap2\n      swap1\n      0x00\n      mstore\n      keccak256(0x00, 0x20)\n      swap1\n    tag_94:\n      dup2\n      sload\n      dup2\n      mstore\n      swap1\n      0x01\n      add\n      swap1\n      0x20\n      add\n      dup1\n      dup4\n      gt\n      tag_94\n      jumpi\n      dup3\n      swap1\n      sub\n      0x1f\n      and\n      dup3\n      add\n      swap2\n    tag_92:\n      pop\n      pop\n      pop\n      pop\n      pop\n      swap1\n      dup1\n      0x05\n      add\n      0x00\n      swap1\n      sload\n      swap1\n      0x0100\n      exp\n      swap1\n      div\n      0xff\n      and\n      swap1\n      dup1\n      0x06\n      add\n      sload\n      swap1\n      dup1\n      0x07\n      add\n      sload\n      swap1\n      dup1\n      0x08\n      add\n      0x00\n      swap1\n      sload\n      swap1\n      0x0100\n      exp\n      swap1\n      div\n      0xffffffffffffffffffffffffffffffffffffffff\n      and\n      swap1\n      dup1\n      0x09\n      add\n      sload\n      swap1\n      pop\n      dup11\n      jump\t// out\n        /* \"contracts/PrescriptionAndDiagnosis.sol\":4277:4341  uint256 public constant DEFAULT_PRESCRIPTION_VALIDITY = 180 days */\n    tag_32:\n        /* \"contracts/PrescriptionAndDiagnosis.sol\":4333:4341  180 days */\n      0xed4e00\n        /* \"contracts/PrescriptionAndDiagnosis.sol\":4277:4341  uint256 public constant DEFAULT_PRESCRIPTION_VALIDITY = 180 days */\n      dup2\n      jump\t// out\n        /* \"contracts/PrescriptionAndDiagnosis.sol\":3720:3759  IPatientConsent public identityContract */\n    tag_36:\n      0x01\n      0x00\n      swap1\n      sload\n      swap1\n      0x0100\n      exp\n      swap1\n      div\n      0xffffffffffffffffffffffffffffffffffffffff\n      and\n      dup2\n      jump\t// out\n        /* \"contracts/PrescriptionAndDiagnosis.sol\":12921:13194  function getPrescription(uint256 prescriptionId)... */\n    tag_41:\n        /* \"contracts/PrescriptionAndDiagnosis.sol\":13017:13036  Prescription memory */\n      tag_95\n      tag_96\n      jump\t// in\n    tag_95:\n        /* \"contracts/PrescriptionAndDiagnosis.sol\":13108:13109  0 */\n      0x00\n        /* \"contracts/PrescriptionAndDiagnosis.sol\":13060:13073  prescriptions */\n      0x06\n        /* \"contracts/PrescriptionAndDiagnosis.sol\":13060:13089  prescriptions[prescriptionId] */\n      0x00\n        /* \"contracts/PrescriptionAndDiagnosis.sol\":13074:13088  prescriptionId */\n      dup5\n        /* \"contracts/PrescriptionAndDiagnosis.sol\":13060:13089  prescriptions[prescriptionId] */\n      dup2\n      mstore\n      0x20\n      add\n      swap1\n      dup2\n      mstore\n      0x20\n      add\n      0x00\n      keccak256\n        /* \"contracts/PrescriptionAndDiagnosis.sol\":13060:13104  prescriptions[prescriptionId].prescriptionId */\n      0x00\n      add\n      sload\n        /* \"contracts/PrescriptionAndDiagnosis.sol\":13060:13109  prescriptions[prescriptionId].prescriptionId != 0 */\n      sub\n        /* \"contracts/PrescriptionAndDiagnosis.sol\":13052:13141  require(prescriptions[prescriptionId].prescriptionId != 0, \"Prescription does not exist\") */\n      tag_98\n      jumpi\n      mload(0x40)\n      0x08c379a000000000000000000000000000000000000000000000000000000000\n      dup2\n      mstore\n      0x04\n      add\n      tag_99\n      swap1\n      tag_100\n      jump\t// in\n    tag_99:\n      mload(0x40)\n      dup1\n      swap2\n      sub\n      swap1\n      revert\n    tag_98:\n        /* \"contracts/PrescriptionAndDiagnosis.sol\":13158:13171  prescriptions */\n      0x06\n        /* \"contracts/PrescriptionAndDiagnosis.sol\":13158:13187  prescriptions[prescriptionId] */\n      0x00\n        /* \"contracts/PrescriptionAndDiagnosis.sol\":13172:13186  prescriptionId */\n      dup4\n        /* \"contracts/PrescriptionAndDiagnosis.sol\":13158:13187  prescriptions[prescriptionId] */\n      dup2\n      mstore\n      0x20\n      add\n      swap1\n      dup2\n      mstore\n      0x20\n      add\n      0x00\n      keccak256\n        /* \"contracts/PrescriptionAndDiagnosis.sol\":13151:13187  return prescriptions[prescriptionId] */\n      mload(0x40)\n      dup1\n      0x0140\n      add\n      0x40\n      mstore\n      swap1\n      dup2\n      0x00\n      dup3\n      add\n      sload\n      dup2\n      mstore\n      0x20\n      add\n      0x01\n      dup3\n      add\n      0x00\n      swap1\n      sload\n      swap1\n      0x0100\n      exp\n      swap1\n      div\n      0xffffffffffffffffffffffffffffffffffffffff\n      and\n      0xffffffffffffffffffffffffffffffffffffffff\n      and\n      0xffffffffffffffffffffffffffffffffffffffff\n      and\n      dup2\n      mstore\n      0x20\n      add\n      0x02\n      dup3\n      add\n      0x00\n      swap1\n      sload\n      swap1\n      0x0100\n      exp\n      swap1\n      div\n      0xffffffffffffffffffffffffffffffffffffffff\n      and\n      0xffffffffffffffffffffffffffffffffffffffff\n      and\n      0xffffffffffffffffffffffffffffffffffffffff\n      and\n      dup2\n      mstore\n      0x20\n      add\n      0x03\n      dup3\n      add\n      dup1\n      sload\n      tag_101\n      swap1\n      tag_85\n      jump\t// in\n    tag_101:\n      dup1\n      0x1f\n      add\n      0x20\n      dup1\n      swap2\n      div\n      mul\n      0x20\n      add\n      mload(0x40)\n      swap1\n      dup2\n      add\n      0x40\n      mstore\n      dup1\n      swap3\n      swap2\n      swap1\n      dup2\n      dup2\n      mstore\n      0x20\n      add\n      dup3\n      dup1\n      sload\n      tag_102\n      swap1\n      tag_85\n      jump\t// in\n    tag_102:\n      dup1\n      iszero\n      tag_103\n      jumpi\n      dup1\n      0x1f\n      lt\n      tag_104\n      jumpi\n      0x0100\n      dup1\n      dup4\n      sload\n      div\n      mul\n      dup4\n      mstore\n      swap2\n      0x20\n      add\n      swap2\n      jump(tag_103)\n    tag_104:\n      dup3\n      add\n      swap2\n      swap1\n      0x00\n      mstore\n      keccak256(0x00, 0x20)\n      swap1\n    tag_105:\n      dup2\n      sload\n      dup2\n      mstore\n      swap1\n      0x01\n      add\n      swap1\n      0x20\n      add\n      dup1\n      dup4\n      gt\n      tag_105\n      jumpi\n      dup3\n      swap1\n      sub\n      0x1f\n      and\n      dup3\n      add\n      swap2\n    tag_103:\n      pop\n      pop\n      pop\n      pop\n      pop\n      dup2\n      mstore\n      0x20\n      add\n      0x04\n      dup3\n      add\n      dup1\n      sload\n      tag_106\n      swap1\n      tag_85\n      jump\t// in\n    tag_106:\n      dup1\n      0x1f\n      add\n      0x20\n      dup1\n      swap2\n      div\n      mul\n      0x20\n      add\n      mload(0x40)\n      swap1\n      dup2\n      add\n      0x40\n      mstore\n      dup1\n      swap3\n      swap2\n      swap1\n      dup2\n      dup2\n      mstore\n      0x20\n      add\n      dup3\n      dup1\n      sload\n      tag_107\n      swap1\n      tag_85\n      jump\t// in\n    tag_107:\n      dup1\n      iszero\n      tag_108\n      jumpi\n      dup1\n      0x1f\n      lt\n      tag_109\n      jumpi\n      0x0100\n      dup1\n      dup4\n      sload\n      div\n      mul\n      dup4\n      mstore\n      swap2\n      0x20\n      add\n      swap2\n      jump(tag_108)\n    tag_109:\n      dup3\n      add\n      swap2\n      swap1\n      0x00\n      mstore\n      keccak256(0x00, 0x20)\n      swap1\n    tag_110:\n      dup2\n      sload\n      dup2\n      mstore\n      swap1\n      0x01\n      add\n      swap1\n      0x20\n      add\n      dup1\n      dup4\n      gt\n      tag_110\n      jumpi\n      dup3\n      swap1\n      sub\n      0x1f\n      and\n      dup3\n      add\n      swap2\n    tag_108:\n      pop\n      pop\n      pop\n      pop\n      pop\n      dup2\n      mstore\n      0x20\n      add\n      0x05\n      dup3\n      add\n      0x00\n      swap1\n      sload\n      swap1\n      0x0100\n      exp\n      swap1\n      div\n      0xff\n      and\n      0x02\n      dup2\n      gt\n      iszero\n      tag_111\n      jumpi\n      tag_112\n      tag_113\n      jump\t// in\n    tag_112:\n    tag_111:\n      0x02\n      dup2\n      gt\n      iszero\n      tag_114\n      jumpi\n      tag_115\n      tag_113\n      jump\t// in\n    tag_115:\n    tag_114:\n      dup2\n      mstore\n      0x20\n      add\n      0x06\n      dup3\n      add\n      sload\n      dup2\n      mstore\n      0x20\n      add\n      0x07\n      dup3\n      add\n      sload\n      dup2\n      mstore\n      0x20\n      add\n      0x08\n      dup3\n      add\n      0x00\n      swap1\n      sload\n      swap1\n      0x0100\n      exp\n      swap1\n      div\n      0xffffffffffffffffffffffffffffffffffffffff\n      and\n      0xffffffffffffffffffffffffffffffffffffffff\n      and\n      0xffffffffffffffffffffffffffffffffffffffff\n      and\n      dup2\n      mstore\n      0x20\n      add\n      0x09\n      dup3\n      add\n      sload\n      dup2\n      mstore\n      pop\n      pop\n      swap1\n      pop\n        /* \"contracts/PrescriptionAndDiagnosis.sol\":12921:13194  function getPrescription(uint256 prescriptionId)... */\n      swap2\n      swap1\n      pop\n      jump\t// out\n        /* \"contracts/PrescriptionAndDiagnosis.sol\":7608:8423  function addDiagnosis(... */\n    tag_47:\n        /* \"contracts/PrescriptionAndDiagnosis.sol\":7782:7789  patient */\n      dup3\n        /* \"contracts/PrescriptionAndDiagnosis.sol\":5852:5868  identityContract */\n      0x01\n      0x00\n      swap1\n      sload\n      swap1\n      0x0100\n      exp\n      swap1\n      div\n      0xffffffffffffffffffffffffffffffffffffffff\n      and\n        /* \"contracts/PrescriptionAndDiagnosis.sol\":5852:5888  identityContract.isRegisteredPatient */\n      0xffffffffffffffffffffffffffffffffffffffff\n      and\n      0x3c4f7a9d\n        /* \"contracts/PrescriptionAndDiagnosis.sol\":5889:5896  patient */\n      dup3\n        /* \"contracts/PrescriptionAndDiagnosis.sol\":5852:5897  identityContract.isRegisteredPatient(patient) */\n      mload(0x40)\n      dup3\n      0xffffffff\n      and\n      0xe0\n      shl\n      dup2\n      mstore\n      0x04\n      add\n      tag_117\n      swap2\n      swap1\n      tag_118\n      jump\t// in\n    tag_117:\n      0x20\n      mload(0x40)\n      dup1\n      dup4\n      sub\n      dup2\n      dup7\n      gas\n      staticcall\n      iszero\n      dup1\n      iszero\n      tag_120\n      jumpi\n      returndatacopy(0x00, 0x00, returndatasize)\n      revert(0x00, returndatasize)\n    tag_120:\n      pop\n      pop\n      pop\n      pop\n      mload(0x40)\n      returndatasize\n      not(0x1f)\n      0x1f\n      dup3\n      add\n      and\n      dup3\n      add\n      dup1\n      0x40\n      mstore\n      pop\n      dup2\n      add\n      swap1\n      tag_121\n      swap2\n      swap1\n      tag_122\n      jump\t// in\n    tag_121:\n        /* \"contracts/PrescriptionAndDiagnosis.sol\":5844:5924  require(identityContract.isRegisteredPatient(patient), \"Patient not registered\") */\n      tag_123\n      jumpi\n      mload(0x40)\n      0x08c379a000000000000000000000000000000000000000000000000000000000\n      dup2\n      mstore\n      0x04\n      add\n      tag_124\n      swap1\n      tag_125\n      jump\t// in\n    tag_124:\n      mload(0x40)\n      dup1\n      swap2\n      sub\n      swap1\n      revert\n    tag_123:\n        /* \"contracts/PrescriptionAndDiagnosis.sol\":7810:7817  patient */\n      dup4\n        /* \"contracts/PrescriptionAndDiagnosis.sol\":6002:6018  identityContract */\n      0x01\n      0x00\n      swap1\n      sload\n      swap1\n      0x0100\n      exp\n      swap1\n      div\n      0xffffffffffffffffffffffffffffffffffffffff\n      and\n        /* \"contracts/PrescriptionAndDiagnosis.sol\":6002:6034  identityContract.hasValidConsent */\n      0xffffffffffffffffffffffffffffffffffffffff\n      and\n      0xa6d41f33\n        /* \"contracts/PrescriptionAndDiagnosis.sol\":6035:6042  patient */\n      dup3\n        /* \"contracts/PrescriptionAndDiagnosis.sol\":6044:6054  msg.sender */\n      caller\n        /* \"contracts/PrescriptionAndDiagnosis.sol\":6002:6055  identityContract.hasValidConsent(patient, msg.sender) */\n      mload(0x40)\n      dup4\n      0xffffffff\n      and\n      0xe0\n      shl\n      dup2\n      mstore\n      0x04\n      add\n      tag_127\n      swap3\n      swap2\n      swap1\n      tag_128\n      jump\t// in\n    tag_127:\n      0x20\n      mload(0x40)\n      dup1\n      dup4\n      sub\n      dup2\n      dup7\n      gas\n      staticcall\n      iszero\n      dup1\n      iszero\n      tag_130\n      jumpi\n      returndatacopy(0x00, 0x00, returndatasize)\n      revert(0x00, returndatasize)\n    tag_130:\n      pop\n      pop\n      pop\n      pop\n      mload(0x40)\n      returndatasize\n      not(0x1f)\n      0x1f\n      dup3\n      add\n      and\n      dup3\n      add\n      dup1\n      0x40\n      mstore\n      pop\n      dup2\n      add\n      swap1\n      tag_131\n      swap2\n      swap1\n      tag_122\n      jump\t// in\n    tag_131:\n        /* \"contracts/PrescriptionAndDiagnosis.sol\":5994:6089  require(identityContract.hasValidConsent(patient, msg.sender), \"No valid consent from patient\") */\n      tag_132\n      jumpi\n      mload(0x40)\n      0x08c379a000000000000000000000000000000000000000000000000000000000\n      dup2\n      mstore\n      0x04\n      add\n      tag_133\n      swap1\n      tag_134\n      jump\t// in\n    tag_133:\n      mload(0x40)\n      dup1\n      swap2\n      sub\n      swap1\n      revert\n    tag_132:\n        /* \"contracts/PrescriptionAndDiagnosis.sol\":1903:1904  1 */\n      0x01\n        /* \"contracts/PrescriptionAndDiagnosis.sol\":1887:1899  _guardStatus */\n      sload(0x00)\n        /* \"contracts/PrescriptionAndDiagnosis.sol\":1887:1904  _guardStatus == 1 */\n      eq\n        /* \"contracts/PrescriptionAndDiagnosis.sol\":1879:1940  require(_guardStatus == 1, \"ReentrancyGuard: reentrant call\") */\n      tag_136\n      jumpi\n      mload(0x40)\n      0x08c379a000000000000000000000000000000000000000000000000000000000\n      dup2\n      mstore\n      0x04\n      add\n      tag_137\n      swap1\n      tag_138\n      jump\t// in\n    tag_137:\n      mload(0x40)\n      dup1\n      swap2\n      sub\n      swap1\n      revert\n    tag_136:\n        /* \"contracts/PrescriptionAndDiagnosis.sol\":1965:1966  2 */\n      0x02\n        /* \"contracts/PrescriptionAndDiagnosis.sol\":1950:1962  _guardStatus */\n      0x00\n        /* \"contracts/PrescriptionAndDiagnosis.sol\":1950:1966  _guardStatus = 2 */\n      dup2\n      swap1\n      sstore\n      pop\n        /* \"contracts/PrescriptionAndDiagnosis.sol\":7895:7896  0 */\n      0x00\n        /* \"contracts/PrescriptionAndDiagnosis.sol\":7868:7884  diagnosisDetails */\n      dup5\n        /* \"contracts/PrescriptionAndDiagnosis.sol\":7862:7892  bytes(diagnosisDetails).length */\n      mload\n        /* \"contracts/PrescriptionAndDiagnosis.sol\":7862:7896  bytes(diagnosisDetails).length > 0 */\n      gt\n        /* \"contracts/PrescriptionAndDiagnosis.sol\":7854:7927  require(bytes(diagnosisDetails).length > 0, \"Diagnosis details required\") */\n      tag_140\n      jumpi\n      mload(0x40)\n      0x08c379a000000000000000000000000000000000000000000000000000000000\n      dup2\n      mstore\n      0x04\n      add\n      tag_141\n      swap1\n      tag_142\n      jump\t// in\n    tag_141:\n      mload(0x40)\n      dup1\n      swap2\n      sub\n      swap1\n      revert\n    tag_140:\n        /* \"contracts/PrescriptionAndDiagnosis.sol\":7938:7952  diagnosisCount */\n      0x03\n      0x00\n        /* \"contracts/PrescriptionAndDiagnosis.sol\":7938:7954  diagnosisCount++ */\n      dup2\n      sload\n      dup1\n      swap3\n      swap2\n      swap1\n      tag_143\n      swap1\n      tag_144\n      jump\t// in\n    tag_143:\n      swap2\n      swap1\n      pop\n      sstore\n      pop\n        /* \"contracts/PrescriptionAndDiagnosis.sol\":7992:8275  Diagnosis({... */\n      mload(0x40)\n      dup1\n      0xc0\n      add\n      0x40\n      mstore\n      dup1\n        /* \"contracts/PrescriptionAndDiagnosis.sol\":8034:8048  diagnosisCount */\n      sload(0x03)\n        /* \"contracts/PrescriptionAndDiagnosis.sol\":7992:8275  Diagnosis({... */\n      dup2\n      mstore\n      0x20\n      add\n        /* \"contracts/PrescriptionAndDiagnosis.sol\":8080:8087  patient */\n      dup7\n        /* \"contracts/PrescriptionAndDiagnosis.sol\":7992:8275  Diagnosis({... */\n      0xffffffffffffffffffffffffffffffffffffffff\n      and\n      dup2\n      mstore\n      0x20\n      add\n        /* \"contracts/PrescriptionAndDiagnosis.sol\":8119:8129  msg.sender */\n      caller\n        /* \"contracts/PrescriptionAndDiagnosis.sol\":7992:8275  Diagnosis({... */\n      0xffffffffffffffffffffffffffffffffffffffff\n      and\n      dup2\n      mstore\n      0x20\n      add\n        /* \"contracts/PrescriptionAndDiagnosis.sol\":8161:8177  diagnosisDetails */\n      dup6\n        /* \"contracts/PrescriptionAndDiagnosis.sol\":7992:8275  Diagnosis({... */\n      dup2\n      mstore\n      0x20\n      add\n        /* \"contracts/PrescriptionAndDiagnosis.sol\":8209:8217  ipfsHash */\n      dup5\n        /* \"contracts/PrescriptionAndDiagnosis.sol\":7992:8275  Diagnosis({... */\n      dup2\n      mstore\n      0x20\n      add\n        /* \"contracts/PrescriptionAndDiagnosis.sol\":8249:8264  block.timestamp */\n      timestamp\n        /* \"contracts/PrescriptionAndDiagnosis.sol\":7992:8275  Diagnosis({... */\n      dup2\n      mstore\n      pop\n        /* \"contracts/PrescriptionAndDiagnosis.sol\":7964:7973  diagnoses */\n      0x05\n        /* \"contracts/PrescriptionAndDiagnosis.sol\":7964:7989  diagnoses[diagnosisCount] */\n      0x00\n        /* \"contracts/PrescriptionAndDiagnosis.sol\":7974:7988  diagnosisCount */\n      sload(0x03)\n        /* \"contracts/PrescriptionAndDiagnosis.sol\":7964:7989  diagnoses[diagnosisCount] */\n      dup2\n      mstore\n      0x20\n      add\n      swap1\n      dup2\n      mstore\n      0x20\n      add\n      0x00\n      keccak256\n        /* \"contracts/PrescriptionAndDiagnosis.sol\":7964:8275  diagnoses[diagnosisCount] = Diagnosis({... */\n      0x00\n      dup3\n      add\n      mload\n      dup2\n      0x00\n      add\n      sstore\n      0x20\n      dup3\n      add\n      mload\n      dup2\n      0x01\n      add\n      exp(0x0100, 0x00)\n      dup2\n      sload\n      dup2\n      0xffffffffffffffffffffffffffffffffffffffff\n      mul\n      not\n      and\n      swap1\n      dup4\n      0xffffffffffffffffffffffffffffffffffffffff\n      and\n      mul\n      or\n      swap1\n      sstore\n      pop\n      0x40\n      dup3\n      add\n      mload\n      dup2\n      0x02\n      add\n      exp(0x0100, 0x00)\n      dup2\n      sload\n      dup2\n      0xffffffffffffffffffffffffffffffffffffffff\n      mul\n      not\n      and\n      swap1\n      dup4\n      0xffffffffffffffffffffffffffffffffffffffff\n      and\n      mul\n      or\n      swap1\n      sstore\n      pop\n      0x60\n      dup3\n      add\n      mload\n      dup2\n      0x03\n      add\n      swap1\n      dup2\n      tag_145\n      swap2\n      swap1\n      tag_146\n      jump\t// in\n    tag_145:\n      pop\n      0x80\n      dup3\n      add\n      mload\n      dup2\n      0x04\n      add\n      swap1\n      dup2\n      tag_147\n      swap2\n      swap1\n      tag_146\n      jump\t// in\n    tag_147:\n      pop\n      0xa0\n      dup3\n      add\n      mload\n      dup2\n      0x05\n      add\n      sstore\n      swap1\n      pop\n      pop\n        /* \"contracts/PrescriptionAndDiagnosis.sol\":8286:8303  _patientDiagnoses */\n      0x08\n        /* \"contracts/PrescriptionAndDiagnosis.sol\":8286:8312  _patientDiagnoses[patient] */\n      0x00\n        /* \"contracts/PrescriptionAndDiagnosis.sol\":8304:8311  patient */\n      dup7\n        /* \"contracts/PrescriptionAndDiagnosis.sol\":8286:8312  _patientDiagnoses[patient] */\n      0xffffffffffffffffffffffffffffffffffffffff\n      and\n      0xffffffffffffffffffffffffffffffffffffffff\n      and\n      dup2\n      mstore\n      0x20\n      add\n      swap1\n      dup2\n      mstore\n      0x20\n      add\n      0x00\n      keccak256\n        /* \"contracts/PrescriptionAndDiagnosis.sol\":8318:8332  diagnosisCount */\n      sload(0x03)\n        /* \"contracts/PrescriptionAndDiagnosis.sol\":8286:8333  _patientDiagnoses[patient].push(diagnosisCount) */\n      swap1\n      dup1\n      0x01\n      dup2\n      sload\n      add\n      dup1\n      dup3\n      sstore\n      dup1\n      swap2\n      pop\n      pop\n      0x01\n      swap1\n      sub\n      swap1\n      0x00\n      mstore\n      keccak256(0x00, 0x20)\n      add\n      0x00\n      swap1\n      swap2\n      swap1\n      swap2\n      swap1\n      swap2\n      pop\n      sstore\n        /* \"contracts/PrescriptionAndDiagnosis.sol\":8388:8398  msg.sender */\n      caller\n        /* \"contracts/PrescriptionAndDiagnosis.sol\":8348:8416  DiagnosisAdded(diagnosisCount, patient, msg.sender, block.timestamp) */\n      0xffffffffffffffffffffffffffffffffffffffff\n      and\n        /* \"contracts/PrescriptionAndDiagnosis.sol\":8379:8386  patient */\n      dup6\n        /* \"contracts/PrescriptionAndDiagnosis.sol\":8348:8416  DiagnosisAdded(diagnosisCount, patient, msg.sender, block.timestamp) */\n      0xffffffffffffffffffffffffffffffffffffffff\n      and\n        /* \"contracts/PrescriptionAndDiagnosis.sol\":8363:8377  diagnosisCount */\n      sload(0x03)\n        /* \"contracts/PrescriptionAndDiagnosis.sol\":8348:8416  DiagnosisAdded(diagnosisCount, patient, msg.sender, block.timestamp) */\n      0x6ca89a3857c332e284f88f7589095ee9a2f29a5564c0a2d6aea4466332ce4fc6\n        /* \"contracts/PrescriptionAndDiagnosis.sol\":8400:8415  block.timestamp */\n      timestamp\n        /* \"contracts/PrescriptionAndDiagnosis.sol\":8348:8416  DiagnosisAdded(diagnosisCount, patient, msg.sender, block.timestamp) */\n      mload(0x40)\n      tag_149\n      swap2\n      swap1\n      tag_34\n      jump\t// in\n    tag_149:\n      mload(0x40)\n      dup1\n      swap2\n      sub\n      swap1\n      log4\n        /* \"contracts/PrescriptionAndDiagnosis.sol\":2002:2003  1 */\n      0x01\n        /* \"contracts/PrescriptionAndDiagnosis.sol\":1987:1999  _guardStatus */\n      0x00\n        /* \"contracts/PrescriptionAndDiagnosis.sol\":1987:2003  _guardStatus = 1 */\n      dup2\n      swap1\n      sstore\n      pop\n        /* \"contracts/PrescriptionAndDiagnosis.sol\":5934:5935  _ */\n      pop\n        /* \"contracts/PrescriptionAndDiagnosis.sol\":7608:8423  function addDiagnosis(... */\n      pop\n      pop\n      pop\n      pop\n      jump\t// out\n        /* \"contracts/PrescriptionAndDiagnosis.sol\":8548:9766  function addPrescription(... */\n    tag_51:\n        /* \"contracts/PrescriptionAndDiagnosis.sol\":8756:8763  patient */\n      dup4\n        /* \"contracts/PrescriptionAndDiagnosis.sol\":5852:5868  identityContract */\n      0x01\n      0x00\n      swap1\n      sload\n      swap1\n      0x0100\n      exp\n      swap1\n      div\n      0xffffffffffffffffffffffffffffffffffffffff\n      and\n        /* \"contracts/PrescriptionAndDiagnosis.sol\":5852:5888  identityContract.isRegisteredPatient */\n      0xffffffffffffffffffffffffffffffffffffffff\n      and\n      0x3c4f7a9d\n        /* \"contracts/PrescriptionAndDiagnosis.sol\":5889:5896  patient */\n      dup3\n        /* \"contracts/PrescriptionAndDiagnosis.sol\":5852:5897  identityContract.isRegisteredPatient(patient) */\n      mload(0x40)\n      dup3\n      0xffffffff\n      and\n      0xe0\n      shl\n      dup2\n      mstore\n      0x04\n      add\n      tag_151\n      swap2\n      swap1\n      tag_118\n      jump\t// in\n    tag_151:\n      0x20\n      mload(0x40)\n      dup1\n      dup4\n      sub\n      dup2\n      dup7\n      gas\n      staticcall\n      iszero\n      dup1\n      iszero\n      tag_153\n      jumpi\n      returndatacopy(0x00, 0x00, returndatasize)\n      revert(0x00, returndatasize)\n    tag_153:\n      pop\n      pop\n      pop\n      pop\n      mload(0x40)\n      returndatasize\n      not(0x1f)\n      0x1f\n      dup3\n      add\n      and\n      dup3\n      add\n      dup1\n      0x40\n      mstore\n      pop\n      dup2\n      add\n      swap1\n      tag_154\n      swap2\n      swap1\n      tag_122\n      jump\t// in\n    tag_154:\n        /* \"contracts/PrescriptionAndDiagnosis.sol\":5844:5924  require(identityContract.isRegisteredPatient(patient), \"Patient not registered\") */\n      tag_155\n      jumpi\n      mload(0x40)\n      0x08c379a000000000000000000000000000000000000000000000000000000000\n      dup2\n      mstore\n      0x04\n      add\n      tag_156\n      swap1\n      tag_125\n      jump\t// in\n    tag_156:\n      mload(0x40)\n      dup1\n      swap2\n      sub\n      swap1\n      revert\n    tag_155:\n        /* \"contracts/PrescriptionAndDiagnosis.sol\":8784:8791  patient */\n      dup5\n        /* \"contracts/PrescriptionAndDiagnosis.sol\":6002:6018  identityContract */\n      0x01\n      0x00\n      swap1\n      sload\n      swap1\n      0x0100\n      exp\n      swap1\n      div\n      0xffffffffffffffffffffffffffffffffffffffff\n      and\n        /* \"contracts/PrescriptionAndDiagnosis.sol\":6002:6034  identityContract.hasValidConsent */\n      0xffffffffffffffffffffffffffffffffffffffff\n      and\n      0xa6d41f33\n        /* \"contracts/PrescriptionAndDiagnosis.sol\":6035:6042  patient */\n      dup3\n        /* \"contracts/PrescriptionAndDiagnosis.sol\":6044:6054  msg.sender */\n      caller\n        /* \"contracts/PrescriptionAndDiagnosis.sol\":6002:6055  identityContract.hasValidConsent(patient, msg.sender) */\n      mload(0x40)\n      dup4\n      0xffffffff\n      and\n      0xe0\n      shl\n      dup2\n      mstore\n      0x04\n      add\n      tag_158\n      swap3\n      swap2\n      swap1\n      tag_128\n      jump\t// in\n    tag_158:\n      0x20\n      mload(0x40)\n      dup1\n      dup4\n      sub\n      dup2\n      dup7\n      gas\n      staticcall\n      iszero\n      dup1\n      iszero\n      tag_160\n      jumpi\n      returndatacopy(0x00, 0x00, returndatasize)\n      revert(0x00, returndatasize)\n    tag_160:\n      pop\n      pop\n      pop\n      pop\n      mload(0x40)\n      returndatasize\n      not(0x1f)\n      0x1f\n      dup3\n      add\n      and\n      dup3\n      add\n      dup1\n      0x40\n      mstore\n      pop\n      dup2\n      add\n      swap1\n      tag_161\n      swap2\n      swap1\n      tag_122\n      jump\t// in\n    tag_161:\n        /* \"contracts/PrescriptionAndDiagnosis.sol\":5994:6089  require(identityContract.hasValidConsent(patient, msg.sender), \"No valid consent from patient\") */\n      tag_162\n      jumpi\n      mload(0x40)\n      0x08c379a000000000000000000000000000000000000000000000000000000000\n      dup2\n      mstore\n      0x04\n      add\n      tag_163\n      swap1\n      tag_134\n      jump\t// in\n    tag_163:\n      mload(0x40)\n      dup1\n      swap2\n      sub\n      swap1\n      revert\n    tag_162:\n        /* \"contracts/PrescriptionAndDiagnosis.sol\":1903:1904  1 */\n      0x01\n        /* \"contracts/PrescriptionAndDiagnosis.sol\":1887:1899  _guardStatus */\n      sload(0x00)\n        /* \"contracts/PrescriptionAndDiagnosis.sol\":1887:1904  _guardStatus == 1 */\n      eq\n        /* \"contracts/PrescriptionAndDiagnosis.sol\":1879:1940  require(_guardStatus == 1, \"ReentrancyGuard: reentrant call\") */\n      tag_165\n      jumpi\n      mload(0x40)\n      0x08c379a000000000000000000000000000000000000000000000000000000000\n      dup2\n      mstore\n      0x04\n      add\n      tag_166\n      swap1\n      tag_138\n      jump\t// in\n    tag_166:\n      mload(0x40)\n      dup1\n      swap2\n      sub\n      swap1\n      revert\n    tag_165:\n        /* \"contracts/PrescriptionAndDiagnosis.sol\":1965:1966  2 */\n      0x02\n        /* \"contracts/PrescriptionAndDiagnosis.sol\":1950:1962  _guardStatus */\n      0x00\n        /* \"contracts/PrescriptionAndDiagnosis.sol\":1950:1966  _guardStatus = 2 */\n      dup2\n      swap1\n      sstore\n      pop\n        /* \"contracts/PrescriptionAndDiagnosis.sol\":8870:8871  0 */\n      0x00\n        /* \"contracts/PrescriptionAndDiagnosis.sol\":8842:8859  medicationDetails */\n      dup6\n        /* \"contracts/PrescriptionAndDiagnosis.sol\":8836:8867  bytes(medicationDetails).length */\n      mload\n        /* \"contracts/PrescriptionAndDiagnosis.sol\":8836:8871  bytes(medicationDetails).length > 0 */\n      gt\n        /* \"contracts/PrescriptionAndDiagnosis.sol\":8828:8903  require(bytes(medicationDetails).length > 0, \"Medication details required\") */\n      tag_168\n      jumpi\n      mload(0x40)\n      0x08c379a000000000000000000000000000000000000000000000000000000000\n      dup2\n      mstore\n      0x04\n      add\n      tag_169\n      swap1\n      tag_170\n      jump\t// in\n    tag_169:\n      mload(0x40)\n      dup1\n      swap2\n      sub\n      swap1\n      revert\n    tag_168:\n        /* \"contracts/PrescriptionAndDiagnosis.sol\":8914:8930  uint256 validity */\n      0x00\n        /* \"contracts/PrescriptionAndDiagnosis.sol\":8950:8951  0 */\n      0x00\n        /* \"contracts/PrescriptionAndDiagnosis.sol\":8934:8946  validityDays */\n      dup5\n        /* \"contracts/PrescriptionAndDiagnosis.sol\":8934:8951  validityDays == 0 */\n      eq\n        /* \"contracts/PrescriptionAndDiagnosis.sol\":8934:9007  validityDays == 0 ? DEFAULT_PRESCRIPTION_VALIDITY : validityDays * 1 days */\n      tag_171\n      jumpi\n        /* \"contracts/PrescriptionAndDiagnosis.sol\":9001:9007  1 days */\n      0x015180\n        /* \"contracts/PrescriptionAndDiagnosis.sol\":8986:8998  validityDays */\n      dup5\n        /* \"contracts/PrescriptionAndDiagnosis.sol\":8986:9007  validityDays * 1 days */\n      tag_172\n      swap2\n      swap1\n      tag_173\n      jump\t// in\n    tag_172:\n        /* \"contracts/PrescriptionAndDiagnosis.sol\":8934:9007  validityDays == 0 ? DEFAULT_PRESCRIPTION_VALIDITY : validityDays * 1 days */\n      jump(tag_174)\n    tag_171:\n        /* \"contracts/PrescriptionAndDiagnosis.sol\":4333:4341  180 days */\n      0xed4e00\n        /* \"contracts/PrescriptionAndDiagnosis.sol\":8934:9007  validityDays == 0 ? DEFAULT_PRESCRIPTION_VALIDITY : validityDays * 1 days */\n    tag_174:\n        /* \"contracts/PrescriptionAndDiagnosis.sol\":8914:9007  uint256 validity  = validityDays == 0 ? DEFAULT_PRESCRIPTION_VALIDITY : validityDays * 1 days */\n      swap1\n      pop\n        /* \"contracts/PrescriptionAndDiagnosis.sol\":9017:9034  uint256 expiresAt */\n      0x00\n        /* \"contracts/PrescriptionAndDiagnosis.sol\":9055:9063  validity */\n      dup2\n        /* \"contracts/PrescriptionAndDiagnosis.sol\":9037:9052  block.timestamp */\n      timestamp\n        /* \"contracts/PrescriptionAndDiagnosis.sol\":9037:9063  block.timestamp + validity */\n      tag_175\n      swap2\n      swap1\n      tag_176\n      jump\t// in\n    tag_175:\n        /* \"contracts/PrescriptionAndDiagnosis.sol\":9017:9063  uint256 expiresAt = block.timestamp + validity */\n      swap1\n      pop\n        /* \"contracts/PrescriptionAndDiagnosis.sol\":9074:9091  prescriptionCount */\n      0x04\n      0x00\n        /* \"contracts/PrescriptionAndDiagnosis.sol\":9074:9093  prescriptionCount++ */\n      dup2\n      sload\n      dup1\n      swap3\n      swap2\n      swap1\n      tag_177\n      swap1\n      tag_144\n      jump\t// in\n    tag_177:\n      swap2\n      swap1\n      pop\n      sstore\n      pop\n        /* \"contracts/PrescriptionAndDiagnosis.sol\":9138:9611  Prescription({... */\n      mload(0x40)\n      dup1\n      0x0140\n      add\n      0x40\n      mstore\n      dup1\n        /* \"contracts/PrescriptionAndDiagnosis.sol\":9184:9201  prescriptionCount */\n      sload(0x04)\n        /* \"contracts/PrescriptionAndDiagnosis.sol\":9138:9611  Prescription({... */\n      dup2\n      mstore\n      0x20\n      add\n        /* \"contracts/PrescriptionAndDiagnosis.sol\":9234:9241  patient */\n      dup10\n        /* \"contracts/PrescriptionAndDiagnosis.sol\":9138:9611  Prescription({... */\n      0xffffffffffffffffffffffffffffffffffffffff\n      and\n      dup2\n      mstore\n      0x20\n      add\n        /* \"contracts/PrescriptionAndDiagnosis.sol\":9274:9284  msg.sender */\n      caller\n        /* \"contracts/PrescriptionAndDiagnosis.sol\":9138:9611  Prescription({... */\n      0xffffffffffffffffffffffffffffffffffffffff\n      and\n      dup2\n      mstore\n      0x20\n      add\n        /* \"contracts/PrescriptionAndDiagnosis.sol\":9317:9334  medicationDetails */\n      dup9\n        /* \"contracts/PrescriptionAndDiagnosis.sol\":9138:9611  Prescription({... */\n      dup2\n      mstore\n      0x20\n      add\n        /* \"contracts/PrescriptionAndDiagnosis.sol\":9367:9375  ipfsHash */\n      dup8\n        /* \"contracts/PrescriptionAndDiagnosis.sol\":9138:9611  Prescription({... */\n      dup2\n      mstore\n      0x20\n      add\n        /* \"contracts/PrescriptionAndDiagnosis.sol\":9408:9433  PrescriptionStatus.ISSUED */\n      0x00\n        /* \"contracts/PrescriptionAndDiagnosis.sol\":9138:9611  Prescription({... */\n      0x02\n      dup2\n      gt\n      iszero\n      tag_178\n      jumpi\n      tag_179\n      tag_113\n      jump\t// in\n    tag_179:\n    tag_178:\n      dup2\n      mstore\n      0x20\n      add\n        /* \"contracts/PrescriptionAndDiagnosis.sol\":9466:9481  block.timestamp */\n      timestamp\n        /* \"contracts/PrescriptionAndDiagnosis.sol\":9138:9611  Prescription({... */\n      dup2\n      mstore\n      0x20\n      add\n        /* \"contracts/PrescriptionAndDiagnosis.sol\":9514:9523  expiresAt */\n      dup3\n        /* \"contracts/PrescriptionAndDiagnosis.sol\":9138:9611  Prescription({... */\n      dup2\n      mstore\n      0x20\n      add\n        /* \"contracts/PrescriptionAndDiagnosis.sol\":9564:9565  0 */\n      0x00\n        /* \"contracts/PrescriptionAndDiagnosis.sol\":9138:9611  Prescription({... */\n      0xffffffffffffffffffffffffffffffffffffffff\n      and\n      dup2\n      mstore\n      0x20\n      add\n        /* \"contracts/PrescriptionAndDiagnosis.sol\":9599:9600  0 */\n      0x00\n        /* \"contracts/PrescriptionAndDiagnosis.sol\":9138:9611  Prescription({... */\n      dup2\n      mstore\n      pop\n        /* \"contracts/PrescriptionAndDiagnosis.sol\":9103:9116  prescriptions */\n      0x06\n        /* \"contracts/PrescriptionAndDiagnosis.sol\":9103:9135  prescriptions[prescriptionCount] */\n      0x00\n        /* \"contracts/PrescriptionAndDiagnosis.sol\":9117:9134  prescriptionCount */\n      sload(0x04)\n        /* \"contracts/PrescriptionAndDiagnosis.sol\":9103:9135  prescriptions[prescriptionCount] */\n      dup2\n      mstore\n      0x20\n      add\n      swap1\n      dup2\n      mstore\n      0x20\n      add\n      0x00\n      keccak256\n        /* \"contracts/PrescriptionAndDiagnosis.sol\":9103:9611  prescriptions[prescriptionCount] = Prescription({... */\n      0x00\n      dup3\n      add\n      mload\n      dup2\n      0x00\n      add\n      sstore\n      0x20\n      dup3\n      add\n      mload\n      dup2\n      0x01\n      add\n      exp(0x0100, 0x00)\n      dup2\n      sload\n      dup2\n      0xffffffffffffffffffffffffffffffffffffffff\n      mul\n      not\n      and\n      swap1\n      dup4\n      0xffffffffffffffffffffffffffffffffffffffff\n      and\n      mul\n      or\n      swap1\n      sstore\n      pop\n      0x40\n      dup3\n      add\n      mload\n      dup2\n      0x02\n      add\n      exp(0x0100, 0x00)\n      dup2\n      sload\n      dup2\n      0xffffffffffffffffffffffffffffffffffffffff\n      mul\n      not\n      and\n      swap1\n      dup4\n      0xffffffffffffffffffffffffffffffffffffffff\n      and\n      mul\n      or\n      swap1\n      sstore\n      pop\n      0x60\n      dup3\n      add\n      mload\n      dup2\n      0x03\n      add\n      swap1\n      dup2\n      tag_180\n      swap2\n      swap1\n      tag_146\n      jump\t// in\n    tag_180:\n      pop\n      0x80\n      dup3\n      add\n      mload\n      dup2\n      0x04\n      add\n      swap1\n      dup2\n      tag_181\n      swap2\n      swap1\n      tag_146\n      jump\t// in\n    tag_181:\n      pop\n      0xa0\n      dup3\n      add\n      mload\n      dup2\n      0x05\n      add\n      exp(0x0100, 0x00)\n      dup2\n      sload\n      dup2\n      0xff\n      mul\n      not\n      and\n      swap1\n      dup4\n      0x02\n      dup2\n      gt\n      iszero\n      tag_182\n      jumpi\n      tag_183\n      tag_113\n      jump\t// in\n    tag_183:\n    tag_182:\n      mul\n      or\n      swap1\n      sstore\n      pop\n      0xc0\n      dup3\n      add\n      mload\n      dup2\n      0x06\n      add\n      sstore\n      0xe0\n      dup3\n      add\n      mload\n      dup2\n      0x07\n      add\n      sstore\n      0x0100\n      dup3\n      add\n      mload\n      dup2\n      0x08\n      add\n      exp(0x0100, 0x00)\n      dup2\n      sload\n      dup2\n      0xffffffffffffffffffffffffffffffffffffffff\n      mul\n      not\n      and\n      swap1\n      dup4\n      0xffffffffffffffffffffffffffffffffffffffff\n      and\n      mul\n      or\n      swap1\n      sstore\n      pop\n      0x0120\n      dup3\n      add\n      mload\n      dup2\n      0x09\n      add\n      sstore\n      swap1\n      pop\n      pop\n        /* \"contracts/PrescriptionAndDiagnosis.sol\":9622:9643  _patientPrescriptions */\n      0x07\n        /* \"contracts/PrescriptionAndDiagnosis.sol\":9622:9652  _patientPrescriptions[patient] */\n      0x00\n        /* \"contracts/PrescriptionAndDiagnosis.sol\":9644:9651  patient */\n      dup10\n        /* \"contracts/PrescriptionAndDiagnosis.sol\":9622:9652  _patientPrescriptions[patient] */\n      0xffffffffffffffffffffffffffffffffffffffff\n      and\n      0xffffffffffffffffffffffffffffffffffffffff\n      and\n      dup2\n      mstore\n      0x20\n      add\n      swap1\n      dup2\n      mstore\n      0x20\n      add\n      0x00\n      keccak256\n        /* \"contracts/PrescriptionAndDiagnosis.sol\":9658:9675  prescriptionCount */\n      sload(0x04)\n        /* \"contracts/PrescriptionAndDiagnosis.sol\":9622:9676  _patientPrescriptions[patient].push(prescriptionCount) */\n      swap1\n      dup1\n      0x01\n      dup2\n      sload\n      add\n      dup1\n      dup3\n      sstore\n      dup1\n      swap2\n      pop\n      pop\n      0x01\n      swap1\n      sub\n      swap1\n      0x00\n      mstore\n      keccak256(0x00, 0x20)\n      add\n      0x00\n      swap1\n      swap2\n      swap1\n      swap2\n      swap1\n      swap2\n      pop\n      sstore\n        /* \"contracts/PrescriptionAndDiagnosis.sol\":9737:9747  msg.sender */\n      caller\n        /* \"contracts/PrescriptionAndDiagnosis.sol\":9691:9759  PrescriptionAdded(prescriptionCount, patient, msg.sender, expiresAt) */\n      0xffffffffffffffffffffffffffffffffffffffff\n      and\n        /* \"contracts/PrescriptionAndDiagnosis.sol\":9728:9735  patient */\n      dup9\n        /* \"contracts/PrescriptionAndDiagnosis.sol\":9691:9759  PrescriptionAdded(prescriptionCount, patient, msg.sender, expiresAt) */\n      0xffffffffffffffffffffffffffffffffffffffff\n      and\n        /* \"contracts/PrescriptionAndDiagnosis.sol\":9709:9726  prescriptionCount */\n      sload(0x04)\n        /* \"contracts/PrescriptionAndDiagnosis.sol\":9691:9759  PrescriptionAdded(prescriptionCount, patient, msg.sender, expiresAt) */\n      0x3fef7f06ce70676abf7921e7052922715e90c90caf370ba8904339cf5b21e91e\n        /* \"contracts/PrescriptionAndDiagnosis.sol\":9749:9758  expiresAt */\n      dup5\n        /* \"contracts/PrescriptionAndDiagnosis.sol\":9691:9759  PrescriptionAdded(prescriptionCount, patient, msg.sender, expiresAt) */\n      mload(0x40)\n      tag_185\n      swap2\n      swap1\n      tag_34\n      jump\t// in\n    tag_185:\n      mload(0x40)\n      dup1\n      swap2\n      sub\n      swap1\n      log4\n        /* \"contracts/PrescriptionAndDiagnosis.sol\":8818:9766  {... */\n      pop\n      pop\n        /* \"contracts/PrescriptionAndDiagnosis.sol\":2002:2003  1 */\n      0x01\n        /* \"contracts/PrescriptionAndDiagnosis.sol\":1987:1999  _guardStatus */\n      0x00\n        /* \"contracts/PrescriptionAndDiagnosis.sol\":1987:2003  _guardStatus = 1 */\n      dup2\n      swap1\n      sstore\n      pop\n        /* \"contracts/PrescriptionAndDiagnosis.sol\":5934:5935  _ */\n      pop\n        /* \"contracts/PrescriptionAndDiagnosis.sol\":8548:9766  function addPrescription(... */\n      pop\n      pop\n      pop\n      pop\n      pop\n      jump\t// out\n        /* \"contracts/PrescriptionAndDiagnosis.sol\":3808:3837  uint256 public diagnosisCount */\n    tag_53:\n      sload(0x03)\n      dup2\n      jump\t// out\n        /* \"contracts/PrescriptionAndDiagnosis.sol\":3843:3875  uint256 public prescriptionCount */\n    tag_56:\n      sload(0x04)\n      dup2\n      jump\t// out\n        /* \"contracts/PrescriptionAndDiagnosis.sol\":13259:13406  function getPrescriptionsByPatient(address patient) external view returns (uint256[] memory) {... */\n    tag_61:\n        /* \"contracts/PrescriptionAndDiagnosis.sol\":13334:13350  uint256[] memory */\n      0x60\n        /* \"contracts/PrescriptionAndDiagnosis.sol\":13369:13390  _patientPrescriptions */\n      0x07\n        /* \"contracts/PrescriptionAndDiagnosis.sol\":13369:13399  _patientPrescriptions[patient] */\n      0x00\n        /* \"contracts/PrescriptionAndDiagnosis.sol\":13391:13398  patient */\n      dup4\n        /* \"contracts/PrescriptionAndDiagnosis.sol\":13369:13399  _patientPrescriptions[patient] */\n      0xffffffffffffffffffffffffffffffffffffffff\n      and\n      0xffffffffffffffffffffffffffffffffffffffff\n      and\n      dup2\n      mstore\n      0x20\n      add\n      swap1\n      dup2\n      mstore\n      0x20\n      add\n      0x00\n      keccak256\n        /* \"contracts/PrescriptionAndDiagnosis.sol\":13362:13399  return _patientPrescriptions[patient] */\n      dup1\n      sload\n      dup1\n      0x20\n      mul\n      0x20\n      add\n      mload(0x40)\n      swap1\n      dup2\n      add\n      0x40\n      mstore\n      dup1\n      swap3\n      swap2\n      swap1\n      dup2\n      dup2\n      mstore\n      0x20\n      add\n      dup3\n      dup1\n      sload\n      dup1\n      iszero\n      tag_187\n      jumpi\n      0x20\n      mul\n      dup3\n      add\n      swap2\n      swap1\n      0x00\n      mstore\n      keccak256(0x00, 0x20)\n      swap1\n    tag_188:\n      dup2\n      sload\n      dup2\n      mstore\n      0x20\n      add\n      swap1\n      0x01\n      add\n      swap1\n      dup1\n      dup4\n      gt\n      tag_188\n      jumpi\n    tag_187:\n      pop\n      pop\n      pop\n      pop\n      pop\n      swap1\n      pop\n        /* \"contracts/PrescriptionAndDiagnosis.sol\":13259:13406  function getPrescriptionsByPatient(address patient) external view returns (uint256[] memory) {... */\n      swap2\n      swap1\n      pop\n      jump\t// out\n        /* \"contracts/PrescriptionAndDiagnosis.sol\":3882:3931  mapping(uint256 => Diagnosis)    public diagnoses */\n    tag_66:\n      mstore(0x20, 0x05)\n      dup1\n      0x00\n      mstore\n      keccak256(0x00, 0x40)\n      0x00\n      swap2\n      pop\n      swap1\n      pop\n      dup1\n      0x00\n      add\n      sload\n      swap1\n      dup1\n      0x01\n      add\n      0x00\n      swap1\n      sload\n      swap1\n      0x0100\n      exp\n      swap1\n      div\n      0xffffffffffffffffffffffffffffffffffffffff\n      and\n      swap1\n      dup1\n      0x02\n      add\n      0x00\n      swap1\n      sload\n      swap1\n      0x0100\n      exp\n      swap1\n      div\n      0xffffffffffffffffffffffffffffffffffffffff\n      and\n      swap1\n      dup1\n      0x03\n      add\n      dup1\n      sload\n      tag_189\n      swap1\n      tag_85\n      jump\t// in\n    tag_189:\n      dup1\n      0x1f\n      add\n      0x20\n      dup1\n      swap2\n      div\n      mul\n      0x20\n      add\n      mload(0x40)\n      swap1\n      dup2\n      add\n      0x40\n      mstore\n      dup1\n      swap3\n      swap2\n      swap1\n      dup2\n      dup2\n      mstore\n      0x20\n      add\n      dup3\n      dup1\n      sload\n      tag_190\n      swap1\n      tag_85\n      jump\t// in\n    tag_190:\n      dup1\n      iszero\n      tag_191\n      jumpi\n      dup1\n      0x1f\n      lt\n      tag_192\n      jumpi\n      0x0100\n      dup1\n      dup4\n      sload\n      div\n      mul\n      dup4\n      mstore\n      swap2\n      0x20\n      add\n      swap2\n      jump(tag_191)\n    tag_192:\n      dup3\n      add\n      swap2\n      swap1\n      0x00\n      mstore\n      keccak256(0x00, 0x20)\n      swap1\n    tag_193:\n      dup2\n      sload\n      dup2\n      mstore\n      swap1\n      0x01\n      add\n      swap1\n      0x20\n      add\n      dup1\n      dup4\n      gt\n      tag_193\n      jumpi\n      dup3\n      swap1\n      sub\n      0x1f\n      and\n      dup3\n      add\n      swap2\n    tag_191:\n      pop\n      pop\n      pop\n      pop\n      pop\n      swap1\n      dup1\n      0x04\n      add\n      dup1\n      sload\n      tag_194\n      swap1\n      tag_85\n      jump\t// in\n    tag_194:\n      dup1\n      0x1f\n      add\n      0x20\n      dup1\n      swap2\n      div\n      mul\n      0x20\n      add\n      mload(0x40)\n      swap1\n      dup2\n      add\n      0x40\n      mstore\n      dup1\n      swap3\n      swap2\n      swap1\n      dup2\n      dup2\n      mstore\n      0x20\n      add\n      dup3\n      dup1\n      sload\n      tag_195\n      swap1\n      tag_85\n      jump\t// in\n    tag_195:\n      dup1\n      iszero\n      tag_196\n      jumpi\n      dup1\n      0x1f\n      lt\n      tag_197\n      jumpi\n      0x0100\n      dup1\n      dup4\n      sload\n      div\n      mul\n      dup4\n      mstore\n      swap2\n      0x20\n      add\n      swap2\n      jump(tag_196)\n    tag_197:\n      dup3\n      add\n      swap2\n      swap1\n      0x00\n      mstore\n      keccak256(0x00, 0x20)\n      swap1\n    tag_198:\n      dup2\n      sload\n      dup2\n      mstore\n      swap1\n      0x01\n      add\n      swap1\n      0x20\n      add\n      dup1\n      dup4\n      gt\n      tag_198\n      jumpi\n      dup3\n      swap1\n      sub\n      0x1f\n      and\n      dup3\n      add\n      swap2\n    tag_196:\n      pop\n      pop\n      pop\n      pop\n      pop\n      swap1\n      dup1\n      0x05\n      add\n      sload\n      swap1\n      pop\n      dup7\n      jump\t// out\n        /* \"contracts/PrescriptionAndDiagnosis.sol\":12422:12762  function isValidPrescription(uint256 prescriptionId)... */\n    tag_71:\n        /* \"contracts/PrescriptionAndDiagnosis.sol\":12522:12526  bool */\n      0x00\n        /* \"contracts/PrescriptionAndDiagnosis.sol\":12542:12563  Prescription memory p */\n      0x00\n        /* \"contracts/PrescriptionAndDiagnosis.sol\":12566:12579  prescriptions */\n      0x06\n        /* \"contracts/PrescriptionAndDiagnosis.sol\":12566:12595  prescriptions[prescriptionId] */\n      0x00\n        /* \"contracts/PrescriptionAndDiagnosis.sol\":12580:12594  prescriptionId */\n      dup5\n        /* \"contracts/PrescriptionAndDiagnosis.sol\":12566:12595  prescriptions[prescriptionId] */\n      dup2\n      mstore\n      0x20\n      add\n      swap1\n      dup2\n      mstore\n      0x20\n      add\n      0x00\n      keccak256\n        /* \"contracts/PrescriptionAndDiagnosis.sol\":12542:12595  Prescription memory p = prescriptions[prescriptionId] */\n      mload(0x40)\n      dup1\n      0x0140\n      add\n      0x40\n      mstore\n      swap1\n      dup2\n      0x00\n      dup3\n      add\n      sload\n      dup2\n      mstore\n      0x20\n      add\n      0x01\n      dup3\n      add\n      0x00\n      swap1\n      sload\n      swap1\n      0x0100\n      exp\n      swap1\n      div\n      0xffffffffffffffffffffffffffffffffffffffff\n      and\n      0xffffffffffffffffffffffffffffffffffffffff\n      and\n      0xffffffffffffffffffffffffffffffffffffffff\n      and\n      dup2\n      mstore\n      0x20\n      add\n      0x02\n      dup3\n      add\n      0x00\n      swap1\n      sload\n      swap1\n      0x0100\n      exp\n      swap1\n      div\n      0xffffffffffffffffffffffffffffffffffffffff\n      and\n      0xffffffffffffffffffffffffffffffffffffffff\n      and\n      0xffffffffffffffffffffffffffffffffffffffff\n      and\n      dup2\n      mstore\n      0x20\n      add\n      0x03\n      dup3\n      add\n      dup1\n      sload\n      tag_200\n      swap1\n      tag_85\n      jump\t// in\n    tag_200:\n      dup1\n      0x1f\n      add\n      0x20\n      dup1\n      swap2\n      div\n      mul\n      0x20\n      add\n      mload(0x40)\n      swap1\n      dup2\n      add\n      0x40\n      mstore\n      dup1\n      swap3\n      swap2\n      swap1\n      dup2\n      dup2\n      mstore\n      0x20\n      add\n      dup3\n      dup1\n      sload\n      tag_201\n      swap1\n      tag_85\n      jump\t// in\n    tag_201:\n      dup1\n      iszero\n      tag_202\n      jumpi\n      dup1\n      0x1f\n      lt\n      tag_203\n      jumpi\n      0x0100\n      dup1\n      dup4\n      sload\n      div\n      mul\n      dup4\n      mstore\n      swap2\n      0x20\n      add\n      swap2\n      jump(tag_202)\n    tag_203:\n      dup3\n      add\n      swap2\n      swap1\n      0x00\n      mstore\n      keccak256(0x00, 0x20)\n      swap1\n    tag_204:\n      dup2\n      sload\n      dup2\n      mstore\n      swap1\n      0x01\n      add\n      swap1\n      0x20\n      add\n      dup1\n      dup4\n      gt\n      tag_204\n      jumpi\n      dup3\n      swap1\n      sub\n      0x1f\n      and\n      dup3\n      add\n      swap2\n    tag_202:\n      pop\n      pop\n      pop\n      pop\n      pop\n      dup2\n      mstore\n      0x20\n      add\n      0x04\n      dup3\n      add\n      dup1\n      sload\n      tag_205\n      swap1\n      tag_85\n      jump\t// in\n    tag_205:\n      dup1\n      0x1f\n      add\n      0x20\n      dup1\n      swap2\n      div\n      mul\n      0x20\n      add\n      mload(0x40)\n      swap1\n      dup2\n      add\n      0x40\n      mstore\n      dup1\n      swap3\n      swap2\n      swap1\n      dup2\n      dup2\n      mstore\n      0x20\n      add\n      dup3\n      dup1\n      sload\n      tag_206\n      swap1\n      tag_85\n      jump\t// in\n    tag_206:\n      dup1\n      iszero\n      tag_207\n      jumpi\n      dup1\n      0x1f\n      lt\n      tag_208\n      jumpi\n      0x0100\n      dup1\n      dup4\n      sload\n      div\n      mul\n      dup4\n      mstore\n      swap2\n      0x20\n      add\n      swap2\n      jump(tag_207)\n    tag_208:\n      dup3\n      add\n      swap2\n      swap1\n      0x00\n      mstore\n      keccak256(0x00, 0x20)\n      swap1\n    tag_209:\n      dup2\n      sload\n      dup2\n      mstore\n      swap1\n      0x01\n      add\n      swap1\n      0x20\n      add\n      dup1\n      dup4\n      gt\n      tag_209\n      jumpi\n      dup3\n      swap1\n      sub\n      0x1f\n      and\n      dup3\n      add\n      swap2\n    tag_207:\n      pop\n      pop\n      pop\n      pop\n      pop\n      dup2\n      mstore\n      0x20\n      add\n      0x05\n      dup3\n      add\n      0x00\n      swap1\n      sload\n      swap1\n      0x0100\n      exp\n      swap1\n      div\n      0xff\n      and\n      0x02\n      dup2\n      gt\n      iszero\n      tag_210\n      jumpi\n      tag_211\n      tag_113\n      jump\t// in\n    tag_211:\n    tag_210:\n      0x02\n      dup2\n      gt\n      iszero\n      tag_212\n      jumpi\n      tag_213\n      tag_113\n      jump\t// in\n    tag_213:\n    tag_212:\n      dup2\n      mstore\n      0x20\n      add\n      0x06\n      dup3\n      add\n      sload\n      dup2\n      mstore\n      0x20\n      add\n      0x07\n      dup3\n      add\n      sload\n      dup2\n      mstore\n      0x20\n      add\n      0x08\n      dup3\n      add\n      0x00\n      swap1\n      sload\n      swap1\n      0x0100\n      exp\n      swap1\n      div\n      0xffffffffffffffffffffffffffffffffffffffff\n      and\n      0xffffffffffffffffffffffffffffffffffffffff\n      and\n      0xffffffffffffffffffffffffffffffffffffffff\n      and\n      dup2\n      mstore\n      0x20\n      add\n      0x09\n      dup3\n      add\n      sload\n      dup2\n      mstore\n      pop\n      pop\n      swap1\n      pop\n        /* \"contracts/PrescriptionAndDiagnosis.sol\":12646:12647  0 */\n      0x00\n        /* \"contracts/PrescriptionAndDiagnosis.sol\":12626:12627  p */\n      dup2\n        /* \"contracts/PrescriptionAndDiagnosis.sol\":12626:12642  p.prescriptionId */\n      0x00\n      add\n      mload\n        /* \"contracts/PrescriptionAndDiagnosis.sol\":12626:12647  p.prescriptionId != 0 */\n      eq\n      iszero\n        /* \"contracts/PrescriptionAndDiagnosis.sol\":12626:12700  p.prescriptionId != 0 &&... */\n      dup1\n      iszero\n      tag_214\n      jumpi\n      pop\n        /* \"contracts/PrescriptionAndDiagnosis.sol\":12675:12700  PrescriptionStatus.ISSUED */\n      0x00\n        /* \"contracts/PrescriptionAndDiagnosis.sol\":12663:12700  p.status == PrescriptionStatus.ISSUED */\n      0x02\n      dup2\n      gt\n      iszero\n      tag_215\n      jumpi\n      tag_216\n      tag_113\n      jump\t// in\n    tag_216:\n    tag_215:\n        /* \"contracts/PrescriptionAndDiagnosis.sol\":12663:12664  p */\n      dup2\n        /* \"contracts/PrescriptionAndDiagnosis.sol\":12663:12671  p.status */\n      0xa0\n      add\n      mload\n        /* \"contracts/PrescriptionAndDiagnosis.sol\":12663:12700  p.status == PrescriptionStatus.ISSUED */\n      0x02\n      dup2\n      gt\n      iszero\n      tag_217\n      jumpi\n      tag_218\n      tag_113\n      jump\t// in\n    tag_218:\n    tag_217:\n      eq\n        /* \"contracts/PrescriptionAndDiagnosis.sol\":12626:12700  p.prescriptionId != 0 &&... */\n    tag_214:\n        /* \"contracts/PrescriptionAndDiagnosis.sol\":12626:12745  p.prescriptionId != 0 &&... */\n      dup1\n      iszero\n      tag_219\n      jumpi\n      pop\n        /* \"contracts/PrescriptionAndDiagnosis.sol\":12734:12735  p */\n      dup1\n        /* \"contracts/PrescriptionAndDiagnosis.sol\":12734:12745  p.expiresAt */\n      0xe0\n      add\n      mload\n        /* \"contracts/PrescriptionAndDiagnosis.sol\":12716:12731  block.timestamp */\n      timestamp\n        /* \"contracts/PrescriptionAndDiagnosis.sol\":12716:12745  block.timestamp < p.expiresAt */\n      lt\n        /* \"contracts/PrescriptionAndDiagnosis.sol\":12626:12745  p.prescriptionId != 0 &&... */\n    tag_219:\n        /* \"contracts/PrescriptionAndDiagnosis.sol\":12605:12755  return (... */\n      swap2\n      pop\n      pop\n        /* \"contracts/PrescriptionAndDiagnosis.sol\":12422:12762  function isValidPrescription(uint256 prescriptionId)... */\n      swap2\n      swap1\n      pop\n      jump\t// out\n        /* \"contracts/PrescriptionAndDiagnosis.sol\":10457:11161  function dispensePrescription(uint256 prescriptionId)... */\n    tag_76:\n        /* \"contracts/PrescriptionAndDiagnosis.sol\":6169:6182  accessControl */\n      0x02\n      0x00\n      swap1\n      sload\n      swap1\n      0x0100\n      exp\n      swap1\n      div\n      0xffffffffffffffffffffffffffffffffffffffff\n      and\n        /* \"contracts/PrescriptionAndDiagnosis.sol\":6169:6190  accessControl.hasRole */\n      0xffffffffffffffffffffffffffffffffffffffff\n      and\n      0x91d14854\n        /* \"contracts/PrescriptionAndDiagnosis.sol\":6191:6204  accessControl */\n      0x02\n      0x00\n      swap1\n      sload\n      swap1\n      0x0100\n      exp\n      swap1\n      div\n      0xffffffffffffffffffffffffffffffffffffffff\n      and\n        /* \"contracts/PrescriptionAndDiagnosis.sol\":6191:6220  accessControl.PHARMACIST_ROLE */\n      0xffffffffffffffffffffffffffffffffffffffff\n      and\n      0xc532d9fa\n        /* \"contracts/PrescriptionAndDiagnosis.sol\":6191:6222  accessControl.PHARMACIST_ROLE() */\n      mload(0x40)\n      dup2\n      0xffffffff\n      and\n      0xe0\n      shl\n      dup2\n      mstore\n      0x04\n      add\n      0x20\n      mload(0x40)\n      dup1\n      dup4\n      sub\n      dup2\n      dup7\n      gas\n      staticcall\n      iszero\n      dup1\n      iszero\n      tag_222\n      jumpi\n      returndatacopy(0x00, 0x00, returndatasize)\n      revert(0x00, returndatasize)\n    tag_222:\n      pop\n      pop\n      pop\n      pop\n      mload(0x40)\n      returndatasize\n      not(0x1f)\n      0x1f\n      dup3\n      add\n      and\n      dup3\n      add\n      dup1\n      0x40\n      mstore\n      pop\n      dup2\n      add\n      swap1\n      tag_223\n      swap2\n      swap1\n      tag_224\n      jump\t// in\n    tag_223:\n        /* \"contracts/PrescriptionAndDiagnosis.sol\":6224:6234  msg.sender */\n      caller\n        /* \"contracts/PrescriptionAndDiagnosis.sol\":6169:6235  accessControl.hasRole(accessControl.PHARMACIST_ROLE(), msg.sender) */\n      mload(0x40)\n      dup4\n      0xffffffff\n      and\n      0xe0\n      shl\n      dup2\n      mstore\n      0x04\n      add\n      tag_225\n      swap3\n      swap2\n      swap1\n      tag_226\n      jump\t// in\n    tag_225:\n      0x20\n      mload(0x40)\n      dup1\n      dup4\n      sub\n      dup2\n      dup7\n      gas\n      staticcall\n      iszero\n      dup1\n      iszero\n      tag_228\n      jumpi\n      returndatacopy(0x00, 0x00, returndatasize)\n      revert(0x00, returndatasize)\n    tag_228:\n      pop\n      pop\n      pop\n      pop\n      mload(0x40)\n      returndatasize\n      not(0x1f)\n      0x1f\n      dup3\n      add\n      and\n      dup3\n      add\n      dup1\n      0x40\n      mstore\n      pop\n      dup2\n      add\n      swap1\n      tag_229\n      swap2\n      swap1\n      tag_122\n      jump\t// in\n    tag_229:\n        /* \"contracts/PrescriptionAndDiagnosis.sol\":6148:6302  require(... */\n      tag_230\n      jumpi\n      mload(0x40)\n      0x08c379a000000000000000000000000000000000000000000000000000000000\n      dup2\n      mstore\n      0x04\n      add\n      tag_231\n      swap1\n      tag_232\n      jump\t// in\n    tag_231:\n      mload(0x40)\n      dup1\n      swap2\n      sub\n      swap1\n      revert\n    tag_230:\n        /* \"contracts/PrescriptionAndDiagnosis.sol\":1903:1904  1 */\n      0x01\n        /* \"contracts/PrescriptionAndDiagnosis.sol\":1887:1899  _guardStatus */\n      sload(0x00)\n        /* \"contracts/PrescriptionAndDiagnosis.sol\":1887:1904  _guardStatus == 1 */\n      eq\n        /* \"contracts/PrescriptionAndDiagnosis.sol\":1879:1940  require(_guardStatus == 1, \"ReentrancyGuard: reentrant call\") */\n      tag_234\n      jumpi\n      mload(0x40)\n      0x08c379a000000000000000000000000000000000000000000000000000000000\n      dup2\n      mstore\n      0x04\n      add\n      tag_235\n      swap1\n      tag_138\n      jump\t// in\n    tag_235:\n      mload(0x40)\n      dup1\n      swap2\n      sub\n      swap1\n      revert\n    tag_234:\n        /* \"contracts/PrescriptionAndDiagnosis.sol\":1965:1966  2 */\n      0x02\n        /* \"contracts/PrescriptionAndDiagnosis.sol\":1950:1962  _guardStatus */\n      0x00\n        /* \"contracts/PrescriptionAndDiagnosis.sol\":1950:1966  _guardStatus = 2 */\n      dup2\n      swap1\n      sstore\n      pop\n        /* \"contracts/PrescriptionAndDiagnosis.sol\":10586:10608  Prescription storage p */\n      0x00\n        /* \"contracts/PrescriptionAndDiagnosis.sol\":10611:10624  prescriptions */\n      0x06\n        /* \"contracts/PrescriptionAndDiagnosis.sol\":10611:10640  prescriptions[prescriptionId] */\n      0x00\n        /* \"contracts/PrescriptionAndDiagnosis.sol\":10625:10639  prescriptionId */\n      dup4\n        /* \"contracts/PrescriptionAndDiagnosis.sol\":10611:10640  prescriptions[prescriptionId] */\n      dup2\n      mstore\n      0x20\n      add\n      swap1\n      dup2\n      mstore\n      0x20\n      add\n      0x00\n      keccak256\n        /* \"contracts/PrescriptionAndDiagnosis.sol\":10586:10640  Prescription storage p = prescriptions[prescriptionId] */\n      swap1\n      pop\n        /* \"contracts/PrescriptionAndDiagnosis.sol\":10678:10679  0 */\n      0x00\n        /* \"contracts/PrescriptionAndDiagnosis.sol\":10658:10659  p */\n      dup2\n        /* \"contracts/PrescriptionAndDiagnosis.sol\":10658:10674  p.prescriptionId */\n      0x00\n      add\n      sload\n        /* \"contracts/PrescriptionAndDiagnosis.sol\":10658:10679  p.prescriptionId != 0 */\n      sub\n        /* \"contracts/PrescriptionAndDiagnosis.sol\":10650:10732  require(p.prescriptionId != 0,                      \"Prescription does not exist\") */\n      tag_237\n      jumpi\n      mload(0x40)\n      0x08c379a000000000000000000000000000000000000000000000000000000000\n      dup2\n      mstore\n      0x04\n      add\n      tag_238\n      swap1\n      tag_100\n      jump\t// in\n    tag_238:\n      mload(0x40)\n      dup1\n      swap2\n      sub\n      swap1\n      revert\n    tag_237:\n        /* \"contracts/PrescriptionAndDiagnosis.sol\":10762:10787  PrescriptionStatus.ISSUED */\n      0x00\n        /* \"contracts/PrescriptionAndDiagnosis.sol\":10750:10787  p.status == PrescriptionStatus.ISSUED */\n      0x02\n      dup2\n      gt\n      iszero\n      tag_239\n      jumpi\n      tag_240\n      tag_113\n      jump\t// in\n    tag_240:\n    tag_239:\n        /* \"contracts/PrescriptionAndDiagnosis.sol\":10750:10751  p */\n      dup2\n        /* \"contracts/PrescriptionAndDiagnosis.sol\":10750:10758  p.status */\n      0x05\n      add\n      0x00\n      swap1\n      sload\n      swap1\n      0x0100\n      exp\n      swap1\n      div\n      0xff\n      and\n        /* \"contracts/PrescriptionAndDiagnosis.sol\":10750:10787  p.status == PrescriptionStatus.ISSUED */\n      0x02\n      dup2\n      gt\n      iszero\n      tag_241\n      jumpi\n      tag_242\n      tag_113\n      jump\t// in\n    tag_242:\n    tag_241:\n      eq\n        /* \"contracts/PrescriptionAndDiagnosis.sol\":10742:10839  require(p.status == PrescriptionStatus.ISSUED,       \"Prescription already dispensed or expired\") */\n      tag_243\n      jumpi\n      mload(0x40)\n      0x08c379a000000000000000000000000000000000000000000000000000000000\n      dup2\n      mstore\n      0x04\n      add\n      tag_244\n      swap1\n      tag_245\n      jump\t// in\n    tag_244:\n      mload(0x40)\n      dup1\n      swap2\n      sub\n      swap1\n      revert\n    tag_243:\n        /* \"contracts/PrescriptionAndDiagnosis.sol\":10875:10876  p */\n      dup1\n        /* \"contracts/PrescriptionAndDiagnosis.sol\":10875:10886  p.expiresAt */\n      0x07\n      add\n      sload\n        /* \"contracts/PrescriptionAndDiagnosis.sol\":10857:10872  block.timestamp */\n      timestamp\n        /* \"contracts/PrescriptionAndDiagnosis.sol\":10857:10886  block.timestamp < p.expiresAt */\n      lt\n        /* \"contracts/PrescriptionAndDiagnosis.sol\":10849:10929  require(block.timestamp < p.expiresAt,               \"Prescription has expired\") */\n      tag_246\n      jumpi\n      mload(0x40)\n      0x08c379a000000000000000000000000000000000000000000000000000000000\n      dup2\n      mstore\n      0x04\n      add\n      tag_247\n      swap1\n      tag_248\n      jump\t// in\n    tag_247:\n      mload(0x40)\n      dup1\n      swap2\n      sub\n      swap1\n      revert\n    tag_246:\n        /* \"contracts/PrescriptionAndDiagnosis.sol\":10956:10984  PrescriptionStatus.DISPENSED */\n      0x01\n        /* \"contracts/PrescriptionAndDiagnosis.sol\":10940:10941  p */\n      dup2\n        /* \"contracts/PrescriptionAndDiagnosis.sol\":10940:10948  p.status */\n      0x05\n      add\n      0x00\n        /* \"contracts/PrescriptionAndDiagnosis.sol\":10940:10984  p.status      = PrescriptionStatus.DISPENSED */\n      0x0100\n      exp\n      dup2\n      sload\n      dup2\n      0xff\n      mul\n      not\n      and\n      swap1\n      dup4\n      0x02\n      dup2\n      gt\n      iszero\n      tag_249\n      jumpi\n      tag_250\n      tag_113\n      jump\t// in\n    tag_250:\n    tag_249:\n      mul\n      or\n      swap1\n      sstore\n      pop\n        /* \"contracts/PrescriptionAndDiagnosis.sol\":11010:11020  msg.sender */\n      caller\n        /* \"contracts/PrescriptionAndDiagnosis.sol\":10994:10995  p */\n      dup2\n        /* \"contracts/PrescriptionAndDiagnosis.sol\":10994:11007  p.dispensedBy */\n      0x08\n      add\n      0x00\n        /* \"contracts/PrescriptionAndDiagnosis.sol\":10994:11020  p.dispensedBy = msg.sender */\n      0x0100\n      exp\n      dup2\n      sload\n      dup2\n      0xffffffffffffffffffffffffffffffffffffffff\n      mul\n      not\n      and\n      swap1\n      dup4\n      0xffffffffffffffffffffffffffffffffffffffff\n      and\n      mul\n      or\n      swap1\n      sstore\n      pop\n        /* \"contracts/PrescriptionAndDiagnosis.sol\":11046:11061  block.timestamp */\n      timestamp\n        /* \"contracts/PrescriptionAndDiagnosis.sol\":11030:11031  p */\n      dup2\n        /* \"contracts/PrescriptionAndDiagnosis.sol\":11030:11043  p.dispensedAt */\n      0x09\n      add\n        /* \"contracts/PrescriptionAndDiagnosis.sol\":11030:11061  p.dispensedAt = block.timestamp */\n      dup2\n      swap1\n      sstore\n      pop\n        /* \"contracts/PrescriptionAndDiagnosis.sol\":11126:11136  msg.sender */\n      caller\n        /* \"contracts/PrescriptionAndDiagnosis.sol\":11077:11154  PrescriptionDispensed(prescriptionId, p.patient, msg.sender, block.timestamp) */\n      0xffffffffffffffffffffffffffffffffffffffff\n      and\n        /* \"contracts/PrescriptionAndDiagnosis.sol\":11115:11116  p */\n      dup2\n        /* \"contracts/PrescriptionAndDiagnosis.sol\":11115:11124  p.patient */\n      0x01\n      add\n      0x00\n      swap1\n      sload\n      swap1\n      0x0100\n      exp\n      swap1\n      div\n      0xffffffffffffffffffffffffffffffffffffffff\n      and\n        /* \"contracts/PrescriptionAndDiagnosis.sol\":11077:11154  PrescriptionDispensed(prescriptionId, p.patient, msg.sender, block.timestamp) */\n      0xffffffffffffffffffffffffffffffffffffffff\n      and\n        /* \"contracts/PrescriptionAndDiagnosis.sol\":11099:11113  prescriptionId */\n      dup4\n        /* \"contracts/PrescriptionAndDiagnosis.sol\":11077:11154  PrescriptionDispensed(prescriptionId, p.patient, msg.sender, block.timestamp) */\n      0x417e0ba8409ada5d1a01b8070a049cd9397bf9bc6ee1ca36ec7569ec9d34e0e2\n        /* \"contracts/PrescriptionAndDiagnosis.sol\":11138:11153  block.timestamp */\n      timestamp\n        /* \"contracts/PrescriptionAndDiagnosis.sol\":11077:11154  PrescriptionDispensed(prescriptionId, p.patient, msg.sender, block.timestamp) */\n      mload(0x40)\n      tag_251\n      swap2\n      swap1\n      tag_34\n      jump\t// in\n    tag_251:\n      mload(0x40)\n      dup1\n      swap2\n      sub\n      swap1\n      log4\n        /* \"contracts/PrescriptionAndDiagnosis.sol\":10576:11161  {... */\n      pop\n        /* \"contracts/PrescriptionAndDiagnosis.sol\":2002:2003  1 */\n      0x01\n        /* \"contracts/PrescriptionAndDiagnosis.sol\":1987:1999  _guardStatus */\n      0x00\n        /* \"contracts/PrescriptionAndDiagnosis.sol\":1987:2003  _guardStatus = 1 */\n      dup2\n      swap1\n      sstore\n      pop\n        /* \"contracts/PrescriptionAndDiagnosis.sol\":10457:11161  function dispensePrescription(uint256 prescriptionId)... */\n      pop\n      jump\t// out\n        /* \"contracts/PrescriptionAndDiagnosis.sol\":13468:13607  function getDiagnosesByPatient(address patient) external view returns (uint256[] memory) {... */\n    tag_79:\n        /* \"contracts/PrescriptionAndDiagnosis.sol\":13539:13555  uint256[] memory */\n      0x60\n        /* \"contracts/PrescriptionAndDiagnosis.sol\":13574:13591  _patientDiagnoses */\n      0x08\n        /* \"contracts/PrescriptionAndDiagnosis.sol\":13574:13600  _patientDiagnoses[patient] */\n      0x00\n        /* \"contracts/PrescriptionAndDiagnosis.sol\":13592:13599  patient */\n      dup4\n        /* \"contracts/PrescriptionAndDiagnosis.sol\":13574:13600  _patientDiagnoses[patient] */\n      0xffffffffffffffffffffffffffffffffffffffff\n      and\n      0xffffffffffffffffffffffffffffffffffffffff\n      and\n      dup2\n      mstore\n      0x20\n      add\n      swap1\n      dup2\n      mstore\n      0x20\n      add\n      0x00\n      keccak256\n        /* \"contracts/PrescriptionAndDiagnosis.sol\":13567:13600  return _patientDiagnoses[patient] */\n      dup1\n      sload\n      dup1\n      0x20\n      mul\n      0x20\n      add\n      mload(0x40)\n      swap1\n      dup2\n      add\n      0x40\n      mstore\n      dup1\n      swap3\n      swap2\n      swap1\n      dup2\n      dup2\n      mstore\n      0x20\n      add\n      dup3\n      dup1\n      sload\n      dup1\n      iszero\n      tag_253\n      jumpi\n      0x20\n      mul\n      dup3\n      add\n      swap2\n      swap1\n      0x00\n      mstore\n      keccak256(0x00, 0x20)\n      swap1\n    tag_254:\n      dup2\n      sload\n      dup2\n      mstore\n      0x20\n      add\n      swap1\n      0x01\n      add\n      swap1\n      dup1\n      dup4\n      gt\n      tag_254\n      jumpi\n    tag_253:\n      pop\n      pop\n      pop\n      pop\n      pop\n      swap1\n      pop\n        /* \"contracts/PrescriptionAndDiagnosis.sol\":13468:13607  function getDiagnosesByPatient(address patient) external view returns (uint256[] memory) {... */\n      swap2\n      swap1\n      pop\n      jump\t// out\n        /* \"contracts/PrescriptionAndDiagnosis.sol\":11316:11849  function expirePrescription(uint256 prescriptionId) external {... */\n    tag_83:\n        /* \"contracts/PrescriptionAndDiagnosis.sol\":11387:11409  Prescription storage p */\n      0x00\n        /* \"contracts/PrescriptionAndDiagnosis.sol\":11412:11425  prescriptions */\n      0x06\n        /* \"contracts/PrescriptionAndDiagnosis.sol\":11412:11441  prescriptions[prescriptionId] */\n      0x00\n        /* \"contracts/PrescriptionAndDiagnosis.sol\":11426:11440  prescriptionId */\n      dup4\n        /* \"contracts/PrescriptionAndDiagnosis.sol\":11412:11441  prescriptions[prescriptionId] */\n      dup2\n      mstore\n      0x20\n      add\n      swap1\n      dup2\n      mstore\n      0x20\n      add\n      0x00\n      keccak256\n        /* \"contracts/PrescriptionAndDiagnosis.sol\":11387:11441  Prescription storage p = prescriptions[prescriptionId] */\n      swap1\n      pop\n        /* \"contracts/PrescriptionAndDiagnosis.sol\":11479:11480  0 */\n      0x00\n        /* \"contracts/PrescriptionAndDiagnosis.sol\":11459:11460  p */\n      dup2\n        /* \"contracts/PrescriptionAndDiagnosis.sol\":11459:11475  p.prescriptionId */\n      0x00\n      add\n      sload\n        /* \"contracts/PrescriptionAndDiagnosis.sol\":11459:11480  p.prescriptionId != 0 */\n      sub\n        /* \"contracts/PrescriptionAndDiagnosis.sol\":11451:11533  require(p.prescriptionId != 0,                      \"Prescription does not exist\") */\n      tag_256\n      jumpi\n      mload(0x40)\n      0x08c379a000000000000000000000000000000000000000000000000000000000\n      dup2\n      mstore\n      0x04\n      add\n      tag_257\n      swap1\n      tag_100\n      jump\t// in\n    tag_257:\n      mload(0x40)\n      dup1\n      swap2\n      sub\n      swap1\n      revert\n    tag_256:\n        /* \"contracts/PrescriptionAndDiagnosis.sol\":11563:11588  PrescriptionStatus.ISSUED */\n      0x00\n        /* \"contracts/PrescriptionAndDiagnosis.sol\":11551:11588  p.status == PrescriptionStatus.ISSUED */\n      0x02\n      dup2\n      gt\n      iszero\n      tag_258\n      jumpi\n      tag_259\n      tag_113\n      jump\t// in\n    tag_259:\n    tag_258:\n        /* \"contracts/PrescriptionAndDiagnosis.sol\":11551:11552  p */\n      dup2\n        /* \"contracts/PrescriptionAndDiagnosis.sol\":11551:11559  p.status */\n      0x05\n      add\n      0x00\n      swap1\n      sload\n      swap1\n      0x0100\n      exp\n      swap1\n      div\n      0xff\n      and\n        /* \"contracts/PrescriptionAndDiagnosis.sol\":11551:11588  p.status == PrescriptionStatus.ISSUED */\n      0x02\n      dup2\n      gt\n      iszero\n      tag_260\n      jumpi\n      tag_261\n      tag_113\n      jump\t// in\n    tag_261:\n    tag_260:\n      eq\n        /* \"contracts/PrescriptionAndDiagnosis.sol\":11543:11618  require(p.status == PrescriptionStatus.ISSUED,       \"Not in ISSUED state\") */\n      tag_262\n      jumpi\n      mload(0x40)\n      0x08c379a000000000000000000000000000000000000000000000000000000000\n      dup2\n      mstore\n      0x04\n      add\n      tag_263\n      swap1\n      tag_264\n      jump\t// in\n    tag_263:\n      mload(0x40)\n      dup1\n      swap2\n      sub\n      swap1\n      revert\n    tag_262:\n        /* \"contracts/PrescriptionAndDiagnosis.sol\":11655:11656  p */\n      dup1\n        /* \"contracts/PrescriptionAndDiagnosis.sol\":11655:11666  p.expiresAt */\n      0x07\n      add\n      sload\n        /* \"contracts/PrescriptionAndDiagnosis.sol\":11636:11651  block.timestamp */\n      timestamp\n        /* \"contracts/PrescriptionAndDiagnosis.sol\":11636:11666  block.timestamp >= p.expiresAt */\n      lt\n      iszero\n        /* \"contracts/PrescriptionAndDiagnosis.sol\":11628:11716  require(block.timestamp >= p.expiresAt,              \"Prescription has not expired yet\") */\n      tag_265\n      jumpi\n      mload(0x40)\n      0x08c379a000000000000000000000000000000000000000000000000000000000\n      dup2\n      mstore\n      0x04\n      add\n      tag_266\n      swap1\n      tag_267\n      jump\t// in\n    tag_266:\n      mload(0x40)\n      dup1\n      swap2\n      sub\n      swap1\n      revert\n    tag_265:\n        /* \"contracts/PrescriptionAndDiagnosis.sol\":11738:11764  PrescriptionStatus.EXPIRED */\n      0x02\n        /* \"contracts/PrescriptionAndDiagnosis.sol\":11727:11728  p */\n      dup2\n        /* \"contracts/PrescriptionAndDiagnosis.sol\":11727:11735  p.status */\n      0x05\n      add\n      0x00\n        /* \"contracts/PrescriptionAndDiagnosis.sol\":11727:11764  p.status = PrescriptionStatus.EXPIRED */\n      0x0100\n      exp\n      dup2\n      sload\n      dup2\n      0xff\n      mul\n      not\n      and\n      swap1\n      dup4\n      0x02\n      dup2\n      gt\n      iszero\n      tag_268\n      jumpi\n      tag_269\n      tag_113\n      jump\t// in\n    tag_269:\n    tag_268:\n      mul\n      or\n      swap1\n      sstore\n      pop\n        /* \"contracts/PrescriptionAndDiagnosis.sol\":11815:11816  p */\n      dup1\n        /* \"contracts/PrescriptionAndDiagnosis.sol\":11815:11824  p.patient */\n      0x01\n      add\n      0x00\n      swap1\n      sload\n      swap1\n      0x0100\n      exp\n      swap1\n      div\n      0xffffffffffffffffffffffffffffffffffffffff\n      and\n        /* \"contracts/PrescriptionAndDiagnosis.sol\":11779:11842  PrescriptionExpired(prescriptionId, p.patient, block.timestamp) */\n      0xffffffffffffffffffffffffffffffffffffffff\n      and\n        /* \"contracts/PrescriptionAndDiagnosis.sol\":11799:11813  prescriptionId */\n      dup3\n        /* \"contracts/PrescriptionAndDiagnosis.sol\":11779:11842  PrescriptionExpired(prescriptionId, p.patient, block.timestamp) */\n      0x1c66c972def6bbfbef4b8d1ed233ab36f4864d8cb752b8fb668f739f813a49c8\n        /* \"contracts/PrescriptionAndDiagnosis.sol\":11826:11841  block.timestamp */\n      timestamp\n        /* \"contracts/PrescriptionAndDiagnosis.sol\":11779:11842  PrescriptionExpired(prescriptionId, p.patient, block.timestamp) */\n      mload(0x40)\n      tag_270\n      swap2\n      swap1\n      tag_34\n      jump\t// in\n    tag_270:\n      mload(0x40)\n      dup1\n      swap2\n      sub\n      swap1\n      log3\n        /* \"contracts/PrescriptionAndDiagnosis.sol\":11377:11849  {... */\n      pop\n        /* \"contracts/PrescriptionAndDiagnosis.sol\":11316:11849  function expirePrescription(uint256 prescriptionId) external {... */\n      pop\n      jump\t// out\n    tag_96:\n      mload(0x40)\n      dup1\n      0x0140\n      add\n      0x40\n      mstore\n      dup1\n      0x00\n      dup2\n      mstore\n      0x20\n      add\n      and(0xffffffffffffffffffffffffffffffffffffffff, 0x00)\n      dup2\n      mstore\n      0x20\n      add\n      and(0xffffffffffffffffffffffffffffffffffffffff, 0x00)\n      dup2\n      mstore\n      0x20\n      add\n      0x60\n      dup2\n      mstore\n      0x20\n      add\n      0x60\n      dup2\n      mstore\n      0x20\n      add\n      0x00\n      0x02\n      dup2\n      gt\n      iszero\n      tag_271\n      jumpi\n      tag_272\n      tag_113\n      jump\t// in\n    tag_272:\n    tag_271:\n      dup2\n      mstore\n      0x20\n      add\n      0x00\n      dup2\n      mstore\n      0x20\n      add\n      0x00\n      dup2\n      mstore\n      0x20\n      add\n      and(0xffffffffffffffffffffffffffffffffffffffff, 0x00)\n      dup2\n      mstore\n      0x20\n      add\n      0x00\n      dup2\n      mstore\n      pop\n      swap1\n      jump\t// out\n        /* \"#utility.yul\":7:133   */\n    tag_273:\n        /* \"#utility.yul\":44:51   */\n      0x00\n        /* \"#utility.yul\":84:126   */\n      0xffffffffffffffffffffffffffffffffffffffff\n        /* \"#utility.yul\":77:82   */\n      dup3\n        /* \"#utility.yul\":73:127   */\n      and\n        /* \"#utility.yul\":62:127   */\n      swap1\n      pop\n        /* \"#utility.yul\":7:133   */\n      swap2\n      swap1\n      pop\n      jump\t// out\n        /* \"#utility.yul\":139:199   */\n    tag_274:\n        /* \"#utility.yul\":167:170   */\n      0x00\n        /* \"#utility.yul\":188:193   */\n      dup2\n        /* \"#utility.yul\":181:193   */\n      swap1\n      pop\n        /* \"#utility.yul\":139:199   */\n      swap2\n      swap1\n      pop\n      jump\t// out\n        /* \"#utility.yul\":205:347   */\n    tag_275:\n        /* \"#utility.yul\":255:264   */\n      0x00\n        /* \"#utility.yul\":288:341   */\n      tag_372\n        /* \"#utility.yul\":306:340   */\n      tag_373\n        /* \"#utility.yul\":315:339   */\n      tag_374\n        /* \"#utility.yul\":333:338   */\n      dup5\n        /* \"#utility.yul\":315:339   */\n      tag_273\n      jump\t// in\n    tag_374:\n        /* \"#utility.yul\":306:340   */\n      tag_274\n      jump\t// in\n    tag_373:\n        /* \"#utility.yul\":288:341   */\n      tag_273\n      jump\t// in\n    tag_372:\n        /* \"#utility.yul\":275:341   */\n      swap1\n      pop\n        /* \"#utility.yul\":205:347   */\n      swap2\n      swap1\n      pop\n      jump\t// out\n        /* \"#utility.yul\":353:479   */\n    tag_276:\n        /* \"#utility.yul\":403:412   */\n      0x00\n        /* \"#utility.yul\":436:473   */\n      tag_376\n        /* \"#utility.yul\":467:472   */\n      dup3\n        /* \"#utility.yul\":436:473   */\n      tag_275\n      jump\t// in\n    tag_376:\n        /* \"#utility.yul\":423:473   */\n      swap1\n      pop\n        /* \"#utility.yul\":353:479   */\n      swap2\n      swap1\n      pop\n      jump\t// out\n        /* \"#utility.yul\":485:632   */\n    tag_277:\n        /* \"#utility.yul\":556:565   */\n      0x00\n        /* \"#utility.yul\":589:626   */\n      tag_378\n        /* \"#utility.yul\":620:625   */\n      dup3\n        /* \"#utility.yul\":589:626   */\n      tag_276\n      jump\t// in\n    tag_378:\n        /* \"#utility.yul\":576:626   */\n      swap1\n      pop\n        /* \"#utility.yul\":485:632   */\n      swap2\n      swap1\n      pop\n      jump\t// out\n        /* \"#utility.yul\":638:811   */\n    tag_278:\n        /* \"#utility.yul\":746:804   */\n      tag_380\n        /* \"#utility.yul\":798:803   */\n      dup2\n        /* \"#utility.yul\":746:804   */\n      tag_277\n      jump\t// in\n    tag_380:\n        /* \"#utility.yul\":741:744   */\n      dup3\n        /* \"#utility.yul\":734:805   */\n      mstore\n        /* \"#utility.yul\":638:811   */\n      pop\n      pop\n      jump\t// out\n        /* \"#utility.yul\":817:1081   */\n    tag_24:\n        /* \"#utility.yul\":931:935   */\n      0x00\n        /* \"#utility.yul\":969:971   */\n      0x20\n        /* \"#utility.yul\":958:967   */\n      dup3\n        /* \"#utility.yul\":954:972   */\n      add\n        /* \"#utility.yul\":946:972   */\n      swap1\n      pop\n        /* \"#utility.yul\":982:1074   */\n      tag_382\n        /* \"#utility.yul\":1071:1072   */\n      0x00\n        /* \"#utility.yul\":1060:1069   */\n      dup4\n        /* \"#utility.yul\":1056:1073   */\n      add\n        /* \"#utility.yul\":1047:1053   */\n      dup5\n        /* \"#utility.yul\":982:1074   */\n      tag_278\n      jump\t// in\n    tag_382:\n        /* \"#utility.yul\":817:1081   */\n      swap3\n      swap2\n      pop\n      pop\n      jump\t// out\n        /* \"#utility.yul\":1087:1162   */\n    tag_279:\n        /* \"#utility.yul\":1120:1126   */\n      0x00\n        /* \"#utility.yul\":1153:1155   */\n      0x40\n        /* \"#utility.yul\":1147:1156   */\n      mload\n        /* \"#utility.yul\":1137:1156   */\n      swap1\n      pop\n        /* \"#utility.yul\":1087:1162   */\n      swap1\n      jump\t// out\n        /* \"#utility.yul\":1168:1285   */\n    tag_280:\n        /* \"#utility.yul\":1277:1278   */\n      0x00\n        /* \"#utility.yul\":1274:1275   */\n      0x00\n        /* \"#utility.yul\":1267:1279   */\n      revert\n        /* \"#utility.yul\":1291:1408   */\n    tag_281:\n        /* \"#utility.yul\":1400:1401   */\n      0x00\n        /* \"#utility.yul\":1397:1398   */\n      0x00\n        /* \"#utility.yul\":1390:1402   */\n      revert\n        /* \"#utility.yul\":1414:1491   */\n    tag_282:\n        /* \"#utility.yul\":1451:1458   */\n      0x00\n        /* \"#utility.yul\":1480:1485   */\n      dup2\n        /* \"#utility.yul\":1469:1485   */\n      swap1\n      pop\n        /* \"#utility.yul\":1414:1491   */\n      swap2\n      swap1\n      pop\n      jump\t// out\n        /* \"#utility.yul\":1497:1619   */\n    tag_283:\n        /* \"#utility.yul\":1570:1594   */\n      tag_388\n        /* \"#utility.yul\":1588:1593   */\n      dup2\n        /* \"#utility.yul\":1570:1594   */\n      tag_282\n      jump\t// in\n    tag_388:\n        /* \"#utility.yul\":1563:1568   */\n      dup2\n        /* \"#utility.yul\":1560:1595   */\n      eq\n        /* \"#utility.yul\":1550:1613   */\n      tag_389\n      jumpi\n        /* \"#utility.yul\":1609:1610   */\n      0x00\n        /* \"#utility.yul\":1606:1607   */\n      0x00\n        /* \"#utility.yul\":1599:1611   */\n      revert\n        /* \"#utility.yul\":1550:1613   */\n    tag_389:\n        /* \"#utility.yul\":1497:1619   */\n      pop\n      jump\t// out\n        /* \"#utility.yul\":1625:1764   */\n    tag_284:\n        /* \"#utility.yul\":1671:1676   */\n      0x00\n        /* \"#utility.yul\":1709:1715   */\n      dup2\n        /* \"#utility.yul\":1696:1716   */\n      calldataload\n        /* \"#utility.yul\":1687:1716   */\n      swap1\n      pop\n        /* \"#utility.yul\":1725:1758   */\n      tag_391\n        /* \"#utility.yul\":1752:1757   */\n      dup2\n        /* \"#utility.yul\":1725:1758   */\n      tag_283\n      jump\t// in\n    tag_391:\n        /* \"#utility.yul\":1625:1764   */\n      swap3\n      swap2\n      pop\n      pop\n      jump\t// out\n        /* \"#utility.yul\":1770:2099   */\n    tag_27:\n        /* \"#utility.yul\":1829:1835   */\n      0x00\n        /* \"#utility.yul\":1878:1880   */\n      0x20\n        /* \"#utility.yul\":1866:1875   */\n      dup3\n        /* \"#utility.yul\":1857:1864   */\n      dup5\n        /* \"#utility.yul\":1853:1876   */\n      sub\n        /* \"#utility.yul\":1849:1881   */\n      slt\n        /* \"#utility.yul\":1846:1965   */\n      iszero\n      tag_393\n      jumpi\n        /* \"#utility.yul\":1884:1963   */\n      tag_394\n      tag_280\n      jump\t// in\n    tag_394:\n        /* \"#utility.yul\":1846:1965   */\n    tag_393:\n        /* \"#utility.yul\":2004:2005   */\n      0x00\n        /* \"#utility.yul\":2029:2082   */\n      tag_395\n        /* \"#utility.yul\":2074:2081   */\n      dup5\n        /* \"#utility.yul\":2065:2071   */\n      dup3\n        /* \"#utility.yul\":2054:2063   */\n      dup6\n        /* \"#utility.yul\":2050:2072   */\n      add\n        /* \"#utility.yul\":2029:2082   */\n      tag_284\n      jump\t// in\n    tag_395:\n        /* \"#utility.yul\":2019:2082   */\n      swap2\n      pop\n        /* \"#utility.yul\":1975:2092   */\n      pop\n        /* \"#utility.yul\":1770:2099   */\n      swap3\n      swap2\n      pop\n      pop\n      jump\t// out\n        /* \"#utility.yul\":2105:2223   */\n    tag_285:\n        /* \"#utility.yul\":2192:2216   */\n      tag_397\n        /* \"#utility.yul\":2210:2215   */\n      dup2\n        /* \"#utility.yul\":2192:2216   */\n      tag_282\n      jump\t// in\n    tag_397:\n        /* \"#utility.yul\":2187:2190   */\n      dup3\n        /* \"#utility.yul\":2180:2217   */\n      mstore\n        /* \"#utility.yul\":2105:2223   */\n      pop\n      pop\n      jump\t// out\n        /* \"#utility.yul\":2229:2325   */\n    tag_286:\n        /* \"#utility.yul\":2266:2273   */\n      0x00\n        /* \"#utility.yul\":2295:2319   */\n      tag_399\n        /* \"#utility.yul\":2313:2318   */\n      dup3\n        /* \"#utility.yul\":2295:2319   */\n      tag_273\n      jump\t// in\n    tag_399:\n        /* \"#utility.yul\":2284:2319   */\n      swap1\n      pop\n        /* \"#utility.yul\":2229:2325   */\n      swap2\n      swap1\n      pop\n      jump\t// out\n        /* \"#utility.yul\":2331:2449   */\n    tag_287:\n        /* \"#utility.yul\":2418:2442   */\n      tag_401\n        /* \"#utility.yul\":2436:2441   */\n      dup2\n        /* \"#utility.yul\":2418:2442   */\n      tag_286\n      jump\t// in\n    tag_401:\n        /* \"#utility.yul\":2413:2416   */\n      dup3\n        /* \"#utility.yul\":2406:2443   */\n      mstore\n        /* \"#utility.yul\":2331:2449   */\n      pop\n      pop\n      jump\t// out\n        /* \"#utility.yul\":2455:2554   */\n    tag_288:\n        /* \"#utility.yul\":2507:2513   */\n      0x00\n        /* \"#utility.yul\":2541:2546   */\n      dup2\n        /* \"#utility.yul\":2535:2547   */\n      mload\n        /* \"#utility.yul\":2525:2547   */\n      swap1\n      pop\n        /* \"#utility.yul\":2455:2554   */\n      swap2\n      swap1\n      pop\n      jump\t// out\n        /* \"#utility.yul\":2560:2729   */\n    tag_289:\n        /* \"#utility.yul\":2644:2655   */\n      0x00\n        /* \"#utility.yul\":2678:2684   */\n      dup3\n        /* \"#utility.yul\":2673:2676   */\n      dup3\n        /* \"#utility.yul\":2666:2685   */\n      mstore\n        /* \"#utility.yul\":2718:2722   */\n      0x20\n        /* \"#utility.yul\":2713:2716   */\n      dup3\n        /* \"#utility.yul\":2709:2723   */\n      add\n        /* \"#utility.yul\":2694:2723   */\n      swap1\n      pop\n        /* \"#utility.yul\":2560:2729   */\n      swap3\n      swap2\n      pop\n      pop\n      jump\t// out\n        /* \"#utility.yul\":2735:2874   */\n    tag_290:\n        /* \"#utility.yul\":2824:2830   */\n      dup3\n        /* \"#utility.yul\":2819:2822   */\n      dup2\n        /* \"#utility.yul\":2814:2817   */\n      dup4\n        /* \"#utility.yul\":2808:2831   */\n      mcopy\n        /* \"#utility.yul\":2865:2866   */\n      0x00\n        /* \"#utility.yul\":2856:2862   */\n      dup4\n        /* \"#utility.yul\":2851:2854   */\n      dup4\n        /* \"#utility.yul\":2847:2863   */\n      add\n        /* \"#utility.yul\":2840:2867   */\n      mstore\n        /* \"#utility.yul\":2735:2874   */\n      pop\n      pop\n      pop\n      jump\t// out\n        /* \"#utility.yul\":2880:2982   */\n    tag_291:\n        /* \"#utility.yul\":2921:2927   */\n      0x00\n        /* \"#utility.yul\":2972:2974   */\n      0x1f\n        /* \"#utility.yul\":2968:2975   */\n      not\n        /* \"#utility.yul\":2963:2965   */\n      0x1f\n        /* \"#utility.yul\":2956:2961   */\n      dup4\n        /* \"#utility.yul\":2952:2966   */\n      add\n        /* \"#utility.yul\":2948:2976   */\n      and\n        /* \"#utility.yul\":2938:2976   */\n      swap1\n      pop\n        /* \"#utility.yul\":2880:2982   */\n      swap2\n      swap1\n      pop\n      jump\t// out\n        /* \"#utility.yul\":2988:3365   */\n    tag_292:\n        /* \"#utility.yul\":3076:3079   */\n      0x00\n        /* \"#utility.yul\":3104:3143   */\n      tag_407\n        /* \"#utility.yul\":3137:3142   */\n      dup3\n        /* \"#utility.yul\":3104:3143   */\n      tag_288\n      jump\t// in\n    tag_407:\n        /* \"#utility.yul\":3159:3230   */\n      tag_408\n        /* \"#utility.yul\":3223:3229   */\n      dup2\n        /* \"#utility.yul\":3218:3221   */\n      dup6\n        /* \"#utility.yul\":3159:3230   */\n      tag_289\n      jump\t// in\n    tag_408:\n        /* \"#utility.yul\":3152:3230   */\n      swap4\n      pop\n        /* \"#utility.yul\":3239:3304   */\n      tag_409\n        /* \"#utility.yul\":3297:3303   */\n      dup2\n        /* \"#utility.yul\":3292:3295   */\n      dup6\n        /* \"#utility.yul\":3285:3289   */\n      0x20\n        /* \"#utility.yul\":3278:3283   */\n      dup7\n        /* \"#utility.yul\":3274:3290   */\n      add\n        /* \"#utility.yul\":3239:3304   */\n      tag_290\n      jump\t// in\n    tag_409:\n        /* \"#utility.yul\":3329:3358   */\n      tag_410\n        /* \"#utility.yul\":3351:3357   */\n      dup2\n        /* \"#utility.yul\":3329:3358   */\n      tag_291\n      jump\t// in\n    tag_410:\n        /* \"#utility.yul\":3324:3327   */\n      dup5\n        /* \"#utility.yul\":3320:3359   */\n      add\n        /* \"#utility.yul\":3313:3359   */\n      swap2\n      pop\n        /* \"#utility.yul\":3080:3365   */\n      pop\n        /* \"#utility.yul\":2988:3365   */\n      swap3\n      swap2\n      pop\n      pop\n      jump\t// out\n        /* \"#utility.yul\":3371:3551   */\n    tag_113:\n        /* \"#utility.yul\":3419:3496   */\n      0x4e487b7100000000000000000000000000000000000000000000000000000000\n        /* \"#utility.yul\":3416:3417   */\n      0x00\n        /* \"#utility.yul\":3409:3497   */\n      mstore\n        /* \"#utility.yul\":3516:3520   */\n      0x21\n        /* \"#utility.yul\":3513:3514   */\n      0x04\n        /* \"#utility.yul\":3506:3521   */\n      mstore\n        /* \"#utility.yul\":3540:3544   */\n      0x24\n        /* \"#utility.yul\":3537:3538   */\n      0x00\n        /* \"#utility.yul\":3530:3545   */\n      revert\n        /* \"#utility.yul\":3557:3683   */\n    tag_293:\n        /* \"#utility.yul\":3651:3652   */\n      0x03\n        /* \"#utility.yul\":3644:3649   */\n      dup2\n        /* \"#utility.yul\":3641:3653   */\n      lt\n        /* \"#utility.yul\":3631:3677   */\n      tag_413\n      jumpi\n        /* \"#utility.yul\":3657:3675   */\n      tag_414\n      tag_113\n      jump\t// in\n    tag_414:\n        /* \"#utility.yul\":3631:3677   */\n    tag_413:\n        /* \"#utility.yul\":3557:3683   */\n      pop\n      jump\t// out\n        /* \"#utility.yul\":3689:3842   */\n    tag_294:\n        /* \"#utility.yul\":3747:3754   */\n      0x00\n        /* \"#utility.yul\":3776:3781   */\n      dup2\n        /* \"#utility.yul\":3765:3781   */\n      swap1\n      pop\n        /* \"#utility.yul\":3782:3836   */\n      tag_416\n        /* \"#utility.yul\":3830:3835   */\n      dup3\n        /* \"#utility.yul\":3782:3836   */\n      tag_293\n      jump\t// in\n    tag_416:\n        /* \"#utility.yul\":3689:3842   */\n      swap2\n      swap1\n      pop\n      jump\t// out\n        /* \"#utility.yul\":3848:4001   */\n    tag_295:\n        /* \"#utility.yul\":3917:3926   */\n      0x00\n        /* \"#utility.yul\":3950:3995   */\n      tag_418\n        /* \"#utility.yul\":3989:3994   */\n      dup3\n        /* \"#utility.yul\":3950:3995   */\n      tag_294\n      jump\t// in\n    tag_418:\n        /* \"#utility.yul\":3937:3995   */\n      swap1\n      pop\n        /* \"#utility.yul\":3848:4001   */\n      swap2\n      swap1\n      pop\n      jump\t// out\n        /* \"#utility.yul\":4007:4176   */\n    tag_296:\n        /* \"#utility.yul\":4113:4169   */\n      tag_420\n        /* \"#utility.yul\":4163:4168   */\n      dup2\n        /* \"#utility.yul\":4113:4169   */\n      tag_295\n      jump\t// in\n    tag_420:\n        /* \"#utility.yul\":4108:4111   */\n      dup3\n        /* \"#utility.yul\":4101:4170   */\n      mstore\n        /* \"#utility.yul\":4007:4176   */\n      pop\n      pop\n      jump\t// out\n        /* \"#utility.yul\":4182:5621   */\n    tag_30:\n        /* \"#utility.yul\":4586:4590   */\n      0x00\n        /* \"#utility.yul\":4624:4627   */\n      0x0140\n        /* \"#utility.yul\":4613:4622   */\n      dup3\n        /* \"#utility.yul\":4609:4628   */\n      add\n        /* \"#utility.yul\":4601:4628   */\n      swap1\n      pop\n        /* \"#utility.yul\":4638:4709   */\n      tag_422\n        /* \"#utility.yul\":4706:4707   */\n      0x00\n        /* \"#utility.yul\":4695:4704   */\n      dup4\n        /* \"#utility.yul\":4691:4708   */\n      add\n        /* \"#utility.yul\":4682:4688   */\n      dup14\n        /* \"#utility.yul\":4638:4709   */\n      tag_285\n      jump\t// in\n    tag_422:\n        /* \"#utility.yul\":4719:4791   */\n      tag_423\n        /* \"#utility.yul\":4787:4789   */\n      0x20\n        /* \"#utility.yul\":4776:4785   */\n      dup4\n        /* \"#utility.yul\":4772:4790   */\n      add\n        /* \"#utility.yul\":4763:4769   */\n      dup13\n        /* \"#utility.yul\":4719:4791   */\n      tag_287\n      jump\t// in\n    tag_423:\n        /* \"#utility.yul\":4801:4873   */\n      tag_424\n        /* \"#utility.yul\":4869:4871   */\n      0x40\n        /* \"#utility.yul\":4858:4867   */\n      dup4\n        /* \"#utility.yul\":4854:4872   */\n      add\n        /* \"#utility.yul\":4845:4851   */\n      dup12\n        /* \"#utility.yul\":4801:4873   */\n      tag_287\n      jump\t// in\n    tag_424:\n        /* \"#utility.yul\":4920:4929   */\n      dup2\n        /* \"#utility.yul\":4914:4918   */\n      dup2\n        /* \"#utility.yul\":4910:4930   */\n      sub\n        /* \"#utility.yul\":4905:4907   */\n      0x60\n        /* \"#utility.yul\":4894:4903   */\n      dup4\n        /* \"#utility.yul\":4890:4908   */\n      add\n        /* \"#utility.yul\":4883:4931   */\n      mstore\n        /* \"#utility.yul\":4948:5026   */\n      tag_425\n        /* \"#utility.yul\":5021:5025   */\n      dup2\n        /* \"#utility.yul\":5012:5018   */\n      dup11\n        /* \"#utility.yul\":4948:5026   */\n      tag_292\n      jump\t// in\n    tag_425:\n        /* \"#utility.yul\":4940:5026   */\n      swap1\n      pop\n        /* \"#utility.yul\":5074:5083   */\n      dup2\n        /* \"#utility.yul\":5068:5072   */\n      dup2\n        /* \"#utility.yul\":5064:5084   */\n      sub\n        /* \"#utility.yul\":5058:5061   */\n      0x80\n        /* \"#utility.yul\":5047:5056   */\n      dup4\n        /* \"#utility.yul\":5043:5062   */\n      add\n        /* \"#utility.yul\":5036:5085   */\n      mstore\n        /* \"#utility.yul\":5102:5180   */\n      tag_426\n        /* \"#utility.yul\":5175:5179   */\n      dup2\n        /* \"#utility.yul\":5166:5172   */\n      dup10\n        /* \"#utility.yul\":5102:5180   */\n      tag_292\n      jump\t// in\n    tag_426:\n        /* \"#utility.yul\":5094:5180   */\n      swap1\n      pop\n        /* \"#utility.yul\":5190:5282   */\n      tag_427\n        /* \"#utility.yul\":5277:5280   */\n      0xa0\n        /* \"#utility.yul\":5266:5275   */\n      dup4\n        /* \"#utility.yul\":5262:5281   */\n      add\n        /* \"#utility.yul\":5253:5259   */\n      dup9\n        /* \"#utility.yul\":5190:5282   */\n      tag_296\n      jump\t// in\n    tag_427:\n        /* \"#utility.yul\":5292:5365   */\n      tag_428\n        /* \"#utility.yul\":5360:5363   */\n      0xc0\n        /* \"#utility.yul\":5349:5358   */\n      dup4\n        /* \"#utility.yul\":5345:5364   */\n      add\n        /* \"#utility.yul\":5336:5342   */\n      dup8\n        /* \"#utility.yul\":5292:5365   */\n      tag_285\n      jump\t// in\n    tag_428:\n        /* \"#utility.yul\":5375:5448   */\n      tag_429\n        /* \"#utility.yul\":5443:5446   */\n      0xe0\n        /* \"#utility.yul\":5432:5441   */\n      dup4\n        /* \"#utility.yul\":5428:5447   */\n      add\n        /* \"#utility.yul\":5419:5425   */\n      dup7\n        /* \"#utility.yul\":5375:5448   */\n      tag_285\n      jump\t// in\n    tag_429:\n        /* \"#utility.yul\":5458:5531   */\n      tag_430\n        /* \"#utility.yul\":5526:5529   */\n      0x0100\n        /* \"#utility.yul\":5515:5524   */\n      dup4\n        /* \"#utility.yul\":5511:5530   */\n      add\n        /* \"#utility.yul\":5502:5508   */\n      dup6\n        /* \"#utility.yul\":5458:5531   */\n      tag_287\n      jump\t// in\n    tag_430:\n        /* \"#utility.yul\":5541:5614   */\n      tag_431\n        /* \"#utility.yul\":5609:5612   */\n      0x0120\n        /* \"#utility.yul\":5598:5607   */\n      dup4\n        /* \"#utility.yul\":5594:5613   */\n      add\n        /* \"#utility.yul\":5585:5591   */\n      dup5\n        /* \"#utility.yul\":5541:5614   */\n      tag_285\n      jump\t// in\n    tag_431:\n        /* \"#utility.yul\":4182:5621   */\n      swap12\n      swap11\n      pop\n      pop\n      pop\n      pop\n      pop\n      pop\n      pop\n      pop\n      pop\n      pop\n      pop\n      jump\t// out\n        /* \"#utility.yul\":5627:5849   */\n    tag_34:\n        /* \"#utility.yul\":5720:5724   */\n      0x00\n        /* \"#utility.yul\":5758:5760   */\n      0x20\n        /* \"#utility.yul\":5747:5756   */\n      dup3\n        /* \"#utility.yul\":5743:5761   */\n      add\n        /* \"#utility.yul\":5735:5761   */\n      swap1\n      pop\n        /* \"#utility.yul\":5771:5842   */\n      tag_433\n        /* \"#utility.yul\":5839:5840   */\n      0x00\n        /* \"#utility.yul\":5828:5837   */\n      dup4\n        /* \"#utility.yul\":5824:5841   */\n      add\n        /* \"#utility.yul\":5815:5821   */\n      dup5\n        /* \"#utility.yul\":5771:5842   */\n      tag_285\n      jump\t// in\n    tag_433:\n        /* \"#utility.yul\":5627:5849   */\n      swap3\n      swap2\n      pop\n      pop\n      jump\t// out\n        /* \"#utility.yul\":5855:6003   */\n    tag_297:\n        /* \"#utility.yul\":5927:5936   */\n      0x00\n        /* \"#utility.yul\":5960:5997   */\n      tag_435\n        /* \"#utility.yul\":5991:5996   */\n      dup3\n        /* \"#utility.yul\":5960:5997   */\n      tag_276\n      jump\t// in\n    tag_435:\n        /* \"#utility.yul\":5947:5997   */\n      swap1\n      pop\n        /* \"#utility.yul\":5855:6003   */\n      swap2\n      swap1\n      pop\n      jump\t// out\n        /* \"#utility.yul\":6009:6184   */\n    tag_298:\n        /* \"#utility.yul\":6118:6177   */\n      tag_437\n        /* \"#utility.yul\":6171:6176   */\n      dup2\n        /* \"#utility.yul\":6118:6177   */\n      tag_297\n      jump\t// in\n    tag_437:\n        /* \"#utility.yul\":6113:6116   */\n      dup3\n        /* \"#utility.yul\":6106:6178   */\n      mstore\n        /* \"#utility.yul\":6009:6184   */\n      pop\n      pop\n      jump\t// out\n        /* \"#utility.yul\":6190:6456   */\n    tag_38:\n        /* \"#utility.yul\":6305:6309   */\n      0x00\n        /* \"#utility.yul\":6343:6345   */\n      0x20\n        /* \"#utility.yul\":6332:6341   */\n      dup3\n        /* \"#utility.yul\":6328:6346   */\n      add\n        /* \"#utility.yul\":6320:6346   */\n      swap1\n      pop\n        /* \"#utility.yul\":6356:6449   */\n      tag_439\n        /* \"#utility.yul\":6446:6447   */\n      0x00\n        /* \"#utility.yul\":6435:6444   */\n      dup4\n        /* \"#utility.yul\":6431:6448   */\n      add\n        /* \"#utility.yul\":6422:6428   */\n      dup5\n        /* \"#utility.yul\":6356:6449   */\n      tag_298\n      jump\t// in\n    tag_439:\n        /* \"#utility.yul\":6190:6456   */\n      swap3\n      swap2\n      pop\n      pop\n      jump\t// out\n        /* \"#utility.yul\":6462:6570   */\n    tag_299:\n        /* \"#utility.yul\":6539:6563   */\n      tag_441\n        /* \"#utility.yul\":6557:6562   */\n      dup2\n        /* \"#utility.yul\":6539:6563   */\n      tag_282\n      jump\t// in\n    tag_441:\n        /* \"#utility.yul\":6534:6537   */\n      dup3\n        /* \"#utility.yul\":6527:6564   */\n      mstore\n        /* \"#utility.yul\":6462:6570   */\n      pop\n      pop\n      jump\t// out\n        /* \"#utility.yul\":6576:6684   */\n    tag_300:\n        /* \"#utility.yul\":6653:6677   */\n      tag_443\n        /* \"#utility.yul\":6671:6676   */\n      dup2\n        /* \"#utility.yul\":6653:6677   */\n      tag_286\n      jump\t// in\n    tag_443:\n        /* \"#utility.yul\":6648:6651   */\n      dup3\n        /* \"#utility.yul\":6641:6678   */\n      mstore\n        /* \"#utility.yul\":6576:6684   */\n      pop\n      pop\n      jump\t// out\n        /* \"#utility.yul\":6690:6849   */\n    tag_301:\n        /* \"#utility.yul\":6764:6775   */\n      0x00\n        /* \"#utility.yul\":6798:6804   */\n      dup3\n        /* \"#utility.yul\":6793:6796   */\n      dup3\n        /* \"#utility.yul\":6786:6805   */\n      mstore\n        /* \"#utility.yul\":6838:6842   */\n      0x20\n        /* \"#utility.yul\":6833:6836   */\n      dup3\n        /* \"#utility.yul\":6829:6843   */\n      add\n        /* \"#utility.yul\":6814:6843   */\n      swap1\n      pop\n        /* \"#utility.yul\":6690:6849   */\n      swap3\n      swap2\n      pop\n      pop\n      jump\t// out\n        /* \"#utility.yul\":6855:7212   */\n    tag_302:\n        /* \"#utility.yul\":6933:6936   */\n      0x00\n        /* \"#utility.yul\":6961:7000   */\n      tag_446\n        /* \"#utility.yul\":6994:6999   */\n      dup3\n        /* \"#utility.yul\":6961:7000   */\n      tag_288\n      jump\t// in\n    tag_446:\n        /* \"#utility.yul\":7016:7077   */\n      tag_447\n        /* \"#utility.yul\":7070:7076   */\n      dup2\n        /* \"#utility.yul\":7065:7068   */\n      dup6\n        /* \"#utility.yul\":7016:7077   */\n      tag_301\n      jump\t// in\n    tag_447:\n        /* \"#utility.yul\":7009:7077   */\n      swap4\n      pop\n        /* \"#utility.yul\":7086:7151   */\n      tag_448\n        /* \"#utility.yul\":7144:7150   */\n      dup2\n        /* \"#utility.yul\":7139:7142   */\n      dup6\n        /* \"#utility.yul\":7132:7136   */\n      0x20\n        /* \"#utility.yul\":7125:7130   */\n      dup7\n        /* \"#utility.yul\":7121:7137   */\n      add\n        /* \"#utility.yul\":7086:7151   */\n      tag_290\n      jump\t// in\n    tag_448:\n        /* \"#utility.yul\":7176:7205   */\n      tag_449\n        /* \"#utility.yul\":7198:7204   */\n      dup2\n        /* \"#utility.yul\":7176:7205   */\n      tag_291\n      jump\t// in\n    tag_449:\n        /* \"#utility.yul\":7171:7174   */\n      dup5\n        /* \"#utility.yul\":7167:7206   */\n      add\n        /* \"#utility.yul\":7160:7206   */\n      swap2\n      pop\n        /* \"#utility.yul\":6937:7212   */\n      pop\n        /* \"#utility.yul\":6855:7212   */\n      swap3\n      swap2\n      pop\n      pop\n      jump\t// out\n        /* \"#utility.yul\":7218:7377   */\n    tag_303:\n        /* \"#utility.yul\":7314:7370   */\n      tag_451\n        /* \"#utility.yul\":7364:7369   */\n      dup2\n        /* \"#utility.yul\":7314:7370   */\n      tag_295\n      jump\t// in\n    tag_451:\n        /* \"#utility.yul\":7309:7312   */\n      dup3\n        /* \"#utility.yul\":7302:7371   */\n      mstore\n        /* \"#utility.yul\":7218:7377   */\n      pop\n      pop\n      jump\t// out\n        /* \"#utility.yul\":7483:9646   */\n    tag_304:\n        /* \"#utility.yul\":7610:7613   */\n      0x00\n        /* \"#utility.yul\":7646:7652   */\n      0x0140\n        /* \"#utility.yul\":7641:7644   */\n      dup4\n        /* \"#utility.yul\":7637:7653   */\n      add\n        /* \"#utility.yul\":7745:7749   */\n      0x00\n        /* \"#utility.yul\":7738:7743   */\n      dup4\n        /* \"#utility.yul\":7734:7750   */\n      add\n        /* \"#utility.yul\":7728:7751   */\n      mload\n        /* \"#utility.yul\":7764:7827   */\n      tag_453\n        /* \"#utility.yul\":7821:7825   */\n      0x00\n        /* \"#utility.yul\":7816:7819   */\n      dup7\n        /* \"#utility.yul\":7812:7826   */\n      add\n        /* \"#utility.yul\":7798:7810   */\n      dup3\n        /* \"#utility.yul\":7764:7827   */\n      tag_299\n      jump\t// in\n    tag_453:\n        /* \"#utility.yul\":7663:7837   */\n      pop\n        /* \"#utility.yul\":7922:7926   */\n      0x20\n        /* \"#utility.yul\":7915:7920   */\n      dup4\n        /* \"#utility.yul\":7911:7927   */\n      add\n        /* \"#utility.yul\":7905:7928   */\n      mload\n        /* \"#utility.yul\":7941:8004   */\n      tag_454\n        /* \"#utility.yul\":7998:8002   */\n      0x20\n        /* \"#utility.yul\":7993:7996   */\n      dup7\n        /* \"#utility.yul\":7989:8003   */\n      add\n        /* \"#utility.yul\":7975:7987   */\n      dup3\n        /* \"#utility.yul\":7941:8004   */\n      tag_300\n      jump\t// in\n    tag_454:\n        /* \"#utility.yul\":7847:8014   */\n      pop\n        /* \"#utility.yul\":8098:8102   */\n      0x40\n        /* \"#utility.yul\":8091:8096   */\n      dup4\n        /* \"#utility.yul\":8087:8103   */\n      add\n        /* \"#utility.yul\":8081:8104   */\n      mload\n        /* \"#utility.yul\":8117:8180   */\n      tag_455\n        /* \"#utility.yul\":8174:8178   */\n      0x40\n        /* \"#utility.yul\":8169:8172   */\n      dup7\n        /* \"#utility.yul\":8165:8179   */\n      add\n        /* \"#utility.yul\":8151:8163   */\n      dup3\n        /* \"#utility.yul\":8117:8180   */\n      tag_300\n      jump\t// in\n    tag_455:\n        /* \"#utility.yul\":8024:8190   */\n      pop\n        /* \"#utility.yul\":8285:8289   */\n      0x60\n        /* \"#utility.yul\":8278:8283   */\n      dup4\n        /* \"#utility.yul\":8274:8290   */\n      add\n        /* \"#utility.yul\":8268:8291   */\n      mload\n        /* \"#utility.yul\":8338:8341   */\n      dup5\n        /* \"#utility.yul\":8332:8336   */\n      dup3\n        /* \"#utility.yul\":8328:8342   */\n      sub\n        /* \"#utility.yul\":8321:8325   */\n      0x60\n        /* \"#utility.yul\":8316:8319   */\n      dup7\n        /* \"#utility.yul\":8312:8326   */\n      add\n        /* \"#utility.yul\":8305:8343   */\n      mstore\n        /* \"#utility.yul\":8364:8437   */\n      tag_456\n        /* \"#utility.yul\":8432:8436   */\n      dup3\n        /* \"#utility.yul\":8418:8430   */\n      dup3\n        /* \"#utility.yul\":8364:8437   */\n      tag_302\n      jump\t// in\n    tag_456:\n        /* \"#utility.yul\":8356:8437   */\n      swap2\n      pop\n        /* \"#utility.yul\":8200:8448   */\n      pop\n        /* \"#utility.yul\":8534:8538   */\n      0x80\n        /* \"#utility.yul\":8527:8532   */\n      dup4\n        /* \"#utility.yul\":8523:8539   */\n      add\n        /* \"#utility.yul\":8517:8540   */\n      mload\n        /* \"#utility.yul\":8587:8590   */\n      dup5\n        /* \"#utility.yul\":8581:8585   */\n      dup3\n        /* \"#utility.yul\":8577:8591   */\n      sub\n        /* \"#utility.yul\":8570:8574   */\n      0x80\n        /* \"#utility.yul\":8565:8568   */\n      dup7\n        /* \"#utility.yul\":8561:8575   */\n      add\n        /* \"#utility.yul\":8554:8592   */\n      mstore\n        /* \"#utility.yul\":8613:8686   */\n      tag_457\n        /* \"#utility.yul\":8681:8685   */\n      dup3\n        /* \"#utility.yul\":8667:8679   */\n      dup3\n        /* \"#utility.yul\":8613:8686   */\n      tag_302\n      jump\t// in\n    tag_457:\n        /* \"#utility.yul\":8605:8686   */\n      swap2\n      pop\n        /* \"#utility.yul\":8458:8697   */\n      pop\n        /* \"#utility.yul\":8781:8785   */\n      0xa0\n        /* \"#utility.yul\":8774:8779   */\n      dup4\n        /* \"#utility.yul\":8770:8786   */\n      add\n        /* \"#utility.yul\":8764:8787   */\n      mload\n        /* \"#utility.yul\":8800:8882   */\n      tag_458\n        /* \"#utility.yul\":8876:8880   */\n      0xa0\n        /* \"#utility.yul\":8871:8874   */\n      dup7\n        /* \"#utility.yul\":8867:8881   */\n      add\n        /* \"#utility.yul\":8853:8865   */\n      dup3\n        /* \"#utility.yul\":8800:8882   */\n      tag_303\n      jump\t// in\n    tag_458:\n        /* \"#utility.yul\":8707:8892   */\n      pop\n        /* \"#utility.yul\":8978:8982   */\n      0xc0\n        /* \"#utility.yul\":8971:8976   */\n      dup4\n        /* \"#utility.yul\":8967:8983   */\n      add\n        /* \"#utility.yul\":8961:8984   */\n      mload\n        /* \"#utility.yul\":8997:9060   */\n      tag_459\n        /* \"#utility.yul\":9054:9058   */\n      0xc0\n        /* \"#utility.yul\":9049:9052   */\n      dup7\n        /* \"#utility.yul\":9045:9059   */\n      add\n        /* \"#utility.yul\":9031:9043   */\n      dup3\n        /* \"#utility.yul\":8997:9060   */\n      tag_299\n      jump\t// in\n    tag_459:\n        /* \"#utility.yul\":8902:9070   */\n      pop\n        /* \"#utility.yul\":9157:9161   */\n      0xe0\n        /* \"#utility.yul\":9150:9155   */\n      dup4\n        /* \"#utility.yul\":9146:9162   */\n      add\n        /* \"#utility.yul\":9140:9163   */\n      mload\n        /* \"#utility.yul\":9176:9239   */\n      tag_460\n        /* \"#utility.yul\":9233:9237   */\n      0xe0\n        /* \"#utility.yul\":9228:9231   */\n      dup7\n        /* \"#utility.yul\":9224:9238   */\n      add\n        /* \"#utility.yul\":9210:9222   */\n      dup3\n        /* \"#utility.yul\":9176:9239   */\n      tag_299\n      jump\t// in\n    tag_460:\n        /* \"#utility.yul\":9080:9249   */\n      pop\n        /* \"#utility.yul\":9338:9344   */\n      0x0100\n        /* \"#utility.yul\":9331:9336   */\n      dup4\n        /* \"#utility.yul\":9327:9345   */\n      add\n        /* \"#utility.yul\":9321:9346   */\n      mload\n        /* \"#utility.yul\":9359:9424   */\n      tag_461\n        /* \"#utility.yul\":9416:9422   */\n      0x0100\n        /* \"#utility.yul\":9411:9414   */\n      dup7\n        /* \"#utility.yul\":9407:9423   */\n      add\n        /* \"#utility.yul\":9393:9405   */\n      dup3\n        /* \"#utility.yul\":9359:9424   */\n      tag_300\n      jump\t// in\n    tag_461:\n        /* \"#utility.yul\":9259:9434   */\n      pop\n        /* \"#utility.yul\":9523:9529   */\n      0x0120\n        /* \"#utility.yul\":9516:9521   */\n      dup4\n        /* \"#utility.yul\":9512:9530   */\n      add\n        /* \"#utility.yul\":9506:9531   */\n      mload\n        /* \"#utility.yul\":9544:9609   */\n      tag_462\n        /* \"#utility.yul\":9601:9607   */\n      0x0120\n        /* \"#utility.yul\":9596:9599   */\n      dup7\n        /* \"#utility.yul\":9592:9608   */\n      add\n        /* \"#utility.yul\":9578:9590   */\n      dup3\n        /* \"#utility.yul\":9544:9609   */\n      tag_299\n      jump\t// in\n    tag_462:\n        /* \"#utility.yul\":9444:9619   */\n      pop\n        /* \"#utility.yul\":9636:9640   */\n      dup1\n        /* \"#utility.yul\":9629:9640   */\n      swap2\n      pop\n        /* \"#utility.yul\":7615:9646   */\n      pop\n        /* \"#utility.yul\":7483:9646   */\n      swap3\n      swap2\n      pop\n      pop\n      jump\t// out\n        /* \"#utility.yul\":9652:10041   */\n    tag_43:\n        /* \"#utility.yul\":9803:9807   */\n      0x00\n        /* \"#utility.yul\":9841:9843   */\n      0x20\n        /* \"#utility.yul\":9830:9839   */\n      dup3\n        /* \"#utility.yul\":9826:9844   */\n      add\n        /* \"#utility.yul\":9818:9844   */\n      swap1\n      pop\n        /* \"#utility.yul\":9890:9899   */\n      dup2\n        /* \"#utility.yul\":9884:9888   */\n      dup2\n        /* \"#utility.yul\":9880:9900   */\n      sub\n        /* \"#utility.yul\":9876:9877   */\n      0x00\n        /* \"#utility.yul\":9865:9874   */\n      dup4\n        /* \"#utility.yul\":9861:9878   */\n      add\n        /* \"#utility.yul\":9854:9901   */\n      mstore\n        /* \"#utility.yul\":9918:10034   */\n      tag_464\n        /* \"#utility.yul\":10029:10033   */\n      dup2\n        /* \"#utility.yul\":10020:10026   */\n      dup5\n        /* \"#utility.yul\":9918:10034   */\n      tag_304\n      jump\t// in\n    tag_464:\n        /* \"#utility.yul\":9910:10034   */\n      swap1\n      pop\n        /* \"#utility.yul\":9652:10041   */\n      swap3\n      swap2\n      pop\n      pop\n      jump\t// out\n        /* \"#utility.yul\":10047:10169   */\n    tag_305:\n        /* \"#utility.yul\":10120:10144   */\n      tag_466\n        /* \"#utility.yul\":10138:10143   */\n      dup2\n        /* \"#utility.yul\":10120:10144   */\n      tag_286\n      jump\t// in\n    tag_466:\n        /* \"#utility.yul\":10113:10118   */\n      dup2\n        /* \"#utility.yul\":10110:10145   */\n      eq\n        /* \"#utility.yul\":10100:10163   */\n      tag_467\n      jumpi\n        /* \"#utility.yul\":10159:10160   */\n      0x00\n        /* \"#utility.yul\":10156:10157   */\n      0x00\n        /* \"#utility.yul\":10149:10161   */\n      revert\n        /* \"#utility.yul\":10100:10163   */\n    tag_467:\n        /* \"#utility.yul\":10047:10169   */\n      pop\n      jump\t// out\n        /* \"#utility.yul\":10175:10314   */\n    tag_306:\n        /* \"#utility.yul\":10221:10226   */\n      0x00\n        /* \"#utility.yul\":10259:10265   */\n      dup2\n        /* \"#utility.yul\":10246:10266   */\n      calldataload\n        /* \"#utility.yul\":10237:10266   */\n      swap1\n      pop\n        /* \"#utility.yul\":10275:10308   */\n      tag_469\n        /* \"#utility.yul\":10302:10307   */\n      dup2\n        /* \"#utility.yul\":10275:10308   */\n      tag_305\n      jump\t// in\n    tag_469:\n        /* \"#utility.yul\":10175:10314   */\n      swap3\n      swap2\n      pop\n      pop\n      jump\t// out\n        /* \"#utility.yul\":10320:10437   */\n    tag_307:\n        /* \"#utility.yul\":10429:10430   */\n      0x00\n        /* \"#utility.yul\":10426:10427   */\n      0x00\n        /* \"#utility.yul\":10419:10431   */\n      revert\n        /* \"#utility.yul\":10443:10560   */\n    tag_308:\n        /* \"#utility.yul\":10552:10553   */\n      0x00\n        /* \"#utility.yul\":10549:10550   */\n      0x00\n        /* \"#utility.yul\":10542:10554   */\n      revert\n        /* \"#utility.yul\":10566:10746   */\n    tag_309:\n        /* \"#utility.yul\":10614:10691   */\n      0x4e487b7100000000000000000000000000000000000000000000000000000000\n        /* \"#utility.yul\":10611:10612   */\n      0x00\n        /* \"#utility.yul\":10604:10692   */\n      mstore\n        /* \"#utility.yul\":10711:10715   */\n      0x41\n        /* \"#utility.yul\":10708:10709   */\n      0x04\n        /* \"#utility.yul\":10701:10716   */\n      mstore\n        /* \"#utility.yul\":10735:10739   */\n      0x24\n        /* \"#utility.yul\":10732:10733   */\n      0x00\n        /* \"#utility.yul\":10725:10740   */\n      revert\n        /* \"#utility.yul\":10752:11033   */\n    tag_310:\n        /* \"#utility.yul\":10835:10862   */\n      tag_474\n        /* \"#utility.yul\":10857:10861   */\n      dup3\n        /* \"#utility.yul\":10835:10862   */\n      tag_291\n      jump\t// in\n    tag_474:\n        /* \"#utility.yul\":10827:10833   */\n      dup2\n        /* \"#utility.yul\":10823:10863   */\n      add\n        /* \"#utility.yul\":10965:10971   */\n      dup2\n        /* \"#utility.yul\":10953:10963   */\n      dup2\n        /* \"#utility.yul\":10950:10972   */\n      lt\n        /* \"#utility.yul\":10929:10947   */\n      0xffffffffffffffff\n        /* \"#utility.yul\":10917:10927   */\n      dup3\n        /* \"#utility.yul\":10914:10948   */\n      gt\n        /* \"#utility.yul\":10911:10973   */\n      or\n        /* \"#utility.yul\":10908:10996   */\n      iszero\n      tag_475\n      jumpi\n        /* \"#utility.yul\":10976:10994   */\n      tag_476\n      tag_309\n      jump\t// in\n    tag_476:\n        /* \"#utility.yul\":10908:10996   */\n    tag_475:\n        /* \"#utility.yul\":11016:11026   */\n      dup1\n        /* \"#utility.yul\":11012:11014   */\n      0x40\n        /* \"#utility.yul\":11005:11027   */\n      mstore\n        /* \"#utility.yul\":10795:11033   */\n      pop\n        /* \"#utility.yul\":10752:11033   */\n      pop\n      pop\n      jump\t// out\n        /* \"#utility.yul\":11039:11168   */\n    tag_311:\n        /* \"#utility.yul\":11073:11079   */\n      0x00\n        /* \"#utility.yul\":11100:11120   */\n      tag_478\n      tag_279\n      jump\t// in\n    tag_478:\n        /* \"#utility.yul\":11090:11120   */\n      swap1\n      pop\n        /* \"#utility.yul\":11129:11162   */\n      tag_479\n        /* \"#utility.yul\":11157:11161   */\n      dup3\n        /* \"#utility.yul\":11149:11155   */\n      dup3\n        /* \"#utility.yul\":11129:11162   */\n      tag_310\n      jump\t// in\n    tag_479:\n        /* \"#utility.yul\":11039:11168   */\n      swap2\n      swap1\n      pop\n      jump\t// out\n        /* \"#utility.yul\":11174:11482   */\n    tag_312:\n        /* \"#utility.yul\":11236:11240   */\n      0x00\n        /* \"#utility.yul\":11326:11344   */\n      0xffffffffffffffff\n        /* \"#utility.yul\":11318:11324   */\n      dup3\n        /* \"#utility.yul\":11315:11345   */\n      gt\n        /* \"#utility.yul\":11312:11368   */\n      iszero\n      tag_481\n      jumpi\n        /* \"#utility.yul\":11348:11366   */\n      tag_482\n      tag_309\n      jump\t// in\n    tag_482:\n        /* \"#utility.yul\":11312:11368   */\n    tag_481:\n        /* \"#utility.yul\":11386:11415   */\n      tag_483\n        /* \"#utility.yul\":11408:11414   */\n      dup3\n        /* \"#utility.yul\":11386:11415   */\n      tag_291\n      jump\t// in\n    tag_483:\n        /* \"#utility.yul\":11378:11415   */\n      swap1\n      pop\n        /* \"#utility.yul\":11470:11474   */\n      0x20\n        /* \"#utility.yul\":11464:11468   */\n      dup2\n        /* \"#utility.yul\":11460:11475   */\n      add\n        /* \"#utility.yul\":11452:11475   */\n      swap1\n      pop\n        /* \"#utility.yul\":11174:11482   */\n      swap2\n      swap1\n      pop\n      jump\t// out\n        /* \"#utility.yul\":11488:11636   */\n    tag_313:\n        /* \"#utility.yul\":11586:11592   */\n      dup3\n        /* \"#utility.yul\":11581:11584   */\n      dup2\n        /* \"#utility.yul\":11576:11579   */\n      dup4\n        /* \"#utility.yul\":11563:11593   */\n      calldatacopy\n        /* \"#utility.yul\":11627:11628   */\n      0x00\n        /* \"#utility.yul\":11618:11624   */\n      dup4\n        /* \"#utility.yul\":11613:11616   */\n      dup4\n        /* \"#utility.yul\":11609:11625   */\n      add\n        /* \"#utility.yul\":11602:11629   */\n      mstore\n        /* \"#utility.yul\":11488:11636   */\n      pop\n      pop\n      pop\n      jump\t// out\n        /* \"#utility.yul\":11642:12067   */\n    tag_314:\n        /* \"#utility.yul\":11720:11725   */\n      0x00\n        /* \"#utility.yul\":11745:11811   */\n      tag_486\n        /* \"#utility.yul\":11761:11810   */\n      tag_487\n        /* \"#utility.yul\":11803:11809   */\n      dup5\n        /* \"#utility.yul\":11761:11810   */\n      tag_312\n      jump\t// in\n    tag_487:\n        /* \"#utility.yul\":11745:11811   */\n      tag_311\n      jump\t// in\n    tag_486:\n        /* \"#utility.yul\":11736:11811   */\n      swap1\n      pop\n        /* \"#utility.yul\":11834:11840   */\n      dup3\n        /* \"#utility.yul\":11827:11832   */\n      dup2\n        /* \"#utility.yul\":11820:11841   */\n      mstore\n        /* \"#utility.yul\":11872:11876   */\n      0x20\n        /* \"#utility.yul\":11865:11870   */\n      dup2\n        /* \"#utility.yul\":11861:11877   */\n      add\n        /* \"#utility.yul\":11910:11913   */\n      dup5\n        /* \"#utility.yul\":11901:11907   */\n      dup5\n        /* \"#utility.yul\":11896:11899   */\n      dup5\n        /* \"#utility.yul\":11892:11908   */\n      add\n        /* \"#utility.yul\":11889:11914   */\n      gt\n        /* \"#utility.yul\":11886:11998   */\n      iszero\n      tag_488\n      jumpi\n        /* \"#utility.yul\":11917:11996   */\n      tag_489\n      tag_308\n      jump\t// in\n    tag_489:\n        /* \"#utility.yul\":11886:11998   */\n    tag_488:\n        /* \"#utility.yul\":12007:12061   */\n      tag_490\n        /* \"#utility.yul\":12054:12060   */\n      dup5\n        /* \"#utility.yul\":12049:12052   */\n      dup3\n        /* \"#utility.yul\":12044:12047   */\n      dup6\n        /* \"#utility.yul\":12007:12061   */\n      tag_313\n      jump\t// in\n    tag_490:\n        /* \"#utility.yul\":11726:12067   */\n      pop\n        /* \"#utility.yul\":11642:12067   */\n      swap4\n      swap3\n      pop\n      pop\n      pop\n      jump\t// out\n        /* \"#utility.yul\":12087:12427   */\n    tag_315:\n        /* \"#utility.yul\":12143:12148   */\n      0x00\n        /* \"#utility.yul\":12192:12195   */\n      dup3\n        /* \"#utility.yul\":12185:12189   */\n      0x1f\n        /* \"#utility.yul\":12177:12183   */\n      dup4\n        /* \"#utility.yul\":12173:12190   */\n      add\n        /* \"#utility.yul\":12169:12196   */\n      slt\n        /* \"#utility.yul\":12159:12281   */\n      tag_492\n      jumpi\n        /* \"#utility.yul\":12200:12279   */\n      tag_493\n      tag_307\n      jump\t// in\n    tag_493:\n        /* \"#utility.yul\":12159:12281   */\n    tag_492:\n        /* \"#utility.yul\":12317:12323   */\n      dup2\n        /* \"#utility.yul\":12304:12324   */\n      calldataload\n        /* \"#utility.yul\":12342:12421   */\n      tag_494\n        /* \"#utility.yul\":12417:12420   */\n      dup5\n        /* \"#utility.yul\":12409:12415   */\n      dup3\n        /* \"#utility.yul\":12402:12406   */\n      0x20\n        /* \"#utility.yul\":12394:12400   */\n      dup7\n        /* \"#utility.yul\":12390:12407   */\n      add\n        /* \"#utility.yul\":12342:12421   */\n      tag_314\n      jump\t// in\n    tag_494:\n        /* \"#utility.yul\":12333:12421   */\n      swap2\n      pop\n        /* \"#utility.yul\":12149:12427   */\n      pop\n        /* \"#utility.yul\":12087:12427   */\n      swap3\n      swap2\n      pop\n      pop\n      jump\t// out\n        /* \"#utility.yul\":12433:13412   */\n    tag_46:\n        /* \"#utility.yul\":12530:12536   */\n      0x00\n        /* \"#utility.yul\":12538:12544   */\n      0x00\n        /* \"#utility.yul\":12546:12552   */\n      0x00\n        /* \"#utility.yul\":12595:12597   */\n      0x60\n        /* \"#utility.yul\":12583:12592   */\n      dup5\n        /* \"#utility.yul\":12574:12581   */\n      dup7\n        /* \"#utility.yul\":12570:12593   */\n      sub\n        /* \"#utility.yul\":12566:12598   */\n      slt\n        /* \"#utility.yul\":12563:12682   */\n      iszero\n      tag_496\n      jumpi\n        /* \"#utility.yul\":12601:12680   */\n      tag_497\n      tag_280\n      jump\t// in\n    tag_497:\n        /* \"#utility.yul\":12563:12682   */\n    tag_496:\n        /* \"#utility.yul\":12721:12722   */\n      0x00\n        /* \"#utility.yul\":12746:12799   */\n      tag_498\n        /* \"#utility.yul\":12791:12798   */\n      dup7\n        /* \"#utility.yul\":12782:12788   */\n      dup3\n        /* \"#utility.yul\":12771:12780   */\n      dup8\n        /* \"#utility.yul\":12767:12789   */\n      add\n        /* \"#utility.yul\":12746:12799   */\n      tag_306\n      jump\t// in\n    tag_498:\n        /* \"#utility.yul\":12736:12799   */\n      swap4\n      pop\n        /* \"#utility.yul\":12692:12809   */\n      pop\n        /* \"#utility.yul\":12876:12878   */\n      0x20\n        /* \"#utility.yul\":12865:12874   */\n      dup5\n        /* \"#utility.yul\":12861:12879   */\n      add\n        /* \"#utility.yul\":12848:12880   */\n      calldataload\n        /* \"#utility.yul\":12907:12925   */\n      0xffffffffffffffff\n        /* \"#utility.yul\":12899:12905   */\n      dup2\n        /* \"#utility.yul\":12896:12926   */\n      gt\n        /* \"#utility.yul\":12893:13010   */\n      iszero\n      tag_499\n      jumpi\n        /* \"#utility.yul\":12929:13008   */\n      tag_500\n      tag_281\n      jump\t// in\n    tag_500:\n        /* \"#utility.yul\":12893:13010   */\n    tag_499:\n        /* \"#utility.yul\":13034:13097   */\n      tag_501\n        /* \"#utility.yul\":13089:13096   */\n      dup7\n        /* \"#utility.yul\":13080:13086   */\n      dup3\n        /* \"#utility.yul\":13069:13078   */\n      dup8\n        /* \"#utility.yul\":13065:13087   */\n      add\n        /* \"#utility.yul\":13034:13097   */\n      tag_315\n      jump\t// in\n    tag_501:\n        /* \"#utility.yul\":13024:13097   */\n      swap3\n      pop\n        /* \"#utility.yul\":12819:13107   */\n      pop\n        /* \"#utility.yul\":13174:13176   */\n      0x40\n        /* \"#utility.yul\":13163:13172   */\n      dup5\n        /* \"#utility.yul\":13159:13177   */\n      add\n        /* \"#utility.yul\":13146:13178   */\n      calldataload\n        /* \"#utility.yul\":13205:13223   */\n      0xffffffffffffffff\n        /* \"#utility.yul\":13197:13203   */\n      dup2\n        /* \"#utility.yul\":13194:13224   */\n      gt\n        /* \"#utility.yul\":13191:13308   */\n      iszero\n      tag_502\n      jumpi\n        /* \"#utility.yul\":13227:13306   */\n      tag_503\n      tag_281\n      jump\t// in\n    tag_503:\n        /* \"#utility.yul\":13191:13308   */\n    tag_502:\n        /* \"#utility.yul\":13332:13395   */\n      tag_504\n        /* \"#utility.yul\":13387:13394   */\n      dup7\n        /* \"#utility.yul\":13378:13384   */\n      dup3\n        /* \"#utility.yul\":13367:13376   */\n      dup8\n        /* \"#utility.yul\":13363:13385   */\n      add\n        /* \"#utility.yul\":13332:13395   */\n      tag_315\n      jump\t// in\n    tag_504:\n        /* \"#utility.yul\":13322:13395   */\n      swap2\n      pop\n        /* \"#utility.yul\":13117:13405   */\n      pop\n        /* \"#utility.yul\":12433:13412   */\n      swap3\n      pop\n      swap3\n      pop\n      swap3\n      jump\t// out\n        /* \"#utility.yul\":13418:14543   */\n    tag_50:\n        /* \"#utility.yul\":13524:13530   */\n      0x00\n        /* \"#utility.yul\":13532:13538   */\n      0x00\n        /* \"#utility.yul\":13540:13546   */\n      0x00\n        /* \"#utility.yul\":13548:13554   */\n      0x00\n        /* \"#utility.yul\":13597:13600   */\n      0x80\n        /* \"#utility.yul\":13585:13594   */\n      dup6\n        /* \"#utility.yul\":13576:13583   */\n      dup8\n        /* \"#utility.yul\":13572:13595   */\n      sub\n        /* \"#utility.yul\":13568:13601   */\n      slt\n        /* \"#utility.yul\":13565:13685   */\n      iszero\n      tag_506\n      jumpi\n        /* \"#utility.yul\":13604:13683   */\n      tag_507\n      tag_280\n      jump\t// in\n    tag_507:\n        /* \"#utility.yul\":13565:13685   */\n    tag_506:\n        /* \"#utility.yul\":13724:13725   */\n      0x00\n        /* \"#utility.yul\":13749:13802   */\n      tag_508\n        /* \"#utility.yul\":13794:13801   */\n      dup8\n        /* \"#utility.yul\":13785:13791   */\n      dup3\n        /* \"#utility.yul\":13774:13783   */\n      dup9\n        /* \"#utility.yul\":13770:13792   */\n      add\n        /* \"#utility.yul\":13749:13802   */\n      tag_306\n      jump\t// in\n    tag_508:\n        /* \"#utility.yul\":13739:13802   */\n      swap5\n      pop\n        /* \"#utility.yul\":13695:13812   */\n      pop\n        /* \"#utility.yul\":13879:13881   */\n      0x20\n        /* \"#utility.yul\":13868:13877   */\n      dup6\n        /* \"#utility.yul\":13864:13882   */\n      add\n        /* \"#utility.yul\":13851:13883   */\n      calldataload\n        /* \"#utility.yul\":13910:13928   */\n      0xffffffffffffffff\n        /* \"#utility.yul\":13902:13908   */\n      dup2\n        /* \"#utility.yul\":13899:13929   */\n      gt\n        /* \"#utility.yul\":13896:14013   */\n      iszero\n      tag_509\n      jumpi\n        /* \"#utility.yul\":13932:14011   */\n      tag_510\n      tag_281\n      jump\t// in\n    tag_510:\n        /* \"#utility.yul\":13896:14013   */\n    tag_509:\n        /* \"#utility.yul\":14037:14100   */\n      tag_511\n        /* \"#utility.yul\":14092:14099   */\n      dup8\n        /* \"#utility.yul\":14083:14089   */\n      dup3\n        /* \"#utility.yul\":14072:14081   */\n      dup9\n        /* \"#utility.yul\":14068:14090   */\n      add\n        /* \"#utility.yul\":14037:14100   */\n      tag_315\n      jump\t// in\n    tag_511:\n        /* \"#utility.yul\":14027:14100   */\n      swap4\n      pop\n        /* \"#utility.yul\":13822:14110   */\n      pop\n        /* \"#utility.yul\":14177:14179   */\n      0x40\n        /* \"#utility.yul\":14166:14175   */\n      dup6\n        /* \"#utility.yul\":14162:14180   */\n      add\n        /* \"#utility.yul\":14149:14181   */\n      calldataload\n        /* \"#utility.yul\":14208:14226   */\n      0xffffffffffffffff\n        /* \"#utility.yul\":14200:14206   */\n      dup2\n        /* \"#utility.yul\":14197:14227   */\n      gt\n        /* \"#utility.yul\":14194:14311   */\n      iszero\n      tag_512\n      jumpi\n        /* \"#utility.yul\":14230:14309   */\n      tag_513\n      tag_281\n      jump\t// in\n    tag_513:\n        /* \"#utility.yul\":14194:14311   */\n    tag_512:\n        /* \"#utility.yul\":14335:14398   */\n      tag_514\n        /* \"#utility.yul\":14390:14397   */\n      dup8\n        /* \"#utility.yul\":14381:14387   */\n      dup3\n        /* \"#utility.yul\":14370:14379   */\n      dup9\n        /* \"#utility.yul\":14366:14388   */\n      add\n        /* \"#utility.yul\":14335:14398   */\n      tag_315\n      jump\t// in\n    tag_514:\n        /* \"#utility.yul\":14325:14398   */\n      swap3\n      pop\n        /* \"#utility.yul\":14120:14408   */\n      pop\n        /* \"#utility.yul\":14447:14449   */\n      0x60\n        /* \"#utility.yul\":14473:14526   */\n      tag_515\n        /* \"#utility.yul\":14518:14525   */\n      dup8\n        /* \"#utility.yul\":14509:14515   */\n      dup3\n        /* \"#utility.yul\":14498:14507   */\n      dup9\n        /* \"#utility.yul\":14494:14516   */\n      add\n        /* \"#utility.yul\":14473:14526   */\n      tag_284\n      jump\t// in\n    tag_515:\n        /* \"#utility.yul\":14463:14526   */\n      swap2\n      pop\n        /* \"#utility.yul\":14418:14536   */\n      pop\n        /* \"#utility.yul\":13418:14543   */\n      swap3\n      swap6\n      swap2\n      swap5\n      pop\n      swap3\n      pop\n      jump\t// out\n        /* \"#utility.yul\":14549:14878   */\n    tag_60:\n        /* \"#utility.yul\":14608:14614   */\n      0x00\n        /* \"#utility.yul\":14657:14659   */\n      0x20\n        /* \"#utility.yul\":14645:14654   */\n      dup3\n        /* \"#utility.yul\":14636:14643   */\n      dup5\n        /* \"#utility.yul\":14632:14655   */\n      sub\n        /* \"#utility.yul\":14628:14660   */\n      slt\n        /* \"#utility.yul\":14625:14744   */\n      iszero\n      tag_517\n      jumpi\n        /* \"#utility.yul\":14663:14742   */\n      tag_518\n      tag_280\n      jump\t// in\n    tag_518:\n        /* \"#utility.yul\":14625:14744   */\n    tag_517:\n        /* \"#utility.yul\":14783:14784   */\n      0x00\n        /* \"#utility.yul\":14808:14861   */\n      tag_519\n        /* \"#utility.yul\":14853:14860   */\n      dup5\n        /* \"#utility.yul\":14844:14850   */\n      dup3\n        /* \"#utility.yul\":14833:14842   */\n      dup6\n        /* \"#utility.yul\":14829:14851   */\n      add\n        /* \"#utility.yul\":14808:14861   */\n      tag_306\n      jump\t// in\n    tag_519:\n        /* \"#utility.yul\":14798:14861   */\n      swap2\n      pop\n        /* \"#utility.yul\":14754:14871   */\n      pop\n        /* \"#utility.yul\":14549:14878   */\n      swap3\n      swap2\n      pop\n      pop\n      jump\t// out\n        /* \"#utility.yul\":14884:14998   */\n    tag_316:\n        /* \"#utility.yul\":14951:14957   */\n      0x00\n        /* \"#utility.yul\":14985:14990   */\n      dup2\n        /* \"#utility.yul\":14979:14991   */\n      mload\n        /* \"#utility.yul\":14969:14991   */\n      swap1\n      pop\n        /* \"#utility.yul\":14884:14998   */\n      swap2\n      swap1\n      pop\n      jump\t// out\n        /* \"#utility.yul\":15004:15188   */\n    tag_317:\n        /* \"#utility.yul\":15103:15114   */\n      0x00\n        /* \"#utility.yul\":15137:15143   */\n      dup3\n        /* \"#utility.yul\":15132:15135   */\n      dup3\n        /* \"#utility.yul\":15125:15144   */\n      mstore\n        /* \"#utility.yul\":15177:15181   */\n      0x20\n        /* \"#utility.yul\":15172:15175   */\n      dup3\n        /* \"#utility.yul\":15168:15182   */\n      add\n        /* \"#utility.yul\":15153:15182   */\n      swap1\n      pop\n        /* \"#utility.yul\":15004:15188   */\n      swap3\n      swap2\n      pop\n      pop\n      jump\t// out\n        /* \"#utility.yul\":15194:15326   */\n    tag_318:\n        /* \"#utility.yul\":15261:15265   */\n      0x00\n        /* \"#utility.yul\":15284:15287   */\n      dup2\n        /* \"#utility.yul\":15276:15287   */\n      swap1\n      pop\n        /* \"#utility.yul\":15314:15318   */\n      0x20\n        /* \"#utility.yul\":15309:15312   */\n      dup3\n        /* \"#utility.yul\":15305:15319   */\n      add\n        /* \"#utility.yul\":15297:15319   */\n      swap1\n      pop\n        /* \"#utility.yul\":15194:15326   */\n      swap2\n      swap1\n      pop\n      jump\t// out\n        /* \"#utility.yul\":15332:15511   */\n    tag_319:\n        /* \"#utility.yul\":15401:15411   */\n      0x00\n        /* \"#utility.yul\":15422:15468   */\n      tag_524\n        /* \"#utility.yul\":15464:15467   */\n      dup4\n        /* \"#utility.yul\":15456:15462   */\n      dup4\n        /* \"#utility.yul\":15422:15468   */\n      tag_299\n      jump\t// in\n    tag_524:\n        /* \"#utility.yul\":15500:15504   */\n      0x20\n        /* \"#utility.yul\":15495:15498   */\n      dup4\n        /* \"#utility.yul\":15491:15505   */\n      add\n        /* \"#utility.yul\":15477:15505   */\n      swap1\n      pop\n        /* \"#utility.yul\":15332:15511   */\n      swap3\n      swap2\n      pop\n      pop\n      jump\t// out\n        /* \"#utility.yul\":15517:15630   */\n    tag_320:\n        /* \"#utility.yul\":15587:15591   */\n      0x00\n        /* \"#utility.yul\":15619:15623   */\n      0x20\n        /* \"#utility.yul\":15614:15617   */\n      dup3\n        /* \"#utility.yul\":15610:15624   */\n      add\n        /* \"#utility.yul\":15602:15624   */\n      swap1\n      pop\n        /* \"#utility.yul\":15517:15630   */\n      swap2\n      swap1\n      pop\n      jump\t// out\n        /* \"#utility.yul\":15666:16398   */\n    tag_321:\n        /* \"#utility.yul\":15785:15788   */\n      0x00\n        /* \"#utility.yul\":15814:15868   */\n      tag_527\n        /* \"#utility.yul\":15862:15867   */\n      dup3\n        /* \"#utility.yul\":15814:15868   */\n      tag_316\n      jump\t// in\n    tag_527:\n        /* \"#utility.yul\":15884:15970   */\n      tag_528\n        /* \"#utility.yul\":15963:15969   */\n      dup2\n        /* \"#utility.yul\":15958:15961   */\n      dup6\n        /* \"#utility.yul\":15884:15970   */\n      tag_317\n      jump\t// in\n    tag_528:\n        /* \"#utility.yul\":15877:15970   */\n      swap4\n      pop\n        /* \"#utility.yul\":15994:16050   */\n      tag_529\n        /* \"#utility.yul\":16044:16049   */\n      dup4\n        /* \"#utility.yul\":15994:16050   */\n      tag_318\n      jump\t// in\n    tag_529:\n        /* \"#utility.yul\":16073:16080   */\n      dup1\n        /* \"#utility.yul\":16104:16105   */\n      0x00\n        /* \"#utility.yul\":16089:16373   */\n    tag_530:\n        /* \"#utility.yul\":16114:16120   */\n      dup4\n        /* \"#utility.yul\":16111:16112   */\n      dup2\n        /* \"#utility.yul\":16108:16121   */\n      lt\n        /* \"#utility.yul\":16089:16373   */\n      iszero\n      tag_532\n      jumpi\n        /* \"#utility.yul\":16190:16196   */\n      dup2\n        /* \"#utility.yul\":16184:16197   */\n      mload\n        /* \"#utility.yul\":16217:16280   */\n      tag_533\n        /* \"#utility.yul\":16276:16279   */\n      dup9\n        /* \"#utility.yul\":16261:16274   */\n      dup3\n        /* \"#utility.yul\":16217:16280   */\n      tag_319\n      jump\t// in\n    tag_533:\n        /* \"#utility.yul\":16210:16280   */\n      swap8\n      pop\n        /* \"#utility.yul\":16303:16363   */\n      tag_534\n        /* \"#utility.yul\":16356:16362   */\n      dup4\n        /* \"#utility.yul\":16303:16363   */\n      tag_320\n      jump\t// in\n    tag_534:\n        /* \"#utility.yul\":16293:16363   */\n      swap3\n      pop\n        /* \"#utility.yul\":16149:16373   */\n      pop\n        /* \"#utility.yul\":16136:16137   */\n      0x01\n        /* \"#utility.yul\":16133:16134   */\n      dup2\n        /* \"#utility.yul\":16129:16138   */\n      add\n        /* \"#utility.yul\":16124:16138   */\n      swap1\n      pop\n        /* \"#utility.yul\":16089:16373   */\n      jump(tag_530)\n    tag_532:\n        /* \"#utility.yul\":16093:16107   */\n      pop\n        /* \"#utility.yul\":16389:16392   */\n      dup6\n        /* \"#utility.yul\":16382:16392   */\n      swap4\n      pop\n        /* \"#utility.yul\":15790:16398   */\n      pop\n      pop\n      pop\n        /* \"#utility.yul\":15666:16398   */\n      swap3\n      swap2\n      pop\n      pop\n      jump\t// out\n        /* \"#utility.yul\":16404:16777   */\n    tag_63:\n        /* \"#utility.yul\":16547:16551   */\n      0x00\n        /* \"#utility.yul\":16585:16587   */\n      0x20\n        /* \"#utility.yul\":16574:16583   */\n      dup3\n        /* \"#utility.yul\":16570:16588   */\n      add\n        /* \"#utility.yul\":16562:16588   */\n      swap1\n      pop\n        /* \"#utility.yul\":16634:16643   */\n      dup2\n        /* \"#utility.yul\":16628:16632   */\n      dup2\n        /* \"#utility.yul\":16624:16644   */\n      sub\n        /* \"#utility.yul\":16620:16621   */\n      0x00\n        /* \"#utility.yul\":16609:16618   */\n      dup4\n        /* \"#utility.yul\":16605:16622   */\n      add\n        /* \"#utility.yul\":16598:16645   */\n      mstore\n        /* \"#utility.yul\":16662:16770   */\n      tag_536\n        /* \"#utility.yul\":16765:16769   */\n      dup2\n        /* \"#utility.yul\":16756:16762   */\n      dup5\n        /* \"#utility.yul\":16662:16770   */\n      tag_321\n      jump\t// in\n    tag_536:\n        /* \"#utility.yul\":16654:16770   */\n      swap1\n      pop\n        /* \"#utility.yul\":16404:16777   */\n      swap3\n      swap2\n      pop\n      pop\n      jump\t// out\n        /* \"#utility.yul\":16783:17740   */\n    tag_68:\n        /* \"#utility.yul\":17056:17060   */\n      0x00\n        /* \"#utility.yul\":17094:17097   */\n      0xc0\n        /* \"#utility.yul\":17083:17092   */\n      dup3\n        /* \"#utility.yul\":17079:17098   */\n      add\n        /* \"#utility.yul\":17071:17098   */\n      swap1\n      pop\n        /* \"#utility.yul\":17108:17179   */\n      tag_538\n        /* \"#utility.yul\":17176:17177   */\n      0x00\n        /* \"#utility.yul\":17165:17174   */\n      dup4\n        /* \"#utility.yul\":17161:17178   */\n      add\n        /* \"#utility.yul\":17152:17158   */\n      dup10\n        /* \"#utility.yul\":17108:17179   */\n      tag_285\n      jump\t// in\n    tag_538:\n        /* \"#utility.yul\":17189:17261   */\n      tag_539\n        /* \"#utility.yul\":17257:17259   */\n      0x20\n        /* \"#utility.yul\":17246:17255   */\n      dup4\n        /* \"#utility.yul\":17242:17260   */\n      add\n        /* \"#utility.yul\":17233:17239   */\n      dup9\n        /* \"#utility.yul\":17189:17261   */\n      tag_287\n      jump\t// in\n    tag_539:\n        /* \"#utility.yul\":17271:17343   */\n      tag_540\n        /* \"#utility.yul\":17339:17341   */\n      0x40\n        /* \"#utility.yul\":17328:17337   */\n      dup4\n        /* \"#utility.yul\":17324:17342   */\n      add\n        /* \"#utility.yul\":17315:17321   */\n      dup8\n        /* \"#utility.yul\":17271:17343   */\n      tag_287\n      jump\t// in\n    tag_540:\n        /* \"#utility.yul\":17390:17399   */\n      dup2\n        /* \"#utility.yul\":17384:17388   */\n      dup2\n        /* \"#utility.yul\":17380:17400   */\n      sub\n        /* \"#utility.yul\":17375:17377   */\n      0x60\n        /* \"#utility.yul\":17364:17373   */\n      dup4\n        /* \"#utility.yul\":17360:17378   */\n      add\n        /* \"#utility.yul\":17353:17401   */\n      mstore\n        /* \"#utility.yul\":17418:17496   */\n      tag_541\n        /* \"#utility.yul\":17491:17495   */\n      dup2\n        /* \"#utility.yul\":17482:17488   */\n      dup7\n        /* \"#utility.yul\":17418:17496   */\n      tag_292\n      jump\t// in\n    tag_541:\n        /* \"#utility.yul\":17410:17496   */\n      swap1\n      pop\n        /* \"#utility.yul\":17544:17553   */\n      dup2\n        /* \"#utility.yul\":17538:17542   */\n      dup2\n        /* \"#utility.yul\":17534:17554   */\n      sub\n        /* \"#utility.yul\":17528:17531   */\n      0x80\n        /* \"#utility.yul\":17517:17526   */\n      dup4\n        /* \"#utility.yul\":17513:17532   */\n      add\n        /* \"#utility.yul\":17506:17555   */\n      mstore\n        /* \"#utility.yul\":17572:17650   */\n      tag_542\n        /* \"#utility.yul\":17645:17649   */\n      dup2\n        /* \"#utility.yul\":17636:17642   */\n      dup6\n        /* \"#utility.yul\":17572:17650   */\n      tag_292\n      jump\t// in\n    tag_542:\n        /* \"#utility.yul\":17564:17650   */\n      swap1\n      pop\n        /* \"#utility.yul\":17660:17733   */\n      tag_543\n        /* \"#utility.yul\":17728:17731   */\n      0xa0\n        /* \"#utility.yul\":17717:17726   */\n      dup4\n        /* \"#utility.yul\":17713:17732   */\n      add\n        /* \"#utility.yul\":17704:17710   */\n      dup5\n        /* \"#utility.yul\":17660:17733   */\n      tag_285\n      jump\t// in\n    tag_543:\n        /* \"#utility.yul\":16783:17740   */\n      swap8\n      swap7\n      pop\n      pop\n      pop\n      pop\n      pop\n      pop\n      pop\n      jump\t// out\n        /* \"#utility.yul\":17746:17836   */\n    tag_322:\n        /* \"#utility.yul\":17780:17787   */\n      0x00\n        /* \"#utility.yul\":17823:17828   */\n      dup2\n        /* \"#utility.yul\":17816:17829   */\n      iszero\n        /* \"#utility.yul\":17809:17830   */\n      iszero\n        /* \"#utility.yul\":17798:17830   */\n      swap1\n      pop\n        /* \"#utility.yul\":17746:17836   */\n      swap2\n      swap1\n      pop\n      jump\t// out\n        /* \"#utility.yul\":17842:17951   */\n    tag_323:\n        /* \"#utility.yul\":17923:17944   */\n      tag_546\n        /* \"#utility.yul\":17938:17943   */\n      dup2\n        /* \"#utility.yul\":17923:17944   */\n      tag_322\n      jump\t// in\n    tag_546:\n        /* \"#utility.yul\":17918:17921   */\n      dup3\n        /* \"#utility.yul\":17911:17945   */\n      mstore\n        /* \"#utility.yul\":17842:17951   */\n      pop\n      pop\n      jump\t// out\n        /* \"#utility.yul\":17957:18167   */\n    tag_73:\n        /* \"#utility.yul\":18044:18048   */\n      0x00\n        /* \"#utility.yul\":18082:18084   */\n      0x20\n        /* \"#utility.yul\":18071:18080   */\n      dup3\n        /* \"#utility.yul\":18067:18085   */\n      add\n        /* \"#utility.yul\":18059:18085   */\n      swap1\n      pop\n        /* \"#utility.yul\":18095:18160   */\n      tag_548\n        /* \"#utility.yul\":18157:18158   */\n      0x00\n        /* \"#utility.yul\":18146:18155   */\n      dup4\n        /* \"#utility.yul\":18142:18159   */\n      add\n        /* \"#utility.yul\":18133:18139   */\n      dup5\n        /* \"#utility.yul\":18095:18160   */\n      tag_323\n      jump\t// in\n    tag_548:\n        /* \"#utility.yul\":17957:18167   */\n      swap3\n      swap2\n      pop\n      pop\n      jump\t// out\n        /* \"#utility.yul\":18173:18353   */\n    tag_324:\n        /* \"#utility.yul\":18221:18298   */\n      0x4e487b7100000000000000000000000000000000000000000000000000000000\n        /* \"#utility.yul\":18218:18219   */\n      0x00\n        /* \"#utility.yul\":18211:18299   */\n      mstore\n        /* \"#utility.yul\":18318:18322   */\n      0x22\n        /* \"#utility.yul\":18315:18316   */\n      0x04\n        /* \"#utility.yul\":18308:18323   */\n      mstore\n        /* \"#utility.yul\":18342:18346   */\n      0x24\n        /* \"#utility.yul\":18339:18340   */\n      0x00\n        /* \"#utility.yul\":18332:18347   */\n      revert\n        /* \"#utility.yul\":18359:18679   */\n    tag_85:\n        /* \"#utility.yul\":18403:18409   */\n      0x00\n        /* \"#utility.yul\":18440:18441   */\n      0x02\n        /* \"#utility.yul\":18434:18438   */\n      dup3\n        /* \"#utility.yul\":18430:18442   */\n      div\n        /* \"#utility.yul\":18420:18442   */\n      swap1\n      pop\n        /* \"#utility.yul\":18487:18488   */\n      0x01\n        /* \"#utility.yul\":18481:18485   */\n      dup3\n        /* \"#utility.yul\":18477:18489   */\n      and\n        /* \"#utility.yul\":18508:18526   */\n      dup1\n        /* \"#utility.yul\":18498:18579   */\n      tag_551\n      jumpi\n        /* \"#utility.yul\":18564:18568   */\n      0x7f\n        /* \"#utility.yul\":18556:18562   */\n      dup3\n        /* \"#utility.yul\":18552:18569   */\n      and\n        /* \"#utility.yul\":18542:18569   */\n      swap2\n      pop\n        /* \"#utility.yul\":18498:18579   */\n    tag_551:\n        /* \"#utility.yul\":18626:18628   */\n      0x20\n        /* \"#utility.yul\":18618:18624   */\n      dup3\n        /* \"#utility.yul\":18615:18629   */\n      lt\n        /* \"#utility.yul\":18595:18613   */\n      dup2\n        /* \"#utility.yul\":18592:18630   */\n      sub\n        /* \"#utility.yul\":18589:18673   */\n      tag_552\n      jumpi\n        /* \"#utility.yul\":18645:18663   */\n      tag_553\n      tag_324\n      jump\t// in\n    tag_553:\n        /* \"#utility.yul\":18589:18673   */\n    tag_552:\n        /* \"#utility.yul\":18410:18679   */\n      pop\n        /* \"#utility.yul\":18359:18679   */\n      swap2\n      swap1\n      pop\n      jump\t// out\n        /* \"#utility.yul\":18685:18862   */\n    tag_325:\n        /* \"#utility.yul\":18825:18854   */\n      0x507265736372697074696f6e20646f6573206e6f742065786973740000000000\n        /* \"#utility.yul\":18821:18822   */\n      0x00\n        /* \"#utility.yul\":18813:18819   */\n      dup3\n        /* \"#utility.yul\":18809:18823   */\n      add\n        /* \"#utility.yul\":18802:18855   */\n      mstore\n        /* \"#utility.yul\":18685:18862   */\n      pop\n      jump\t// out\n        /* \"#utility.yul\":18868:19234   */\n    tag_326:\n        /* \"#utility.yul\":19010:19013   */\n      0x00\n        /* \"#utility.yul\":19031:19098   */\n      tag_556\n        /* \"#utility.yul\":19095:19097   */\n      0x1b\n        /* \"#utility.yul\":19090:19093   */\n      dup4\n        /* \"#utility.yul\":19031:19098   */\n      tag_289\n      jump\t// in\n    tag_556:\n        /* \"#utility.yul\":19024:19098   */\n      swap2\n      pop\n        /* \"#utility.yul\":19107:19200   */\n      tag_557\n        /* \"#utility.yul\":19196:19199   */\n      dup3\n        /* \"#utility.yul\":19107:19200   */\n      tag_325\n      jump\t// in\n    tag_557:\n        /* \"#utility.yul\":19225:19227   */\n      0x20\n        /* \"#utility.yul\":19220:19223   */\n      dup3\n        /* \"#utility.yul\":19216:19228   */\n      add\n        /* \"#utility.yul\":19209:19228   */\n      swap1\n      pop\n        /* \"#utility.yul\":18868:19234   */\n      swap2\n      swap1\n      pop\n      jump\t// out\n        /* \"#utility.yul\":19240:19659   */\n    tag_100:\n        /* \"#utility.yul\":19406:19410   */\n      0x00\n        /* \"#utility.yul\":19444:19446   */\n      0x20\n        /* \"#utility.yul\":19433:19442   */\n      dup3\n        /* \"#utility.yul\":19429:19447   */\n      add\n        /* \"#utility.yul\":19421:19447   */\n      swap1\n      pop\n        /* \"#utility.yul\":19493:19502   */\n      dup2\n        /* \"#utility.yul\":19487:19491   */\n      dup2\n        /* \"#utility.yul\":19483:19503   */\n      sub\n        /* \"#utility.yul\":19479:19480   */\n      0x00\n        /* \"#utility.yul\":19468:19477   */\n      dup4\n        /* \"#utility.yul\":19464:19481   */\n      add\n        /* \"#utility.yul\":19457:19504   */\n      mstore\n        /* \"#utility.yul\":19521:19652   */\n      tag_559\n        /* \"#utility.yul\":19647:19651   */\n      dup2\n        /* \"#utility.yul\":19521:19652   */\n      tag_326\n      jump\t// in\n    tag_559:\n        /* \"#utility.yul\":19513:19652   */\n      swap1\n      pop\n        /* \"#utility.yul\":19240:19659   */\n      swap2\n      swap1\n      pop\n      jump\t// out\n        /* \"#utility.yul\":19665:19887   */\n    tag_118:\n        /* \"#utility.yul\":19758:19762   */\n      0x00\n        /* \"#utility.yul\":19796:19798   */\n      0x20\n        /* \"#utility.yul\":19785:19794   */\n      dup3\n        /* \"#utility.yul\":19781:19799   */\n      add\n        /* \"#utility.yul\":19773:19799   */\n      swap1\n      pop\n        /* \"#utility.yul\":19809:19880   */\n      tag_561\n        /* \"#utility.yul\":19877:19878   */\n      0x00\n        /* \"#utility.yul\":19866:19875   */\n      dup4\n        /* \"#utility.yul\":19862:19879   */\n      add\n        /* \"#utility.yul\":19853:19859   */\n      dup5\n        /* \"#utility.yul\":19809:19880   */\n      tag_287\n      jump\t// in\n    tag_561:\n        /* \"#utility.yul\":19665:19887   */\n      swap3\n      swap2\n      pop\n      pop\n      jump\t// out\n        /* \"#utility.yul\":19893:20009   */\n    tag_327:\n        /* \"#utility.yul\":19963:19984   */\n      tag_563\n        /* \"#utility.yul\":19978:19983   */\n      dup2\n        /* \"#utility.yul\":19963:19984   */\n      tag_322\n      jump\t// in\n    tag_563:\n        /* \"#utility.yul\":19956:19961   */\n      dup2\n        /* \"#utility.yul\":19953:19985   */\n      eq\n        /* \"#utility.yul\":19943:20003   */\n      tag_564\n      jumpi\n        /* \"#utility.yul\":19999:20000   */\n      0x00\n        /* \"#utility.yul\":19996:19997   */\n      0x00\n        /* \"#utility.yul\":19989:20001   */\n      revert\n        /* \"#utility.yul\":19943:20003   */\n    tag_564:\n        /* \"#utility.yul\":19893:20009   */\n      pop\n      jump\t// out\n        /* \"#utility.yul\":20015:20152   */\n    tag_328:\n        /* \"#utility.yul\":20069:20074   */\n      0x00\n        /* \"#utility.yul\":20100:20106   */\n      dup2\n        /* \"#utility.yul\":20094:20107   */\n      mload\n        /* \"#utility.yul\":20085:20107   */\n      swap1\n      pop\n        /* \"#utility.yul\":20116:20146   */\n      tag_566\n        /* \"#utility.yul\":20140:20145   */\n      dup2\n        /* \"#utility.yul\":20116:20146   */\n      tag_327\n      jump\t// in\n    tag_566:\n        /* \"#utility.yul\":20015:20152   */\n      swap3\n      swap2\n      pop\n      pop\n      jump\t// out\n        /* \"#utility.yul\":20158:20503   */\n    tag_122:\n        /* \"#utility.yul\":20225:20231   */\n      0x00\n        /* \"#utility.yul\":20274:20276   */\n      0x20\n        /* \"#utility.yul\":20262:20271   */\n      dup3\n        /* \"#utility.yul\":20253:20260   */\n      dup5\n        /* \"#utility.yul\":20249:20272   */\n      sub\n        /* \"#utility.yul\":20245:20277   */\n      slt\n        /* \"#utility.yul\":20242:20361   */\n      iszero\n      tag_568\n      jumpi\n        /* \"#utility.yul\":20280:20359   */\n      tag_569\n      tag_280\n      jump\t// in\n    tag_569:\n        /* \"#utility.yul\":20242:20361   */\n    tag_568:\n        /* \"#utility.yul\":20400:20401   */\n      0x00\n        /* \"#utility.yul\":20425:20486   */\n      tag_570\n        /* \"#utility.yul\":20478:20485   */\n      dup5\n        /* \"#utility.yul\":20469:20475   */\n      dup3\n        /* \"#utility.yul\":20458:20467   */\n      dup6\n        /* \"#utility.yul\":20454:20476   */\n      add\n        /* \"#utility.yul\":20425:20486   */\n      tag_328\n      jump\t// in\n    tag_570:\n        /* \"#utility.yul\":20415:20486   */\n      swap2\n      pop\n        /* \"#utility.yul\":20371:20496   */\n      pop\n        /* \"#utility.yul\":20158:20503   */\n      swap3\n      swap2\n      pop\n      pop\n      jump\t// out\n        /* \"#utility.yul\":20509:20681   */\n    tag_329:\n        /* \"#utility.yul\":20649:20673   */\n      0x50617469656e74206e6f74207265676973746572656400000000000000000000\n        /* \"#utility.yul\":20645:20646   */\n      0x00\n        /* \"#utility.yul\":20637:20643   */\n      dup3\n        /* \"#utility.yul\":20633:20647   */\n      add\n        /* \"#utility.yul\":20626:20674   */\n      mstore\n        /* \"#utility.yul\":20509:20681   */\n      pop\n      jump\t// out\n        /* \"#utility.yul\":20687:21053   */\n    tag_330:\n        /* \"#utility.yul\":20829:20832   */\n      0x00\n        /* \"#utility.yul\":20850:20917   */\n      tag_573\n        /* \"#utility.yul\":20914:20916   */\n      0x16\n        /* \"#utility.yul\":20909:20912   */\n      dup4\n        /* \"#utility.yul\":20850:20917   */\n      tag_289\n      jump\t// in\n    tag_573:\n        /* \"#utility.yul\":20843:20917   */\n      swap2\n      pop\n        /* \"#utility.yul\":20926:21019   */\n      tag_574\n        /* \"#utility.yul\":21015:21018   */\n      dup3\n        /* \"#utility.yul\":20926:21019   */\n      tag_329\n      jump\t// in\n    tag_574:\n        /* \"#utility.yul\":21044:21046   */\n      0x20\n        /* \"#utility.yul\":21039:21042   */\n      dup3\n        /* \"#utility.yul\":21035:21047   */\n      add\n        /* \"#utility.yul\":21028:21047   */\n      swap1\n      pop\n        /* \"#utility.yul\":20687:21053   */\n      swap2\n      swap1\n      pop\n      jump\t// out\n        /* \"#utility.yul\":21059:21478   */\n    tag_125:\n        /* \"#utility.yul\":21225:21229   */\n      0x00\n        /* \"#utility.yul\":21263:21265   */\n      0x20\n        /* \"#utility.yul\":21252:21261   */\n      dup3\n        /* \"#utility.yul\":21248:21266   */\n      add\n        /* \"#utility.yul\":21240:21266   */\n      swap1\n      pop\n        /* \"#utility.yul\":21312:21321   */\n      dup2\n        /* \"#utility.yul\":21306:21310   */\n      dup2\n        /* \"#utility.yul\":21302:21322   */\n      sub\n        /* \"#utility.yul\":21298:21299   */\n      0x00\n        /* \"#utility.yul\":21287:21296   */\n      dup4\n        /* \"#utility.yul\":21283:21300   */\n      add\n        /* \"#utility.yul\":21276:21323   */\n      mstore\n        /* \"#utility.yul\":21340:21471   */\n      tag_576\n        /* \"#utility.yul\":21466:21470   */\n      dup2\n        /* \"#utility.yul\":21340:21471   */\n      tag_330\n      jump\t// in\n    tag_576:\n        /* \"#utility.yul\":21332:21471   */\n      swap1\n      pop\n        /* \"#utility.yul\":21059:21478   */\n      swap2\n      swap1\n      pop\n      jump\t// out\n        /* \"#utility.yul\":21484:21816   */\n    tag_128:\n        /* \"#utility.yul\":21605:21609   */\n      0x00\n        /* \"#utility.yul\":21643:21645   */\n      0x40\n        /* \"#utility.yul\":21632:21641   */\n      dup3\n        /* \"#utility.yul\":21628:21646   */\n      add\n        /* \"#utility.yul\":21620:21646   */\n      swap1\n      pop\n        /* \"#utility.yul\":21656:21727   */\n      tag_578\n        /* \"#utility.yul\":21724:21725   */\n      0x00\n        /* \"#utility.yul\":21713:21722   */\n      dup4\n        /* \"#utility.yul\":21709:21726   */\n      add\n        /* \"#utility.yul\":21700:21706   */\n      dup6\n        /* \"#utility.yul\":21656:21727   */\n      tag_287\n      jump\t// in\n    tag_578:\n        /* \"#utility.yul\":21737:21809   */\n      tag_579\n        /* \"#utility.yul\":21805:21807   */\n      0x20\n        /* \"#utility.yul\":21794:21803   */\n      dup4\n        /* \"#utility.yul\":21790:21808   */\n      add\n        /* \"#utility.yul\":21781:21787   */\n      dup5\n        /* \"#utility.yul\":21737:21809   */\n      tag_287\n      jump\t// in\n    tag_579:\n        /* \"#utility.yul\":21484:21816   */\n      swap4\n      swap3\n      pop\n      pop\n      pop\n      jump\t// out\n        /* \"#utility.yul\":21822:22001   */\n    tag_331:\n        /* \"#utility.yul\":21962:21993   */\n      0x4e6f2076616c696420636f6e73656e742066726f6d2070617469656e74000000\n        /* \"#utility.yul\":21958:21959   */\n      0x00\n        /* \"#utility.yul\":21950:21956   */\n      dup3\n        /* \"#utility.yul\":21946:21960   */\n      add\n        /* \"#utility.yul\":21939:21994   */\n      mstore\n        /* \"#utility.yul\":21822:22001   */\n      pop\n      jump\t// out\n        /* \"#utility.yul\":22007:22373   */\n    tag_332:\n        /* \"#utility.yul\":22149:22152   */\n      0x00\n        /* \"#utility.yul\":22170:22237   */\n      tag_582\n        /* \"#utility.yul\":22234:22236   */\n      0x1d\n        /* \"#utility.yul\":22229:22232   */\n      dup4\n        /* \"#utility.yul\":22170:22237   */\n      tag_289\n      jump\t// in\n    tag_582:\n        /* \"#utility.yul\":22163:22237   */\n      swap2\n      pop\n        /* \"#utility.yul\":22246:22339   */\n      tag_583\n        /* \"#utility.yul\":22335:22338   */\n      dup3\n        /* \"#utility.yul\":22246:22339   */\n      tag_331\n      jump\t// in\n    tag_583:\n        /* \"#utility.yul\":22364:22366   */\n      0x20\n        /* \"#utility.yul\":22359:22362   */\n      dup3\n        /* \"#utility.yul\":22355:22367   */\n      add\n        /* \"#utility.yul\":22348:22367   */\n      swap1\n      pop\n        /* \"#utility.yul\":22007:22373   */\n      swap2\n      swap1\n      pop\n      jump\t// out\n        /* \"#utility.yul\":22379:22798   */\n    tag_134:\n        /* \"#utility.yul\":22545:22549   */\n      0x00\n        /* \"#utility.yul\":22583:22585   */\n      0x20\n        /* \"#utility.yul\":22572:22581   */\n      dup3\n        /* \"#utility.yul\":22568:22586   */\n      add\n        /* \"#utility.yul\":22560:22586   */\n      swap1\n      pop\n        /* \"#utility.yul\":22632:22641   */\n      dup2\n        /* \"#utility.yul\":22626:22630   */\n      dup2\n        /* \"#utility.yul\":22622:22642   */\n      sub\n        /* \"#utility.yul\":22618:22619   */\n      0x00\n        /* \"#utility.yul\":22607:22616   */\n      dup4\n        /* \"#utility.yul\":22603:22620   */\n      add\n        /* \"#utility.yul\":22596:22643   */\n      mstore\n        /* \"#utility.yul\":22660:22791   */\n      tag_585\n        /* \"#utility.yul\":22786:22790   */\n      dup2\n        /* \"#utility.yul\":22660:22791   */\n      tag_332\n      jump\t// in\n    tag_585:\n        /* \"#utility.yul\":22652:22791   */\n      swap1\n      pop\n        /* \"#utility.yul\":22379:22798   */\n      swap2\n      swap1\n      pop\n      jump\t// out\n        /* \"#utility.yul\":22804:22985   */\n    tag_333:\n        /* \"#utility.yul\":22944:22977   */\n      0x5265656e7472616e637947756172643a207265656e7472616e742063616c6c00\n        /* \"#utility.yul\":22940:22941   */\n      0x00\n        /* \"#utility.yul\":22932:22938   */\n      dup3\n        /* \"#utility.yul\":22928:22942   */\n      add\n        /* \"#utility.yul\":22921:22978   */\n      mstore\n        /* \"#utility.yul\":22804:22985   */\n      pop\n      jump\t// out\n        /* \"#utility.yul\":22991:23357   */\n    tag_334:\n        /* \"#utility.yul\":23133:23136   */\n      0x00\n        /* \"#utility.yul\":23154:23221   */\n      tag_588\n        /* \"#utility.yul\":23218:23220   */\n      0x1f\n        /* \"#utility.yul\":23213:23216   */\n      dup4\n        /* \"#utility.yul\":23154:23221   */\n      tag_289\n      jump\t// in\n    tag_588:\n        /* \"#utility.yul\":23147:23221   */\n      swap2\n      pop\n        /* \"#utility.yul\":23230:23323   */\n      tag_589\n        /* \"#utility.yul\":23319:23322   */\n      dup3\n        /* \"#utility.yul\":23230:23323   */\n      tag_333\n      jump\t// in\n    tag_589:\n        /* \"#utility.yul\":23348:23350   */\n      0x20\n        /* \"#utility.yul\":23343:23346   */\n      dup3\n        /* \"#utility.yul\":23339:23351   */\n      add\n        /* \"#utility.yul\":23332:23351   */\n      swap1\n      pop\n        /* \"#utility.yul\":22991:23357   */\n      swap2\n      swap1\n      pop\n      jump\t// out\n        /* \"#utility.yul\":23363:23782   */\n    tag_138:\n        /* \"#utility.yul\":23529:23533   */\n      0x00\n        /* \"#utility.yul\":23567:23569   */\n      0x20\n        /* \"#utility.yul\":23556:23565   */\n      dup3\n        /* \"#utility.yul\":23552:23570   */\n      add\n        /* \"#utility.yul\":23544:23570   */\n      swap1\n      pop\n        /* \"#utility.yul\":23616:23625   */\n      dup2\n        /* \"#utility.yul\":23610:23614   */\n      dup2\n        /* \"#utility.yul\":23606:23626   */\n      sub\n        /* \"#utility.yul\":23602:23603   */\n      0x00\n        /* \"#utility.yul\":23591:23600   */\n      dup4\n        /* \"#utility.yul\":23587:23604   */\n      add\n        /* \"#utility.yul\":23580:23627   */\n      mstore\n        /* \"#utility.yul\":23644:23775   */\n      tag_591\n        /* \"#utility.yul\":23770:23774   */\n      dup2\n        /* \"#utility.yul\":23644:23775   */\n      tag_334\n      jump\t// in\n    tag_591:\n        /* \"#utility.yul\":23636:23775   */\n      swap1\n      pop\n        /* \"#utility.yul\":23363:23782   */\n      swap2\n      swap1\n      pop\n      jump\t// out\n        /* \"#utility.yul\":23788:23964   */\n    tag_335:\n        /* \"#utility.yul\":23928:23956   */\n      0x446961676e6f7369732064657461696c73207265717569726564000000000000\n        /* \"#utility.yul\":23924:23925   */\n      0x00\n        /* \"#utility.yul\":23916:23922   */\n      dup3\n        /* \"#utility.yul\":23912:23926   */\n      add\n        /* \"#utility.yul\":23905:23957   */\n      mstore\n        /* \"#utility.yul\":23788:23964   */\n      pop\n      jump\t// out\n        /* \"#utility.yul\":23970:24336   */\n    tag_336:\n        /* \"#utility.yul\":24112:24115   */\n      0x00\n        /* \"#utility.yul\":24133:24200   */\n      tag_594\n        /* \"#utility.yul\":24197:24199   */\n      0x1a\n        /* \"#utility.yul\":24192:24195   */\n      dup4\n        /* \"#utility.yul\":24133:24200   */\n      tag_289\n      jump\t// in\n    tag_594:\n        /* \"#utility.yul\":24126:24200   */\n      swap2\n      pop\n        /* \"#utility.yul\":24209:24302   */\n      tag_595\n        /* \"#utility.yul\":24298:24301   */\n      dup3\n        /* \"#utility.yul\":24209:24302   */\n      tag_335\n      jump\t// in\n    tag_595:\n        /* \"#utility.yul\":24327:24329   */\n      0x20\n        /* \"#utility.yul\":24322:24325   */\n      dup3\n        /* \"#utility.yul\":24318:24330   */\n      add\n        /* \"#utility.yul\":24311:24330   */\n      swap1\n      pop\n        /* \"#utility.yul\":23970:24336   */\n      swap2\n      swap1\n      pop\n      jump\t// out\n        /* \"#utility.yul\":24342:24761   */\n    tag_142:\n        /* \"#utility.yul\":24508:24512   */\n      0x00\n        /* \"#utility.yul\":24546:24548   */\n      0x20\n        /* \"#utility.yul\":24535:24544   */\n      dup3\n        /* \"#utility.yul\":24531:24549   */\n      add\n        /* \"#utility.yul\":24523:24549   */\n      swap1\n      pop\n        /* \"#utility.yul\":24595:24604   */\n      dup2\n        /* \"#utility.yul\":24589:24593   */\n      dup2\n        /* \"#utility.yul\":24585:24605   */\n      sub\n        /* \"#utility.yul\":24581:24582   */\n      0x00\n        /* \"#utility.yul\":24570:24579   */\n      dup4\n        /* \"#utility.yul\":24566:24583   */\n      add\n        /* \"#utility.yul\":24559:24606   */\n      mstore\n        /* \"#utility.yul\":24623:24754   */\n      tag_597\n        /* \"#utility.yul\":24749:24753   */\n      dup2\n        /* \"#utility.yul\":24623:24754   */\n      tag_336\n      jump\t// in\n    tag_597:\n        /* \"#utility.yul\":24615:24754   */\n      swap1\n      pop\n        /* \"#utility.yul\":24342:24761   */\n      swap2\n      swap1\n      pop\n      jump\t// out\n        /* \"#utility.yul\":24767:24947   */\n    tag_337:\n        /* \"#utility.yul\":24815:24892   */\n      0x4e487b7100000000000000000000000000000000000000000000000000000000\n        /* \"#utility.yul\":24812:24813   */\n      0x00\n        /* \"#utility.yul\":24805:24893   */\n      mstore\n        /* \"#utility.yul\":24912:24916   */\n      0x11\n        /* \"#utility.yul\":24909:24910   */\n      0x04\n        /* \"#utility.yul\":24902:24917   */\n      mstore\n        /* \"#utility.yul\":24936:24940   */\n      0x24\n        /* \"#utility.yul\":24933:24934   */\n      0x00\n        /* \"#utility.yul\":24926:24941   */\n      revert\n        /* \"#utility.yul\":24953:25186   */\n    tag_144:\n        /* \"#utility.yul\":24992:24995   */\n      0x00\n        /* \"#utility.yul\":25015:25039   */\n      tag_600\n        /* \"#utility.yul\":25033:25038   */\n      dup3\n        /* \"#utility.yul\":25015:25039   */\n      tag_282\n      jump\t// in\n    tag_600:\n        /* \"#utility.yul\":25006:25039   */\n      swap2\n      pop\n        /* \"#utility.yul\":25061:25127   */\n      0xffffffffffffffffffffffffffffffffffffffffffffffffffffffffffffffff\n        /* \"#utility.yul\":25054:25059   */\n      dup3\n        /* \"#utility.yul\":25051:25128   */\n      sub\n        /* \"#utility.yul\":25048:25151   */\n      tag_601\n      jumpi\n        /* \"#utility.yul\":25131:25149   */\n      tag_602\n      tag_337\n      jump\t// in\n    tag_602:\n        /* \"#utility.yul\":25048:25151   */\n    tag_601:\n        /* \"#utility.yul\":25178:25179   */\n      0x01\n        /* \"#utility.yul\":25171:25176   */\n      dup3\n        /* \"#utility.yul\":25167:25180   */\n      add\n        /* \"#utility.yul\":25160:25180   */\n      swap1\n      pop\n        /* \"#utility.yul\":24953:25186   */\n      swap2\n      swap1\n      pop\n      jump\t// out\n        /* \"#utility.yul\":25192:25333   */\n    tag_338:\n        /* \"#utility.yul\":25241:25245   */\n      0x00\n        /* \"#utility.yul\":25264:25267   */\n      dup2\n        /* \"#utility.yul\":25256:25267   */\n      swap1\n      pop\n        /* \"#utility.yul\":25287:25290   */\n      dup2\n        /* \"#utility.yul\":25284:25285   */\n      0x00\n        /* \"#utility.yul\":25277:25291   */\n      mstore\n        /* \"#utility.yul\":25321:25325   */\n      0x20\n        /* \"#utility.yul\":25318:25319   */\n      0x00\n        /* \"#utility.yul\":25308:25326   */\n      keccak256\n        /* \"#utility.yul\":25300:25326   */\n      swap1\n      pop\n        /* \"#utility.yul\":25192:25333   */\n      swap2\n      swap1\n      pop\n      jump\t// out\n        /* \"#utility.yul\":25339:25432   */\n    tag_339:\n        /* \"#utility.yul\":25376:25382   */\n      0x00\n        /* \"#utility.yul\":25423:25425   */\n      0x20\n        /* \"#utility.yul\":25418:25420   */\n      0x1f\n        /* \"#utility.yul\":25411:25416   */\n      dup4\n        /* \"#utility.yul\":25407:25421   */\n      add\n        /* \"#utility.yul\":25403:25426   */\n      div\n        /* \"#utility.yul\":25393:25426   */\n      swap1\n      pop\n        /* \"#utility.yul\":25339:25432   */\n      swap2\n      swap1\n      pop\n      jump\t// out\n        /* \"#utility.yul\":25438:25545   */\n    tag_340:\n        /* \"#utility.yul\":25482:25490   */\n      0x00\n        /* \"#utility.yul\":25532:25537   */\n      dup3\n        /* \"#utility.yul\":25526:25530   */\n      dup3\n        /* \"#utility.yul\":25522:25538   */\n      shl\n        /* \"#utility.yul\":25501:25538   */\n      swap1\n      pop\n        /* \"#utility.yul\":25438:25545   */\n      swap3\n      swap2\n      pop\n      pop\n      jump\t// out\n        /* \"#utility.yul\":25551:25944   */\n    tag_341:\n        /* \"#utility.yul\":25620:25626   */\n      0x00\n        /* \"#utility.yul\":25670:25671   */\n      0x08\n        /* \"#utility.yul\":25658:25668   */\n      dup4\n        /* \"#utility.yul\":25654:25672   */\n      mul\n        /* \"#utility.yul\":25693:25790   */\n      tag_607\n        /* \"#utility.yul\":25723:25789   */\n      0xffffffffffffffffffffffffffffffffffffffffffffffffffffffffffffffff\n        /* \"#utility.yul\":25712:25721   */\n      dup3\n        /* \"#utility.yul\":25693:25790   */\n      tag_340\n      jump\t// in\n    tag_607:\n        /* \"#utility.yul\":25811:25850   */\n      tag_608\n        /* \"#utility.yul\":25841:25849   */\n      dup7\n        /* \"#utility.yul\":25830:25839   */\n      dup4\n        /* \"#utility.yul\":25811:25850   */\n      tag_340\n      jump\t// in\n    tag_608:\n        /* \"#utility.yul\":25799:25850   */\n      swap6\n      pop\n        /* \"#utility.yul\":25883:25887   */\n      dup1\n        /* \"#utility.yul\":25879:25888   */\n      not\n        /* \"#utility.yul\":25872:25877   */\n      dup5\n        /* \"#utility.yul\":25868:25889   */\n      and\n        /* \"#utility.yul\":25859:25889   */\n      swap4\n      pop\n        /* \"#utility.yul\":25932:25936   */\n      dup1\n        /* \"#utility.yul\":25922:25930   */\n      dup7\n        /* \"#utility.yul\":25918:25937   */\n      and\n        /* \"#utility.yul\":25911:25916   */\n      dup5\n        /* \"#utility.yul\":25908:25938   */\n      or\n        /* \"#utility.yul\":25898:25938   */\n      swap3\n      pop\n        /* \"#utility.yul\":25627:25944   */\n      pop\n      pop\n        /* \"#utility.yul\":25551:25944   */\n      swap4\n      swap3\n      pop\n      pop\n      pop\n      jump\t// out\n        /* \"#utility.yul\":25950:26092   */\n    tag_342:\n        /* \"#utility.yul\":26000:26009   */\n      0x00\n        /* \"#utility.yul\":26033:26086   */\n      tag_610\n        /* \"#utility.yul\":26051:26085   */\n      tag_611\n        /* \"#utility.yul\":26060:26084   */\n      tag_612\n        /* \"#utility.yul\":26078:26083   */\n      dup5\n        /* \"#utility.yul\":26060:26084   */\n      tag_282\n      jump\t// in\n    tag_612:\n        /* \"#utility.yul\":26051:26085   */\n      tag_274\n      jump\t// in\n    tag_611:\n        /* \"#utility.yul\":26033:26086   */\n      tag_282\n      jump\t// in\n    tag_610:\n        /* \"#utility.yul\":26020:26086   */\n      swap1\n      pop\n        /* \"#utility.yul\":25950:26092   */\n      swap2\n      swap1\n      pop\n      jump\t// out\n        /* \"#utility.yul\":26098:26173   */\n    tag_343:\n        /* \"#utility.yul\":26141:26144   */\n      0x00\n        /* \"#utility.yul\":26162:26167   */\n      dup2\n        /* \"#utility.yul\":26155:26167   */\n      swap1\n      pop\n        /* \"#utility.yul\":26098:26173   */\n      swap2\n      swap1\n      pop\n      jump\t// out\n        /* \"#utility.yul\":26179:26448   */\n    tag_344:\n        /* \"#utility.yul\":26289:26328   */\n      tag_615\n        /* \"#utility.yul\":26320:26327   */\n      dup4\n        /* \"#utility.yul\":26289:26328   */\n      tag_342\n      jump\t// in\n    tag_615:\n        /* \"#utility.yul\":26350:26441   */\n      tag_616\n        /* \"#utility.yul\":26399:26440   */\n      tag_617\n        /* \"#utility.yul\":26423:26439   */\n      dup3\n        /* \"#utility.yul\":26399:26440   */\n      tag_343\n      jump\t// in\n    tag_617:\n        /* \"#utility.yul\":26391:26397   */\n      dup5\n        /* \"#utility.yul\":26384:26388   */\n      dup5\n        /* \"#utility.yul\":26378:26389   */\n      sload\n        /* \"#utility.yul\":26350:26441   */\n      tag_341\n      jump\t// in\n    tag_616:\n        /* \"#utility.yul\":26344:26348   */\n      dup3\n        /* \"#utility.yul\":26337:26442   */\n      sstore\n        /* \"#utility.yul\":26255:26448   */\n      pop\n        /* \"#utility.yul\":26179:26448   */\n      pop\n      pop\n      pop\n      jump\t// out\n        /* \"#utility.yul\":26454:26527   */\n    tag_345:\n        /* \"#utility.yul\":26499:26502   */\n      0x00\n        /* \"#utility.yul\":26520:26521   */\n      0x00\n        /* \"#utility.yul\":26513:26521   */\n      swap1\n      pop\n        /* \"#utility.yul\":26454:26527   */\n      swap1\n      jump\t// out\n        /* \"#utility.yul\":26533:26722   */\n    tag_346:\n        /* \"#utility.yul\":26610:26642   */\n      tag_620\n      tag_345\n      jump\t// in\n    tag_620:\n        /* \"#utility.yul\":26651:26716   */\n      tag_621\n        /* \"#utility.yul\":26709:26715   */\n      dup2\n        /* \"#utility.yul\":26701:26707   */\n      dup5\n        /* \"#utility.yul\":26695:26699   */\n      dup5\n        /* \"#utility.yul\":26651:26716   */\n      tag_344\n      jump\t// in\n    tag_621:\n        /* \"#utility.yul\":26586:26722   */\n      pop\n        /* \"#utility.yul\":26533:26722   */\n      pop\n      pop\n      jump\t// out\n        /* \"#utility.yul\":26728:26942   */\n    tag_347:\n        /* \"#utility.yul\":26813:26814   */\n      0x00\n        /* \"#utility.yul\":26798:26936   */\n    tag_623:\n        /* \"#utility.yul\":26823:26832   */\n      dup3\n        /* \"#utility.yul\":26820:26821   */\n      dup2\n        /* \"#utility.yul\":26817:26833   */\n      lt\n        /* \"#utility.yul\":26798:26936   */\n      iszero\n      tag_625\n      jumpi\n        /* \"#utility.yul\":26875:26926   */\n      tag_626\n        /* \"#utility.yul\":26924:26925   */\n      0x00\n        /* \"#utility.yul\":26920:26921   */\n      dup3\n        /* \"#utility.yul\":26909:26918   */\n      dup5\n        /* \"#utility.yul\":26905:26922   */\n      add\n        /* \"#utility.yul\":26875:26926   */\n      tag_346\n      jump\t// in\n    tag_626:\n        /* \"#utility.yul\":26848:26849   */\n      0x01\n        /* \"#utility.yul\":26845:26846   */\n      dup2\n        /* \"#utility.yul\":26841:26850   */\n      add\n        /* \"#utility.yul\":26836:26850   */\n      swap1\n      pop\n        /* \"#utility.yul\":26798:26936   */\n      jump(tag_623)\n    tag_625:\n        /* \"#utility.yul\":26802:26816   */\n      pop\n        /* \"#utility.yul\":26728:26942   */\n      pop\n      pop\n      jump\t// out\n        /* \"#utility.yul\":26948:27694   */\n    tag_348:\n        /* \"#utility.yul\":27049:27051   */\n      0x1f\n        /* \"#utility.yul\":27044:27047   */\n      dup3\n        /* \"#utility.yul\":27041:27052   */\n      gt\n        /* \"#utility.yul\":27038:27687   */\n      iszero\n      tag_628\n      jumpi\n        /* \"#utility.yul\":27078:27088   */\n      dup3\n        /* \"#utility.yul\":27073:27076   */\n      dup3\n        /* \"#utility.yul\":27070:27089   */\n      gt\n        /* \"#utility.yul\":27067:27677   */\n      iszero\n      tag_629\n      jumpi\n        /* \"#utility.yul\":27124:27162   */\n      tag_630\n        /* \"#utility.yul\":27156:27161   */\n      dup2\n        /* \"#utility.yul\":27124:27162   */\n      tag_338\n      jump\t// in\n    tag_630:\n        /* \"#utility.yul\":27199:27221   */\n      tag_631\n        /* \"#utility.yul\":27217:27220   */\n      dup4\n        /* \"#utility.yul\":27199:27221   */\n      tag_339\n      jump\t// in\n    tag_631:\n        /* \"#utility.yul\":27258:27287   */\n      tag_632\n        /* \"#utility.yul\":27276:27286   */\n      dup6\n        /* \"#utility.yul\":27258:27287   */\n      tag_339\n      jump\t// in\n    tag_632:\n        /* \"#utility.yul\":27448:27450   */\n      0x20\n        /* \"#utility.yul\":27436:27446   */\n      dup7\n        /* \"#utility.yul\":27433:27451   */\n      lt\n        /* \"#utility.yul\":27430:27509   */\n      iszero\n      tag_633\n      jumpi\n        /* \"#utility.yul\":27490:27491   */\n      0x00\n        /* \"#utility.yul\":27474:27491   */\n      swap1\n      pop\n        /* \"#utility.yul\":27430:27509   */\n    tag_633:\n        /* \"#utility.yul\":27559:27571   */\n      dup1\n        /* \"#utility.yul\":27549:27557   */\n      dup4\n        /* \"#utility.yul\":27545:27572   */\n      add\n        /* \"#utility.yul\":27589:27663   */\n      tag_634\n        /* \"#utility.yul\":27649:27661   */\n      dup3\n        /* \"#utility.yul\":27635:27647   */\n      dup5\n        /* \"#utility.yul\":27631:27662   */\n      sub\n        /* \"#utility.yul\":27618:27629   */\n      dup3\n        /* \"#utility.yul\":27589:27663   */\n      tag_347\n      jump\t// in\n    tag_634:\n        /* \"#utility.yul\":27090:27677   */\n      pop\n      pop\n      pop\n      pop\n        /* \"#utility.yul\":27067:27677   */\n    tag_629:\n        /* \"#utility.yul\":27038:27687   */\n    tag_628:\n        /* \"#utility.yul\":26948:27694   */\n      pop\n      pop\n      pop\n      jump\t// out\n        /* \"#utility.yul\":27700:27817   */\n    tag_349:\n        /* \"#utility.yul\":27754:27762   */\n      0x00\n        /* \"#utility.yul\":27804:27809   */\n      dup3\n        /* \"#utility.yul\":27798:27802   */\n      dup3\n        /* \"#utility.yul\":27794:27810   */\n      shr\n        /* \"#utility.yul\":27773:27810   */\n      swap1\n      pop\n        /* \"#utility.yul\":27700:27817   */\n      swap3\n      swap2\n      pop\n      pop\n      jump\t// out\n        /* \"#utility.yul\":27823:27992   */\n    tag_350:\n        /* \"#utility.yul\":27867:27873   */\n      0x00\n        /* \"#utility.yul\":27900:27951   */\n      tag_637\n        /* \"#utility.yul\":27948:27949   */\n      0x00\n        /* \"#utility.yul\":27944:27950   */\n      not\n        /* \"#utility.yul\":27936:27941   */\n      dup5\n        /* \"#utility.yul\":27933:27934   */\n      0x08\n        /* \"#utility.yul\":27929:27942   */\n      mul\n        /* \"#utility.yul\":27900:27951   */\n      tag_349\n      jump\t// in\n    tag_637:\n        /* \"#utility.yul\":27896:27952   */\n      not\n        /* \"#utility.yul\":27981:27985   */\n      dup1\n        /* \"#utility.yul\":27975:27979   */\n      dup4\n        /* \"#utility.yul\":27971:27986   */\n      and\n        /* \"#utility.yul\":27961:27986   */\n      swap2\n      pop\n        /* \"#utility.yul\":27874:27992   */\n      pop\n        /* \"#utility.yul\":27823:27992   */\n      swap3\n      swap2\n      pop\n      pop\n      jump\t// out\n        /* \"#utility.yul\":27997:28292   */\n    tag_351:\n        /* \"#utility.yul\":28073:28077   */\n      0x00\n        /* \"#utility.yul\":28219:28248   */\n      tag_639\n        /* \"#utility.yul\":28244:28247   */\n      dup4\n        /* \"#utility.yul\":28238:28242   */\n      dup4\n        /* \"#utility.yul\":28219:28248   */\n      tag_350\n      jump\t// in\n    tag_639:\n        /* \"#utility.yul\":28211:28248   */\n      swap2\n      pop\n        /* \"#utility.yul\":28281:28284   */\n      dup3\n        /* \"#utility.yul\":28278:28279   */\n      0x02\n        /* \"#utility.yul\":28274:28285   */\n      mul\n        /* \"#utility.yul\":28268:28272   */\n      dup3\n        /* \"#utility.yul\":28265:28286   */\n      or\n        /* \"#utility.yul\":28257:28286   */\n      swap1\n      pop\n        /* \"#utility.yul\":27997:28292   */\n      swap3\n      swap2\n      pop\n      pop\n      jump\t// out\n        /* \"#utility.yul\":28297:29692   */\n    tag_146:\n        /* \"#utility.yul\":28414:28451   */\n      tag_641\n        /* \"#utility.yul\":28447:28450   */\n      dup3\n        /* \"#utility.yul\":28414:28451   */\n      tag_288\n      jump\t// in\n    tag_641:\n        /* \"#utility.yul\":28516:28534   */\n      0xffffffffffffffff\n        /* \"#utility.yul\":28508:28514   */\n      dup2\n        /* \"#utility.yul\":28505:28535   */\n      gt\n        /* \"#utility.yul\":28502:28558   */\n      iszero\n      tag_642\n      jumpi\n        /* \"#utility.yul\":28538:28556   */\n      tag_643\n      tag_309\n      jump\t// in\n    tag_643:\n        /* \"#utility.yul\":28502:28558   */\n    tag_642:\n        /* \"#utility.yul\":28582:28620   */\n      tag_644\n        /* \"#utility.yul\":28614:28618   */\n      dup3\n        /* \"#utility.yul\":28608:28619   */\n      sload\n        /* \"#utility.yul\":28582:28620   */\n      tag_85\n      jump\t// in\n    tag_644:\n        /* \"#utility.yul\":28667:28734   */\n      tag_645\n        /* \"#utility.yul\":28727:28733   */\n      dup3\n        /* \"#utility.yul\":28719:28725   */\n      dup3\n        /* \"#utility.yul\":28713:28717   */\n      dup6\n        /* \"#utility.yul\":28667:28734   */\n      tag_348\n      jump\t// in\n    tag_645:\n        /* \"#utility.yul\":28761:28762   */\n      0x00\n        /* \"#utility.yul\":28785:28789   */\n      0x20\n        /* \"#utility.yul\":28772:28789   */\n      swap1\n      pop\n        /* \"#utility.yul\":28817:28819   */\n      0x1f\n        /* \"#utility.yul\":28809:28815   */\n      dup4\n        /* \"#utility.yul\":28806:28820   */\n      gt\n        /* \"#utility.yul\":28834:28835   */\n      0x01\n        /* \"#utility.yul\":28829:29447   */\n      dup2\n      eq\n      tag_647\n      jumpi\n        /* \"#utility.yul\":29491:29492   */\n      0x00\n        /* \"#utility.yul\":29508:29514   */\n      dup5\n        /* \"#utility.yul\":29505:29582   */\n      iszero\n      tag_648\n      jumpi\n        /* \"#utility.yul\":29557:29566   */\n      dup3\n        /* \"#utility.yul\":29552:29555   */\n      dup8\n        /* \"#utility.yul\":29548:29567   */\n      add\n        /* \"#utility.yul\":29542:29568   */\n      mload\n        /* \"#utility.yul\":29533:29568   */\n      swap1\n      pop\n        /* \"#utility.yul\":29505:29582   */\n    tag_648:\n        /* \"#utility.yul\":29608:29675   */\n      tag_649\n        /* \"#utility.yul\":29668:29674   */\n      dup6\n        /* \"#utility.yul\":29661:29666   */\n      dup3\n        /* \"#utility.yul\":29608:29675   */\n      tag_351\n      jump\t// in\n    tag_649:\n        /* \"#utility.yul\":29602:29606   */\n      dup7\n        /* \"#utility.yul\":29595:29676   */\n      sstore\n        /* \"#utility.yul\":29464:29686   */\n      pop\n        /* \"#utility.yul\":28799:29686   */\n      jump(tag_646)\n        /* \"#utility.yul\":28829:29447   */\n    tag_647:\n        /* \"#utility.yul\":28881:28885   */\n      0x1f\n        /* \"#utility.yul\":28877:28886   */\n      not\n        /* \"#utility.yul\":28869:28875   */\n      dup5\n        /* \"#utility.yul\":28865:28887   */\n      and\n        /* \"#utility.yul\":28915:28952   */\n      tag_650\n        /* \"#utility.yul\":28947:28951   */\n      dup7\n        /* \"#utility.yul\":28915:28952   */\n      tag_338\n      jump\t// in\n    tag_650:\n        /* \"#utility.yul\":28974:28975   */\n      0x00\n        /* \"#utility.yul\":28988:29196   */\n    tag_651:\n        /* \"#utility.yul\":29002:29009   */\n      dup3\n        /* \"#utility.yul\":28999:29000   */\n      dup2\n        /* \"#utility.yul\":28996:29010   */\n      lt\n        /* \"#utility.yul\":28988:29196   */\n      iszero\n      tag_653\n      jumpi\n        /* \"#utility.yul\":29081:29090   */\n      dup5\n        /* \"#utility.yul\":29076:29079   */\n      dup10\n        /* \"#utility.yul\":29072:29091   */\n      add\n        /* \"#utility.yul\":29066:29092   */\n      mload\n        /* \"#utility.yul\":29058:29064   */\n      dup3\n        /* \"#utility.yul\":29051:29093   */\n      sstore\n        /* \"#utility.yul\":29132:29133   */\n      0x01\n        /* \"#utility.yul\":29124:29130   */\n      dup3\n        /* \"#utility.yul\":29120:29134   */\n      add\n        /* \"#utility.yul\":29110:29134   */\n      swap2\n      pop\n        /* \"#utility.yul\":29179:29181   */\n      0x20\n        /* \"#utility.yul\":29168:29177   */\n      dup6\n        /* \"#utility.yul\":29164:29182   */\n      add\n        /* \"#utility.yul\":29151:29182   */\n      swap5\n      pop\n        /* \"#utility.yul\":29025:29029   */\n      0x20\n        /* \"#utility.yul\":29022:29023   */\n      dup2\n        /* \"#utility.yul\":29018:29030   */\n      add\n        /* \"#utility.yul\":29013:29030   */\n      swap1\n      pop\n        /* \"#utility.yul\":28988:29196   */\n      jump(tag_651)\n    tag_653:\n        /* \"#utility.yul\":29224:29230   */\n      dup7\n        /* \"#utility.yul\":29215:29222   */\n      dup4\n        /* \"#utility.yul\":29212:29231   */\n      lt\n        /* \"#utility.yul\":29209:29388   */\n      iszero\n      tag_654\n      jumpi\n        /* \"#utility.yul\":29282:29291   */\n      dup5\n        /* \"#utility.yul\":29277:29280   */\n      dup10\n        /* \"#utility.yul\":29273:29292   */\n      add\n        /* \"#utility.yul\":29267:29293   */\n      mload\n        /* \"#utility.yul\":29325:29373   */\n      tag_655\n        /* \"#utility.yul\":29367:29371   */\n      0x1f\n        /* \"#utility.yul\":29359:29365   */\n      dup10\n        /* \"#utility.yul\":29355:29372   */\n      and\n        /* \"#utility.yul\":29344:29353   */\n      dup3\n        /* \"#utility.yul\":29325:29373   */\n      tag_350\n      jump\t// in\n    tag_655:\n        /* \"#utility.yul\":29317:29323   */\n      dup4\n        /* \"#utility.yul\":29310:29374   */\n      sstore\n        /* \"#utility.yul\":29232:29388   */\n      pop\n        /* \"#utility.yul\":29209:29388   */\n    tag_654:\n        /* \"#utility.yul\":29434:29435   */\n      0x01\n        /* \"#utility.yul\":29430:29431   */\n      0x02\n        /* \"#utility.yul\":29422:29428   */\n      dup9\n        /* \"#utility.yul\":29418:29432   */\n      mul\n        /* \"#utility.yul\":29414:29436   */\n      add\n        /* \"#utility.yul\":29408:29412   */\n      dup9\n        /* \"#utility.yul\":29401:29437   */\n      sstore\n        /* \"#utility.yul\":28836:29447   */\n      pop\n      pop\n      pop\n        /* \"#utility.yul\":28799:29686   */\n    tag_646:\n      pop\n        /* \"#utility.yul\":28389:29692   */\n      pop\n      pop\n      pop\n        /* \"#utility.yul\":28297:29692   */\n      pop\n      pop\n      jump\t// out\n        /* \"#utility.yul\":29698:29875   */\n    tag_352:\n        /* \"#utility.yul\":29838:29867   */\n      0x4d656469636174696f6e2064657461696c732072657175697265640000000000\n        /* \"#utility.yul\":29834:29835   */\n      0x00\n        /* \"#utility.yul\":29826:29832   */\n      dup3\n        /* \"#utility.yul\":29822:29836   */\n      add\n        /* \"#utility.yul\":29815:29868   */\n      mstore\n        /* \"#utility.yul\":29698:29875   */\n      pop\n      jump\t// out\n        /* \"#utility.yul\":29881:30247   */\n    tag_353:\n        /* \"#utility.yul\":30023:30026   */\n      0x00\n        /* \"#utility.yul\":30044:30111   */\n      tag_658\n        /* \"#utility.yul\":30108:30110   */\n      0x1b\n        /* \"#utility.yul\":30103:30106   */\n      dup4\n        /* \"#utility.yul\":30044:30111   */\n      tag_289\n      jump\t// in\n    tag_658:\n        /* \"#utility.yul\":30037:30111   */\n      swap2\n      pop\n        /* \"#utility.yul\":30120:30213   */\n      tag_659\n        /* \"#utility.yul\":30209:30212   */\n      dup3\n        /* \"#utility.yul\":30120:30213   */\n      tag_352\n      jump\t// in\n    tag_659:\n        /* \"#utility.yul\":30238:30240   */\n      0x20\n        /* \"#utility.yul\":30233:30236   */\n      dup3\n        /* \"#utility.yul\":30229:30241   */\n      add\n        /* \"#utility.yul\":30222:30241   */\n      swap1\n      pop\n        /* \"#utility.yul\":29881:30247   */\n      swap2\n      swap1\n      pop\n      jump\t// out\n        /* \"#utility.yul\":30253:30672   */\n    tag_170:\n        /* \"#utility.yul\":30419:30423   */\n      0x00\n        /* \"#utility.yul\":30457:30459   */\n      0x20\n        /* \"#utility.yul\":30446:30455   */\n      dup3\n        /* \"#utility.yul\":30442:30460   */\n      add\n        /* \"#utility.yul\":30434:30460   */\n      swap1\n      pop\n        /* \"#utility.yul\":30506:30515   */\n      dup2\n        /* \"#utility.yul\":30500:30504   */\n      dup2\n        /* \"#utility.yul\":30496:30516   */\n      sub\n        /* \"#utility.yul\":30492:30493   */\n      0x00\n        /* \"#utility.yul\":30481:30490   */\n      dup4\n        /* \"#utility.yul\":30477:30494   */\n      add\n        /* \"#utility.yul\":30470:30517   */\n      mstore\n        /* \"#utility.yul\":30534:30665   */\n      tag_661\n        /* \"#utility.yul\":30660:30664   */\n      dup2\n        /* \"#utility.yul\":30534:30665   */\n      tag_353\n      jump\t// in\n    tag_661:\n        /* \"#utility.yul\":30526:30665   */\n      swap1\n      pop\n        /* \"#utility.yul\":30253:30672   */\n      swap2\n      swap1\n      pop\n      jump\t// out\n        /* \"#utility.yul\":30678:31088   */\n    tag_173:\n        /* \"#utility.yul\":30718:30725   */\n      0x00\n        /* \"#utility.yul\":30741:30761   */\n      tag_663\n        /* \"#utility.yul\":30759:30760   */\n      dup3\n        /* \"#utility.yul\":30741:30761   */\n      tag_282\n      jump\t// in\n    tag_663:\n        /* \"#utility.yul\":30736:30761   */\n      swap2\n      pop\n        /* \"#utility.yul\":30775:30795   */\n      tag_664\n        /* \"#utility.yul\":30793:30794   */\n      dup4\n        /* \"#utility.yul\":30775:30795   */\n      tag_282\n      jump\t// in\n    tag_664:\n        /* \"#utility.yul\":30770:30795   */\n      swap3\n      pop\n        /* \"#utility.yul\":30830:30831   */\n      dup3\n        /* \"#utility.yul\":30827:30828   */\n      dup3\n        /* \"#utility.yul\":30823:30832   */\n      mul\n        /* \"#utility.yul\":30852:30882   */\n      tag_665\n        /* \"#utility.yul\":30870:30881   */\n      dup2\n        /* \"#utility.yul\":30852:30882   */\n      tag_282\n      jump\t// in\n    tag_665:\n        /* \"#utility.yul\":30841:30882   */\n      swap2\n      pop\n        /* \"#utility.yul\":31031:31032   */\n      dup3\n        /* \"#utility.yul\":31022:31029   */\n      dup3\n        /* \"#utility.yul\":31018:31033   */\n      div\n        /* \"#utility.yul\":31015:31016   */\n      dup5\n        /* \"#utility.yul\":31012:31034   */\n      eq\n        /* \"#utility.yul\":30992:30993   */\n      dup4\n        /* \"#utility.yul\":30985:30994   */\n      iszero\n        /* \"#utility.yul\":30965:31048   */\n      or\n        /* \"#utility.yul\":30942:31081   */\n      tag_666\n      jumpi\n        /* \"#utility.yul\":31061:31079   */\n      tag_667\n      tag_337\n      jump\t// in\n    tag_667:\n        /* \"#utility.yul\":30942:31081   */\n    tag_666:\n        /* \"#utility.yul\":30726:31088   */\n      pop\n        /* \"#utility.yul\":30678:31088   */\n      swap3\n      swap2\n      pop\n      pop\n      jump\t// out\n        /* \"#utility.yul\":31094:31285   */\n    tag_176:\n        /* \"#utility.yul\":31134:31137   */\n      0x00\n        /* \"#utility.yul\":31153:31173   */\n      tag_669\n        /* \"#utility.yul\":31171:31172   */\n      dup3\n        /* \"#utility.yul\":31153:31173   */\n      tag_282\n      jump\t// in\n    tag_669:\n        /* \"#utility.yul\":31148:31173   */\n      swap2\n      pop\n        /* \"#utility.yul\":31187:31207   */\n      tag_670\n        /* \"#utility.yul\":31205:31206   */\n      dup4\n        /* \"#utility.yul\":31187:31207   */\n      tag_282\n      jump\t// in\n    tag_670:\n        /* \"#utility.yul\":31182:31207   */\n      swap3\n      pop\n        /* \"#utility.yul\":31230:31231   */\n      dup3\n        /* \"#utility.yul\":31227:31228   */\n      dup3\n        /* \"#utility.yul\":31223:31232   */\n      add\n        /* \"#utility.yul\":31216:31232   */\n      swap1\n      pop\n        /* \"#utility.yul\":31251:31254   */\n      dup1\n        /* \"#utility.yul\":31248:31249   */\n      dup3\n        /* \"#utility.yul\":31245:31255   */\n      gt\n        /* \"#utility.yul\":31242:31278   */\n      iszero\n      tag_671\n      jumpi\n        /* \"#utility.yul\":31258:31276   */\n      tag_672\n      tag_337\n      jump\t// in\n    tag_672:\n        /* \"#utility.yul\":31242:31278   */\n    tag_671:\n        /* \"#utility.yul\":31094:31285   */\n      swap3\n      swap2\n      pop\n      pop\n      jump\t// out\n        /* \"#utility.yul\":31291:31368   */\n    tag_354:\n        /* \"#utility.yul\":31328:31335   */\n      0x00\n        /* \"#utility.yul\":31357:31362   */\n      dup2\n        /* \"#utility.yul\":31346:31362   */\n      swap1\n      pop\n        /* \"#utility.yul\":31291:31368   */\n      swap2\n      swap1\n      pop\n      jump\t// out\n        /* \"#utility.yul\":31374:31496   */\n    tag_355:\n        /* \"#utility.yul\":31447:31471   */\n      tag_675\n        /* \"#utility.yul\":31465:31470   */\n      dup2\n        /* \"#utility.yul\":31447:31471   */\n      tag_354\n      jump\t// in\n    tag_675:\n        /* \"#utility.yul\":31440:31445   */\n      dup2\n        /* \"#utility.yul\":31437:31472   */\n      eq\n        /* \"#utility.yul\":31427:31490   */\n      tag_676\n      jumpi\n        /* \"#utility.yul\":31486:31487   */\n      0x00\n        /* \"#utility.yul\":31483:31484   */\n      0x00\n        /* \"#utility.yul\":31476:31488   */\n      revert\n        /* \"#utility.yul\":31427:31490   */\n    tag_676:\n        /* \"#utility.yul\":31374:31496   */\n      pop\n      jump\t// out\n        /* \"#utility.yul\":31502:31645   */\n    tag_356:\n        /* \"#utility.yul\":31559:31564   */\n      0x00\n        /* \"#utility.yul\":31590:31596   */\n      dup2\n        /* \"#utility.yul\":31584:31597   */\n      mload\n        /* \"#utility.yul\":31575:31597   */\n      swap1\n      pop\n        /* \"#utility.yul\":31606:31639   */\n      tag_678\n        /* \"#utility.yul\":31633:31638   */\n      dup2\n        /* \"#utility.yul\":31606:31639   */\n      tag_355\n      jump\t// in\n    tag_678:\n        /* \"#utility.yul\":31502:31645   */\n      swap3\n      swap2\n      pop\n      pop\n      jump\t// out\n        /* \"#utility.yul\":31651:32002   */\n    tag_224:\n        /* \"#utility.yul\":31721:31727   */\n      0x00\n        /* \"#utility.yul\":31770:31772   */\n      0x20\n        /* \"#utility.yul\":31758:31767   */\n      dup3\n        /* \"#utility.yul\":31749:31756   */\n      dup5\n        /* \"#utility.yul\":31745:31768   */\n      sub\n        /* \"#utility.yul\":31741:31773   */\n      slt\n        /* \"#utility.yul\":31738:31857   */\n      iszero\n      tag_680\n      jumpi\n        /* \"#utility.yul\":31776:31855   */\n      tag_681\n      tag_280\n      jump\t// in\n    tag_681:\n        /* \"#utility.yul\":31738:31857   */\n    tag_680:\n        /* \"#utility.yul\":31896:31897   */\n      0x00\n        /* \"#utility.yul\":31921:31985   */\n      tag_682\n        /* \"#utility.yul\":31977:31984   */\n      dup5\n        /* \"#utility.yul\":31968:31974   */\n      dup3\n        /* \"#utility.yul\":31957:31966   */\n      dup6\n        /* \"#utility.yul\":31953:31975   */\n      add\n        /* \"#utility.yul\":31921:31985   */\n      tag_356\n      jump\t// in\n    tag_682:\n        /* \"#utility.yul\":31911:31985   */\n      swap2\n      pop\n        /* \"#utility.yul\":31867:31995   */\n      pop\n        /* \"#utility.yul\":31651:32002   */\n      swap3\n      swap2\n      pop\n      pop\n      jump\t// out\n        /* \"#utility.yul\":32008:32126   */\n    tag_357:\n        /* \"#utility.yul\":32095:32119   */\n      tag_684\n        /* \"#utility.yul\":32113:32118   */\n      dup2\n        /* \"#utility.yul\":32095:32119   */\n      tag_354\n      jump\t// in\n    tag_684:\n        /* \"#utility.yul\":32090:32093   */\n      dup3\n        /* \"#utility.yul\":32083:32120   */\n      mstore\n        /* \"#utility.yul\":32008:32126   */\n      pop\n      pop\n      jump\t// out\n        /* \"#utility.yul\":32132:32464   */\n    tag_226:\n        /* \"#utility.yul\":32253:32257   */\n      0x00\n        /* \"#utility.yul\":32291:32293   */\n      0x40\n        /* \"#utility.yul\":32280:32289   */\n      dup3\n        /* \"#utility.yul\":32276:32294   */\n      add\n        /* \"#utility.yul\":32268:32294   */\n      swap1\n      pop\n        /* \"#utility.yul\":32304:32375   */\n      tag_686\n        /* \"#utility.yul\":32372:32373   */\n      0x00\n        /* \"#utility.yul\":32361:32370   */\n      dup4\n        /* \"#utility.yul\":32357:32374   */\n      add\n        /* \"#utility.yul\":32348:32354   */\n      dup6\n        /* \"#utility.yul\":32304:32375   */\n      tag_357\n      jump\t// in\n    tag_686:\n        /* \"#utility.yul\":32385:32457   */\n      tag_687\n        /* \"#utility.yul\":32453:32455   */\n      0x20\n        /* \"#utility.yul\":32442:32451   */\n      dup4\n        /* \"#utility.yul\":32438:32456   */\n      add\n        /* \"#utility.yul\":32429:32435   */\n      dup5\n        /* \"#utility.yul\":32385:32457   */\n      tag_287\n      jump\t// in\n    tag_687:\n        /* \"#utility.yul\":32132:32464   */\n      swap4\n      swap3\n      pop\n      pop\n      pop\n      jump\t// out\n        /* \"#utility.yul\":32470:32698   */\n    tag_358:\n        /* \"#utility.yul\":32610:32644   */\n      0x4f6e6c792061207265676973746572656420706861726d61636973742063616e\n        /* \"#utility.yul\":32606:32607   */\n      0x00\n        /* \"#utility.yul\":32598:32604   */\n      dup3\n        /* \"#utility.yul\":32594:32608   */\n      add\n        /* \"#utility.yul\":32587:32645   */\n      mstore\n        /* \"#utility.yul\":32679:32690   */\n      0x2064697370656e73650000000000000000000000000000000000000000000000\n        /* \"#utility.yul\":32674:32676   */\n      0x20\n        /* \"#utility.yul\":32666:32672   */\n      dup3\n        /* \"#utility.yul\":32662:32677   */\n      add\n        /* \"#utility.yul\":32655:32691   */\n      mstore\n        /* \"#utility.yul\":32470:32698   */\n      pop\n      jump\t// out\n        /* \"#utility.yul\":32704:33070   */\n    tag_359:\n        /* \"#utility.yul\":32846:32849   */\n      0x00\n        /* \"#utility.yul\":32867:32934   */\n      tag_690\n        /* \"#utility.yul\":32931:32933   */\n      0x29\n        /* \"#utility.yul\":32926:32929   */\n      dup4\n        /* \"#utility.yul\":32867:32934   */\n      tag_289\n      jump\t// in\n    tag_690:\n        /* \"#utility.yul\":32860:32934   */\n      swap2\n      pop\n        /* \"#utility.yul\":32943:33036   */\n      tag_691\n        /* \"#utility.yul\":33032:33035   */\n      dup3\n        /* \"#utility.yul\":32943:33036   */\n      tag_358\n      jump\t// in\n    tag_691:\n        /* \"#utility.yul\":33061:33063   */\n      0x40\n        /* \"#utility.yul\":33056:33059   */\n      dup3\n        /* \"#utility.yul\":33052:33064   */\n      add\n        /* \"#utility.yul\":33045:33064   */\n      swap1\n      pop\n        /* \"#utility.yul\":32704:33070   */\n      swap2\n      swap1\n      pop\n      jump\t// out\n        /* \"#utility.yul\":33076:33495   */\n    tag_232:\n        /* \"#utility.yul\":33242:33246   */\n      0x00\n        /* \"#utility.yul\":33280:33282   */\n      0x20\n        /* \"#utility.yul\":33269:33278   */\n      dup3\n        /* \"#utility.yul\":33265:33283   */\n      add\n        /* \"#utility.yul\":33257:33283   */\n      swap1\n      pop\n        /* \"#utility.yul\":33329:33338   */\n      dup2\n        /* \"#utility.yul\":33323:33327   */\n      dup2\n        /* \"#utility.yul\":33319:33339   */\n      sub\n        /* \"#utility.yul\":33315:33316   */\n      0x00\n        /* \"#utility.yul\":33304:33313   */\n      dup4\n        /* \"#utility.yul\":33300:33317   */\n      add\n        /* \"#utility.yul\":33293:33340   */\n      mstore\n        /* \"#utility.yul\":33357:33488   */\n      tag_693\n        /* \"#utility.yul\":33483:33487   */\n      dup2\n        /* \"#utility.yul\":33357:33488   */\n      tag_359\n      jump\t// in\n    tag_693:\n        /* \"#utility.yul\":33349:33488   */\n      swap1\n      pop\n        /* \"#utility.yul\":33076:33495   */\n      swap2\n      swap1\n      pop\n      jump\t// out\n        /* \"#utility.yul\":33501:33729   */\n    tag_360:\n        /* \"#utility.yul\":33641:33675   */\n      0x507265736372697074696f6e20616c72656164792064697370656e736564206f\n        /* \"#utility.yul\":33637:33638   */\n      0x00\n        /* \"#utility.yul\":33629:33635   */\n      dup3\n        /* \"#utility.yul\":33625:33639   */\n      add\n        /* \"#utility.yul\":33618:33676   */\n      mstore\n        /* \"#utility.yul\":33710:33721   */\n      0x7220657870697265640000000000000000000000000000000000000000000000\n        /* \"#utility.yul\":33705:33707   */\n      0x20\n        /* \"#utility.yul\":33697:33703   */\n      dup3\n        /* \"#utility.yul\":33693:33708   */\n      add\n        /* \"#utility.yul\":33686:33722   */\n      mstore\n        /* \"#utility.yul\":33501:33729   */\n      pop\n      jump\t// out\n        /* \"#utility.yul\":33735:34101   */\n    tag_361:\n        /* \"#utility.yul\":33877:33880   */\n      0x00\n        /* \"#utility.yul\":33898:33965   */\n      tag_696\n        /* \"#utility.yul\":33962:33964   */\n      0x29\n        /* \"#utility.yul\":33957:33960   */\n      dup4\n        /* \"#utility.yul\":33898:33965   */\n      tag_289\n      jump\t// in\n    tag_696:\n        /* \"#utility.yul\":33891:33965   */\n      swap2\n      pop\n        /* \"#utility.yul\":33974:34067   */\n      tag_697\n        /* \"#utility.yul\":34063:34066   */\n      dup3\n        /* \"#utility.yul\":33974:34067   */\n      tag_360\n      jump\t// in\n    tag_697:\n        /* \"#utility.yul\":34092:34094   */\n      0x40\n        /* \"#utility.yul\":34087:34090   */\n      dup3\n        /* \"#utility.yul\":34083:34095   */\n      add\n        /* \"#utility.yul\":34076:34095   */\n      swap1\n      pop\n        /* \"#utility.yul\":33735:34101   */\n      swap2\n      swap1\n      pop\n      jump\t// out\n        /* \"#utility.yul\":34107:34526   */\n    tag_245:\n        /* \"#utility.yul\":34273:34277   */\n      0x00\n        /* \"#utility.yul\":34311:34313   */\n      0x20\n        /* \"#utility.yul\":34300:34309   */\n      dup3\n        /* \"#utility.yul\":34296:34314   */\n      add\n        /* \"#utility.yul\":34288:34314   */\n      swap1\n      pop\n        /* \"#utility.yul\":34360:34369   */\n      dup2\n        /* \"#utility.yul\":34354:34358   */\n      dup2\n        /* \"#utility.yul\":34350:34370   */\n      sub\n        /* \"#utility.yul\":34346:34347   */\n      0x00\n        /* \"#utility.yul\":34335:34344   */\n      dup4\n        /* \"#utility.yul\":34331:34348   */\n      add\n        /* \"#utility.yul\":34324:34371   */\n      mstore\n        /* \"#utility.yul\":34388:34519   */\n      tag_699\n        /* \"#utility.yul\":34514:34518   */\n      dup2\n        /* \"#utility.yul\":34388:34519   */\n      tag_361\n      jump\t// in\n    tag_699:\n        /* \"#utility.yul\":34380:34519   */\n      swap1\n      pop\n        /* \"#utility.yul\":34107:34526   */\n      swap2\n      swap1\n      pop\n      jump\t// out\n        /* \"#utility.yul\":34532:34706   */\n    tag_362:\n        /* \"#utility.yul\":34672:34698   */\n      0x507265736372697074696f6e2068617320657870697265640000000000000000\n        /* \"#utility.yul\":34668:34669   */\n      0x00\n        /* \"#utility.yul\":34660:34666   */\n      dup3\n        /* \"#utility.yul\":34656:34670   */\n      add\n        /* \"#utility.yul\":34649:34699   */\n      mstore\n        /* \"#utility.yul\":34532:34706   */\n      pop\n      jump\t// out\n        /* \"#utility.yul\":34712:35078   */\n    tag_363:\n        /* \"#utility.yul\":34854:34857   */\n      0x00\n        /* \"#utility.yul\":34875:34942   */\n      tag_702\n        /* \"#utility.yul\":34939:34941   */\n      0x18\n        /* \"#utility.yul\":34934:34937   */\n      dup4\n        /* \"#utility.yul\":34875:34942   */\n      tag_289\n      jump\t// in\n    tag_702:\n        /* \"#utility.yul\":34868:34942   */\n      swap2\n      pop\n        /* \"#utility.yul\":34951:35044   */\n      tag_703\n        /* \"#utility.yul\":35040:35043   */\n      dup3\n        /* \"#utility.yul\":34951:35044   */\n      tag_362\n      jump\t// in\n    tag_703:\n        /* \"#utility.yul\":35069:35071   */\n      0x20\n        /* \"#utility.yul\":35064:35067   */\n      dup3\n        /* \"#utility.yul\":35060:35072   */\n      add\n        /* \"#utility.yul\":35053:35072   */\n      swap1\n      pop\n        /* \"#utility.yul\":34712:35078   */\n      swap2\n      swap1\n      pop\n      jump\t// out\n        /* \"#utility.yul\":35084:35503   */\n    tag_248:\n        /* \"#utility.yul\":35250:35254   */\n      0x00\n        /* \"#utility.yul\":35288:35290   */\n      0x20\n        /* \"#utility.yul\":35277:35286   */\n      dup3\n        /* \"#utility.yul\":35273:35291   */\n      add\n        /* \"#utility.yul\":35265:35291   */\n      swap1\n      pop\n        /* \"#utility.yul\":35337:35346   */\n      dup2\n        /* \"#utility.yul\":35331:35335   */\n      dup2\n        /* \"#utility.yul\":35327:35347   */\n      sub\n        /* \"#utility.yul\":35323:35324   */\n      0x00\n        /* \"#utility.yul\":35312:35321   */\n      dup4\n        /* \"#utility.yul\":35308:35325   */\n      add\n        /* \"#utility.yul\":35301:35348   */\n      mstore\n        /* \"#utility.yul\":35365:35496   */\n      tag_705\n        /* \"#utility.yul\":35491:35495   */\n      dup2\n        /* \"#utility.yul\":35365:35496   */\n      tag_363\n      jump\t// in\n    tag_705:\n        /* \"#utility.yul\":35357:35496   */\n      swap1\n      pop\n        /* \"#utility.yul\":35084:35503   */\n      swap2\n      swap1\n      pop\n      jump\t// out\n        /* \"#utility.yul\":35509:35678   */\n    tag_364:\n        /* \"#utility.yul\":35649:35670   */\n      0x4e6f7420696e2049535355454420737461746500000000000000000000000000\n        /* \"#utility.yul\":35645:35646   */\n      0x00\n        /* \"#utility.yul\":35637:35643   */\n      dup3\n        /* \"#utility.yul\":35633:35647   */\n      add\n        /* \"#utility.yul\":35626:35671   */\n      mstore\n        /* \"#utility.yul\":35509:35678   */\n      pop\n      jump\t// out\n        /* \"#utility.yul\":35684:36050   */\n    tag_365:\n        /* \"#utility.yul\":35826:35829   */\n      0x00\n        /* \"#utility.yul\":35847:35914   */\n      tag_708\n        /* \"#utility.yul\":35911:35913   */\n      0x13\n        /* \"#utility.yul\":35906:35909   */\n      dup4\n        /* \"#utility.yul\":35847:35914   */\n      tag_289\n      jump\t// in\n    tag_708:\n        /* \"#utility.yul\":35840:35914   */\n      swap2\n      pop\n        /* \"#utility.yul\":35923:36016   */\n      tag_709\n        /* \"#utility.yul\":36012:36015   */\n      dup3\n        /* \"#utility.yul\":35923:36016   */\n      tag_364\n      jump\t// in\n    tag_709:\n        /* \"#utility.yul\":36041:36043   */\n      0x20\n        /* \"#utility.yul\":36036:36039   */\n      dup3\n        /* \"#utility.yul\":36032:36044   */\n      add\n        /* \"#utility.yul\":36025:36044   */\n      swap1\n      pop\n        /* \"#utility.yul\":35684:36050   */\n      swap2\n      swap1\n      pop\n      jump\t// out\n        /* \"#utility.yul\":36056:36475   */\n    tag_264:\n        /* \"#utility.yul\":36222:36226   */\n      0x00\n        /* \"#utility.yul\":36260:36262   */\n      0x20\n        /* \"#utility.yul\":36249:36258   */\n      dup3\n        /* \"#utility.yul\":36245:36263   */\n      add\n        /* \"#utility.yul\":36237:36263   */\n      swap1\n      pop\n        /* \"#utility.yul\":36309:36318   */\n      dup2\n        /* \"#utility.yul\":36303:36307   */\n      dup2\n        /* \"#utility.yul\":36299:36319   */\n      sub\n        /* \"#utility.yul\":36295:36296   */\n      0x00\n        /* \"#utility.yul\":36284:36293   */\n      dup4\n        /* \"#utility.yul\":36280:36297   */\n      add\n        /* \"#utility.yul\":36273:36320   */\n      mstore\n        /* \"#utility.yul\":36337:36468   */\n      tag_711\n        /* \"#utility.yul\":36463:36467   */\n      dup2\n        /* \"#utility.yul\":36337:36468   */\n      tag_365\n      jump\t// in\n    tag_711:\n        /* \"#utility.yul\":36329:36468   */\n      swap1\n      pop\n        /* \"#utility.yul\":36056:36475   */\n      swap2\n      swap1\n      pop\n      jump\t// out\n        /* \"#utility.yul\":36481:36663   */\n    tag_366:\n        /* \"#utility.yul\":36621:36655   */\n      0x507265736372697074696f6e20686173206e6f74206578706972656420796574\n        /* \"#utility.yul\":36617:36618   */\n      0x00\n        /* \"#utility.yul\":36609:36615   */\n      dup3\n        /* \"#utility.yul\":36605:36619   */\n      add\n        /* \"#utility.yul\":36598:36656   */\n      mstore\n        /* \"#utility.yul\":36481:36663   */\n      pop\n      jump\t// out\n        /* \"#utility.yul\":36669:37035   */\n    tag_367:\n        /* \"#utility.yul\":36811:36814   */\n      0x00\n        /* \"#utility.yul\":36832:36899   */\n      tag_714\n        /* \"#utility.yul\":36896:36898   */\n      0x20\n        /* \"#utility.yul\":36891:36894   */\n      dup4\n        /* \"#utility.yul\":36832:36899   */\n      tag_289\n      jump\t// in\n    tag_714:\n        /* \"#utility.yul\":36825:36899   */\n      swap2\n      pop\n        /* \"#utility.yul\":36908:37001   */\n      tag_715\n        /* \"#utility.yul\":36997:37000   */\n      dup3\n        /* \"#utility.yul\":36908:37001   */\n      tag_366\n      jump\t// in\n    tag_715:\n        /* \"#utility.yul\":37026:37028   */\n      0x20\n        /* \"#utility.yul\":37021:37024   */\n      dup3\n        /* \"#utility.yul\":37017:37029   */\n      add\n        /* \"#utility.yul\":37010:37029   */\n      swap1\n      pop\n        /* \"#utility.yul\":36669:37035   */\n      swap2\n      swap1\n      pop\n      jump\t// out\n        /* \"#utility.yul\":37041:37460   */\n    tag_267:\n        /* \"#utility.yul\":37207:37211   */\n      0x00\n        /* \"#utility.yul\":37245:37247   */\n      0x20\n        /* \"#utility.yul\":37234:37243   */\n      dup3\n        /* \"#utility.yul\":37230:37248   */\n      add\n        /* \"#utility.yul\":37222:37248   */\n      swap1\n      pop\n        /* \"#utility.yul\":37294:37303   */\n      dup2\n        /* \"#utility.yul\":37288:37292   */\n      dup2\n        /* \"#utility.yul\":37284:37304   */\n      sub\n        /* \"#utility.yul\":37280:37281   */\n      0x00\n        /* \"#utility.yul\":37269:37278   */\n      dup4\n        /* \"#utility.yul\":37265:37282   */\n      add\n        /* \"#utility.yul\":37258:37305   */\n      mstore\n        /* \"#utility.yul\":37322:37453   */\n      tag_717\n        /* \"#utility.yul\":37448:37452   */\n      dup2\n        /* \"#utility.yul\":37322:37453   */\n      tag_367\n      jump\t// in\n    tag_717:\n        /* \"#utility.yul\":37314:37453   */\n      swap1\n      pop\n        /* \"#utility.yul\":37041:37460   */\n      swap2\n      swap1\n      pop\n      jump\t// out\n\n    auxdata: 0xa26469706673582212208338fcc3929b8d95924e2ebd374bbadabaaa6c1fde643351bc6b3d6cb54907c064736f6c63430008220033\n}\n",
				"bytecode": {
					"linkReferences": {},
					"object": "608060405260015f55348015610013575f5ffd5b5060405161337a38038061337a833981810160405281019061003591906101f6565b5f73ffffffffffffffffffffffffffffffffffffffff168273ffffffffffffffffffffffffffffffffffffffff16036100a3576040517f08c379a000000000000000000000000000000000000000000000000000000000815260040161009a9061028e565b60405180910390fd5b5f73ffffffffffffffffffffffffffffffffffffffff168173ffffffffffffffffffffffffffffffffffffffff1603610111576040517f08c379a0000000000000000000000000000000000000000000000000000000008152600401610108906102f6565b60405180910390fd5b8160015f6101000a81548173ffffffffffffffffffffffffffffffffffffffff021916908373ffffffffffffffffffffffffffffffffffffffff1602179055508060025f6101000a81548173ffffffffffffffffffffffffffffffffffffffff021916908373ffffffffffffffffffffffffffffffffffffffff1602179055505050610314565b5f5ffd5b5f73ffffffffffffffffffffffffffffffffffffffff82169050919050565b5f6101c58261019c565b9050919050565b6101d5816101bb565b81146101df575f5ffd5b50565b5f815190506101f0816101cc565b92915050565b5f5f6040838503121561020c5761020b610198565b5b5f610219858286016101e2565b925050602061022a858286016101e2565b9150509250929050565b5f82825260208201905092915050565b7f496e76616c6964206964656e7469747920636f6e7472616374000000000000005f82015250565b5f610278601983610234565b915061028382610244565b602082019050919050565b5f6020820190508181035f8301526102a58161026c565b9050919050565b7f496e76616c69642061636365737320636f6e74726f6c20636f6e7472616374005f82015250565b5f6102e0601f83610234565b91506102eb826102ac565b602082019050919050565b5f6020820190508181035f83015261030d816102d4565b9050919050565b613059806103215f395ff3fe608060405234801561000f575f5ffd5b50600436106100f3575f3560e01c80638102497111610095578063e7a0e98511610064578063e7a0e98514610293578063f115d955146102c3578063f49ac617146102df578063f84441b21461030f576100f3565b806381024971146101f2578063b655849814610210578063e0acc6981461022e578063e437bea41461025e576100f3565b806367031bae116100d157806367031bae1461016c5780636f16af101461018a5780636f8d7bb8146101ba578063734027e3146101d6576100f3565b806313007d55146100f757806331dfc91b14610115578063380bd4431461014e575b5f5ffd5b6100ff61032b565b60405161010c9190611e66565b60405180910390f35b61012f600480360381019061012a9190611ec3565b610350565b6040516101459a99989796959493929190612000565b60405180910390f35b610156610515565b60405161016391906120a8565b60405180910390f35b61017461051c565b60405161018191906120e1565b60405180910390f35b6101a4600480360381019061019f9190611ec3565b610541565b6040516101b1919061224d565b60405180910390f35b6101d460048036038101906101cf91906123c3565b610842565b005b6101f060048036038101906101eb919061244b565b610caf565b005b6101fa61121d565b60405161020791906120a8565b60405180910390f35b610218611223565b60405161022591906120a8565b60405180910390f35b610248600480360381019061024391906124e7565b611229565b60405161025591906125ba565b60405180910390f35b61027860048036038101906102739190611ec3565b6112bc565b60405161028a969594939291906125da565b60405180910390f35b6102ad60048036038101906102a89190611ec3565b61143e565b6040516102ba9190612661565b60405180910390f35b6102dd60048036038101906102d89190611ec3565b611730565b005b6102f960048036038101906102f491906124e7565b611b02565b60405161030691906125ba565b60405180910390f35b61032960048036038101906103249190611ec3565b611b95565b005b60025f9054906101000a900473ffffffffffffffffffffffffffffffffffffffff1681565b6006602052805f5260405f205f91509050805f015490806001015f9054906101000a900473ffffffffffffffffffffffffffffffffffffffff1690806002015f9054906101000a900473ffffffffffffffffffffffffffffffffffffffff16908060030180546103bf906126a7565b80601f01602080910402602001604051908101604052809291908181526020018280546103eb906126a7565b80156104365780601f1061040d57610100808354040283529160200191610436565b820191905f5260205f20905b81548152906001019060200180831161041957829003601f168201915b50505050509080600401805461044b906126a7565b80601f0160208091040260200160405190810160405280929190818152602001828054610477906126a7565b80156104c25780601f10610499576101008083540402835291602001916104c2565b820191905f5260205f20905b8154815290600101906020018083116104a557829003601f168201915b505050505090806005015f9054906101000a900460ff1690806006015490806007015490806008015f9054906101000a900473ffffffffffffffffffffffffffffffffffffffff1690806009015490508a565b62ed4e0081565b60015f9054906101000a900473ffffffffffffffffffffffffffffffffffffffff1681565b610549611d4d565b5f60065f8481526020019081526020015f205f01540361059e576040517f08c379a000000000000000000000000000000000000000000000000000000000815260040161059590612721565b60405180910390fd5b60065f8381526020019081526020015f20604051806101400160405290815f8201548152602001600182015f9054906101000a900473ffffffffffffffffffffffffffffffffffffffff1673ffffffffffffffffffffffffffffffffffffffff1673ffffffffffffffffffffffffffffffffffffffff168152602001600282015f9054906101000a900473ffffffffffffffffffffffffffffffffffffffff1673ffffffffffffffffffffffffffffffffffffffff1673ffffffffffffffffffffffffffffffffffffffff16815260200160038201805461067e906126a7565b80601f01602080910402602001604051908101604052809291908181526020018280546106aa906126a7565b80156106f55780601f106106cc576101008083540402835291602001916106f5565b820191905f5260205f20905b8154815290600101906020018083116106d857829003601f168201915b5050505050815260200160048201805461070e906126a7565b80601f016020809104026020016040519081016040528092919081815260200182805461073a906126a7565b80156107855780601f1061075c57610100808354040283529160200191610785565b820191905f5260205f20905b81548152906001019060200180831161076857829003601f168201915b50505050508152602001600582015f9054906101000a900460ff1660028111156107b2576107b1611f8d565b5b60028111156107c4576107c3611f8d565b5b81526020016006820154815260200160078201548152602001600882015f9054906101000a900473ffffffffffffffffffffffffffffffffffffffff1673ffffffffffffffffffffffffffffffffffffffff1673ffffffffffffffffffffffffffffffffffffffff1681526020016009820154815250509050919050565b8260015f9054906101000a900473ffffffffffffffffffffffffffffffffffffffff1673ffffffffffffffffffffffffffffffffffffffff16633c4f7a9d826040518263ffffffff1660e01b815260040161089d919061273f565b602060405180830381865afa1580156108b8573d5f5f3e3d5ffd5b505050506040513d601f19601f820116820180604052508101906108dc9190612782565b61091b576040517f08c379a0000000000000000000000000000000000000000000000000000000008152600401610912906127f7565b60405180910390fd5b8360015f9054906101000a900473ffffffffffffffffffffffffffffffffffffffff1673ffffffffffffffffffffffffffffffffffffffff1663a6d41f3382336040518363ffffffff1660e01b8152600401610978929190612815565b602060405180830381865afa158015610993573d5f5f3e3d5ffd5b505050506040513d601f19601f820116820180604052508101906109b79190612782565b6109f6576040517f08c379a00000000000000000000000000000000000000000000000000000000081526004016109ed90612886565b60405180910390fd5b60015f5414610a3a576040517f08c379a0000000000000000000000000000000000000000000000000000000008152600401610a31906128ee565b60405180910390fd5b60025f819055505f845111610a84576040517f08c379a0000000000000000000000000000000000000000000000000000000008152600401610a7b90612956565b60405180910390fd5b60035f815480929190610a96906129a1565b91905055506040518060c0016040528060035481526020018673ffffffffffffffffffffffffffffffffffffffff1681526020013373ffffffffffffffffffffffffffffffffffffffff1681526020018581526020018481526020014281525060055f60035481526020019081526020015f205f820151815f01556020820151816001015f6101000a81548173ffffffffffffffffffffffffffffffffffffffff021916908373ffffffffffffffffffffffffffffffffffffffff1602179055506040820151816002015f6101000a81548173ffffffffffffffffffffffffffffffffffffffff021916908373ffffffffffffffffffffffffffffffffffffffff1602179055506060820151816003019081610bb29190612b90565b506080820151816004019081610bc89190612b90565b5060a0820151816005015590505060085f8673ffffffffffffffffffffffffffffffffffffffff1673ffffffffffffffffffffffffffffffffffffffff1681526020019081526020015f20600354908060018154018082558091505060019003905f5260205f20015f90919091909150553373ffffffffffffffffffffffffffffffffffffffff168573ffffffffffffffffffffffffffffffffffffffff166003547f6ca89a3857c332e284f88f7589095ee9a2f29a5564c0a2d6aea4466332ce4fc642604051610c9991906120a8565b60405180910390a460015f819055505050505050565b8360015f9054906101000a900473ffffffffffffffffffffffffffffffffffffffff1673ffffffffffffffffffffffffffffffffffffffff16633c4f7a9d826040518263ffffffff1660e01b8152600401610d0a919061273f565b602060405180830381865afa158015610d25573d5f5f3e3d5ffd5b505050506040513d601f19601f82011682018060405250810190610d499190612782565b610d88576040517f08c379a0000000000000000000000000000000000000000000000000000000008152600401610d7f906127f7565b60405180910390fd5b8460015f9054906101000a900473ffffffffffffffffffffffffffffffffffffffff1673ffffffffffffffffffffffffffffffffffffffff1663a6d41f3382336040518363ffffffff1660e01b8152600401610de5929190612815565b602060405180830381865afa158015610e00573d5f5f3e3d5ffd5b505050506040513d601f19601f82011682018060405250810190610e249190612782565b610e63576040517f08c379a0000000000000000000000000000000000000000000000000000000008152600401610e5a90612886565b60405180910390fd5b60015f5414610ea7576040517f08c379a0000000000000000000000000000000000000000000000000000000008152600401610e9e906128ee565b60405180910390fd5b60025f819055505f855111610ef1576040517f08c379a0000000000000000000000000000000000000000000000000000000008152600401610ee890612ca9565b60405180910390fd5b5f5f8414610f0d576201518084610f089190612cc7565b610f12565b62ed4e005b90505f8142610f219190612d08565b905060045f815480929190610f35906129a1565b919050555060405180610140016040528060045481526020018973ffffffffffffffffffffffffffffffffffffffff1681526020013373ffffffffffffffffffffffffffffffffffffffff1681526020018881526020018781526020015f6002811115610fa557610fa4611f8d565b5b81526020014281526020018281526020015f73ffffffffffffffffffffffffffffffffffffffff1681526020015f81525060065f60045481526020019081526020015f205f820151815f01556020820151816001015f6101000a81548173ffffffffffffffffffffffffffffffffffffffff021916908373ffffffffffffffffffffffffffffffffffffffff1602179055506040820151816002015f6101000a81548173ffffffffffffffffffffffffffffffffffffffff021916908373ffffffffffffffffffffffffffffffffffffffff16021790555060608201518160030190816110929190612b90565b5060808201518160040190816110a89190612b90565b5060a0820151816005015f6101000a81548160ff021916908360028111156110d3576110d2611f8d565b5b021790555060c0820151816006015560e08201518160070155610100820151816008015f6101000a81548173ffffffffffffffffffffffffffffffffffffffff021916908373ffffffffffffffffffffffffffffffffffffffff160217905550610120820151816009015590505060075f8973ffffffffffffffffffffffffffffffffffffffff1673ffffffffffffffffffffffffffffffffffffffff1681526020019081526020015f20600454908060018154018082558091505060019003905f5260205f20015f90919091909150553373ffffffffffffffffffffffffffffffffffffffff168873ffffffffffffffffffffffffffffffffffffffff166004547f3fef7f06ce70676abf7921e7052922715e90c90caf370ba8904339cf5b21e91e8460405161120491906120a8565b60405180910390a4505060015f81905550505050505050565b60035481565b60045481565b606060075f8373ffffffffffffffffffffffffffffffffffffffff1673ffffffffffffffffffffffffffffffffffffffff1681526020019081526020015f208054806020026020016040519081016040528092919081815260200182805480156112b057602002820191905f5260205f20905b81548152602001906001019080831161129c575b50505050509050919050565b6005602052805f5260405f205f91509050805f015490806001015f9054906101000a900473ffffffffffffffffffffffffffffffffffffffff1690806002015f9054906101000a900473ffffffffffffffffffffffffffffffffffffffff169080600301805461132b906126a7565b80601f0160208091040260200160405190810160405280929190818152602001828054611357906126a7565b80156113a25780601f10611379576101008083540402835291602001916113a2565b820191905f5260205f20905b81548152906001019060200180831161138557829003601f168201915b5050505050908060040180546113b7906126a7565b80601f01602080910402602001604051908101604052809291908181526020018280546113e3906126a7565b801561142e5780601f106114055761010080835404028352916020019161142e565b820191905f5260205f20905b81548152906001019060200180831161141157829003601f168201915b5050505050908060050154905086565b5f5f60065f8481526020019081526020015f20604051806101400160405290815f8201548152602001600182015f9054906101000a900473ffffffffffffffffffffffffffffffffffffffff1673ffffffffffffffffffffffffffffffffffffffff1673ffffffffffffffffffffffffffffffffffffffff168152602001600282015f9054906101000a900473ffffffffffffffffffffffffffffffffffffffff1673ffffffffffffffffffffffffffffffffffffffff1673ffffffffffffffffffffffffffffffffffffffff168152602001600382018054611520906126a7565b80601f016020809104026020016040519081016040528092919081815260200182805461154c906126a7565b80156115975780601f1061156e57610100808354040283529160200191611597565b820191905f5260205f20905b81548152906001019060200180831161157a57829003601f168201915b505050505081526020016004820180546115b0906126a7565b80601f01602080910402602001604051908101604052809291908181526020018280546115dc906126a7565b80156116275780601f106115fe57610100808354040283529160200191611627565b820191905f5260205f20905b81548152906001019060200180831161160a57829003601f168201915b50505050508152602001600582015f9054906101000a900460ff16600281111561165457611653611f8d565b5b600281111561166657611665611f8d565b5b81526020016006820154815260200160078201548152602001600882015f9054906101000a900473ffffffffffffffffffffffffffffffffffffffff1673ffffffffffffffffffffffffffffffffffffffff1673ffffffffffffffffffffffffffffffffffffffff16815260200160098201548152505090505f815f01511415801561171957505f6002811115611700576116ff611f8d565b5b8160a00151600281111561171757611716611f8d565b5b145b801561172857508060e0015142105b915050919050565b60025f9054906101000a900473ffffffffffffffffffffffffffffffffffffffff1673ffffffffffffffffffffffffffffffffffffffff166391d1485460025f9054906101000a900473ffffffffffffffffffffffffffffffffffffffff1673ffffffffffffffffffffffffffffffffffffffff1663c532d9fa6040518163ffffffff1660e01b8152600401602060405180830381865afa1580156117d7573d5f5f3e3d5ffd5b505050506040513d601f19601f820116820180604052508101906117fb9190612d6e565b336040518363ffffffff1660e01b8152600401611819929190612da8565b602060405180830381865afa158015611834573d5f5f3e3d5ffd5b505050506040513d601f19601f820116820180604052508101906118589190612782565b611897576040517f08c379a000000000000000000000000000000000000000000000000000000000815260040161188e90612e3f565b60405180910390fd5b60015f54146118db576040517f08c379a00000000000000000000000000000000000000000000000000000000081526004016118d2906128ee565b60405180910390fd5b60025f819055505f60065f8381526020019081526020015f2090505f815f01540361193b576040517f08c379a000000000000000000000000000000000000000000000000000000000815260040161193290612721565b60405180910390fd5b5f600281111561194e5761194d611f8d565b5b816005015f9054906101000a900460ff16600281111561197157611970611f8d565b5b146119b1576040517f08c379a00000000000000000000000000000000000000000000000000000000081526004016119a890612ecd565b60405180910390fd5b806007015442106119f7576040517f08c379a00000000000000000000000000000000000000000000000000000000081526004016119ee90612f35565b60405180910390fd5b6001816005015f6101000a81548160ff02191690836002811115611a1e57611a1d611f8d565b5b021790555033816008015f6101000a81548173ffffffffffffffffffffffffffffffffffffffff021916908373ffffffffffffffffffffffffffffffffffffffff1602179055504281600901819055503373ffffffffffffffffffffffffffffffffffffffff16816001015f9054906101000a900473ffffffffffffffffffffffffffffffffffffffff1673ffffffffffffffffffffffffffffffffffffffff16837f417e0ba8409ada5d1a01b8070a049cd9397bf9bc6ee1ca36ec7569ec9d34e0e242604051611aef91906120a8565b60405180910390a45060015f8190555050565b606060085f8373ffffffffffffffffffffffffffffffffffffffff1673ffffffffffffffffffffffffffffffffffffffff1681526020019081526020015f20805480602002602001604051908101604052809291908181526020018280548015611b8957602002820191905f5260205f20905b815481526020019060010190808311611b75575b50505050509050919050565b5f60065f8381526020019081526020015f2090505f815f015403611bee576040517f08c379a0000000000000000000000000000000000000000000000000000000008152600401611be590612721565b60405180910390fd5b5f6002811115611c0157611c00611f8d565b5b816005015f9054906101000a900460ff166002811115611c2457611c23611f8d565b5b14611c64576040517f08c379a0000000000000000000000000000000000000000000000000000000008152600401611c5b90612f9d565b60405180910390fd5b8060070154421015611cab576040517f08c379a0000000000000000000000000000000000000000000000000000000008152600401611ca290613005565b60405180910390fd5b6002816005015f6101000a81548160ff02191690836002811115611cd257611cd1611f8d565b5b0217905550806001015f9054906101000a900473ffffffffffffffffffffffffffffffffffffffff1673ffffffffffffffffffffffffffffffffffffffff16827f1c66c972def6bbfbef4b8d1ed233ab36f4864d8cb752b8fb668f739f813a49c842604051611d4191906120a8565b60405180910390a35050565b6040518061014001604052805f81526020015f73ffffffffffffffffffffffffffffffffffffffff1681526020015f73ffffffffffffffffffffffffffffffffffffffff16815260200160608152602001606081526020015f6002811115611db857611db7611f8d565b5b81526020015f81526020015f81526020015f73ffffffffffffffffffffffffffffffffffffffff1681526020015f81525090565b5f73ffffffffffffffffffffffffffffffffffffffff82169050919050565b5f819050919050565b5f611e2e611e29611e2484611dec565b611e0b565b611dec565b9050919050565b5f611e3f82611e14565b9050919050565b5f611e5082611e35565b9050919050565b611e6081611e46565b82525050565b5f602082019050611e795f830184611e57565b92915050565b5f604051905090565b5f5ffd5b5f5ffd5b5f819050919050565b611ea281611e90565b8114611eac575f5ffd5b50565b5f81359050611ebd81611e99565b92915050565b5f60208284031215611ed857611ed7611e88565b5b5f611ee584828501611eaf565b91505092915050565b611ef781611e90565b82525050565b5f611f0782611dec565b9050919050565b611f1781611efd565b82525050565b5f81519050919050565b5f82825260208201905092915050565b8281835e5f83830152505050565b5f601f19601f8301169050919050565b5f611f5f82611f1d565b611f698185611f27565b9350611f79818560208601611f37565b611f8281611f45565b840191505092915050565b7f4e487b71000000000000000000000000000000000000000000000000000000005f52602160045260245ffd5b60038110611fcb57611fca611f8d565b5b50565b5f819050611fdb82611fba565b919050565b5f611fea82611fce565b9050919050565b611ffa81611fe0565b82525050565b5f610140820190506120145f83018d611eee565b612021602083018c611f0e565b61202e604083018b611f0e565b8181036060830152612040818a611f55565b905081810360808301526120548189611f55565b905061206360a0830188611ff1565b61207060c0830187611eee565b61207d60e0830186611eee565b61208b610100830185611f0e565b612099610120830184611eee565b9b9a5050505050505050505050565b5f6020820190506120bb5f830184611eee565b92915050565b5f6120cb82611e35565b9050919050565b6120db816120c1565b82525050565b5f6020820190506120f45f8301846120d2565b92915050565b61210381611e90565b82525050565b61211281611efd565b82525050565b5f82825260208201905092915050565b5f61213282611f1d565b61213c8185612118565b935061214c818560208601611f37565b61215581611f45565b840191505092915050565b61216981611fe0565b82525050565b5f61014083015f8301516121855f8601826120fa565b5060208301516121986020860182612109565b5060408301516121ab6040860182612109565b50606083015184820360608601526121c38282612128565b915050608083015184820360808601526121dd8282612128565b91505060a08301516121f260a0860182612160565b5060c083015161220560c08601826120fa565b5060e083015161221860e08601826120fa565b5061010083015161222d610100860182612109565b506101208301516122426101208601826120fa565b508091505092915050565b5f6020820190508181035f830152612265818461216f565b905092915050565b61227681611efd565b8114612280575f5ffd5b50565b5f813590506122918161226d565b92915050565b5f5ffd5b5f5ffd5b7f4e487b71000000000000000000000000000000000000000000000000000000005f52604160045260245ffd5b6122d582611f45565b810181811067ffffffffffffffff821117156122f4576122f361229f565b5b80604052505050565b5f612306611e7f565b905061231282826122cc565b919050565b5f67ffffffffffffffff8211156123315761233061229f565b5b61233a82611f45565b9050602081019050919050565b828183375f83830152505050565b5f61236761236284612317565b6122fd565b9050828152602081018484840111156123835761238261229b565b5b61238e848285612347565b509392505050565b5f82601f8301126123aa576123a9612297565b5b81356123ba848260208601612355565b91505092915050565b5f5f5f606084860312156123da576123d9611e88565b5b5f6123e786828701612283565b935050602084013567ffffffffffffffff81111561240857612407611e8c565b5b61241486828701612396565b925050604084013567ffffffffffffffff81111561243557612434611e8c565b5b61244186828701612396565b9150509250925092565b5f5f5f5f6080858703121561246357612462611e88565b5b5f61247087828801612283565b945050602085013567ffffffffffffffff81111561249157612490611e8c565b5b61249d87828801612396565b935050604085013567ffffffffffffffff8111156124be576124bd611e8c565b5b6124ca87828801612396565b92505060606124db87828801611eaf565b91505092959194509250565b5f602082840312156124fc576124fb611e88565b5b5f61250984828501612283565b91505092915050565b5f81519050919050565b5f82825260208201905092915050565b5f819050602082019050919050565b5f61254683836120fa565b60208301905092915050565b5f602082019050919050565b5f61256882612512565b612572818561251c565b935061257d8361252c565b805f5b838110156125ad578151612594888261253b565b975061259f83612552565b925050600181019050612580565b5085935050505092915050565b5f6020820190508181035f8301526125d2818461255e565b905092915050565b5f60c0820190506125ed5f830189611eee565b6125fa6020830188611f0e565b6126076040830187611f0e565b81810360608301526126198186611f55565b9050818103608083015261262d8185611f55565b905061263c60a0830184611eee565b979650505050505050565b5f8115159050919050565b61265b81612647565b82525050565b5f6020820190506126745f830184612652565b92915050565b7f4e487b71000000000000000000000000000000000000000000000000000000005f52602260045260245ffd5b5f60028204905060018216806126be57607f821691505b6020821081036126d1576126d061267a565b5b50919050565b7f507265736372697074696f6e20646f6573206e6f7420657869737400000000005f82015250565b5f61270b601b83611f27565b9150612716826126d7565b602082019050919050565b5f6020820190508181035f830152612738816126ff565b9050919050565b5f6020820190506127525f830184611f0e565b92915050565b61276181612647565b811461276b575f5ffd5b50565b5f8151905061277c81612758565b92915050565b5f6020828403121561279757612796611e88565b5b5f6127a48482850161276e565b91505092915050565b7f50617469656e74206e6f742072656769737465726564000000000000000000005f82015250565b5f6127e1601683611f27565b91506127ec826127ad565b602082019050919050565b5f6020820190508181035f83015261280e816127d5565b9050919050565b5f6040820190506128285f830185611f0e565b6128356020830184611f0e565b9392505050565b7f4e6f2076616c696420636f6e73656e742066726f6d2070617469656e740000005f82015250565b5f612870601d83611f27565b915061287b8261283c565b602082019050919050565b5f6020820190508181035f83015261289d81612864565b9050919050565b7f5265656e7472616e637947756172643a207265656e7472616e742063616c6c005f82015250565b5f6128d8601f83611f27565b91506128e3826128a4565b602082019050919050565b5f6020820190508181035f830152612905816128cc565b9050919050565b7f446961676e6f7369732064657461696c732072657175697265640000000000005f82015250565b5f612940601a83611f27565b915061294b8261290c565b602082019050919050565b5f6020820190508181035f83015261296d81612934565b9050919050565b7f4e487b71000000000000000000000000000000000000000000000000000000005f52601160045260245ffd5b5f6129ab82611e90565b91507fffffffffffffffffffffffffffffffffffffffffffffffffffffffffffffffff82036129dd576129dc612974565b5b600182019050919050565b5f819050815f5260205f209050919050565b5f6020601f8301049050919050565b5f82821b905092915050565b5f60088302612a447fffffffffffffffffffffffffffffffffffffffffffffffffffffffffffffffff82612a09565b612a4e8683612a09565b95508019841693508086168417925050509392505050565b5f612a80612a7b612a7684611e90565b611e0b565b611e90565b9050919050565b5f819050919050565b612a9983612a66565b612aad612aa582612a87565b848454612a15565b825550505050565b5f5f905090565b612ac4612ab5565b612acf818484612a90565b505050565b5f5b82811015612af557612aea5f828401612abc565b600181019050612ad6565b505050565b601f821115612b485782821115612b4757612b14816129e8565b612b1d836129fa565b612b26856129fa565b6020861015612b33575f90505b808301612b4282840382612ad4565b505050505b5b505050565b5f82821c905092915050565b5f612b685f1984600802612b4d565b1980831691505092915050565b5f612b808383612b59565b9150826002028217905092915050565b612b9982611f1d565b67ffffffffffffffff811115612bb257612bb161229f565b5b612bbc82546126a7565b612bc7828285612afa565b5f60209050601f831160018114612bf8575f8415612be6578287015190505b612bf08582612b75565b865550612c57565b601f198416612c06866129e8565b5f5b82811015612c2d57848901518255600182019150602085019450602081019050612c08565b86831015612c4a5784890151612c46601f891682612b59565b8355505b6001600288020188555050505b505050505050565b7f4d656469636174696f6e2064657461696c7320726571756972656400000000005f82015250565b5f612c93601b83611f27565b9150612c9e82612c5f565b602082019050919050565b5f6020820190508181035f830152612cc081612c87565b9050919050565b5f612cd182611e90565b9150612cdc83611e90565b9250828202612cea81611e90565b91508282048414831517612d0157612d00612974565b5b5092915050565b5f612d1282611e90565b9150612d1d83611e90565b9250828201905080821115612d3557612d34612974565b5b92915050565b5f819050919050565b612d4d81612d3b565b8114612d57575f5ffd5b50565b5f81519050612d6881612d44565b92915050565b5f60208284031215612d8357612d82611e88565b5b5f612d9084828501612d5a565b91505092915050565b612da281612d3b565b82525050565b5f604082019050612dbb5f830185612d99565b612dc86020830184611f0e565b9392505050565b7f4f6e6c792061207265676973746572656420706861726d61636973742063616e5f8201527f2064697370656e73650000000000000000000000000000000000000000000000602082015250565b5f612e29602983611f27565b9150612e3482612dcf565b604082019050919050565b5f6020820190508181035f830152612e5681612e1d565b9050919050565b7f507265736372697074696f6e20616c72656164792064697370656e736564206f5f8201527f7220657870697265640000000000000000000000000000000000000000000000602082015250565b5f612eb7602983611f27565b9150612ec282612e5d565b604082019050919050565b5f6020820190508181035f830152612ee481612eab565b9050919050565b7f507265736372697074696f6e20686173206578706972656400000000000000005f82015250565b5f612f1f601883611f27565b9150612f2a82612eeb565b602082019050919050565b5f6020820190508181035f830152612f4c81612f13565b9050919050565b7f4e6f7420696e20495353554544207374617465000000000000000000000000005f82015250565b5f612f87601383611f27565b9150612f9282612f53565b602082019050919050565b5f6020820190508181035f830152612fb481612f7b565b9050919050565b7f507265736372697074696f6e20686173206e6f742065787069726564207965745f82015250565b5f612fef602083611f27565b9150612ffa82612fbb565b602082019050919050565b5f6020820190508181035f83015261301c81612fe3565b905091905056fea26469706673582212208338fcc3929b8d95924e2ebd374bbadabaaa6c1fde643351bc6b3d6cb54907c064736f6c63430008220033",
					"opcodes": "PUSH1 0x80 PUSH1 0x40 MSTORE PUSH1 0x1 PUSH0 SSTORE CALLVALUE DUP1 ISZERO PUSH2 0x13 JUMPI PUSH0 PUSH0 REVERT JUMPDEST POP PUSH1 0x40 MLOAD PUSH2 0x337A CODESIZE SUB DUP1 PUSH2 0x337A DUP4 CODECOPY DUP2 DUP2 ADD PUSH1 0x40 MSTORE DUP2 ADD SWAP1 PUSH2 0x35 SWAP2 SWAP1 PUSH2 0x1F6 JUMP JUMPDEST PUSH0 PUSH20 0xFFFFFFFFFFFFFFFFFFFFFFFFFFFFFFFFFFFFFFFF AND DUP3 PUSH20 0xFFFFFFFFFFFFFFFFFFFFFFFFFFFFFFFFFFFFFFFF AND SUB PUSH2 0xA3 JUMPI PUSH1 0x40 MLOAD PUSH32 0x8C379A000000000000000000000000000000000000000000000000000000000 DUP2 MSTORE PUSH1 0x4 ADD PUSH2 0x9A SWAP1 PUSH2 0x28E JUMP JUMPDEST PUSH1 0x40 MLOAD DUP1 SWAP2 SUB SWAP1 REVERT JUMPDEST PUSH0 PUSH20 0xFFFFFFFFFFFFFFFFFFFFFFFFFFFFFFFFFFFFFFFF AND DUP2 PUSH20 0xFFFFFFFFFFFFFFFFFFFFFFFFFFFFFFFFFFFFFFFF AND SUB PUSH2 0x111 JUMPI PUSH1 0x40 MLOAD PUSH32 0x8C379A000000000000000000000000000000000000000000000000000000000 DUP2 MSTORE PUSH1 0x4 ADD PUSH2 0x108 SWAP1 PUSH2 0x2F6 JUMP JUMPDEST PUSH1 0x40 MLOAD DUP1 SWAP2 SUB SWAP1 REVERT JUMPDEST DUP2 PUSH1 0x1 PUSH0 PUSH2 0x100 EXP DUP2 SLOAD DUP2 PUSH20 0xFFFFFFFFFFFFFFFFFFFFFFFFFFFFFFFFFFFFFFFF MUL NOT AND SWAP1 DUP4 PUSH20 0xFFFFFFFFFFFFFFFFFFFFFFFFFFFFFFFFFFFFFFFF AND MUL OR SWAP1 SSTORE POP DUP1 PUSH1 0x2 PUSH0 PUSH2 0x100 EXP DUP2 SLOAD DUP2 PUSH20 0xFFFFFFFFFFFFFFFFFFFFFFFFFFFFFFFFFFFFFFFF MUL NOT AND SWAP1 DUP4 PUSH20 0xFFFFFFFFFFFFFFFFFFFFFFFFFFFFFFFFFFFFFFFF AND MUL OR SWAP1 SSTORE POP POP POP PUSH2 0x314 JUMP JUMPDEST PUSH0 PUSH0 REVERT JUMPDEST PUSH0 PUSH20 0xFFFFFFFFFFFFFFFFFFFFFFFFFFFFFFFFFFFFFFFF DUP3 AND SWAP1 POP SWAP2 SWAP1 POP JUMP JUMPDEST PUSH0 PUSH2 0x1C5 DUP3 PUSH2 0x19C JUMP JUMPDEST SWAP1 POP SWAP2 SWAP1 POP JUMP JUMPDEST PUSH2 0x1D5 DUP2 PUSH2 0x1BB JUMP JUMPDEST DUP2 EQ PUSH2 0x1DF JUMPI PUSH0 PUSH0 REVERT JUMPDEST POP JUMP JUMPDEST PUSH0 DUP2 MLOAD SWAP1 POP PUSH2 0x1F0 DUP2 PUSH2 0x1CC JUMP JUMPDEST SWAP3 SWAP2 POP POP JUMP JUMPDEST PUSH0 PUSH0 PUSH1 0x40 DUP4 DUP6 SUB SLT ISZERO PUSH2 0x20C JUMPI PUSH2 0x20B PUSH2 0x198 JUMP JUMPDEST JUMPDEST PUSH0 PUSH2 0x219 DUP6 DUP3 DUP7 ADD PUSH2 0x1E2 JUMP JUMPDEST SWAP3 POP POP PUSH1 0x20 PUSH2 0x22A DUP6 DUP3 DUP7 ADD PUSH2 0x1E2 JUMP JUMPDEST SWAP2 POP POP SWAP3 POP SWAP3 SWAP1 POP JUMP JUMPDEST PUSH0 DUP3 DUP3 MSTORE PUSH1 0x20 DUP3 ADD SWAP1 POP SWAP3 SWAP2 POP POP JUMP JUMPDEST PUSH32 0x496E76616C6964206964656E7469747920636F6E747261637400000000000000 PUSH0 DUP3 ADD MSTORE POP JUMP JUMPDEST PUSH0 PUSH2 0x278 PUSH1 0x19 DUP4 PUSH2 0x234 JUMP JUMPDEST SWAP2 POP PUSH2 0x283 DUP3 PUSH2 0x244 JUMP JUMPDEST PUSH1 0x20 DUP3 ADD SWAP1 POP SWAP2 SWAP1 POP JUMP JUMPDEST PUSH0 PUSH1 0x20 DUP3 ADD SWAP1 POP DUP2 DUP2 SUB PUSH0 DUP4 ADD MSTORE PUSH2 0x2A5 DUP2 PUSH2 0x26C JUMP JUMPDEST SWAP1 POP SWAP2 SWAP1 POP JUMP JUMPDEST PUSH32 0x496E76616C69642061636365737320636F6E74726F6C20636F6E747261637400 PUSH0 DUP3 ADD MSTORE POP JUMP JUMPDEST PUSH0 PUSH2 0x2E0 PUSH1 0x1F DUP4 PUSH2 0x234 JUMP JUMPDEST SWAP2 POP PUSH2 0x2EB DUP3 PUSH2 0x2AC JUMP JUMPDEST PUSH1 0x20 DUP3 ADD SWAP1 POP SWAP2 SWAP1 POP JUMP JUMPDEST PUSH0 PUSH1 0x20 DUP3 ADD SWAP1 POP DUP2 DUP2 SUB PUSH0 DUP4 ADD MSTORE PUSH2 0x30D DUP2 PUSH2 0x2D4 JUMP JUMPDEST SWAP1 POP SWAP2 SWAP1 POP JUMP JUMPDEST PUSH2 0x3059 DUP1 PUSH2 0x321 PUSH0 CODECOPY PUSH0 RETURN INVALID PUSH1 0x80 PUSH1 0x40 MSTORE CALLVALUE DUP1 ISZERO PUSH2 0xF JUMPI PUSH0 PUSH0 REVERT JUMPDEST POP PUSH1 0x4 CALLDATASIZE LT PUSH2 0xF3 JUMPI PUSH0 CALLDATALOAD PUSH1 0xE0 SHR DUP1 PUSH4 0x81024971 GT PUSH2 0x95 JUMPI DUP1 PUSH4 0xE7A0E985 GT PUSH2 0x64 JUMPI DUP1 PUSH4 0xE7A0E985 EQ PUSH2 0x293 JUMPI DUP1 PUSH4 0xF115D955 EQ PUSH2 0x2C3 JUMPI DUP1 PUSH4 0xF49AC617 EQ PUSH2 0x2DF JUMPI DUP1 PUSH4 0xF84441B2 EQ PUSH2 0x30F JUMPI PUSH2 0xF3 JUMP JUMPDEST DUP1 PUSH4 0x81024971 EQ PUSH2 0x1F2 JUMPI DUP1 PUSH4 0xB6558498 EQ PUSH2 0x210 JUMPI DUP1 PUSH4 0xE0ACC698 EQ PUSH2 0x22E JUMPI DUP1 PUSH4 0xE437BEA4 EQ PUSH2 0x25E JUMPI PUSH2 0xF3 JUMP JUMPDEST DUP1 PUSH4 0x67031BAE GT PUSH2 0xD1 JUMPI DUP1 PUSH4 0x67031BAE EQ PUSH2 0x16C JUMPI DUP1 PUSH4 0x6F16AF10 EQ PUSH2 0x18A JUMPI DUP1 PUSH4 0x6F8D7BB8 EQ PUSH2 0x1BA JUMPI DUP1 PUSH4 0x734027E3 EQ PUSH2 0x1D6 JUMPI PUSH2 0xF3 JUMP JUMPDEST DUP1 PUSH4 0x13007D55 EQ PUSH2 0xF7 JUMPI DUP1 PUSH4 0x31DFC91B EQ PUSH2 0x115 JUMPI DUP1 PUSH4 0x380BD443 EQ PUSH2 0x14E JUMPI JUMPDEST PUSH0 PUSH0 REVERT JUMPDEST PUSH2 0xFF PUSH2 0x32B JUMP JUMPDEST PUSH1 0x40 MLOAD PUSH2 0x10C SWAP2 SWAP1 PUSH2 0x1E66 JUMP JUMPDEST PUSH1 0x40 MLOAD DUP1 SWAP2 SUB SWAP1 RETURN JUMPDEST PUSH2 0x12F PUSH1 0x4 DUP1 CALLDATASIZE SUB DUP2 ADD SWAP1 PUSH2 0x12A SWAP2 SWAP1 PUSH2 0x1EC3 JUMP JUMPDEST PUSH2 0x350 JUMP JUMPDEST PUSH1 0x40 MLOAD PUSH2 0x145 SWAP11 SWAP10 SWAP9 SWAP8 SWAP7 SWAP6 SWAP5 SWAP4 SWAP3 SWAP2 SWAP1 PUSH2 0x2000 JUMP JUMPDEST PUSH1 0x40 MLOAD DUP1 SWAP2 SUB SWAP1 RETURN JUMPDEST PUSH2 0x156 PUSH2 0x515 JUMP JUMPDEST PUSH1 0x40 MLOAD PUSH2 0x163 SWAP2 SWAP1 PUSH2 0x20A8 JUMP JUMPDEST PUSH1 0x40 MLOAD DUP1 SWAP2 SUB SWAP1 RETURN JUMPDEST PUSH2 0x174 PUSH2 0x51C JUMP JUMPDEST PUSH1 0x40 MLOAD PUSH2 0x181 SWAP2 SWAP1 PUSH2 0x20E1 JUMP JUMPDEST PUSH1 0x40 MLOAD DUP1 SWAP2 SUB SWAP1 RETURN JUMPDEST PUSH2 0x1A4 PUSH1 0x4 DUP1 CALLDATASIZE SUB DUP2 ADD SWAP1 PUSH2 0x19F SWAP2 SWAP1 PUSH2 0x1EC3 JUMP JUMPDEST PUSH2 0x541 JUMP JUMPDEST PUSH1 0x40 MLOAD PUSH2 0x1B1 SWAP2 SWAP1 PUSH2 0x224D JUMP JUMPDEST PUSH1 0x40 MLOAD DUP1 SWAP2 SUB SWAP1 RETURN JUMPDEST PUSH2 0x1D4 PUSH1 0x4 DUP1 CALLDATASIZE SUB DUP2 ADD SWAP1 PUSH2 0x1CF SWAP2 SWAP1 PUSH2 0x23C3 JUMP JUMPDEST PUSH2 0x842 JUMP JUMPDEST STOP JUMPDEST PUSH2 0x1F0 PUSH1 0x4 DUP1 CALLDATASIZE SUB DUP2 ADD SWAP1 PUSH2 0x1EB SWAP2 SWAP1 PUSH2 0x244B JUMP JUMPDEST PUSH2 0xCAF JUMP JUMPDEST STOP JUMPDEST PUSH2 0x1FA PUSH2 0x121D JUMP JUMPDEST PUSH1 0x40 MLOAD PUSH2 0x207 SWAP2 SWAP1 PUSH2 0x20A8 JUMP JUMPDEST PUSH1 0x40 MLOAD DUP1 SWAP2 SUB SWAP1 RETURN JUMPDEST PUSH2 0x218 PUSH2 0x1223 JUMP JUMPDEST PUSH1 0x40 MLOAD PUSH2 0x225 SWAP2 SWAP1 PUSH2 0x20A8 JUMP JUMPDEST PUSH1 0x40 MLOAD DUP1 SWAP2 SUB SWAP1 RETURN JUMPDEST PUSH2 0x248 PUSH1 0x4 DUP1 CALLDATASIZE SUB DUP2 ADD SWAP1 PUSH2 0x243 SWAP2 SWAP1 PUSH2 0x24E7 JUMP JUMPDEST PUSH2 0x1229 JUMP JUMPDEST PUSH1 0x40 MLOAD PUSH2 0x255 SWAP2 SWAP1 PUSH2 0x25BA JUMP JUMPDEST PUSH1 0x40 MLOAD DUP1 SWAP2 SUB SWAP1 RETURN JUMPDEST PUSH2 0x278 PUSH1 0x4 DUP1 CALLDATASIZE SUB DUP2 ADD SWAP1 PUSH2 0x273 SWAP2 SWAP1 PUSH2 0x1EC3 JUMP JUMPDEST PUSH2 0x12BC JUMP JUMPDEST PUSH1 0x40 MLOAD PUSH2 0x28A SWAP7 SWAP6 SWAP5 SWAP4 SWAP3 SWAP2 SWAP1 PUSH2 0x25DA JUMP JUMPDEST PUSH1 0x40 MLOAD DUP1 SWAP2 SUB SWAP1 RETURN JUMPDEST PUSH2 0x2AD PUSH1 0x4 DUP1 CALLDATASIZE SUB DUP2 ADD SWAP1 PUSH2 0x2A8 SWAP2 SWAP1 PUSH2 0x1EC3 JUMP JUMPDEST PUSH2 0x143E JUMP JUMPDEST PUSH1 0x40 MLOAD PUSH2 0x2BA SWAP2 SWAP1 PUSH2 0x2661 JUMP JUMPDEST PUSH1 0x40 MLOAD DUP1 SWAP2 SUB SWAP1 RETURN JUMPDEST PUSH2 0x2DD PUSH1 0x4 DUP1 CALLDATASIZE SUB DUP2 ADD SWAP1 PUSH2 0x2D8 SWAP2 SWAP1 PUSH2 0x1EC3 JUMP JUMPDEST PUSH2 0x1730 JUMP JUMPDEST STOP JUMPDEST PUSH2 0x2F9 PUSH1 0x4 DUP1 CALLDATASIZE SUB DUP2 ADD SWAP1 PUSH2 0x2F4 SWAP2 SWAP1 PUSH2 0x24E7 JUMP JUMPDEST PUSH2 0x1B02 JUMP JUMPDEST PUSH1 0x40 MLOAD PUSH2 0x306 SWAP2 SWAP1 PUSH2 0x25BA JUMP JUMPDEST PUSH1 0x40 MLOAD DUP1 SWAP2 SUB SWAP1 RETURN JUMPDEST PUSH2 0x329 PUSH1 0x4 DUP1 CALLDATASIZE SUB DUP2 ADD SWAP1 PUSH2 0x324 SWAP2 SWAP1 PUSH2 0x1EC3 JUMP JUMPDEST PUSH2 0x1B95 JUMP JUMPDEST STOP JUMPDEST PUSH1 0x2 PUSH0 SWAP1 SLOAD SWAP1 PUSH2 0x100 EXP SWAP1 DIV PUSH20 0xFFFFFFFFFFFFFFFFFFFFFFFFFFFFFFFFFFFFFFFF AND DUP2 JUMP JUMPDEST PUSH1 0x6 PUSH1 0x20 MSTORE DUP1 PUSH0 MSTORE PUSH1 0x40 PUSH0 KECCAK256 PUSH0 SWAP2 POP SWAP1 POP DUP1 PUSH0 ADD SLOAD SWAP1 DUP1 PUSH1 0x1 ADD PUSH0 SWAP1 SLOAD SWAP1 PUSH2 0x100 EXP SWAP1 DIV PUSH20 0xFFFFFFFFFFFFFFFFFFFFFFFFFFFFFFFFFFFFFFFF AND SWAP1 DUP1 PUSH1 0x2 ADD PUSH0 SWAP1 SLOAD SWAP1 PUSH2 0x100 EXP SWAP1 DIV PUSH20 0xFFFFFFFFFFFFFFFFFFFFFFFFFFFFFFFFFFFFFFFF AND SWAP1 DUP1 PUSH1 0x3 ADD DUP1 SLOAD PUSH2 0x3BF SWAP1 PUSH2 0x26A7 JUMP JUMPDEST DUP1 PUSH1 0x1F ADD PUSH1 0x20 DUP1 SWAP2 DIV MUL PUSH1 0x20 ADD PUSH1 0x40 MLOAD SWAP1 DUP2 ADD PUSH1 0x40 MSTORE DUP1 SWAP3 SWAP2 SWAP1 DUP2 DUP2 MSTORE PUSH1 0x20 ADD DUP3 DUP1 SLOAD PUSH2 0x3EB SWAP1 PUSH2 0x26A7 JUMP JUMPDEST DUP1 ISZERO PUSH2 0x436 JUMPI DUP1 PUSH1 0x1F LT PUSH2 0x40D JUMPI PUSH2 0x100 DUP1 DUP4 SLOAD DIV MUL DUP4 MSTORE SWAP2 PUSH1 0x20 ADD SWAP2 PUSH2 0x436 JUMP JUMPDEST DUP3 ADD SWAP2 SWAP1 PUSH0 MSTORE PUSH1 0x20 PUSH0 KECCAK256 SWAP1 JUMPDEST DUP2 SLOAD DUP2 MSTORE SWAP1 PUSH1 0x1 ADD SWAP1 PUSH1 0x20 ADD DUP1 DUP4 GT PUSH2 0x419 JUMPI DUP3 SWAP1 SUB PUSH1 0x1F AND DUP3 ADD SWAP2 JUMPDEST POP POP POP POP POP SWAP1 DUP1 PUSH1 0x4 ADD DUP1 SLOAD PUSH2 0x44B SWAP1 PUSH2 0x26A7 JUMP JUMPDEST DUP1 PUSH1 0x1F ADD PUSH1 0x20 DUP1 SWAP2 DIV MUL PUSH1 0x20 ADD PUSH1 0x40 MLOAD SWAP1 DUP2 ADD PUSH1 0x40 MSTORE DUP1 SWAP3 SWAP2 SWAP1 DUP2 DUP2 MSTORE PUSH1 0x20 ADD DUP3 DUP1 SLOAD PUSH2 0x477 SWAP1 PUSH2 0x26A7 JUMP JUMPDEST DUP1 ISZERO PUSH2 0x4C2 JUMPI DUP1 PUSH1 0x1F LT PUSH2 0x499 JUMPI PUSH2 0x100 DUP1 DUP4 SLOAD DIV MUL DUP4 MSTORE SWAP2 PUSH1 0x20 ADD SWAP2 PUSH2 0x4C2 JUMP JUMPDEST DUP3 ADD SWAP2 SWAP1 PUSH0 MSTORE PUSH1 0x20 PUSH0 KECCAK256 SWAP1 JUMPDEST DUP2 SLOAD DUP2 MSTORE SWAP1 PUSH1 0x1 ADD SWAP1 PUSH1 0x20 ADD DUP1 DUP4 GT PUSH2 0x4A5 JUMPI DUP3 SWAP1 SUB PUSH1 0x1F AND DUP3 ADD SWAP2 JUMPDEST POP POP POP POP POP SWAP1 DUP1 PUSH1 0x5 ADD PUSH0 SWAP1 SLOAD SWAP1 PUSH2 0x100 EXP SWAP1 DIV PUSH1 0xFF AND SWAP1 DUP1 PUSH1 0x6 ADD SLOAD SWAP1 DUP1 PUSH1 0x7 ADD SLOAD SWAP1 DUP1 PUSH1 0x8 ADD PUSH0 SWAP1 SLOAD SWAP1 PUSH2 0x100 EXP SWAP1 DIV PUSH20 0xFFFFFFFFFFFFFFFFFFFFFFFFFFFFFFFFFFFFFFFF AND SWAP1 DUP1 PUSH1 0x9 ADD SLOAD SWAP1 POP DUP11 JUMP JUMPDEST PUSH3 0xED4E00 DUP2 JUMP JUMPDEST PUSH1 0x1 PUSH0 SWAP1 SLOAD SWAP1 PUSH2 0x100 EXP SWAP1 DIV PUSH20 0xFFFFFFFFFFFFFFFFFFFFFFFFFFFFFFFFFFFFFFFF AND DUP2 JUMP JUMPDEST PUSH2 0x549 PUSH2 0x1D4D JUMP JUMPDEST PUSH0 PUSH1 0x6 PUSH0 DUP5 DUP2 MSTORE PUSH1 0x20 ADD SWAP1 DUP2 MSTORE PUSH1 0x20 ADD PUSH0 KECCAK256 PUSH0 ADD SLOAD SUB PUSH2 0x59E JUMPI PUSH1 0x40 MLOAD PUSH32 0x8C379A000000000000000000000000000000000000000000000000000000000 DUP2 MSTORE PUSH1 0x4 ADD PUSH2 0x595 SWAP1 PUSH2 0x2721 JUMP JUMPDEST PUSH1 0x40 MLOAD DUP1 SWAP2 SUB SWAP1 REVERT JUMPDEST PUSH1 0x6 PUSH0 DUP4 DUP2 MSTORE PUSH1 0x20 ADD SWAP1 DUP2 MSTORE PUSH1 0x20 ADD PUSH0 KECCAK256 PUSH1 0x40 MLOAD DUP1 PUSH2 0x140 ADD PUSH1 0x40 MSTORE SWAP1 DUP2 PUSH0 DUP3 ADD SLOAD DUP2 MSTORE PUSH1 0x20 ADD PUSH1 0x1 DUP3 ADD PUSH0 SWAP1 SLOAD SWAP1 PUSH2 0x100 EXP SWAP1 DIV PUSH20 0xFFFFFFFFFFFFFFFFFFFFFFFFFFFFFFFFFFFFFFFF AND PUSH20 0xFFFFFFFFFFFFFFFFFFFFFFFFFFFFFFFFFFFFFFFF AND PUSH20 0xFFFFFFFFFFFFFFFFFFFFFFFFFFFFFFFFFFFFFFFF AND DUP2 MSTORE PUSH1 0x20 ADD PUSH1 0x2 DUP3 ADD PUSH0 SWAP1 SLOAD SWAP1 PUSH2 0x100 EXP SWAP1 DIV PUSH20 0xFFFFFFFFFFFFFFFFFFFFFFFFFFFFFFFFFFFFFFFF AND PUSH20 0xFFFFFFFFFFFFFFFFFFFFFFFFFFFFFFFFFFFFFFFF AND PUSH20 0xFFFFFFFFFFFFFFFFFFFFFFFFFFFFFFFFFFFFFFFF AND DUP2 MSTORE PUSH1 0x20 ADD PUSH1 0x3 DUP3 ADD DUP1 SLOAD PUSH2 0x67E SWAP1 PUSH2 0x26A7 JUMP JUMPDEST DUP1 PUSH1 0x1F ADD PUSH1 0x20 DUP1 SWAP2 DIV MUL PUSH1 0x20 ADD PUSH1 0x40 MLOAD SWAP1 DUP2 ADD PUSH1 0x40 MSTORE DUP1 SWAP3 SWAP2 SWAP1 DUP2 DUP2 MSTORE PUSH1 0x20 ADD DUP3 DUP1 SLOAD PUSH2 0x6AA SWAP1 PUSH2 0x26A7 JUMP JUMPDEST DUP1 ISZERO PUSH2 0x6F5 JUMPI DUP1 PUSH1 0x1F LT PUSH2 0x6CC JUMPI PUSH2 0x100 DUP1 DUP4 SLOAD DIV MUL DUP4 MSTORE SWAP2 PUSH1 0x20 ADD SWAP2 PUSH2 0x6F5 JUMP JUMPDEST DUP3 ADD SWAP2 SWAP1 PUSH0 MSTORE PUSH1 0x20 PUSH0 KECCAK256 SWAP1 JUMPDEST DUP2 SLOAD DUP2 MSTORE SWAP1 PUSH1 0x1 ADD SWAP1 PUSH1 0x20 ADD DUP1 DUP4 GT PUSH2 0x6D8 JUMPI DUP3 SWAP1 SUB PUSH1 0x1F AND DUP3 ADD SWAP2 JUMPDEST POP POP POP POP POP DUP2 MSTORE PUSH1 0x20 ADD PUSH1 0x4 DUP3 ADD DUP1 SLOAD PUSH2 0x70E SWAP1 PUSH2 0x26A7 JUMP JUMPDEST DUP1 PUSH1 0x1F ADD PUSH1 0x20 DUP1 SWAP2 DIV MUL PUSH1 0x20 ADD PUSH1 0x40 MLOAD SWAP1 DUP2 ADD PUSH1 0x40 MSTORE DUP1 SWAP3 SWAP2 SWAP1 DUP2 DUP2 MSTORE PUSH1 0x20 ADD DUP3 DUP1 SLOAD PUSH2 0x73A SWAP1 PUSH2 0x26A7 JUMP JUMPDEST DUP1 ISZERO PUSH2 0x785 JUMPI DUP1 PUSH1 0x1F LT PUSH2 0x75C JUMPI PUSH2 0x100 DUP1 DUP4 SLOAD DIV MUL DUP4 MSTORE SWAP2 PUSH1 0x20 ADD SWAP2 PUSH2 0x785 JUMP JUMPDEST DUP3 ADD SWAP2 SWAP1 PUSH0 MSTORE PUSH1 0x20 PUSH0 KECCAK256 SWAP1 JUMPDEST DUP2 SLOAD DUP2 MSTORE SWAP1 PUSH1 0x1 ADD SWAP1 PUSH1 0x20 ADD DUP1 DUP4 GT PUSH2 0x768 JUMPI DUP3 SWAP1 SUB PUSH1 0x1F AND DUP3 ADD SWAP2 JUMPDEST POP POP POP POP POP DUP2 MSTORE PUSH1 0x20 ADD PUSH1 0x5 DUP3 ADD PUSH0 SWAP1 SLOAD SWAP1 PUSH2 0x100 EXP SWAP1 DIV PUSH1 0xFF AND PUSH1 0x2 DUP2 GT ISZERO PUSH2 0x7B2 JUMPI PUSH2 0x7B1 PUSH2 0x1F8D JUMP JUMPDEST JUMPDEST PUSH1 0x2 DUP2 GT ISZERO PUSH2 0x7C4 JUMPI PUSH2 0x7C3 PUSH2 0x1F8D JUMP JUMPDEST JUMPDEST DUP2 MSTORE PUSH1 0x20 ADD PUSH1 0x6 DUP3 ADD SLOAD DUP2 MSTORE PUSH1 0x20 ADD PUSH1 0x7 DUP3 ADD SLOAD DUP2 MSTORE PUSH1 0x20 ADD PUSH1 0x8 DUP3 ADD PUSH0 SWAP1 SLOAD SWAP1 PUSH2 0x100 EXP SWAP1 DIV PUSH20 0xFFFFFFFFFFFFFFFFFFFFFFFFFFFFFFFFFFFFFFFF AND PUSH20 0xFFFFFFFFFFFFFFFFFFFFFFFFFFFFFFFFFFFFFFFF AND PUSH20 0xFFFFFFFFFFFFFFFFFFFFFFFFFFFFFFFFFFFFFFFF AND DUP2 MSTORE PUSH1 0x20 ADD PUSH1 0x9 DUP3 ADD SLOAD DUP2 MSTORE POP POP SWAP1 POP SWAP2 SWAP1 POP JUMP JUMPDEST DUP3 PUSH1 0x1 PUSH0 SWAP1 SLOAD SWAP1 PUSH2 0x100 EXP SWAP1 DIV PUSH20 0xFFFFFFFFFFFFFFFFFFFFFFFFFFFFFFFFFFFFFFFF AND PUSH20 0xFFFFFFFFFFFFFFFFFFFFFFFFFFFFFFFFFFFFFFFF AND PUSH4 0x3C4F7A9D DUP3 PUSH1 0x40 MLOAD DUP3 PUSH4 0xFFFFFFFF AND PUSH1 0xE0 SHL DUP2 MSTORE PUSH1 0x4 ADD PUSH2 0x89D SWAP2 SWAP1 PUSH2 0x273F JUMP JUMPDEST PUSH1 0x20 PUSH1 0x40 MLOAD DUP1 DUP4 SUB DUP2 DUP7 GAS STATICCALL ISZERO DUP1 ISZERO PUSH2 0x8B8 JUMPI RETURNDATASIZE PUSH0 PUSH0 RETURNDATACOPY RETURNDATASIZE PUSH0 REVERT JUMPDEST POP POP POP POP PUSH1 0x40 MLOAD RETURNDATASIZE PUSH1 0x1F NOT PUSH1 0x1F DUP3 ADD AND DUP3 ADD DUP1 PUSH1 0x40 MSTORE POP DUP2 ADD SWAP1 PUSH2 0x8DC SWAP2 SWAP1 PUSH2 0x2782 JUMP JUMPDEST PUSH2 0x91B JUMPI PUSH1 0x40 MLOAD PUSH32 0x8C379A000000000000000000000000000000000000000000000000000000000 DUP2 MSTORE PUSH1 0x4 ADD PUSH2 0x912 SWAP1 PUSH2 0x27F7 JUMP JUMPDEST PUSH1 0x40 MLOAD DUP1 SWAP2 SUB SWAP1 REVERT JUMPDEST DUP4 PUSH1 0x1 PUSH0 SWAP1 SLOAD SWAP1 PUSH2 0x100 EXP SWAP1 DIV PUSH20 0xFFFFFFFFFFFFFFFFFFFFFFFFFFFFFFFFFFFFFFFF AND PUSH20 0xFFFFFFFFFFFFFFFFFFFFFFFFFFFFFFFFFFFFFFFF AND PUSH4 0xA6D41F33 DUP3 CALLER PUSH1 0x40 MLOAD DUP4 PUSH4 0xFFFFFFFF AND PUSH1 0xE0 SHL DUP2 MSTORE PUSH1 0x4 ADD PUSH2 0x978 SWAP3 SWAP2 SWAP1 PUSH2 0x2815 JUMP JUMPDEST PUSH1 0x20 PUSH1 0x40 MLOAD DUP1 DUP4 SUB DUP2 DUP7 GAS STATICCALL ISZERO DUP1 ISZERO PUSH2 0x993 JUMPI RETURNDATASIZE PUSH0 PUSH0 RETURNDATACOPY RETURNDATASIZE PUSH0 REVERT JUMPDEST POP POP POP POP PUSH1 0x40 MLOAD RETURNDATASIZE PUSH1 0x1F NOT PUSH1 0x1F DUP3 ADD AND DUP3 ADD DUP1 PUSH1 0x40 MSTORE POP DUP2 ADD SWAP1 PUSH2 0x9B7 SWAP2 SWAP1 PUSH2 0x2782 JUMP JUMPDEST PUSH2 0x9F6 JUMPI PUSH1 0x40 MLOAD PUSH32 0x8C379A000000000000000000000000000000000000000000000000000000000 DUP2 MSTORE PUSH1 0x4 ADD PUSH2 0x9ED SWAP1 PUSH2 0x2886 JUMP JUMPDEST PUSH1 0x40 MLOAD DUP1 SWAP2 SUB SWAP1 REVERT JUMPDEST PUSH1 0x1 PUSH0 SLOAD EQ PUSH2 0xA3A JUMPI PUSH1 0x40 MLOAD PUSH32 0x8C379A000000000000000000000000000000000000000000000000000000000 DUP2 MSTORE PUSH1 0x4 ADD PUSH2 0xA31 SWAP1 PUSH2 0x28EE JUMP JUMPDEST PUSH1 0x40 MLOAD DUP1 SWAP2 SUB SWAP1 REVERT JUMPDEST PUSH1 0x2 PUSH0 DUP2 SWAP1 SSTORE POP PUSH0 DUP5 MLOAD GT PUSH2 0xA84 JUMPI PUSH1 0x40 MLOAD PUSH32 0x8C379A000000000000000000000000000000000000000000000000000000000 DUP2 MSTORE PUSH1 0x4 ADD PUSH2 0xA7B SWAP1 PUSH2 0x2956 JUMP JUMPDEST PUSH1 0x40 MLOAD DUP1 SWAP2 SUB SWAP1 REVERT JUMPDEST PUSH1 0x3 PUSH0 DUP2 SLOAD DUP1 SWAP3 SWAP2 SWAP1 PUSH2 0xA96 SWAP1 PUSH2 0x29A1 JUMP JUMPDEST SWAP2 SWAP1 POP SSTORE POP PUSH1 0x40 MLOAD DUP1 PUSH1 0xC0 ADD PUSH1 0x40 MSTORE DUP1 PUSH1 0x3 SLOAD DUP2 MSTORE PUSH1 0x20 ADD DUP7 PUSH20 0xFFFFFFFFFFFFFFFFFFFFFFFFFFFFFFFFFFFFFFFF AND DUP2 MSTORE PUSH1 0x20 ADD CALLER PUSH20 0xFFFFFFFFFFFFFFFFFFFFFFFFFFFFFFFFFFFFFFFF AND DUP2 MSTORE PUSH1 0x20 ADD DUP6 DUP2 MSTORE PUSH1 0x20 ADD DUP5 DUP2 MSTORE PUSH1 0x20 ADD TIMESTAMP DUP2 MSTORE POP PUSH1 0x5 PUSH0 PUSH1 0x3 SLOAD DUP2 MSTORE PUSH1 0x20 ADD SWAP1 DUP2 MSTORE PUSH1 0x20 ADD PUSH0 KECCAK256 PUSH0 DUP3 ADD MLOAD DUP2 PUSH0 ADD SSTORE PUSH1 0x20 DUP3 ADD MLOAD DUP2 PUSH1 0x1 ADD PUSH0 PUSH2 0x100 EXP DUP2 SLOAD DUP2 PUSH20 0xFFFFFFFFFFFFFFFFFFFFFFFFFFFFFFFFFFFFFFFF MUL NOT AND SWAP1 DUP4 PUSH20 0xFFFFFFFFFFFFFFFFFFFFFFFFFFFFFFFFFFFFFFFF AND MUL OR SWAP1 SSTORE POP PUSH1 0x40 DUP3 ADD MLOAD DUP2 PUSH1 0x2 ADD PUSH0 PUSH2 0x100 EXP DUP2 SLOAD DUP2 PUSH20 0xFFFFFFFFFFFFFFFFFFFFFFFFFFFFFFFFFFFFFFFF MUL NOT AND SWAP1 DUP4 PUSH20 0xFFFFFFFFFFFFFFFFFFFFFFFFFFFFFFFFFFFFFFFF AND MUL OR SWAP1 SSTORE POP PUSH1 0x60 DUP3 ADD MLOAD DUP2 PUSH1 0x3 ADD SWAP1 DUP2 PUSH2 0xBB2 SWAP2 SWAP1 PUSH2 0x2B90 JUMP JUMPDEST POP PUSH1 0x80 DUP3 ADD MLOAD DUP2 PUSH1 0x4 ADD SWAP1 DUP2 PUSH2 0xBC8 SWAP2 SWAP1 PUSH2 0x2B90 JUMP JUMPDEST POP PUSH1 0xA0 DUP3 ADD MLOAD DUP2 PUSH1 0x5 ADD SSTORE SWAP1 POP POP PUSH1 0x8 PUSH0 DUP7 PUSH20 0xFFFFFFFFFFFFFFFFFFFFFFFFFFFFFFFFFFFFFFFF AND PUSH20 0xFFFFFFFFFFFFFFFFFFFFFFFFFFFFFFFFFFFFFFFF AND DUP2 MSTORE PUSH1 0x20 ADD SWAP1 DUP2 MSTORE PUSH1 0x20 ADD PUSH0 KECCAK256 PUSH1 0x3 SLOAD SWAP1 DUP1 PUSH1 0x1 DUP2 SLOAD ADD DUP1 DUP3 SSTORE DUP1 SWAP2 POP POP PUSH1 0x1 SWAP1 SUB SWAP1 PUSH0 MSTORE PUSH1 0x20 PUSH0 KECCAK256 ADD PUSH0 SWAP1 SWAP2 SWAP1 SWAP2 SWAP1 SWAP2 POP SSTORE CALLER PUSH20 0xFFFFFFFFFFFFFFFFFFFFFFFFFFFFFFFFFFFFFFFF AND DUP6 PUSH20 0xFFFFFFFFFFFFFFFFFFFFFFFFFFFFFFFFFFFFFFFF AND PUSH1 0x3 SLOAD PUSH32 0x6CA89A3857C332E284F88F7589095EE9A2F29A5564C0A2D6AEA4466332CE4FC6 TIMESTAMP PUSH1 0x40 MLOAD PUSH2 0xC99 SWAP2 SWAP1 PUSH2 0x20A8 JUMP JUMPDEST PUSH1 0x40 MLOAD DUP1 SWAP2 SUB SWAP1 LOG4 PUSH1 0x1 PUSH0 DUP2 SWAP1 SSTORE POP POP POP POP POP POP JUMP JUMPDEST DUP4 PUSH1 0x1 PUSH0 SWAP1 SLOAD SWAP1 PUSH2 0x100 EXP SWAP1 DIV PUSH20 0xFFFFFFFFFFFFFFFFFFFFFFFFFFFFFFFFFFFFFFFF AND PUSH20 0xFFFFFFFFFFFFFFFFFFFFFFFFFFFFFFFFFFFFFFFF AND PUSH4 0x3C4F7A9D DUP3 PUSH1 0x40 MLOAD DUP3 PUSH4 0xFFFFFFFF AND PUSH1 0xE0 SHL DUP2 MSTORE PUSH1 0x4 ADD PUSH2 0xD0A SWAP2 SWAP1 PUSH2 0x273F JUMP JUMPDEST PUSH1 0x20 PUSH1 0x40 MLOAD DUP1 DUP4 SUB DUP2 DUP7 GAS STATICCALL ISZERO DUP1 ISZERO PUSH2 0xD25 JUMPI RETURNDATASIZE PUSH0 PUSH0 RETURNDATACOPY RETURNDATASIZE PUSH0 REVERT JUMPDEST POP POP POP POP PUSH1 0x40 MLOAD RETURNDATASIZE PUSH1 0x1F NOT PUSH1 0x1F DUP3 ADD AND DUP3 ADD DUP1 PUSH1 0x40 MSTORE POP DUP2 ADD SWAP1 PUSH2 0xD49 SWAP2 SWAP1 PUSH2 0x2782 JUMP JUMPDEST PUSH2 0xD88 JUMPI PUSH1 0x40 MLOAD PUSH32 0x8C379A000000000000000000000000000000000000000000000000000000000 DUP2 MSTORE PUSH1 0x4 ADD PUSH2 0xD7F SWAP1 PUSH2 0x27F7 JUMP JUMPDEST PUSH1 0x40 MLOAD DUP1 SWAP2 SUB SWAP1 REVERT JUMPDEST DUP5 PUSH1 0x1 PUSH0 SWAP1 SLOAD SWAP1 PUSH2 0x100 EXP SWAP1 DIV PUSH20 0xFFFFFFFFFFFFFFFFFFFFFFFFFFFFFFFFFFFFFFFF AND PUSH20 0xFFFFFFFFFFFFFFFFFFFFFFFFFFFFFFFFFFFFFFFF AND PUSH4 0xA6D41F33 DUP3 CALLER PUSH1 0x40 MLOAD DUP4 PUSH4 0xFFFFFFFF AND PUSH1 0xE0 SHL DUP2 MSTORE PUSH1 0x4 ADD PUSH2 0xDE5 SWAP3 SWAP2 SWAP1 PUSH2 0x2815 JUMP JUMPDEST PUSH1 0x20 PUSH1 0x40 MLOAD DUP1 DUP4 SUB DUP2 DUP7 GAS STATICCALL ISZERO DUP1 ISZERO PUSH2 0xE00 JUMPI RETURNDATASIZE PUSH0 PUSH0 RETURNDATACOPY RETURNDATASIZE PUSH0 REVERT JUMPDEST POP POP POP POP PUSH1 0x40 MLOAD RETURNDATASIZE PUSH1 0x1F NOT PUSH1 0x1F DUP3 ADD AND DUP3 ADD DUP1 PUSH1 0x40 MSTORE POP DUP2 ADD SWAP1 PUSH2 0xE24 SWAP2 SWAP1 PUSH2 0x2782 JUMP JUMPDEST PUSH2 0xE63 JUMPI PUSH1 0x40 MLOAD PUSH32 0x8C379A000000000000000000000000000000000000000000000000000000000 DUP2 MSTORE PUSH1 0x4 ADD PUSH2 0xE5A SWAP1 PUSH2 0x2886 JUMP JUMPDEST PUSH1 0x40 MLOAD DUP1 SWAP2 SUB SWAP1 REVERT JUMPDEST PUSH1 0x1 PUSH0 SLOAD EQ PUSH2 0xEA7 JUMPI PUSH1 0x40 MLOAD PUSH32 0x8C379A000000000000000000000000000000000000000000000000000000000 DUP2 MSTORE PUSH1 0x4 ADD PUSH2 0xE9E SWAP1 PUSH2 0x28EE JUMP JUMPDEST PUSH1 0x40 MLOAD DUP1 SWAP2 SUB SWAP1 REVERT JUMPDEST PUSH1 0x2 PUSH0 DUP2 SWAP1 SSTORE POP PUSH0 DUP6 MLOAD GT PUSH2 0xEF1 JUMPI PUSH1 0x40 MLOAD PUSH32 0x8C379A000000000000000000000000000000000000000000000000000000000 DUP2 MSTORE PUSH1 0x4 ADD PUSH2 0xEE8 SWAP1 PUSH2 0x2CA9 JUMP JUMPDEST PUSH1 0x40 MLOAD DUP1 SWAP2 SUB SWAP1 REVERT JUMPDEST PUSH0 PUSH0 DUP5 EQ PUSH2 0xF0D JUMPI PUSH3 0x15180 DUP5 PUSH2 0xF08 SWAP2 SWAP1 PUSH2 0x2CC7 JUMP JUMPDEST PUSH2 0xF12 JUMP JUMPDEST PUSH3 0xED4E00 JUMPDEST SWAP1 POP PUSH0 DUP2 TIMESTAMP PUSH2 0xF21 SWAP2 SWAP1 PUSH2 0x2D08 JUMP JUMPDEST SWAP1 POP PUSH1 0x4 PUSH0 DUP2 SLOAD DUP1 SWAP3 SWAP2 SWAP1 PUSH2 0xF35 SWAP1 PUSH2 0x29A1 JUMP JUMPDEST SWAP2 SWAP1 POP SSTORE POP PUSH1 0x40 MLOAD DUP1 PUSH2 0x140 ADD PUSH1 0x40 MSTORE DUP1 PUSH1 0x4 SLOAD DUP2 MSTORE PUSH1 0x20 ADD DUP10 PUSH20 0xFFFFFFFFFFFFFFFFFFFFFFFFFFFFFFFFFFFFFFFF AND DUP2 MSTORE PUSH1 0x20 ADD CALLER PUSH20 0xFFFFFFFFFFFFFFFFFFFFFFFFFFFFFFFFFFFFFFFF AND DUP2 MSTORE PUSH1 0x20 ADD DUP9 DUP2 MSTORE PUSH1 0x20 ADD DUP8 DUP2 MSTORE PUSH1 0x20 ADD PUSH0 PUSH1 0x2 DUP2 GT ISZERO PUSH2 0xFA5 JUMPI PUSH2 0xFA4 PUSH2 0x1F8D JUMP JUMPDEST JUMPDEST DUP2 MSTORE PUSH1 0x20 ADD TIMESTAMP DUP2 MSTORE PUSH1 0x20 ADD DUP3 DUP2 MSTORE PUSH1 0x20 ADD PUSH0 PUSH20 0xFFFFFFFFFFFFFFFFFFFFFFFFFFFFFFFFFFFFFFFF AND DUP2 MSTORE PUSH1 0x20 ADD PUSH0 DUP2 MSTORE POP PUSH1 0x6 PUSH0 PUSH1 0x4 SLOAD DUP2 MSTORE PUSH1 0x20 ADD SWAP1 DUP2 MSTORE PUSH1 0x20 ADD PUSH0 KECCAK256 PUSH0 DUP3 ADD MLOAD DUP2 PUSH0 ADD SSTORE PUSH1 0x20 DUP3 ADD MLOAD DUP2 PUSH1 0x1 ADD PUSH0 PUSH2 0x100 EXP DUP2 SLOAD DUP2 PUSH20 0xFFFFFFFFFFFFFFFFFFFFFFFFFFFFFFFFFFFFFFFF MUL NOT AND SWAP1 DUP4 PUSH20 0xFFFFFFFFFFFFFFFFFFFFFFFFFFFFFFFFFFFFFFFF AND MUL OR SWAP1 SSTORE POP PUSH1 0x40 DUP3 ADD MLOAD DUP2 PUSH1 0x2 ADD PUSH0 PUSH2 0x100 EXP DUP2 SLOAD DUP2 PUSH20 0xFFFFFFFFFFFFFFFFFFFFFFFFFFFFFFFFFFFFFFFF MUL NOT AND SWAP1 DUP4 PUSH20 0xFFFFFFFFFFFFFFFFFFFFFFFFFFFFFFFFFFFFFFFF AND MUL OR SWAP1 SSTORE POP PUSH1 0x60 DUP3 ADD MLOAD DUP2 PUSH1 0x3 ADD SWAP1 DUP2 PUSH2 0x1092 SWAP2 SWAP1 PUSH2 0x2B90 JUMP JUMPDEST POP PUSH1 0x80 DUP3 ADD MLOAD DUP2 PUSH1 0x4 ADD SWAP1 DUP2 PUSH2 0x10A8 SWAP2 SWAP1 PUSH2 0x2B90 JUMP JUMPDEST POP PUSH1 0xA0 DUP3 ADD MLOAD DUP2 PUSH1 0x5 ADD PUSH0 PUSH2 0x100 EXP DUP2 SLOAD DUP2 PUSH1 0xFF MUL NOT AND SWAP1 DUP4 PUSH1 0x2 DUP2 GT ISZERO PUSH2 0x10D3 JUMPI PUSH2 0x10D2 PUSH2 0x1F8D JUMP JUMPDEST JUMPDEST MUL OR SWAP1 SSTORE POP PUSH1 0xC0 DUP3 ADD MLOAD DUP2 PUSH1 0x6 ADD SSTORE PUSH1 0xE0 DUP3 ADD MLOAD DUP2 PUSH1 0x7 ADD SSTORE PUSH2 0x100 DUP3 ADD MLOAD DUP2 PUSH1 0x8 ADD PUSH0 PUSH2 0x100 EXP DUP2 SLOAD DUP2 PUSH20 0xFFFFFFFFFFFFFFFFFFFFFFFFFFFFFFFFFFFFFFFF MUL NOT AND SWAP1 DUP4 PUSH20 0xFFFFFFFFFFFFFFFFFFFFFFFFFFFFFFFFFFFFFFFF AND MUL OR SWAP1 SSTORE POP PUSH2 0x120 DUP3 ADD MLOAD DUP2 PUSH1 0x9 ADD SSTORE SWAP1 POP POP PUSH1 0x7 PUSH0 DUP10 PUSH20 0xFFFFFFFFFFFFFFFFFFFFFFFFFFFFFFFFFFFFFFFF AND PUSH20 0xFFFFFFFFFFFFFFFFFFFFFFFFFFFFFFFFFFFFFFFF AND DUP2 MSTORE PUSH1 0x20 ADD SWAP1 DUP2 MSTORE PUSH1 0x20 ADD PUSH0 KECCAK256 PUSH1 0x4 SLOAD SWAP1 DUP1 PUSH1 0x1 DUP2 SLOAD ADD DUP1 DUP3 SSTORE DUP1 SWAP2 POP POP PUSH1 0x1 SWAP1 SUB SWAP1 PUSH0 MSTORE PUSH1 0x20 PUSH0 KECCAK256 ADD PUSH0 SWAP1 SWAP2 SWAP1 SWAP2 SWAP1 SWAP2 POP SSTORE CALLER PUSH20 0xFFFFFFFFFFFFFFFFFFFFFFFFFFFFFFFFFFFFFFFF AND DUP9 PUSH20 0xFFFFFFFFFFFFFFFFFFFFFFFFFFFFFFFFFFFFFFFF AND PUSH1 0x4 SLOAD PUSH32 0x3FEF7F06CE70676ABF7921E7052922715E90C90CAF370BA8904339CF5B21E91E DUP5 PUSH1 0x40 MLOAD PUSH2 0x1204 SWAP2 SWAP1 PUSH2 0x20A8 JUMP JUMPDEST PUSH1 0x40 MLOAD DUP1 SWAP2 SUB SWAP1 LOG4 POP POP PUSH1 0x1 PUSH0 DUP2 SWAP1 SSTORE POP POP POP POP POP POP POP JUMP JUMPDEST PUSH1 0x3 SLOAD DUP2 JUMP JUMPDEST PUSH1 0x4 SLOAD DUP2 JUMP JUMPDEST PUSH1 0x60 PUSH1 0x7 PUSH0 DUP4 PUSH20 0xFFFFFFFFFFFFFFFFFFFFFFFFFFFFFFFFFFFFFFFF AND PUSH20 0xFFFFFFFFFFFFFFFFFFFFFFFFFFFFFFFFFFFFFFFF AND DUP2 MSTORE PUSH1 0x20 ADD SWAP1 DUP2 MSTORE PUSH1 0x20 ADD PUSH0 KECCAK256 DUP1 SLOAD DUP1 PUSH1 0x20 MUL PUSH1 0x20 ADD PUSH1 0x40 MLOAD SWAP1 DUP2 ADD PUSH1 0x40 MSTORE DUP1 SWAP3 SWAP2 SWAP1 DUP2 DUP2 MSTORE PUSH1 0x20 ADD DUP3 DUP1 SLOAD DUP1 ISZERO PUSH2 0x12B0 JUMPI PUSH1 0x20 MUL DUP3 ADD SWAP2 SWAP1 PUSH0 MSTORE PUSH1 0x20 PUSH0 KECCAK256 SWAP1 JUMPDEST DUP2 SLOAD DUP2 MSTORE PUSH1 0x20 ADD SWAP1 PUSH1 0x1 ADD SWAP1 DUP1 DUP4 GT PUSH2 0x129C JUMPI JUMPDEST POP POP POP POP POP SWAP1 POP SWAP2 SWAP1 POP JUMP JUMPDEST PUSH1 0x5 PUSH1 0x20 MSTORE DUP1 PUSH0 MSTORE PUSH1 0x40 PUSH0 KECCAK256 PUSH0 SWAP2 POP SWAP1 POP DUP1 PUSH0 ADD SLOAD SWAP1 DUP1 PUSH1 0x1 ADD PUSH0 SWAP1 SLOAD SWAP1 PUSH2 0x100 EXP SWAP1 DIV PUSH20 0xFFFFFFFFFFFFFFFFFFFFFFFFFFFFFFFFFFFFFFFF AND SWAP1 DUP1 PUSH1 0x2 ADD PUSH0 SWAP1 SLOAD SWAP1 PUSH2 0x100 EXP SWAP1 DIV PUSH20 0xFFFFFFFFFFFFFFFFFFFFFFFFFFFFFFFFFFFFFFFF AND SWAP1 DUP1 PUSH1 0x3 ADD DUP1 SLOAD PUSH2 0x132B SWAP1 PUSH2 0x26A7 JUMP JUMPDEST DUP1 PUSH1 0x1F ADD PUSH1 0x20 DUP1 SWAP2 DIV MUL PUSH1 0x20 ADD PUSH1 0x40 MLOAD SWAP1 DUP2 ADD PUSH1 0x40 MSTORE DUP1 SWAP3 SWAP2 SWAP1 DUP2 DUP2 MSTORE PUSH1 0x20 ADD DUP3 DUP1 SLOAD PUSH2 0x1357 SWAP1 PUSH2 0x26A7 JUMP JUMPDEST DUP1 ISZERO PUSH2 0x13A2 JUMPI DUP1 PUSH1 0x1F LT PUSH2 0x1379 JUMPI PUSH2 0x100 DUP1 DUP4 SLOAD DIV MUL DUP4 MSTORE SWAP2 PUSH1 0x20 ADD SWAP2 PUSH2 0x13A2 JUMP JUMPDEST DUP3 ADD SWAP2 SWAP1 PUSH0 MSTORE PUSH1 0x20 PUSH0 KECCAK256 SWAP1 JUMPDEST DUP2 SLOAD DUP2 MSTORE SWAP1 PUSH1 0x1 ADD SWAP1 PUSH1 0x20 ADD DUP1 DUP4 GT PUSH2 0x1385 JUMPI DUP3 SWAP1 SUB PUSH1 0x1F AND DUP3 ADD SWAP2 JUMPDEST POP POP POP POP POP SWAP1 DUP1 PUSH1 0x4 ADD DUP1 SLOAD PUSH2 0x13B7 SWAP1 PUSH2 0x26A7 JUMP JUMPDEST DUP1 PUSH1 0x1F ADD PUSH1 0x20 DUP1 SWAP2 DIV MUL PUSH1 0x20 ADD PUSH1 0x40 MLOAD SWAP1 DUP2 ADD PUSH1 0x40 MSTORE DUP1 SWAP3 SWAP2 SWAP1 DUP2 DUP2 MSTORE PUSH1 0x20 ADD DUP3 DUP1 SLOAD PUSH2 0x13E3 SWAP1 PUSH2 0x26A7 JUMP JUMPDEST DUP1 ISZERO PUSH2 0x142E JUMPI DUP1 PUSH1 0x1F LT PUSH2 0x1405 JUMPI PUSH2 0x100 DUP1 DUP4 SLOAD DIV MUL DUP4 MSTORE SWAP2 PUSH1 0x20 ADD SWAP2 PUSH2 0x142E JUMP JUMPDEST DUP3 ADD SWAP2 SWAP1 PUSH0 MSTORE PUSH1 0x20 PUSH0 KECCAK256 SWAP1 JUMPDEST DUP2 SLOAD DUP2 MSTORE SWAP1 PUSH1 0x1 ADD SWAP1 PUSH1 0x20 ADD DUP1 DUP4 GT PUSH2 0x1411 JUMPI DUP3 SWAP1 SUB PUSH1 0x1F AND DUP3 ADD SWAP2 JUMPDEST POP POP POP POP POP SWAP1 DUP1 PUSH1 0x5 ADD SLOAD SWAP1 POP DUP7 JUMP JUMPDEST PUSH0 PUSH0 PUSH1 0x6 PUSH0 DUP5 DUP2 MSTORE PUSH1 0x20 ADD SWAP1 DUP2 MSTORE PUSH1 0x20 ADD PUSH0 KECCAK256 PUSH1 0x40 MLOAD DUP1 PUSH2 0x140 ADD PUSH1 0x40 MSTORE SWAP1 DUP2 PUSH0 DUP3 ADD SLOAD DUP2 MSTORE PUSH1 0x20 ADD PUSH1 0x1 DUP3 ADD PUSH0 SWAP1 SLOAD SWAP1 PUSH2 0x100 EXP SWAP1 DIV PUSH20 0xFFFFFFFFFFFFFFFFFFFFFFFFFFFFFFFFFFFFFFFF AND PUSH20 0xFFFFFFFFFFFFFFFFFFFFFFFFFFFFFFFFFFFFFFFF AND PUSH20 0xFFFFFFFFFFFFFFFFFFFFFFFFFFFFFFFFFFFFFFFF AND DUP2 MSTORE PUSH1 0x20 ADD PUSH1 0x2 DUP3 ADD PUSH0 SWAP1 SLOAD SWAP1 PUSH2 0x100 EXP SWAP1 DIV PUSH20 0xFFFFFFFFFFFFFFFFFFFFFFFFFFFFFFFFFFFFFFFF AND PUSH20 0xFFFFFFFFFFFFFFFFFFFFFFFFFFFFFFFFFFFFFFFF AND PUSH20 0xFFFFFFFFFFFFFFFFFFFFFFFFFFFFFFFFFFFFFFFF AND DUP2 MSTORE PUSH1 0x20 ADD PUSH1 0x3 DUP3 ADD DUP1 SLOAD PUSH2 0x1520 SWAP1 PUSH2 0x26A7 JUMP JUMPDEST DUP1 PUSH1 0x1F ADD PUSH1 0x20 DUP1 SWAP2 DIV MUL PUSH1 0x20 ADD PUSH1 0x40 MLOAD SWAP1 DUP2 ADD PUSH1 0x40 MSTORE DUP1 SWAP3 SWAP2 SWAP1 DUP2 DUP2 MSTORE PUSH1 0x20 ADD DUP3 DUP1 SLOAD PUSH2 0x154C SWAP1 PUSH2 0x26A7 JUMP JUMPDEST DUP1 ISZERO PUSH2 0x1597 JUMPI DUP1 PUSH1 0x1F LT PUSH2 0x156E JUMPI PUSH2 0x100 DUP1 DUP4 SLOAD DIV MUL DUP4 MSTORE SWAP2 PUSH1 0x20 ADD SWAP2 PUSH2 0x1597 JUMP JUMPDEST DUP3 ADD SWAP2 SWAP1 PUSH0 MSTORE PUSH1 0x20 PUSH0 KECCAK256 SWAP1 JUMPDEST DUP2 SLOAD DUP2 MSTORE SWAP1 PUSH1 0x1 ADD SWAP1 PUSH1 0x20 ADD DUP1 DUP4 GT PUSH2 0x157A JUMPI DUP3 SWAP1 SUB PUSH1 0x1F AND DUP3 ADD SWAP2 JUMPDEST POP POP POP POP POP DUP2 MSTORE PUSH1 0x20 ADD PUSH1 0x4 DUP3 ADD DUP1 SLOAD PUSH2 0x15B0 SWAP1 PUSH2 0x26A7 JUMP JUMPDEST DUP1 PUSH1 0x1F ADD PUSH1 0x20 DUP1 SWAP2 DIV MUL PUSH1 0x20 ADD PUSH1 0x40 MLOAD SWAP1 DUP2 ADD PUSH1 0x40 MSTORE DUP1 SWAP3 SWAP2 SWAP1 DUP2 DUP2 MSTORE PUSH1 0x20 ADD DUP3 DUP1 SLOAD PUSH2 0x15DC SWAP1 PUSH2 0x26A7 JUMP JUMPDEST DUP1 ISZERO PUSH2 0x1627 JUMPI DUP1 PUSH1 0x1F LT PUSH2 0x15FE JUMPI PUSH2 0x100 DUP1 DUP4 SLOAD DIV MUL DUP4 MSTORE SWAP2 PUSH1 0x20 ADD SWAP2 PUSH2 0x1627 JUMP JUMPDEST DUP3 ADD SWAP2 SWAP1 PUSH0 MSTORE PUSH1 0x20 PUSH0 KECCAK256 SWAP1 JUMPDEST DUP2 SLOAD DUP2 MSTORE SWAP1 PUSH1 0x1 ADD SWAP1 PUSH1 0x20 ADD DUP1 DUP4 GT PUSH2 0x160A JUMPI DUP3 SWAP1 SUB PUSH1 0x1F AND DUP3 ADD SWAP2 JUMPDEST POP POP POP POP POP DUP2 MSTORE PUSH1 0x20 ADD PUSH1 0x5 DUP3 ADD PUSH0 SWAP1 SLOAD SWAP1 PUSH2 0x100 EXP SWAP1 DIV PUSH1 0xFF AND PUSH1 0x2 DUP2 GT ISZERO PUSH2 0x1654 JUMPI PUSH2 0x1653 PUSH2 0x1F8D JUMP JUMPDEST JUMPDEST PUSH1 0x2 DUP2 GT ISZERO PUSH2 0x1666 JUMPI PUSH2 0x1665 PUSH2 0x1F8D JUMP JUMPDEST JUMPDEST DUP2 MSTORE PUSH1 0x20 ADD PUSH1 0x6 DUP3 ADD SLOAD DUP2 MSTORE PUSH1 0x20 ADD PUSH1 0x7 DUP3 ADD SLOAD DUP2 MSTORE PUSH1 0x20 ADD PUSH1 0x8 DUP3 ADD PUSH0 SWAP1 SLOAD SWAP1 PUSH2 0x100 EXP SWAP1 DIV PUSH20 0xFFFFFFFFFFFFFFFFFFFFFFFFFFFFFFFFFFFFFFFF AND PUSH20 0xFFFFFFFFFFFFFFFFFFFFFFFFFFFFFFFFFFFFFFFF AND PUSH20 0xFFFFFFFFFFFFFFFFFFFFFFFFFFFFFFFFFFFFFFFF AND DUP2 MSTORE PUSH1 0x20 ADD PUSH1 0x9 DUP3 ADD SLOAD DUP2 MSTORE POP POP SWAP1 POP PUSH0 DUP2 PUSH0 ADD MLOAD EQ ISZERO DUP1 ISZERO PUSH2 0x1719 JUMPI POP PUSH0 PUSH1 0x2 DUP2 GT ISZERO PUSH2 0x1700 JUMPI PUSH2 0x16FF PUSH2 0x1F8D JUMP JUMPDEST JUMPDEST DUP2 PUSH1 0xA0 ADD MLOAD PUSH1 0x2 DUP2 GT ISZERO PUSH2 0x1717 JUMPI PUSH2 0x1716 PUSH2 0x1F8D JUMP JUMPDEST JUMPDEST EQ JUMPDEST DUP1 ISZERO PUSH2 0x1728 JUMPI POP DUP1 PUSH1 0xE0 ADD MLOAD TIMESTAMP LT JUMPDEST SWAP2 POP POP SWAP2 SWAP1 POP JUMP JUMPDEST PUSH1 0x2 PUSH0 SWAP1 SLOAD SWAP1 PUSH2 0x100 EXP SWAP1 DIV PUSH20 0xFFFFFFFFFFFFFFFFFFFFFFFFFFFFFFFFFFFFFFFF AND PUSH20 0xFFFFFFFFFFFFFFFFFFFFFFFFFFFFFFFFFFFFFFFF AND PUSH4 0x91D14854 PUSH1 0x2 PUSH0 SWAP1 SLOAD SWAP1 PUSH2 0x100 EXP SWAP1 DIV PUSH20 0xFFFFFFFFFFFFFFFFFFFFFFFFFFFFFFFFFFFFFFFF AND PUSH20 0xFFFFFFFFFFFFFFFFFFFFFFFFFFFFFFFFFFFFFFFF AND PUSH4 0xC532D9FA PUSH1 0x40 MLOAD DUP2 PUSH4 0xFFFFFFFF AND PUSH1 0xE0 SHL DUP2 MSTORE PUSH1 0x4 ADD PUSH1 0x20 PUSH1 0x40 MLOAD DUP1 DUP4 SUB DUP2 DUP7 GAS STATICCALL ISZERO DUP1 ISZERO PUSH2 0x17D7 JUMPI RETURNDATASIZE PUSH0 PUSH0 RETURNDATACOPY RETURNDATASIZE PUSH0 REVERT JUMPDEST POP POP POP POP PUSH1 0x40 MLOAD RETURNDATASIZE PUSH1 0x1F NOT PUSH1 0x1F DUP3 ADD AND DUP3 ADD DUP1 PUSH1 0x40 MSTORE POP DUP2 ADD SWAP1 PUSH2 0x17FB SWAP2 SWAP1 PUSH2 0x2D6E JUMP JUMPDEST CALLER PUSH1 0x40 MLOAD DUP4 PUSH4 0xFFFFFFFF AND PUSH1 0xE0 SHL DUP2 MSTORE PUSH1 0x4 ADD PUSH2 0x1819 SWAP3 SWAP2 SWAP1 PUSH2 0x2DA8 JUMP JUMPDEST PUSH1 0x20 PUSH1 0x40 MLOAD DUP1 DUP4 SUB DUP2 DUP7 GAS STATICCALL ISZERO DUP1 ISZERO PUSH2 0x1834 JUMPI RETURNDATASIZE PUSH0 PUSH0 RETURNDATACOPY RETURNDATASIZE PUSH0 REVERT JUMPDEST POP POP POP POP PUSH1 0x40 MLOAD RETURNDATASIZE PUSH1 0x1F NOT PUSH1 0x1F DUP3 ADD AND DUP3 ADD DUP1 PUSH1 0x40 MSTORE POP DUP2 ADD SWAP1 PUSH2 0x1858 SWAP2 SWAP1 PUSH2 0x2782 JUMP JUMPDEST PUSH2 0x1897 JUMPI PUSH1 0x40 MLOAD PUSH32 0x8C379A000000000000000000000000000000000000000000000000000000000 DUP2 MSTORE PUSH1 0x4 ADD PUSH2 0x188E SWAP1 PUSH2 0x2E3F JUMP JUMPDEST PUSH1 0x40 MLOAD DUP1 SWAP2 SUB SWAP1 REVERT JUMPDEST PUSH1 0x1 PUSH0 SLOAD EQ PUSH2 0x18DB JUMPI PUSH1 0x40 MLOAD PUSH32 0x8C379A000000000000000000000000000000000000000000000000000000000 DUP2 MSTORE PUSH1 0x4 ADD PUSH2 0x18D2 SWAP1 PUSH2 0x28EE JUMP JUMPDEST PUSH1 0x40 MLOAD DUP1 SWAP2 SUB SWAP1 REVERT JUMPDEST PUSH1 0x2 PUSH0 DUP2 SWAP1 SSTORE POP PUSH0 PUSH1 0x6 PUSH0 DUP4 DUP2 MSTORE PUSH1 0x20 ADD SWAP1 DUP2 MSTORE PUSH1 0x20 ADD PUSH0 KECCAK256 SWAP1 POP PUSH0 DUP2 PUSH0 ADD SLOAD SUB PUSH2 0x193B JUMPI PUSH1 0x40 MLOAD PUSH32 0x8C379A000000000000000000000000000000000000000000000000000000000 DUP2 MSTORE PUSH1 0x4 ADD PUSH2 0x1932 SWAP1 PUSH2 0x2721 JUMP JUMPDEST PUSH1 0x40 MLOAD DUP1 SWAP2 SUB SWAP1 REVERT JUMPDEST PUSH0 PUSH1 0x2 DUP2 GT ISZERO PUSH2 0x194E JUMPI PUSH2 0x194D PUSH2 0x1F8D JUMP JUMPDEST JUMPDEST DUP2 PUSH1 0x5 ADD PUSH0 SWAP1 SLOAD SWAP1 PUSH2 0x100 EXP SWAP1 DIV PUSH1 0xFF AND PUSH1 0x2 DUP2 GT ISZERO PUSH2 0x1971 JUMPI PUSH2 0x1970 PUSH2 0x1F8D JUMP JUMPDEST JUMPDEST EQ PUSH2 0x19B1 JUMPI PUSH1 0x40 MLOAD PUSH32 0x8C379A000000000000000000000000000000000000000000000000000000000 DUP2 MSTORE PUSH1 0x4 ADD PUSH2 0x19A8 SWAP1 PUSH2 0x2ECD JUMP JUMPDEST PUSH1 0x40 MLOAD DUP1 SWAP2 SUB SWAP1 REVERT JUMPDEST DUP1 PUSH1 0x7 ADD SLOAD TIMESTAMP LT PUSH2 0x19F7 JUMPI PUSH1 0x40 MLOAD PUSH32 0x8C379A000000000000000000000000000000000000000000000000000000000 DUP2 MSTORE PUSH1 0x4 ADD PUSH2 0x19EE SWAP1 PUSH2 0x2F35 JUMP JUMPDEST PUSH1 0x40 MLOAD DUP1 SWAP2 SUB SWAP1 REVERT JUMPDEST PUSH1 0x1 DUP2 PUSH1 0x5 ADD PUSH0 PUSH2 0x100 EXP DUP2 SLOAD DUP2 PUSH1 0xFF MUL NOT AND SWAP1 DUP4 PUSH1 0x2 DUP2 GT ISZERO PUSH2 0x1A1E JUMPI PUSH2 0x1A1D PUSH2 0x1F8D JUMP JUMPDEST JUMPDEST MUL OR SWAP1 SSTORE POP CALLER DUP2 PUSH1 0x8 ADD PUSH0 PUSH2 0x100 EXP DUP2 SLOAD DUP2 PUSH20 0xFFFFFFFFFFFFFFFFFFFFFFFFFFFFFFFFFFFFFFFF MUL NOT AND SWAP1 DUP4 PUSH20 0xFFFFFFFFFFFFFFFFFFFFFFFFFFFFFFFFFFFFFFFF AND MUL OR SWAP1 SSTORE POP TIMESTAMP DUP2 PUSH1 0x9 ADD DUP2 SWAP1 SSTORE POP CALLER PUSH20 0xFFFFFFFFFFFFFFFFFFFFFFFFFFFFFFFFFFFFFFFF AND DUP2 PUSH1 0x1 ADD PUSH0 SWAP1 SLOAD SWAP1 PUSH2 0x100 EXP SWAP1 DIV PUSH20 0xFFFFFFFFFFFFFFFFFFFFFFFFFFFFFFFFFFFFFFFF AND PUSH20 0xFFFFFFFFFFFFFFFFFFFFFFFFFFFFFFFFFFFFFFFF AND DUP4 PUSH32 0x417E0BA8409ADA5D1A01B8070A049CD9397BF9BC6EE1CA36EC7569EC9D34E0E2 TIMESTAMP PUSH1 0x40 MLOAD PUSH2 0x1AEF SWAP2 SWAP1 PUSH2 0x20A8 JUMP JUMPDEST PUSH1 0x40 MLOAD DUP1 SWAP2 SUB SWAP1 LOG4 POP PUSH1 0x1 PUSH0 DUP2 SWAP1 SSTORE POP POP JUMP JUMPDEST PUSH1 0x60 PUSH1 0x8 PUSH0 DUP4 PUSH20 0xFFFFFFFFFFFFFFFFFFFFFFFFFFFFFFFFFFFFFFFF AND PUSH20 0xFFFFFFFFFFFFFFFFFFFFFFFFFFFFFFFFFFFFFFFF AND DUP2 MSTORE PUSH1 0x20 ADD SWAP1 DUP2 MSTORE PUSH1 0x20 ADD PUSH0 KECCAK256 DUP1 SLOAD DUP1 PUSH1 0x20 MUL PUSH1 0x20 ADD PUSH1 0x40 MLOAD SWAP1 DUP2 ADD PUSH1 0x40 MSTORE DUP1 SWAP3 SWAP2 SWAP1 DUP2 DUP2 MSTORE PUSH1 0x20 ADD DUP3 DUP1 SLOAD DUP1 ISZERO PUSH2 0x1B89 JUMPI PUSH1 0x20 MUL DUP3 ADD SWAP2 SWAP1 PUSH0 MSTORE PUSH1 0x20 PUSH0 KECCAK256 SWAP1 JUMPDEST DUP2 SLOAD DUP2 MSTORE PUSH1 0x20 ADD SWAP1 PUSH1 0x1 ADD SWAP1 DUP1 DUP4 GT PUSH2 0x1B75 JUMPI JUMPDEST POP POP POP POP POP SWAP1 POP SWAP2 SWAP1 POP JUMP JUMPDEST PUSH0 PUSH1 0x6 PUSH0 DUP4 DUP2 MSTORE PUSH1 0x20 ADD SWAP1 DUP2 MSTORE PUSH1 0x20 ADD PUSH0 KECCAK256 SWAP1 POP PUSH0 DUP2 PUSH0 ADD SLOAD SUB PUSH2 0x1BEE JUMPI PUSH1 0x40 MLOAD PUSH32 0x8C379A000000000000000000000000000000000000000000000000000000000 DUP2 MSTORE PUSH1 0x4 ADD PUSH2 0x1BE5 SWAP1 PUSH2 0x2721 JUMP JUMPDEST PUSH1 0x40 MLOAD DUP1 SWAP2 SUB SWAP1 REVERT JUMPDEST PUSH0 PUSH1 0x2 DUP2 GT ISZERO PUSH2 0x1C01 JUMPI PUSH2 0x1C00 PUSH2 0x1F8D JUMP JUMPDEST JUMPDEST DUP2 PUSH1 0x5 ADD PUSH0 SWAP1 SLOAD SWAP1 PUSH2 0x100 EXP SWAP1 DIV PUSH1 0xFF AND PUSH1 0x2 DUP2 GT ISZERO PUSH2 0x1C24 JUMPI PUSH2 0x1C23 PUSH2 0x1F8D JUMP JUMPDEST JUMPDEST EQ PUSH2 0x1C64 JUMPI PUSH1 0x40 MLOAD PUSH32 0x8C379A000000000000000000000000000000000000000000000000000000000 DUP2 MSTORE PUSH1 0x4 ADD PUSH2 0x1C5B SWAP1 PUSH2 0x2F9D JUMP JUMPDEST PUSH1 0x40 MLOAD DUP1 SWAP2 SUB SWAP1 REVERT JUMPDEST DUP1 PUSH1 0x7 ADD SLOAD TIMESTAMP LT ISZERO PUSH2 0x1CAB JUMPI PUSH1 0x40 MLOAD PUSH32 0x8C379A000000000000000000000000000000000000000000000000000000000 DUP2 MSTORE PUSH1 0x4 ADD PUSH2 0x1CA2 SWAP1 PUSH2 0x3005 JUMP JUMPDEST PUSH1 0x40 MLOAD DUP1 SWAP2 SUB SWAP1 REVERT JUMPDEST PUSH1 0x2 DUP2 PUSH1 0x5 ADD PUSH0 PUSH2 0x100 EXP DUP2 SLOAD DUP2 PUSH1 0xFF MUL NOT AND SWAP1 DUP4 PUSH1 0x2 DUP2 GT ISZERO PUSH2 0x1CD2 JUMPI PUSH2 0x1CD1 PUSH2 0x1F8D JUMP JUMPDEST JUMPDEST MUL OR SWAP1 SSTORE POP DUP1 PUSH1 0x1 ADD PUSH0 SWAP1 SLOAD SWAP1 PUSH2 0x100 EXP SWAP1 DIV PUSH20 0xFFFFFFFFFFFFFFFFFFFFFFFFFFFFFFFFFFFFFFFF AND PUSH20 0xFFFFFFFFFFFFFFFFFFFFFFFFFFFFFFFFFFFFFFFF AND DUP3 PUSH32 0x1C66C972DEF6BBFBEF4B8D1ED233AB36F4864D8CB752B8FB668F739F813A49C8 TIMESTAMP PUSH1 0x40 MLOAD PUSH2 0x1D41 SWAP2 SWAP1 PUSH2 0x20A8 JUMP JUMPDEST PUSH1 0x40 MLOAD DUP1 SWAP2 SUB SWAP1 LOG3 POP POP JUMP JUMPDEST PUSH1 0x40 MLOAD DUP1 PUSH2 0x140 ADD PUSH1 0x40 MSTORE DUP1 PUSH0 DUP2 MSTORE PUSH1 0x20 ADD PUSH0 PUSH20 0xFFFFFFFFFFFFFFFFFFFFFFFFFFFFFFFFFFFFFFFF AND DUP2 MSTORE PUSH1 0x20 ADD PUSH0 PUSH20 0xFFFFFFFFFFFFFFFFFFFFFFFFFFFFFFFFFFFFFFFF AND DUP2 MSTORE PUSH1 0x20 ADD PUSH1 0x60 DUP2 MSTORE PUSH1 0x20 ADD PUSH1 0x60 DUP2 MSTORE PUSH1 0x20 ADD PUSH0 PUSH1 0x2 DUP2 GT ISZERO PUSH2 0x1DB8 JUMPI PUSH2 0x1DB7 PUSH2 0x1F8D JUMP JUMPDEST JUMPDEST DUP2 MSTORE PUSH1 0x20 ADD PUSH0 DUP2 MSTORE PUSH1 0x20 ADD PUSH0 DUP2 MSTORE PUSH1 0x20 ADD PUSH0 PUSH20 0xFFFFFFFFFFFFFFFFFFFFFFFFFFFFFFFFFFFFFFFF AND DUP2 MSTORE PUSH1 0x20 ADD PUSH0 DUP2 MSTORE POP SWAP1 JUMP JUMPDEST PUSH0 PUSH20 0xFFFFFFFFFFFFFFFFFFFFFFFFFFFFFFFFFFFFFFFF DUP3 AND SWAP1 POP SWAP2 SWAP1 POP JUMP JUMPDEST PUSH0 DUP2 SWAP1 POP SWAP2 SWAP1 POP JUMP JUMPDEST PUSH0 PUSH2 0x1E2E PUSH2 0x1E29 PUSH2 0x1E24 DUP5 PUSH2 0x1DEC JUMP JUMPDEST PUSH2 0x1E0B JUMP JUMPDEST PUSH2 0x1DEC JUMP JUMPDEST SWAP1 POP SWAP2 SWAP1 POP JUMP JUMPDEST PUSH0 PUSH2 0x1E3F DUP3 PUSH2 0x1E14 JUMP JUMPDEST SWAP1 POP SWAP2 SWAP1 POP JUMP JUMPDEST PUSH0 PUSH2 0x1E50 DUP3 PUSH2 0x1E35 JUMP JUMPDEST SWAP1 POP SWAP2 SWAP1 POP JUMP JUMPDEST PUSH2 0x1E60 DUP2 PUSH2 0x1E46 JUMP JUMPDEST DUP3 MSTORE POP POP JUMP JUMPDEST PUSH0 PUSH1 0x20 DUP3 ADD SWAP1 POP PUSH2 0x1E79 PUSH0 DUP4 ADD DUP5 PUSH2 0x1E57 JUMP JUMPDEST SWAP3 SWAP2 POP POP JUMP JUMPDEST PUSH0 PUSH1 0x40 MLOAD SWAP1 POP SWAP1 JUMP JUMPDEST PUSH0 PUSH0 REVERT JUMPDEST PUSH0 PUSH0 REVERT JUMPDEST PUSH0 DUP2 SWAP1 POP SWAP2 SWAP1 POP JUMP JUMPDEST PUSH2 0x1EA2 DUP2 PUSH2 0x1E90 JUMP JUMPDEST DUP2 EQ PUSH2 0x1EAC JUMPI PUSH0 PUSH0 REVERT JUMPDEST POP JUMP JUMPDEST PUSH0 DUP2 CALLDATALOAD SWAP1 POP PUSH2 0x1EBD DUP2 PUSH2 0x1E99 JUMP JUMPDEST SWAP3 SWAP2 POP POP JUMP JUMPDEST PUSH0 PUSH1 0x20 DUP3 DUP5 SUB SLT ISZERO PUSH2 0x1ED8 JUMPI PUSH2 0x1ED7 PUSH2 0x1E88 JUMP JUMPDEST JUMPDEST PUSH0 PUSH2 0x1EE5 DUP5 DUP3 DUP6 ADD PUSH2 0x1EAF JUMP JUMPDEST SWAP2 POP POP SWAP3 SWAP2 POP POP JUMP JUMPDEST PUSH2 0x1EF7 DUP2 PUSH2 0x1E90 JUMP JUMPDEST DUP3 MSTORE POP POP JUMP JUMPDEST PUSH0 PUSH2 0x1F07 DUP3 PUSH2 0x1DEC JUMP JUMPDEST SWAP1 POP SWAP2 SWAP1 POP JUMP JUMPDEST PUSH2 0x1F17 DUP2 PUSH2 0x1EFD JUMP JUMPDEST DUP3 MSTORE POP POP JUMP JUMPDEST PUSH0 DUP2 MLOAD SWAP1 POP SWAP2 SWAP1 POP JUMP JUMPDEST PUSH0 DUP3 DUP3 MSTORE PUSH1 0x20 DUP3 ADD SWAP1 POP SWAP3 SWAP2 POP POP JUMP JUMPDEST DUP3 DUP2 DUP4 MCOPY PUSH0 DUP4 DUP4 ADD MSTORE POP POP POP JUMP JUMPDEST PUSH0 PUSH1 0x1F NOT PUSH1 0x1F DUP4 ADD AND SWAP1 POP SWAP2 SWAP1 POP JUMP JUMPDEST PUSH0 PUSH2 0x1F5F DUP3 PUSH2 0x1F1D JUMP JUMPDEST PUSH2 0x1F69 DUP2 DUP6 PUSH2 0x1F27 JUMP JUMPDEST SWAP4 POP PUSH2 0x1F79 DUP2 DUP6 PUSH1 0x20 DUP7 ADD PUSH2 0x1F37 JUMP JUMPDEST PUSH2 0x1F82 DUP2 PUSH2 0x1F45 JUMP JUMPDEST DUP5 ADD SWAP2 POP POP SWAP3 SWAP2 POP POP JUMP JUMPDEST PUSH32 0x4E487B7100000000000000000000000000000000000000000000000000000000 PUSH0 MSTORE PUSH1 0x21 PUSH1 0x4 MSTORE PUSH1 0x24 PUSH0 REVERT JUMPDEST PUSH1 0x3 DUP2 LT PUSH2 0x1FCB JUMPI PUSH2 0x1FCA PUSH2 0x1F8D JUMP JUMPDEST JUMPDEST POP JUMP JUMPDEST PUSH0 DUP2 SWAP1 POP PUSH2 0x1FDB DUP3 PUSH2 0x1FBA JUMP JUMPDEST SWAP2 SWAP1 POP JUMP JUMPDEST PUSH0 PUSH2 0x1FEA DUP3 PUSH2 0x1FCE JUMP JUMPDEST SWAP1 POP SWAP2 SWAP1 POP JUMP JUMPDEST PUSH2 0x1FFA DUP2 PUSH2 0x1FE0 JUMP JUMPDEST DUP3 MSTORE POP POP JUMP JUMPDEST PUSH0 PUSH2 0x140 DUP3 ADD SWAP1 POP PUSH2 0x2014 PUSH0 DUP4 ADD DUP14 PUSH2 0x1EEE JUMP JUMPDEST PUSH2 0x2021 PUSH1 0x20 DUP4 ADD DUP13 PUSH2 0x1F0E JUMP JUMPDEST PUSH2 0x202E PUSH1 0x40 DUP4 ADD DUP12 PUSH2 0x1F0E JUMP JUMPDEST DUP2 DUP2 SUB PUSH1 0x60 DUP4 ADD MSTORE PUSH2 0x2040 DUP2 DUP11 PUSH2 0x1F55 JUMP JUMPDEST SWAP1 POP DUP2 DUP2 SUB PUSH1 0x80 DUP4 ADD MSTORE PUSH2 0x2054 DUP2 DUP10 PUSH2 0x1F55 JUMP JUMPDEST SWAP1 POP PUSH2 0x2063 PUSH1 0xA0 DUP4 ADD DUP9 PUSH2 0x1FF1 JUMP JUMPDEST PUSH2 0x2070 PUSH1 0xC0 DUP4 ADD DUP8 PUSH2 0x1EEE JUMP JUMPDEST PUSH2 0x207D PUSH1 0xE0 DUP4 ADD DUP7 PUSH2 0x1EEE JUMP JUMPDEST PUSH2 0x208B PUSH2 0x100 DUP4 ADD DUP6 PUSH2 0x1F0E JUMP JUMPDEST PUSH2 0x2099 PUSH2 0x120 DUP4 ADD DUP5 PUSH2 0x1EEE JUMP JUMPDEST SWAP12 SWAP11 POP POP POP POP POP POP POP POP POP POP POP JUMP JUMPDEST PUSH0 PUSH1 0x20 DUP3 ADD SWAP1 POP PUSH2 0x20BB PUSH0 DUP4 ADD DUP5 PUSH2 0x1EEE JUMP JUMPDEST SWAP3 SWAP2 POP POP JUMP JUMPDEST PUSH0 PUSH2 0x20CB DUP3 PUSH2 0x1E35 JUMP JUMPDEST SWAP1 POP SWAP2 SWAP1 POP JUMP JUMPDEST PUSH2 0x20DB DUP2 PUSH2 0x20C1 JUMP JUMPDEST DUP3 MSTORE POP POP JUMP JUMPDEST PUSH0 PUSH1 0x20 DUP3 ADD SWAP1 POP PUSH2 0x20F4 PUSH0 DUP4 ADD DUP5 PUSH2 0x20D2 JUMP JUMPDEST SWAP3 SWAP2 POP POP JUMP JUMPDEST PUSH2 0x2103 DUP2 PUSH2 0x1E90 JUMP JUMPDEST DUP3 MSTORE POP POP JUMP JUMPDEST PUSH2 0x2112 DUP2 PUSH2 0x1EFD JUMP JUMPDEST DUP3 MSTORE POP POP JUMP JUMPDEST PUSH0 DUP3 DUP3 MSTORE PUSH1 0x20 DUP3 ADD SWAP1 POP SWAP3 SWAP2 POP POP JUMP JUMPDEST PUSH0 PUSH2 0x2132 DUP3 PUSH2 0x1F1D JUMP JUMPDEST PUSH2 0x213C DUP2 DUP6 PUSH2 0x2118 JUMP JUMPDEST SWAP4 POP PUSH2 0x214C DUP2 DUP6 PUSH1 0x20 DUP7 ADD PUSH2 0x1F37 JUMP JUMPDEST PUSH2 0x2155 DUP2 PUSH2 0x1F45 JUMP JUMPDEST DUP5 ADD SWAP2 POP POP SWAP3 SWAP2 POP POP JUMP JUMPDEST PUSH2 0x2169 DUP2 PUSH2 0x1FE0 JUMP JUMPDEST DUP3 MSTORE POP POP JUMP JUMPDEST PUSH0 PUSH2 0x140 DUP4 ADD PUSH0 DUP4 ADD MLOAD PUSH2 0x2185 PUSH0 DUP7 ADD DUP3 PUSH2 0x20FA JUMP JUMPDEST POP PUSH1 0x20 DUP4 ADD MLOAD PUSH2 0x2198 PUSH1 0x20 DUP7 ADD DUP3 PUSH2 0x2109 JUMP JUMPDEST POP PUSH1 0x40 DUP4 ADD MLOAD PUSH2 0x21AB PUSH1 0x40 DUP7 ADD DUP3 PUSH2 0x2109 JUMP JUMPDEST POP PUSH1 0x60 DUP4 ADD MLOAD DUP5 DUP3 SUB PUSH1 0x60 DUP7 ADD MSTORE PUSH2 0x21C3 DUP3 DUP3 PUSH2 0x2128 JUMP JUMPDEST SWAP2 POP POP PUSH1 0x80 DUP4 ADD MLOAD DUP5 DUP3 SUB PUSH1 0x80 DUP7 ADD MSTORE PUSH2 0x21DD DUP3 DUP3 PUSH2 0x2128 JUMP JUMPDEST SWAP2 POP POP PUSH1 0xA0 DUP4 ADD MLOAD PUSH2 0x21F2 PUSH1 0xA0 DUP7 ADD DUP3 PUSH2 0x2160 JUMP JUMPDEST POP PUSH1 0xC0 DUP4 ADD MLOAD PUSH2 0x2205 PUSH1 0xC0 DUP7 ADD DUP3 PUSH2 0x20FA JUMP JUMPDEST POP PUSH1 0xE0 DUP4 ADD MLOAD PUSH2 0x2218 PUSH1 0xE0 DUP7 ADD DUP3 PUSH2 0x20FA JUMP JUMPDEST POP PUSH2 0x100 DUP4 ADD MLOAD PUSH2 0x222D PUSH2 0x100 DUP7 ADD DUP3 PUSH2 0x2109 JUMP JUMPDEST POP PUSH2 0x120 DUP4 ADD MLOAD PUSH2 0x2242 PUSH2 0x120 DUP7 ADD DUP3 PUSH2 0x20FA JUMP JUMPDEST POP DUP1 SWAP2 POP POP SWAP3 SWAP2 POP POP JUMP JUMPDEST PUSH0 PUSH1 0x20 DUP3 ADD SWAP1 POP DUP2 DUP2 SUB PUSH0 DUP4 ADD MSTORE PUSH2 0x2265 DUP2 DUP5 PUSH2 0x216F JUMP JUMPDEST SWAP1 POP SWAP3 SWAP2 POP POP JUMP JUMPDEST PUSH2 0x2276 DUP2 PUSH2 0x1EFD JUMP JUMPDEST DUP2 EQ PUSH2 0x2280 JUMPI PUSH0 PUSH0 REVERT JUMPDEST POP JUMP JUMPDEST PUSH0 DUP2 CALLDATALOAD SWAP1 POP PUSH2 0x2291 DUP2 PUSH2 0x226D JUMP JUMPDEST SWAP3 SWAP2 POP POP JUMP JUMPDEST PUSH0 PUSH0 REVERT JUMPDEST PUSH0 PUSH0 REVERT JUMPDEST PUSH32 0x4E487B7100000000000000000000000000000000000000000000000000000000 PUSH0 MSTORE PUSH1 0x41 PUSH1 0x4 MSTORE PUSH1 0x24 PUSH0 REVERT JUMPDEST PUSH2 0x22D5 DUP3 PUSH2 0x1F45 JUMP JUMPDEST DUP2 ADD DUP2 DUP2 LT PUSH8 0xFFFFFFFFFFFFFFFF DUP3 GT OR ISZERO PUSH2 0x22F4 JUMPI PUSH2 0x22F3 PUSH2 0x229F JUMP JUMPDEST JUMPDEST DUP1 PUSH1 0x40 MSTORE POP POP POP JUMP JUMPDEST PUSH0 PUSH2 0x2306 PUSH2 0x1E7F JUMP JUMPDEST SWAP1 POP PUSH2 0x2312 DUP3 DUP3 PUSH2 0x22CC JUMP JUMPDEST SWAP2 SWAP1 POP JUMP JUMPDEST PUSH0 PUSH8 0xFFFFFFFFFFFFFFFF DUP3 GT ISZERO PUSH2 0x2331 JUMPI PUSH2 0x2330 PUSH2 0x229F JUMP JUMPDEST JUMPDEST PUSH2 0x233A DUP3 PUSH2 0x1F45 JUMP JUMPDEST SWAP1 POP PUSH1 0x20 DUP2 ADD SWAP1 POP SWAP2 SWAP1 POP JUMP JUMPDEST DUP3 DUP2 DUP4 CALLDATACOPY PUSH0 DUP4 DUP4 ADD MSTORE POP POP POP JUMP JUMPDEST PUSH0 PUSH2 0x2367 PUSH2 0x2362 DUP5 PUSH2 0x2317 JUMP JUMPDEST PUSH2 0x22FD JUMP JUMPDEST SWAP1 POP DUP3 DUP2 MSTORE PUSH1 0x20 DUP2 ADD DUP5 DUP5 DUP5 ADD GT ISZERO PUSH2 0x2383 JUMPI PUSH2 0x2382 PUSH2 0x229B JUMP JUMPDEST JUMPDEST PUSH2 0x238E DUP5 DUP3 DUP6 PUSH2 0x2347 JUMP JUMPDEST POP SWAP4 SWAP3 POP POP POP JUMP JUMPDEST PUSH0 DUP3 PUSH1 0x1F DUP4 ADD SLT PUSH2 0x23AA JUMPI PUSH2 0x23A9 PUSH2 0x2297 JUMP JUMPDEST JUMPDEST DUP2 CALLDATALOAD PUSH2 0x23BA DUP5 DUP3 PUSH1 0x20 DUP7 ADD PUSH2 0x2355 JUMP JUMPDEST SWAP2 POP POP SWAP3 SWAP2 POP POP JUMP JUMPDEST PUSH0 PUSH0 PUSH0 PUSH1 0x60 DUP5 DUP7 SUB SLT ISZERO PUSH2 0x23DA JUMPI PUSH2 0x23D9 PUSH2 0x1E88 JUMP JUMPDEST JUMPDEST PUSH0 PUSH2 0x23E7 DUP7 DUP3 DUP8 ADD PUSH2 0x2283 JUMP JUMPDEST SWAP4 POP POP PUSH1 0x20 DUP5 ADD CALLDATALOAD PUSH8 0xFFFFFFFFFFFFFFFF DUP2 GT ISZERO PUSH2 0x2408 JUMPI PUSH2 0x2407 PUSH2 0x1E8C JUMP JUMPDEST JUMPDEST PUSH2 0x2414 DUP7 DUP3 DUP8 ADD PUSH2 0x2396 JUMP JUMPDEST SWAP3 POP POP PUSH1 0x40 DUP5 ADD CALLDATALOAD PUSH8 0xFFFFFFFFFFFFFFFF DUP2 GT ISZERO PUSH2 0x2435 JUMPI PUSH2 0x2434 PUSH2 0x1E8C JUMP JUMPDEST JUMPDEST PUSH2 0x2441 DUP7 DUP3 DUP8 ADD PUSH2 0x2396 JUMP JUMPDEST SWAP2 POP POP SWAP3 POP SWAP3 POP SWAP3 JUMP JUMPDEST PUSH0 PUSH0 PUSH0 PUSH0 PUSH1 0x80 DUP6 DUP8 SUB SLT ISZERO PUSH2 0x2463 JUMPI PUSH2 0x2462 PUSH2 0x1E88 JUMP JUMPDEST JUMPDEST PUSH0 PUSH2 0x2470 DUP8 DUP3 DUP9 ADD PUSH2 0x2283 JUMP JUMPDEST SWAP5 POP POP PUSH1 0x20 DUP6 ADD CALLDATALOAD PUSH8 0xFFFFFFFFFFFFFFFF DUP2 GT ISZERO PUSH2 0x2491 JUMPI PUSH2 0x2490 PUSH2 0x1E8C JUMP JUMPDEST JUMPDEST PUSH2 0x249D DUP8 DUP3 DUP9 ADD PUSH2 0x2396 JUMP JUMPDEST SWAP4 POP POP PUSH1 0x40 DUP6 ADD CALLDATALOAD PUSH8 0xFFFFFFFFFFFFFFFF DUP2 GT ISZERO PUSH2 0x24BE JUMPI PUSH2 0x24BD PUSH2 0x1E8C JUMP JUMPDEST JUMPDEST PUSH2 0x24CA DUP8 DUP3 DUP9 ADD PUSH2 0x2396 JUMP JUMPDEST SWAP3 POP POP PUSH1 0x60 PUSH2 0x24DB DUP8 DUP3 DUP9 ADD PUSH2 0x1EAF JUMP JUMPDEST SWAP2 POP POP SWAP3 SWAP6 SWAP2 SWAP5 POP SWAP3 POP JUMP JUMPDEST PUSH0 PUSH1 0x20 DUP3 DUP5 SUB SLT ISZERO PUSH2 0x24FC JUMPI PUSH2 0x24FB PUSH2 0x1E88 JUMP JUMPDEST JUMPDEST PUSH0 PUSH2 0x2509 DUP5 DUP3 DUP6 ADD PUSH2 0x2283 JUMP JUMPDEST SWAP2 POP POP SWAP3 SWAP2 POP POP JUMP JUMPDEST PUSH0 DUP2 MLOAD SWAP1 POP SWAP2 SWAP1 POP JUMP JUMPDEST PUSH0 DUP3 DUP3 MSTORE PUSH1 0x20 DUP3 ADD SWAP1 POP SWAP3 SWAP2 POP POP JUMP JUMPDEST PUSH0 DUP2 SWAP1 POP PUSH1 0x20 DUP3 ADD SWAP1 POP SWAP2 SWAP1 POP JUMP JUMPDEST PUSH0 PUSH2 0x2546 DUP4 DUP4 PUSH2 0x20FA JUMP JUMPDEST PUSH1 0x20 DUP4 ADD SWAP1 POP SWAP3 SWAP2 POP POP JUMP JUMPDEST PUSH0 PUSH1 0x20 DUP3 ADD SWAP1 POP SWAP2 SWAP1 POP JUMP JUMPDEST PUSH0 PUSH2 0x2568 DUP3 PUSH2 0x2512 JUMP JUMPDEST PUSH2 0x2572 DUP2 DUP6 PUSH2 0x251C JUMP JUMPDEST SWAP4 POP PUSH2 0x257D DUP4 PUSH2 0x252C JUMP JUMPDEST DUP1 PUSH0 JUMPDEST DUP4 DUP2 LT ISZERO PUSH2 0x25AD JUMPI DUP2 MLOAD PUSH2 0x2594 DUP9 DUP3 PUSH2 0x253B JUMP JUMPDEST SWAP8 POP PUSH2 0x259F DUP4 PUSH2 0x2552 JUMP JUMPDEST SWAP3 POP POP PUSH1 0x1 DUP2 ADD SWAP1 POP PUSH2 0x2580 JUMP JUMPDEST POP DUP6 SWAP4 POP POP POP POP SWAP3 SWAP2 POP POP JUMP JUMPDEST PUSH0 PUSH1 0x20 DUP3 ADD SWAP1 POP DUP2 DUP2 SUB PUSH0 DUP4 ADD MSTORE PUSH2 0x25D2 DUP2 DUP5 PUSH2 0x255E JUMP JUMPDEST SWAP1 POP SWAP3 SWAP2 POP POP JUMP JUMPDEST PUSH0 PUSH1 0xC0 DUP3 ADD SWAP1 POP PUSH2 0x25ED PUSH0 DUP4 ADD DUP10 PUSH2 0x1EEE JUMP JUMPDEST PUSH2 0x25FA PUSH1 0x20 DUP4 ADD DUP9 PUSH2 0x1F0E JUMP JUMPDEST PUSH2 0x2607 PUSH1 0x40 DUP4 ADD DUP8 PUSH2 0x1F0E JUMP JUMPDEST DUP2 DUP2 SUB PUSH1 0x60 DUP4 ADD MSTORE PUSH2 0x2619 DUP2 DUP7 PUSH2 0x1F55 JUMP JUMPDEST SWAP1 POP DUP2 DUP2 SUB PUSH1 0x80 DUP4 ADD MSTORE PUSH2 0x262D DUP2 DUP6 PUSH2 0x1F55 JUMP JUMPDEST SWAP1 POP PUSH2 0x263C PUSH1 0xA0 DUP4 ADD DUP5 PUSH2 0x1EEE JUMP JUMPDEST SWAP8 SWAP7 POP POP POP POP POP POP POP JUMP JUMPDEST PUSH0 DUP2 ISZERO ISZERO SWAP1 POP SWAP2 SWAP1 POP JUMP JUMPDEST PUSH2 0x265B DUP2 PUSH2 0x2647 JUMP JUMPDEST DUP3 MSTORE POP POP JUMP JUMPDEST PUSH0 PUSH1 0x20 DUP3 ADD SWAP1 POP PUSH2 0x2674 PUSH0 DUP4 ADD DUP5 PUSH2 0x2652 JUMP JUMPDEST SWAP3 SWAP2 POP POP JUMP JUMPDEST PUSH32 0x4E487B7100000000000000000000000000000000000000000000000000000000 PUSH0 MSTORE PUSH1 0x22 PUSH1 0x4 MSTORE PUSH1 0x24 PUSH0 REVERT JUMPDEST PUSH0 PUSH1 0x2 DUP3 DIV SWAP1 POP PUSH1 0x1 DUP3 AND DUP1 PUSH2 0x26BE JUMPI PUSH1 0x7F DUP3 AND SWAP2 POP JUMPDEST PUSH1 0x20 DUP3 LT DUP2 SUB PUSH2 0x26D1 JUMPI PUSH2 0x26D0 PUSH2 0x267A JUMP JUMPDEST JUMPDEST POP SWAP2 SWAP1 POP JUMP JUMPDEST PUSH32 0x507265736372697074696F6E20646F6573206E6F742065786973740000000000 PUSH0 DUP3 ADD MSTORE POP JUMP JUMPDEST PUSH0 PUSH2 0x270B PUSH1 0x1B DUP4 PUSH2 0x1F27 JUMP JUMPDEST SWAP2 POP PUSH2 0x2716 DUP3 PUSH2 0x26D7 JUMP JUMPDEST PUSH1 0x20 DUP3 ADD SWAP1 POP SWAP2 SWAP1 POP JUMP JUMPDEST PUSH0 PUSH1 0x20 DUP3 ADD SWAP1 POP DUP2 DUP2 SUB PUSH0 DUP4 ADD MSTORE PUSH2 0x2738 DUP2 PUSH2 0x26FF JUMP JUMPDEST SWAP1 POP SWAP2 SWAP1 POP JUMP JUMPDEST PUSH0 PUSH1 0x20 DUP3 ADD SWAP1 POP PUSH2 0x2752 PUSH0 DUP4 ADD DUP5 PUSH2 0x1F0E JUMP JUMPDEST SWAP3 SWAP2 POP POP JUMP JUMPDEST PUSH2 0x2761 DUP2 PUSH2 0x2647 JUMP JUMPDEST DUP2 EQ PUSH2 0x276B JUMPI PUSH0 PUSH0 REVERT JUMPDEST POP JUMP JUMPDEST PUSH0 DUP2 MLOAD SWAP1 POP PUSH2 0x277C DUP2 PUSH2 0x2758 JUMP JUMPDEST SWAP3 SWAP2 POP POP JUMP JUMPDEST PUSH0 PUSH1 0x20 DUP3 DUP5 SUB SLT ISZERO PUSH2 0x2797 JUMPI PUSH2 0x2796 PUSH2 0x1E88 JUMP JUMPDEST JUMPDEST PUSH0 PUSH2 0x27A4 DUP5 DUP3 DUP6 ADD PUSH2 0x276E JUMP JUMPDEST SWAP2 POP POP SWAP3 SWAP2 POP POP JUMP JUMPDEST PUSH32 0x50617469656E74206E6F74207265676973746572656400000000000000000000 PUSH0 DUP3 ADD MSTORE POP JUMP JUMPDEST PUSH0 PUSH2 0x27E1 PUSH1 0x16 DUP4 PUSH2 0x1F27 JUMP JUMPDEST SWAP2 POP PUSH2 0x27EC DUP3 PUSH2 0x27AD JUMP JUMPDEST PUSH1 0x20 DUP3 ADD SWAP1 POP SWAP2 SWAP1 POP JUMP JUMPDEST PUSH0 PUSH1 0x20 DUP3 ADD SWAP1 POP DUP2 DUP2 SUB PUSH0 DUP4 ADD MSTORE PUSH2 0x280E DUP2 PUSH2 0x27D5 JUMP JUMPDEST SWAP1 POP SWAP2 SWAP1 POP JUMP JUMPDEST PUSH0 PUSH1 0x40 DUP3 ADD SWAP1 POP PUSH2 0x2828 PUSH0 DUP4 ADD DUP6 PUSH2 0x1F0E JUMP JUMPDEST PUSH2 0x2835 PUSH1 0x20 DUP4 ADD DUP5 PUSH2 0x1F0E JUMP JUMPDEST SWAP4 SWAP3 POP POP POP JUMP JUMPDEST PUSH32 0x4E6F2076616C696420636F6E73656E742066726F6D2070617469656E74000000 PUSH0 DUP3 ADD MSTORE POP JUMP JUMPDEST PUSH0 PUSH2 0x2870 PUSH1 0x1D DUP4 PUSH2 0x1F27 JUMP JUMPDEST SWAP2 POP PUSH2 0x287B DUP3 PUSH2 0x283C JUMP JUMPDEST PUSH1 0x20 DUP3 ADD SWAP1 POP SWAP2 SWAP1 POP JUMP JUMPDEST PUSH0 PUSH1 0x20 DUP3 ADD SWAP1 POP DUP2 DUP2 SUB PUSH0 DUP4 ADD MSTORE PUSH2 0x289D DUP2 PUSH2 0x2864 JUMP JUMPDEST SWAP1 POP SWAP2 SWAP1 POP JUMP JUMPDEST PUSH32 0x5265656E7472616E637947756172643A207265656E7472616E742063616C6C00 PUSH0 DUP3 ADD MSTORE POP JUMP JUMPDEST PUSH0 PUSH2 0x28D8 PUSH1 0x1F DUP4 PUSH2 0x1F27 JUMP JUMPDEST SWAP2 POP PUSH2 0x28E3 DUP3 PUSH2 0x28A4 JUMP JUMPDEST PUSH1 0x20 DUP3 ADD SWAP1 POP SWAP2 SWAP1 POP JUMP JUMPDEST PUSH0 PUSH1 0x20 DUP3 ADD SWAP1 POP DUP2 DUP2 SUB PUSH0 DUP4 ADD MSTORE PUSH2 0x2905 DUP2 PUSH2 0x28CC JUMP JUMPDEST SWAP1 POP SWAP2 SWAP1 POP JUMP JUMPDEST PUSH32 0x446961676E6F7369732064657461696C73207265717569726564000000000000 PUSH0 DUP3 ADD MSTORE POP JUMP JUMPDEST PUSH0 PUSH2 0x2940 PUSH1 0x1A DUP4 PUSH2 0x1F27 JUMP JUMPDEST SWAP2 POP PUSH2 0x294B DUP3 PUSH2 0x290C JUMP JUMPDEST PUSH1 0x20 DUP3 ADD SWAP1 POP SWAP2 SWAP1 POP JUMP JUMPDEST PUSH0 PUSH1 0x20 DUP3 ADD SWAP1 POP DUP2 DUP2 SUB PUSH0 DUP4 ADD MSTORE PUSH2 0x296D DUP2 PUSH2 0x2934 JUMP JUMPDEST SWAP1 POP SWAP2 SWAP1 POP JUMP JUMPDEST PUSH32 0x4E487B7100000000000000000000000000000000000000000000000000000000 PUSH0 MSTORE PUSH1 0x11 PUSH1 0x4 MSTORE PUSH1 0x24 PUSH0 REVERT JUMPDEST PUSH0 PUSH2 0x29AB DUP3 PUSH2 0x1E90 JUMP JUMPDEST SWAP2 POP PUSH32 0xFFFFFFFFFFFFFFFFFFFFFFFFFFFFFFFFFFFFFFFFFFFFFFFFFFFFFFFFFFFFFFFF DUP3 SUB PUSH2 0x29DD JUMPI PUSH2 0x29DC PUSH2 0x2974 JUMP JUMPDEST JUMPDEST PUSH1 0x1 DUP3 ADD SWAP1 POP SWAP2 SWAP1 POP JUMP JUMPDEST PUSH0 DUP2 SWAP1 POP DUP2 PUSH0 MSTORE PUSH1 0x20 PUSH0 KECCAK256 SWAP1 POP SWAP2 SWAP1 POP JUMP JUMPDEST PUSH0 PUSH1 0x20 PUSH1 0x1F DUP4 ADD DIV SWAP1 POP SWAP2 SWAP1 POP JUMP JUMPDEST PUSH0 DUP3 DUP3 SHL SWAP1 POP SWAP3 SWAP2 POP POP JUMP JUMPDEST PUSH0 PUSH1 0x8 DUP4 MUL PUSH2 0x2A44 PUSH32 0xFFFFFFFFFFFFFFFFFFFFFFFFFFFFFFFFFFFFFFFFFFFFFFFFFFFFFFFFFFFFFFFF DUP3 PUSH2 0x2A09 JUMP JUMPDEST PUSH2 0x2A4E DUP7 DUP4 PUSH2 0x2A09 JUMP JUMPDEST SWAP6 POP DUP1 NOT DUP5 AND SWAP4 POP DUP1 DUP7 AND DUP5 OR SWAP3 POP POP POP SWAP4 SWAP3 POP POP POP JUMP JUMPDEST PUSH0 PUSH2 0x2A80 PUSH2 0x2A7B PUSH2 0x2A76 DUP5 PUSH2 0x1E90 JUMP JUMPDEST PUSH2 0x1E0B JUMP JUMPDEST PUSH2 0x1E90 JUMP JUMPDEST SWAP1 POP SWAP2 SWAP1 POP JUMP JUMPDEST PUSH0 DUP2 SWAP1 POP SWAP2 SWAP1 POP JUMP JUMPDEST PUSH2 0x2A99 DUP4 PUSH2 0x2A66 JUMP JUMPDEST PUSH2 0x2AAD PUSH2 0x2AA5 DUP3 PUSH2 0x2A87 JUMP JUMPDEST DUP5 DUP5 SLOAD PUSH2 0x2A15 JUMP JUMPDEST DUP3 SSTORE POP POP POP POP JUMP JUMPDEST PUSH0 PUSH0 SWAP1 POP SWAP1 JUMP JUMPDEST PUSH2 0x2AC4 PUSH2 0x2AB5 JUMP JUMPDEST PUSH2 0x2ACF DUP2 DUP5 DUP5 PUSH2 0x2A90 JUMP JUMPDEST POP POP POP JUMP JUMPDEST PUSH0 JUMPDEST DUP3 DUP2 LT ISZERO PUSH2 0x2AF5 JUMPI PUSH2 0x2AEA PUSH0 DUP3 DUP5 ADD PUSH2 0x2ABC JUMP JUMPDEST PUSH1 0x1 DUP2 ADD SWAP1 POP PUSH2 0x2AD6 JUMP JUMPDEST POP POP POP JUMP JUMPDEST PUSH1 0x1F DUP3 GT ISZERO PUSH2 0x2B48 JUMPI DUP3 DUP3 GT ISZERO PUSH2 0x2B47 JUMPI PUSH2 0x2B14 DUP2 PUSH2 0x29E8 JUMP JUMPDEST PUSH2 0x2B1D DUP4 PUSH2 0x29FA JUMP JUMPDEST PUSH2 0x2B26 DUP6 PUSH2 0x29FA JUMP JUMPDEST PUSH1 0x20 DUP7 LT ISZERO PUSH2 0x2B33 JUMPI PUSH0 SWAP1 POP JUMPDEST DUP1 DUP4 ADD PUSH2 0x2B42 DUP3 DUP5 SUB DUP3 PUSH2 0x2AD4 JUMP JUMPDEST POP POP POP POP JUMPDEST JUMPDEST POP POP POP JUMP JUMPDEST PUSH0 DUP3 DUP3 SHR SWAP1 POP SWAP3 SWAP2 POP POP JUMP JUMPDEST PUSH0 PUSH2 0x2B68 PUSH0 NOT DUP5 PUSH1 0x8 MUL PUSH2 0x2B4D JUMP JUMPDEST NOT DUP1 DUP4 AND SWAP2 POP POP SWAP3 SWAP2 POP POP JUMP JUMPDEST PUSH0 PUSH2 0x2B80 DUP4 DUP4 PUSH2 0x2B59 JUMP JUMPDEST SWAP2 POP DUP3 PUSH1 0x2 MUL DUP3 OR SWAP1 POP SWAP3 SWAP2 POP POP JUMP JUMPDEST PUSH2 0x2B99 DUP3 PUSH2 0x1F1D JUMP JUMPDEST PUSH8 0xFFFFFFFFFFFFFFFF DUP2 GT ISZERO PUSH2 0x2BB2 JUMPI PUSH2 0x2BB1 PUSH2 0x229F JUMP JUMPDEST JUMPDEST PUSH2 0x2BBC DUP3 SLOAD PUSH2 0x26A7 JUMP JUMPDEST PUSH2 0x2BC7 DUP3 DUP3 DUP6 PUSH2 0x2AFA JUMP JUMPDEST PUSH0 PUSH1 0x20 SWAP1 POP PUSH1 0x1F DUP4 GT PUSH1 0x1 DUP2 EQ PUSH2 0x2BF8 JUMPI PUSH0 DUP5 ISZERO PUSH2 0x2BE6 JUMPI DUP3 DUP8 ADD MLOAD SWAP1 POP JUMPDEST PUSH2 0x2BF0 DUP6 DUP3 PUSH2 0x2B75 JUMP JUMPDEST DUP7 SSTORE POP PUSH2 0x2C57 JUMP JUMPDEST PUSH1 0x1F NOT DUP5 AND PUSH2 0x2C06 DUP7 PUSH2 0x29E8 JUMP JUMPDEST PUSH0 JUMPDEST DUP3 DUP2 LT ISZERO PUSH2 0x2C2D JUMPI DUP5 DUP10 ADD MLOAD DUP3 SSTORE PUSH1 0x1 DUP3 ADD SWAP2 POP PUSH1 0x20 DUP6 ADD SWAP5 POP PUSH1 0x20 DUP2 ADD SWAP1 POP PUSH2 0x2C08 JUMP JUMPDEST DUP7 DUP4 LT ISZERO PUSH2 0x2C4A JUMPI DUP5 DUP10 ADD MLOAD PUSH2 0x2C46 PUSH1 0x1F DUP10 AND DUP3 PUSH2 0x2B59 JUMP JUMPDEST DUP4 SSTORE POP JUMPDEST PUSH1 0x1 PUSH1 0x2 DUP9 MUL ADD DUP9 SSTORE POP POP POP JUMPDEST POP POP POP POP POP POP JUMP JUMPDEST PUSH32 0x4D656469636174696F6E2064657461696C732072657175697265640000000000 PUSH0 DUP3 ADD MSTORE POP JUMP JUMPDEST PUSH0 PUSH2 0x2C93 PUSH1 0x1B DUP4 PUSH2 0x1F27 JUMP JUMPDEST SWAP2 POP PUSH2 0x2C9E DUP3 PUSH2 0x2C5F JUMP JUMPDEST PUSH1 0x20 DUP3 ADD SWAP1 POP SWAP2 SWAP1 POP JUMP JUMPDEST PUSH0 PUSH1 0x20 DUP3 ADD SWAP1 POP DUP2 DUP2 SUB PUSH0 DUP4 ADD MSTORE PUSH2 0x2CC0 DUP2 PUSH2 0x2C87 JUMP JUMPDEST SWAP1 POP SWAP2 SWAP1 POP JUMP JUMPDEST PUSH0 PUSH2 0x2CD1 DUP3 PUSH2 0x1E90 JUMP JUMPDEST SWAP2 POP PUSH2 0x2CDC DUP4 PUSH2 0x1E90 JUMP JUMPDEST SWAP3 POP DUP3 DUP3 MUL PUSH2 0x2CEA DUP2 PUSH2 0x1E90 JUMP JUMPDEST SWAP2 POP DUP3 DUP3 DIV DUP5 EQ DUP4 ISZERO OR PUSH2 0x2D01 JUMPI PUSH2 0x2D00 PUSH2 0x2974 JUMP JUMPDEST JUMPDEST POP SWAP3 SWAP2 POP POP JUMP JUMPDEST PUSH0 PUSH2 0x2D12 DUP3 PUSH2 0x1E90 JUMP JUMPDEST SWAP2 POP PUSH2 0x2D1D DUP4 PUSH2 0x1E90 JUMP JUMPDEST SWAP3 POP DUP3 DUP3 ADD SWAP1 POP DUP1 DUP3 GT ISZERO PUSH2 0x2D35 JUMPI PUSH2 0x2D34 PUSH2 0x2974 JUMP JUMPDEST JUMPDEST SWAP3 SWAP2 POP POP JUMP JUMPDEST PUSH0 DUP2 SWAP1 POP SWAP2 SWAP1 POP JUMP JUMPDEST PUSH2 0x2D4D DUP2 PUSH2 0x2D3B JUMP JUMPDEST DUP2 EQ PUSH2 0x2D57 JUMPI PUSH0 PUSH0 REVERT JUMPDEST POP JUMP JUMPDEST PUSH0 DUP2 MLOAD SWAP1 POP PUSH2 0x2D68 DUP2 PUSH2 0x2D44 JUMP JUMPDEST SWAP3 SWAP2 POP POP JUMP JUMPDEST PUSH0 PUSH1 0x20 DUP3 DUP5 SUB SLT ISZERO PUSH2 0x2D83 JUMPI PUSH2 0x2D82 PUSH2 0x1E88 JUMP JUMPDEST JUMPDEST PUSH0 PUSH2 0x2D90 DUP5 DUP3 DUP6 ADD PUSH2 0x2D5A JUMP JUMPDEST SWAP2 POP POP SWAP3 SWAP2 POP POP JUMP JUMPDEST PUSH2 0x2DA2 DUP2 PUSH2 0x2D3B JUMP JUMPDEST DUP3 MSTORE POP POP JUMP JUMPDEST PUSH0 PUSH1 0x40 DUP3 ADD SWAP1 POP PUSH2 0x2DBB PUSH0 DUP4 ADD DUP6 PUSH2 0x2D99 JUMP JUMPDEST PUSH2 0x2DC8 PUSH1 0x20 DUP4 ADD DUP5 PUSH2 0x1F0E JUMP JUMPDEST SWAP4 SWAP3 POP POP POP JUMP JUMPDEST PUSH32 0x4F6E6C792061207265676973746572656420706861726D61636973742063616E PUSH0 DUP3 ADD MSTORE PUSH32 0x2064697370656E73650000000000000000000000000000000000000000000000 PUSH1 0x20 DUP3 ADD MSTORE POP JUMP JUMPDEST PUSH0 PUSH2 0x2E29 PUSH1 0x29 DUP4 PUSH2 0x1F27 JUMP JUMPDEST SWAP2 POP PUSH2 0x2E34 DUP3 PUSH2 0x2DCF JUMP JUMPDEST PUSH1 0x40 DUP3 ADD SWAP1 POP SWAP2 SWAP1 POP JUMP JUMPDEST PUSH0 PUSH1 0x20 DUP3 ADD SWAP1 POP DUP2 DUP2 SUB PUSH0 DUP4 ADD MSTORE PUSH2 0x2E56 DUP2 PUSH2 0x2E1D JUMP JUMPDEST SWAP1 POP SWAP2 SWAP1 POP JUMP JUMPDEST PUSH32 0x507265736372697074696F6E20616C72656164792064697370656E736564206F PUSH0 DUP3 ADD MSTORE PUSH32 0x7220657870697265640000000000000000000000000000000000000000000000 PUSH1 0x20 DUP3 ADD MSTORE POP JUMP JUMPDEST PUSH0 PUSH2 0x2EB7 PUSH1 0x29 DUP4 PUSH2 0x1F27 JUMP JUMPDEST SWAP2 POP PUSH2 0x2EC2 DUP3 PUSH2 0x2E5D JUMP JUMPDEST PUSH1 0x40 DUP3 ADD SWAP1 POP SWAP2 SWAP1 POP JUMP JUMPDEST PUSH0 PUSH1 0x20 DUP3 ADD SWAP1 POP DUP2 DUP2 SUB PUSH0 DUP4 ADD MSTORE PUSH2 0x2EE4 DUP2 PUSH2 0x2EAB JUMP JUMPDEST SWAP1 POP SWAP2 SWAP1 POP JUMP JUMPDEST PUSH32 0x507265736372697074696F6E2068617320657870697265640000000000000000 PUSH0 DUP3 ADD MSTORE POP JUMP JUMPDEST PUSH0 PUSH2 0x2F1F PUSH1 0x18 DUP4 PUSH2 0x1F27 JUMP JUMPDEST SWAP2 POP PUSH2 0x2F2A DUP3 PUSH2 0x2EEB JUMP JUMPDEST PUSH1 0x20 DUP3 ADD SWAP1 POP SWAP2 SWAP1 POP JUMP JUMPDEST PUSH0 PUSH1 0x20 DUP3 ADD SWAP1 POP DUP2 DUP2 SUB PUSH0 DUP4 ADD MSTORE PUSH2 0x2F4C DUP2 PUSH2 0x2F13 JUMP JUMPDEST SWAP1 POP SWAP2 SWAP1 POP JUMP JUMPDEST PUSH32 0x4E6F7420696E2049535355454420737461746500000000000000000000000000 PUSH0 DUP3 ADD MSTORE POP JUMP JUMPDEST PUSH0 PUSH2 0x2F87 PUSH1 0x13 DUP4 PUSH2 0x1F27 JUMP JUMPDEST SWAP2 POP PUSH2 0x2F92 DUP3 PUSH2 0x2F53 JUMP JUMPDEST PUSH1 0x20 DUP3 ADD SWAP1 POP SWAP2 SWAP1 POP JUMP JUMPDEST PUSH0 PUSH1 0x20 DUP3 ADD SWAP1 POP DUP2 DUP2 SUB PUSH0 DUP4 ADD MSTORE PUSH2 0x2FB4 DUP2 PUSH2 0x2F7B JUMP JUMPDEST SWAP1 POP SWAP2 SWAP1 POP JUMP JUMPDEST PUSH32 0x507265736372697074696F6E20686173206E6F74206578706972656420796574 PUSH0 DUP3 ADD MSTORE POP JUMP JUMPDEST PUSH0 PUSH2 0x2FEF PUSH1 0x20 DUP4 PUSH2 0x1F27 JUMP JUMPDEST SWAP2 POP PUSH2 0x2FFA DUP3 PUSH2 0x2FBB JUMP JUMPDEST PUSH1 0x20 DUP3 ADD SWAP1 POP SWAP2 SWAP1 POP JUMP JUMPDEST PUSH0 PUSH1 0x20 DUP3 ADD SWAP1 POP DUP2 DUP2 SUB PUSH0 DUP4 ADD MSTORE PUSH2 0x301C DUP2 PUSH2 0x2FE3 JUMP JUMPDEST SWAP1 POP SWAP2 SWAP1 POP JUMP INVALID LOG2 PUSH5 0x6970667358 0x22 SLT KECCAK256 DUP4 CODESIZE 0xFC 0xC3 SWAP3 SWAP12 DUP14 SWAP6 SWAP3 0x4E 0x2E 0xBD CALLDATACOPY 0x4B 0xBA 0xDA 0xBA 0xAA PUSH13 0x1FDE643351BC6B3D6CB54907C0 PUSH5 0x736F6C6343 STOP ADDMOD 0x22 STOP CALLER "
				},
				"gasEstimates": {
					"creation": {
						"codeDepositCost": "2475400",
						"executionCost": "infinite",
						"totalCost": "infinite"
					},
					"external": {
						"DEFAULT_PRESCRIPTION_VALIDITY()": "393",
						"accessControl()": "infinite",
						"addDiagnosis(address,string,string)": "infinite",
						"addPrescription(address,string,string,uint256)": "infinite",
						"diagnoses(uint256)": "infinite",
						"diagnosisCount()": "2448",
						"dispensePrescription(uint256)": "infinite",
						"expirePrescription(uint256)": "infinite",
						"getDiagnosesByPatient(address)": "infinite",
						"getPrescription(uint256)": "infinite",
						"getPrescriptionsByPatient(address)": "infinite",
						"identityContract()": "infinite",
						"isValidPrescription(uint256)": "infinite",
						"prescriptionCount()": "2470",
						"prescriptions(uint256)": "infinite"
					}
				},
				"methodIdentifiers": {
					"DEFAULT_PRESCRIPTION_VALIDITY()": "380bd443",
					"accessControl()": "13007d55",
					"addDiagnosis(address,string,string)": "6f8d7bb8",
					"addPrescription(address,string,string,uint256)": "734027e3",
					"diagnoses(uint256)": "e437bea4",
					"diagnosisCount()": "81024971",
					"dispensePrescription(uint256)": "f115d955",
					"expirePrescription(uint256)": "f84441b2",
					"getDiagnosesByPatient(address)": "f49ac617",
					"getPrescription(uint256)": "6f16af10",
					"getPrescriptionsByPatient(address)": "e0acc698",
					"identityContract()": "67031bae",
					"isValidPrescription(uint256)": "e7a0e985",
					"prescriptionCount()": "b6558498",
					"prescriptions(uint256)": "31dfc91b"
				}
			},
			"storageLayout": {
				"storage": [
					{
						"astId": 42,
						"contract": "contracts/PrescriptionAndDiagnosis.sol:PrescriptionAndDiagnosis",
						"label": "_guardStatus",
						"offset": 0,
						"slot": "0",
						"type": "t_uint256"
					},
					{
						"astId": 106,
						"contract": "contracts/PrescriptionAndDiagnosis.sol:PrescriptionAndDiagnosis",
						"label": "identityContract",
						"offset": 0,
						"slot": "1",
						"type": "t_contract(IPatientConsent)19"
					},
					{
						"astId": 109,
						"contract": "contracts/PrescriptionAndDiagnosis.sol:PrescriptionAndDiagnosis",
						"label": "accessControl",
						"offset": 0,
						"slot": "2",
						"type": "t_contract(IAccessControl)39"
					},
					{
						"astId": 111,
						"contract": "contracts/PrescriptionAndDiagnosis.sol:PrescriptionAndDiagnosis",
						"label": "diagnosisCount",
						"offset": 0,
						"slot": "3",
						"type": "t_uint256"
					},
					{
						"astId": 113,
						"contract": "contracts/PrescriptionAndDiagnosis.sol:PrescriptionAndDiagnosis",
						"label": "prescriptionCount",
						"offset": 0,
						"slot": "4",
						"type": "t_uint256"
					},
					{
						"astId": 118,
						"contract": "contracts/PrescriptionAndDiagnosis.sol:PrescriptionAndDiagnosis",
						"label": "diagnoses",
						"offset": 0,
						"slot": "5",
						"type": "t_mapping(t_uint256,t_struct(Diagnosis)81_storage)"
					},
					{
						"astId": 123,
						"contract": "contracts/PrescriptionAndDiagnosis.sol:PrescriptionAndDiagnosis",
						"label": "prescriptions",
						"offset": 0,
						"slot": "6",
						"type": "t_mapping(t_uint256,t_struct(Prescription)103_storage)"
					},
					{
						"astId": 128,
						"contract": "contracts/PrescriptionAndDiagnosis.sol:PrescriptionAndDiagnosis",
						"label": "_patientPrescriptions",
						"offset": 0,
						"slot": "7",
						"type": "t_mapping(t_address,t_array(t_uint256)dyn_storage)"
					},
					{
						"astId": 133,
						"contract": "contracts/PrescriptionAndDiagnosis.sol:PrescriptionAndDiagnosis",
						"label": "_patientDiagnoses",
						"offset": 0,
						"slot": "8",
						"type": "t_mapping(t_address,t_array(t_uint256)dyn_storage)"
					}
				],
				"types": {
					"t_address": {
						"encoding": "inplace",
						"label": "address",
						"numberOfBytes": "20"
					},
					"t_array(t_uint256)dyn_storage": {
						"base": "t_uint256",
						"encoding": "dynamic_array",
						"label": "uint256[]",
						"numberOfBytes": "32"
					},
					"t_contract(IAccessControl)39": {
						"encoding": "inplace",
						"label": "contract IAccessControl",
						"numberOfBytes": "20"
					},
					"t_contract(IPatientConsent)19": {
						"encoding": "inplace",
						"label": "contract IPatientConsent",
						"numberOfBytes": "20"
					},
					"t_enum(PrescriptionStatus)68": {
						"encoding": "inplace",
						"label": "enum PrescriptionAndDiagnosis.PrescriptionStatus",
						"numberOfBytes": "1"
					},
					"t_mapping(t_address,t_array(t_uint256)dyn_storage)": {
						"encoding": "mapping",
						"key": "t_address",
						"label": "mapping(address => uint256[])",
						"numberOfBytes": "32",
						"value": "t_array(t_uint256)dyn_storage"
					},
					"t_mapping(t_uint256,t_struct(Diagnosis)81_storage)": {
						"encoding": "mapping",
						"key": "t_uint256",
						"label": "mapping(uint256 => struct PrescriptionAndDiagnosis.Diagnosis)",
						"numberOfBytes": "32",
						"value": "t_struct(Diagnosis)81_storage"
					},
					"t_mapping(t_uint256,t_struct(Prescription)103_storage)": {
						"encoding": "mapping",
						"key": "t_uint256",
						"label": "mapping(uint256 => struct PrescriptionAndDiagnosis.Prescription)",
						"numberOfBytes": "32",
						"value": "t_struct(Prescription)103_storage"
					},
					"t_string_storage": {
						"encoding": "bytes",
						"label": "string",
						"numberOfBytes": "32"
					},
					"t_struct(Diagnosis)81_storage": {
						"encoding": "inplace",
						"label": "struct PrescriptionAndDiagnosis.Diagnosis",
						"members": [
							{
								"astId": 70,
								"contract": "contracts/PrescriptionAndDiagnosis.sol:PrescriptionAndDiagnosis",
								"label": "diagnosisId",
								"offset": 0,
								"slot": "0",
								"type": "t_uint256"
							},
							{
								"astId": 72,
								"contract": "contracts/PrescriptionAndDiagnosis.sol:PrescriptionAndDiagnosis",
								"label": "patient",
								"offset": 0,
								"slot": "1",
								"type": "t_address"
							},
							{
								"astId": 74,
								"contract": "contracts/PrescriptionAndDiagnosis.sol:PrescriptionAndDiagnosis",
								"label": "doctor",
								"offset": 0,
								"slot": "2",
								"type": "t_address"
							},
							{
								"astId": 76,
								"contract": "contracts/PrescriptionAndDiagnosis.sol:PrescriptionAndDiagnosis",
								"label": "diagnosisDetails",
								"offset": 0,
								"slot": "3",
								"type": "t_string_storage"
							},
							{
								"astId": 78,
								"contract": "contracts/PrescriptionAndDiagnosis.sol:PrescriptionAndDiagnosis",
								"label": "ipfsHash",
								"offset": 0,
								"slot": "4",
								"type": "t_string_storage"
							},
							{
								"astId": 80,
								"contract": "contracts/PrescriptionAndDiagnosis.sol:PrescriptionAndDiagnosis",
								"label": "timestamp",
								"offset": 0,
								"slot": "5",
								"type": "t_uint256"
							}
						],
						"numberOfBytes": "192"
					},
					"t_struct(Prescription)103_storage": {
						"encoding": "inplace",
						"label": "struct PrescriptionAndDiagnosis.Prescription",
						"members": [
							{
								"astId": 83,
								"contract": "contracts/PrescriptionAndDiagnosis.sol:PrescriptionAndDiagnosis",
								"label": "prescriptionId",
								"offset": 0,
								"slot": "0",
								"type": "t_uint256"
							},
							{
								"astId": 85,
								"contract": "contracts/PrescriptionAndDiagnosis.sol:PrescriptionAndDiagnosis",
								"label": "patient",
								"offset": 0,
								"slot": "1",
								"type": "t_address"
							},
							{
								"astId": 87,
								"contract": "contracts/PrescriptionAndDiagnosis.sol:PrescriptionAndDiagnosis",
								"label": "doctor",
								"offset": 0,
								"slot": "2",
								"type": "t_address"
							},
							{
								"astId": 89,
								"contract": "contracts/PrescriptionAndDiagnosis.sol:PrescriptionAndDiagnosis",
								"label": "medicationDetails",
								"offset": 0,
								"slot": "3",
								"type": "t_string_storage"
							},
							{
								"astId": 91,
								"contract": "contracts/PrescriptionAndDiagnosis.sol:PrescriptionAndDiagnosis",
								"label": "ipfsHash",
								"offset": 0,
								"slot": "4",
								"type": "t_string_storage"
							},
							{
								"astId": 94,
								"contract": "contracts/PrescriptionAndDiagnosis.sol:PrescriptionAndDiagnosis",
								"label": "status",
								"offset": 0,
								"slot": "5",
								"type": "t_enum(PrescriptionStatus)68"
							},
							{
								"astId": 96,
								"contract": "contracts/PrescriptionAndDiagnosis.sol:PrescriptionAndDiagnosis",
								"label": "issuedAt",
								"offset": 0,
								"slot": "6",
								"type": "t_uint256"
							},
							{
								"astId": 98,
								"contract": "contracts/PrescriptionAndDiagnosis.sol:PrescriptionAndDiagnosis",
								"label": "expiresAt",
								"offset": 0,
								"slot": "7",
								"type": "t_uint256"
							},
							{
								"astId": 100,
								"contract": "contracts/PrescriptionAndDiagnosis.sol:PrescriptionAndDiagnosis",
								"label": "dispensedBy",
								"offset": 0,
								"slot": "8",
								"type": "t_address"
							},
							{
								"astId": 102,
								"contract": "contracts/PrescriptionAndDiagnosis.sol:PrescriptionAndDiagnosis",
								"label": "dispensedAt",
								"offset": 0,
								"slot": "9",
								"type": "t_uint256"
							}
						],
						"numberOfBytes": "320"
					},
					"t_uint256": {
						"encoding": "inplace",
						"label": "uint256",
						"numberOfBytes": "32"
					}
				}
			},
			"userdoc": {
				"kind": "user",
				"methods": {
					"addDiagnosis(address,string,string)": {
						"notice": "Add a diagnosis for a patient.         Caller must be a consented doctor."
					},
					"addPrescription(address,string,string,uint256)": {
						"notice": "Add a prescription for a patient."
					},
					"dispensePrescription(uint256)": {
						"notice": "Mark a prescription as dispensed.         Only callable by a registered pharmacist.         Validates the prescription is still ISSUED and not expired.         DrugAuthenticity.sol calls isValidPrescription() before this."
					},
					"expirePrescription(uint256)": {
						"notice": "Mark a prescription as EXPIRED.         Anyone can call this on an overdue prescription (used by bots / cron)."
					},
					"getDiagnosesByPatient(address)": {
						"notice": "Returns all diagnosis IDs for a patient"
					},
					"getPrescription(uint256)": {
						"notice": "Returns full prescription struct — called by DrugAuthenticity         to get the patient address for validation."
					},
					"getPrescriptionsByPatient(address)": {
						"notice": "Returns all prescription IDs for a patient"
					},
					"isValidPrescription(uint256)": {
						"notice": "Primary cross-contract check used by DrugAuthenticity.         Returns true only if prescription is ISSUED and not expired."
					}
				},
				"version": 1
			}
		}
	}
}