{
	"contracts/PatientIdentityAndConsent.sol": {
		"PatientIdentityAndConsent": {
			"abi": [
				{
					"inputs": [
						{
							"internalType": "address",
							"name": "_registryAdmin",
							"type": "address"
						}
					],
					"stateMutability": "nonpayable",
					"type": "constructor"
				},
				{
					"anonymous": false,
					"inputs": [
						{
							"indexed": true,
							"internalType": "address",
							"name": "patient",
							"type": "address"
						},
						{
							"indexed": true,
							"internalType": "address",
							"name": "delegate",
							"type": "address"
						},
						{
							"indexed": false,
							"internalType": "uint256",
							"name": "expiresAt",
							"type": "uint256"
						}
					],
					"name": "ConsentGranted",
					"type": "event"
				},
				{
					"anonymous": false,
					"inputs": [
						{
							"indexed": true,
							"internalType": "address",
							"name": "patient",
							"type": "address"
						},
						{
							"indexed": true,
							"internalType": "address",
							"name": "delegate",
							"type": "address"
						},
						{
							"indexed": false,
							"internalType": "uint256",
							"name": "revokedAt",
							"type": "uint256"
						}
					],
					"name": "ConsentRevoked",
					"type": "event"
				},
				{
					"anonymous": false,
					"inputs": [
						{
							"indexed": true,
							"internalType": "address",
							"name": "patient",
							"type": "address"
						},
						{
							"indexed": false,
							"internalType": "string",
							"name": "newMetadataHash",
							"type": "string"
						},
						{
							"indexed": false,
							"internalType": "uint256",
							"name": "timestamp",
							"type": "uint256"
						}
					],
					"name": "MetadataUpdated",
					"type": "event"
				},
				{
					"anonymous": false,
					"inputs": [
						{
							"indexed": true,
							"internalType": "address",
							"name": "patient",
							"type": "address"
						},
						{
							"indexed": true,
							"internalType": "address",
							"name": "registeredBy",
							"type": "address"
						},
						{
							"indexed": false,
							"internalType": "string",
							"name": "metadataHash",
							"type": "string"
						},
						{
							"indexed": false,
							"internalType": "uint256",
							"name": "timestamp",
							"type": "uint256"
						}
					],
					"name": "PatientRegistered",
					"type": "event"
				},
				{
					"inputs": [],
					"name": "DEFAULT_CONSENT_DURATION",
					"outputs": [
						{
							"internalType": "uint256",
							"name": "",
							"type": "uint256"
						}
					],
					"stateMutability": "view",
					"type": "function"
				},
				{
					"inputs": [
						{
							"internalType": "address",
							"name": "patient",
							"type": "address"
						},
						{
							"internalType": "address",
							"name": "delegate",
							"type": "address"
						}
					],
					"name": "getConsentDetails",
					"outputs": [
						{
							"internalType": "bool",
							"name": "granted",
							"type": "bool"
						},
						{
							"internalType": "uint256",
							"name": "expiresAt",
							"type": "uint256"
						},
						{
							"internalType": "bool",
							"name": "isExpired",
							"type": "bool"
						}
					],
					"stateMutability": "view",
					"type": "function"
				},
				{
					"inputs": [
						{
							"internalType": "address",
							"name": "delegate",
							"type": "address"
						},
						{
							"internalType": "uint256",
							"name": "durationDays",
							"type": "uint256"
						}
					],
					"name": "grantConsent",
					"outputs": [],
					"stateMutability": "nonpayable",
					"type": "function"
				},
				{
					"inputs": [
						{
							"internalType": "address",
							"name": "patient",
							"type": "address"
						},
						{
							"internalType": "address",
							"name": "delegate",
							"type": "address"
						}
					],
					"name": "hasValidConsent",
					"outputs": [
						{
							"internalType": "bool",
							"name": "",
							"type": "bool"
						}
					],
					"stateMutability": "view",
					"type": "function"
				},
				{
					"inputs": [
						{
							"internalType": "address",
							"name": "",
							"type": "address"
						}
					],
					"name": "isRegisteredPatient",
					"outputs": [
						{
							"internalType": "bool",
							"name": "",
							"type": "bool"
						}
					],
					"stateMutability": "view",
					"type": "function"
				},
				{
					"inputs": [
						{
							"internalType": "address",
							"name": "",
							"type": "address"
						}
					],
					"name": "patientMetadata",
					"outputs": [
						{
							"internalType": "string",
							"name": "",
							"type": "string"
						}
					],
					"stateMutability": "view",
					"type": "function"
				},
				{
					"inputs": [
						{
							"internalType": "address",
							"name": "patientAddress",
							"type": "address"
						},
						{
							"internalType": "string",
							"name": "metadataHash",
							"type": "string"
						}
					],
					"name": "registerPatient",
					"outputs": [],
					"stateMutability": "nonpayable",
					"type": "function"
				},
				{
					"inputs": [],
					"name": "registryAdmin",
					"outputs": [
						{
							"internalType": "address",
							"name": "",
							"type": "address"
						}
					],
					"stateMutability": "view",
					"type": "function"
				},
				{
					"inputs": [
						{
							"internalType": "address",
							"name": "delegate",
							"type": "address"
						}
					],
					"name": "revokeConsent",
					"outputs": [],
					"stateMutability": "nonpayable",
					"type": "function"
				},
				{
					"inputs": [
						{
							"internalType": "string",
							"name": "newMetadataHash",
							"type": "string"
						}
					],
					"name": "updateMetadata",
					"outputs": [],
					"stateMutability": "nonpayable",
					"type": "function"
				}
			],
			"devdoc": {
				"kind": "dev",
				"methods": {
					"grantConsent(address,uint256)": {
						"params": {
							"delegate": "Address to receive consent",
							"durationDays": "How many days the consent is valid (0 = default)"
						}
					},
					"hasValidConsent(address,address)": {
						"params": {
							"delegate": "Address requesting access (doctor, insurer, etc.)",
							"patient": "Patient's address"
						}
					},
					"registerPatient(address,string)": {
						"params": {
							"metadataHash": "IPFS CID of encrypted patient profile JSON",
							"patientAddress": "Wallet address of the patient"
						}
					},
					"revokeConsent(address)": {
						"params": {
							"delegate": "Address whose consent is revoked"
						}
					},
					"updateMetadata(string)": {
						"params": {
							"newMetadataHash": "New IPFS CID"
						}
					}
				},
				"version": 1
			},
			"evm": {
				"assembly": "    /* \"contracts/PatientIdentityAndConsent.sol\":1317:10199  contract PatientIdentityAndConsent is ReentrancyGuard {... */\n  mstore(0x40, 0x80)\n    /* \"contracts/PatientIdentityAndConsent.sol\":909:910  1 */\n  0x01\n    /* \"contracts/PatientIdentityAndConsent.sol\":878:910  uint256 private _guardStatus = 1 */\n  0x00\n  sstore\n    /* \"contracts/PatientIdentityAndConsent.sol\":4840:4995  constructor(address _registryAdmin) {... */\n  callvalue\n  dup1\n  iszero\n  tag_1\n  jumpi\n  revert(0x00, 0x00)\ntag_1:\n  pop\n  mload(0x40)\n  sub(codesize, bytecodeSize)\n  dup1\n  bytecodeSize\n  dup4\n  codecopy\n  dup2\n  dup2\n  add\n  0x40\n  mstore\n  dup2\n  add\n  swap1\n  tag_2\n  swap2\n  swap1\n  tag_3\n  jump\t// in\ntag_2:\n    /* \"contracts/PatientIdentityAndConsent.sol\":4920:4921  0 */\n  0x00\n    /* \"contracts/PatientIdentityAndConsent.sol\":4894:4922  _registryAdmin != address(0) */\n  0xffffffffffffffffffffffffffffffffffffffff\n  and\n    /* \"contracts/PatientIdentityAndConsent.sol\":4894:4908  _registryAdmin */\n  dup2\n    /* \"contracts/PatientIdentityAndConsent.sol\":4894:4922  _registryAdmin != address(0) */\n  0xffffffffffffffffffffffffffffffffffffffff\n  and\n  sub\n    /* \"contracts/PatientIdentityAndConsent.sol\":4886:4948  require(_registryAdmin != address(0), \"Invalid admin address\") */\n  tag_6\n  jumpi\n  mload(0x40)\n  0x08c379a000000000000000000000000000000000000000000000000000000000\n  dup2\n  mstore\n  0x04\n  add\n  tag_7\n  swap1\n  tag_8\n  jump\t// in\ntag_7:\n  mload(0x40)\n  dup1\n  swap2\n  sub\n  swap1\n  revert\ntag_6:\n    /* \"contracts/PatientIdentityAndConsent.sol\":4974:4988  _registryAdmin */\n  dup1\n    /* \"contracts/PatientIdentityAndConsent.sol\":4958:4971  registryAdmin */\n  0x01\n  0x00\n    /* \"contracts/PatientIdentityAndConsent.sol\":4958:4988  registryAdmin = _registryAdmin */\n  0x0100\n  exp\n  dup2\n  sload\n  dup2\n  0xffffffffffffffffffffffffffffffffffffffff\n  mul\n  not\n  and\n  swap1\n  dup4\n  0xffffffffffffffffffffffffffffffffffffffff\n  and\n  mul\n  or\n  swap1\n  sstore\n  pop\n    /* \"contracts/PatientIdentityAndConsent.sol\":4840:4995  constructor(address _registryAdmin) {... */\n  pop\n    /* \"contracts/PatientIdentityAndConsent.sol\":1317:10199  contract PatientIdentityAndConsent is ReentrancyGuard {... */\n  jump(tag_9)\n    /* \"#utility.yul\":88:205   */\ntag_11:\n    /* \"#utility.yul\":197:198   */\n  0x00\n    /* \"#utility.yul\":194:195   */\n  0x00\n    /* \"#utility.yul\":187:199   */\n  revert\n    /* \"#utility.yul\":334:460   */\ntag_13:\n    /* \"#utility.yul\":371:378   */\n  0x00\n    /* \"#utility.yul\":411:453   */\n  0xffffffffffffffffffffffffffffffffffffffff\n    /* \"#utility.yul\":404:409   */\n  dup3\n    /* \"#utility.yul\":400:454   */\n  and\n    /* \"#utility.yul\":389:454   */\n  swap1\n  pop\n    /* \"#utility.yul\":334:460   */\n  swap2\n  swap1\n  pop\n  jump\t// out\n    /* \"#utility.yul\":466:562   */\ntag_14:\n    /* \"#utility.yul\":503:510   */\n  0x00\n    /* \"#utility.yul\":532:556   */\n  tag_26\n    /* \"#utility.yul\":550:555   */\n  dup3\n    /* \"#utility.yul\":532:556   */\n  tag_13\n  jump\t// in\ntag_26:\n    /* \"#utility.yul\":521:556   */\n  swap1\n  pop\n    /* \"#utility.yul\":466:562   */\n  swap2\n  swap1\n  pop\n  jump\t// out\n    /* \"#utility.yul\":568:690   */\ntag_15:\n    /* \"#utility.yul\":641:665   */\n  tag_28\n    /* \"#utility.yul\":659:664   */\n  dup2\n    /* \"#utility.yul\":641:665   */\n  tag_14\n  jump\t// in\ntag_28:\n    /* \"#utility.yul\":634:639   */\n  dup2\n    /* \"#utility.yul\":631:666   */\n  eq\n    /* \"#utility.yul\":621:684   */\n  tag_29\n  jumpi\n    /* \"#utility.yul\":680:681   */\n  0x00\n    /* \"#utility.yul\":677:678   */\n  0x00\n    /* \"#utility.yul\":670:682   */\n  revert\n    /* \"#utility.yul\":621:684   */\ntag_29:\n    /* \"#utility.yul\":568:690   */\n  pop\n  jump\t// out\n    /* \"#utility.yul\":696:839   */\ntag_16:\n    /* \"#utility.yul\":753:758   */\n  0x00\n    /* \"#utility.yul\":784:790   */\n  dup2\n    /* \"#utility.yul\":778:791   */\n  mload\n    /* \"#utility.yul\":769:791   */\n  swap1\n  pop\n    /* \"#utility.yul\":800:833   */\n  tag_31\n    /* \"#utility.yul\":827:832   */\n  dup2\n    /* \"#utility.yul\":800:833   */\n  tag_15\n  jump\t// in\ntag_31:\n    /* \"#utility.yul\":696:839   */\n  swap3\n  swap2\n  pop\n  pop\n  jump\t// out\n    /* \"#utility.yul\":845:1196   */\ntag_3:\n    /* \"#utility.yul\":915:921   */\n  0x00\n    /* \"#utility.yul\":964:966   */\n  0x20\n    /* \"#utility.yul\":952:961   */\n  dup3\n    /* \"#utility.yul\":943:950   */\n  dup5\n    /* \"#utility.yul\":939:962   */\n  sub\n    /* \"#utility.yul\":935:967   */\n  slt\n    /* \"#utility.yul\":932:1051   */\n  iszero\n  tag_33\n  jumpi\n    /* \"#utility.yul\":970:1049   */\n  tag_34\n  tag_11\n  jump\t// in\ntag_34:\n    /* \"#utility.yul\":932:1051   */\ntag_33:\n    /* \"#utility.yul\":1090:1091   */\n  0x00\n    /* \"#utility.yul\":1115:1179   */\n  tag_35\n    /* \"#utility.yul\":1171:1178   */\n  dup5\n    /* \"#utility.yul\":1162:1168   */\n  dup3\n    /* \"#utility.yul\":1151:1160   */\n  dup6\n    /* \"#utility.yul\":1147:1169   */\n  add\n    /* \"#utility.yul\":1115:1179   */\n  tag_16\n  jump\t// in\ntag_35:\n    /* \"#utility.yul\":1105:1179   */\n  swap2\n  pop\n    /* \"#utility.yul\":1061:1189   */\n  pop\n    /* \"#utility.yul\":845:1196   */\n  swap3\n  swap2\n  pop\n  pop\n  jump\t// out\n    /* \"#utility.yul\":1202:1371   */\ntag_17:\n    /* \"#utility.yul\":1286:1297   */\n  0x00\n    /* \"#utility.yul\":1320:1326   */\n  dup3\n    /* \"#utility.yul\":1315:1318   */\n  dup3\n    /* \"#utility.yul\":1308:1327   */\n  mstore\n    /* \"#utility.yul\":1360:1364   */\n  0x20\n    /* \"#utility.yul\":1355:1358   */\n  dup3\n    /* \"#utility.yul\":1351:1365   */\n  add\n    /* \"#utility.yul\":1336:1365   */\n  swap1\n  pop\n    /* \"#utility.yul\":1202:1371   */\n  swap3\n  swap2\n  pop\n  pop\n  jump\t// out\n    /* \"#utility.yul\":1377:1548   */\ntag_18:\n    /* \"#utility.yul\":1517:1540   */\n  0x496e76616c69642061646d696e20616464726573730000000000000000000000\n    /* \"#utility.yul\":1513:1514   */\n  0x00\n    /* \"#utility.yul\":1505:1511   */\n  dup3\n    /* \"#utility.yul\":1501:1515   */\n  add\n    /* \"#utility.yul\":1494:1541   */\n  mstore\n    /* \"#utility.yul\":1377:1548   */\n  pop\n  jump\t// out\n    /* \"#utility.yul\":1554:1920   */\ntag_19:\n    /* \"#utility.yul\":1696:1699   */\n  0x00\n    /* \"#utility.yul\":1717:1784   */\n  tag_39\n    /* \"#utility.yul\":1781:1783   */\n  0x15\n    /* \"#utility.yul\":1776:1779   */\n  dup4\n    /* \"#utility.yul\":1717:1784   */\n  tag_17\n  jump\t// in\ntag_39:\n    /* \"#utility.yul\":1710:1784   */\n  swap2\n  pop\n    /* \"#utility.yul\":1793:1886   */\n  tag_40\n    /* \"#utility.yul\":1882:1885   */\n  dup3\n    /* \"#utility.yul\":1793:1886   */\n  tag_18\n  jump\t// in\ntag_40:\n    /* \"#utility.yul\":1911:1913   */\n  0x20\n    /* \"#utility.yul\":1906:1909   */\n  dup3\n    /* \"#utility.yul\":1902:1914   */\n  add\n    /* \"#utility.yul\":1895:1914   */\n  swap1\n  pop\n    /* \"#utility.yul\":1554:1920   */\n  swap2\n  swap1\n  pop\n  jump\t// out\n    /* \"#utility.yul\":1926:2345   */\ntag_8:\n    /* \"#utility.yul\":2092:2096   */\n  0x00\n    /* \"#utility.yul\":2130:2132   */\n  0x20\n    /* \"#utility.yul\":2119:2128   */\n  dup3\n    /* \"#utility.yul\":2115:2133   */\n  add\n    /* \"#utility.yul\":2107:2133   */\n  swap1\n  pop\n    /* \"#utility.yul\":2179:2188   */\n  dup2\n    /* \"#utility.yul\":2173:2177   */\n  dup2\n    /* \"#utility.yul\":2169:2189   */\n  sub\n    /* \"#utility.yul\":2165:2166   */\n  0x00\n    /* \"#utility.yul\":2154:2163   */\n  dup4\n    /* \"#utility.yul\":2150:2167   */\n  add\n    /* \"#utility.yul\":2143:2190   */\n  mstore\n    /* \"#utility.yul\":2207:2338   */\n  tag_42\n    /* \"#utility.yul\":2333:2337   */\n  dup2\n    /* \"#utility.yul\":2207:2338   */\n  tag_19\n  jump\t// in\ntag_42:\n    /* \"#utility.yul\":2199:2338   */\n  swap1\n  pop\n    /* \"#utility.yul\":1926:2345   */\n  swap2\n  swap1\n  pop\n  jump\t// out\n    /* \"contracts/PatientIdentityAndConsent.sol\":1317:10199  contract PatientIdentityAndConsent is ReentrancyGuard {... */\ntag_9:\n  dataSize(sub_0)\n  dup1\n  dataOffset(sub_0)\n  0x00\n  codecopy\n  0x00\n  return\nstop\n\nsub_0: assembly {\n        /* \"contracts/PatientIdentityAndConsent.sol\":1317:10199  contract PatientIdentityAndConsent is ReentrancyGuard {... */\n      mstore(0x40, 0x80)\n      callvalue\n      dup1\n      iszero\n      tag_1\n      jumpi\n      revert(0x00, 0x00)\n    tag_1:\n      pop\n      jumpi(tag_2, lt(calldatasize, 0x04))\n      shr(0xe0, calldataload(0x00))\n      dup1\n      0x918b5be1\n      gt\n      tag_13\n      jumpi\n      dup1\n      0x918b5be1\n      eq\n      tag_8\n      jumpi\n      dup1\n      0x9d15e77f\n      eq\n      tag_9\n      jumpi\n      dup1\n      0xa6d41f33\n      eq\n      tag_10\n      jumpi\n      dup1\n      0xc5e4892d\n      eq\n      tag_11\n      jumpi\n      dup1\n      0xd1a48627\n      eq\n      tag_12\n      jumpi\n      jump(tag_2)\n    tag_13:\n      dup1\n      0x3c4f7a9d\n      eq\n      tag_3\n      jumpi\n      dup1\n      0x55ab139c\n      eq\n      tag_4\n      jumpi\n      dup1\n      0x614363de\n      eq\n      tag_5\n      jumpi\n      dup1\n      0x74c16b23\n      eq\n      tag_6\n      jumpi\n      dup1\n      0x8048c2f0\n      eq\n      tag_7\n      jumpi\n    tag_2:\n      revert(0x00, 0x00)\n        /* \"contracts/PatientIdentityAndConsent.sol\":2488:2541  mapping(address => bool)   public isRegisteredPatient */\n    tag_3:\n      tag_14\n      0x04\n      dup1\n      calldatasize\n      sub\n      dup2\n      add\n      swap1\n      tag_15\n      swap2\n      swap1\n      tag_16\n      jump\t// in\n    tag_15:\n      tag_17\n      jump\t// in\n    tag_14:\n      mload(0x40)\n      tag_18\n      swap2\n      swap1\n      tag_19\n      jump\t// in\n    tag_18:\n      mload(0x40)\n      dup1\n      swap2\n      sub\n      swap1\n      return\n        /* \"contracts/PatientIdentityAndConsent.sol\":2833:2892  uint256 public constant DEFAULT_CONSENT_DURATION = 365 days */\n    tag_4:\n      tag_20\n      tag_21\n      jump\t// in\n    tag_20:\n      mload(0x40)\n      tag_22\n      swap2\n      swap1\n      tag_23\n      jump\t// in\n    tag_22:\n      mload(0x40)\n      dup1\n      swap2\n      sub\n      swap1\n      return\n        /* \"contracts/PatientIdentityAndConsent.sol\":2547:2596  mapping(address => string) public patientMetadata */\n    tag_5:\n      tag_24\n      0x04\n      dup1\n      calldatasize\n      sub\n      dup2\n      add\n      swap1\n      tag_25\n      swap2\n      swap1\n      tag_16\n      jump\t// in\n    tag_25:\n      tag_26\n      jump\t// in\n    tag_24:\n      mload(0x40)\n      tag_27\n      swap2\n      swap1\n      tag_28\n      jump\t// in\n    tag_27:\n      mload(0x40)\n      dup1\n      swap2\n      sub\n      swap1\n      return\n        /* \"contracts/PatientIdentityAndConsent.sol\":2453:2481  address public registryAdmin */\n    tag_6:\n      tag_29\n      tag_30\n      jump\t// in\n    tag_29:\n      mload(0x40)\n      tag_31\n      swap2\n      swap1\n      tag_32\n      jump\t// in\n    tag_31:\n      mload(0x40)\n      dup1\n      swap2\n      sub\n      swap1\n      return\n        /* \"contracts/PatientIdentityAndConsent.sol\":5682:6273  function registerPatient(address patientAddress, string memory metadataHash)... */\n    tag_7:\n      tag_33\n      0x04\n      dup1\n      calldatasize\n      sub\n      dup2\n      add\n      swap1\n      tag_34\n      swap2\n      swap1\n      tag_35\n      jump\t// in\n    tag_34:\n      tag_36\n      jump\t// in\n    tag_33:\n      stop\n        /* \"contracts/PatientIdentityAndConsent.sol\":6809:7150  function updateMetadata(string memory newMetadataHash)... */\n    tag_8:\n      tag_37\n      0x04\n      dup1\n      calldatasize\n      sub\n      dup2\n      add\n      swap1\n      tag_38\n      swap2\n      swap1\n      tag_39\n      jump\t// in\n    tag_38:\n      tag_40\n      jump\t// in\n    tag_37:\n      stop\n        /* \"contracts/PatientIdentityAndConsent.sol\":7465:8074  function grantConsent(address delegate, uint256 durationDays)... */\n    tag_9:\n      tag_41\n      0x04\n      dup1\n      calldatasize\n      sub\n      dup2\n      add\n      swap1\n      tag_42\n      swap2\n      swap1\n      tag_43\n      jump\t// in\n    tag_42:\n      tag_44\n      jump\t// in\n    tag_41:\n      stop\n        /* \"contracts/PatientIdentityAndConsent.sol\":9395:9649  function hasValidConsent(address patient, address delegate)... */\n    tag_10:\n      tag_45\n      0x04\n      dup1\n      calldatasize\n      sub\n      dup2\n      add\n      swap1\n      tag_46\n      swap2\n      swap1\n      tag_47\n      jump\t// in\n    tag_46:\n      tag_48\n      jump\t// in\n    tag_45:\n      mload(0x40)\n      tag_49\n      swap2\n      swap1\n      tag_19\n      jump\t// in\n    tag_49:\n      mload(0x40)\n      dup1\n      swap2\n      sub\n      swap1\n      return\n        /* \"contracts/PatientIdentityAndConsent.sol\":9822:10197  function getConsentDetails(address patient, address delegate)... */\n    tag_11:\n      tag_50\n      0x04\n      dup1\n      calldatasize\n      sub\n      dup2\n      add\n      swap1\n      tag_51\n      swap2\n      swap1\n      tag_47\n      jump\t// in\n    tag_51:\n      tag_52\n      jump\t// in\n    tag_50:\n      mload(0x40)\n      tag_53\n      swap4\n      swap3\n      swap2\n      swap1\n      tag_54\n      jump\t// in\n    tag_53:\n      mload(0x40)\n      dup1\n      swap2\n      sub\n      swap1\n      return\n        /* \"contracts/PatientIdentityAndConsent.sol\":8213:8692  function revokeConsent(address delegate)... */\n    tag_12:\n      tag_55\n      0x04\n      dup1\n      calldatasize\n      sub\n      dup2\n      add\n      swap1\n      tag_56\n      swap2\n      swap1\n      tag_16\n      jump\t// in\n    tag_56:\n      tag_57\n      jump\t// in\n    tag_55:\n      stop\n        /* \"contracts/PatientIdentityAndConsent.sol\":2488:2541  mapping(address => bool)   public isRegisteredPatient */\n    tag_17:\n      mstore(0x20, 0x02)\n      dup1\n      0x00\n      mstore\n      keccak256(0x00, 0x40)\n      0x00\n      swap2\n      pop\n      sload\n      swap1\n      0x0100\n      exp\n      swap1\n      div\n      0xff\n      and\n      dup2\n      jump\t// out\n        /* \"contracts/PatientIdentityAndConsent.sol\":2833:2892  uint256 public constant DEFAULT_CONSENT_DURATION = 365 days */\n    tag_21:\n        /* \"contracts/PatientIdentityAndConsent.sol\":2884:2892  365 days */\n      0x01e13380\n        /* \"contracts/PatientIdentityAndConsent.sol\":2833:2892  uint256 public constant DEFAULT_CONSENT_DURATION = 365 days */\n      dup2\n      jump\t// out\n        /* \"contracts/PatientIdentityAndConsent.sol\":2547:2596  mapping(address => string) public patientMetadata */\n    tag_26:\n      mstore(0x20, 0x03)\n      dup1\n      0x00\n      mstore\n      keccak256(0x00, 0x40)\n      0x00\n      swap2\n      pop\n      swap1\n      pop\n      dup1\n      sload\n      tag_58\n      swap1\n      tag_59\n      jump\t// in\n    tag_58:\n      dup1\n      0x1f\n      add\n      0x20\n      dup1\n      swap2\n      div\n      mul\n      0x20\n      add\n      mload(0x40)\n      swap1\n      dup2\n      add\n      0x40\n      mstore\n      dup1\n      swap3\n      swap2\n      swap1\n      dup2\n      dup2\n      mstore\n      0x20\n      add\n      dup3\n      dup1\n      sload\n      tag_60\n      swap1\n      tag_59\n      jump\t// in\n    tag_60:\n      dup1\n      iszero\n      tag_61\n      jumpi\n      dup1\n      0x1f\n      lt\n      tag_62\n      jumpi\n      0x0100\n      dup1\n      dup4\n      sload\n      div\n      mul\n      dup4\n      mstore\n      swap2\n      0x20\n      add\n      swap2\n      jump(tag_61)\n    tag_62:\n      dup3\n      add\n      swap2\n      swap1\n      0x00\n      mstore\n      keccak256(0x00, 0x20)\n      swap1\n    tag_63:\n      dup2\n      sload\n      dup2\n      mstore\n      swap1\n      0x01\n      add\n      swap1\n      0x20\n      add\n      dup1\n      dup4\n      gt\n      tag_63\n      jumpi\n      dup3\n      swap1\n      sub\n      0x1f\n      and\n      dup3\n      add\n      swap2\n    tag_61:\n      pop\n      pop\n      pop\n      pop\n      pop\n      dup2\n      jump\t// out\n        /* \"contracts/PatientIdentityAndConsent.sol\":2453:2481  address public registryAdmin */\n    tag_30:\n      0x01\n      0x00\n      swap1\n      sload\n      swap1\n      0x0100\n      exp\n      swap1\n      div\n      0xffffffffffffffffffffffffffffffffffffffff\n      and\n      dup2\n      jump\t// out\n        /* \"contracts/PatientIdentityAndConsent.sol\":5682:6273  function registerPatient(address patientAddress, string memory metadataHash)... */\n    tag_36:\n        /* \"contracts/PatientIdentityAndConsent.sol\":4221:4234  registryAdmin */\n      0x01\n      0x00\n      swap1\n      sload\n      swap1\n      0x0100\n      exp\n      swap1\n      div\n      0xffffffffffffffffffffffffffffffffffffffff\n      and\n        /* \"contracts/PatientIdentityAndConsent.sol\":4207:4234  msg.sender == registryAdmin */\n      0xffffffffffffffffffffffffffffffffffffffff\n      and\n        /* \"contracts/PatientIdentityAndConsent.sol\":4207:4217  msg.sender */\n      caller\n        /* \"contracts/PatientIdentityAndConsent.sol\":4207:4234  msg.sender == registryAdmin */\n      0xffffffffffffffffffffffffffffffffffffffff\n      and\n      eq\n        /* \"contracts/PatientIdentityAndConsent.sol\":4199:4271  require(msg.sender == registryAdmin, \"Only RegistryAdmin can call this\") */\n      tag_65\n      jumpi\n      mload(0x40)\n      0x08c379a000000000000000000000000000000000000000000000000000000000\n      dup2\n      mstore\n      0x04\n      add\n      tag_66\n      swap1\n      tag_67\n      jump\t// in\n    tag_66:\n      mload(0x40)\n      dup1\n      swap2\n      sub\n      swap1\n      revert\n    tag_65:\n        /* \"contracts/PatientIdentityAndConsent.sol\":974:975  1 */\n      0x01\n        /* \"contracts/PatientIdentityAndConsent.sol\":958:970  _guardStatus */\n      sload(0x00)\n        /* \"contracts/PatientIdentityAndConsent.sol\":958:975  _guardStatus == 1 */\n      eq\n        /* \"contracts/PatientIdentityAndConsent.sol\":950:1011  require(_guardStatus == 1, \"ReentrancyGuard: reentrant call\") */\n      tag_69\n      jumpi\n      mload(0x40)\n      0x08c379a000000000000000000000000000000000000000000000000000000000\n      dup2\n      mstore\n      0x04\n      add\n      tag_70\n      swap1\n      tag_71\n      jump\t// in\n    tag_70:\n      mload(0x40)\n      dup1\n      swap2\n      sub\n      swap1\n      revert\n    tag_69:\n        /* \"contracts/PatientIdentityAndConsent.sol\":1036:1037  2 */\n      0x02\n        /* \"contracts/PatientIdentityAndConsent.sol\":1021:1033  _guardStatus */\n      0x00\n        /* \"contracts/PatientIdentityAndConsent.sol\":1021:1037  _guardStatus = 2 */\n      dup2\n      swap1\n      sstore\n      pop\n        /* \"contracts/PatientIdentityAndConsent.sol\":5871:5872  0 */\n      0x00\n        /* \"contracts/PatientIdentityAndConsent.sol\":5845:5873  patientAddress != address(0) */\n      0xffffffffffffffffffffffffffffffffffffffff\n      and\n        /* \"contracts/PatientIdentityAndConsent.sol\":5845:5859  patientAddress */\n      dup3\n        /* \"contracts/PatientIdentityAndConsent.sol\":5845:5873  patientAddress != address(0) */\n      0xffffffffffffffffffffffffffffffffffffffff\n      and\n      sub\n        /* \"contracts/PatientIdentityAndConsent.sol\":5837:5901  require(patientAddress != address(0), \"Invalid patient address\") */\n      tag_73\n      jumpi\n      mload(0x40)\n      0x08c379a000000000000000000000000000000000000000000000000000000000\n      dup2\n      mstore\n      0x04\n      add\n      tag_74\n      swap1\n      tag_75\n      jump\t// in\n    tag_74:\n      mload(0x40)\n      dup1\n      swap2\n      sub\n      swap1\n      revert\n    tag_73:\n        /* \"contracts/PatientIdentityAndConsent.sol\":5948:5949  0 */\n      0x00\n        /* \"contracts/PatientIdentityAndConsent.sol\":5925:5937  metadataHash */\n      dup2\n        /* \"contracts/PatientIdentityAndConsent.sol\":5919:5945  bytes(metadataHash).length */\n      mload\n        /* \"contracts/PatientIdentityAndConsent.sol\":5919:5949  bytes(metadataHash).length > 0 */\n      gt\n        /* \"contracts/PatientIdentityAndConsent.sol\":5911:5976  require(bytes(metadataHash).length > 0, \"Metadata hash required\") */\n      tag_76\n      jumpi\n      mload(0x40)\n      0x08c379a000000000000000000000000000000000000000000000000000000000\n      dup2\n      mstore\n      0x04\n      add\n      tag_77\n      swap1\n      tag_78\n      jump\t// in\n    tag_77:\n      mload(0x40)\n      dup1\n      swap2\n      sub\n      swap1\n      revert\n    tag_76:\n        /* \"contracts/PatientIdentityAndConsent.sol\":5995:6014  isRegisteredPatient */\n      0x02\n        /* \"contracts/PatientIdentityAndConsent.sol\":5995:6030  isRegisteredPatient[patientAddress] */\n      0x00\n        /* \"contracts/PatientIdentityAndConsent.sol\":6015:6029  patientAddress */\n      dup4\n        /* \"contracts/PatientIdentityAndConsent.sol\":5995:6030  isRegisteredPatient[patientAddress] */\n      0xffffffffffffffffffffffffffffffffffffffff\n      and\n      0xffffffffffffffffffffffffffffffffffffffff\n      and\n      dup2\n      mstore\n      0x20\n      add\n      swap1\n      dup2\n      mstore\n      0x20\n      add\n      0x00\n      keccak256\n      0x00\n      swap1\n      sload\n      swap1\n      0x0100\n      exp\n      swap1\n      div\n      0xff\n      and\n        /* \"contracts/PatientIdentityAndConsent.sol\":5994:6030  !isRegisteredPatient[patientAddress] */\n      iszero\n        /* \"contracts/PatientIdentityAndConsent.sol\":5986:6061  require(!isRegisteredPatient[patientAddress], \"Patient already registered\") */\n      tag_79\n      jumpi\n      mload(0x40)\n      0x08c379a000000000000000000000000000000000000000000000000000000000\n      dup2\n      mstore\n      0x04\n      add\n      tag_80\n      swap1\n      tag_81\n      jump\t// in\n    tag_80:\n      mload(0x40)\n      dup1\n      swap2\n      sub\n      swap1\n      revert\n    tag_79:\n        /* \"contracts/PatientIdentityAndConsent.sol\":6110:6114  true */\n      0x01\n        /* \"contracts/PatientIdentityAndConsent.sol\":6072:6091  isRegisteredPatient */\n      0x02\n        /* \"contracts/PatientIdentityAndConsent.sol\":6072:6107  isRegisteredPatient[patientAddress] */\n      0x00\n        /* \"contracts/PatientIdentityAndConsent.sol\":6092:6106  patientAddress */\n      dup5\n        /* \"contracts/PatientIdentityAndConsent.sol\":6072:6107  isRegisteredPatient[patientAddress] */\n      0xffffffffffffffffffffffffffffffffffffffff\n      and\n      0xffffffffffffffffffffffffffffffffffffffff\n      and\n      dup2\n      mstore\n      0x20\n      add\n      swap1\n      dup2\n      mstore\n      0x20\n      add\n      0x00\n      keccak256\n      0x00\n        /* \"contracts/PatientIdentityAndConsent.sol\":6072:6114  isRegisteredPatient[patientAddress] = true */\n      0x0100\n      exp\n      dup2\n      sload\n      dup2\n      0xff\n      mul\n      not\n      and\n      swap1\n      dup4\n      iszero\n      iszero\n      mul\n      or\n      swap1\n      sstore\n      pop\n        /* \"contracts/PatientIdentityAndConsent.sol\":6162:6174  metadataHash */\n      dup1\n        /* \"contracts/PatientIdentityAndConsent.sol\":6124:6139  patientMetadata */\n      0x03\n        /* \"contracts/PatientIdentityAndConsent.sol\":6124:6155  patientMetadata[patientAddress] */\n      0x00\n        /* \"contracts/PatientIdentityAndConsent.sol\":6140:6154  patientAddress */\n      dup5\n        /* \"contracts/PatientIdentityAndConsent.sol\":6124:6155  patientMetadata[patientAddress] */\n      0xffffffffffffffffffffffffffffffffffffffff\n      and\n      0xffffffffffffffffffffffffffffffffffffffff\n      and\n      dup2\n      mstore\n      0x20\n      add\n      swap1\n      dup2\n      mstore\n      0x20\n      add\n      0x00\n      keccak256\n        /* \"contracts/PatientIdentityAndConsent.sol\":6124:6174  patientMetadata[patientAddress]     = metadataHash */\n      swap1\n      dup2\n      tag_82\n      swap2\n      swap1\n      tag_83\n      jump\t// in\n    tag_82:\n      pop\n        /* \"contracts/PatientIdentityAndConsent.sol\":6224:6234  msg.sender */\n      caller\n        /* \"contracts/PatientIdentityAndConsent.sol\":6190:6266  PatientRegistered(patientAddress, msg.sender, metadataHash, block.timestamp) */\n      0xffffffffffffffffffffffffffffffffffffffff\n      and\n        /* \"contracts/PatientIdentityAndConsent.sol\":6208:6222  patientAddress */\n      dup3\n        /* \"contracts/PatientIdentityAndConsent.sol\":6190:6266  PatientRegistered(patientAddress, msg.sender, metadataHash, block.timestamp) */\n      0xffffffffffffffffffffffffffffffffffffffff\n      and\n      0xa51978d9c64194b0d5c8cd9eb228895f30d6c88c665e027db731307e8046964c\n        /* \"contracts/PatientIdentityAndConsent.sol\":6236:6248  metadataHash */\n      dup4\n        /* \"contracts/PatientIdentityAndConsent.sol\":6250:6265  block.timestamp */\n      timestamp\n        /* \"contracts/PatientIdentityAndConsent.sol\":6190:6266  PatientRegistered(patientAddress, msg.sender, metadataHash, block.timestamp) */\n      mload(0x40)\n      tag_84\n      swap3\n      swap2\n      swap1\n      tag_85\n      jump\t// in\n    tag_84:\n      mload(0x40)\n      dup1\n      swap2\n      sub\n      swap1\n      log3\n        /* \"contracts/PatientIdentityAndConsent.sol\":1073:1074  1 */\n      0x01\n        /* \"contracts/PatientIdentityAndConsent.sol\":1058:1070  _guardStatus */\n      0x00\n        /* \"contracts/PatientIdentityAndConsent.sol\":1058:1074  _guardStatus = 1 */\n      dup2\n      swap1\n      sstore\n      pop\n        /* \"contracts/PatientIdentityAndConsent.sol\":5682:6273  function registerPatient(address patientAddress, string memory metadataHash)... */\n      pop\n      pop\n      jump\t// out\n        /* \"contracts/PatientIdentityAndConsent.sol\":6809:7150  function updateMetadata(string memory newMetadataHash)... */\n    tag_40:\n        /* \"contracts/PatientIdentityAndConsent.sol\":4345:4364  isRegisteredPatient */\n      0x02\n        /* \"contracts/PatientIdentityAndConsent.sol\":4345:4376  isRegisteredPatient[msg.sender] */\n      0x00\n        /* \"contracts/PatientIdentityAndConsent.sol\":4365:4375  msg.sender */\n      caller\n        /* \"contracts/PatientIdentityAndConsent.sol\":4345:4376  isRegisteredPatient[msg.sender] */\n      0xffffffffffffffffffffffffffffffffffffffff\n      and\n      0xffffffffffffffffffffffffffffffffffffffff\n      and\n      dup2\n      mstore\n      0x20\n      add\n      swap1\n      dup2\n      mstore\n      0x20\n      add\n      0x00\n      keccak256\n      0x00\n      swap1\n      sload\n      swap1\n      0x0100\n      exp\n      swap1\n      div\n      0xff\n      and\n        /* \"contracts/PatientIdentityAndConsent.sol\":4337:4415  require(isRegisteredPatient[msg.sender], \"Only a registered patient can call\") */\n      tag_87\n      jumpi\n      mload(0x40)\n      0x08c379a000000000000000000000000000000000000000000000000000000000\n      dup2\n      mstore\n      0x04\n      add\n      tag_88\n      swap1\n      tag_89\n      jump\t// in\n    tag_88:\n      mload(0x40)\n      dup1\n      swap2\n      sub\n      swap1\n      revert\n    tag_87:\n        /* \"contracts/PatientIdentityAndConsent.sol\":974:975  1 */\n      0x01\n        /* \"contracts/PatientIdentityAndConsent.sol\":958:970  _guardStatus */\n      sload(0x00)\n        /* \"contracts/PatientIdentityAndConsent.sol\":958:975  _guardStatus == 1 */\n      eq\n        /* \"contracts/PatientIdentityAndConsent.sol\":950:1011  require(_guardStatus == 1, \"ReentrancyGuard: reentrant call\") */\n      tag_91\n      jumpi\n      mload(0x40)\n      0x08c379a000000000000000000000000000000000000000000000000000000000\n      dup2\n      mstore\n      0x04\n      add\n      tag_92\n      swap1\n      tag_71\n      jump\t// in\n    tag_92:\n      mload(0x40)\n      dup1\n      swap2\n      sub\n      swap1\n      revert\n    tag_91:\n        /* \"contracts/PatientIdentityAndConsent.sol\":1036:1037  2 */\n      0x02\n        /* \"contracts/PatientIdentityAndConsent.sol\":1021:1033  _guardStatus */\n      0x00\n        /* \"contracts/PatientIdentityAndConsent.sol\":1021:1037  _guardStatus = 2 */\n      dup2\n      swap1\n      sstore\n      pop\n        /* \"contracts/PatientIdentityAndConsent.sol\":6986:6987  0 */\n      0x00\n        /* \"contracts/PatientIdentityAndConsent.sol\":6960:6975  newMetadataHash */\n      dup2\n        /* \"contracts/PatientIdentityAndConsent.sol\":6954:6983  bytes(newMetadataHash).length */\n      mload\n        /* \"contracts/PatientIdentityAndConsent.sol\":6954:6987  bytes(newMetadataHash).length > 0 */\n      gt\n        /* \"contracts/PatientIdentityAndConsent.sol\":6946:7012  require(bytes(newMetadataHash).length > 0, \"Hash cannot be empty\") */\n      tag_94\n      jumpi\n      mload(0x40)\n      0x08c379a000000000000000000000000000000000000000000000000000000000\n      dup2\n      mstore\n      0x04\n      add\n      tag_95\n      swap1\n      tag_96\n      jump\t// in\n    tag_95:\n      mload(0x40)\n      dup1\n      swap2\n      sub\n      swap1\n      revert\n    tag_94:\n        /* \"contracts/PatientIdentityAndConsent.sol\":7052:7067  newMetadataHash */\n      dup1\n        /* \"contracts/PatientIdentityAndConsent.sol\":7022:7037  patientMetadata */\n      0x03\n        /* \"contracts/PatientIdentityAndConsent.sol\":7022:7049  patientMetadata[msg.sender] */\n      0x00\n        /* \"contracts/PatientIdentityAndConsent.sol\":7038:7048  msg.sender */\n      caller\n        /* \"contracts/PatientIdentityAndConsent.sol\":7022:7049  patientMetadata[msg.sender] */\n      0xffffffffffffffffffffffffffffffffffffffff\n      and\n      0xffffffffffffffffffffffffffffffffffffffff\n      and\n      dup2\n      mstore\n      0x20\n      add\n      swap1\n      dup2\n      mstore\n      0x20\n      add\n      0x00\n      keccak256\n        /* \"contracts/PatientIdentityAndConsent.sol\":7022:7067  patientMetadata[msg.sender] = newMetadataHash */\n      swap1\n      dup2\n      tag_97\n      swap2\n      swap1\n      tag_83\n      jump\t// in\n    tag_97:\n      pop\n        /* \"contracts/PatientIdentityAndConsent.sol\":7098:7108  msg.sender */\n      caller\n        /* \"contracts/PatientIdentityAndConsent.sol\":7082:7143  MetadataUpdated(msg.sender, newMetadataHash, block.timestamp) */\n      0xffffffffffffffffffffffffffffffffffffffff\n      and\n      0x35224cade043c033fe1e2521d7d83e401fe108e394a3f0cff8e076a966b25786\n        /* \"contracts/PatientIdentityAndConsent.sol\":7110:7125  newMetadataHash */\n      dup3\n        /* \"contracts/PatientIdentityAndConsent.sol\":7127:7142  block.timestamp */\n      timestamp\n        /* \"contracts/PatientIdentityAndConsent.sol\":7082:7143  MetadataUpdated(msg.sender, newMetadataHash, block.timestamp) */\n      mload(0x40)\n      tag_98\n      swap3\n      swap2\n      swap1\n      tag_85\n      jump\t// in\n    tag_98:\n      mload(0x40)\n      dup1\n      swap2\n      sub\n      swap1\n      log2\n        /* \"contracts/PatientIdentityAndConsent.sol\":1073:1074  1 */\n      0x01\n        /* \"contracts/PatientIdentityAndConsent.sol\":1058:1070  _guardStatus */\n      0x00\n        /* \"contracts/PatientIdentityAndConsent.sol\":1058:1074  _guardStatus = 1 */\n      dup2\n      swap1\n      sstore\n      pop\n        /* \"contracts/PatientIdentityAndConsent.sol\":6809:7150  function updateMetadata(string memory newMetadataHash)... */\n      pop\n      jump\t// out\n        /* \"contracts/PatientIdentityAndConsent.sol\":7465:8074  function grantConsent(address delegate, uint256 durationDays)... */\n    tag_44:\n        /* \"contracts/PatientIdentityAndConsent.sol\":4345:4364  isRegisteredPatient */\n      0x02\n        /* \"contracts/PatientIdentityAndConsent.sol\":4345:4376  isRegisteredPatient[msg.sender] */\n      0x00\n        /* \"contracts/PatientIdentityAndConsent.sol\":4365:4375  msg.sender */\n      caller\n        /* \"contracts/PatientIdentityAndConsent.sol\":4345:4376  isRegisteredPatient[msg.sender] */\n      0xffffffffffffffffffffffffffffffffffffffff\n      and\n      0xffffffffffffffffffffffffffffffffffffffff\n      and\n      dup2\n      mstore\n      0x20\n      add\n      swap1\n      dup2\n      mstore\n      0x20\n      add\n      0x00\n      keccak256\n      0x00\n      swap1\n      sload\n      swap1\n      0x0100\n      exp\n      swap1\n      div\n      0xff\n      and\n        /* \"contracts/PatientIdentityAndConsent.sol\":4337:4415  require(isRegisteredPatient[msg.sender], \"Only a registered patient can call\") */\n      tag_100\n      jumpi\n      mload(0x40)\n      0x08c379a000000000000000000000000000000000000000000000000000000000\n      dup2\n      mstore\n      0x04\n      add\n      tag_101\n      swap1\n      tag_89\n      jump\t// in\n    tag_101:\n      mload(0x40)\n      dup1\n      swap2\n      sub\n      swap1\n      revert\n    tag_100:\n        /* \"contracts/PatientIdentityAndConsent.sol\":974:975  1 */\n      0x01\n        /* \"contracts/PatientIdentityAndConsent.sol\":958:970  _guardStatus */\n      sload(0x00)\n        /* \"contracts/PatientIdentityAndConsent.sol\":958:975  _guardStatus == 1 */\n      eq\n        /* \"contracts/PatientIdentityAndConsent.sol\":950:1011  require(_guardStatus == 1, \"ReentrancyGuard: reentrant call\") */\n      tag_103\n      jumpi\n      mload(0x40)\n      0x08c379a000000000000000000000000000000000000000000000000000000000\n      dup2\n      mstore\n      0x04\n      add\n      tag_104\n      swap1\n      tag_71\n      jump\t// in\n    tag_104:\n      mload(0x40)\n      dup1\n      swap2\n      sub\n      swap1\n      revert\n    tag_103:\n        /* \"contracts/PatientIdentityAndConsent.sol\":1036:1037  2 */\n      0x02\n        /* \"contracts/PatientIdentityAndConsent.sol\":1021:1033  _guardStatus */\n      0x00\n        /* \"contracts/PatientIdentityAndConsent.sol\":1021:1037  _guardStatus = 2 */\n      dup2\n      swap1\n      sstore\n      pop\n        /* \"contracts/PatientIdentityAndConsent.sol\":7637:7638  0 */\n      0x00\n        /* \"contracts/PatientIdentityAndConsent.sol\":7617:7639  delegate != address(0) */\n      0xffffffffffffffffffffffffffffffffffffffff\n      and\n        /* \"contracts/PatientIdentityAndConsent.sol\":7617:7625  delegate */\n      dup3\n        /* \"contracts/PatientIdentityAndConsent.sol\":7617:7639  delegate != address(0) */\n      0xffffffffffffffffffffffffffffffffffffffff\n      and\n      sub\n        /* \"contracts/PatientIdentityAndConsent.sol\":7609:7671  require(delegate != address(0),    \"Invalid delegate address\") */\n      tag_106\n      jumpi\n      mload(0x40)\n      0x08c379a000000000000000000000000000000000000000000000000000000000\n      dup2\n      mstore\n      0x04\n      add\n      tag_107\n      swap1\n      tag_108\n      jump\t// in\n    tag_107:\n      mload(0x40)\n      dup1\n      swap2\n      sub\n      swap1\n      revert\n    tag_106:\n        /* \"contracts/PatientIdentityAndConsent.sol\":7701:7711  msg.sender */\n      caller\n        /* \"contracts/PatientIdentityAndConsent.sol\":7689:7711  delegate != msg.sender */\n      0xffffffffffffffffffffffffffffffffffffffff\n      and\n        /* \"contracts/PatientIdentityAndConsent.sol\":7689:7697  delegate */\n      dup3\n        /* \"contracts/PatientIdentityAndConsent.sol\":7689:7711  delegate != msg.sender */\n      0xffffffffffffffffffffffffffffffffffffffff\n      and\n      sub\n        /* \"contracts/PatientIdentityAndConsent.sol\":7681:7745  require(delegate != msg.sender,    \"Cannot consent to yourself\") */\n      tag_109\n      jumpi\n      mload(0x40)\n      0x08c379a000000000000000000000000000000000000000000000000000000000\n      dup2\n      mstore\n      0x04\n      add\n      tag_110\n      swap1\n      tag_111\n      jump\t// in\n    tag_110:\n      mload(0x40)\n      dup1\n      swap2\n      sub\n      swap1\n      revert\n    tag_109:\n        /* \"contracts/PatientIdentityAndConsent.sol\":7756:7772  uint256 duration */\n      0x00\n        /* \"contracts/PatientIdentityAndConsent.sol\":7792:7793  0 */\n      0x00\n        /* \"contracts/PatientIdentityAndConsent.sol\":7776:7788  durationDays */\n      dup3\n        /* \"contracts/PatientIdentityAndConsent.sol\":7776:7793  durationDays == 0 */\n      eq\n        /* \"contracts/PatientIdentityAndConsent.sol\":7776:7844  durationDays == 0 ? DEFAULT_CONSENT_DURATION : durationDays * 1 days */\n      tag_112\n      jumpi\n        /* \"contracts/PatientIdentityAndConsent.sol\":7838:7844  1 days */\n      0x015180\n        /* \"contracts/PatientIdentityAndConsent.sol\":7823:7835  durationDays */\n      dup3\n        /* \"contracts/PatientIdentityAndConsent.sol\":7823:7844  durationDays * 1 days */\n      tag_113\n      swap2\n      swap1\n      tag_114\n      jump\t// in\n    tag_113:\n        /* \"contracts/PatientIdentityAndConsent.sol\":7776:7844  durationDays == 0 ? DEFAULT_CONSENT_DURATION : durationDays * 1 days */\n      jump(tag_115)\n    tag_112:\n        /* \"contracts/PatientIdentityAndConsent.sol\":2884:2892  365 days */\n      0x01e13380\n        /* \"contracts/PatientIdentityAndConsent.sol\":7776:7844  durationDays == 0 ? DEFAULT_CONSENT_DURATION : durationDays * 1 days */\n    tag_115:\n        /* \"contracts/PatientIdentityAndConsent.sol\":7756:7844  uint256 duration  = durationDays == 0 ? DEFAULT_CONSENT_DURATION : durationDays * 1 days */\n      swap1\n      pop\n        /* \"contracts/PatientIdentityAndConsent.sol\":7854:7871  uint256 expiresAt */\n      0x00\n        /* \"contracts/PatientIdentityAndConsent.sol\":7892:7900  duration */\n      dup2\n        /* \"contracts/PatientIdentityAndConsent.sol\":7874:7889  block.timestamp */\n      timestamp\n        /* \"contracts/PatientIdentityAndConsent.sol\":7874:7900  block.timestamp + duration */\n      tag_116\n      swap2\n      swap1\n      tag_117\n      jump\t// in\n    tag_116:\n        /* \"contracts/PatientIdentityAndConsent.sol\":7854:7900  uint256 expiresAt = block.timestamp + duration */\n      swap1\n      pop\n        /* \"contracts/PatientIdentityAndConsent.sol\":7951:8005  ConsentRecord({ granted: true, expiresAt: expiresAt }) */\n      mload(0x40)\n      dup1\n      0x40\n      add\n      0x40\n      mstore\n      dup1\n        /* \"contracts/PatientIdentityAndConsent.sol\":7976:7980  true */\n      0x01\n        /* \"contracts/PatientIdentityAndConsent.sol\":7951:8005  ConsentRecord({ granted: true, expiresAt: expiresAt }) */\n      iszero\n      iszero\n      dup2\n      mstore\n      0x20\n      add\n        /* \"contracts/PatientIdentityAndConsent.sol\":7993:8002  expiresAt */\n      dup3\n        /* \"contracts/PatientIdentityAndConsent.sol\":7951:8005  ConsentRecord({ granted: true, expiresAt: expiresAt }) */\n      dup2\n      mstore\n      pop\n        /* \"contracts/PatientIdentityAndConsent.sol\":7911:7926  _consentRecords */\n      0x04\n        /* \"contracts/PatientIdentityAndConsent.sol\":7911:7938  _consentRecords[msg.sender] */\n      0x00\n        /* \"contracts/PatientIdentityAndConsent.sol\":7927:7937  msg.sender */\n      caller\n        /* \"contracts/PatientIdentityAndConsent.sol\":7911:7938  _consentRecords[msg.sender] */\n      0xffffffffffffffffffffffffffffffffffffffff\n      and\n      0xffffffffffffffffffffffffffffffffffffffff\n      and\n      dup2\n      mstore\n      0x20\n      add\n      swap1\n      dup2\n      mstore\n      0x20\n      add\n      0x00\n      keccak256\n        /* \"contracts/PatientIdentityAndConsent.sol\":7911:7948  _consentRecords[msg.sender][delegate] */\n      0x00\n        /* \"contracts/PatientIdentityAndConsent.sol\":7939:7947  delegate */\n      dup7\n        /* \"contracts/PatientIdentityAndConsent.sol\":7911:7948  _consentRecords[msg.sender][delegate] */\n      0xffffffffffffffffffffffffffffffffffffffff\n      and\n      0xffffffffffffffffffffffffffffffffffffffff\n      and\n      dup2\n      mstore\n      0x20\n      add\n      swap1\n      dup2\n      mstore\n      0x20\n      add\n      0x00\n      keccak256\n        /* \"contracts/PatientIdentityAndConsent.sol\":7911:8005  _consentRecords[msg.sender][delegate] = ConsentRecord({ granted: true, expiresAt: expiresAt }) */\n      0x00\n      dup3\n      add\n      mload\n      dup2\n      0x00\n      add\n      exp(0x0100, 0x00)\n      dup2\n      sload\n      dup2\n      0xff\n      mul\n      not\n      and\n      swap1\n      dup4\n      iszero\n      iszero\n      mul\n      or\n      swap1\n      sstore\n      pop\n      0x20\n      dup3\n      add\n      mload\n      dup2\n      0x01\n      add\n      sstore\n      swap1\n      pop\n      pop\n        /* \"contracts/PatientIdentityAndConsent.sol\":8047:8055  delegate */\n      dup4\n        /* \"contracts/PatientIdentityAndConsent.sol\":8020:8067  ConsentGranted(msg.sender, delegate, expiresAt) */\n      0xffffffffffffffffffffffffffffffffffffffff\n      and\n        /* \"contracts/PatientIdentityAndConsent.sol\":8035:8045  msg.sender */\n      caller\n        /* \"contracts/PatientIdentityAndConsent.sol\":8020:8067  ConsentGranted(msg.sender, delegate, expiresAt) */\n      0xffffffffffffffffffffffffffffffffffffffff\n      and\n      0x76a1ad651bc50df5ed36a8884155c46292a92f3605f168df56223cb72e98d02a\n        /* \"contracts/PatientIdentityAndConsent.sol\":8057:8066  expiresAt */\n      dup4\n        /* \"contracts/PatientIdentityAndConsent.sol\":8020:8067  ConsentGranted(msg.sender, delegate, expiresAt) */\n      mload(0x40)\n      tag_118\n      swap2\n      swap1\n      tag_23\n      jump\t// in\n    tag_118:\n      mload(0x40)\n      dup1\n      swap2\n      sub\n      swap1\n      log3\n        /* \"contracts/PatientIdentityAndConsent.sol\":7599:8074  {... */\n      pop\n      pop\n        /* \"contracts/PatientIdentityAndConsent.sol\":1073:1074  1 */\n      0x01\n        /* \"contracts/PatientIdentityAndConsent.sol\":1058:1070  _guardStatus */\n      0x00\n        /* \"contracts/PatientIdentityAndConsent.sol\":1058:1074  _guardStatus = 1 */\n      dup2\n      swap1\n      sstore\n      pop\n        /* \"contracts/PatientIdentityAndConsent.sol\":7465:8074  function grantConsent(address delegate, uint256 durationDays)... */\n      pop\n      pop\n      jump\t// out\n        /* \"contracts/PatientIdentityAndConsent.sol\":9395:9649  function hasValidConsent(address patient, address delegate)... */\n    tag_48:\n        /* \"contracts/PatientIdentityAndConsent.sol\":9502:9506  bool */\n      0x00\n        /* \"contracts/PatientIdentityAndConsent.sol\":9522:9544  ConsentRecord memory r */\n      0x00\n        /* \"contracts/PatientIdentityAndConsent.sol\":9547:9562  _consentRecords */\n      0x04\n        /* \"contracts/PatientIdentityAndConsent.sol\":9547:9571  _consentRecords[patient] */\n      0x00\n        /* \"contracts/PatientIdentityAndConsent.sol\":9563:9570  patient */\n      dup6\n        /* \"contracts/PatientIdentityAndConsent.sol\":9547:9571  _consentRecords[patient] */\n      0xffffffffffffffffffffffffffffffffffffffff\n      and\n      0xffffffffffffffffffffffffffffffffffffffff\n      and\n      dup2\n      mstore\n      0x20\n      add\n      swap1\n      dup2\n      mstore\n      0x20\n      add\n      0x00\n      keccak256\n        /* \"contracts/PatientIdentityAndConsent.sol\":9547:9581  _consentRecords[patient][delegate] */\n      0x00\n        /* \"contracts/PatientIdentityAndConsent.sol\":9572:9580  delegate */\n      dup5\n        /* \"contracts/PatientIdentityAndConsent.sol\":9547:9581  _consentRecords[patient][delegate] */\n      0xffffffffffffffffffffffffffffffffffffffff\n      and\n      0xffffffffffffffffffffffffffffffffffffffff\n      and\n      dup2\n      mstore\n      0x20\n      add\n      swap1\n      dup2\n      mstore\n      0x20\n      add\n      0x00\n      keccak256\n        /* \"contracts/PatientIdentityAndConsent.sol\":9522:9581  ConsentRecord memory r = _consentRecords[patient][delegate] */\n      mload(0x40)\n      dup1\n      0x40\n      add\n      0x40\n      mstore\n      swap1\n      dup2\n      0x00\n      dup3\n      add\n      0x00\n      swap1\n      sload\n      swap1\n      0x0100\n      exp\n      swap1\n      div\n      0xff\n      and\n      iszero\n      iszero\n      iszero\n      iszero\n      dup2\n      mstore\n      0x20\n      add\n      0x01\n      dup3\n      add\n      sload\n      dup2\n      mstore\n      pop\n      pop\n      swap1\n      pop\n        /* \"contracts/PatientIdentityAndConsent.sol\":9599:9600  r */\n      dup1\n        /* \"contracts/PatientIdentityAndConsent.sol\":9599:9608  r.granted */\n      0x00\n      add\n      mload\n        /* \"contracts/PatientIdentityAndConsent.sol\":9599:9641  r.granted && block.timestamp < r.expiresAt */\n      dup1\n      iszero\n      tag_120\n      jumpi\n      pop\n        /* \"contracts/PatientIdentityAndConsent.sol\":9630:9631  r */\n      dup1\n        /* \"contracts/PatientIdentityAndConsent.sol\":9630:9641  r.expiresAt */\n      0x20\n      add\n      mload\n        /* \"contracts/PatientIdentityAndConsent.sol\":9612:9627  block.timestamp */\n      timestamp\n        /* \"contracts/PatientIdentityAndConsent.sol\":9612:9641  block.timestamp < r.expiresAt */\n      lt\n        /* \"contracts/PatientIdentityAndConsent.sol\":9599:9641  r.granted && block.timestamp < r.expiresAt */\n    tag_120:\n        /* \"contracts/PatientIdentityAndConsent.sol\":9591:9642  return (r.granted && block.timestamp < r.expiresAt) */\n      swap2\n      pop\n      pop\n        /* \"contracts/PatientIdentityAndConsent.sol\":9395:9649  function hasValidConsent(address patient, address delegate)... */\n      swap3\n      swap2\n      pop\n      pop\n      jump\t// out\n        /* \"contracts/PatientIdentityAndConsent.sol\":9822:10197  function getConsentDetails(address patient, address delegate)... */\n    tag_52:\n        /* \"contracts/PatientIdentityAndConsent.sol\":9931:9943  bool granted */\n      0x00\n        /* \"contracts/PatientIdentityAndConsent.sol\":9945:9962  uint256 expiresAt */\n      0x00\n        /* \"contracts/PatientIdentityAndConsent.sol\":9964:9978  bool isExpired */\n      0x00\n        /* \"contracts/PatientIdentityAndConsent.sol\":9994:10016  ConsentRecord memory r */\n      0x00\n        /* \"contracts/PatientIdentityAndConsent.sol\":10019:10034  _consentRecords */\n      0x04\n        /* \"contracts/PatientIdentityAndConsent.sol\":10019:10043  _consentRecords[patient] */\n      0x00\n        /* \"contracts/PatientIdentityAndConsent.sol\":10035:10042  patient */\n      dup8\n        /* \"contracts/PatientIdentityAndConsent.sol\":10019:10043  _consentRecords[patient] */\n      0xffffffffffffffffffffffffffffffffffffffff\n      and\n      0xffffffffffffffffffffffffffffffffffffffff\n      and\n      dup2\n      mstore\n      0x20\n      add\n      swap1\n      dup2\n      mstore\n      0x20\n      add\n      0x00\n      keccak256\n        /* \"contracts/PatientIdentityAndConsent.sol\":10019:10053  _consentRecords[patient][delegate] */\n      0x00\n        /* \"contracts/PatientIdentityAndConsent.sol\":10044:10052  delegate */\n      dup7\n        /* \"contracts/PatientIdentityAndConsent.sol\":10019:10053  _consentRecords[patient][delegate] */\n      0xffffffffffffffffffffffffffffffffffffffff\n      and\n      0xffffffffffffffffffffffffffffffffffffffff\n      and\n      dup2\n      mstore\n      0x20\n      add\n      swap1\n      dup2\n      mstore\n      0x20\n      add\n      0x00\n      keccak256\n        /* \"contracts/PatientIdentityAndConsent.sol\":9994:10053  ConsentRecord memory r = _consentRecords[patient][delegate] */\n      mload(0x40)\n      dup1\n      0x40\n      add\n      0x40\n      mstore\n      swap1\n      dup2\n      0x00\n      dup3\n      add\n      0x00\n      swap1\n      sload\n      swap1\n      0x0100\n      exp\n      swap1\n      div\n      0xff\n      and\n      iszero\n      iszero\n      iszero\n      iszero\n      dup2\n      mstore\n      0x20\n      add\n      0x01\n      dup3\n      add\n      sload\n      dup2\n      mstore\n      pop\n      pop\n      swap1\n      pop\n        /* \"contracts/PatientIdentityAndConsent.sol\":10075:10076  r */\n      dup1\n        /* \"contracts/PatientIdentityAndConsent.sol\":10075:10084  r.granted */\n      0x00\n      add\n      mload\n        /* \"contracts/PatientIdentityAndConsent.sol\":10063:10084  granted   = r.granted */\n      swap4\n      pop\n        /* \"contracts/PatientIdentityAndConsent.sol\":10106:10107  r */\n      dup1\n        /* \"contracts/PatientIdentityAndConsent.sol\":10106:10117  r.expiresAt */\n      0x20\n      add\n      mload\n        /* \"contracts/PatientIdentityAndConsent.sol\":10094:10117  expiresAt = r.expiresAt */\n      swap3\n      pop\n        /* \"contracts/PatientIdentityAndConsent.sol\":10154:10155  0 */\n      0x00\n        /* \"contracts/PatientIdentityAndConsent.sol\":10140:10141  r */\n      dup2\n        /* \"contracts/PatientIdentityAndConsent.sol\":10140:10151  r.expiresAt */\n      0x20\n      add\n      mload\n        /* \"contracts/PatientIdentityAndConsent.sol\":10140:10155  r.expiresAt > 0 */\n      gt\n        /* \"contracts/PatientIdentityAndConsent.sol\":10140:10189  r.expiresAt > 0 && block.timestamp >= r.expiresAt */\n      dup1\n      iszero\n      tag_122\n      jumpi\n      pop\n        /* \"contracts/PatientIdentityAndConsent.sol\":10178:10179  r */\n      dup1\n        /* \"contracts/PatientIdentityAndConsent.sol\":10178:10189  r.expiresAt */\n      0x20\n      add\n      mload\n        /* \"contracts/PatientIdentityAndConsent.sol\":10159:10174  block.timestamp */\n      timestamp\n        /* \"contracts/PatientIdentityAndConsent.sol\":10159:10189  block.timestamp >= r.expiresAt */\n      lt\n      iszero\n        /* \"contracts/PatientIdentityAndConsent.sol\":10140:10189  r.expiresAt > 0 && block.timestamp >= r.expiresAt */\n    tag_122:\n        /* \"contracts/PatientIdentityAndConsent.sol\":10127:10190  isExpired = (r.expiresAt > 0 && block.timestamp >= r.expiresAt) */\n      swap2\n      pop\n        /* \"contracts/PatientIdentityAndConsent.sol\":9984:10197  {... */\n      pop\n        /* \"contracts/PatientIdentityAndConsent.sol\":9822:10197  function getConsentDetails(address patient, address delegate)... */\n      swap3\n      pop\n      swap3\n      pop\n      swap3\n      jump\t// out\n        /* \"contracts/PatientIdentityAndConsent.sol\":8213:8692  function revokeConsent(address delegate)... */\n    tag_57:\n        /* \"contracts/PatientIdentityAndConsent.sol\":4345:4364  isRegisteredPatient */\n      0x02\n        /* \"contracts/PatientIdentityAndConsent.sol\":4345:4376  isRegisteredPatient[msg.sender] */\n      0x00\n        /* \"contracts/PatientIdentityAndConsent.sol\":4365:4375  msg.sender */\n      caller\n        /* \"contracts/PatientIdentityAndConsent.sol\":4345:4376  isRegisteredPatient[msg.sender] */\n      0xffffffffffffffffffffffffffffffffffffffff\n      and\n      0xffffffffffffffffffffffffffffffffffffffff\n      and\n      dup2\n      mstore\n      0x20\n      add\n      swap1\n      dup2\n      mstore\n      0x20\n      add\n      0x00\n      keccak256\n      0x00\n      swap1\n      sload\n      swap1\n      0x0100\n      exp\n      swap1\n      div\n      0xff\n      and\n        /* \"contracts/PatientIdentityAndConsent.sol\":4337:4415  require(isRegisteredPatient[msg.sender], \"Only a registered patient can call\") */\n      tag_124\n      jumpi\n      mload(0x40)\n      0x08c379a000000000000000000000000000000000000000000000000000000000\n      dup2\n      mstore\n      0x04\n      add\n      tag_125\n      swap1\n      tag_89\n      jump\t// in\n    tag_125:\n      mload(0x40)\n      dup1\n      swap2\n      sub\n      swap1\n      revert\n    tag_124:\n        /* \"contracts/PatientIdentityAndConsent.sol\":974:975  1 */\n      0x01\n        /* \"contracts/PatientIdentityAndConsent.sol\":958:970  _guardStatus */\n      sload(0x00)\n        /* \"contracts/PatientIdentityAndConsent.sol\":958:975  _guardStatus == 1 */\n      eq\n        /* \"contracts/PatientIdentityAndConsent.sol\":950:1011  require(_guardStatus == 1, \"ReentrancyGuard: reentrant call\") */\n      tag_127\n      jumpi\n      mload(0x40)\n      0x08c379a000000000000000000000000000000000000000000000000000000000\n      dup2\n      mstore\n      0x04\n      add\n      tag_128\n      swap1\n      tag_71\n      jump\t// in\n    tag_128:\n      mload(0x40)\n      dup1\n      swap2\n      sub\n      swap1\n      revert\n    tag_127:\n        /* \"contracts/PatientIdentityAndConsent.sol\":1036:1037  2 */\n      0x02\n        /* \"contracts/PatientIdentityAndConsent.sol\":1021:1033  _guardStatus */\n      0x00\n        /* \"contracts/PatientIdentityAndConsent.sol\":1021:1037  _guardStatus = 2 */\n      dup2\n      swap1\n      sstore\n      pop\n        /* \"contracts/PatientIdentityAndConsent.sol\":8364:8365  0 */\n      0x00\n        /* \"contracts/PatientIdentityAndConsent.sol\":8344:8366  delegate != address(0) */\n      0xffffffffffffffffffffffffffffffffffffffff\n      and\n        /* \"contracts/PatientIdentityAndConsent.sol\":8344:8352  delegate */\n      dup2\n        /* \"contracts/PatientIdentityAndConsent.sol\":8344:8366  delegate != address(0) */\n      0xffffffffffffffffffffffffffffffffffffffff\n      and\n      sub\n        /* \"contracts/PatientIdentityAndConsent.sol\":8336:8395  require(delegate != address(0), \"Invalid delegate address\") */\n      tag_130\n      jumpi\n      mload(0x40)\n      0x08c379a000000000000000000000000000000000000000000000000000000000\n      dup2\n      mstore\n      0x04\n      add\n      tag_131\n      swap1\n      tag_108\n      jump\t// in\n    tag_131:\n      mload(0x40)\n      dup1\n      swap2\n      sub\n      swap1\n      revert\n    tag_130:\n        /* \"contracts/PatientIdentityAndConsent.sol\":8413:8428  _consentRecords */\n      0x04\n        /* \"contracts/PatientIdentityAndConsent.sol\":8413:8440  _consentRecords[msg.sender] */\n      0x00\n        /* \"contracts/PatientIdentityAndConsent.sol\":8429:8439  msg.sender */\n      caller\n        /* \"contracts/PatientIdentityAndConsent.sol\":8413:8440  _consentRecords[msg.sender] */\n      0xffffffffffffffffffffffffffffffffffffffff\n      and\n      0xffffffffffffffffffffffffffffffffffffffff\n      and\n      dup2\n      mstore\n      0x20\n      add\n      swap1\n      dup2\n      mstore\n      0x20\n      add\n      0x00\n      keccak256\n        /* \"contracts/PatientIdentityAndConsent.sol\":8413:8450  _consentRecords[msg.sender][delegate] */\n      0x00\n        /* \"contracts/PatientIdentityAndConsent.sol\":8441:8449  delegate */\n      dup3\n        /* \"contracts/PatientIdentityAndConsent.sol\":8413:8450  _consentRecords[msg.sender][delegate] */\n      0xffffffffffffffffffffffffffffffffffffffff\n      and\n      0xffffffffffffffffffffffffffffffffffffffff\n      and\n      dup2\n      mstore\n      0x20\n      add\n      swap1\n      dup2\n      mstore\n      0x20\n      add\n      0x00\n      keccak256\n        /* \"contracts/PatientIdentityAndConsent.sol\":8413:8458  _consentRecords[msg.sender][delegate].granted */\n      0x00\n      add\n      0x00\n      swap1\n      sload\n      swap1\n      0x0100\n      exp\n      swap1\n      div\n      0xff\n      and\n        /* \"contracts/PatientIdentityAndConsent.sol\":8405:8490  require(_consentRecords[msg.sender][delegate].granted, \"No active consent to revoke\") */\n      tag_132\n      jumpi\n      mload(0x40)\n      0x08c379a000000000000000000000000000000000000000000000000000000000\n      dup2\n      mstore\n      0x04\n      add\n      tag_133\n      swap1\n      tag_134\n      jump\t// in\n    tag_133:\n      mload(0x40)\n      dup1\n      swap2\n      sub\n      swap1\n      revert\n    tag_132:\n        /* \"contracts/PatientIdentityAndConsent.sol\":8551:8556  false */\n      0x00\n        /* \"contracts/PatientIdentityAndConsent.sol\":8501:8516  _consentRecords */\n      0x04\n        /* \"contracts/PatientIdentityAndConsent.sol\":8501:8528  _consentRecords[msg.sender] */\n      0x00\n        /* \"contracts/PatientIdentityAndConsent.sol\":8517:8527  msg.sender */\n      caller\n        /* \"contracts/PatientIdentityAndConsent.sol\":8501:8528  _consentRecords[msg.sender] */\n      0xffffffffffffffffffffffffffffffffffffffff\n      and\n      0xffffffffffffffffffffffffffffffffffffffff\n      and\n      dup2\n      mstore\n      0x20\n      add\n      swap1\n      dup2\n      mstore\n      0x20\n      add\n      0x00\n      keccak256\n        /* \"contracts/PatientIdentityAndConsent.sol\":8501:8538  _consentRecords[msg.sender][delegate] */\n      0x00\n        /* \"contracts/PatientIdentityAndConsent.sol\":8529:8537  delegate */\n      dup4\n        /* \"contracts/PatientIdentityAndConsent.sol\":8501:8538  _consentRecords[msg.sender][delegate] */\n      0xffffffffffffffffffffffffffffffffffffffff\n      and\n      0xffffffffffffffffffffffffffffffffffffffff\n      and\n      dup2\n      mstore\n      0x20\n      add\n      swap1\n      dup2\n      mstore\n      0x20\n      add\n      0x00\n      keccak256\n        /* \"contracts/PatientIdentityAndConsent.sol\":8501:8546  _consentRecords[msg.sender][delegate].granted */\n      0x00\n      add\n      0x00\n        /* \"contracts/PatientIdentityAndConsent.sol\":8501:8556  _consentRecords[msg.sender][delegate].granted   = false */\n      0x0100\n      exp\n      dup2\n      sload\n      dup2\n      0xff\n      mul\n      not\n      and\n      swap1\n      dup4\n      iszero\n      iszero\n      mul\n      or\n      swap1\n      sstore\n      pop\n        /* \"contracts/PatientIdentityAndConsent.sol\":8616:8617  0 */\n      0x00\n        /* \"contracts/PatientIdentityAndConsent.sol\":8566:8581  _consentRecords */\n      0x04\n        /* \"contracts/PatientIdentityAndConsent.sol\":8566:8593  _consentRecords[msg.sender] */\n      0x00\n        /* \"contracts/PatientIdentityAndConsent.sol\":8582:8592  msg.sender */\n      caller\n        /* \"contracts/PatientIdentityAndConsent.sol\":8566:8593  _consentRecords[msg.sender] */\n      0xffffffffffffffffffffffffffffffffffffffff\n      and\n      0xffffffffffffffffffffffffffffffffffffffff\n      and\n      dup2\n      mstore\n      0x20\n      add\n      swap1\n      dup2\n      mstore\n      0x20\n      add\n      0x00\n      keccak256\n        /* \"contracts/PatientIdentityAndConsent.sol\":8566:8603  _consentRecords[msg.sender][delegate] */\n      0x00\n        /* \"contracts/PatientIdentityAndConsent.sol\":8594:8602  delegate */\n      dup4\n        /* \"contracts/PatientIdentityAndConsent.sol\":8566:8603  _consentRecords[msg.sender][delegate] */\n      0xffffffffffffffffffffffffffffffffffffffff\n      and\n      0xffffffffffffffffffffffffffffffffffffffff\n      and\n      dup2\n      mstore\n      0x20\n      add\n      swap1\n      dup2\n      mstore\n      0x20\n      add\n      0x00\n      keccak256\n        /* \"contracts/PatientIdentityAndConsent.sol\":8566:8613  _consentRecords[msg.sender][delegate].expiresAt */\n      0x01\n      add\n        /* \"contracts/PatientIdentityAndConsent.sol\":8566:8617  _consentRecords[msg.sender][delegate].expiresAt = 0 */\n      dup2\n      swap1\n      sstore\n      pop\n        /* \"contracts/PatientIdentityAndConsent.sol\":8659:8667  delegate */\n      dup1\n        /* \"contracts/PatientIdentityAndConsent.sol\":8632:8685  ConsentRevoked(msg.sender, delegate, block.timestamp) */\n      0xffffffffffffffffffffffffffffffffffffffff\n      and\n        /* \"contracts/PatientIdentityAndConsent.sol\":8647:8657  msg.sender */\n      caller\n        /* \"contracts/PatientIdentityAndConsent.sol\":8632:8685  ConsentRevoked(msg.sender, delegate, block.timestamp) */\n      0xffffffffffffffffffffffffffffffffffffffff\n      and\n      0xb975ee8b7b7c48fd313db9b5ca976e213d1d7bd3136fc5c926dd5ff00077e47f\n        /* \"contracts/PatientIdentityAndConsent.sol\":8669:8684  block.timestamp */\n      timestamp\n        /* \"contracts/PatientIdentityAndConsent.sol\":8632:8685  ConsentRevoked(msg.sender, delegate, block.timestamp) */\n      mload(0x40)\n      tag_135\n      swap2\n      swap1\n      tag_23\n      jump\t// in\n    tag_135:\n      mload(0x40)\n      dup1\n      swap2\n      sub\n      swap1\n      log3\n        /* \"contracts/PatientIdentityAndConsent.sol\":1073:1074  1 */\n      0x01\n        /* \"contracts/PatientIdentityAndConsent.sol\":1058:1070  _guardStatus */\n      0x00\n        /* \"contracts/PatientIdentityAndConsent.sol\":1058:1074  _guardStatus = 1 */\n      dup2\n      swap1\n      sstore\n      pop\n        /* \"contracts/PatientIdentityAndConsent.sol\":8213:8692  function revokeConsent(address delegate)... */\n      pop\n      jump\t// out\n        /* \"#utility.yul\":7:82   */\n    tag_136:\n        /* \"#utility.yul\":40:46   */\n      0x00\n        /* \"#utility.yul\":73:75   */\n      0x40\n        /* \"#utility.yul\":67:76   */\n      mload\n        /* \"#utility.yul\":57:76   */\n      swap1\n      pop\n        /* \"#utility.yul\":7:82   */\n      swap1\n      jump\t// out\n        /* \"#utility.yul\":88:205   */\n    tag_137:\n        /* \"#utility.yul\":197:198   */\n      0x00\n        /* \"#utility.yul\":194:195   */\n      0x00\n        /* \"#utility.yul\":187:199   */\n      revert\n        /* \"#utility.yul\":211:328   */\n    tag_138:\n        /* \"#utility.yul\":320:321   */\n      0x00\n        /* \"#utility.yul\":317:318   */\n      0x00\n        /* \"#utility.yul\":310:322   */\n      revert\n        /* \"#utility.yul\":334:460   */\n    tag_139:\n        /* \"#utility.yul\":371:378   */\n      0x00\n        /* \"#utility.yul\":411:453   */\n      0xffffffffffffffffffffffffffffffffffffffff\n        /* \"#utility.yul\":404:409   */\n      dup3\n        /* \"#utility.yul\":400:454   */\n      and\n        /* \"#utility.yul\":389:454   */\n      swap1\n      pop\n        /* \"#utility.yul\":334:460   */\n      swap2\n      swap1\n      pop\n      jump\t// out\n        /* \"#utility.yul\":466:562   */\n    tag_140:\n        /* \"#utility.yul\":503:510   */\n      0x00\n        /* \"#utility.yul\":532:556   */\n      tag_207\n        /* \"#utility.yul\":550:555   */\n      dup3\n        /* \"#utility.yul\":532:556   */\n      tag_139\n      jump\t// in\n    tag_207:\n        /* \"#utility.yul\":521:556   */\n      swap1\n      pop\n        /* \"#utility.yul\":466:562   */\n      swap2\n      swap1\n      pop\n      jump\t// out\n        /* \"#utility.yul\":568:690   */\n    tag_141:\n        /* \"#utility.yul\":641:665   */\n      tag_209\n        /* \"#utility.yul\":659:664   */\n      dup2\n        /* \"#utility.yul\":641:665   */\n      tag_140\n      jump\t// in\n    tag_209:\n        /* \"#utility.yul\":634:639   */\n      dup2\n        /* \"#utility.yul\":631:666   */\n      eq\n        /* \"#utility.yul\":621:684   */\n      tag_210\n      jumpi\n        /* \"#utility.yul\":680:681   */\n      0x00\n        /* \"#utility.yul\":677:678   */\n      0x00\n        /* \"#utility.yul\":670:682   */\n      revert\n        /* \"#utility.yul\":621:684   */\n    tag_210:\n        /* \"#utility.yul\":568:690   */\n      pop\n      jump\t// out\n        /* \"#utility.yul\":696:835   */\n    tag_142:\n        /* \"#utility.yul\":742:747   */\n      0x00\n        /* \"#utility.yul\":780:786   */\n      dup2\n        /* \"#utility.yul\":767:787   */\n      calldataload\n        /* \"#utility.yul\":758:787   */\n      swap1\n      pop\n        /* \"#utility.yul\":796:829   */\n      tag_212\n        /* \"#utility.yul\":823:828   */\n      dup2\n        /* \"#utility.yul\":796:829   */\n      tag_141\n      jump\t// in\n    tag_212:\n        /* \"#utility.yul\":696:835   */\n      swap3\n      swap2\n      pop\n      pop\n      jump\t// out\n        /* \"#utility.yul\":841:1170   */\n    tag_16:\n        /* \"#utility.yul\":900:906   */\n      0x00\n        /* \"#utility.yul\":949:951   */\n      0x20\n        /* \"#utility.yul\":937:946   */\n      dup3\n        /* \"#utility.yul\":928:935   */\n      dup5\n        /* \"#utility.yul\":924:947   */\n      sub\n        /* \"#utility.yul\":920:952   */\n      slt\n        /* \"#utility.yul\":917:1036   */\n      iszero\n      tag_214\n      jumpi\n        /* \"#utility.yul\":955:1034   */\n      tag_215\n      tag_137\n      jump\t// in\n    tag_215:\n        /* \"#utility.yul\":917:1036   */\n    tag_214:\n        /* \"#utility.yul\":1075:1076   */\n      0x00\n        /* \"#utility.yul\":1100:1153   */\n      tag_216\n        /* \"#utility.yul\":1145:1152   */\n      dup5\n        /* \"#utility.yul\":1136:1142   */\n      dup3\n        /* \"#utility.yul\":1125:1134   */\n      dup6\n        /* \"#utility.yul\":1121:1143   */\n      add\n        /* \"#utility.yul\":1100:1153   */\n      tag_142\n      jump\t// in\n    tag_216:\n        /* \"#utility.yul\":1090:1153   */\n      swap2\n      pop\n        /* \"#utility.yul\":1046:1163   */\n      pop\n        /* \"#utility.yul\":841:1170   */\n      swap3\n      swap2\n      pop\n      pop\n      jump\t// out\n        /* \"#utility.yul\":1176:1266   */\n    tag_143:\n        /* \"#utility.yul\":1210:1217   */\n      0x00\n        /* \"#utility.yul\":1253:1258   */\n      dup2\n        /* \"#utility.yul\":1246:1259   */\n      iszero\n        /* \"#utility.yul\":1239:1260   */\n      iszero\n        /* \"#utility.yul\":1228:1260   */\n      swap1\n      pop\n        /* \"#utility.yul\":1176:1266   */\n      swap2\n      swap1\n      pop\n      jump\t// out\n        /* \"#utility.yul\":1272:1381   */\n    tag_144:\n        /* \"#utility.yul\":1353:1374   */\n      tag_219\n        /* \"#utility.yul\":1368:1373   */\n      dup2\n        /* \"#utility.yul\":1353:1374   */\n      tag_143\n      jump\t// in\n    tag_219:\n        /* \"#utility.yul\":1348:1351   */\n      dup3\n        /* \"#utility.yul\":1341:1375   */\n      mstore\n        /* \"#utility.yul\":1272:1381   */\n      pop\n      pop\n      jump\t// out\n        /* \"#utility.yul\":1387:1597   */\n    tag_19:\n        /* \"#utility.yul\":1474:1478   */\n      0x00\n        /* \"#utility.yul\":1512:1514   */\n      0x20\n        /* \"#utility.yul\":1501:1510   */\n      dup3\n        /* \"#utility.yul\":1497:1515   */\n      add\n        /* \"#utility.yul\":1489:1515   */\n      swap1\n      pop\n        /* \"#utility.yul\":1525:1590   */\n      tag_221\n        /* \"#utility.yul\":1587:1588   */\n      0x00\n        /* \"#utility.yul\":1576:1585   */\n      dup4\n        /* \"#utility.yul\":1572:1589   */\n      add\n        /* \"#utility.yul\":1563:1569   */\n      dup5\n        /* \"#utility.yul\":1525:1590   */\n      tag_144\n      jump\t// in\n    tag_221:\n        /* \"#utility.yul\":1387:1597   */\n      swap3\n      swap2\n      pop\n      pop\n      jump\t// out\n        /* \"#utility.yul\":1603:1680   */\n    tag_145:\n        /* \"#utility.yul\":1640:1647   */\n      0x00\n        /* \"#utility.yul\":1669:1674   */\n      dup2\n        /* \"#utility.yul\":1658:1674   */\n      swap1\n      pop\n        /* \"#utility.yul\":1603:1680   */\n      swap2\n      swap1\n      pop\n      jump\t// out\n        /* \"#utility.yul\":1686:1804   */\n    tag_146:\n        /* \"#utility.yul\":1773:1797   */\n      tag_224\n        /* \"#utility.yul\":1791:1796   */\n      dup2\n        /* \"#utility.yul\":1773:1797   */\n      tag_145\n      jump\t// in\n    tag_224:\n        /* \"#utility.yul\":1768:1771   */\n      dup3\n        /* \"#utility.yul\":1761:1798   */\n      mstore\n        /* \"#utility.yul\":1686:1804   */\n      pop\n      pop\n      jump\t// out\n        /* \"#utility.yul\":1810:2032   */\n    tag_23:\n        /* \"#utility.yul\":1903:1907   */\n      0x00\n        /* \"#utility.yul\":1941:1943   */\n      0x20\n        /* \"#utility.yul\":1930:1939   */\n      dup3\n        /* \"#utility.yul\":1926:1944   */\n      add\n        /* \"#utility.yul\":1918:1944   */\n      swap1\n      pop\n        /* \"#utility.yul\":1954:2025   */\n      tag_226\n        /* \"#utility.yul\":2022:2023   */\n      0x00\n        /* \"#utility.yul\":2011:2020   */\n      dup4\n        /* \"#utility.yul\":2007:2024   */\n      add\n        /* \"#utility.yul\":1998:2004   */\n      dup5\n        /* \"#utility.yul\":1954:2025   */\n      tag_146\n      jump\t// in\n    tag_226:\n        /* \"#utility.yul\":1810:2032   */\n      swap3\n      swap2\n      pop\n      pop\n      jump\t// out\n        /* \"#utility.yul\":2038:2137   */\n    tag_147:\n        /* \"#utility.yul\":2090:2096   */\n      0x00\n        /* \"#utility.yul\":2124:2129   */\n      dup2\n        /* \"#utility.yul\":2118:2130   */\n      mload\n        /* \"#utility.yul\":2108:2130   */\n      swap1\n      pop\n        /* \"#utility.yul\":2038:2137   */\n      swap2\n      swap1\n      pop\n      jump\t// out\n        /* \"#utility.yul\":2143:2312   */\n    tag_148:\n        /* \"#utility.yul\":2227:2238   */\n      0x00\n        /* \"#utility.yul\":2261:2267   */\n      dup3\n        /* \"#utility.yul\":2256:2259   */\n      dup3\n        /* \"#utility.yul\":2249:2268   */\n      mstore\n        /* \"#utility.yul\":2301:2305   */\n      0x20\n        /* \"#utility.yul\":2296:2299   */\n      dup3\n        /* \"#utility.yul\":2292:2306   */\n      add\n        /* \"#utility.yul\":2277:2306   */\n      swap1\n      pop\n        /* \"#utility.yul\":2143:2312   */\n      swap3\n      swap2\n      pop\n      pop\n      jump\t// out\n        /* \"#utility.yul\":2318:2457   */\n    tag_149:\n        /* \"#utility.yul\":2407:2413   */\n      dup3\n        /* \"#utility.yul\":2402:2405   */\n      dup2\n        /* \"#utility.yul\":2397:2400   */\n      dup4\n        /* \"#utility.yul\":2391:2414   */\n      mcopy\n        /* \"#utility.yul\":2448:2449   */\n      0x00\n        /* \"#utility.yul\":2439:2445   */\n      dup4\n        /* \"#utility.yul\":2434:2437   */\n      dup4\n        /* \"#utility.yul\":2430:2446   */\n      add\n        /* \"#utility.yul\":2423:2450   */\n      mstore\n        /* \"#utility.yul\":2318:2457   */\n      pop\n      pop\n      pop\n      jump\t// out\n        /* \"#utility.yul\":2463:2565   */\n    tag_150:\n        /* \"#utility.yul\":2504:2510   */\n      0x00\n        /* \"#utility.yul\":2555:2557   */\n      0x1f\n        /* \"#utility.yul\":2551:2558   */\n      not\n        /* \"#utility.yul\":2546:2548   */\n      0x1f\n        /* \"#utility.yul\":2539:2544   */\n      dup4\n        /* \"#utility.yul\":2535:2549   */\n      add\n        /* \"#utility.yul\":2531:2559   */\n      and\n        /* \"#utility.yul\":2521:2559   */\n      swap1\n      pop\n        /* \"#utility.yul\":2463:2565   */\n      swap2\n      swap1\n      pop\n      jump\t// out\n        /* \"#utility.yul\":2571:2948   */\n    tag_151:\n        /* \"#utility.yul\":2659:2662   */\n      0x00\n        /* \"#utility.yul\":2687:2726   */\n      tag_232\n        /* \"#utility.yul\":2720:2725   */\n      dup3\n        /* \"#utility.yul\":2687:2726   */\n      tag_147\n      jump\t// in\n    tag_232:\n        /* \"#utility.yul\":2742:2813   */\n      tag_233\n        /* \"#utility.yul\":2806:2812   */\n      dup2\n        /* \"#utility.yul\":2801:2804   */\n      dup6\n        /* \"#utility.yul\":2742:2813   */\n      tag_148\n      jump\t// in\n    tag_233:\n        /* \"#utility.yul\":2735:2813   */\n      swap4\n      pop\n        /* \"#utility.yul\":2822:2887   */\n      tag_234\n        /* \"#utility.yul\":2880:2886   */\n      dup2\n        /* \"#utility.yul\":2875:2878   */\n      dup6\n        /* \"#utility.yul\":2868:2872   */\n      0x20\n        /* \"#utility.yul\":2861:2866   */\n      dup7\n        /* \"#utility.yul\":2857:2873   */\n      add\n        /* \"#utility.yul\":2822:2887   */\n      tag_149\n      jump\t// in\n    tag_234:\n        /* \"#utility.yul\":2912:2941   */\n      tag_235\n        /* \"#utility.yul\":2934:2940   */\n      dup2\n        /* \"#utility.yul\":2912:2941   */\n      tag_150\n      jump\t// in\n    tag_235:\n        /* \"#utility.yul\":2907:2910   */\n      dup5\n        /* \"#utility.yul\":2903:2942   */\n      add\n        /* \"#utility.yul\":2896:2942   */\n      swap2\n      pop\n        /* \"#utility.yul\":2663:2948   */\n      pop\n        /* \"#utility.yul\":2571:2948   */\n      swap3\n      swap2\n      pop\n      pop\n      jump\t// out\n        /* \"#utility.yul\":2954:3267   */\n    tag_28:\n        /* \"#utility.yul\":3067:3071   */\n      0x00\n        /* \"#utility.yul\":3105:3107   */\n      0x20\n        /* \"#utility.yul\":3094:3103   */\n      dup3\n        /* \"#utility.yul\":3090:3108   */\n      add\n        /* \"#utility.yul\":3082:3108   */\n      swap1\n      pop\n        /* \"#utility.yul\":3154:3163   */\n      dup2\n        /* \"#utility.yul\":3148:3152   */\n      dup2\n        /* \"#utility.yul\":3144:3164   */\n      sub\n        /* \"#utility.yul\":3140:3141   */\n      0x00\n        /* \"#utility.yul\":3129:3138   */\n      dup4\n        /* \"#utility.yul\":3125:3142   */\n      add\n        /* \"#utility.yul\":3118:3165   */\n      mstore\n        /* \"#utility.yul\":3182:3260   */\n      tag_237\n        /* \"#utility.yul\":3255:3259   */\n      dup2\n        /* \"#utility.yul\":3246:3252   */\n      dup5\n        /* \"#utility.yul\":3182:3260   */\n      tag_151\n      jump\t// in\n    tag_237:\n        /* \"#utility.yul\":3174:3260   */\n      swap1\n      pop\n        /* \"#utility.yul\":2954:3267   */\n      swap3\n      swap2\n      pop\n      pop\n      jump\t// out\n        /* \"#utility.yul\":3273:3391   */\n    tag_152:\n        /* \"#utility.yul\":3360:3384   */\n      tag_239\n        /* \"#utility.yul\":3378:3383   */\n      dup2\n        /* \"#utility.yul\":3360:3384   */\n      tag_140\n      jump\t// in\n    tag_239:\n        /* \"#utility.yul\":3355:3358   */\n      dup3\n        /* \"#utility.yul\":3348:3385   */\n      mstore\n        /* \"#utility.yul\":3273:3391   */\n      pop\n      pop\n      jump\t// out\n        /* \"#utility.yul\":3397:3619   */\n    tag_32:\n        /* \"#utility.yul\":3490:3494   */\n      0x00\n        /* \"#utility.yul\":3528:3530   */\n      0x20\n        /* \"#utility.yul\":3517:3526   */\n      dup3\n        /* \"#utility.yul\":3513:3531   */\n      add\n        /* \"#utility.yul\":3505:3531   */\n      swap1\n      pop\n        /* \"#utility.yul\":3541:3612   */\n      tag_241\n        /* \"#utility.yul\":3609:3610   */\n      0x00\n        /* \"#utility.yul\":3598:3607   */\n      dup4\n        /* \"#utility.yul\":3594:3611   */\n      add\n        /* \"#utility.yul\":3585:3591   */\n      dup5\n        /* \"#utility.yul\":3541:3612   */\n      tag_152\n      jump\t// in\n    tag_241:\n        /* \"#utility.yul\":3397:3619   */\n      swap3\n      swap2\n      pop\n      pop\n      jump\t// out\n        /* \"#utility.yul\":3625:3742   */\n    tag_153:\n        /* \"#utility.yul\":3734:3735   */\n      0x00\n        /* \"#utility.yul\":3731:3732   */\n      0x00\n        /* \"#utility.yul\":3724:3736   */\n      revert\n        /* \"#utility.yul\":3748:3865   */\n    tag_154:\n        /* \"#utility.yul\":3857:3858   */\n      0x00\n        /* \"#utility.yul\":3854:3855   */\n      0x00\n        /* \"#utility.yul\":3847:3859   */\n      revert\n        /* \"#utility.yul\":3871:4051   */\n    tag_155:\n        /* \"#utility.yul\":3919:3996   */\n      0x4e487b7100000000000000000000000000000000000000000000000000000000\n        /* \"#utility.yul\":3916:3917   */\n      0x00\n        /* \"#utility.yul\":3909:3997   */\n      mstore\n        /* \"#utility.yul\":4016:4020   */\n      0x41\n        /* \"#utility.yul\":4013:4014   */\n      0x04\n        /* \"#utility.yul\":4006:4021   */\n      mstore\n        /* \"#utility.yul\":4040:4044   */\n      0x24\n        /* \"#utility.yul\":4037:4038   */\n      0x00\n        /* \"#utility.yul\":4030:4045   */\n      revert\n        /* \"#utility.yul\":4057:4338   */\n    tag_156:\n        /* \"#utility.yul\":4140:4167   */\n      tag_246\n        /* \"#utility.yul\":4162:4166   */\n      dup3\n        /* \"#utility.yul\":4140:4167   */\n      tag_150\n      jump\t// in\n    tag_246:\n        /* \"#utility.yul\":4132:4138   */\n      dup2\n        /* \"#utility.yul\":4128:4168   */\n      add\n        /* \"#utility.yul\":4270:4276   */\n      dup2\n        /* \"#utility.yul\":4258:4268   */\n      dup2\n        /* \"#utility.yul\":4255:4277   */\n      lt\n        /* \"#utility.yul\":4234:4252   */\n      0xffffffffffffffff\n        /* \"#utility.yul\":4222:4232   */\n      dup3\n        /* \"#utility.yul\":4219:4253   */\n      gt\n        /* \"#utility.yul\":4216:4278   */\n      or\n        /* \"#utility.yul\":4213:4301   */\n      iszero\n      tag_247\n      jumpi\n        /* \"#utility.yul\":4281:4299   */\n      tag_248\n      tag_155\n      jump\t// in\n    tag_248:\n        /* \"#utility.yul\":4213:4301   */\n    tag_247:\n        /* \"#utility.yul\":4321:4331   */\n      dup1\n        /* \"#utility.yul\":4317:4319   */\n      0x40\n        /* \"#utility.yul\":4310:4332   */\n      mstore\n        /* \"#utility.yul\":4100:4338   */\n      pop\n        /* \"#utility.yul\":4057:4338   */\n      pop\n      pop\n      jump\t// out\n        /* \"#utility.yul\":4344:4473   */\n    tag_157:\n        /* \"#utility.yul\":4378:4384   */\n      0x00\n        /* \"#utility.yul\":4405:4425   */\n      tag_250\n      tag_136\n      jump\t// in\n    tag_250:\n        /* \"#utility.yul\":4395:4425   */\n      swap1\n      pop\n        /* \"#utility.yul\":4434:4467   */\n      tag_251\n        /* \"#utility.yul\":4462:4466   */\n      dup3\n        /* \"#utility.yul\":4454:4460   */\n      dup3\n        /* \"#utility.yul\":4434:4467   */\n      tag_156\n      jump\t// in\n    tag_251:\n        /* \"#utility.yul\":4344:4473   */\n      swap2\n      swap1\n      pop\n      jump\t// out\n        /* \"#utility.yul\":4479:4787   */\n    tag_158:\n        /* \"#utility.yul\":4541:4545   */\n      0x00\n        /* \"#utility.yul\":4631:4649   */\n      0xffffffffffffffff\n        /* \"#utility.yul\":4623:4629   */\n      dup3\n        /* \"#utility.yul\":4620:4650   */\n      gt\n        /* \"#utility.yul\":4617:4673   */\n      iszero\n      tag_253\n      jumpi\n        /* \"#utility.yul\":4653:4671   */\n      tag_254\n      tag_155\n      jump\t// in\n    tag_254:\n        /* \"#utility.yul\":4617:4673   */\n    tag_253:\n        /* \"#utility.yul\":4691:4720   */\n      tag_255\n        /* \"#utility.yul\":4713:4719   */\n      dup3\n        /* \"#utility.yul\":4691:4720   */\n      tag_150\n      jump\t// in\n    tag_255:\n        /* \"#utility.yul\":4683:4720   */\n      swap1\n      pop\n        /* \"#utility.yul\":4775:4779   */\n      0x20\n        /* \"#utility.yul\":4769:4773   */\n      dup2\n        /* \"#utility.yul\":4765:4780   */\n      add\n        /* \"#utility.yul\":4757:4780   */\n      swap1\n      pop\n        /* \"#utility.yul\":4479:4787   */\n      swap2\n      swap1\n      pop\n      jump\t// out\n        /* \"#utility.yul\":4793:4941   */\n    tag_159:\n        /* \"#utility.yul\":4891:4897   */\n      dup3\n        /* \"#utility.yul\":4886:4889   */\n      dup2\n        /* \"#utility.yul\":4881:4884   */\n      dup4\n        /* \"#utility.yul\":4868:4898   */\n      calldatacopy\n        /* \"#utility.yul\":4932:4933   */\n      0x00\n        /* \"#utility.yul\":4923:4929   */\n      dup4\n        /* \"#utility.yul\":4918:4921   */\n      dup4\n        /* \"#utility.yul\":4914:4930   */\n      add\n        /* \"#utility.yul\":4907:4934   */\n      mstore\n        /* \"#utility.yul\":4793:4941   */\n      pop\n      pop\n      pop\n      jump\t// out\n        /* \"#utility.yul\":4947:5372   */\n    tag_160:\n        /* \"#utility.yul\":5025:5030   */\n      0x00\n        /* \"#utility.yul\":5050:5116   */\n      tag_258\n        /* \"#utility.yul\":5066:5115   */\n      tag_259\n        /* \"#utility.yul\":5108:5114   */\n      dup5\n        /* \"#utility.yul\":5066:5115   */\n      tag_158\n      jump\t// in\n    tag_259:\n        /* \"#utility.yul\":5050:5116   */\n      tag_157\n      jump\t// in\n    tag_258:\n        /* \"#utility.yul\":5041:5116   */\n      swap1\n      pop\n        /* \"#utility.yul\":5139:5145   */\n      dup3\n        /* \"#utility.yul\":5132:5137   */\n      dup2\n        /* \"#utility.yul\":5125:5146   */\n      mstore\n        /* \"#utility.yul\":5177:5181   */\n      0x20\n        /* \"#utility.yul\":5170:5175   */\n      dup2\n        /* \"#utility.yul\":5166:5182   */\n      add\n        /* \"#utility.yul\":5215:5218   */\n      dup5\n        /* \"#utility.yul\":5206:5212   */\n      dup5\n        /* \"#utility.yul\":5201:5204   */\n      dup5\n        /* \"#utility.yul\":5197:5213   */\n      add\n        /* \"#utility.yul\":5194:5219   */\n      gt\n        /* \"#utility.yul\":5191:5303   */\n      iszero\n      tag_260\n      jumpi\n        /* \"#utility.yul\":5222:5301   */\n      tag_261\n      tag_154\n      jump\t// in\n    tag_261:\n        /* \"#utility.yul\":5191:5303   */\n    tag_260:\n        /* \"#utility.yul\":5312:5366   */\n      tag_262\n        /* \"#utility.yul\":5359:5365   */\n      dup5\n        /* \"#utility.yul\":5354:5357   */\n      dup3\n        /* \"#utility.yul\":5349:5352   */\n      dup6\n        /* \"#utility.yul\":5312:5366   */\n      tag_159\n      jump\t// in\n    tag_262:\n        /* \"#utility.yul\":5031:5372   */\n      pop\n        /* \"#utility.yul\":4947:5372   */\n      swap4\n      swap3\n      pop\n      pop\n      pop\n      jump\t// out\n        /* \"#utility.yul\":5392:5732   */\n    tag_161:\n        /* \"#utility.yul\":5448:5453   */\n      0x00\n        /* \"#utility.yul\":5497:5500   */\n      dup3\n        /* \"#utility.yul\":5490:5494   */\n      0x1f\n        /* \"#utility.yul\":5482:5488   */\n      dup4\n        /* \"#utility.yul\":5478:5495   */\n      add\n        /* \"#utility.yul\":5474:5501   */\n      slt\n        /* \"#utility.yul\":5464:5586   */\n      tag_264\n      jumpi\n        /* \"#utility.yul\":5505:5584   */\n      tag_265\n      tag_153\n      jump\t// in\n    tag_265:\n        /* \"#utility.yul\":5464:5586   */\n    tag_264:\n        /* \"#utility.yul\":5622:5628   */\n      dup2\n        /* \"#utility.yul\":5609:5629   */\n      calldataload\n        /* \"#utility.yul\":5647:5726   */\n      tag_266\n        /* \"#utility.yul\":5722:5725   */\n      dup5\n        /* \"#utility.yul\":5714:5720   */\n      dup3\n        /* \"#utility.yul\":5707:5711   */\n      0x20\n        /* \"#utility.yul\":5699:5705   */\n      dup7\n        /* \"#utility.yul\":5695:5712   */\n      add\n        /* \"#utility.yul\":5647:5726   */\n      tag_160\n      jump\t// in\n    tag_266:\n        /* \"#utility.yul\":5638:5726   */\n      swap2\n      pop\n        /* \"#utility.yul\":5454:5732   */\n      pop\n        /* \"#utility.yul\":5392:5732   */\n      swap3\n      swap2\n      pop\n      pop\n      jump\t// out\n        /* \"#utility.yul\":5738:6392   */\n    tag_35:\n        /* \"#utility.yul\":5816:5822   */\n      0x00\n        /* \"#utility.yul\":5824:5830   */\n      0x00\n        /* \"#utility.yul\":5873:5875   */\n      0x40\n        /* \"#utility.yul\":5861:5870   */\n      dup4\n        /* \"#utility.yul\":5852:5859   */\n      dup6\n        /* \"#utility.yul\":5848:5871   */\n      sub\n        /* \"#utility.yul\":5844:5876   */\n      slt\n        /* \"#utility.yul\":5841:5960   */\n      iszero\n      tag_268\n      jumpi\n        /* \"#utility.yul\":5879:5958   */\n      tag_269\n      tag_137\n      jump\t// in\n    tag_269:\n        /* \"#utility.yul\":5841:5960   */\n    tag_268:\n        /* \"#utility.yul\":5999:6000   */\n      0x00\n        /* \"#utility.yul\":6024:6077   */\n      tag_270\n        /* \"#utility.yul\":6069:6076   */\n      dup6\n        /* \"#utility.yul\":6060:6066   */\n      dup3\n        /* \"#utility.yul\":6049:6058   */\n      dup7\n        /* \"#utility.yul\":6045:6067   */\n      add\n        /* \"#utility.yul\":6024:6077   */\n      tag_142\n      jump\t// in\n    tag_270:\n        /* \"#utility.yul\":6014:6077   */\n      swap3\n      pop\n        /* \"#utility.yul\":5970:6087   */\n      pop\n        /* \"#utility.yul\":6154:6156   */\n      0x20\n        /* \"#utility.yul\":6143:6152   */\n      dup4\n        /* \"#utility.yul\":6139:6157   */\n      add\n        /* \"#utility.yul\":6126:6158   */\n      calldataload\n        /* \"#utility.yul\":6185:6203   */\n      0xffffffffffffffff\n        /* \"#utility.yul\":6177:6183   */\n      dup2\n        /* \"#utility.yul\":6174:6204   */\n      gt\n        /* \"#utility.yul\":6171:6288   */\n      iszero\n      tag_271\n      jumpi\n        /* \"#utility.yul\":6207:6286   */\n      tag_272\n      tag_138\n      jump\t// in\n    tag_272:\n        /* \"#utility.yul\":6171:6288   */\n    tag_271:\n        /* \"#utility.yul\":6312:6375   */\n      tag_273\n        /* \"#utility.yul\":6367:6374   */\n      dup6\n        /* \"#utility.yul\":6358:6364   */\n      dup3\n        /* \"#utility.yul\":6347:6356   */\n      dup7\n        /* \"#utility.yul\":6343:6365   */\n      add\n        /* \"#utility.yul\":6312:6375   */\n      tag_161\n      jump\t// in\n    tag_273:\n        /* \"#utility.yul\":6302:6375   */\n      swap2\n      pop\n        /* \"#utility.yul\":6097:6385   */\n      pop\n        /* \"#utility.yul\":5738:6392   */\n      swap3\n      pop\n      swap3\n      swap1\n      pop\n      jump\t// out\n        /* \"#utility.yul\":6398:6907   */\n    tag_39:\n        /* \"#utility.yul\":6467:6473   */\n      0x00\n        /* \"#utility.yul\":6516:6518   */\n      0x20\n        /* \"#utility.yul\":6504:6513   */\n      dup3\n        /* \"#utility.yul\":6495:6502   */\n      dup5\n        /* \"#utility.yul\":6491:6514   */\n      sub\n        /* \"#utility.yul\":6487:6519   */\n      slt\n        /* \"#utility.yul\":6484:6603   */\n      iszero\n      tag_275\n      jumpi\n        /* \"#utility.yul\":6522:6601   */\n      tag_276\n      tag_137\n      jump\t// in\n    tag_276:\n        /* \"#utility.yul\":6484:6603   */\n    tag_275:\n        /* \"#utility.yul\":6670:6671   */\n      0x00\n        /* \"#utility.yul\":6659:6668   */\n      dup3\n        /* \"#utility.yul\":6655:6672   */\n      add\n        /* \"#utility.yul\":6642:6673   */\n      calldataload\n        /* \"#utility.yul\":6700:6718   */\n      0xffffffffffffffff\n        /* \"#utility.yul\":6692:6698   */\n      dup2\n        /* \"#utility.yul\":6689:6719   */\n      gt\n        /* \"#utility.yul\":6686:6803   */\n      iszero\n      tag_277\n      jumpi\n        /* \"#utility.yul\":6722:6801   */\n      tag_278\n      tag_138\n      jump\t// in\n    tag_278:\n        /* \"#utility.yul\":6686:6803   */\n    tag_277:\n        /* \"#utility.yul\":6827:6890   */\n      tag_279\n        /* \"#utility.yul\":6882:6889   */\n      dup5\n        /* \"#utility.yul\":6873:6879   */\n      dup3\n        /* \"#utility.yul\":6862:6871   */\n      dup6\n        /* \"#utility.yul\":6858:6880   */\n      add\n        /* \"#utility.yul\":6827:6890   */\n      tag_161\n      jump\t// in\n    tag_279:\n        /* \"#utility.yul\":6817:6890   */\n      swap2\n      pop\n        /* \"#utility.yul\":6613:6900   */\n      pop\n        /* \"#utility.yul\":6398:6907   */\n      swap3\n      swap2\n      pop\n      pop\n      jump\t// out\n        /* \"#utility.yul\":6913:7035   */\n    tag_162:\n        /* \"#utility.yul\":6986:7010   */\n      tag_281\n        /* \"#utility.yul\":7004:7009   */\n      dup2\n        /* \"#utility.yul\":6986:7010   */\n      tag_145\n      jump\t// in\n    tag_281:\n        /* \"#utility.yul\":6979:6984   */\n      dup2\n        /* \"#utility.yul\":6976:7011   */\n      eq\n        /* \"#utility.yul\":6966:7029   */\n      tag_282\n      jumpi\n        /* \"#utility.yul\":7025:7026   */\n      0x00\n        /* \"#utility.yul\":7022:7023   */\n      0x00\n        /* \"#utility.yul\":7015:7027   */\n      revert\n        /* \"#utility.yul\":6966:7029   */\n    tag_282:\n        /* \"#utility.yul\":6913:7035   */\n      pop\n      jump\t// out\n        /* \"#utility.yul\":7041:7180   */\n    tag_163:\n        /* \"#utility.yul\":7087:7092   */\n      0x00\n        /* \"#utility.yul\":7125:7131   */\n      dup2\n        /* \"#utility.yul\":7112:7132   */\n      calldataload\n        /* \"#utility.yul\":7103:7132   */\n      swap1\n      pop\n        /* \"#utility.yul\":7141:7174   */\n      tag_284\n        /* \"#utility.yul\":7168:7173   */\n      dup2\n        /* \"#utility.yul\":7141:7174   */\n      tag_162\n      jump\t// in\n    tag_284:\n        /* \"#utility.yul\":7041:7180   */\n      swap3\n      swap2\n      pop\n      pop\n      jump\t// out\n        /* \"#utility.yul\":7186:7660   */\n    tag_43:\n        /* \"#utility.yul\":7254:7260   */\n      0x00\n        /* \"#utility.yul\":7262:7268   */\n      0x00\n        /* \"#utility.yul\":7311:7313   */\n      0x40\n        /* \"#utility.yul\":7299:7308   */\n      dup4\n        /* \"#utility.yul\":7290:7297   */\n      dup6\n        /* \"#utility.yul\":7286:7309   */\n      sub\n        /* \"#utility.yul\":7282:7314   */\n      slt\n        /* \"#utility.yul\":7279:7398   */\n      iszero\n      tag_286\n      jumpi\n        /* \"#utility.yul\":7317:7396   */\n      tag_287\n      tag_137\n      jump\t// in\n    tag_287:\n        /* \"#utility.yul\":7279:7398   */\n    tag_286:\n        /* \"#utility.yul\":7437:7438   */\n      0x00\n        /* \"#utility.yul\":7462:7515   */\n      tag_288\n        /* \"#utility.yul\":7507:7514   */\n      dup6\n        /* \"#utility.yul\":7498:7504   */\n      dup3\n        /* \"#utility.yul\":7487:7496   */\n      dup7\n        /* \"#utility.yul\":7483:7505   */\n      add\n        /* \"#utility.yul\":7462:7515   */\n      tag_142\n      jump\t// in\n    tag_288:\n        /* \"#utility.yul\":7452:7515   */\n      swap3\n      pop\n        /* \"#utility.yul\":7408:7525   */\n      pop\n        /* \"#utility.yul\":7564:7566   */\n      0x20\n        /* \"#utility.yul\":7590:7643   */\n      tag_289\n        /* \"#utility.yul\":7635:7642   */\n      dup6\n        /* \"#utility.yul\":7626:7632   */\n      dup3\n        /* \"#utility.yul\":7615:7624   */\n      dup7\n        /* \"#utility.yul\":7611:7633   */\n      add\n        /* \"#utility.yul\":7590:7643   */\n      tag_163\n      jump\t// in\n    tag_289:\n        /* \"#utility.yul\":7580:7643   */\n      swap2\n      pop\n        /* \"#utility.yul\":7535:7653   */\n      pop\n        /* \"#utility.yul\":7186:7660   */\n      swap3\n      pop\n      swap3\n      swap1\n      pop\n      jump\t// out\n        /* \"#utility.yul\":7666:8140   */\n    tag_47:\n        /* \"#utility.yul\":7734:7740   */\n      0x00\n        /* \"#utility.yul\":7742:7748   */\n      0x00\n        /* \"#utility.yul\":7791:7793   */\n      0x40\n        /* \"#utility.yul\":7779:7788   */\n      dup4\n        /* \"#utility.yul\":7770:7777   */\n      dup6\n        /* \"#utility.yul\":7766:7789   */\n      sub\n        /* \"#utility.yul\":7762:7794   */\n      slt\n        /* \"#utility.yul\":7759:7878   */\n      iszero\n      tag_291\n      jumpi\n        /* \"#utility.yul\":7797:7876   */\n      tag_292\n      tag_137\n      jump\t// in\n    tag_292:\n        /* \"#utility.yul\":7759:7878   */\n    tag_291:\n        /* \"#utility.yul\":7917:7918   */\n      0x00\n        /* \"#utility.yul\":7942:7995   */\n      tag_293\n        /* \"#utility.yul\":7987:7994   */\n      dup6\n        /* \"#utility.yul\":7978:7984   */\n      dup3\n        /* \"#utility.yul\":7967:7976   */\n      dup7\n        /* \"#utility.yul\":7963:7985   */\n      add\n        /* \"#utility.yul\":7942:7995   */\n      tag_142\n      jump\t// in\n    tag_293:\n        /* \"#utility.yul\":7932:7995   */\n      swap3\n      pop\n        /* \"#utility.yul\":7888:8005   */\n      pop\n        /* \"#utility.yul\":8044:8046   */\n      0x20\n        /* \"#utility.yul\":8070:8123   */\n      tag_294\n        /* \"#utility.yul\":8115:8122   */\n      dup6\n        /* \"#utility.yul\":8106:8112   */\n      dup3\n        /* \"#utility.yul\":8095:8104   */\n      dup7\n        /* \"#utility.yul\":8091:8113   */\n      add\n        /* \"#utility.yul\":8070:8123   */\n      tag_142\n      jump\t// in\n    tag_294:\n        /* \"#utility.yul\":8060:8123   */\n      swap2\n      pop\n        /* \"#utility.yul\":8015:8133   */\n      pop\n        /* \"#utility.yul\":7666:8140   */\n      swap3\n      pop\n      swap3\n      swap1\n      pop\n      jump\t// out\n        /* \"#utility.yul\":8146:8564   */\n    tag_54:\n        /* \"#utility.yul\":8283:8287   */\n      0x00\n        /* \"#utility.yul\":8321:8323   */\n      0x60\n        /* \"#utility.yul\":8310:8319   */\n      dup3\n        /* \"#utility.yul\":8306:8324   */\n      add\n        /* \"#utility.yul\":8298:8324   */\n      swap1\n      pop\n        /* \"#utility.yul\":8334:8399   */\n      tag_296\n        /* \"#utility.yul\":8396:8397   */\n      0x00\n        /* \"#utility.yul\":8385:8394   */\n      dup4\n        /* \"#utility.yul\":8381:8398   */\n      add\n        /* \"#utility.yul\":8372:8378   */\n      dup7\n        /* \"#utility.yul\":8334:8399   */\n      tag_144\n      jump\t// in\n    tag_296:\n        /* \"#utility.yul\":8409:8481   */\n      tag_297\n        /* \"#utility.yul\":8477:8479   */\n      0x20\n        /* \"#utility.yul\":8466:8475   */\n      dup4\n        /* \"#utility.yul\":8462:8480   */\n      add\n        /* \"#utility.yul\":8453:8459   */\n      dup6\n        /* \"#utility.yul\":8409:8481   */\n      tag_146\n      jump\t// in\n    tag_297:\n        /* \"#utility.yul\":8491:8557   */\n      tag_298\n        /* \"#utility.yul\":8553:8555   */\n      0x40\n        /* \"#utility.yul\":8542:8551   */\n      dup4\n        /* \"#utility.yul\":8538:8556   */\n      add\n        /* \"#utility.yul\":8529:8535   */\n      dup5\n        /* \"#utility.yul\":8491:8557   */\n      tag_144\n      jump\t// in\n    tag_298:\n        /* \"#utility.yul\":8146:8564   */\n      swap5\n      swap4\n      pop\n      pop\n      pop\n      pop\n      jump\t// out\n        /* \"#utility.yul\":8570:8750   */\n    tag_164:\n        /* \"#utility.yul\":8618:8695   */\n      0x4e487b7100000000000000000000000000000000000000000000000000000000\n        /* \"#utility.yul\":8615:8616   */\n      0x00\n        /* \"#utility.yul\":8608:8696   */\n      mstore\n        /* \"#utility.yul\":8715:8719   */\n      0x22\n        /* \"#utility.yul\":8712:8713   */\n      0x04\n        /* \"#utility.yul\":8705:8720   */\n      mstore\n        /* \"#utility.yul\":8739:8743   */\n      0x24\n        /* \"#utility.yul\":8736:8737   */\n      0x00\n        /* \"#utility.yul\":8729:8744   */\n      revert\n        /* \"#utility.yul\":8756:9076   */\n    tag_59:\n        /* \"#utility.yul\":8800:8806   */\n      0x00\n        /* \"#utility.yul\":8837:8838   */\n      0x02\n        /* \"#utility.yul\":8831:8835   */\n      dup3\n        /* \"#utility.yul\":8827:8839   */\n      div\n        /* \"#utility.yul\":8817:8839   */\n      swap1\n      pop\n        /* \"#utility.yul\":8884:8885   */\n      0x01\n        /* \"#utility.yul\":8878:8882   */\n      dup3\n        /* \"#utility.yul\":8874:8886   */\n      and\n        /* \"#utility.yul\":8905:8923   */\n      dup1\n        /* \"#utility.yul\":8895:8976   */\n      tag_301\n      jumpi\n        /* \"#utility.yul\":8961:8965   */\n      0x7f\n        /* \"#utility.yul\":8953:8959   */\n      dup3\n        /* \"#utility.yul\":8949:8966   */\n      and\n        /* \"#utility.yul\":8939:8966   */\n      swap2\n      pop\n        /* \"#utility.yul\":8895:8976   */\n    tag_301:\n        /* \"#utility.yul\":9023:9025   */\n      0x20\n        /* \"#utility.yul\":9015:9021   */\n      dup3\n        /* \"#utility.yul\":9012:9026   */\n      lt\n        /* \"#utility.yul\":8992:9010   */\n      dup2\n        /* \"#utility.yul\":8989:9027   */\n      sub\n        /* \"#utility.yul\":8986:9070   */\n      tag_302\n      jumpi\n        /* \"#utility.yul\":9042:9060   */\n      tag_303\n      tag_164\n      jump\t// in\n    tag_303:\n        /* \"#utility.yul\":8986:9070   */\n    tag_302:\n        /* \"#utility.yul\":8807:9076   */\n      pop\n        /* \"#utility.yul\":8756:9076   */\n      swap2\n      swap1\n      pop\n      jump\t// out\n        /* \"#utility.yul\":9082:9264   */\n    tag_165:\n        /* \"#utility.yul\":9222:9256   */\n      0x4f6e6c7920526567697374727941646d696e2063616e2063616c6c2074686973\n        /* \"#utility.yul\":9218:9219   */\n      0x00\n        /* \"#utility.yul\":9210:9216   */\n      dup3\n        /* \"#utility.yul\":9206:9220   */\n      add\n        /* \"#utility.yul\":9199:9257   */\n      mstore\n        /* \"#utility.yul\":9082:9264   */\n      pop\n      jump\t// out\n        /* \"#utility.yul\":9270:9636   */\n    tag_166:\n        /* \"#utility.yul\":9412:9415   */\n      0x00\n        /* \"#utility.yul\":9433:9500   */\n      tag_306\n        /* \"#utility.yul\":9497:9499   */\n      0x20\n        /* \"#utility.yul\":9492:9495   */\n      dup4\n        /* \"#utility.yul\":9433:9500   */\n      tag_148\n      jump\t// in\n    tag_306:\n        /* \"#utility.yul\":9426:9500   */\n      swap2\n      pop\n        /* \"#utility.yul\":9509:9602   */\n      tag_307\n        /* \"#utility.yul\":9598:9601   */\n      dup3\n        /* \"#utility.yul\":9509:9602   */\n      tag_165\n      jump\t// in\n    tag_307:\n        /* \"#utility.yul\":9627:9629   */\n      0x20\n        /* \"#utility.yul\":9622:9625   */\n      dup3\n        /* \"#utility.yul\":9618:9630   */\n      add\n        /* \"#utility.yul\":9611:9630   */\n      swap1\n      pop\n        /* \"#utility.yul\":9270:9636   */\n      swap2\n      swap1\n      pop\n      jump\t// out\n        /* \"#utility.yul\":9642:10061   */\n    tag_67:\n        /* \"#utility.yul\":9808:9812   */\n      0x00\n        /* \"#utility.yul\":9846:9848   */\n      0x20\n        /* \"#utility.yul\":9835:9844   */\n      dup3\n        /* \"#utility.yul\":9831:9849   */\n      add\n        /* \"#utility.yul\":9823:9849   */\n      swap1\n      pop\n        /* \"#utility.yul\":9895:9904   */\n      dup2\n        /* \"#utility.yul\":9889:9893   */\n      dup2\n        /* \"#utility.yul\":9885:9905   */\n      sub\n        /* \"#utility.yul\":9881:9882   */\n      0x00\n        /* \"#utility.yul\":9870:9879   */\n      dup4\n        /* \"#utility.yul\":9866:9883   */\n      add\n        /* \"#utility.yul\":9859:9906   */\n      mstore\n        /* \"#utility.yul\":9923:10054   */\n      tag_309\n        /* \"#utility.yul\":10049:10053   */\n      dup2\n        /* \"#utility.yul\":9923:10054   */\n      tag_166\n      jump\t// in\n    tag_309:\n        /* \"#utility.yul\":9915:10054   */\n      swap1\n      pop\n        /* \"#utility.yul\":9642:10061   */\n      swap2\n      swap1\n      pop\n      jump\t// out\n        /* \"#utility.yul\":10067:10248   */\n    tag_167:\n        /* \"#utility.yul\":10207:10240   */\n      0x5265656e7472616e637947756172643a207265656e7472616e742063616c6c00\n        /* \"#utility.yul\":10203:10204   */\n      0x00\n        /* \"#utility.yul\":10195:10201   */\n      dup3\n        /* \"#utility.yul\":10191:10205   */\n      add\n        /* \"#utility.yul\":10184:10241   */\n      mstore\n        /* \"#utility.yul\":10067:10248   */\n      pop\n      jump\t// out\n        /* \"#utility.yul\":10254:10620   */\n    tag_168:\n        /* \"#utility.yul\":10396:10399   */\n      0x00\n        /* \"#utility.yul\":10417:10484   */\n      tag_312\n        /* \"#utility.yul\":10481:10483   */\n      0x1f\n        /* \"#utility.yul\":10476:10479   */\n      dup4\n        /* \"#utility.yul\":10417:10484   */\n      tag_148\n      jump\t// in\n    tag_312:\n        /* \"#utility.yul\":10410:10484   */\n      swap2\n      pop\n        /* \"#utility.yul\":10493:10586   */\n      tag_313\n        /* \"#utility.yul\":10582:10585   */\n      dup3\n        /* \"#utility.yul\":10493:10586   */\n      tag_167\n      jump\t// in\n    tag_313:\n        /* \"#utility.yul\":10611:10613   */\n      0x20\n        /* \"#utility.yul\":10606:10609   */\n      dup3\n        /* \"#utility.yul\":10602:10614   */\n      add\n        /* \"#utility.yul\":10595:10614   */\n      swap1\n      pop\n        /* \"#utility.yul\":10254:10620   */\n      swap2\n      swap1\n      pop\n      jump\t// out\n        /* \"#utility.yul\":10626:11045   */\n    tag_71:\n        /* \"#utility.yul\":10792:10796   */\n      0x00\n        /* \"#utility.yul\":10830:10832   */\n      0x20\n        /* \"#utility.yul\":10819:10828   */\n      dup3\n        /* \"#utility.yul\":10815:10833   */\n      add\n        /* \"#utility.yul\":10807:10833   */\n      swap1\n      pop\n        /* \"#utility.yul\":10879:10888   */\n      dup2\n        /* \"#utility.yul\":10873:10877   */\n      dup2\n        /* \"#utility.yul\":10869:10889   */\n      sub\n        /* \"#utility.yul\":10865:10866   */\n      0x00\n        /* \"#utility.yul\":10854:10863   */\n      dup4\n        /* \"#utility.yul\":10850:10867   */\n      add\n        /* \"#utility.yul\":10843:10890   */\n      mstore\n        /* \"#utility.yul\":10907:11038   */\n      tag_315\n        /* \"#utility.yul\":11033:11037   */\n      dup2\n        /* \"#utility.yul\":10907:11038   */\n      tag_168\n      jump\t// in\n    tag_315:\n        /* \"#utility.yul\":10899:11038   */\n      swap1\n      pop\n        /* \"#utility.yul\":10626:11045   */\n      swap2\n      swap1\n      pop\n      jump\t// out\n        /* \"#utility.yul\":11051:11224   */\n    tag_169:\n        /* \"#utility.yul\":11191:11216   */\n      0x496e76616c69642070617469656e742061646472657373000000000000000000\n        /* \"#utility.yul\":11187:11188   */\n      0x00\n        /* \"#utility.yul\":11179:11185   */\n      dup3\n        /* \"#utility.yul\":11175:11189   */\n      add\n        /* \"#utility.yul\":11168:11217   */\n      mstore\n        /* \"#utility.yul\":11051:11224   */\n      pop\n      jump\t// out\n        /* \"#utility.yul\":11230:11596   */\n    tag_170:\n        /* \"#utility.yul\":11372:11375   */\n      0x00\n        /* \"#utility.yul\":11393:11460   */\n      tag_318\n        /* \"#utility.yul\":11457:11459   */\n      0x17\n        /* \"#utility.yul\":11452:11455   */\n      dup4\n        /* \"#utility.yul\":11393:11460   */\n      tag_148\n      jump\t// in\n    tag_318:\n        /* \"#utility.yul\":11386:11460   */\n      swap2\n      pop\n        /* \"#utility.yul\":11469:11562   */\n      tag_319\n        /* \"#utility.yul\":11558:11561   */\n      dup3\n        /* \"#utility.yul\":11469:11562   */\n      tag_169\n      jump\t// in\n    tag_319:\n        /* \"#utility.yul\":11587:11589   */\n      0x20\n        /* \"#utility.yul\":11582:11585   */\n      dup3\n        /* \"#utility.yul\":11578:11590   */\n      add\n        /* \"#utility.yul\":11571:11590   */\n      swap1\n      pop\n        /* \"#utility.yul\":11230:11596   */\n      swap2\n      swap1\n      pop\n      jump\t// out\n        /* \"#utility.yul\":11602:12021   */\n    tag_75:\n        /* \"#utility.yul\":11768:11772   */\n      0x00\n        /* \"#utility.yul\":11806:11808   */\n      0x20\n        /* \"#utility.yul\":11795:11804   */\n      dup3\n        /* \"#utility.yul\":11791:11809   */\n      add\n        /* \"#utility.yul\":11783:11809   */\n      swap1\n      pop\n        /* \"#utility.yul\":11855:11864   */\n      dup2\n        /* \"#utility.yul\":11849:11853   */\n      dup2\n        /* \"#utility.yul\":11845:11865   */\n      sub\n        /* \"#utility.yul\":11841:11842   */\n      0x00\n        /* \"#utility.yul\":11830:11839   */\n      dup4\n        /* \"#utility.yul\":11826:11843   */\n      add\n        /* \"#utility.yul\":11819:11866   */\n      mstore\n        /* \"#utility.yul\":11883:12014   */\n      tag_321\n        /* \"#utility.yul\":12009:12013   */\n      dup2\n        /* \"#utility.yul\":11883:12014   */\n      tag_170\n      jump\t// in\n    tag_321:\n        /* \"#utility.yul\":11875:12014   */\n      swap1\n      pop\n        /* \"#utility.yul\":11602:12021   */\n      swap2\n      swap1\n      pop\n      jump\t// out\n        /* \"#utility.yul\":12027:12199   */\n    tag_171:\n        /* \"#utility.yul\":12167:12191   */\n      0x4d65746164617461206861736820726571756972656400000000000000000000\n        /* \"#utility.yul\":12163:12164   */\n      0x00\n        /* \"#utility.yul\":12155:12161   */\n      dup3\n        /* \"#utility.yul\":12151:12165   */\n      add\n        /* \"#utility.yul\":12144:12192   */\n      mstore\n        /* \"#utility.yul\":12027:12199   */\n      pop\n      jump\t// out\n        /* \"#utility.yul\":12205:12571   */\n    tag_172:\n        /* \"#utility.yul\":12347:12350   */\n      0x00\n        /* \"#utility.yul\":12368:12435   */\n      tag_324\n        /* \"#utility.yul\":12432:12434   */\n      0x16\n        /* \"#utility.yul\":12427:12430   */\n      dup4\n        /* \"#utility.yul\":12368:12435   */\n      tag_148\n      jump\t// in\n    tag_324:\n        /* \"#utility.yul\":12361:12435   */\n      swap2\n      pop\n        /* \"#utility.yul\":12444:12537   */\n      tag_325\n        /* \"#utility.yul\":12533:12536   */\n      dup3\n        /* \"#utility.yul\":12444:12537   */\n      tag_171\n      jump\t// in\n    tag_325:\n        /* \"#utility.yul\":12562:12564   */\n      0x20\n        /* \"#utility.yul\":12557:12560   */\n      dup3\n        /* \"#utility.yul\":12553:12565   */\n      add\n        /* \"#utility.yul\":12546:12565   */\n      swap1\n      pop\n        /* \"#utility.yul\":12205:12571   */\n      swap2\n      swap1\n      pop\n      jump\t// out\n        /* \"#utility.yul\":12577:12996   */\n    tag_78:\n        /* \"#utility.yul\":12743:12747   */\n      0x00\n        /* \"#utility.yul\":12781:12783   */\n      0x20\n        /* \"#utility.yul\":12770:12779   */\n      dup3\n        /* \"#utility.yul\":12766:12784   */\n      add\n        /* \"#utility.yul\":12758:12784   */\n      swap1\n      pop\n        /* \"#utility.yul\":12830:12839   */\n      dup2\n        /* \"#utility.yul\":12824:12828   */\n      dup2\n        /* \"#utility.yul\":12820:12840   */\n      sub\n        /* \"#utility.yul\":12816:12817   */\n      0x00\n        /* \"#utility.yul\":12805:12814   */\n      dup4\n        /* \"#utility.yul\":12801:12818   */\n      add\n        /* \"#utility.yul\":12794:12841   */\n      mstore\n        /* \"#utility.yul\":12858:12989   */\n      tag_327\n        /* \"#utility.yul\":12984:12988   */\n      dup2\n        /* \"#utility.yul\":12858:12989   */\n      tag_172\n      jump\t// in\n    tag_327:\n        /* \"#utility.yul\":12850:12989   */\n      swap1\n      pop\n        /* \"#utility.yul\":12577:12996   */\n      swap2\n      swap1\n      pop\n      jump\t// out\n        /* \"#utility.yul\":13002:13178   */\n    tag_173:\n        /* \"#utility.yul\":13142:13170   */\n      0x50617469656e7420616c72656164792072656769737465726564000000000000\n        /* \"#utility.yul\":13138:13139   */\n      0x00\n        /* \"#utility.yul\":13130:13136   */\n      dup3\n        /* \"#utility.yul\":13126:13140   */\n      add\n        /* \"#utility.yul\":13119:13171   */\n      mstore\n        /* \"#utility.yul\":13002:13178   */\n      pop\n      jump\t// out\n        /* \"#utility.yul\":13184:13550   */\n    tag_174:\n        /* \"#utility.yul\":13326:13329   */\n      0x00\n        /* \"#utility.yul\":13347:13414   */\n      tag_330\n        /* \"#utility.yul\":13411:13413   */\n      0x1a\n        /* \"#utility.yul\":13406:13409   */\n      dup4\n        /* \"#utility.yul\":13347:13414   */\n      tag_148\n      jump\t// in\n    tag_330:\n        /* \"#utility.yul\":13340:13414   */\n      swap2\n      pop\n        /* \"#utility.yul\":13423:13516   */\n      tag_331\n        /* \"#utility.yul\":13512:13515   */\n      dup3\n        /* \"#utility.yul\":13423:13516   */\n      tag_173\n      jump\t// in\n    tag_331:\n        /* \"#utility.yul\":13541:13543   */\n      0x20\n        /* \"#utility.yul\":13536:13539   */\n      dup3\n        /* \"#utility.yul\":13532:13544   */\n      add\n        /* \"#utility.yul\":13525:13544   */\n      swap1\n      pop\n        /* \"#utility.yul\":13184:13550   */\n      swap2\n      swap1\n      pop\n      jump\t// out\n        /* \"#utility.yul\":13556:13975   */\n    tag_81:\n        /* \"#utility.yul\":13722:13726   */\n      0x00\n        /* \"#utility.yul\":13760:13762   */\n      0x20\n        /* \"#utility.yul\":13749:13758   */\n      dup3\n        /* \"#utility.yul\":13745:13763   */\n      add\n        /* \"#utility.yul\":13737:13763   */\n      swap1\n      pop\n        /* \"#utility.yul\":13809:13818   */\n      dup2\n        /* \"#utility.yul\":13803:13807   */\n      dup2\n        /* \"#utility.yul\":13799:13819   */\n      sub\n        /* \"#utility.yul\":13795:13796   */\n      0x00\n        /* \"#utility.yul\":13784:13793   */\n      dup4\n        /* \"#utility.yul\":13780:13797   */\n      add\n        /* \"#utility.yul\":13773:13820   */\n      mstore\n        /* \"#utility.yul\":13837:13968   */\n      tag_333\n        /* \"#utility.yul\":13963:13967   */\n      dup2\n        /* \"#utility.yul\":13837:13968   */\n      tag_174\n      jump\t// in\n    tag_333:\n        /* \"#utility.yul\":13829:13968   */\n      swap1\n      pop\n        /* \"#utility.yul\":13556:13975   */\n      swap2\n      swap1\n      pop\n      jump\t// out\n        /* \"#utility.yul\":13981:14122   */\n    tag_175:\n        /* \"#utility.yul\":14030:14034   */\n      0x00\n        /* \"#utility.yul\":14053:14056   */\n      dup2\n        /* \"#utility.yul\":14045:14056   */\n      swap1\n      pop\n        /* \"#utility.yul\":14076:14079   */\n      dup2\n        /* \"#utility.yul\":14073:14074   */\n      0x00\n        /* \"#utility.yul\":14066:14080   */\n      mstore\n        /* \"#utility.yul\":14110:14114   */\n      0x20\n        /* \"#utility.yul\":14107:14108   */\n      0x00\n        /* \"#utility.yul\":14097:14115   */\n      keccak256\n        /* \"#utility.yul\":14089:14115   */\n      swap1\n      pop\n        /* \"#utility.yul\":13981:14122   */\n      swap2\n      swap1\n      pop\n      jump\t// out\n        /* \"#utility.yul\":14128:14221   */\n    tag_176:\n        /* \"#utility.yul\":14165:14171   */\n      0x00\n        /* \"#utility.yul\":14212:14214   */\n      0x20\n        /* \"#utility.yul\":14207:14209   */\n      0x1f\n        /* \"#utility.yul\":14200:14205   */\n      dup4\n        /* \"#utility.yul\":14196:14210   */\n      add\n        /* \"#utility.yul\":14192:14215   */\n      div\n        /* \"#utility.yul\":14182:14215   */\n      swap1\n      pop\n        /* \"#utility.yul\":14128:14221   */\n      swap2\n      swap1\n      pop\n      jump\t// out\n        /* \"#utility.yul\":14227:14334   */\n    tag_177:\n        /* \"#utility.yul\":14271:14279   */\n      0x00\n        /* \"#utility.yul\":14321:14326   */\n      dup3\n        /* \"#utility.yul\":14315:14319   */\n      dup3\n        /* \"#utility.yul\":14311:14327   */\n      shl\n        /* \"#utility.yul\":14290:14327   */\n      swap1\n      pop\n        /* \"#utility.yul\":14227:14334   */\n      swap3\n      swap2\n      pop\n      pop\n      jump\t// out\n        /* \"#utility.yul\":14340:14733   */\n    tag_178:\n        /* \"#utility.yul\":14409:14415   */\n      0x00\n        /* \"#utility.yul\":14459:14460   */\n      0x08\n        /* \"#utility.yul\":14447:14457   */\n      dup4\n        /* \"#utility.yul\":14443:14461   */\n      mul\n        /* \"#utility.yul\":14482:14579   */\n      tag_338\n        /* \"#utility.yul\":14512:14578   */\n      0xffffffffffffffffffffffffffffffffffffffffffffffffffffffffffffffff\n        /* \"#utility.yul\":14501:14510   */\n      dup3\n        /* \"#utility.yul\":14482:14579   */\n      tag_177\n      jump\t// in\n    tag_338:\n        /* \"#utility.yul\":14600:14639   */\n      tag_339\n        /* \"#utility.yul\":14630:14638   */\n      dup7\n        /* \"#utility.yul\":14619:14628   */\n      dup4\n        /* \"#utility.yul\":14600:14639   */\n      tag_177\n      jump\t// in\n    tag_339:\n        /* \"#utility.yul\":14588:14639   */\n      swap6\n      pop\n        /* \"#utility.yul\":14672:14676   */\n      dup1\n        /* \"#utility.yul\":14668:14677   */\n      not\n        /* \"#utility.yul\":14661:14666   */\n      dup5\n        /* \"#utility.yul\":14657:14678   */\n      and\n        /* \"#utility.yul\":14648:14678   */\n      swap4\n      pop\n        /* \"#utility.yul\":14721:14725   */\n      dup1\n        /* \"#utility.yul\":14711:14719   */\n      dup7\n        /* \"#utility.yul\":14707:14726   */\n      and\n        /* \"#utility.yul\":14700:14705   */\n      dup5\n        /* \"#utility.yul\":14697:14727   */\n      or\n        /* \"#utility.yul\":14687:14727   */\n      swap3\n      pop\n        /* \"#utility.yul\":14416:14733   */\n      pop\n      pop\n        /* \"#utility.yul\":14340:14733   */\n      swap4\n      swap3\n      pop\n      pop\n      pop\n      jump\t// out\n        /* \"#utility.yul\":14739:14799   */\n    tag_179:\n        /* \"#utility.yul\":14767:14770   */\n      0x00\n        /* \"#utility.yul\":14788:14793   */\n      dup2\n        /* \"#utility.yul\":14781:14793   */\n      swap1\n      pop\n        /* \"#utility.yul\":14739:14799   */\n      swap2\n      swap1\n      pop\n      jump\t// out\n        /* \"#utility.yul\":14805:14947   */\n    tag_180:\n        /* \"#utility.yul\":14855:14864   */\n      0x00\n        /* \"#utility.yul\":14888:14941   */\n      tag_342\n        /* \"#utility.yul\":14906:14940   */\n      tag_343\n        /* \"#utility.yul\":14915:14939   */\n      tag_344\n        /* \"#utility.yul\":14933:14938   */\n      dup5\n        /* \"#utility.yul\":14915:14939   */\n      tag_145\n      jump\t// in\n    tag_344:\n        /* \"#utility.yul\":14906:14940   */\n      tag_179\n      jump\t// in\n    tag_343:\n        /* \"#utility.yul\":14888:14941   */\n      tag_145\n      jump\t// in\n    tag_342:\n        /* \"#utility.yul\":14875:14941   */\n      swap1\n      pop\n        /* \"#utility.yul\":14805:14947   */\n      swap2\n      swap1\n      pop\n      jump\t// out\n        /* \"#utility.yul\":14953:15028   */\n    tag_181:\n        /* \"#utility.yul\":14996:14999   */\n      0x00\n        /* \"#utility.yul\":15017:15022   */\n      dup2\n        /* \"#utility.yul\":15010:15022   */\n      swap1\n      pop\n        /* \"#utility.yul\":14953:15028   */\n      swap2\n      swap1\n      pop\n      jump\t// out\n        /* \"#utility.yul\":15034:15303   */\n    tag_182:\n        /* \"#utility.yul\":15144:15183   */\n      tag_347\n        /* \"#utility.yul\":15175:15182   */\n      dup4\n        /* \"#utility.yul\":15144:15183   */\n      tag_180\n      jump\t// in\n    tag_347:\n        /* \"#utility.yul\":15205:15296   */\n      tag_348\n        /* \"#utility.yul\":15254:15295   */\n      tag_349\n        /* \"#utility.yul\":15278:15294   */\n      dup3\n        /* \"#utility.yul\":15254:15295   */\n      tag_181\n      jump\t// in\n    tag_349:\n        /* \"#utility.yul\":15246:15252   */\n      dup5\n        /* \"#utility.yul\":15239:15243   */\n      dup5\n        /* \"#utility.yul\":15233:15244   */\n      sload\n        /* \"#utility.yul\":15205:15296   */\n      tag_178\n      jump\t// in\n    tag_348:\n        /* \"#utility.yul\":15199:15203   */\n      dup3\n        /* \"#utility.yul\":15192:15297   */\n      sstore\n        /* \"#utility.yul\":15110:15303   */\n      pop\n        /* \"#utility.yul\":15034:15303   */\n      pop\n      pop\n      pop\n      jump\t// out\n        /* \"#utility.yul\":15309:15382   */\n    tag_183:\n        /* \"#utility.yul\":15354:15357   */\n      0x00\n        /* \"#utility.yul\":15375:15376   */\n      0x00\n        /* \"#utility.yul\":15368:15376   */\n      swap1\n      pop\n        /* \"#utility.yul\":15309:15382   */\n      swap1\n      jump\t// out\n        /* \"#utility.yul\":15388:15577   */\n    tag_184:\n        /* \"#utility.yul\":15465:15497   */\n      tag_352\n      tag_183\n      jump\t// in\n    tag_352:\n        /* \"#utility.yul\":15506:15571   */\n      tag_353\n        /* \"#utility.yul\":15564:15570   */\n      dup2\n        /* \"#utility.yul\":15556:15562   */\n      dup5\n        /* \"#utility.yul\":15550:15554   */\n      dup5\n        /* \"#utility.yul\":15506:15571   */\n      tag_182\n      jump\t// in\n    tag_353:\n        /* \"#utility.yul\":15441:15577   */\n      pop\n        /* \"#utility.yul\":15388:15577   */\n      pop\n      pop\n      jump\t// out\n        /* \"#utility.yul\":15583:15797   */\n    tag_185:\n        /* \"#utility.yul\":15668:15669   */\n      0x00\n        /* \"#utility.yul\":15653:15791   */\n    tag_355:\n        /* \"#utility.yul\":15678:15687   */\n      dup3\n        /* \"#utility.yul\":15675:15676   */\n      dup2\n        /* \"#utility.yul\":15672:15688   */\n      lt\n        /* \"#utility.yul\":15653:15791   */\n      iszero\n      tag_357\n      jumpi\n        /* \"#utility.yul\":15730:15781   */\n      tag_358\n        /* \"#utility.yul\":15779:15780   */\n      0x00\n        /* \"#utility.yul\":15775:15776   */\n      dup3\n        /* \"#utility.yul\":15764:15773   */\n      dup5\n        /* \"#utility.yul\":15760:15777   */\n      add\n        /* \"#utility.yul\":15730:15781   */\n      tag_184\n      jump\t// in\n    tag_358:\n        /* \"#utility.yul\":15703:15704   */\n      0x01\n        /* \"#utility.yul\":15700:15701   */\n      dup2\n        /* \"#utility.yul\":15696:15705   */\n      add\n        /* \"#utility.yul\":15691:15705   */\n      swap1\n      pop\n        /* \"#utility.yul\":15653:15791   */\n      jump(tag_355)\n    tag_357:\n        /* \"#utility.yul\":15657:15671   */\n      pop\n        /* \"#utility.yul\":15583:15797   */\n      pop\n      pop\n      jump\t// out\n        /* \"#utility.yul\":15803:16549   */\n    tag_186:\n        /* \"#utility.yul\":15904:15906   */\n      0x1f\n        /* \"#utility.yul\":15899:15902   */\n      dup3\n        /* \"#utility.yul\":15896:15907   */\n      gt\n        /* \"#utility.yul\":15893:16542   */\n      iszero\n      tag_360\n      jumpi\n        /* \"#utility.yul\":15933:15943   */\n      dup3\n        /* \"#utility.yul\":15928:15931   */\n      dup3\n        /* \"#utility.yul\":15925:15944   */\n      gt\n        /* \"#utility.yul\":15922:16532   */\n      iszero\n      tag_361\n      jumpi\n        /* \"#utility.yul\":15979:16017   */\n      tag_362\n        /* \"#utility.yul\":16011:16016   */\n      dup2\n        /* \"#utility.yul\":15979:16017   */\n      tag_175\n      jump\t// in\n    tag_362:\n        /* \"#utility.yul\":16054:16076   */\n      tag_363\n        /* \"#utility.yul\":16072:16075   */\n      dup4\n        /* \"#utility.yul\":16054:16076   */\n      tag_176\n      jump\t// in\n    tag_363:\n        /* \"#utility.yul\":16113:16142   */\n      tag_364\n        /* \"#utility.yul\":16131:16141   */\n      dup6\n        /* \"#utility.yul\":16113:16142   */\n      tag_176\n      jump\t// in\n    tag_364:\n        /* \"#utility.yul\":16303:16305   */\n      0x20\n        /* \"#utility.yul\":16291:16301   */\n      dup7\n        /* \"#utility.yul\":16288:16306   */\n      lt\n        /* \"#utility.yul\":16285:16364   */\n      iszero\n      tag_365\n      jumpi\n        /* \"#utility.yul\":16345:16346   */\n      0x00\n        /* \"#utility.yul\":16329:16346   */\n      swap1\n      pop\n        /* \"#utility.yul\":16285:16364   */\n    tag_365:\n        /* \"#utility.yul\":16414:16426   */\n      dup1\n        /* \"#utility.yul\":16404:16412   */\n      dup4\n        /* \"#utility.yul\":16400:16427   */\n      add\n        /* \"#utility.yul\":16444:16518   */\n      tag_366\n        /* \"#utility.yul\":16504:16516   */\n      dup3\n        /* \"#utility.yul\":16490:16502   */\n      dup5\n        /* \"#utility.yul\":16486:16517   */\n      sub\n        /* \"#utility.yul\":16473:16484   */\n      dup3\n        /* \"#utility.yul\":16444:16518   */\n      tag_185\n      jump\t// in\n    tag_366:\n        /* \"#utility.yul\":15945:16532   */\n      pop\n      pop\n      pop\n      pop\n        /* \"#utility.yul\":15922:16532   */\n    tag_361:\n        /* \"#utility.yul\":15893:16542   */\n    tag_360:\n        /* \"#utility.yul\":15803:16549   */\n      pop\n      pop\n      pop\n      jump\t// out\n        /* \"#utility.yul\":16555:16672   */\n    tag_187:\n        /* \"#utility.yul\":16609:16617   */\n      0x00\n        /* \"#utility.yul\":16659:16664   */\n      dup3\n        /* \"#utility.yul\":16653:16657   */\n      dup3\n        /* \"#utility.yul\":16649:16665   */\n      shr\n        /* \"#utility.yul\":16628:16665   */\n      swap1\n      pop\n        /* \"#utility.yul\":16555:16672   */\n      swap3\n      swap2\n      pop\n      pop\n      jump\t// out\n        /* \"#utility.yul\":16678:16847   */\n    tag_188:\n        /* \"#utility.yul\":16722:16728   */\n      0x00\n        /* \"#utility.yul\":16755:16806   */\n      tag_369\n        /* \"#utility.yul\":16803:16804   */\n      0x00\n        /* \"#utility.yul\":16799:16805   */\n      not\n        /* \"#utility.yul\":16791:16796   */\n      dup5\n        /* \"#utility.yul\":16788:16789   */\n      0x08\n        /* \"#utility.yul\":16784:16797   */\n      mul\n        /* \"#utility.yul\":16755:16806   */\n      tag_187\n      jump\t// in\n    tag_369:\n        /* \"#utility.yul\":16751:16807   */\n      not\n        /* \"#utility.yul\":16836:16840   */\n      dup1\n        /* \"#utility.yul\":16830:16834   */\n      dup4\n        /* \"#utility.yul\":16826:16841   */\n      and\n        /* \"#utility.yul\":16816:16841   */\n      swap2\n      pop\n        /* \"#utility.yul\":16729:16847   */\n      pop\n        /* \"#utility.yul\":16678:16847   */\n      swap3\n      swap2\n      pop\n      pop\n      jump\t// out\n        /* \"#utility.yul\":16852:17147   */\n    tag_189:\n        /* \"#utility.yul\":16928:16932   */\n      0x00\n        /* \"#utility.yul\":17074:17103   */\n      tag_371\n        /* \"#utility.yul\":17099:17102   */\n      dup4\n        /* \"#utility.yul\":17093:17097   */\n      dup4\n        /* \"#utility.yul\":17074:17103   */\n      tag_188\n      jump\t// in\n    tag_371:\n        /* \"#utility.yul\":17066:17103   */\n      swap2\n      pop\n        /* \"#utility.yul\":17136:17139   */\n      dup3\n        /* \"#utility.yul\":17133:17134   */\n      0x02\n        /* \"#utility.yul\":17129:17140   */\n      mul\n        /* \"#utility.yul\":17123:17127   */\n      dup3\n        /* \"#utility.yul\":17120:17141   */\n      or\n        /* \"#utility.yul\":17112:17141   */\n      swap1\n      pop\n        /* \"#utility.yul\":16852:17147   */\n      swap3\n      swap2\n      pop\n      pop\n      jump\t// out\n        /* \"#utility.yul\":17152:18547   */\n    tag_83:\n        /* \"#utility.yul\":17269:17306   */\n      tag_373\n        /* \"#utility.yul\":17302:17305   */\n      dup3\n        /* \"#utility.yul\":17269:17306   */\n      tag_147\n      jump\t// in\n    tag_373:\n        /* \"#utility.yul\":17371:17389   */\n      0xffffffffffffffff\n        /* \"#utility.yul\":17363:17369   */\n      dup2\n        /* \"#utility.yul\":17360:17390   */\n      gt\n        /* \"#utility.yul\":17357:17413   */\n      iszero\n      tag_374\n      jumpi\n        /* \"#utility.yul\":17393:17411   */\n      tag_375\n      tag_155\n      jump\t// in\n    tag_375:\n        /* \"#utility.yul\":17357:17413   */\n    tag_374:\n        /* \"#utility.yul\":17437:17475   */\n      tag_376\n        /* \"#utility.yul\":17469:17473   */\n      dup3\n        /* \"#utility.yul\":17463:17474   */\n      sload\n        /* \"#utility.yul\":17437:17475   */\n      tag_59\n      jump\t// in\n    tag_376:\n        /* \"#utility.yul\":17522:17589   */\n      tag_377\n        /* \"#utility.yul\":17582:17588   */\n      dup3\n        /* \"#utility.yul\":17574:17580   */\n      dup3\n        /* \"#utility.yul\":17568:17572   */\n      dup6\n        /* \"#utility.yul\":17522:17589   */\n      tag_186\n      jump\t// in\n    tag_377:\n        /* \"#utility.yul\":17616:17617   */\n      0x00\n        /* \"#utility.yul\":17640:17644   */\n      0x20\n        /* \"#utility.yul\":17627:17644   */\n      swap1\n      pop\n        /* \"#utility.yul\":17672:17674   */\n      0x1f\n        /* \"#utility.yul\":17664:17670   */\n      dup4\n        /* \"#utility.yul\":17661:17675   */\n      gt\n        /* \"#utility.yul\":17689:17690   */\n      0x01\n        /* \"#utility.yul\":17684:18302   */\n      dup2\n      eq\n      tag_379\n      jumpi\n        /* \"#utility.yul\":18346:18347   */\n      0x00\n        /* \"#utility.yul\":18363:18369   */\n      dup5\n        /* \"#utility.yul\":18360:18437   */\n      iszero\n      tag_380\n      jumpi\n        /* \"#utility.yul\":18412:18421   */\n      dup3\n        /* \"#utility.yul\":18407:18410   */\n      dup8\n        /* \"#utility.yul\":18403:18422   */\n      add\n        /* \"#utility.yul\":18397:18423   */\n      mload\n        /* \"#utility.yul\":18388:18423   */\n      swap1\n      pop\n        /* \"#utility.yul\":18360:18437   */\n    tag_380:\n        /* \"#utility.yul\":18463:18530   */\n      tag_381\n        /* \"#utility.yul\":18523:18529   */\n      dup6\n        /* \"#utility.yul\":18516:18521   */\n      dup3\n        /* \"#utility.yul\":18463:18530   */\n      tag_189\n      jump\t// in\n    tag_381:\n        /* \"#utility.yul\":18457:18461   */\n      dup7\n        /* \"#utility.yul\":18450:18531   */\n      sstore\n        /* \"#utility.yul\":18319:18541   */\n      pop\n        /* \"#utility.yul\":17654:18541   */\n      jump(tag_378)\n        /* \"#utility.yul\":17684:18302   */\n    tag_379:\n        /* \"#utility.yul\":17736:17740   */\n      0x1f\n        /* \"#utility.yul\":17732:17741   */\n      not\n        /* \"#utility.yul\":17724:17730   */\n      dup5\n        /* \"#utility.yul\":17720:17742   */\n      and\n        /* \"#utility.yul\":17770:17807   */\n      tag_382\n        /* \"#utility.yul\":17802:17806   */\n      dup7\n        /* \"#utility.yul\":17770:17807   */\n      tag_175\n      jump\t// in\n    tag_382:\n        /* \"#utility.yul\":17829:17830   */\n      0x00\n        /* \"#utility.yul\":17843:18051   */\n    tag_383:\n        /* \"#utility.yul\":17857:17864   */\n      dup3\n        /* \"#utility.yul\":17854:17855   */\n      dup2\n        /* \"#utility.yul\":17851:17865   */\n      lt\n        /* \"#utility.yul\":17843:18051   */\n      iszero\n      tag_385\n      jumpi\n        /* \"#utility.yul\":17936:17945   */\n      dup5\n        /* \"#utility.yul\":17931:17934   */\n      dup10\n        /* \"#utility.yul\":17927:17946   */\n      add\n        /* \"#utility.yul\":17921:17947   */\n      mload\n        /* \"#utility.yul\":17913:17919   */\n      dup3\n        /* \"#utility.yul\":17906:17948   */\n      sstore\n        /* \"#utility.yul\":17987:17988   */\n      0x01\n        /* \"#utility.yul\":17979:17985   */\n      dup3\n        /* \"#utility.yul\":17975:17989   */\n      add\n        /* \"#utility.yul\":17965:17989   */\n      swap2\n      pop\n        /* \"#utility.yul\":18034:18036   */\n      0x20\n        /* \"#utility.yul\":18023:18032   */\n      dup6\n        /* \"#utility.yul\":18019:18037   */\n      add\n        /* \"#utility.yul\":18006:18037   */\n      swap5\n      pop\n        /* \"#utility.yul\":17880:17884   */\n      0x20\n        /* \"#utility.yul\":17877:17878   */\n      dup2\n        /* \"#utility.yul\":17873:17885   */\n      add\n        /* \"#utility.yul\":17868:17885   */\n      swap1\n      pop\n        /* \"#utility.yul\":17843:18051   */\n      jump(tag_383)\n    tag_385:\n        /* \"#utility.yul\":18079:18085   */\n      dup7\n        /* \"#utility.yul\":18070:18077   */\n      dup4\n        /* \"#utility.yul\":18067:18086   */\n      lt\n        /* \"#utility.yul\":18064:18243   */\n      iszero\n      tag_386\n      jumpi\n        /* \"#utility.yul\":18137:18146   */\n      dup5\n        /* \"#utility.yul\":18132:18135   */\n      dup10\n        /* \"#utility.yul\":18128:18147   */\n      add\n        /* \"#utility.yul\":18122:18148   */\n      mload\n        /* \"#utility.yul\":18180:18228   */\n      tag_387\n        /* \"#utility.yul\":18222:18226   */\n      0x1f\n        /* \"#utility.yul\":18214:18220   */\n      dup10\n        /* \"#utility.yul\":18210:18227   */\n      and\n        /* \"#utility.yul\":18199:18208   */\n      dup3\n        /* \"#utility.yul\":18180:18228   */\n      tag_188\n      jump\t// in\n    tag_387:\n        /* \"#utility.yul\":18172:18178   */\n      dup4\n        /* \"#utility.yul\":18165:18229   */\n      sstore\n        /* \"#utility.yul\":18087:18243   */\n      pop\n        /* \"#utility.yul\":18064:18243   */\n    tag_386:\n        /* \"#utility.yul\":18289:18290   */\n      0x01\n        /* \"#utility.yul\":18285:18286   */\n      0x02\n        /* \"#utility.yul\":18277:18283   */\n      dup9\n        /* \"#utility.yul\":18273:18287   */\n      mul\n        /* \"#utility.yul\":18269:18291   */\n      add\n        /* \"#utility.yul\":18263:18267   */\n      dup9\n        /* \"#utility.yul\":18256:18292   */\n      sstore\n        /* \"#utility.yul\":17691:18302   */\n      pop\n      pop\n      pop\n        /* \"#utility.yul\":17654:18541   */\n    tag_378:\n      pop\n        /* \"#utility.yul\":17244:18547   */\n      pop\n      pop\n      pop\n        /* \"#utility.yul\":17152:18547   */\n      pop\n      pop\n      jump\t// out\n        /* \"#utility.yul\":18553:18976   */\n    tag_85:\n        /* \"#utility.yul\":18694:18698   */\n      0x00\n        /* \"#utility.yul\":18732:18734   */\n      0x40\n        /* \"#utility.yul\":18721:18730   */\n      dup3\n        /* \"#utility.yul\":18717:18735   */\n      add\n        /* \"#utility.yul\":18709:18735   */\n      swap1\n      pop\n        /* \"#utility.yul\":18781:18790   */\n      dup2\n        /* \"#utility.yul\":18775:18779   */\n      dup2\n        /* \"#utility.yul\":18771:18791   */\n      sub\n        /* \"#utility.yul\":18767:18768   */\n      0x00\n        /* \"#utility.yul\":18756:18765   */\n      dup4\n        /* \"#utility.yul\":18752:18769   */\n      add\n        /* \"#utility.yul\":18745:18792   */\n      mstore\n        /* \"#utility.yul\":18809:18887   */\n      tag_389\n        /* \"#utility.yul\":18882:18886   */\n      dup2\n        /* \"#utility.yul\":18873:18879   */\n      dup6\n        /* \"#utility.yul\":18809:18887   */\n      tag_151\n      jump\t// in\n    tag_389:\n        /* \"#utility.yul\":18801:18887   */\n      swap1\n      pop\n        /* \"#utility.yul\":18897:18969   */\n      tag_390\n        /* \"#utility.yul\":18965:18967   */\n      0x20\n        /* \"#utility.yul\":18954:18963   */\n      dup4\n        /* \"#utility.yul\":18950:18968   */\n      add\n        /* \"#utility.yul\":18941:18947   */\n      dup5\n        /* \"#utility.yul\":18897:18969   */\n      tag_146\n      jump\t// in\n    tag_390:\n        /* \"#utility.yul\":18553:18976   */\n      swap4\n      swap3\n      pop\n      pop\n      pop\n      jump\t// out\n        /* \"#utility.yul\":18982:19203   */\n    tag_190:\n        /* \"#utility.yul\":19122:19156   */\n      0x4f6e6c79206120726567697374657265642070617469656e742063616e206361\n        /* \"#utility.yul\":19118:19119   */\n      0x00\n        /* \"#utility.yul\":19110:19116   */\n      dup3\n        /* \"#utility.yul\":19106:19120   */\n      add\n        /* \"#utility.yul\":19099:19157   */\n      mstore\n        /* \"#utility.yul\":19191:19195   */\n      0x6c6c000000000000000000000000000000000000000000000000000000000000\n        /* \"#utility.yul\":19186:19188   */\n      0x20\n        /* \"#utility.yul\":19178:19184   */\n      dup3\n        /* \"#utility.yul\":19174:19189   */\n      add\n        /* \"#utility.yul\":19167:19196   */\n      mstore\n        /* \"#utility.yul\":18982:19203   */\n      pop\n      jump\t// out\n        /* \"#utility.yul\":19209:19575   */\n    tag_191:\n        /* \"#utility.yul\":19351:19354   */\n      0x00\n        /* \"#utility.yul\":19372:19439   */\n      tag_393\n        /* \"#utility.yul\":19436:19438   */\n      0x22\n        /* \"#utility.yul\":19431:19434   */\n      dup4\n        /* \"#utility.yul\":19372:19439   */\n      tag_148\n      jump\t// in\n    tag_393:\n        /* \"#utility.yul\":19365:19439   */\n      swap2\n      pop\n        /* \"#utility.yul\":19448:19541   */\n      tag_394\n        /* \"#utility.yul\":19537:19540   */\n      dup3\n        /* \"#utility.yul\":19448:19541   */\n      tag_190\n      jump\t// in\n    tag_394:\n        /* \"#utility.yul\":19566:19568   */\n      0x40\n        /* \"#utility.yul\":19561:19564   */\n      dup3\n        /* \"#utility.yul\":19557:19569   */\n      add\n        /* \"#utility.yul\":19550:19569   */\n      swap1\n      pop\n        /* \"#utility.yul\":19209:19575   */\n      swap2\n      swap1\n      pop\n      jump\t// out\n        /* \"#utility.yul\":19581:20000   */\n    tag_89:\n        /* \"#utility.yul\":19747:19751   */\n      0x00\n        /* \"#utility.yul\":19785:19787   */\n      0x20\n        /* \"#utility.yul\":19774:19783   */\n      dup3\n        /* \"#utility.yul\":19770:19788   */\n      add\n        /* \"#utility.yul\":19762:19788   */\n      swap1\n      pop\n        /* \"#utility.yul\":19834:19843   */\n      dup2\n        /* \"#utility.yul\":19828:19832   */\n      dup2\n        /* \"#utility.yul\":19824:19844   */\n      sub\n        /* \"#utility.yul\":19820:19821   */\n      0x00\n        /* \"#utility.yul\":19809:19818   */\n      dup4\n        /* \"#utility.yul\":19805:19822   */\n      add\n        /* \"#utility.yul\":19798:19845   */\n      mstore\n        /* \"#utility.yul\":19862:19993   */\n      tag_396\n        /* \"#utility.yul\":19988:19992   */\n      dup2\n        /* \"#utility.yul\":19862:19993   */\n      tag_191\n      jump\t// in\n    tag_396:\n        /* \"#utility.yul\":19854:19993   */\n      swap1\n      pop\n        /* \"#utility.yul\":19581:20000   */\n      swap2\n      swap1\n      pop\n      jump\t// out\n        /* \"#utility.yul\":20006:20176   */\n    tag_192:\n        /* \"#utility.yul\":20146:20168   */\n      0x486173682063616e6e6f7420626520656d707479000000000000000000000000\n        /* \"#utility.yul\":20142:20143   */\n      0x00\n        /* \"#utility.yul\":20134:20140   */\n      dup3\n        /* \"#utility.yul\":20130:20144   */\n      add\n        /* \"#utility.yul\":20123:20169   */\n      mstore\n        /* \"#utility.yul\":20006:20176   */\n      pop\n      jump\t// out\n        /* \"#utility.yul\":20182:20548   */\n    tag_193:\n        /* \"#utility.yul\":20324:20327   */\n      0x00\n        /* \"#utility.yul\":20345:20412   */\n      tag_399\n        /* \"#utility.yul\":20409:20411   */\n      0x14\n        /* \"#utility.yul\":20404:20407   */\n      dup4\n        /* \"#utility.yul\":20345:20412   */\n      tag_148\n      jump\t// in\n    tag_399:\n        /* \"#utility.yul\":20338:20412   */\n      swap2\n      pop\n        /* \"#utility.yul\":20421:20514   */\n      tag_400\n        /* \"#utility.yul\":20510:20513   */\n      dup3\n        /* \"#utility.yul\":20421:20514   */\n      tag_192\n      jump\t// in\n    tag_400:\n        /* \"#utility.yul\":20539:20541   */\n      0x20\n        /* \"#utility.yul\":20534:20537   */\n      dup3\n        /* \"#utility.yul\":20530:20542   */\n      add\n        /* \"#utility.yul\":20523:20542   */\n      swap1\n      pop\n        /* \"#utility.yul\":20182:20548   */\n      swap2\n      swap1\n      pop\n      jump\t// out\n        /* \"#utility.yul\":20554:20973   */\n    tag_96:\n        /* \"#utility.yul\":20720:20724   */\n      0x00\n        /* \"#utility.yul\":20758:20760   */\n      0x20\n        /* \"#utility.yul\":20747:20756   */\n      dup3\n        /* \"#utility.yul\":20743:20761   */\n      add\n        /* \"#utility.yul\":20735:20761   */\n      swap1\n      pop\n        /* \"#utility.yul\":20807:20816   */\n      dup2\n        /* \"#utility.yul\":20801:20805   */\n      dup2\n        /* \"#utility.yul\":20797:20817   */\n      sub\n        /* \"#utility.yul\":20793:20794   */\n      0x00\n        /* \"#utility.yul\":20782:20791   */\n      dup4\n        /* \"#utility.yul\":20778:20795   */\n      add\n        /* \"#utility.yul\":20771:20818   */\n      mstore\n        /* \"#utility.yul\":20835:20966   */\n      tag_402\n        /* \"#utility.yul\":20961:20965   */\n      dup2\n        /* \"#utility.yul\":20835:20966   */\n      tag_193\n      jump\t// in\n    tag_402:\n        /* \"#utility.yul\":20827:20966   */\n      swap1\n      pop\n        /* \"#utility.yul\":20554:20973   */\n      swap2\n      swap1\n      pop\n      jump\t// out\n        /* \"#utility.yul\":20979:21153   */\n    tag_194:\n        /* \"#utility.yul\":21119:21145   */\n      0x496e76616c69642064656c656761746520616464726573730000000000000000\n        /* \"#utility.yul\":21115:21116   */\n      0x00\n        /* \"#utility.yul\":21107:21113   */\n      dup3\n        /* \"#utility.yul\":21103:21117   */\n      add\n        /* \"#utility.yul\":21096:21146   */\n      mstore\n        /* \"#utility.yul\":20979:21153   */\n      pop\n      jump\t// out\n        /* \"#utility.yul\":21159:21525   */\n    tag_195:\n        /* \"#utility.yul\":21301:21304   */\n      0x00\n        /* \"#utility.yul\":21322:21389   */\n      tag_405\n        /* \"#utility.yul\":21386:21388   */\n      0x18\n        /* \"#utility.yul\":21381:21384   */\n      dup4\n        /* \"#utility.yul\":21322:21389   */\n      tag_148\n      jump\t// in\n    tag_405:\n        /* \"#utility.yul\":21315:21389   */\n      swap2\n      pop\n        /* \"#utility.yul\":21398:21491   */\n      tag_406\n        /* \"#utility.yul\":21487:21490   */\n      dup3\n        /* \"#utility.yul\":21398:21491   */\n      tag_194\n      jump\t// in\n    tag_406:\n        /* \"#utility.yul\":21516:21518   */\n      0x20\n        /* \"#utility.yul\":21511:21514   */\n      dup3\n        /* \"#utility.yul\":21507:21519   */\n      add\n        /* \"#utility.yul\":21500:21519   */\n      swap1\n      pop\n        /* \"#utility.yul\":21159:21525   */\n      swap2\n      swap1\n      pop\n      jump\t// out\n        /* \"#utility.yul\":21531:21950   */\n    tag_108:\n        /* \"#utility.yul\":21697:21701   */\n      0x00\n        /* \"#utility.yul\":21735:21737   */\n      0x20\n        /* \"#utility.yul\":21724:21733   */\n      dup3\n        /* \"#utility.yul\":21720:21738   */\n      add\n        /* \"#utility.yul\":21712:21738   */\n      swap1\n      pop\n        /* \"#utility.yul\":21784:21793   */\n      dup2\n        /* \"#utility.yul\":21778:21782   */\n      dup2\n        /* \"#utility.yul\":21774:21794   */\n      sub\n        /* \"#utility.yul\":21770:21771   */\n      0x00\n        /* \"#utility.yul\":21759:21768   */\n      dup4\n        /* \"#utility.yul\":21755:21772   */\n      add\n        /* \"#utility.yul\":21748:21795   */\n      mstore\n        /* \"#utility.yul\":21812:21943   */\n      tag_408\n        /* \"#utility.yul\":21938:21942   */\n      dup2\n        /* \"#utility.yul\":21812:21943   */\n      tag_195\n      jump\t// in\n    tag_408:\n        /* \"#utility.yul\":21804:21943   */\n      swap1\n      pop\n        /* \"#utility.yul\":21531:21950   */\n      swap2\n      swap1\n      pop\n      jump\t// out\n        /* \"#utility.yul\":21956:22132   */\n    tag_196:\n        /* \"#utility.yul\":22096:22124   */\n      0x43616e6e6f7420636f6e73656e7420746f20796f757273656c66000000000000\n        /* \"#utility.yul\":22092:22093   */\n      0x00\n        /* \"#utility.yul\":22084:22090   */\n      dup3\n        /* \"#utility.yul\":22080:22094   */\n      add\n        /* \"#utility.yul\":22073:22125   */\n      mstore\n        /* \"#utility.yul\":21956:22132   */\n      pop\n      jump\t// out\n        /* \"#utility.yul\":22138:22504   */\n    tag_197:\n        /* \"#utility.yul\":22280:22283   */\n      0x00\n        /* \"#utility.yul\":22301:22368   */\n      tag_411\n        /* \"#utility.yul\":22365:22367   */\n      0x1a\n        /* \"#utility.yul\":22360:22363   */\n      dup4\n        /* \"#utility.yul\":22301:22368   */\n      tag_148\n      jump\t// in\n    tag_411:\n        /* \"#utility.yul\":22294:22368   */\n      swap2\n      pop\n        /* \"#utility.yul\":22377:22470   */\n      tag_412\n        /* \"#utility.yul\":22466:22469   */\n      dup3\n        /* \"#utility.yul\":22377:22470   */\n      tag_196\n      jump\t// in\n    tag_412:\n        /* \"#utility.yul\":22495:22497   */\n      0x20\n        /* \"#utility.yul\":22490:22493   */\n      dup3\n        /* \"#utility.yul\":22486:22498   */\n      add\n        /* \"#utility.yul\":22479:22498   */\n      swap1\n      pop\n        /* \"#utility.yul\":22138:22504   */\n      swap2\n      swap1\n      pop\n      jump\t// out\n        /* \"#utility.yul\":22510:22929   */\n    tag_111:\n        /* \"#utility.yul\":22676:22680   */\n      0x00\n        /* \"#utility.yul\":22714:22716   */\n      0x20\n        /* \"#utility.yul\":22703:22712   */\n      dup3\n        /* \"#utility.yul\":22699:22717   */\n      add\n        /* \"#utility.yul\":22691:22717   */\n      swap1\n      pop\n        /* \"#utility.yul\":22763:22772   */\n      dup2\n        /* \"#utility.yul\":22757:22761   */\n      dup2\n        /* \"#utility.yul\":22753:22773   */\n      sub\n        /* \"#utility.yul\":22749:22750   */\n      0x00\n        /* \"#utility.yul\":22738:22747   */\n      dup4\n        /* \"#utility.yul\":22734:22751   */\n      add\n        /* \"#utility.yul\":22727:22774   */\n      mstore\n        /* \"#utility.yul\":22791:22922   */\n      tag_414\n        /* \"#utility.yul\":22917:22921   */\n      dup2\n        /* \"#utility.yul\":22791:22922   */\n      tag_197\n      jump\t// in\n    tag_414:\n        /* \"#utility.yul\":22783:22922   */\n      swap1\n      pop\n        /* \"#utility.yul\":22510:22929   */\n      swap2\n      swap1\n      pop\n      jump\t// out\n        /* \"#utility.yul\":22935:23115   */\n    tag_198:\n        /* \"#utility.yul\":22983:23060   */\n      0x4e487b7100000000000000000000000000000000000000000000000000000000\n        /* \"#utility.yul\":22980:22981   */\n      0x00\n        /* \"#utility.yul\":22973:23061   */\n      mstore\n        /* \"#utility.yul\":23080:23084   */\n      0x11\n        /* \"#utility.yul\":23077:23078   */\n      0x04\n        /* \"#utility.yul\":23070:23085   */\n      mstore\n        /* \"#utility.yul\":23104:23108   */\n      0x24\n        /* \"#utility.yul\":23101:23102   */\n      0x00\n        /* \"#utility.yul\":23094:23109   */\n      revert\n        /* \"#utility.yul\":23121:23531   */\n    tag_114:\n        /* \"#utility.yul\":23161:23168   */\n      0x00\n        /* \"#utility.yul\":23184:23204   */\n      tag_417\n        /* \"#utility.yul\":23202:23203   */\n      dup3\n        /* \"#utility.yul\":23184:23204   */\n      tag_145\n      jump\t// in\n    tag_417:\n        /* \"#utility.yul\":23179:23204   */\n      swap2\n      pop\n        /* \"#utility.yul\":23218:23238   */\n      tag_418\n        /* \"#utility.yul\":23236:23237   */\n      dup4\n        /* \"#utility.yul\":23218:23238   */\n      tag_145\n      jump\t// in\n    tag_418:\n        /* \"#utility.yul\":23213:23238   */\n      swap3\n      pop\n        /* \"#utility.yul\":23273:23274   */\n      dup3\n        /* \"#utility.yul\":23270:23271   */\n      dup3\n        /* \"#utility.yul\":23266:23275   */\n      mul\n        /* \"#utility.yul\":23295:23325   */\n      tag_419\n        /* \"#utility.yul\":23313:23324   */\n      dup2\n        /* \"#utility.yul\":23295:23325   */\n      tag_145\n      jump\t// in\n    tag_419:\n        /* \"#utility.yul\":23284:23325   */\n      swap2\n      pop\n        /* \"#utility.yul\":23474:23475   */\n      dup3\n        /* \"#utility.yul\":23465:23472   */\n      dup3\n        /* \"#utility.yul\":23461:23476   */\n      div\n        /* \"#utility.yul\":23458:23459   */\n      dup5\n        /* \"#utility.yul\":23455:23477   */\n      eq\n        /* \"#utility.yul\":23435:23436   */\n      dup4\n        /* \"#utility.yul\":23428:23437   */\n      iszero\n        /* \"#utility.yul\":23408:23491   */\n      or\n        /* \"#utility.yul\":23385:23524   */\n      tag_420\n      jumpi\n        /* \"#utility.yul\":23504:23522   */\n      tag_421\n      tag_198\n      jump\t// in\n    tag_421:\n        /* \"#utility.yul\":23385:23524   */\n    tag_420:\n        /* \"#utility.yul\":23169:23531   */\n      pop\n        /* \"#utility.yul\":23121:23531   */\n      swap3\n      swap2\n      pop\n      pop\n      jump\t// out\n        /* \"#utility.yul\":23537:23728   */\n    tag_117:\n        /* \"#utility.yul\":23577:23580   */\n      0x00\n        /* \"#utility.yul\":23596:23616   */\n      tag_423\n        /* \"#utility.yul\":23614:23615   */\n      dup3\n        /* \"#utility.yul\":23596:23616   */\n      tag_145\n      jump\t// in\n    tag_423:\n        /* \"#utility.yul\":23591:23616   */\n      swap2\n      pop\n        /* \"#utility.yul\":23630:23650   */\n      tag_424\n        /* \"#utility.yul\":23648:23649   */\n      dup4\n        /* \"#utility.yul\":23630:23650   */\n      tag_145\n      jump\t// in\n    tag_424:\n        /* \"#utility.yul\":23625:23650   */\n      swap3\n      pop\n        /* \"#utility.yul\":23673:23674   */\n      dup3\n        /* \"#utility.yul\":23670:23671   */\n      dup3\n        /* \"#utility.yul\":23666:23675   */\n      add\n        /* \"#utility.yul\":23659:23675   */\n      swap1\n      pop\n        /* \"#utility.yul\":23694:23697   */\n      dup1\n        /* \"#utility.yul\":23691:23692   */\n      dup3\n        /* \"#utility.yul\":23688:23698   */\n      gt\n        /* \"#utility.yul\":23685:23721   */\n      iszero\n      tag_425\n      jumpi\n        /* \"#utility.yul\":23701:23719   */\n      tag_426\n      tag_198\n      jump\t// in\n    tag_426:\n        /* \"#utility.yul\":23685:23721   */\n    tag_425:\n        /* \"#utility.yul\":23537:23728   */\n      swap3\n      swap2\n      pop\n      pop\n      jump\t// out\n        /* \"#utility.yul\":23734:23911   */\n    tag_199:\n        /* \"#utility.yul\":23874:23903   */\n      0x4e6f2061637469766520636f6e73656e7420746f207265766f6b650000000000\n        /* \"#utility.yul\":23870:23871   */\n      0x00\n        /* \"#utility.yul\":23862:23868   */\n      dup3\n        /* \"#utility.yul\":23858:23872   */\n      add\n        /* \"#utility.yul\":23851:23904   */\n      mstore\n        /* \"#utility.yul\":23734:23911   */\n      pop\n      jump\t// out\n        /* \"#utility.yul\":23917:24283   */\n    tag_200:\n        /* \"#utility.yul\":24059:24062   */\n      0x00\n        /* \"#utility.yul\":24080:24147   */\n      tag_429\n        /* \"#utility.yul\":24144:24146   */\n      0x1b\n        /* \"#utility.yul\":24139:24142   */\n      dup4\n        /* \"#utility.yul\":24080:24147   */\n      tag_148\n      jump\t// in\n    tag_429:\n        /* \"#utility.yul\":24073:24147   */\n      swap2\n      pop\n        /* \"#utility.yul\":24156:24249   */\n      tag_430\n        /* \"#utility.yul\":24245:24248   */\n      dup3\n        /* \"#utility.yul\":24156:24249   */\n      tag_199\n      jump\t// in\n    tag_430:\n        /* \"#utility.yul\":24274:24276   */\n      0x20\n        /* \"#utility.yul\":24269:24272   */\n      dup3\n        /* \"#utility.yul\":24265:24277   */\n      add\n        /* \"#utility.yul\":24258:24277   */\n      swap1\n      pop\n        /* \"#utility.yul\":23917:24283   */\n      swap2\n      swap1\n      pop\n      jump\t// out\n        /* \"#utility.yul\":24289:24708   */\n    tag_134:\n        /* \"#utility.yul\":24455:24459   */\n      0x00\n        /* \"#utility.yul\":24493:24495   */\n      0x20\n        /* \"#utility.yul\":24482:24491   */\n      dup3\n        /* \"#utility.yul\":24478:24496   */\n      add\n        /* \"#utility.yul\":24470:24496   */\n      swap1\n      pop\n        /* \"#utility.yul\":24542:24551   */\n      dup2\n        /* \"#utility.yul\":24536:24540   */\n      dup2\n        /* \"#utility.yul\":24532:24552   */\n      sub\n        /* \"#utility.yul\":24528:24529   */\n      0x00\n        /* \"#utility.yul\":24517:24526   */\n      dup4\n        /* \"#utility.yul\":24513:24530   */\n      add\n        /* \"#utility.yul\":24506:24553   */\n      mstore\n        /* \"#utility.yul\":24570:24701   */\n      tag_432\n        /* \"#utility.yul\":24696:24700   */\n      dup2\n        /* \"#utility.yul\":24570:24701   */\n      tag_200\n      jump\t// in\n    tag_432:\n        /* \"#utility.yul\":24562:24701   */\n      swap1\n      pop\n        /* \"#utility.yul\":24289:24708   */\n      swap2\n      swap1\n      pop\n      jump\t// out\n\n    auxdata: 0xa2646970667358221220f00eb0b881b05115f1b367c310c261ec696a1f5fb82ac3d02bfbb1e77dac45ce64736f6c63430008220033\n}\n",
				"bytecode": {
					"linkReferences": {},
					"object": "608060405260015f55348015610013575f5ffd5b50604051611e76380380611e7683398181016040528101906100359190610147565b5f73ffffffffffffffffffffffffffffffffffffffff168173ffffffffffffffffffffffffffffffffffffffff16036100a3576040517f08c379a000000000000000000000000000000000000000000000000000000000815260040161009a906101cc565b60405180910390fd5b8060015f6101000a81548173ffffffffffffffffffffffffffffffffffffffff021916908373ffffffffffffffffffffffffffffffffffffffff160217905550506101ea565b5f5ffd5b5f73ffffffffffffffffffffffffffffffffffffffff82169050919050565b5f610116826100ed565b9050919050565b6101268161010c565b8114610130575f5ffd5b50565b5f815190506101418161011d565b92915050565b5f6020828403121561015c5761015b6100e9565b5b5f61016984828501610133565b91505092915050565b5f82825260208201905092915050565b7f496e76616c69642061646d696e206164647265737300000000000000000000005f82015250565b5f6101b6601583610172565b91506101c182610182565b602082019050919050565b5f6020820190508181035f8301526101e3816101aa565b9050919050565b611c7f806101f75f395ff3fe608060405234801561000f575f5ffd5b506004361061009c575f3560e01c8063918b5be111610064578063918b5be1146101585780639d15e77f14610174578063a6d41f3314610190578063c5e4892d146101c0578063d1a48627146101f25761009c565b80633c4f7a9d146100a057806355ab139c146100d0578063614363de146100ee57806374c16b231461011e5780638048c2f01461013c575b5f5ffd5b6100ba60048036038101906100b59190611078565b61020e565b6040516100c791906110bd565b60405180910390f35b6100d861022b565b6040516100e591906110ee565b60405180910390f35b61010860048036038101906101039190611078565b610233565b6040516101159190611177565b60405180910390f35b6101266102ce565b60405161013391906111a6565b60405180910390f35b610156600480360381019061015191906112eb565b6102f3565b005b610172600480360381019061016d9190611345565b61061a565b005b61018e600480360381019061018991906113b6565b6107d6565b005b6101aa60048036038101906101a591906113f4565b610ae5565b6040516101b791906110bd565b60405180910390f35b6101da60048036038101906101d591906113f4565b610bab565b6040516101e993929190611432565b60405180910390f35b61020c60048036038101906102079190611078565b610c85565b005b6002602052805f5260405f205f915054906101000a900460ff1681565b6301e1338081565b6003602052805f5260405f205f91509050805461024f90611494565b80601f016020809104026020016040519081016040528092919081815260200182805461027b90611494565b80156102c65780601f1061029d576101008083540402835291602001916102c6565b820191905f5260205f20905b8154815290600101906020018083116102a957829003601f168201915b505050505081565b60015f9054906101000a900473ffffffffffffffffffffffffffffffffffffffff1681565b60015f9054906101000a900473ffffffffffffffffffffffffffffffffffffffff1673ffffffffffffffffffffffffffffffffffffffff163373ffffffffffffffffffffffffffffffffffffffff1614610382576040517f08c379a00000000000000000000000000000000000000000000000000000000081526004016103799061150e565b60405180910390fd5b60015f54146103c6576040517f08c379a00000000000000000000000000000000000000000000000000000000081526004016103bd90611576565b60405180910390fd5b60025f819055505f73ffffffffffffffffffffffffffffffffffffffff168273ffffffffffffffffffffffffffffffffffffffff160361043b576040517f08c379a0000000000000000000000000000000000000000000000000000000008152600401610432906115de565b60405180910390fd5b5f81511161047e576040517f08c379a000000000000000000000000000000000000000000000000000000000815260040161047590611646565b60405180910390fd5b60025f8373ffffffffffffffffffffffffffffffffffffffff1673ffffffffffffffffffffffffffffffffffffffff1681526020019081526020015f205f9054906101000a900460ff1615610508576040517f08c379a00000000000000000000000000000000000000000000000000000000081526004016104ff906116ae565b60405180910390fd5b600160025f8473ffffffffffffffffffffffffffffffffffffffff1673ffffffffffffffffffffffffffffffffffffffff1681526020019081526020015f205f6101000a81548160ff0219169083151502179055508060035f8473ffffffffffffffffffffffffffffffffffffffff1673ffffffffffffffffffffffffffffffffffffffff1681526020019081526020015f2090816105a7919061187d565b503373ffffffffffffffffffffffffffffffffffffffff168273ffffffffffffffffffffffffffffffffffffffff167fa51978d9c64194b0d5c8cd9eb228895f30d6c88c665e027db731307e8046964c834260405161060792919061194c565b60405180910390a360015f819055505050565b60025f3373ffffffffffffffffffffffffffffffffffffffff1673ffffffffffffffffffffffffffffffffffffffff1681526020019081526020015f205f9054906101000a900460ff166106a3576040517f08c379a000000000000000000000000000000000000000000000000000000000815260040161069a906119ea565b60405180910390fd5b60015f54146106e7576040517f08c379a00000000000000000000000000000000000000000000000000000000081526004016106de90611576565b60405180910390fd5b60025f819055505f815111610731576040517f08c379a000000000000000000000000000000000000000000000000000000000815260040161072890611a52565b60405180910390fd5b8060035f3373ffffffffffffffffffffffffffffffffffffffff1673ffffffffffffffffffffffffffffffffffffffff1681526020019081526020015f20908161077b919061187d565b503373ffffffffffffffffffffffffffffffffffffffff167f35224cade043c033fe1e2521d7d83e401fe108e394a3f0cff8e076a966b2578682426040516107c492919061194c565b60405180910390a260015f8190555050565b60025f3373ffffffffffffffffffffffffffffffffffffffff1673ffffffffffffffffffffffffffffffffffffffff1681526020019081526020015f205f9054906101000a900460ff1661085f576040517f08c379a0000000000000000000000000000000000000000000000000000000008152600401610856906119ea565b60405180910390fd5b60015f54146108a3576040517f08c379a000000000000000000000000000000000000000000000000000000000815260040161089a90611576565b60405180910390fd5b60025f819055505f73ffffffffffffffffffffffffffffffffffffffff168273ffffffffffffffffffffffffffffffffffffffff1603610918576040517f08c379a000000000000000000000000000000000000000000000000000000000815260040161090f90611aba565b60405180910390fd5b3373ffffffffffffffffffffffffffffffffffffffff168273ffffffffffffffffffffffffffffffffffffffff1603610986576040517f08c379a000000000000000000000000000000000000000000000000000000000815260040161097d90611b22565b60405180910390fd5b5f5f82146109a257620151808261099d9190611b6d565b6109a8565b6301e133805b90505f81426109b79190611bae565b905060405180604001604052806001151581526020018281525060045f3373ffffffffffffffffffffffffffffffffffffffff1673ffffffffffffffffffffffffffffffffffffffff1681526020019081526020015f205f8673ffffffffffffffffffffffffffffffffffffffff1673ffffffffffffffffffffffffffffffffffffffff1681526020019081526020015f205f820151815f015f6101000a81548160ff021916908315150217905550602082015181600101559050508373ffffffffffffffffffffffffffffffffffffffff163373ffffffffffffffffffffffffffffffffffffffff167f76a1ad651bc50df5ed36a8884155c46292a92f3605f168df56223cb72e98d02a83604051610ad091906110ee565b60405180910390a3505060015f819055505050565b5f5f60045f8573ffffffffffffffffffffffffffffffffffffffff1673ffffffffffffffffffffffffffffffffffffffff1681526020019081526020015f205f8473ffffffffffffffffffffffffffffffffffffffff1673ffffffffffffffffffffffffffffffffffffffff1681526020019081526020015f206040518060400160405290815f82015f9054906101000a900460ff161515151581526020016001820154815250509050805f01518015610ba25750806020015142105b91505092915050565b5f5f5f5f60045f8773ffffffffffffffffffffffffffffffffffffffff1673ffffffffffffffffffffffffffffffffffffffff1681526020019081526020015f205f8673ffffffffffffffffffffffffffffffffffffffff1673ffffffffffffffffffffffffffffffffffffffff1681526020019081526020015f206040518060400160405290815f82015f9054906101000a900460ff161515151581526020016001820154815250509050805f01519350806020015192505f8160200151118015610c7b575080602001514210155b9150509250925092565b60025f3373ffffffffffffffffffffffffffffffffffffffff1673ffffffffffffffffffffffffffffffffffffffff1681526020019081526020015f205f9054906101000a900460ff16610d0e576040517f08c379a0000000000000000000000000000000000000000000000000000000008152600401610d05906119ea565b60405180910390fd5b60015f5414610d52576040517f08c379a0000000000000000000000000000000000000000000000000000000008152600401610d4990611576565b60405180910390fd5b60025f819055505f73ffffffffffffffffffffffffffffffffffffffff168173ffffffffffffffffffffffffffffffffffffffff1603610dc7576040517f08c379a0000000000000000000000000000000000000000000000000000000008152600401610dbe90611aba565b60405180910390fd5b60045f3373ffffffffffffffffffffffffffffffffffffffff1673ffffffffffffffffffffffffffffffffffffffff1681526020019081526020015f205f8273ffffffffffffffffffffffffffffffffffffffff1673ffffffffffffffffffffffffffffffffffffffff1681526020019081526020015f205f015f9054906101000a900460ff16610e8d576040517f08c379a0000000000000000000000000000000000000000000000000000000008152600401610e8490611c2b565b60405180910390fd5b5f60045f3373ffffffffffffffffffffffffffffffffffffffff1673ffffffffffffffffffffffffffffffffffffffff1681526020019081526020015f205f8373ffffffffffffffffffffffffffffffffffffffff1673ffffffffffffffffffffffffffffffffffffffff1681526020019081526020015f205f015f6101000a81548160ff0219169083151502179055505f60045f3373ffffffffffffffffffffffffffffffffffffffff1673ffffffffffffffffffffffffffffffffffffffff1681526020019081526020015f205f8373ffffffffffffffffffffffffffffffffffffffff1673ffffffffffffffffffffffffffffffffffffffff1681526020019081526020015f20600101819055508073ffffffffffffffffffffffffffffffffffffffff163373ffffffffffffffffffffffffffffffffffffffff167fb975ee8b7b7c48fd313db9b5ca976e213d1d7bd3136fc5c926dd5ff00077e47f42604051610ffb91906110ee565b60405180910390a360015f8190555050565b5f604051905090565b5f5ffd5b5f5ffd5b5f73ffffffffffffffffffffffffffffffffffffffff82169050919050565b5f6110478261101e565b9050919050565b6110578161103d565b8114611061575f5ffd5b50565b5f813590506110728161104e565b92915050565b5f6020828403121561108d5761108c611016565b5b5f61109a84828501611064565b91505092915050565b5f8115159050919050565b6110b7816110a3565b82525050565b5f6020820190506110d05f8301846110ae565b92915050565b5f819050919050565b6110e8816110d6565b82525050565b5f6020820190506111015f8301846110df565b92915050565b5f81519050919050565b5f82825260208201905092915050565b8281835e5f83830152505050565b5f601f19601f8301169050919050565b5f61114982611107565b6111538185611111565b9350611163818560208601611121565b61116c8161112f565b840191505092915050565b5f6020820190508181035f83015261118f818461113f565b905092915050565b6111a08161103d565b82525050565b5f6020820190506111b95f830184611197565b92915050565b5f5ffd5b5f5ffd5b7f4e487b71000000000000000000000000000000000000000000000000000000005f52604160045260245ffd5b6111fd8261112f565b810181811067ffffffffffffffff8211171561121c5761121b6111c7565b5b80604052505050565b5f61122e61100d565b905061123a82826111f4565b919050565b5f67ffffffffffffffff821115611259576112586111c7565b5b6112628261112f565b9050602081019050919050565b828183375f83830152505050565b5f61128f61128a8461123f565b611225565b9050828152602081018484840111156112ab576112aa6111c3565b5b6112b684828561126f565b509392505050565b5f82601f8301126112d2576112d16111bf565b5b81356112e284826020860161127d565b91505092915050565b5f5f6040838503121561130157611300611016565b5b5f61130e85828601611064565b925050602083013567ffffffffffffffff81111561132f5761132e61101a565b5b61133b858286016112be565b9150509250929050565b5f6020828403121561135a57611359611016565b5b5f82013567ffffffffffffffff8111156113775761137661101a565b5b611383848285016112be565b91505092915050565b611395816110d6565b811461139f575f5ffd5b50565b5f813590506113b08161138c565b92915050565b5f5f604083850312156113cc576113cb611016565b5b5f6113d985828601611064565b92505060206113ea858286016113a2565b9150509250929050565b5f5f6040838503121561140a57611409611016565b5b5f61141785828601611064565b925050602061142885828601611064565b9150509250929050565b5f6060820190506114455f8301866110ae565b61145260208301856110df565b61145f60408301846110ae565b949350505050565b7f4e487b71000000000000000000000000000000000000000000000000000000005f52602260045260245ffd5b5f60028204905060018216806114ab57607f821691505b6020821081036114be576114bd611467565b5b50919050565b7f4f6e6c7920526567697374727941646d696e2063616e2063616c6c20746869735f82015250565b5f6114f8602083611111565b9150611503826114c4565b602082019050919050565b5f6020820190508181035f830152611525816114ec565b9050919050565b7f5265656e7472616e637947756172643a207265656e7472616e742063616c6c005f82015250565b5f611560601f83611111565b915061156b8261152c565b602082019050919050565b5f6020820190508181035f83015261158d81611554565b9050919050565b7f496e76616c69642070617469656e7420616464726573730000000000000000005f82015250565b5f6115c8601783611111565b91506115d382611594565b602082019050919050565b5f6020820190508181035f8301526115f5816115bc565b9050919050565b7f4d657461646174612068617368207265717569726564000000000000000000005f82015250565b5f611630601683611111565b915061163b826115fc565b602082019050919050565b5f6020820190508181035f83015261165d81611624565b9050919050565b7f50617469656e7420616c726561647920726567697374657265640000000000005f82015250565b5f611698601a83611111565b91506116a382611664565b602082019050919050565b5f6020820190508181035f8301526116c58161168c565b9050919050565b5f819050815f5260205f209050919050565b5f6020601f8301049050919050565b5f82821b905092915050565b5f600883026117287fffffffffffffffffffffffffffffffffffffffffffffffffffffffffffffffff826116ed565b61173286836116ed565b95508019841693508086168417925050509392505050565b5f819050919050565b5f61176d611768611763846110d6565b61174a565b6110d6565b9050919050565b5f819050919050565b61178683611753565b61179a61179282611774565b8484546116f9565b825550505050565b5f5f905090565b6117b16117a2565b6117bc81848461177d565b505050565b5f5b828110156117e2576117d75f8284016117a9565b6001810190506117c3565b505050565b601f821115611835578282111561183457611801816116cc565b61180a836116de565b611813856116de565b6020861015611820575f90505b80830161182f828403826117c1565b505050505b5b505050565b5f82821c905092915050565b5f6118555f198460080261183a565b1980831691505092915050565b5f61186d8383611846565b9150826002028217905092915050565b61188682611107565b67ffffffffffffffff81111561189f5761189e6111c7565b5b6118a98254611494565b6118b48282856117e7565b5f60209050601f8311600181146118e5575f84156118d3578287015190505b6118dd8582611862565b865550611944565b601f1984166118f3866116cc565b5f5b8281101561191a578489015182556001820191506020850194506020810190506118f5565b868310156119375784890151611933601f891682611846565b8355505b6001600288020188555050505b505050505050565b5f6040820190508181035f830152611964818561113f565b905061197360208301846110df565b9392505050565b7f4f6e6c79206120726567697374657265642070617469656e742063616e2063615f8201527f6c6c000000000000000000000000000000000000000000000000000000000000602082015250565b5f6119d4602283611111565b91506119df8261197a565b604082019050919050565b5f6020820190508181035f830152611a01816119c8565b9050919050565b7f486173682063616e6e6f7420626520656d7074790000000000000000000000005f82015250565b5f611a3c601483611111565b9150611a4782611a08565b602082019050919050565b5f6020820190508181035f830152611a6981611a30565b9050919050565b7f496e76616c69642064656c6567617465206164647265737300000000000000005f82015250565b5f611aa4601883611111565b9150611aaf82611a70565b602082019050919050565b5f6020820190508181035f830152611ad181611a98565b9050919050565b7f43616e6e6f7420636f6e73656e7420746f20796f757273656c660000000000005f82015250565b5f611b0c601a83611111565b9150611b1782611ad8565b602082019050919050565b5f6020820190508181035f830152611b3981611b00565b9050919050565b7f4e487b71000000000000000000000000000000000000000000000000000000005f52601160045260245ffd5b5f611b77826110d6565b9150611b82836110d6565b9250828202611b90816110d6565b91508282048414831517611ba757611ba6611b40565b5b5092915050565b5f611bb8826110d6565b9150611bc3836110d6565b9250828201905080821115611bdb57611bda611b40565b5b92915050565b7f4e6f2061637469766520636f6e73656e7420746f207265766f6b6500000000005f82015250565b5f611c15601b83611111565b9150611c2082611be1565b602082019050919050565b5f6020820190508181035f830152611c4281611c09565b905091905056fea2646970667358221220f00eb0b881b05115f1b367c310c261ec696a1f5fb82ac3d02bfbb1e77dac45ce64736f6c63430008220033",
					"opcodes": "PUSH1 0x80 PUSH1 0x40 MSTORE PUSH1 0x1 PUSH0 SSTORE CALLVALUE DUP1 ISZERO PUSH2 0x13 JUMPI PUSH0 PUSH0 REVERT JUMPDEST POP PUSH1 0x40 MLOAD PUSH2 0x1E76 CODESIZE SUB DUP1 PUSH2 0x1E76 DUP4 CODECOPY DUP2 DUP2 ADD PUSH1 0x40 MSTORE DUP2 ADD SWAP1 PUSH2 0x35 SWAP2 SWAP1 PUSH2 0x147 JUMP JUMPDEST PUSH0 PUSH20 0xFFFFFFFFFFFFFFFFFFFFFFFFFFFFFFFFFFFFFFFF AND DUP2 PUSH20 0xFFFFFFFFFFFFFFFFFFFFFFFFFFFFFFFFFFFFFFFF AND SUB PUSH2 0xA3 JUMPI PUSH1 0x40 MLOAD PUSH32 0x8C379A000000000000000000000000000000000000000000000000000000000 DUP2 MSTORE PUSH1 0x4 ADD PUSH2 0x9A SWAP1 PUSH2 0x1CC JUMP JUMPDEST PUSH1 0x40 MLOAD DUP1 SWAP2 SUB SWAP1 REVERT JUMPDEST DUP1 PUSH1 0x1 PUSH0 PUSH2 0x100 EXP DUP2 SLOAD DUP2 PUSH20 0xFFFFFFFFFFFFFFFFFFFFFFFFFFFFFFFFFFFFFFFF MUL NOT AND SWAP1 DUP4 PUSH20 0xFFFFFFFFFFFFFFFFFFFFFFFFFFFFFFFFFFFFFFFF AND MUL OR SWAP1 SSTORE POP POP PUSH2 0x1EA JUMP JUMPDEST PUSH0 PUSH0 REVERT JUMPDEST PUSH0 PUSH20 0xFFFFFFFFFFFFFFFFFFFFFFFFFFFFFFFFFFFFFFFF DUP3 AND SWAP1 POP SWAP2 SWAP1 POP JUMP JUMPDEST PUSH0 PUSH2 0x116 DUP3 PUSH2 0xED JUMP JUMPDEST SWAP1 POP SWAP2 SWAP1 POP JUMP JUMPDEST PUSH2 0x126 DUP2 PUSH2 0x10C JUMP JUMPDEST DUP2 EQ PUSH2 0x130 JUMPI PUSH0 PUSH0 REVERT JUMPDEST POP JUMP JUMPDEST PUSH0 DUP2 MLOAD SWAP1 POP PUSH2 0x141 DUP2 PUSH2 0x11D JUMP JUMPDEST SWAP3 SWAP2 POP POP JUMP JUMPDEST PUSH0 PUSH1 0x20 DUP3 DUP5 SUB SLT ISZERO PUSH2 0x15C JUMPI PUSH2 0x15B PUSH2 0xE9 JUMP JUMPDEST JUMPDEST PUSH0 PUSH2 0x169 DUP5 DUP3 DUP6 ADD PUSH2 0x133 JUMP JUMPDEST SWAP2 POP POP SWAP3 SWAP2 POP POP JUMP JUMPDEST PUSH0 DUP3 DUP3 MSTORE PUSH1 0x20 DUP3 ADD SWAP1 POP SWAP3 SWAP2 POP POP JUMP JUMPDEST PUSH32 0x496E76616C69642061646D696E20616464726573730000000000000000000000 PUSH0 DUP3 ADD MSTORE POP JUMP JUMPDEST PUSH0 PUSH2 0x1B6 PUSH1 0x15 DUP4 PUSH2 0x172 JUMP JUMPDEST SWAP2 POP PUSH2 0x1C1 DUP3 PUSH2 0x182 JUMP JUMPDEST PUSH1 0x20 DUP3 ADD SWAP1 POP SWAP2 SWAP1 POP JUMP JUMPDEST PUSH0 PUSH1 0x20 DUP3 ADD SWAP1 POP DUP2 DUP2 SUB PUSH0 DUP4 ADD MSTORE PUSH2 0x1E3 DUP2 PUSH2 0x1AA JUMP JUMPDEST SWAP1 POP SWAP2 SWAP1 POP JUMP JUMPDEST PUSH2 0x1C7F DUP1 PUSH2 0x1F7 PUSH0 CODECOPY PUSH0 RETURN INVALID PUSH1 0x80 PUSH1 0x40 MSTORE CALLVALUE DUP1 ISZERO PUSH2 0xF JUMPI PUSH0 PUSH0 REVERT JUMPDEST POP PUSH1 0x4 CALLDATASIZE LT PUSH2 0x9C JUMPI PUSH0 CALLDATALOAD PUSH1 0xE0 SHR DUP1 PUSH4 0x918B5BE1 GT PUSH2 0x64 JUMPI DUP1 PUSH4 0x918B5BE1 EQ PUSH2 0x158 JUMPI DUP1 PUSH4 0x9D15E77F EQ PUSH2 0x174 JUMPI DUP1 PUSH4 0xA6D41F33 EQ PUSH2 0x190 JUMPI DUP1 PUSH4 0xC5E4892D EQ PUSH2 0x1C0 JUMPI DUP1 PUSH4 0xD1A48627 EQ PUSH2 0x1F2 JUMPI PUSH2 0x9C JUMP JUMPDEST DUP1 PUSH4 0x3C4F7A9D EQ PUSH2 0xA0 JUMPI DUP1 PUSH4 0x55AB139C EQ PUSH2 0xD0 JUMPI DUP1 PUSH4 0x614363DE EQ PUSH2 0xEE JUMPI DUP1 PUSH4 0x74C16B23 EQ PUSH2 0x11E JUMPI DUP1 PUSH4 0x8048C2F0 EQ PUSH2 0x13C JUMPI JUMPDEST PUSH0 PUSH0 REVERT JUMPDEST PUSH2 0xBA PUSH1 0x4 DUP1 CALLDATASIZE SUB DUP2 ADD SWAP1 PUSH2 0xB5 SWAP2 SWAP1 PUSH2 0x1078 JUMP JUMPDEST PUSH2 0x20E JUMP JUMPDEST PUSH1 0x40 MLOAD PUSH2 0xC7 SWAP2 SWAP1 PUSH2 0x10BD JUMP JUMPDEST PUSH1 0x40 MLOAD DUP1 SWAP2 SUB SWAP1 RETURN JUMPDEST PUSH2 0xD8 PUSH2 0x22B JUMP JUMPDEST PUSH1 0x40 MLOAD PUSH2 0xE5 SWAP2 SWAP1 PUSH2 0x10EE JUMP JUMPDEST PUSH1 0x40 MLOAD DUP1 SWAP2 SUB SWAP1 RETURN JUMPDEST PUSH2 0x108 PUSH1 0x4 DUP1 CALLDATASIZE SUB DUP2 ADD SWAP1 PUSH2 0x103 SWAP2 SWAP1 PUSH2 0x1078 JUMP JUMPDEST PUSH2 0x233 JUMP JUMPDEST PUSH1 0x40 MLOAD PUSH2 0x115 SWAP2 SWAP1 PUSH2 0x1177 JUMP JUMPDEST PUSH1 0x40 MLOAD DUP1 SWAP2 SUB SWAP1 RETURN JUMPDEST PUSH2 0x126 PUSH2 0x2CE JUMP JUMPDEST PUSH1 0x40 MLOAD PUSH2 0x133 SWAP2 SWAP1 PUSH2 0x11A6 JUMP JUMPDEST PUSH1 0x40 MLOAD DUP1 SWAP2 SUB SWAP1 RETURN JUMPDEST PUSH2 0x156 PUSH1 0x4 DUP1 CALLDATASIZE SUB DUP2 ADD SWAP1 PUSH2 0x151 SWAP2 SWAP1 PUSH2 0x12EB JUMP JUMPDEST PUSH2 0x2F3 JUMP JUMPDEST STOP JUMPDEST PUSH2 0x172 PUSH1 0x4 DUP1 CALLDATASIZE SUB DUP2 ADD SWAP1 PUSH2 0x16D SWAP2 SWAP1 PUSH2 0x1345 JUMP JUMPDEST PUSH2 0x61A JUMP JUMPDEST STOP JUMPDEST PUSH2 0x18E PUSH1 0x4 DUP1 CALLDATASIZE SUB DUP2 ADD SWAP1 PUSH2 0x189 SWAP2 SWAP1 PUSH2 0x13B6 JUMP JUMPDEST PUSH2 0x7D6 JUMP JUMPDEST STOP JUMPDEST PUSH2 0x1AA PUSH1 0x4 DUP1 CALLDATASIZE SUB DUP2 ADD SWAP1 PUSH2 0x1A5 SWAP2 SWAP1 PUSH2 0x13F4 JUMP JUMPDEST PUSH2 0xAE5 JUMP JUMPDEST PUSH1 0x40 MLOAD PUSH2 0x1B7 SWAP2 SWAP1 PUSH2 0x10BD JUMP JUMPDEST PUSH1 0x40 MLOAD DUP1 SWAP2 SUB SWAP1 RETURN JUMPDEST PUSH2 0x1DA PUSH1 0x4 DUP1 CALLDATASIZE SUB DUP2 ADD SWAP1 PUSH2 0x1D5 SWAP2 SWAP1 PUSH2 0x13F4 JUMP JUMPDEST PUSH2 0xBAB JUMP JUMPDEST PUSH1 0x40 MLOAD PUSH2 0x1E9 SWAP4 SWAP3 SWAP2 SWAP1 PUSH2 0x1432 JUMP JUMPDEST PUSH1 0x40 MLOAD DUP1 SWAP2 SUB SWAP1 RETURN JUMPDEST PUSH2 0x20C PUSH1 0x4 DUP1 CALLDATASIZE SUB DUP2 ADD SWAP1 PUSH2 0x207 SWAP2 SWAP1 PUSH2 0x1078 JUMP JUMPDEST PUSH2 0xC85 JUMP JUMPDEST STOP JUMPDEST PUSH1 0x2 PUSH1 0x20 MSTORE DUP1 PUSH0 MSTORE PUSH1 0x40 PUSH0 KECCAK256 PUSH0 SWAP2 POP SLOAD SWAP1 PUSH2 0x100 EXP SWAP1 DIV PUSH1 0xFF AND DUP2 JUMP JUMPDEST PUSH4 0x1E13380 DUP2 JUMP JUMPDEST PUSH1 0x3 PUSH1 0x20 MSTORE DUP1 PUSH0 MSTORE PUSH1 0x40 PUSH0 KECCAK256 PUSH0 SWAP2 POP SWAP1 POP DUP1 SLOAD PUSH2 0x24F SWAP1 PUSH2 0x1494 JUMP JUMPDEST DUP1 PUSH1 0x1F ADD PUSH1 0x20 DUP1 SWAP2 DIV MUL PUSH1 0x20 ADD PUSH1 0x40 MLOAD SWAP1 DUP2 ADD PUSH1 0x40 MSTORE DUP1 SWAP3 SWAP2 SWAP1 DUP2 DUP2 MSTORE PUSH1 0x20 ADD DUP3 DUP1 SLOAD PUSH2 0x27B SWAP1 PUSH2 0x1494 JUMP JUMPDEST DUP1 ISZERO PUSH2 0x2C6 JUMPI DUP1 PUSH1 0x1F LT PUSH2 0x29D JUMPI PUSH2 0x100 DUP1 DUP4 SLOAD DIV MUL DUP4 MSTORE SWAP2 PUSH1 0x20 ADD SWAP2 PUSH2 0x2C6 JUMP JUMPDEST DUP3 ADD SWAP2 SWAP1 PUSH0 MSTORE PUSH1 0x20 PUSH0 KECCAK256 SWAP1 JUMPDEST DUP2 SLOAD DUP2 MSTORE SWAP1 PUSH1 0x1 ADD SWAP1 PUSH1 0x20 ADD DUP1 DUP4 GT PUSH2 0x2A9 JUMPI DUP3 SWAP1 SUB PUSH1 0x1F AND DUP3 ADD SWAP2 JUMPDEST POP POP POP POP POP DUP2 JUMP JUMPDEST PUSH1 0x1 PUSH0 SWAP1 SLOAD SWAP1 PUSH2 0x100 EXP SWAP1 DIV PUSH20 0xFFFFFFFFFFFFFFFFFFFFFFFFFFFFFFFFFFFFFFFF AND DUP2 JUMP JUMPDEST PUSH1 0x1 PUSH0 SWAP1 SLOAD SWAP1 PUSH2 0x100 EXP SWAP1 DIV PUSH20 0xFFFFFFFFFFFFFFFFFFFFFFFFFFFFFFFFFFFFFFFF AND PUSH20 0xFFFFFFFFFFFFFFFFFFFFFFFFFFFFFFFFFFFFFFFF AND CALLER PUSH20 0xFFFFFFFFFFFFFFFFFFFFFFFFFFFFFFFFFFFFFFFF AND EQ PUSH2 0x382 JUMPI PUSH1 0x40 MLOAD PUSH32 0x8C379A000000000000000000000000000000000000000000000000000000000 DUP2 MSTORE PUSH1 0x4 ADD PUSH2 0x379 SWAP1 PUSH2 0x150E JUMP JUMPDEST PUSH1 0x40 MLOAD DUP1 SWAP2 SUB SWAP1 REVERT JUMPDEST PUSH1 0x1 PUSH0 SLOAD EQ PUSH2 0x3C6 JUMPI PUSH1 0x40 MLOAD PUSH32 0x8C379A000000000000000000000000000000000000000000000000000000000 DUP2 MSTORE PUSH1 0x4 ADD PUSH2 0x3BD SWAP1 PUSH2 0x1576 JUMP JUMPDEST PUSH1 0x40 MLOAD DUP1 SWAP2 SUB SWAP1 REVERT JUMPDEST PUSH1 0x2 PUSH0 DUP2 SWAP1 SSTORE POP PUSH0 PUSH20 0xFFFFFFFFFFFFFFFFFFFFFFFFFFFFFFFFFFFFFFFF AND DUP3 PUSH20 0xFFFFFFFFFFFFFFFFFFFFFFFFFFFFFFFFFFFFFFFF AND SUB PUSH2 0x43B JUMPI PUSH1 0x40 MLOAD PUSH32 0x8C379A000000000000000000000000000000000000000000000000000000000 DUP2 MSTORE PUSH1 0x4 ADD PUSH2 0x432 SWAP1 PUSH2 0x15DE JUMP JUMPDEST PUSH1 0x40 MLOAD DUP1 SWAP2 SUB SWAP1 REVERT JUMPDEST PUSH0 DUP2 MLOAD GT PUSH2 0x47E JUMPI PUSH1 0x40 MLOAD PUSH32 0x8C379A000000000000000000000000000000000000000000000000000000000 DUP2 MSTORE PUSH1 0x4 ADD PUSH2 0x475 SWAP1 PUSH2 0x1646 JUMP JUMPDEST PUSH1 0x40 MLOAD DUP1 SWAP2 SUB SWAP1 REVERT JUMPDEST PUSH1 0x2 PUSH0 DUP4 PUSH20 0xFFFFFFFFFFFFFFFFFFFFFFFFFFFFFFFFFFFFFFFF AND PUSH20 0xFFFFFFFFFFFFFFFFFFFFFFFFFFFFFFFFFFFFFFFF AND DUP2 MSTORE PUSH1 0x20 ADD SWAP1 DUP2 MSTORE PUSH1 0x20 ADD PUSH0 KECCAK256 PUSH0 SWAP1 SLOAD SWAP1 PUSH2 0x100 EXP SWAP1 DIV PUSH1 0xFF AND ISZERO PUSH2 0x508 JUMPI PUSH1 0x40 MLOAD PUSH32 0x8C379A000000000000000000000000000000000000000000000000000000000 DUP2 MSTORE PUSH1 0x4 ADD PUSH2 0x4FF SWAP1 PUSH2 0x16AE JUMP JUMPDEST PUSH1 0x40 MLOAD DUP1 SWAP2 SUB SWAP1 REVERT JUMPDEST PUSH1 0x1 PUSH1 0x2 PUSH0 DUP5 PUSH20 0xFFFFFFFFFFFFFFFFFFFFFFFFFFFFFFFFFFFFFFFF AND PUSH20 0xFFFFFFFFFFFFFFFFFFFFFFFFFFFFFFFFFFFFFFFF AND DUP2 MSTORE PUSH1 0x20 ADD SWAP1 DUP2 MSTORE PUSH1 0x20 ADD PUSH0 KECCAK256 PUSH0 PUSH2 0x100 EXP DUP2 SLOAD DUP2 PUSH1 0xFF MUL NOT AND SWAP1 DUP4 ISZERO ISZERO MUL OR SWAP1 SSTORE POP DUP1 PUSH1 0x3 PUSH0 DUP5 PUSH20 0xFFFFFFFFFFFFFFFFFFFFFFFFFFFFFFFFFFFFFFFF AND PUSH20 0xFFFFFFFFFFFFFFFFFFFFFFFFFFFFFFFFFFFFFFFF AND DUP2 MSTORE PUSH1 0x20 ADD SWAP1 DUP2 MSTORE PUSH1 0x20 ADD PUSH0 KECCAK256 SWAP1 DUP2 PUSH2 0x5A7 SWAP2 SWAP1 PUSH2 0x187D JUMP JUMPDEST POP CALLER PUSH20 0xFFFFFFFFFFFFFFFFFFFFFFFFFFFFFFFFFFFFFFFF AND DUP3 PUSH20 0xFFFFFFFFFFFFFFFFFFFFFFFFFFFFFFFFFFFFFFFF AND PUSH32 0xA51978D9C64194B0D5C8CD9EB228895F30D6C88C665E027DB731307E8046964C DUP4 TIMESTAMP PUSH1 0x40 MLOAD PUSH2 0x607 SWAP3 SWAP2 SWAP1 PUSH2 0x194C JUMP JUMPDEST PUSH1 0x40 MLOAD DUP1 SWAP2 SUB SWAP1 LOG3 PUSH1 0x1 PUSH0 DUP2 SWAP1 SSTORE POP POP POP JUMP JUMPDEST PUSH1 0x2 PUSH0 CALLER PUSH20 0xFFFFFFFFFFFFFFFFFFFFFFFFFFFFFFFFFFFFFFFF AND PUSH20 0xFFFFFFFFFFFFFFFFFFFFFFFFFFFFFFFFFFFFFFFF AND DUP2 MSTORE PUSH1 0x20 ADD SWAP1 DUP2 MSTORE PUSH1 0x20 ADD PUSH0 KECCAK256 PUSH0 SWAP1 SLOAD SWAP1 PUSH2 0x100 EXP SWAP1 DIV PUSH1 0xFF AND PUSH2 0x6A3 JUMPI PUSH1 0x40 MLOAD PUSH32 0x8C379A000000000000000000000000000000000000000000000000000000000 DUP2 MSTORE PUSH1 0x4 ADD PUSH2 0x69A SWAP1 PUSH2 0x19EA JUMP JUMPDEST PUSH1 0x40 MLOAD DUP1 SWAP2 SUB SWAP1 REVERT JUMPDEST PUSH1 0x1 PUSH0 SLOAD EQ PUSH2 0x6E7 JUMPI PUSH1 0x40 MLOAD PUSH32 0x8C379A000000000000000000000000000000000000000000000000000000000 DUP2 MSTORE PUSH1 0x4 ADD PUSH2 0x6DE SWAP1 PUSH2 0x1576 JUMP JUMPDEST PUSH1 0x40 MLOAD DUP1 SWAP2 SUB SWAP1 REVERT JUMPDEST PUSH1 0x2 PUSH0 DUP2 SWAP1 SSTORE POP PUSH0 DUP2 MLOAD GT PUSH2 0x731 JUMPI PUSH1 0x40 MLOAD PUSH32 0x8C379A000000000000000000000000000000000000000000000000000000000 DUP2 MSTORE PUSH1 0x4 ADD PUSH2 0x728 SWAP1 PUSH2 0x1A52 JUMP JUMPDEST PUSH1 0x40 MLOAD DUP1 SWAP2 SUB SWAP1 REVERT JUMPDEST DUP1 PUSH1 0x3 PUSH0 CALLER PUSH20 0xFFFFFFFFFFFFFFFFFFFFFFFFFFFFFFFFFFFFFFFF AND PUSH20 0xFFFFFFFFFFFFFFFFFFFFFFFFFFFFFFFFFFFFFFFF AND DUP2 MSTORE PUSH1 0x20 ADD SWAP1 DUP2 MSTORE PUSH1 0x20 ADD PUSH0 KECCAK256 SWAP1 DUP2 PUSH2 0x77B SWAP2 SWAP1 PUSH2 0x187D JUMP JUMPDEST POP CALLER PUSH20 0xFFFFFFFFFFFFFFFFFFFFFFFFFFFFFFFFFFFFFFFF AND PUSH32 0x35224CADE043C033FE1E2521D7D83E401FE108E394A3F0CFF8E076A966B25786 DUP3 TIMESTAMP PUSH1 0x40 MLOAD PUSH2 0x7C4 SWAP3 SWAP2 SWAP1 PUSH2 0x194C JUMP JUMPDEST PUSH1 0x40 MLOAD DUP1 SWAP2 SUB SWAP1 LOG2 PUSH1 0x1 PUSH0 DUP2 SWAP1 SSTORE POP POP JUMP JUMPDEST PUSH1 0x2 PUSH0 CALLER PUSH20 0xFFFFFFFFFFFFFFFFFFFFFFFFFFFFFFFFFFFFFFFF AND PUSH20 0xFFFFFFFFFFFFFFFFFFFFFFFFFFFFFFFFFFFFFFFF AND DUP2 MSTORE PUSH1 0x20 ADD SWAP1 DUP2 MSTORE PUSH1 0x20 ADD PUSH0 KECCAK256 PUSH0 SWAP1 SLOAD SWAP1 PUSH2 0x100 EXP SWAP1 DIV PUSH1 0xFF AND PUSH2 0x85F JUMPI PUSH1 0x40 MLOAD PUSH32 0x8C379A000000000000000000000000000000000000000000000000000000000 DUP2 MSTORE PUSH1 0x4 ADD PUSH2 0x856 SWAP1 PUSH2 0x19EA JUMP JUMPDEST PUSH1 0x40 MLOAD DUP1 SWAP2 SUB SWAP1 REVERT JUMPDEST PUSH1 0x1 PUSH0 SLOAD EQ PUSH2 0x8A3 JUMPI PUSH1 0x40 MLOAD PUSH32 0x8C379A000000000000000000000000000000000000000000000000000000000 DUP2 MSTORE PUSH1 0x4 ADD PUSH2 0x89A SWAP1 PUSH2 0x1576 JUMP JUMPDEST PUSH1 0x40 MLOAD DUP1 SWAP2 SUB SWAP1 REVERT JUMPDEST PUSH1 0x2 PUSH0 DUP2 SWAP1 SSTORE POP PUSH0 PUSH20 0xFFFFFFFFFFFFFFFFFFFFFFFFFFFFFFFFFFFFFFFF AND DUP3 PUSH20 0xFFFFFFFFFFFFFFFFFFFFFFFFFFFFFFFFFFFFFFFF AND SUB PUSH2 0x918 JUMPI PUSH1 0x40 MLOAD PUSH32 0x8C379A000000000000000000000000000000000000000000000000000000000 DUP2 MSTORE PUSH1 0x4 ADD PUSH2 0x90F SWAP1 PUSH2 0x1ABA JUMP JUMPDEST PUSH1 0x40 MLOAD DUP1 SWAP2 SUB SWAP1 REVERT JUMPDEST CALLER PUSH20 0xFFFFFFFFFFFFFFFFFFFFFFFFFFFFFFFFFFFFFFFF AND DUP3 PUSH20 0xFFFFFFFFFFFFFFFFFFFFFFFFFFFFFFFFFFFFFFFF AND SUB PUSH2 0x986 JUMPI PUSH1 0x40 MLOAD PUSH32 0x8C379A000000000000000000000000000000000000000000000000000000000 DUP2 MSTORE PUSH1 0x4 ADD PUSH2 0x97D SWAP1 PUSH2 0x1B22 JUMP JUMPDEST PUSH1 0x40 MLOAD DUP1 SWAP2 SUB SWAP1 REVERT JUMPDEST PUSH0 PUSH0 DUP3 EQ PUSH2 0x9A2 JUMPI PUSH3 0x15180 DUP3 PUSH2 0x99D SWAP2 SWAP1 PUSH2 0x1B6D JUMP JUMPDEST PUSH2 0x9A8 JUMP JUMPDEST PUSH4 0x1E13380 JUMPDEST SWAP1 POP PUSH0 DUP2 TIMESTAMP PUSH2 0x9B7 SWAP2 SWAP1 PUSH2 0x1BAE JUMP JUMPDEST SWAP1 POP PUSH1 0x40 MLOAD DUP1 PUSH1 0x40 ADD PUSH1 0x40 MSTORE DUP1 PUSH1 0x1 ISZERO ISZERO DUP2 MSTORE PUSH1 0x20 ADD DUP3 DUP2 MSTORE POP PUSH1 0x4 PUSH0 CALLER PUSH20 0xFFFFFFFFFFFFFFFFFFFFFFFFFFFFFFFFFFFFFFFF AND PUSH20 0xFFFFFFFFFFFFFFFFFFFFFFFFFFFFFFFFFFFFFFFF AND DUP2 MSTORE PUSH1 0x20 ADD SWAP1 DUP2 MSTORE PUSH1 0x20 ADD PUSH0 KECCAK256 PUSH0 DUP7 PUSH20 0xFFFFFFFFFFFFFFFFFFFFFFFFFFFFFFFFFFFFFFFF AND PUSH20 0xFFFFFFFFFFFFFFFFFFFFFFFFFFFFFFFFFFFFFFFF AND DUP2 MSTORE PUSH1 0x20 ADD SWAP1 DUP2 MSTORE PUSH1 0x20 ADD PUSH0 KECCAK256 PUSH0 DUP3 ADD MLOAD DUP2 PUSH0 ADD PUSH0 PUSH2 0x100 EXP DUP2 SLOAD DUP2 PUSH1 0xFF MUL NOT AND SWAP1 DUP4 ISZERO ISZERO MUL OR SWAP1 SSTORE POP PUSH1 0x20 DUP3 ADD MLOAD DUP2 PUSH1 0x1 ADD SSTORE SWAP1 POP POP DUP4 PUSH20 0xFFFFFFFFFFFFFFFFFFFFFFFFFFFFFFFFFFFFFFFF AND CALLER PUSH20 0xFFFFFFFFFFFFFFFFFFFFFFFFFFFFFFFFFFFFFFFF AND PUSH32 0x76A1AD651BC50DF5ED36A8884155C46292A92F3605F168DF56223CB72E98D02A DUP4 PUSH1 0x40 MLOAD PUSH2 0xAD0 SWAP2 SWAP1 PUSH2 0x10EE JUMP JUMPDEST PUSH1 0x40 MLOAD DUP1 SWAP2 SUB SWAP1 LOG3 POP POP PUSH1 0x1 PUSH0 DUP2 SWAP1 SSTORE POP POP POP JUMP JUMPDEST PUSH0 PUSH0 PUSH1 0x4 PUSH0 DUP6 PUSH20 0xFFFFFFFFFFFFFFFFFFFFFFFFFFFFFFFFFFFFFFFF AND PUSH20 0xFFFFFFFFFFFFFFFFFFFFFFFFFFFFFFFFFFFFFFFF AND DUP2 MSTORE PUSH1 0x20 ADD SWAP1 DUP2 MSTORE PUSH1 0x20 ADD PUSH0 KECCAK256 PUSH0 DUP5 PUSH20 0xFFFFFFFFFFFFFFFFFFFFFFFFFFFFFFFFFFFFFFFF AND PUSH20 0xFFFFFFFFFFFFFFFFFFFFFFFFFFFFFFFFFFFFFFFF AND DUP2 MSTORE PUSH1 0x20 ADD SWAP1 DUP2 MSTORE PUSH1 0x20 ADD PUSH0 KECCAK256 PUSH1 0x40 MLOAD DUP1 PUSH1 0x40 ADD PUSH1 0x40 MSTORE SWAP1 DUP2 PUSH0 DUP3 ADD PUSH0 SWAP1 SLOAD SWAP1 PUSH2 0x100 EXP SWAP1 DIV PUSH1 0xFF AND ISZERO ISZERO ISZERO ISZERO DUP2 MSTORE PUSH1 0x20 ADD PUSH1 0x1 DUP3 ADD SLOAD DUP2 MSTORE POP POP SWAP1 POP DUP1 PUSH0 ADD MLOAD DUP1 ISZERO PUSH2 0xBA2 JUMPI POP DUP1 PUSH1 0x20 ADD MLOAD TIMESTAMP LT JUMPDEST SWAP2 POP POP SWAP3 SWAP2 POP POP JUMP JUMPDEST PUSH0 PUSH0 PUSH0 PUSH0 PUSH1 0x4 PUSH0 DUP8 PUSH20 0xFFFFFFFFFFFFFFFFFFFFFFFFFFFFFFFFFFFFFFFF AND PUSH20 0xFFFFFFFFFFFFFFFFFFFFFFFFFFFFFFFFFFFFFFFF AND DUP2 MSTORE PUSH1 0x20 ADD SWAP1 DUP2 MSTORE PUSH1 0x20 ADD PUSH0 KECCAK256 PUSH0 DUP7 PUSH20 0xFFFFFFFFFFFFFFFFFFFFFFFFFFFFFFFFFFFFFFFF AND PUSH20 0xFFFFFFFFFFFFFFFFFFFFFFFFFFFFFFFFFFFFFFFF AND DUP2 MSTORE PUSH1 0x20 ADD SWAP1 DUP2 MSTORE PUSH1 0x20 ADD PUSH0 KECCAK256 PUSH1 0x40 MLOAD DUP1 PUSH1 0x40 ADD PUSH1 0x40 MSTORE SWAP1 DUP2 PUSH0 DUP3 ADD PUSH0 SWAP1 SLOAD SWAP1 PUSH2 0x100 EXP SWAP1 DIV PUSH1 0xFF AND ISZERO ISZERO ISZERO ISZERO DUP2 MSTORE PUSH1 0x20 ADD PUSH1 0x1 DUP3 ADD SLOAD DUP2 MSTORE POP POP SWAP1 POP DUP1 PUSH0 ADD MLOAD SWAP4 POP DUP1 PUSH1 0x20 ADD MLOAD SWAP3 POP PUSH0 DUP2 PUSH1 0x20 ADD MLOAD GT DUP1 ISZERO PUSH2 0xC7B JUMPI POP DUP1 PUSH1 0x20 ADD MLOAD TIMESTAMP LT ISZERO JUMPDEST SWAP2 POP POP SWAP3 POP SWAP3 POP SWAP3 JUMP JUMPDEST PUSH1 0x2 PUSH0 CALLER PUSH20 0xFFFFFFFFFFFFFFFFFFFFFFFFFFFFFFFFFFFFFFFF AND PUSH20 0xFFFFFFFFFFFFFFFFFFFFFFFFFFFFFFFFFFFFFFFF AND DUP2 MSTORE PUSH1 0x20 ADD SWAP1 DUP2 MSTORE PUSH1 0x20 ADD PUSH0 KECCAK256 PUSH0 SWAP1 SLOAD SWAP1 PUSH2 0x100 EXP SWAP1 DIV PUSH1 0xFF AND PUSH2 0xD0E JUMPI PUSH1 0x40 MLOAD PUSH32 0x8C379A000000000000000000000000000000000000000000000000000000000 DUP2 MSTORE PUSH1 0x4 ADD PUSH2 0xD05 SWAP1 PUSH2 0x19EA JUMP JUMPDEST PUSH1 0x40 MLOAD DUP1 SWAP2 SUB SWAP1 REVERT JUMPDEST PUSH1 0x1 PUSH0 SLOAD EQ PUSH2 0xD52 JUMPI PUSH1 0x40 MLOAD PUSH32 0x8C379A000000000000000000000000000000000000000000000000000000000 DUP2 MSTORE PUSH1 0x4 ADD PUSH2 0xD49 SWAP1 PUSH2 0x1576 JUMP JUMPDEST PUSH1 0x40 MLOAD DUP1 SWAP2 SUB SWAP1 REVERT JUMPDEST PUSH1 0x2 PUSH0 DUP2 SWAP1 SSTORE POP PUSH0 PUSH20 0xFFFFFFFFFFFFFFFFFFFFFFFFFFFFFFFFFFFFFFFF AND DUP2 PUSH20 0xFFFFFFFFFFFFFFFFFFFFFFFFFFFFFFFFFFFFFFFF AND SUB PUSH2 0xDC7 JUMPI PUSH1 0x40 MLOAD PUSH32 0x8C379A000000000000000000000000000000000000000000000000000000000 DUP2 MSTORE PUSH1 0x4 ADD PUSH2 0xDBE SWAP1 PUSH2 0x1ABA JUMP JUMPDEST PUSH1 0x40 MLOAD DUP1 SWAP2 SUB SWAP1 REVERT JUMPDEST PUSH1 0x4 PUSH0 CALLER PUSH20 0xFFFFFFFFFFFFFFFFFFFFFFFFFFFFFFFFFFFFFFFF AND PUSH20 0xFFFFFFFFFFFFFFFFFFFFFFFFFFFFFFFFFFFFFFFF AND DUP2 MSTORE PUSH1 0x20 ADD SWAP1 DUP2 MSTORE PUSH1 0x20 ADD PUSH0 KECCAK256 PUSH0 DUP3 PUSH20 0xFFFFFFFFFFFFFFFFFFFFFFFFFFFFFFFFFFFFFFFF AND PUSH20 0xFFFFFFFFFFFFFFFFFFFFFFFFFFFFFFFFFFFFFFFF AND DUP2 MSTORE PUSH1 0x20 ADD SWAP1 DUP2 MSTORE PUSH1 0x20 ADD PUSH0 KECCAK256 PUSH0 ADD PUSH0 SWAP1 SLOAD SWAP1 PUSH2 0x100 EXP SWAP1 DIV PUSH1 0xFF AND PUSH2 0xE8D JUMPI PUSH1 0x40 MLOAD PUSH32 0x8C379A000000000000000000000000000000000000000000000000000000000 DUP2 MSTORE PUSH1 0x4 ADD PUSH2 0xE84 SWAP1 PUSH2 0x1C2B JUMP JUMPDEST PUSH1 0x40 MLOAD DUP1 SWAP2 SUB SWAP1 REVERT JUMPDEST PUSH0 PUSH1 0x4 PUSH0 CALLER PUSH20 0xFFFFFFFFFFFFFFFFFFFFFFFFFFFFFFFFFFFFFFFF AND PUSH20 0xFFFFFFFFFFFFFFFFFFFFFFFFFFFFFFFFFFFFFFFF AND DUP2 MSTORE PUSH1 0x20 ADD SWAP1 DUP2 MSTORE PUSH1 0x20 ADD PUSH0 KECCAK256 PUSH0 DUP4 PUSH20 0xFFFFFFFFFFFFFFFFFFFFFFFFFFFFFFFFFFFFFFFF AND PUSH20 0xFFFFFFFFFFFFFFFFFFFFFFFFFFFFFFFFFFFFFFFF AND DUP2 MSTORE PUSH1 0x20 ADD SWAP1 DUP2 MSTORE PUSH1 0x20 ADD PUSH0 KECCAK256 PUSH0 ADD PUSH0 PUSH2 0x100 EXP DUP2 SLOAD DUP2 PUSH1 0xFF MUL NOT AND SWAP1 DUP4 ISZERO ISZERO MUL OR SWAP1 SSTORE POP PUSH0 PUSH1 0x4 PUSH0 CALLER PUSH20 0xFFFFFFFFFFFFFFFFFFFFFFFFFFFFFFFFFFFFFFFF AND PUSH20 0xFFFFFFFFFFFFFFFFFFFFFFFFFFFFFFFFFFFFFFFF AND DUP2 MSTORE PUSH1 0x20 ADD SWAP1 DUP2 MSTORE PUSH1 0x20 ADD PUSH0 KECCAK256 PUSH0 DUP4 PUSH20 0xFFFFFFFFFFFFFFFFFFFFFFFFFFFFFFFFFFFFFFFF AND PUSH20 0xFFFFFFFFFFFFFFFFFFFFFFFFFFFFFFFFFFFFFFFF AND DUP2 MSTORE PUSH1 0x20 ADD SWAP1 DUP2 MSTORE PUSH1 0x20 ADD PUSH0 KECCAK256 PUSH1 0x1 ADD DUP2 SWAP1 SSTORE POP DUP1 PUSH20 0xFFFFFFFFFFFFFFFFFFFFFFFFFFFFFFFFFFFFFFFF AND CALLER PUSH20 0xFFFFFFFFFFFFFFFFFFFFFFFFFFFFFFFFFFFFFFFF AND PUSH32 0xB975EE8B7B7C48FD313DB9B5CA976E213D1D7BD3136FC5C926DD5FF00077E47F TIMESTAMP PUSH1 0x40 MLOAD PUSH2 0xFFB SWAP2 SWAP1 PUSH2 0x10EE JUMP JUMPDEST PUSH1 0x40 MLOAD DUP1 SWAP2 SUB SWAP1 LOG3 PUSH1 0x1 PUSH0 DUP2 SWAP1 SSTORE POP POP JUMP JUMPDEST PUSH0 PUSH1 0x40 MLOAD SWAP1 POP SWAP1 JUMP JUMPDEST PUSH0 PUSH0 REVERT JUMPDEST PUSH0 PUSH0 REVERT JUMPDEST PUSH0 PUSH20 0xFFFFFFFFFFFFFFFFFFFFFFFFFFFFFFFFFFFFFFFF DUP3 AND SWAP1 POP SWAP2 SWAP1 POP JUMP JUMPDEST PUSH0 PUSH2 0x1047 DUP3 PUSH2 0x101E JUMP JUMPDEST SWAP1 POP SWAP2 SWAP1 POP JUMP JUMPDEST PUSH2 0x1057 DUP2 PUSH2 0x103D JUMP JUMPDEST DUP2 EQ PUSH2 0x1061 JUMPI PUSH0 PUSH0 REVERT JUMPDEST POP JUMP JUMPDEST PUSH0 DUP2 CALLDATALOAD SWAP1 POP PUSH2 0x1072 DUP2 PUSH2 0x104E JUMP JUMPDEST SWAP3 SWAP2 POP POP JUMP JUMPDEST PUSH0 PUSH1 0x20 DUP3 DUP5 SUB SLT ISZERO PUSH2 0x108D JUMPI PUSH2 0x108C PUSH2 0x1016 JUMP JUMPDEST JUMPDEST PUSH0 PUSH2 0x109A DUP5 DUP3 DUP6 ADD PUSH2 0x1064 JUMP JUMPDEST SWAP2 POP POP SWAP3 SWAP2 POP POP JUMP JUMPDEST PUSH0 DUP2 ISZERO ISZERO SWAP1 POP SWAP2 SWAP1 POP JUMP JUMPDEST PUSH2 0x10B7 DUP2 PUSH2 0x10A3 JUMP JUMPDEST DUP3 MSTORE POP POP JUMP JUMPDEST PUSH0 PUSH1 0x20 DUP3 ADD SWAP1 POP PUSH2 0x10D0 PUSH0 DUP4 ADD DUP5 PUSH2 0x10AE JUMP JUMPDEST SWAP3 SWAP2 POP POP JUMP JUMPDEST PUSH0 DUP2 SWAP1 POP SWAP2 SWAP1 POP JUMP JUMPDEST PUSH2 0x10E8 DUP2 PUSH2 0x10D6 JUMP JUMPDEST DUP3 MSTORE POP POP JUMP JUMPDEST PUSH0 PUSH1 0x20 DUP3 ADD SWAP1 POP PUSH2 0x1101 PUSH0 DUP4 ADD DUP5 PUSH2 0x10DF JUMP JUMPDEST SWAP3 SWAP2 POP POP JUMP JUMPDEST PUSH0 DUP2 MLOAD SWAP1 POP SWAP2 SWAP1 POP JUMP JUMPDEST PUSH0 DUP3 DUP3 MSTORE PUSH1 0x20 DUP3 ADD SWAP1 POP SWAP3 SWAP2 POP POP JUMP JUMPDEST DUP3 DUP2 DUP4 MCOPY PUSH0 DUP4 DUP4 ADD MSTORE POP POP POP JUMP JUMPDEST PUSH0 PUSH1 0x1F NOT PUSH1 0x1F DUP4 ADD AND SWAP1 POP SWAP2 SWAP1 POP JUMP JUMPDEST PUSH0 PUSH2 0x1149 DUP3 PUSH2 0x1107 JUMP JUMPDEST PUSH2 0x1153 DUP2 DUP6 PUSH2 0x1111 JUMP JUMPDEST SWAP4 POP PUSH2 0x1163 DUP2 DUP6 PUSH1 0x20 DUP7 ADD PUSH2 0x1121 JUMP JUMPDEST PUSH2 0x116C DUP2 PUSH2 0x112F JUMP JUMPDEST DUP5 ADD SWAP2 POP POP SWAP3 SWAP2 POP POP JUMP JUMPDEST PUSH0 PUSH1 0x20 DUP3 ADD SWAP1 POP DUP2 DUP2 SUB PUSH0 DUP4 ADD MSTORE PUSH2 0x118F DUP2 DUP5 PUSH2 0x113F JUMP JUMPDEST SWAP1 POP SWAP3 SWAP2 POP POP JUMP JUMPDEST PUSH2 0x11A0 DUP2 PUSH2 0x103D JUMP JUMPDEST DUP3 MSTORE POP POP JUMP JUMPDEST PUSH0 PUSH1 0x20 DUP3 ADD SWAP1 POP PUSH2 0x11B9 PUSH0 DUP4 ADD DUP5 PUSH2 0x1197 JUMP JUMPDEST SWAP3 SWAP2 POP POP JUMP JUMPDEST PUSH0 PUSH0 REVERT JUMPDEST PUSH0 PUSH0 REVERT JUMPDEST PUSH32 0x4E487B7100000000000000000000000000000000000000000000000000000000 PUSH0 MSTORE PUSH1 0x41 PUSH1 0x4 MSTORE PUSH1 0x24 PUSH0 REVERT JUMPDEST PUSH2 0x11FD DUP3 PUSH2 0x112F JUMP JUMPDEST DUP2 ADD DUP2 DUP2 LT PUSH8 0xFFFFFFFFFFFFFFFF DUP3 GT OR ISZERO PUSH2 0x121C JUMPI PUSH2 0x121B PUSH2 0x11C7 JUMP JUMPDEST JUMPDEST DUP1 PUSH1 0x40 MSTORE POP POP POP JUMP JUMPDEST PUSH0 PUSH2 0x122E PUSH2 0x100D JUMP JUMPDEST SWAP1 POP PUSH2 0x123A DUP3 DUP3 PUSH2 0x11F4 JUMP JUMPDEST SWAP2 SWAP1 POP JUMP JUMPDEST PUSH0 PUSH8 0xFFFFFFFFFFFFFFFF DUP3 GT ISZERO PUSH2 0x1259 JUMPI PUSH2 0x1258 PUSH2 0x11C7 JUMP JUMPDEST JUMPDEST PUSH2 0x1262 DUP3 PUSH2 0x112F JUMP JUMPDEST SWAP1 POP PUSH1 0x20 DUP2 ADD SWAP1 POP SWAP2 SWAP1 POP JUMP JUMPDEST DUP3 DUP2 DUP4 CALLDATACOPY PUSH0 DUP4 DUP4 ADD MSTORE POP POP POP JUMP JUMPDEST PUSH0 PUSH2 0x128F PUSH2 0x128A DUP5 PUSH2 0x123F JUMP JUMPDEST PUSH2 0x1225 JUMP JUMPDEST SWAP1 POP DUP3 DUP2 MSTORE PUSH1 0x20 DUP2 ADD DUP5 DUP5 DUP5 ADD GT ISZERO PUSH2 0x12AB JUMPI PUSH2 0x12AA PUSH2 0x11C3 JUMP JUMPDEST JUMPDEST PUSH2 0x12B6 DUP5 DUP3 DUP6 PUSH2 0x126F JUMP JUMPDEST POP SWAP4 SWAP3 POP POP POP JUMP JUMPDEST PUSH0 DUP3 PUSH1 0x1F DUP4 ADD SLT PUSH2 0x12D2 JUMPI PUSH2 0x12D1 PUSH2 0x11BF JUMP JUMPDEST JUMPDEST DUP2 CALLDATALOAD PUSH2 0x12E2 DUP5 DUP3 PUSH1 0x20 DUP7 ADD PUSH2 0x127D JUMP JUMPDEST SWAP2 POP POP SWAP3 SWAP2 POP POP JUMP JUMPDEST PUSH0 PUSH0 PUSH1 0x40 DUP4 DUP6 SUB SLT ISZERO PUSH2 0x1301 JUMPI PUSH2 0x1300 PUSH2 0x1016 JUMP JUMPDEST JUMPDEST PUSH0 PUSH2 0x130E DUP6 DUP3 DUP7 ADD PUSH2 0x1064 JUMP JUMPDEST SWAP3 POP POP PUSH1 0x20 DUP4 ADD CALLDATALOAD PUSH8 0xFFFFFFFFFFFFFFFF DUP2 GT ISZERO PUSH2 0x132F JUMPI PUSH2 0x132E PUSH2 0x101A JUMP JUMPDEST JUMPDEST PUSH2 0x133B DUP6 DUP3 DUP7 ADD PUSH2 0x12BE JUMP JUMPDEST SWAP2 POP POP SWAP3 POP SWAP3 SWAP1 POP JUMP JUMPDEST PUSH0 PUSH1 0x20 DUP3 DUP5 SUB SLT ISZERO PUSH2 0x135A JUMPI PUSH2 0x1359 PUSH2 0x1016 JUMP JUMPDEST JUMPDEST PUSH0 DUP3 ADD CALLDATALOAD PUSH8 0xFFFFFFFFFFFFFFFF DUP2 GT ISZERO PUSH2 0x1377 JUMPI PUSH2 0x1376 PUSH2 0x101A JUMP JUMPDEST JUMPDEST PUSH2 0x1383 DUP5 DUP3 DUP6 ADD PUSH2 0x12BE JUMP JUMPDEST SWAP2 POP POP SWAP3 SWAP2 POP POP JUMP JUMPDEST PUSH2 0x1395 DUP2 PUSH2 0x10D6 JUMP JUMPDEST DUP2 EQ PUSH2 0x139F JUMPI PUSH0 PUSH0 REVERT JUMPDEST POP JUMP JUMPDEST PUSH0 DUP2 CALLDATALOAD SWAP1 POP PUSH2 0x13B0 DUP2 PUSH2 0x138C JUMP JUMPDEST SWAP3 SWAP2 POP POP JUMP JUMPDEST PUSH0 PUSH0 PUSH1 0x40 DUP4 DUP6 SUB SLT ISZERO PUSH2 0x13CC JUMPI PUSH2 0x13CB PUSH2 0x1016 JUMP JUMPDEST JUMPDEST PUSH0 PUSH2 0x13D9 DUP6 DUP3 DUP7 ADD PUSH2 0x1064 JUMP JUMPDEST SWAP3 POP POP PUSH1 0x20 PUSH2 0x13EA DUP6 DUP3 DUP7 ADD PUSH2 0x13A2 JUMP JUMPDEST SWAP2 POP POP SWAP3 POP SWAP3 SWAP1 POP JUMP JUMPDEST PUSH0 PUSH0 PUSH1 0x40 DUP4 DUP6 SUB SLT ISZERO PUSH2 0x140A JUMPI PUSH2 0x1409 PUSH2 0x1016 JUMP JUMPDEST JUMPDEST PUSH0 PUSH2 0x1417 DUP6 DUP3 DUP7 ADD PUSH2 0x1064 JUMP JUMPDEST SWAP3 POP POP PUSH1 0x20 PUSH2 0x1428 DUP6 DUP3 DUP7 ADD PUSH2 0x1064 JUMP JUMPDEST SWAP2 POP POP SWAP3 POP SWAP3 SWAP1 POP JUMP JUMPDEST PUSH0 PUSH1 0x60 DUP3 ADD SWAP1 POP PUSH2 0x1445 PUSH0 DUP4 ADD DUP7 PUSH2 0x10AE JUMP JUMPDEST PUSH2 0x1452 PUSH1 0x20 DUP4 ADD DUP6 PUSH2 0x10DF JUMP JUMPDEST PUSH2 0x145F PUSH1 0x40 DUP4 ADD DUP5 PUSH2 0x10AE JUMP JUMPDEST SWAP5 SWAP4 POP POP POP POP JUMP JUMPDEST PUSH32 0x4E487B7100000000000000000000000000000000000000000000000000000000 PUSH0 MSTORE PUSH1 0x22 PUSH1 0x4 MSTORE PUSH1 0x24 PUSH0 REVERT JUMPDEST PUSH0 PUSH1 0x2 DUP3 DIV SWAP1 POP PUSH1 0x1 DUP3 AND DUP1 PUSH2 0x14AB JUMPI PUSH1 0x7F DUP3 AND SWAP2 POP JUMPDEST PUSH1 0x20 DUP3 LT DUP2 SUB PUSH2 0x14BE JUMPI PUSH2 0x14BD PUSH2 0x1467 JUMP JUMPDEST JUMPDEST POP SWAP2 SWAP1 POP JUMP JUMPDEST PUSH32 0x4F6E6C7920526567697374727941646D696E2063616E2063616C6C2074686973 PUSH0 DUP3 ADD MSTORE POP JUMP JUMPDEST PUSH0 PUSH2 0x14F8 PUSH1 0x20 DUP4 PUSH2 0x1111 JUMP JUMPDEST SWAP2 POP PUSH2 0x1503 DUP3 PUSH2 0x14C4 JUMP JUMPDEST PUSH1 0x20 DUP3 ADD SWAP1 POP SWAP2 SWAP1 POP JUMP JUMPDEST PUSH0 PUSH1 0x20 DUP3 ADD SWAP1 POP DUP2 DUP2 SUB PUSH0 DUP4 ADD MSTORE PUSH2 0x1525 DUP2 PUSH2 0x14EC JUMP JUMPDEST SWAP1 POP SWAP2 SWAP1 POP JUMP JUMPDEST PUSH32 0x5265656E7472616E637947756172643A207265656E7472616E742063616C6C00 PUSH0 DUP3 ADD MSTORE POP JUMP JUMPDEST PUSH0 PUSH2 0x1560 PUSH1 0x1F DUP4 PUSH2 0x1111 JUMP JUMPDEST SWAP2 POP PUSH2 0x156B DUP3 PUSH2 0x152C JUMP JUMPDEST PUSH1 0x20 DUP3 ADD SWAP1 POP SWAP2 SWAP1 POP JUMP JUMPDEST PUSH0 PUSH1 0x20 DUP3 ADD SWAP1 POP DUP2 DUP2 SUB PUSH0 DUP4 ADD MSTORE PUSH2 0x158D DUP2 PUSH2 0x1554 JUMP JUMPDEST SWAP1 POP SWAP2 SWAP1 POP JUMP JUMPDEST PUSH32 0x496E76616C69642070617469656E742061646472657373000000000000000000 PUSH0 DUP3 ADD MSTORE POP JUMP JUMPDEST PUSH0 PUSH2 0x15C8 PUSH1 0x17 DUP4 PUSH2 0x1111 JUMP JUMPDEST SWAP2 POP PUSH2 0x15D3 DUP3 PUSH2 0x1594 JUMP JUMPDEST PUSH1 0x20 DUP3 ADD SWAP1 POP SWAP2 SWAP1 POP JUMP JUMPDEST PUSH0 PUSH1 0x20 DUP3 ADD SWAP1 POP DUP2 DUP2 SUB PUSH0 DUP4 ADD MSTORE PUSH2 0x15F5 DUP2 PUSH2 0x15BC JUMP JUMPDEST SWAP1 POP SWAP2 SWAP1 POP JUMP JUMPDEST PUSH32 0x4D65746164617461206861736820726571756972656400000000000000000000 PUSH0 DUP3 ADD MSTORE POP JUMP JUMPDEST PUSH0 PUSH2 0x1630 PUSH1 0x16 DUP4 PUSH2 0x1111 JUMP JUMPDEST SWAP2 POP PUSH2 0x163B DUP3 PUSH2 0x15FC JUMP JUMPDEST PUSH1 0x20 DUP3 ADD SWAP1 POP SWAP2 SWAP1 POP JUMP JUMPDEST PUSH0 PUSH1 0x20 DUP3 ADD SWAP1 POP DUP2 DUP2 SUB PUSH0 DUP4 ADD MSTORE PUSH2 0x165D DUP2 PUSH2 0x1624 JUMP JUMPDEST SWAP1 POP SWAP2 SWAP1 POP JUMP JUMPDEST PUSH32 0x50617469656E7420616C72656164792072656769737465726564000000000000 PUSH0 DUP3 ADD MSTORE POP JUMP JUMPDEST PUSH0 PUSH2 0x1698 PUSH1 0x1A DUP4 PUSH2 0x1111 JUMP JUMPDEST SWAP2 POP PUSH2 0x16A3 DUP3 PUSH2 0x1664 JUMP JUMPDEST PUSH1 0x20 DUP3 ADD SWAP1 POP SWAP2 SWAP1 POP JUMP JUMPDEST PUSH0 PUSH1 0x20 DUP3 ADD SWAP1 POP DUP2 DUP2 SUB PUSH0 DUP4 ADD MSTORE PUSH2 0x16C5 DUP2 PUSH2 0x168C JUMP JUMPDEST SWAP1 POP SWAP2 SWAP1 POP JUMP JUMPDEST PUSH0 DUP2 SWAP1 POP DUP2 PUSH0 MSTORE PUSH1 0x20 PUSH0 KECCAK256 SWAP1 POP SWAP2 SWAP1 POP JUMP JUMPDEST PUSH0 PUSH1 0x20 PUSH1 0x1F DUP4 ADD DIV SWAP1 POP SWAP2 SWAP1 POP JUMP JUMPDEST PUSH0 DUP3 DUP3 SHL SWAP1 POP SWAP3 SWAP2 POP POP JUMP JUMPDEST PUSH0 PUSH1 0x8 DUP4 MUL PUSH2 0x1728 PUSH32 0xFFFFFFFFFFFFFFFFFFFFFFFFFFFFFFFFFFFFFFFFFFFFFFFFFFFFFFFFFFFFFFFF DUP3 PUSH2 0x16ED JUMP JUMPDEST PUSH2 0x1732 DUP7 DUP4 PUSH2 0x16ED JUMP JUMPDEST SWAP6 POP DUP1 NOT DUP5 AND SWAP4 POP DUP1 DUP7 AND DUP5 OR SWAP3 POP POP POP SWAP4 SWAP3 POP POP POP JUMP JUMPDEST PUSH0 DUP2 SWAP1 POP SWAP2 SWAP1 POP JUMP JUMPDEST PUSH0 PUSH2 0x176D PUSH2 0x1768 PUSH2 0x1763 DUP5 PUSH2 0x10D6 JUMP JUMPDEST PUSH2 0x174A JUMP JUMPDEST PUSH2 0x10D6 JUMP JUMPDEST SWAP1 POP SWAP2 SWAP1 POP JUMP JUMPDEST PUSH0 DUP2 SWAP1 POP SWAP2 SWAP1 POP JUMP JUMPDEST PUSH2 0x1786 DUP4 PUSH2 0x1753 JUMP JUMPDEST PUSH2 0x179A PUSH2 0x1792 DUP3 PUSH2 0x1774 JUMP JUMPDEST DUP5 DUP5 SLOAD PUSH2 0x16F9 JUMP JUMPDEST DUP3 SSTORE POP POP POP POP JUMP JUMPDEST PUSH0 PUSH0 SWAP1 POP SWAP1 JUMP JUMPDEST PUSH2 0x17B1 PUSH2 0x17A2 JUMP JUMPDEST PUSH2 0x17BC DUP2 DUP5 DUP5 PUSH2 0x177D JUMP JUMPDEST POP POP POP JUMP JUMPDEST PUSH0 JUMPDEST DUP3 DUP2 LT ISZERO PUSH2 0x17E2 JUMPI PUSH2 0x17D7 PUSH0 DUP3 DUP5 ADD PUSH2 0x17A9 JUMP JUMPDEST PUSH1 0x1 DUP2 ADD SWAP1 POP PUSH2 0x17C3 JUMP JUMPDEST POP POP POP JUMP JUMPDEST PUSH1 0x1F DUP3 GT ISZERO PUSH2 0x1835 JUMPI DUP3 DUP3 GT ISZERO PUSH2 0x1834 JUMPI PUSH2 0x1801 DUP2 PUSH2 0x16CC JUMP JUMPDEST PUSH2 0x180A DUP4 PUSH2 0x16DE JUMP JUMPDEST PUSH2 0x1813 DUP6 PUSH2 0x16DE JUMP JUMPDEST PUSH1 0x20 DUP7 LT ISZERO PUSH2 0x1820 JUMPI PUSH0 SWAP1 POP JUMPDEST DUP1 DUP4 ADD PUSH2 0x182F DUP3 DUP5 SUB DUP3 PUSH2 0x17C1 JUMP JUMPDEST POP POP POP POP JUMPDEST JUMPDEST POP POP POP JUMP JUMPDEST PUSH0 DUP3 DUP3 SHR SWAP1 POP SWAP3 SWAP2 POP POP JUMP JUMPDEST PUSH0 PUSH2 0x1855 PUSH0 NOT DUP5 PUSH1 0x8 MUL PUSH2 0x183A JUMP JUMPDEST NOT DUP1 DUP4 AND SWAP2 POP POP SWAP3 SWAP2 POP POP JUMP JUMPDEST PUSH0 PUSH2 0x186D DUP4 DUP4 PUSH2 0x1846 JUMP JUMPDEST SWAP2 POP DUP3 PUSH1 0x2 MUL DUP3 OR SWAP1 POP SWAP3 SWAP2 POP POP JUMP JUMPDEST PUSH2 0x1886 DUP3 PUSH2 0x1107 JUMP JUMPDEST PUSH8 0xFFFFFFFFFFFFFFFF DUP2 GT ISZERO PUSH2 0x189F JUMPI PUSH2 0x189E PUSH2 0x11C7 JUMP JUMPDEST JUMPDEST PUSH2 0x18A9 DUP3 SLOAD PUSH2 0x1494 JUMP JUMPDEST PUSH2 0x18B4 DUP3 DUP3 DUP6 PUSH2 0x17E7 JUMP JUMPDEST PUSH0 PUSH1 0x20 SWAP1 POP PUSH1 0x1F DUP4 GT PUSH1 0x1 DUP2 EQ PUSH2 0x18E5 JUMPI PUSH0 DUP5 ISZERO PUSH2 0x18D3 JUMPI DUP3 DUP8 ADD MLOAD SWAP1 POP JUMPDEST PUSH2 0x18DD DUP6 DUP3 PUSH2 0x1862 JUMP JUMPDEST DUP7 SSTORE POP PUSH2 0x1944 JUMP JUMPDEST PUSH1 0x1F NOT DUP5 AND PUSH2 0x18F3 DUP7 PUSH2 0x16CC JUMP JUMPDEST PUSH0 JUMPDEST DUP3 DUP2 LT ISZERO PUSH2 0x191A JUMPI DUP5 DUP10 ADD MLOAD DUP3 SSTORE PUSH1 0x1 DUP3 ADD SWAP2 POP PUSH1 0x20 DUP6 ADD SWAP5 POP PUSH1 0x20 DUP2 ADD SWAP1 POP PUSH2 0x18F5 JUMP JUMPDEST DUP7 DUP4 LT ISZERO PUSH2 0x1937 JUMPI DUP5 DUP10 ADD MLOAD PUSH2 0x1933 PUSH1 0x1F DUP10 AND DUP3 PUSH2 0x1846 JUMP JUMPDEST DUP4 SSTORE POP JUMPDEST PUSH1 0x1 PUSH1 0x2 DUP9 MUL ADD DUP9 SSTORE POP POP POP JUMPDEST POP POP POP POP POP POP JUMP JUMPDEST PUSH0 PUSH1 0x40 DUP3 ADD SWAP1 POP DUP2 DUP2 SUB PUSH0 DUP4 ADD MSTORE PUSH2 0x1964 DUP2 DUP6 PUSH2 0x113F JUMP JUMPDEST SWAP1 POP PUSH2 0x1973 PUSH1 0x20 DUP4 ADD DUP5 PUSH2 0x10DF JUMP JUMPDEST SWAP4 SWAP3 POP POP POP JUMP JUMPDEST PUSH32 0x4F6E6C79206120726567697374657265642070617469656E742063616E206361 PUSH0 DUP3 ADD MSTORE PUSH32 0x6C6C000000000000000000000000000000000000000000000000000000000000 PUSH1 0x20 DUP3 ADD MSTORE POP JUMP JUMPDEST PUSH0 PUSH2 0x19D4 PUSH1 0x22 DUP4 PUSH2 0x1111 JUMP JUMPDEST SWAP2 POP PUSH2 0x19DF DUP3 PUSH2 0x197A JUMP JUMPDEST PUSH1 0x40 DUP3 ADD SWAP1 POP SWAP2 SWAP1 POP JUMP JUMPDEST PUSH0 PUSH1 0x20 DUP3 ADD SWAP1 POP DUP2 DUP2 SUB PUSH0 DUP4 ADD MSTORE PUSH2 0x1A01 DUP2 PUSH2 0x19C8 JUMP JUMPDEST SWAP1 POP SWAP2 SWAP1 POP JUMP JUMPDEST PUSH32 0x486173682063616E6E6F7420626520656D707479000000000000000000000000 PUSH0 DUP3 ADD MSTORE POP JUMP JUMPDEST PUSH0 PUSH2 0x1A3C PUSH1 0x14 DUP4 PUSH2 0x1111 JUMP JUMPDEST SWAP2 POP PUSH2 0x1A47 DUP3 PUSH2 0x1A08 JUMP JUMPDEST PUSH1 0x20 DUP3 ADD SWAP1 POP SWAP2 SWAP1 POP JUMP JUMPDEST PUSH0 PUSH1 0x20 DUP3 ADD SWAP1 POP DUP2 DUP2 SUB PUSH0 DUP4 ADD MSTORE PUSH2 0x1A69 DUP2 PUSH2 0x1A30 JUMP JUMPDEST SWAP1 POP SWAP2 SWAP1 POP JUMP JUMPDEST PUSH32 0x496E76616C69642064656C656761746520616464726573730000000000000000 PUSH0 DUP3 ADD MSTORE POP JUMP JUMPDEST PUSH0 PUSH2 0x1AA4 PUSH1 0x18 DUP4 PUSH2 0x1111 JUMP JUMPDEST SWAP2 POP PUSH2 0x1AAF DUP3 PUSH2 0x1A70 JUMP JUMPDEST PUSH1 0x20 DUP3 ADD SWAP1 POP SWAP2 SWAP1 POP JUMP JUMPDEST PUSH0 PUSH1 0x20 DUP3 ADD SWAP1 POP DUP2 DUP2 SUB PUSH0 DUP4 ADD MSTORE PUSH2 0x1AD1 DUP2 PUSH2 0x1A98 JUMP JUMPDEST SWAP1 POP SWAP2 SWAP1 POP JUMP JUMPDEST PUSH32 0x43616E6E6F7420636F6E73656E7420746F20796F757273656C66000000000000 PUSH0 DUP3 ADD MSTORE POP JUMP JUMPDEST PUSH0 PUSH2 0x1B0C PUSH1 0x1A DUP4 PUSH2 0x1111 JUMP JUMPDEST SWAP2 POP PUSH2 0x1B17 DUP3 PUSH2 0x1AD8 JUMP JUMPDEST PUSH1 0x20 DUP3 ADD SWAP1 POP SWAP2 SWAP1 POP JUMP JUMPDEST PUSH0 PUSH1 0x20 DUP3 ADD SWAP1 POP DUP2 DUP2 SUB PUSH0 DUP4 ADD MSTORE PUSH2 0x1B39 DUP2 PUSH2 0x1B00 JUMP JUMPDEST SWAP1 POP SWAP2 SWAP1 POP JUMP JUMPDEST PUSH32 0x4E487B7100000000000000000000000000000000000000000000000000000000 PUSH0 MSTORE PUSH1 0x11 PUSH1 0x4 MSTORE PUSH1 0x24 PUSH0 REVERT JUMPDEST PUSH0 PUSH2 0x1B77 DUP3 PUSH2 0x10D6 JUMP JUMPDEST SWAP2 POP PUSH2 0x1B82 DUP4 PUSH2 0x10D6 JUMP JUMPDEST SWAP3 POP DUP3 DUP3 MUL PUSH2 0x1B90 DUP2 PUSH2 0x10D6 JUMP JUMPDEST SWAP2 POP DUP3 DUP3 DIV DUP5 EQ DUP4 ISZERO OR PUSH2 0x1BA7 JUMPI PUSH2 0x1BA6 PUSH2 0x1B40 JUMP JUMPDEST JUMPDEST POP SWAP3 SWAP2 POP POP JUMP JUMPDEST PUSH0 PUSH2 0x1BB8 DUP3 PUSH2 0x10D6 JUMP JUMPDEST SWAP2 POP PUSH2 0x1BC3 DUP4 PUSH2 0x10D6 JUMP JUMPDEST SWAP3 POP DUP3 DUP3 ADD SWAP1 POP DUP1 DUP3 GT ISZERO PUSH2 0x1BDB JUMPI PUSH2 0x1BDA PUSH2 0x1B40 JUMP JUMPDEST JUMPDEST SWAP3 SWAP2 POP POP JUMP JUMPDEST PUSH32 0x4E6F2061637469766520636F6E73656E7420746F207265766F6B650000000000 PUSH0 DUP3 ADD MSTORE POP JUMP JUMPDEST PUSH0 PUSH2 0x1C15 PUSH1 0x1B DUP4 PUSH2 0x1111 JUMP JUMPDEST SWAP2 POP PUSH2 0x1C20 DUP3 PUSH2 0x1BE1 JUMP JUMPDEST PUSH1 0x20 DUP3 ADD SWAP1 POP SWAP2 SWAP1 POP JUMP JUMPDEST PUSH0 PUSH1 0x20 DUP3 ADD SWAP1 POP DUP2 DUP2 SUB PUSH0 DUP4 ADD MSTORE PUSH2 0x1C42 DUP2 PUSH2 0x1C09 JUMP JUMPDEST SWAP1 POP SWAP2 SWAP1 POP JUMP INVALID LOG2 PUSH5 0x6970667358 0x22 SLT KECCAK256 CREATE 0xE 0xB0 0xB8 DUP2 0xB0 MLOAD ISZERO CALL 0xB3 PUSH8 0xC310C261EC696A1F PUSH0 0xB8 0x2A 0xC3 0xD0 0x2B EXTSTATICCALL 0xB1 SWAPN 0x7D 0xAC GASLIMIT 0xCE PUSH5 0x736F6C6343 STOP ADDMOD 0x22 STOP CALLER "
				},
				"gasEstimates": {
					"creation": {
						"codeDepositCost": "1459000",
						"executionCost": "infinite",
						"totalCost": "infinite"
					},
					"external": {
						"DEFAULT_CONSENT_DURATION()": "348",
						"getConsentDetails(address,address)": "infinite",
						"grantConsent(address,uint256)": "infinite",
						"hasValidConsent(address,address)": "infinite",
						"isRegisteredPatient(address)": "2834",
						"patientMetadata(address)": "infinite",
						"registerPatient(address,string)": "infinite",
						"registryAdmin()": "2575",
						"revokeConsent(address)": "83083",
						"updateMetadata(string)": "infinite"
					}
				},
				"methodIdentifiers": {
					"DEFAULT_CONSENT_DURATION()": "55ab139c",
					"getConsentDetails(address,address)": "c5e4892d",
					"grantConsent(address,uint256)": "9d15e77f",
					"hasValidConsent(address,address)": "a6d41f33",
					"isRegisteredPatient(address)": "3c4f7a9d",
					"patientMetadata(address)": "614363de",
					"registerPatient(address,string)": "8048c2f0",
					"registryAdmin()": "74c16b23",
					"revokeConsent(address)": "d1a48627",
					"updateMetadata(string)": "918b5be1"
				}
			},
			"storageLayout": {
				"storage": [
					{
						"astId": 5,
						"contract": "contracts/PatientIdentityAndConsent.sol:PatientIdentityAndConsent",
						"label": "_guardStatus",
						"offset": 0,
						"slot": "0",
						"type": "t_uint256"
					},
					{
						"astId": 35,
						"contract": "contracts/PatientIdentityAndConsent.sol:PatientIdentityAndConsent",
						"label": "registryAdmin",
						"offset": 0,
						"slot": "1",
						"type": "t_address"
					},
					{
						"astId": 39,
						"contract": "contracts/PatientIdentityAndConsent.sol:PatientIdentityAndConsent",
						"label": "isRegisteredPatient",
						"offset": 0,
						"slot": "2",
						"type": "t_mapping(t_address,t_bool)"
					},
					{
						"astId": 43,
						"contract": "contracts/PatientIdentityAndConsent.sol:PatientIdentityAndConsent",
						"label": "patientMetadata",
						"offset": 0,
						"slot": "3",
						"type": "t_mapping(t_address,t_string_storage)"
					},
					{
						"astId": 50,
						"contract": "contracts/PatientIdentityAndConsent.sol:PatientIdentityAndConsent",
						"label": "_consentRecords",
						"offset": 0,
						"slot": "4",
						"type": "t_mapping(t_address,t_mapping(t_address,t_struct(ConsentRecord)33_storage))"
					}
				],
				"types": {
					"t_address": {
						"encoding": "inplace",
						"label": "address",
						"numberOfBytes": "20"
					},
					"t_bool": {
						"encoding": "inplace",
						"label": "bool",
						"numberOfBytes": "1"
					},
					"t_mapping(t_address,t_bool)": {
						"encoding": "mapping",
						"key": "t_address",
						"label": "mapping(address => bool)",
						"numberOfBytes": "32",
						"value": "t_bool"
					},
					"t_mapping(t_address,t_mapping(t_address,t_struct(ConsentRecord)33_storage))": {
						"encoding": "mapping",
						"key": "t_address",
						"label": "mapping(address => mapping(address => struct PatientIdentityAndConsent.ConsentRecord))",
						"numberOfBytes": "32",
						"value": "t_mapping(t_address,t_struct(ConsentRecord)33_storage)"
					},
					"t_mapping(t_address,t_string_storage)": {
						"encoding": "mapping",
						"key": "t_address",
						"label": "mapping(address => string)",
						"numberOfBytes": "32",
						"value": "t_string_storage"
					},
					"t_mapping(t_address,t_struct(ConsentRecord)33_storage)": {
						"encoding": "mapping",
						"key": "t_address",
						"label": "mapping(address => struct PatientIdentityAndConsent.ConsentRecord)",
						"numberOfBytes": "32",
						"value": "t_struct(ConsentRecord)33_storage"
					},
					"t_string_storage": {
						"encoding": "bytes",
						"label": "string",
						"numberOfBytes": "32"
					},
					"t_struct(ConsentRecord)33_storage": {
						"encoding": "inplace",
						"label": "struct PatientIdentityAndConsent.ConsentRecord",
						"members": [
							{
								"astId": 30,
								"contract": "contracts/PatientIdentityAndConsent.sol:PatientIdentityAndConsent",
								"label": "granted",
								"offset": 0,
								"slot": "0",
								"type": "t_bool"
							},
							{
								"astId": 32,
								"contract": "contracts/PatientIdentityAndConsent.sol:PatientIdentityAndConsent",
								"label": "expiresAt",
								"offset": 0,
								"slot": "1",
								"type": "t_uint256"
							}
						],
						"numberOfBytes": "64"
					},
					"t_uint256": {
						"encoding": "inplace",
						"label": "uint256",
						"numberOfBytes": "32"
					}
				}
			},
			"userdoc": {
				"kind": "user",
				"methods": {
					"getConsentDetails(address,address)": {
						"notice": "Returns the full consent details for a patient-delegate pair.         Used by the frontend to show expiry date in the dashboard."
					},
					"grantConsent(address,uint256)": {
						"notice": "Grant consent to a delegate (doctor / hospital / insurer) with         a custom duration in days.  Pass 0 to use the default 365 days."
					},
					"hasValidConsent(address,address)": {
						"notice": "Primary cross-contract consent check.         Returns true only if consent is granted AND not expired."
					},
					"registerPatient(address,string)": {
						"notice": "Register a new patient.  Only the registry admin calls this         (e.g., hospital onboarding desk)."
					},
					"revokeConsent(address)": {
						"notice": "Revoke consent from a delegate immediately."
					},
					"updateMetadata(string)": {
						"notice": "Patient updates their own metadata IPFS hash."
					}
				},
				"version": 1
			}
		}
	}
}