{
	"contracts/MedicalRecordsAndAccess.sol": {
		"MedicalRecordsAndAccess": {
			"abi": [
				{
					"inputs": [
						{
							"internalType": "address",
							"name": "_identityContract",
							"type": "address"
						}
					],
					"stateMutability": "nonpayable",
					"type": "constructor"
				},
				{
					"anonymous": false,
					"inputs": [
						{
							"indexed": true,
							"internalType": "uint256",
							"name": "recordId",
							"type": "uint256"
						},
						{
							"indexed": true,
							"internalType": "address",
							"name": "patient",
							"type": "address"
						},
						{
							"indexed": true,
							"internalType": "address",
							"name": "accessedBy",
							"type": "address"
						},
						{
							"indexed": false,
							"internalType": "string",
							"name": "accessorRole",
							"type": "string"
						},
						{
							"indexed": false,
							"internalType": "uint256",
							"name": "timestamp",
							"type": "uint256"
						}
					],
					"name": "RecordAccessed",
					"type": "event"
				},
				{
					"anonymous": false,
					"inputs": [
						{
							"indexed": true,
							"internalType": "uint256",
							"name": "recordId",
							"type": "uint256"
						},
						{
							"indexed": true,
							"internalType": "address",
							"name": "patient",
							"type": "address"
						},
						{
							"indexed": true,
							"internalType": "address",
							"name": "uploadedBy",
							"type": "address"
						},
						{
							"indexed": false,
							"internalType": "string",
							"name": "ipfsHash",
							"type": "string"
						},
						{
							"indexed": false,
							"internalType": "string",
							"name": "recordType",
							"type": "string"
						},
						{
							"indexed": false,
							"internalType": "uint256",
							"name": "version",
							"type": "uint256"
						},
						{
							"indexed": false,
							"internalType": "uint256",
							"name": "timestamp",
							"type": "uint256"
						}
					],
					"name": "RecordAdded",
					"type": "event"
				},
				{
					"inputs": [
						{
							"internalType": "address",
							"name": "patient",
							"type": "address"
						},
						{
							"internalType": "string",
							"name": "ipfsHash",
							"type": "string"
						},
						{
							"internalType": "string",
							"name": "recordType",
							"type": "string"
						}
					],
					"name": "addMedicalRecord",
					"outputs": [],
					"stateMutability": "nonpayable",
					"type": "function"
				},
				{
					"inputs": [
						{
							"internalType": "address",
							"name": "patient",
							"type": "address"
						}
					],
					"name": "getLatestVersion",
					"outputs": [
						{
							"internalType": "uint256",
							"name": "",
							"type": "uint256"
						}
					],
					"stateMutability": "view",
					"type": "function"
				},
				{
					"inputs": [
						{
							"internalType": "address",
							"name": "patient",
							"type": "address"
						}
					],
					"name": "getRecordCount",
					"outputs": [
						{
							"internalType": "uint256",
							"name": "",
							"type": "uint256"
						}
					],
					"stateMutability": "view",
					"type": "function"
				},
				{
					"inputs": [
						{
							"internalType": "address",
							"name": "patient",
							"type": "address"
						}
					],
					"name": "getRecordsByPatient",
					"outputs": [
						{
							"internalType": "uint256[]",
							"name": "",
							"type": "uint256[]"
						}
					],
					"stateMutability": "view",
					"type": "function"
				},
				{
					"inputs": [],
					"name": "identityContract",
					"outputs": [
						{
							"internalType": "contract IPatientConsent",
							"name": "",
							"type": "address"
						}
					],
					"stateMutability": "view",
					"type": "function"
				},
				{
					"inputs": [
						{
							"internalType": "uint256",
							"name": "",
							"type": "uint256"
						}
					],
					"name": "medicalRecords",
					"outputs": [
						{
							"internalType": "uint256",
							"name": "recordId",
							"type": "uint256"
						},
						{
							"internalType": "address",
							"name": "patient",
							"type": "address"
						},
						{
							"internalType": "address",
							"name": "uploadedBy",
							"type": "address"
						},
						{
							"internalType": "string",
							"name": "ipfsHash",
							"type": "string"
						},
						{
							"internalType": "string",
							"name": "recordType",
							"type": "string"
						},
						{
							"internalType": "uint256",
							"name": "version",
							"type": "uint256"
						},
						{
							"internalType": "uint256",
							"name": "timestamp",
							"type": "uint256"
						}
					],
					"stateMutability": "view",
					"type": "function"
				},
				{
					"inputs": [
						{
							"internalType": "address",
							"name": "",
							"type": "address"
						}
					],
					"name": "patientRecordVersion",
					"outputs": [
						{
							"internalType": "uint256",
							"name": "",
							"type": "uint256"
						}
					],
					"stateMutability": "view",
					"type": "function"
				},
				{
					"inputs": [],
					"name": "recordCount",
					"outputs": [
						{
							"internalType": "uint256",
							"name": "",
							"type": "uint256"
						}
					],
					"stateMutability": "view",
					"type": "function"
				},
				{
					"inputs": [
						{
							"internalType": "uint256",
							"name": "recordId",
							"type": "uint256"
						},
						{
							"internalType": "string",
							"name": "accessorRole",
							"type": "string"
						}
					],
					"name": "viewMedicalRecord",
					"outputs": [
						{
							"internalType": "string",
							"name": "ipfsHash",
							"type": "string"
						}
					],
					"stateMutability": "nonpayable",
					"type": "function"
				}
			],
			"devdoc": {
				"kind": "dev",
				"methods": {
					"addMedicalRecord(address,string,string)": {
						"params": {
							"ipfsHash": "IPFS CID of the AES-256 encrypted record",
							"patient": "Patient's address",
							"recordType": "Human-readable type string (\"LAB_REPORT\", \"PRESCRIPTION\", etc.)"
						}
					},
					"getRecordsByPatient(address)": {
						"params": {
							"patient": "Patient's address"
						}
					},
					"viewMedicalRecord(uint256,string)": {
						"params": {
							"accessorRole": "Human-readable role label (passed by caller for the audit log)",
							"recordId": "The global record ID"
						},
						"returns": {
							"ipfsHash": "    IPFS CID of the encrypted record"
						}
					}
				},
				"version": 1
			},
			"evm": {
				"assembly": "    /* \"contracts/MedicalRecordsAndAccess.sol\":1983:9854  contract MedicalRecordsAndAccess is ReentrancyGuard {... */\n  mstore(0x40, 0x80)\n    /* \"contracts/MedicalRecordsAndAccess.sol\":1575:1576  1 */\n  0x01\n    /* \"contracts/MedicalRecordsAndAccess.sol\":1544:1576  uint256 private _guardStatus = 1 */\n  0x00\n  sstore\n    /* \"contracts/MedicalRecordsAndAccess.sol\":5629:5825  constructor(address _identityContract) {... */\n  callvalue\n  dup1\n  iszero\n  tag_1\n  jumpi\n  revert(0x00, 0x00)\ntag_1:\n  pop\n  mload(0x40)\n  sub(codesize, bytecodeSize)\n  dup1\n  bytecodeSize\n  dup4\n  codecopy\n  dup2\n  dup2\n  add\n  0x40\n  mstore\n  dup2\n  add\n  swap1\n  tag_2\n  swap2\n  swap1\n  tag_3\n  jump\t// in\ntag_2:\n    /* \"contracts/MedicalRecordsAndAccess.sol\":5715:5716  0 */\n  0x00\n    /* \"contracts/MedicalRecordsAndAccess.sol\":5686:5717  _identityContract != address(0) */\n  0xffffffffffffffffffffffffffffffffffffffff\n  and\n    /* \"contracts/MedicalRecordsAndAccess.sol\":5686:5703  _identityContract */\n  dup2\n    /* \"contracts/MedicalRecordsAndAccess.sol\":5686:5717  _identityContract != address(0) */\n  0xffffffffffffffffffffffffffffffffffffffff\n  and\n  sub\n    /* \"contracts/MedicalRecordsAndAccess.sol\":5678:5755  require(_identityContract != address(0), \"Invalid identity contract address\") */\n  tag_6\n  jumpi\n  mload(0x40)\n  0x08c379a000000000000000000000000000000000000000000000000000000000\n  dup2\n  mstore\n  0x04\n  add\n  tag_7\n  swap1\n  tag_8\n  jump\t// in\ntag_7:\n  mload(0x40)\n  dup1\n  swap2\n  sub\n  swap1\n  revert\ntag_6:\n    /* \"contracts/MedicalRecordsAndAccess.sol\":5800:5817  _identityContract */\n  dup1\n    /* \"contracts/MedicalRecordsAndAccess.sol\":5765:5781  identityContract */\n  0x01\n  0x00\n    /* \"contracts/MedicalRecordsAndAccess.sol\":5765:5818  identityContract = IPatientConsent(_identityContract) */\n  0x0100\n  exp\n  dup2\n  sload\n  dup2\n  0xffffffffffffffffffffffffffffffffffffffff\n  mul\n  not\n  and\n  swap1\n  dup4\n  0xffffffffffffffffffffffffffffffffffffffff\n  and\n  mul\n  or\n  swap1\n  sstore\n  pop\n    /* \"contracts/MedicalRecordsAndAccess.sol\":5629:5825  constructor(address _identityContract) {... */\n  pop\n    /* \"contracts/MedicalRecordsAndAccess.sol\":1983:9854  contract MedicalRecordsAndAccess is ReentrancyGuard {... */\n  jump(tag_9)\n    /* \"#utility.yul\":88:205   */\ntag_11:\n    /* \"#utility.yul\":197:198   */\n  0x00\n    /* \"#utility.yul\":194:195   */\n  0x00\n    /* \"#utility.yul\":187:199   */\n  revert\n    /* \"#utility.yul\":334:460   */\ntag_13:\n    /* \"#utility.yul\":371:378   */\n  0x00\n    /* \"#utility.yul\":411:453   */\n  0xffffffffffffffffffffffffffffffffffffffff\n    /* \"#utility.yul\":404:409   */\n  dup3\n    /* \"#utility.yul\":400:454   */\n  and\n    /* \"#utility.yul\":389:454   */\n  swap1\n  pop\n    /* \"#utility.yul\":334:460   */\n  swap2\n  swap1\n  pop\n  jump\t// out\n    /* \"#utility.yul\":466:562   */\ntag_14:\n    /* \"#utility.yul\":503:510   */\n  0x00\n    /* \"#utility.yul\":532:556   */\n  tag_26\n    /* \"#utility.yul\":550:555   */\n  dup3\n    /* \"#utility.yul\":532:556   */\n  tag_13\n  jump\t// in\ntag_26:\n    /* \"#utility.yul\":521:556   */\n  swap1\n  pop\n    /* \"#utility.yul\":466:562   */\n  swap2\n  swap1\n  pop\n  jump\t// out\n    /* \"#utility.yul\":568:690   */\ntag_15:\n    /* \"#utility.yul\":641:665   */\n  tag_28\n    /* \"#utility.yul\":659:664   */\n  dup2\n    /* \"#utility.yul\":641:665   */\n  tag_14\n  jump\t// in\ntag_28:\n    /* \"#utility.yul\":634:639   */\n  dup2\n    /* \"#utility.yul\":631:666   */\n  eq\n    /* \"#utility.yul\":621:684   */\n  tag_29\n  jumpi\n    /* \"#utility.yul\":680:681   */\n  0x00\n    /* \"#utility.yul\":677:678   */\n  0x00\n    /* \"#utility.yul\":670:682   */\n  revert\n    /* \"#utility.yul\":621:684   */\ntag_29:\n    /* \"#utility.yul\":568:690   */\n  pop\n  jump\t// out\n    /* \"#utility.yul\":696:839   */\ntag_16:\n    /* \"#utility.yul\":753:758   */\n  0x00\n    /* \"#utility.yul\":784:790   */\n  dup2\n    /* \"#utility.yul\":778:791   */\n  mload\n    /* \"#utility.yul\":769:791   */\n  swap1\n  pop\n    /* \"#utility.yul\":800:833   */\n  tag_31\n    /* \"#utility.yul\":827:832   */\n  dup2\n    /* \"#utility.yul\":800:833   */\n  tag_15\n  jump\t// in\ntag_31:\n    /* \"#utility.yul\":696:839   */\n  swap3\n  swap2\n  pop\n  pop\n  jump\t// out\n    /* \"#utility.yul\":845:1196   */\ntag_3:\n    /* \"#utility.yul\":915:921   */\n  0x00\n    /* \"#utility.yul\":964:966   */\n  0x20\n    /* \"#utility.yul\":952:961   */\n  dup3\n    /* \"#utility.yul\":943:950   */\n  dup5\n    /* \"#utility.yul\":939:962   */\n  sub\n    /* \"#utility.yul\":935:967   */\n  slt\n    /* \"#utility.yul\":932:1051   */\n  iszero\n  tag_33\n  jumpi\n    /* \"#utility.yul\":970:1049   */\n  tag_34\n  tag_11\n  jump\t// in\ntag_34:\n    /* \"#utility.yul\":932:1051   */\ntag_33:\n    /* \"#utility.yul\":1090:1091   */\n  0x00\n    /* \"#utility.yul\":1115:1179   */\n  tag_35\n    /* \"#utility.yul\":1171:1178   */\n  dup5\n    /* \"#utility.yul\":1162:1168   */\n  dup3\n    /* \"#utility.yul\":1151:1160   */\n  dup6\n    /* \"#utility.yul\":1147:1169   */\n  add\n    /* \"#utility.yul\":1115:1179   */\n  tag_16\n  jump\t// in\ntag_35:\n    /* \"#utility.yul\":1105:1179   */\n  swap2\n  pop\n    /* \"#utility.yul\":1061:1189   */\n  pop\n    /* \"#utility.yul\":845:1196   */\n  swap3\n  swap2\n  pop\n  pop\n  jump\t// out\n    /* \"#utility.yul\":1202:1371   */\ntag_17:\n    /* \"#utility.yul\":1286:1297   */\n  0x00\n    /* \"#utility.yul\":1320:1326   */\n  dup3\n    /* \"#utility.yul\":1315:1318   */\n  dup3\n    /* \"#utility.yul\":1308:1327   */\n  mstore\n    /* \"#utility.yul\":1360:1364   */\n  0x20\n    /* \"#utility.yul\":1355:1358   */\n  dup3\n    /* \"#utility.yul\":1351:1365   */\n  add\n    /* \"#utility.yul\":1336:1365   */\n  swap1\n  pop\n    /* \"#utility.yul\":1202:1371   */\n  swap3\n  swap2\n  pop\n  pop\n  jump\t// out\n    /* \"#utility.yul\":1377:1597   */\ntag_18:\n    /* \"#utility.yul\":1517:1551   */\n  0x496e76616c6964206964656e7469747920636f6e747261637420616464726573\n    /* \"#utility.yul\":1513:1514   */\n  0x00\n    /* \"#utility.yul\":1505:1511   */\n  dup3\n    /* \"#utility.yul\":1501:1515   */\n  add\n    /* \"#utility.yul\":1494:1552   */\n  mstore\n    /* \"#utility.yul\":1586:1589   */\n  0x7300000000000000000000000000000000000000000000000000000000000000\n    /* \"#utility.yul\":1581:1583   */\n  0x20\n    /* \"#utility.yul\":1573:1579   */\n  dup3\n    /* \"#utility.yul\":1569:1584   */\n  add\n    /* \"#utility.yul\":1562:1590   */\n  mstore\n    /* \"#utility.yul\":1377:1597   */\n  pop\n  jump\t// out\n    /* \"#utility.yul\":1603:1969   */\ntag_19:\n    /* \"#utility.yul\":1745:1748   */\n  0x00\n    /* \"#utility.yul\":1766:1833   */\n  tag_39\n    /* \"#utility.yul\":1830:1832   */\n  0x21\n    /* \"#utility.yul\":1825:1828   */\n  dup4\n    /* \"#utility.yul\":1766:1833   */\n  tag_17\n  jump\t// in\ntag_39:\n    /* \"#utility.yul\":1759:1833   */\n  swap2\n  pop\n    /* \"#utility.yul\":1842:1935   */\n  tag_40\n    /* \"#utility.yul\":1931:1934   */\n  dup3\n    /* \"#utility.yul\":1842:1935   */\n  tag_18\n  jump\t// in\ntag_40:\n    /* \"#utility.yul\":1960:1962   */\n  0x40\n    /* \"#utility.yul\":1955:1958   */\n  dup3\n    /* \"#utility.yul\":1951:1963   */\n  add\n    /* \"#utility.yul\":1944:1963   */\n  swap1\n  pop\n    /* \"#utility.yul\":1603:1969   */\n  swap2\n  swap1\n  pop\n  jump\t// out\n    /* \"#utility.yul\":1975:2394   */\ntag_8:\n    /* \"#utility.yul\":2141:2145   */\n  0x00\n    /* \"#utility.yul\":2179:2181   */\n  0x20\n    /* \"#utility.yul\":2168:2177   */\n  dup3\n    /* \"#utility.yul\":2164:2182   */\n  add\n    /* \"#utility.yul\":2156:2182   */\n  swap1\n  pop\n    /* \"#utility.yul\":2228:2237   */\n  dup2\n    /* \"#utility.yul\":2222:2226   */\n  dup2\n    /* \"#utility.yul\":2218:2238   */\n  sub\n    /* \"#utility.yul\":2214:2215   */\n  0x00\n    /* \"#utility.yul\":2203:2212   */\n  dup4\n    /* \"#utility.yul\":2199:2216   */\n  add\n    /* \"#utility.yul\":2192:2239   */\n  mstore\n    /* \"#utility.yul\":2256:2387   */\n  tag_42\n    /* \"#utility.yul\":2382:2386   */\n  dup2\n    /* \"#utility.yul\":2256:2387   */\n  tag_19\n  jump\t// in\ntag_42:\n    /* \"#utility.yul\":2248:2387   */\n  swap1\n  pop\n    /* \"#utility.yul\":1975:2394   */\n  swap2\n  swap1\n  pop\n  jump\t// out\n    /* \"contracts/MedicalRecordsAndAccess.sol\":1983:9854  contract MedicalRecordsAndAccess is ReentrancyGuard {... */\ntag_9:\n  dataSize(sub_0)\n  dup1\n  dataOffset(sub_0)\n  0x00\n  codecopy\n  0x00\n  return\nstop\n\nsub_0: assembly {\n        /* \"contracts/MedicalRecordsAndAccess.sol\":1983:9854  contract MedicalRecordsAndAccess is ReentrancyGuard {... */\n      mstore(0x40, 0x80)\n      callvalue\n      dup1\n      iszero\n      tag_1\n      jumpi\n      revert(0x00, 0x00)\n    tag_1:\n      pop\n      jumpi(tag_2, lt(calldatasize, 0x04))\n      shr(0xe0, calldataload(0x00))\n      dup1\n      0x7564a13c\n      gt\n      tag_12\n      jumpi\n      dup1\n      0x7564a13c\n      eq\n      tag_7\n      jumpi\n      dup1\n      0x900407bc\n      eq\n      tag_8\n      jumpi\n      dup1\n      0xaa0ced90\n      eq\n      tag_9\n      jumpi\n      dup1\n      0xae68e776\n      eq\n      tag_10\n      jumpi\n      dup1\n      0xb1e75df9\n      eq\n      tag_11\n      jumpi\n      jump(tag_2)\n    tag_12:\n      dup1\n      0x50abe910\n      eq\n      tag_3\n      jumpi\n      dup1\n      0x58214308\n      eq\n      tag_4\n      jumpi\n      dup1\n      0x63fc6040\n      eq\n      tag_5\n      jumpi\n      dup1\n      0x67031bae\n      eq\n      tag_6\n      jumpi\n    tag_2:\n      revert(0x00, 0x00)\n        /* \"contracts/MedicalRecordsAndAccess.sol\":9724:9852  function getLatestVersion(address patient) external view returns (uint256) {... */\n    tag_3:\n      tag_13\n      0x04\n      dup1\n      calldatasize\n      sub\n      dup2\n      add\n      swap1\n      tag_14\n      swap2\n      swap1\n      tag_15\n      jump\t// in\n    tag_14:\n      tag_16\n      jump\t// in\n    tag_13:\n      mload(0x40)\n      tag_17\n      swap2\n      swap1\n      tag_18\n      jump\t// in\n    tag_17:\n      mload(0x40)\n      dup1\n      swap2\n      sub\n      swap1\n      return\n        /* \"contracts/MedicalRecordsAndAccess.sol\":9422:9552  function getRecordCount(address patient) external view returns (uint256) {... */\n    tag_4:\n      tag_19\n      0x04\n      dup1\n      calldatasize\n      sub\n      dup2\n      add\n      swap1\n      tag_20\n      swap2\n      swap1\n      tag_15\n      jump\t// in\n    tag_20:\n      tag_21\n      jump\t// in\n    tag_19:\n      mload(0x40)\n      tag_22\n      swap2\n      swap1\n      tag_18\n      jump\t// in\n    tag_22:\n      mload(0x40)\n      dup1\n      swap2\n      sub\n      swap1\n      return\n        /* \"contracts/MedicalRecordsAndAccess.sol\":8406:8969  function viewMedicalRecord(uint256 recordId, string memory accessorRole)... */\n    tag_5:\n      tag_23\n      0x04\n      dup1\n      calldatasize\n      sub\n      dup2\n      add\n      swap1\n      tag_24\n      swap2\n      swap1\n      tag_25\n      jump\t// in\n    tag_24:\n      tag_26\n      jump\t// in\n    tag_23:\n      mload(0x40)\n      tag_27\n      swap2\n      swap1\n      tag_28\n      jump\t// in\n    tag_27:\n      mload(0x40)\n      dup1\n      swap2\n      sub\n      swap1\n      return\n        /* \"contracts/MedicalRecordsAndAccess.sol\":3229:3268  IPatientConsent public identityContract */\n    tag_6:\n      tag_29\n      tag_30\n      jump\t// in\n    tag_29:\n      mload(0x40)\n      tag_31\n      swap2\n      swap1\n      tag_32\n      jump\t// in\n    tag_31:\n      mload(0x40)\n      dup1\n      swap2\n      sub\n      swap1\n      return\n        /* \"contracts/MedicalRecordsAndAccess.sol\":3341:3396  mapping(uint256 => MedicalRecord) public medicalRecords */\n    tag_7:\n      tag_33\n      0x04\n      dup1\n      calldatasize\n      sub\n      dup2\n      add\n      swap1\n      tag_34\n      swap2\n      swap1\n      tag_35\n      jump\t// in\n    tag_34:\n      tag_36\n      jump\t// in\n    tag_33:\n      mload(0x40)\n      tag_37\n      swap8\n      swap7\n      swap6\n      swap5\n      swap4\n      swap3\n      swap2\n      swap1\n      tag_38\n      jump\t// in\n    tag_37:\n      mload(0x40)\n      dup1\n      swap2\n      sub\n      swap1\n      return\n        /* \"contracts/MedicalRecordsAndAccess.sol\":3275:3301  uint256 public recordCount */\n    tag_8:\n      tag_39\n      tag_40\n      jump\t// in\n    tag_39:\n      mload(0x40)\n      tag_41\n      swap2\n      swap1\n      tag_18\n      jump\t// in\n    tag_41:\n      mload(0x40)\n      dup1\n      swap2\n      sub\n      swap1\n      return\n        /* \"contracts/MedicalRecordsAndAccess.sol\":6563:7661  function addMedicalRecord(... */\n    tag_9:\n      tag_42\n      0x04\n      dup1\n      calldatasize\n      sub\n      dup2\n      add\n      swap1\n      tag_43\n      swap2\n      swap1\n      tag_44\n      jump\t// in\n    tag_43:\n      tag_45\n      jump\t// in\n    tag_42:\n      stop\n        /* \"contracts/MedicalRecordsAndAccess.sol\":9169:9334  function getRecordsByPatient(address patient)... */\n    tag_10:\n      tag_46\n      0x04\n      dup1\n      calldatasize\n      sub\n      dup2\n      add\n      swap1\n      tag_47\n      swap2\n      swap1\n      tag_15\n      jump\t// in\n    tag_47:\n      tag_48\n      jump\t// in\n    tag_46:\n      mload(0x40)\n      tag_49\n      swap2\n      swap1\n      tag_50\n      jump\t// in\n    tag_49:\n      mload(0x40)\n      dup1\n      swap2\n      sub\n      swap1\n      return\n        /* \"contracts/MedicalRecordsAndAccess.sol\":3567:3622  mapping(address => uint256) public patientRecordVersion */\n    tag_11:\n      tag_51\n      0x04\n      dup1\n      calldatasize\n      sub\n      dup2\n      add\n      swap1\n      tag_52\n      swap2\n      swap1\n      tag_15\n      jump\t// in\n    tag_52:\n      tag_53\n      jump\t// in\n    tag_51:\n      mload(0x40)\n      tag_54\n      swap2\n      swap1\n      tag_18\n      jump\t// in\n    tag_54:\n      mload(0x40)\n      dup1\n      swap2\n      sub\n      swap1\n      return\n        /* \"contracts/MedicalRecordsAndAccess.sol\":9724:9852  function getLatestVersion(address patient) external view returns (uint256) {... */\n    tag_16:\n        /* \"contracts/MedicalRecordsAndAccess.sol\":9790:9797  uint256 */\n      0x00\n        /* \"contracts/MedicalRecordsAndAccess.sol\":9816:9836  patientRecordVersion */\n      0x05\n        /* \"contracts/MedicalRecordsAndAccess.sol\":9816:9845  patientRecordVersion[patient] */\n      0x00\n        /* \"contracts/MedicalRecordsAndAccess.sol\":9837:9844  patient */\n      dup4\n        /* \"contracts/MedicalRecordsAndAccess.sol\":9816:9845  patientRecordVersion[patient] */\n      0xffffffffffffffffffffffffffffffffffffffff\n      and\n      0xffffffffffffffffffffffffffffffffffffffff\n      and\n      dup2\n      mstore\n      0x20\n      add\n      swap1\n      dup2\n      mstore\n      0x20\n      add\n      0x00\n      keccak256\n      sload\n        /* \"contracts/MedicalRecordsAndAccess.sol\":9809:9845  return patientRecordVersion[patient] */\n      swap1\n      pop\n        /* \"contracts/MedicalRecordsAndAccess.sol\":9724:9852  function getLatestVersion(address patient) external view returns (uint256) {... */\n      swap2\n      swap1\n      pop\n      jump\t// out\n        /* \"contracts/MedicalRecordsAndAccess.sol\":9422:9552  function getRecordCount(address patient) external view returns (uint256) {... */\n    tag_21:\n        /* \"contracts/MedicalRecordsAndAccess.sol\":9486:9493  uint256 */\n      0x00\n        /* \"contracts/MedicalRecordsAndAccess.sol\":9512:9529  _patientRecordIds */\n      0x04\n        /* \"contracts/MedicalRecordsAndAccess.sol\":9512:9538  _patientRecordIds[patient] */\n      0x00\n        /* \"contracts/MedicalRecordsAndAccess.sol\":9530:9537  patient */\n      dup4\n        /* \"contracts/MedicalRecordsAndAccess.sol\":9512:9538  _patientRecordIds[patient] */\n      0xffffffffffffffffffffffffffffffffffffffff\n      and\n      0xffffffffffffffffffffffffffffffffffffffff\n      and\n      dup2\n      mstore\n      0x20\n      add\n      swap1\n      dup2\n      mstore\n      0x20\n      add\n      0x00\n      keccak256\n        /* \"contracts/MedicalRecordsAndAccess.sol\":9512:9545  _patientRecordIds[patient].length */\n      dup1\n      sload\n      swap1\n      pop\n        /* \"contracts/MedicalRecordsAndAccess.sol\":9505:9545  return _patientRecordIds[patient].length */\n      swap1\n      pop\n        /* \"contracts/MedicalRecordsAndAccess.sol\":9422:9552  function getRecordCount(address patient) external view returns (uint256) {... */\n      swap2\n      swap1\n      pop\n      jump\t// out\n        /* \"contracts/MedicalRecordsAndAccess.sol\":8406:8969  function viewMedicalRecord(uint256 recordId, string memory accessorRole)... */\n    tag_26:\n        /* \"contracts/MedicalRecordsAndAccess.sol\":8513:8535  string memory ipfsHash */\n      0x60\n        /* \"contracts/MedicalRecordsAndAccess.sol\":8570:8571  0 */\n      0x00\n        /* \"contracts/MedicalRecordsAndAccess.sol\":8559:8567  recordId */\n      dup4\n        /* \"contracts/MedicalRecordsAndAccess.sol\":8559:8571  recordId > 0 */\n      gt\n        /* \"contracts/MedicalRecordsAndAccess.sol\":8559:8598  recordId > 0 && recordId <= recordCount */\n      dup1\n      iszero\n      tag_58\n      jumpi\n      pop\n        /* \"contracts/MedicalRecordsAndAccess.sol\":8587:8598  recordCount */\n      sload(0x02)\n        /* \"contracts/MedicalRecordsAndAccess.sol\":8575:8583  recordId */\n      dup4\n        /* \"contracts/MedicalRecordsAndAccess.sol\":8575:8598  recordId <= recordCount */\n      gt\n      iszero\n        /* \"contracts/MedicalRecordsAndAccess.sol\":8559:8598  recordId > 0 && recordId <= recordCount */\n    tag_58:\n        /* \"contracts/MedicalRecordsAndAccess.sol\":8551:8620  require(recordId > 0 && recordId <= recordCount, \"Invalid record ID\") */\n      tag_59\n      jumpi\n      mload(0x40)\n      0x08c379a000000000000000000000000000000000000000000000000000000000\n      dup2\n      mstore\n      0x04\n      add\n      tag_60\n      swap1\n      tag_61\n      jump\t// in\n    tag_60:\n      mload(0x40)\n      dup1\n      swap2\n      sub\n      swap1\n      revert\n    tag_59:\n        /* \"contracts/MedicalRecordsAndAccess.sol\":8631:8646  address patient */\n      0x00\n        /* \"contracts/MedicalRecordsAndAccess.sol\":8649:8663  medicalRecords */\n      0x03\n        /* \"contracts/MedicalRecordsAndAccess.sol\":8649:8673  medicalRecords[recordId] */\n      0x00\n        /* \"contracts/MedicalRecordsAndAccess.sol\":8664:8672  recordId */\n      dup6\n        /* \"contracts/MedicalRecordsAndAccess.sol\":8649:8673  medicalRecords[recordId] */\n      dup2\n      mstore\n      0x20\n      add\n      swap1\n      dup2\n      mstore\n      0x20\n      add\n      0x00\n      keccak256\n        /* \"contracts/MedicalRecordsAndAccess.sol\":8649:8681  medicalRecords[recordId].patient */\n      0x01\n      add\n      0x00\n      swap1\n      sload\n      swap1\n      0x0100\n      exp\n      swap1\n      div\n      0xffffffffffffffffffffffffffffffffffffffff\n      and\n        /* \"contracts/MedicalRecordsAndAccess.sol\":8631:8681  address patient = medicalRecords[recordId].patient */\n      swap1\n      pop\n        /* \"contracts/MedicalRecordsAndAccess.sol\":8712:8728  identityContract */\n      0x01\n      0x00\n      swap1\n      sload\n      swap1\n      0x0100\n      exp\n      swap1\n      div\n      0xffffffffffffffffffffffffffffffffffffffff\n      and\n        /* \"contracts/MedicalRecordsAndAccess.sol\":8712:8744  identityContract.hasValidConsent */\n      0xffffffffffffffffffffffffffffffffffffffff\n      and\n      0xa6d41f33\n        /* \"contracts/MedicalRecordsAndAccess.sol\":8745:8752  patient */\n      dup3\n        /* \"contracts/MedicalRecordsAndAccess.sol\":8754:8764  msg.sender */\n      caller\n        /* \"contracts/MedicalRecordsAndAccess.sol\":8712:8765  identityContract.hasValidConsent(patient, msg.sender) */\n      mload(0x40)\n      dup4\n      0xffffffff\n      and\n      0xe0\n      shl\n      dup2\n      mstore\n      0x04\n      add\n      tag_62\n      swap3\n      swap2\n      swap1\n      tag_63\n      jump\t// in\n    tag_62:\n      0x20\n      mload(0x40)\n      dup1\n      dup4\n      sub\n      dup2\n      dup7\n      gas\n      staticcall\n      iszero\n      dup1\n      iszero\n      tag_65\n      jumpi\n      returndatacopy(0x00, 0x00, returndatasize)\n      revert(0x00, returndatasize)\n    tag_65:\n      pop\n      pop\n      pop\n      pop\n      mload(0x40)\n      returndatasize\n      not(0x1f)\n      0x1f\n      dup3\n      add\n      and\n      dup3\n      add\n      dup1\n      0x40\n      mstore\n      pop\n      dup2\n      add\n      swap1\n      tag_66\n      swap2\n      swap1\n      tag_67\n      jump\t// in\n    tag_66:\n        /* \"contracts/MedicalRecordsAndAccess.sol\":8691:8820  require(... */\n      tag_68\n      jumpi\n      mload(0x40)\n      0x08c379a000000000000000000000000000000000000000000000000000000000\n      dup2\n      mstore\n      0x04\n      add\n      tag_69\n      swap1\n      tag_70\n      jump\t// in\n    tag_69:\n      mload(0x40)\n      dup1\n      swap2\n      sub\n      swap1\n      revert\n    tag_68:\n        /* \"contracts/MedicalRecordsAndAccess.sol\":8870:8880  msg.sender */\n      caller\n        /* \"contracts/MedicalRecordsAndAccess.sol\":8836:8912  RecordAccessed(recordId, patient, msg.sender, accessorRole, block.timestamp) */\n      0xffffffffffffffffffffffffffffffffffffffff\n      and\n        /* \"contracts/MedicalRecordsAndAccess.sol\":8861:8868  patient */\n      dup2\n        /* \"contracts/MedicalRecordsAndAccess.sol\":8836:8912  RecordAccessed(recordId, patient, msg.sender, accessorRole, block.timestamp) */\n      0xffffffffffffffffffffffffffffffffffffffff\n      and\n        /* \"contracts/MedicalRecordsAndAccess.sol\":8851:8859  recordId */\n      dup6\n        /* \"contracts/MedicalRecordsAndAccess.sol\":8836:8912  RecordAccessed(recordId, patient, msg.sender, accessorRole, block.timestamp) */\n      0xd45bdb85767000c90389e3e0bb2dece5049eb535b71aef83e642bfb192e08bf2\n        /* \"contracts/MedicalRecordsAndAccess.sol\":8882:8894  accessorRole */\n      dup7\n        /* \"contracts/MedicalRecordsAndAccess.sol\":8896:8911  block.timestamp */\n      timestamp\n        /* \"contracts/MedicalRecordsAndAccess.sol\":8836:8912  RecordAccessed(recordId, patient, msg.sender, accessorRole, block.timestamp) */\n      mload(0x40)\n      tag_71\n      swap3\n      swap2\n      swap1\n      tag_72\n      jump\t// in\n    tag_71:\n      mload(0x40)\n      dup1\n      swap2\n      sub\n      swap1\n      log4\n        /* \"contracts/MedicalRecordsAndAccess.sol\":8929:8943  medicalRecords */\n      0x03\n        /* \"contracts/MedicalRecordsAndAccess.sol\":8929:8953  medicalRecords[recordId] */\n      0x00\n        /* \"contracts/MedicalRecordsAndAccess.sol\":8944:8952  recordId */\n      dup6\n        /* \"contracts/MedicalRecordsAndAccess.sol\":8929:8953  medicalRecords[recordId] */\n      dup2\n      mstore\n      0x20\n      add\n      swap1\n      dup2\n      mstore\n      0x20\n      add\n      0x00\n      keccak256\n        /* \"contracts/MedicalRecordsAndAccess.sol\":8929:8962  medicalRecords[recordId].ipfsHash */\n      0x03\n      add\n        /* \"contracts/MedicalRecordsAndAccess.sol\":8922:8962  return medicalRecords[recordId].ipfsHash */\n      dup1\n      sload\n      tag_73\n      swap1\n      tag_74\n      jump\t// in\n    tag_73:\n      dup1\n      0x1f\n      add\n      0x20\n      dup1\n      swap2\n      div\n      mul\n      0x20\n      add\n      mload(0x40)\n      swap1\n      dup2\n      add\n      0x40\n      mstore\n      dup1\n      swap3\n      swap2\n      swap1\n      dup2\n      dup2\n      mstore\n      0x20\n      add\n      dup3\n      dup1\n      sload\n      tag_75\n      swap1\n      tag_74\n      jump\t// in\n    tag_75:\n      dup1\n      iszero\n      tag_76\n      jumpi\n      dup1\n      0x1f\n      lt\n      tag_77\n      jumpi\n      0x0100\n      dup1\n      dup4\n      sload\n      div\n      mul\n      dup4\n      mstore\n      swap2\n      0x20\n      add\n      swap2\n      jump(tag_76)\n    tag_77:\n      dup3\n      add\n      swap2\n      swap1\n      0x00\n      mstore\n      keccak256(0x00, 0x20)\n      swap1\n    tag_78:\n      dup2\n      sload\n      dup2\n      mstore\n      swap1\n      0x01\n      add\n      swap1\n      0x20\n      add\n      dup1\n      dup4\n      gt\n      tag_78\n      jumpi\n      dup3\n      swap1\n      sub\n      0x1f\n      and\n      dup3\n      add\n      swap2\n    tag_76:\n      pop\n      pop\n      pop\n      pop\n      pop\n      swap2\n      pop\n      pop\n        /* \"contracts/MedicalRecordsAndAccess.sol\":8406:8969  function viewMedicalRecord(uint256 recordId, string memory accessorRole)... */\n      swap3\n      swap2\n      pop\n      pop\n      jump\t// out\n        /* \"contracts/MedicalRecordsAndAccess.sol\":3229:3268  IPatientConsent public identityContract */\n    tag_30:\n      0x01\n      0x00\n      swap1\n      sload\n      swap1\n      0x0100\n      exp\n      swap1\n      div\n      0xffffffffffffffffffffffffffffffffffffffff\n      and\n      dup2\n      jump\t// out\n        /* \"contracts/MedicalRecordsAndAccess.sol\":3341:3396  mapping(uint256 => MedicalRecord) public medicalRecords */\n    tag_36:\n      mstore(0x20, 0x03)\n      dup1\n      0x00\n      mstore\n      keccak256(0x00, 0x40)\n      0x00\n      swap2\n      pop\n      swap1\n      pop\n      dup1\n      0x00\n      add\n      sload\n      swap1\n      dup1\n      0x01\n      add\n      0x00\n      swap1\n      sload\n      swap1\n      0x0100\n      exp\n      swap1\n      div\n      0xffffffffffffffffffffffffffffffffffffffff\n      and\n      swap1\n      dup1\n      0x02\n      add\n      0x00\n      swap1\n      sload\n      swap1\n      0x0100\n      exp\n      swap1\n      div\n      0xffffffffffffffffffffffffffffffffffffffff\n      and\n      swap1\n      dup1\n      0x03\n      add\n      dup1\n      sload\n      tag_79\n      swap1\n      tag_74\n      jump\t// in\n    tag_79:\n      dup1\n      0x1f\n      add\n      0x20\n      dup1\n      swap2\n      div\n      mul\n      0x20\n      add\n      mload(0x40)\n      swap1\n      dup2\n      add\n      0x40\n      mstore\n      dup1\n      swap3\n      swap2\n      swap1\n      dup2\n      dup2\n      mstore\n      0x20\n      add\n      dup3\n      dup1\n      sload\n      tag_80\n      swap1\n      tag_74\n      jump\t// in\n    tag_80:\n      dup1\n      iszero\n      tag_81\n      jumpi\n      dup1\n      0x1f\n      lt\n      tag_82\n      jumpi\n      0x0100\n      dup1\n      dup4\n      sload\n      div\n      mul\n      dup4\n      mstore\n      swap2\n      0x20\n      add\n      swap2\n      jump(tag_81)\n    tag_82:\n      dup3\n      add\n      swap2\n      swap1\n      0x00\n      mstore\n      keccak256(0x00, 0x20)\n      swap1\n    tag_83:\n      dup2\n      sload\n      dup2\n      mstore\n      swap1\n      0x01\n      add\n      swap1\n      0x20\n      add\n      dup1\n      dup4\n      gt\n      tag_83\n      jumpi\n      dup3\n      swap1\n      sub\n      0x1f\n      and\n      dup3\n      add\n      swap2\n    tag_81:\n      pop\n      pop\n      pop\n      pop\n      pop\n      swap1\n      dup1\n      0x04\n      add\n      dup1\n      sload\n      tag_84\n      swap1\n      tag_74\n      jump\t// in\n    tag_84:\n      dup1\n      0x1f\n      add\n      0x20\n      dup1\n      swap2\n      div\n      mul\n      0x20\n      add\n      mload(0x40)\n      swap1\n      dup2\n      add\n      0x40\n      mstore\n      dup1\n      swap3\n      swap2\n      swap1\n      dup2\n      dup2\n      mstore\n      0x20\n      add\n      dup3\n      dup1\n      sload\n      tag_85\n      swap1\n      tag_74\n      jump\t// in\n    tag_85:\n      dup1\n      iszero\n      tag_86\n      jumpi\n      dup1\n      0x1f\n      lt\n      tag_87\n      jumpi\n      0x0100\n      dup1\n      dup4\n      sload\n      div\n      mul\n      dup4\n      mstore\n      swap2\n      0x20\n      add\n      swap2\n      jump(tag_86)\n    tag_87:\n      dup3\n      add\n      swap2\n      swap1\n      0x00\n      mstore\n      keccak256(0x00, 0x20)\n      swap1\n    tag_88:\n      dup2\n      sload\n      dup2\n      mstore\n      swap1\n      0x01\n      add\n      swap1\n      0x20\n      add\n      dup1\n      dup4\n      gt\n      tag_88\n      jumpi\n      dup3\n      swap1\n      sub\n      0x1f\n      and\n      dup3\n      add\n      swap2\n    tag_86:\n      pop\n      pop\n      pop\n      pop\n      pop\n      swap1\n      dup1\n      0x05\n      add\n      sload\n      swap1\n      dup1\n      0x06\n      add\n      sload\n      swap1\n      pop\n      dup8\n      jump\t// out\n        /* \"contracts/MedicalRecordsAndAccess.sol\":3275:3301  uint256 public recordCount */\n    tag_40:\n      sload(0x02)\n      dup2\n      jump\t// out\n        /* \"contracts/MedicalRecordsAndAccess.sol\":6563:7661  function addMedicalRecord(... */\n    tag_45:\n        /* \"contracts/MedicalRecordsAndAccess.sol\":6735:6742  patient */\n      dup3\n        /* \"contracts/MedicalRecordsAndAccess.sol\":4967:4983  identityContract */\n      0x01\n      0x00\n      swap1\n      sload\n      swap1\n      0x0100\n      exp\n      swap1\n      div\n      0xffffffffffffffffffffffffffffffffffffffff\n      and\n        /* \"contracts/MedicalRecordsAndAccess.sol\":4967:5003  identityContract.isRegisteredPatient */\n      0xffffffffffffffffffffffffffffffffffffffff\n      and\n      0x3c4f7a9d\n        /* \"contracts/MedicalRecordsAndAccess.sol\":5004:5011  patient */\n      dup3\n        /* \"contracts/MedicalRecordsAndAccess.sol\":4967:5012  identityContract.isRegisteredPatient(patient) */\n      mload(0x40)\n      dup3\n      0xffffffff\n      and\n      0xe0\n      shl\n      dup2\n      mstore\n      0x04\n      add\n      tag_90\n      swap2\n      swap1\n      tag_91\n      jump\t// in\n    tag_90:\n      0x20\n      mload(0x40)\n      dup1\n      dup4\n      sub\n      dup2\n      dup7\n      gas\n      staticcall\n      iszero\n      dup1\n      iszero\n      tag_93\n      jumpi\n      returndatacopy(0x00, 0x00, returndatasize)\n      revert(0x00, returndatasize)\n    tag_93:\n      pop\n      pop\n      pop\n      pop\n      mload(0x40)\n      returndatasize\n      not(0x1f)\n      0x1f\n      dup3\n      add\n      and\n      dup3\n      add\n      dup1\n      0x40\n      mstore\n      pop\n      dup2\n      add\n      swap1\n      tag_94\n      swap2\n      swap1\n      tag_67\n      jump\t// in\n    tag_94:\n        /* \"contracts/MedicalRecordsAndAccess.sol\":4959:5039  require(identityContract.isRegisteredPatient(patient), \"Patient not registered\") */\n      tag_95\n      jumpi\n      mload(0x40)\n      0x08c379a000000000000000000000000000000000000000000000000000000000\n      dup2\n      mstore\n      0x04\n      add\n      tag_96\n      swap1\n      tag_97\n      jump\t// in\n    tag_96:\n      mload(0x40)\n      dup1\n      swap2\n      sub\n      swap1\n      revert\n    tag_95:\n        /* \"contracts/MedicalRecordsAndAccess.sol\":6763:6770  patient */\n      dup4\n        /* \"contracts/MedicalRecordsAndAccess.sol\":5117:5133  identityContract */\n      0x01\n      0x00\n      swap1\n      sload\n      swap1\n      0x0100\n      exp\n      swap1\n      div\n      0xffffffffffffffffffffffffffffffffffffffff\n      and\n        /* \"contracts/MedicalRecordsAndAccess.sol\":5117:5149  identityContract.hasValidConsent */\n      0xffffffffffffffffffffffffffffffffffffffff\n      and\n      0xa6d41f33\n        /* \"contracts/MedicalRecordsAndAccess.sol\":5150:5157  patient */\n      dup3\n        /* \"contracts/MedicalRecordsAndAccess.sol\":5159:5169  msg.sender */\n      caller\n        /* \"contracts/MedicalRecordsAndAccess.sol\":5117:5170  identityContract.hasValidConsent(patient, msg.sender) */\n      mload(0x40)\n      dup4\n      0xffffffff\n      and\n      0xe0\n      shl\n      dup2\n      mstore\n      0x04\n      add\n      tag_99\n      swap3\n      swap2\n      swap1\n      tag_63\n      jump\t// in\n    tag_99:\n      0x20\n      mload(0x40)\n      dup1\n      dup4\n      sub\n      dup2\n      dup7\n      gas\n      staticcall\n      iszero\n      dup1\n      iszero\n      tag_101\n      jumpi\n      returndatacopy(0x00, 0x00, returndatasize)\n      revert(0x00, returndatasize)\n    tag_101:\n      pop\n      pop\n      pop\n      pop\n      mload(0x40)\n      returndatasize\n      not(0x1f)\n      0x1f\n      dup3\n      add\n      and\n      dup3\n      add\n      dup1\n      0x40\n      mstore\n      pop\n      dup2\n      add\n      swap1\n      tag_102\n      swap2\n      swap1\n      tag_67\n      jump\t// in\n    tag_102:\n        /* \"contracts/MedicalRecordsAndAccess.sol\":5109:5204  require(identityContract.hasValidConsent(patient, msg.sender), \"No valid consent from patient\") */\n      tag_103\n      jumpi\n      mload(0x40)\n      0x08c379a000000000000000000000000000000000000000000000000000000000\n      dup2\n      mstore\n      0x04\n      add\n      tag_104\n      swap1\n      tag_70\n      jump\t// in\n    tag_104:\n      mload(0x40)\n      dup1\n      swap2\n      sub\n      swap1\n      revert\n    tag_103:\n        /* \"contracts/MedicalRecordsAndAccess.sol\":1640:1641  1 */\n      0x01\n        /* \"contracts/MedicalRecordsAndAccess.sol\":1624:1636  _guardStatus */\n      sload(0x00)\n        /* \"contracts/MedicalRecordsAndAccess.sol\":1624:1641  _guardStatus == 1 */\n      eq\n        /* \"contracts/MedicalRecordsAndAccess.sol\":1616:1677  require(_guardStatus == 1, \"ReentrancyGuard: reentrant call\") */\n      tag_106\n      jumpi\n      mload(0x40)\n      0x08c379a000000000000000000000000000000000000000000000000000000000\n      dup2\n      mstore\n      0x04\n      add\n      tag_107\n      swap1\n      tag_108\n      jump\t// in\n    tag_107:\n      mload(0x40)\n      dup1\n      swap2\n      sub\n      swap1\n      revert\n    tag_106:\n        /* \"contracts/MedicalRecordsAndAccess.sol\":1702:1703  2 */\n      0x02\n        /* \"contracts/MedicalRecordsAndAccess.sol\":1687:1699  _guardStatus */\n      0x00\n        /* \"contracts/MedicalRecordsAndAccess.sol\":1687:1703  _guardStatus = 2 */\n      dup2\n      swap1\n      sstore\n      pop\n        /* \"contracts/MedicalRecordsAndAccess.sol\":6842:6843  0 */\n      0x00\n        /* \"contracts/MedicalRecordsAndAccess.sol\":6821:6829  ipfsHash */\n      dup5\n        /* \"contracts/MedicalRecordsAndAccess.sol\":6815:6837  bytes(ipfsHash).length */\n      mload\n        /* \"contracts/MedicalRecordsAndAccess.sol\":6815:6843  bytes(ipfsHash).length   > 0 */\n      gt\n        /* \"contracts/MedicalRecordsAndAccess.sol\":6807:6866  require(bytes(ipfsHash).length   > 0, \"IPFS hash required\") */\n      tag_110\n      jumpi\n      mload(0x40)\n      0x08c379a000000000000000000000000000000000000000000000000000000000\n      dup2\n      mstore\n      0x04\n      add\n      tag_111\n      swap1\n      tag_112\n      jump\t// in\n    tag_111:\n      mload(0x40)\n      dup1\n      swap2\n      sub\n      swap1\n      revert\n    tag_110:\n        /* \"contracts/MedicalRecordsAndAccess.sol\":6911:6912  0 */\n      0x00\n        /* \"contracts/MedicalRecordsAndAccess.sol\":6890:6900  recordType */\n      dup4\n        /* \"contracts/MedicalRecordsAndAccess.sol\":6884:6908  bytes(recordType).length */\n      mload\n        /* \"contracts/MedicalRecordsAndAccess.sol\":6884:6912  bytes(recordType).length > 0 */\n      gt\n        /* \"contracts/MedicalRecordsAndAccess.sol\":6876:6937  require(bytes(recordType).length > 0, \"Record type required\") */\n      tag_113\n      jumpi\n      mload(0x40)\n      0x08c379a000000000000000000000000000000000000000000000000000000000\n      dup2\n      mstore\n      0x04\n      add\n      tag_114\n      swap1\n      tag_115\n      jump\t// in\n    tag_114:\n      mload(0x40)\n      dup1\n      swap2\n      sub\n      swap1\n      revert\n    tag_113:\n        /* \"contracts/MedicalRecordsAndAccess.sol\":7019:7030  recordCount */\n      0x02\n      0x00\n        /* \"contracts/MedicalRecordsAndAccess.sol\":7019:7032  recordCount++ */\n      dup2\n      sload\n      dup1\n      swap3\n      swap2\n      swap1\n      tag_116\n      swap1\n      tag_117\n      jump\t// in\n    tag_116:\n      swap2\n      swap1\n      pop\n      sstore\n      pop\n        /* \"contracts/MedicalRecordsAndAccess.sol\":7042:7062  patientRecordVersion */\n      0x05\n        /* \"contracts/MedicalRecordsAndAccess.sol\":7042:7071  patientRecordVersion[patient] */\n      0x00\n        /* \"contracts/MedicalRecordsAndAccess.sol\":7063:7070  patient */\n      dup7\n        /* \"contracts/MedicalRecordsAndAccess.sol\":7042:7071  patientRecordVersion[patient] */\n      0xffffffffffffffffffffffffffffffffffffffff\n      and\n      0xffffffffffffffffffffffffffffffffffffffff\n      and\n      dup2\n      mstore\n      0x20\n      add\n      swap1\n      dup2\n      mstore\n      0x20\n      add\n      0x00\n      keccak256\n      0x00\n        /* \"contracts/MedicalRecordsAndAccess.sol\":7042:7073  patientRecordVersion[patient]++ */\n      dup2\n      sload\n      dup1\n      swap3\n      swap2\n      swap1\n      tag_118\n      swap1\n      tag_117\n      jump\t// in\n    tag_118:\n      swap2\n      swap1\n      pop\n      sstore\n      pop\n        /* \"contracts/MedicalRecordsAndAccess.sol\":7084:7102  uint256 newVersion */\n      0x00\n        /* \"contracts/MedicalRecordsAndAccess.sol\":7105:7125  patientRecordVersion */\n      0x05\n        /* \"contracts/MedicalRecordsAndAccess.sol\":7105:7134  patientRecordVersion[patient] */\n      0x00\n        /* \"contracts/MedicalRecordsAndAccess.sol\":7126:7133  patient */\n      dup8\n        /* \"contracts/MedicalRecordsAndAccess.sol\":7105:7134  patientRecordVersion[patient] */\n      0xffffffffffffffffffffffffffffffffffffffff\n      and\n      0xffffffffffffffffffffffffffffffffffffffff\n      and\n      dup2\n      mstore\n      0x20\n      add\n      swap1\n      dup2\n      mstore\n      0x20\n      add\n      0x00\n      keccak256\n      sload\n        /* \"contracts/MedicalRecordsAndAccess.sol\":7084:7134  uint256 newVersion = patientRecordVersion[patient] */\n      swap1\n      pop\n        /* \"contracts/MedicalRecordsAndAccess.sol\":7175:7453  MedicalRecord({... */\n      mload(0x40)\n      dup1\n      0xe0\n      add\n      0x40\n      mstore\n      dup1\n        /* \"contracts/MedicalRecordsAndAccess.sol\":7215:7226  recordCount */\n      sload(0x02)\n        /* \"contracts/MedicalRecordsAndAccess.sol\":7175:7453  MedicalRecord({... */\n      dup2\n      mstore\n      0x20\n      add\n        /* \"contracts/MedicalRecordsAndAccess.sol\":7252:7259  patient */\n      dup8\n        /* \"contracts/MedicalRecordsAndAccess.sol\":7175:7453  MedicalRecord({... */\n      0xffffffffffffffffffffffffffffffffffffffff\n      and\n      dup2\n      mstore\n      0x20\n      add\n        /* \"contracts/MedicalRecordsAndAccess.sol\":7285:7295  msg.sender */\n      caller\n        /* \"contracts/MedicalRecordsAndAccess.sol\":7175:7453  MedicalRecord({... */\n      0xffffffffffffffffffffffffffffffffffffffff\n      and\n      dup2\n      mstore\n      0x20\n      add\n        /* \"contracts/MedicalRecordsAndAccess.sol\":7321:7329  ipfsHash */\n      dup7\n        /* \"contracts/MedicalRecordsAndAccess.sol\":7175:7453  MedicalRecord({... */\n      dup2\n      mstore\n      0x20\n      add\n        /* \"contracts/MedicalRecordsAndAccess.sol\":7355:7365  recordType */\n      dup6\n        /* \"contracts/MedicalRecordsAndAccess.sol\":7175:7453  MedicalRecord({... */\n      dup2\n      mstore\n      0x20\n      add\n        /* \"contracts/MedicalRecordsAndAccess.sol\":7391:7401  newVersion */\n      dup3\n        /* \"contracts/MedicalRecordsAndAccess.sol\":7175:7453  MedicalRecord({... */\n      dup2\n      mstore\n      0x20\n      add\n        /* \"contracts/MedicalRecordsAndAccess.sol\":7427:7442  block.timestamp */\n      timestamp\n        /* \"contracts/MedicalRecordsAndAccess.sol\":7175:7453  MedicalRecord({... */\n      dup2\n      mstore\n      pop\n        /* \"contracts/MedicalRecordsAndAccess.sol\":7145:7159  medicalRecords */\n      0x03\n        /* \"contracts/MedicalRecordsAndAccess.sol\":7145:7172  medicalRecords[recordCount] */\n      0x00\n        /* \"contracts/MedicalRecordsAndAccess.sol\":7160:7171  recordCount */\n      sload(0x02)\n        /* \"contracts/MedicalRecordsAndAccess.sol\":7145:7172  medicalRecords[recordCount] */\n      dup2\n      mstore\n      0x20\n      add\n      swap1\n      dup2\n      mstore\n      0x20\n      add\n      0x00\n      keccak256\n        /* \"contracts/MedicalRecordsAndAccess.sol\":7145:7453  medicalRecords[recordCount] = MedicalRecord({... */\n      0x00\n      dup3\n      add\n      mload\n      dup2\n      0x00\n      add\n      sstore\n      0x20\n      dup3\n      add\n      mload\n      dup2\n      0x01\n      add\n      exp(0x0100, 0x00)\n      dup2\n      sload\n      dup2\n      0xffffffffffffffffffffffffffffffffffffffff\n      mul\n      not\n      and\n      swap1\n      dup4\n      0xffffffffffffffffffffffffffffffffffffffff\n      and\n      mul\n      or\n      swap1\n      sstore\n      pop\n      0x40\n      dup3\n      add\n      mload\n      dup2\n      0x02\n      add\n      exp(0x0100, 0x00)\n      dup2\n      sload\n      dup2\n      0xffffffffffffffffffffffffffffffffffffffff\n      mul\n      not\n      and\n      swap1\n      dup4\n      0xffffffffffffffffffffffffffffffffffffffff\n      and\n      mul\n      or\n      swap1\n      sstore\n      pop\n      0x60\n      dup3\n      add\n      mload\n      dup2\n      0x03\n      add\n      swap1\n      dup2\n      tag_119\n      swap2\n      swap1\n      tag_120\n      jump\t// in\n    tag_119:\n      pop\n      0x80\n      dup3\n      add\n      mload\n      dup2\n      0x04\n      add\n      swap1\n      dup2\n      tag_121\n      swap2\n      swap1\n      tag_120\n      jump\t// in\n    tag_121:\n      pop\n      0xa0\n      dup3\n      add\n      mload\n      dup2\n      0x05\n      add\n      sstore\n      0xc0\n      dup3\n      add\n      mload\n      dup2\n      0x06\n      add\n      sstore\n      swap1\n      pop\n      pop\n        /* \"contracts/MedicalRecordsAndAccess.sol\":7464:7481  _patientRecordIds */\n      0x04\n        /* \"contracts/MedicalRecordsAndAccess.sol\":7464:7490  _patientRecordIds[patient] */\n      0x00\n        /* \"contracts/MedicalRecordsAndAccess.sol\":7482:7489  patient */\n      dup8\n        /* \"contracts/MedicalRecordsAndAccess.sol\":7464:7490  _patientRecordIds[patient] */\n      0xffffffffffffffffffffffffffffffffffffffff\n      and\n      0xffffffffffffffffffffffffffffffffffffffff\n      and\n      dup2\n      mstore\n      0x20\n      add\n      swap1\n      dup2\n      mstore\n      0x20\n      add\n      0x00\n      keccak256\n        /* \"contracts/MedicalRecordsAndAccess.sol\":7496:7507  recordCount */\n      sload(0x02)\n        /* \"contracts/MedicalRecordsAndAccess.sol\":7464:7508  _patientRecordIds[patient].push(recordCount) */\n      swap1\n      dup1\n      0x01\n      dup2\n      sload\n      add\n      dup1\n      dup3\n      sstore\n      dup1\n      swap2\n      pop\n      pop\n      0x01\n      swap1\n      sub\n      swap1\n      0x00\n      mstore\n      keccak256(0x00, 0x20)\n      add\n      0x00\n      swap1\n      swap2\n      swap1\n      swap2\n      swap1\n      swap2\n      pop\n      sstore\n        /* \"contracts/MedicalRecordsAndAccess.sol\":7571:7581  msg.sender */\n      caller\n        /* \"contracts/MedicalRecordsAndAccess.sol\":7524:7654  RecordAdded(... */\n      0xffffffffffffffffffffffffffffffffffffffff\n      and\n        /* \"contracts/MedicalRecordsAndAccess.sol\":7562:7569  patient */\n      dup7\n        /* \"contracts/MedicalRecordsAndAccess.sol\":7524:7654  RecordAdded(... */\n      0xffffffffffffffffffffffffffffffffffffffff\n      and\n        /* \"contracts/MedicalRecordsAndAccess.sol\":7549:7560  recordCount */\n      sload(0x02)\n        /* \"contracts/MedicalRecordsAndAccess.sol\":7524:7654  RecordAdded(... */\n      0xa28f8bdc9799975b639b79d43b5ed976631e99b2b05ef7394d7406f9081604c4\n        /* \"contracts/MedicalRecordsAndAccess.sol\":7595:7603  ipfsHash */\n      dup9\n        /* \"contracts/MedicalRecordsAndAccess.sol\":7605:7615  recordType */\n      dup9\n        /* \"contracts/MedicalRecordsAndAccess.sol\":7617:7627  newVersion */\n      dup7\n        /* \"contracts/MedicalRecordsAndAccess.sol\":7629:7644  block.timestamp */\n      timestamp\n        /* \"contracts/MedicalRecordsAndAccess.sol\":7524:7654  RecordAdded(... */\n      mload(0x40)\n      tag_123\n      swap5\n      swap4\n      swap3\n      swap2\n      swap1\n      tag_124\n      jump\t// in\n    tag_123:\n      mload(0x40)\n      dup1\n      swap2\n      sub\n      swap1\n      log4\n        /* \"contracts/MedicalRecordsAndAccess.sol\":6797:7661  {... */\n      pop\n        /* \"contracts/MedicalRecordsAndAccess.sol\":1739:1740  1 */\n      0x01\n        /* \"contracts/MedicalRecordsAndAccess.sol\":1724:1736  _guardStatus */\n      0x00\n        /* \"contracts/MedicalRecordsAndAccess.sol\":1724:1740  _guardStatus = 1 */\n      dup2\n      swap1\n      sstore\n      pop\n        /* \"contracts/MedicalRecordsAndAccess.sol\":5049:5050  _ */\n      pop\n        /* \"contracts/MedicalRecordsAndAccess.sol\":6563:7661  function addMedicalRecord(... */\n      pop\n      pop\n      pop\n      pop\n      jump\t// out\n        /* \"contracts/MedicalRecordsAndAccess.sol\":9169:9334  function getRecordsByPatient(address patient)... */\n    tag_48:\n        /* \"contracts/MedicalRecordsAndAccess.sol\":9262:9278  uint256[] memory */\n      0x60\n        /* \"contracts/MedicalRecordsAndAccess.sol\":9301:9318  _patientRecordIds */\n      0x04\n        /* \"contracts/MedicalRecordsAndAccess.sol\":9301:9327  _patientRecordIds[patient] */\n      0x00\n        /* \"contracts/MedicalRecordsAndAccess.sol\":9319:9326  patient */\n      dup4\n        /* \"contracts/MedicalRecordsAndAccess.sol\":9301:9327  _patientRecordIds[patient] */\n      0xffffffffffffffffffffffffffffffffffffffff\n      and\n      0xffffffffffffffffffffffffffffffffffffffff\n      and\n      dup2\n      mstore\n      0x20\n      add\n      swap1\n      dup2\n      mstore\n      0x20\n      add\n      0x00\n      keccak256\n        /* \"contracts/MedicalRecordsAndAccess.sol\":9294:9327  return _patientRecordIds[patient] */\n      dup1\n      sload\n      dup1\n      0x20\n      mul\n      0x20\n      add\n      mload(0x40)\n      swap1\n      dup2\n      add\n      0x40\n      mstore\n      dup1\n      swap3\n      swap2\n      swap1\n      dup2\n      dup2\n      mstore\n      0x20\n      add\n      dup3\n      dup1\n      sload\n      dup1\n      iszero\n      tag_126\n      jumpi\n      0x20\n      mul\n      dup3\n      add\n      swap2\n      swap1\n      0x00\n      mstore\n      keccak256(0x00, 0x20)\n      swap1\n    tag_127:\n      dup2\n      sload\n      dup2\n      mstore\n      0x20\n      add\n      swap1\n      0x01\n      add\n      swap1\n      dup1\n      dup4\n      gt\n      tag_127\n      jumpi\n    tag_126:\n      pop\n      pop\n      pop\n      pop\n      pop\n      swap1\n      pop\n        /* \"contracts/MedicalRecordsAndAccess.sol\":9169:9334  function getRecordsByPatient(address patient)... */\n      swap2\n      swap1\n      pop\n      jump\t// out\n        /* \"contracts/MedicalRecordsAndAccess.sol\":3567:3622  mapping(address => uint256) public patientRecordVersion */\n    tag_53:\n      mstore(0x20, 0x05)\n      dup1\n      0x00\n      mstore\n      keccak256(0x00, 0x40)\n      0x00\n      swap2\n      pop\n      swap1\n      pop\n      sload\n      dup2\n      jump\t// out\n        /* \"#utility.yul\":7:82   */\n    tag_128:\n        /* \"#utility.yul\":40:46   */\n      0x00\n        /* \"#utility.yul\":73:75   */\n      0x40\n        /* \"#utility.yul\":67:76   */\n      mload\n        /* \"#utility.yul\":57:76   */\n      swap1\n      pop\n        /* \"#utility.yul\":7:82   */\n      swap1\n      jump\t// out\n        /* \"#utility.yul\":88:205   */\n    tag_129:\n        /* \"#utility.yul\":197:198   */\n      0x00\n        /* \"#utility.yul\":194:195   */\n      0x00\n        /* \"#utility.yul\":187:199   */\n      revert\n        /* \"#utility.yul\":211:328   */\n    tag_130:\n        /* \"#utility.yul\":320:321   */\n      0x00\n        /* \"#utility.yul\":317:318   */\n      0x00\n        /* \"#utility.yul\":310:322   */\n      revert\n        /* \"#utility.yul\":334:460   */\n    tag_131:\n        /* \"#utility.yul\":371:378   */\n      0x00\n        /* \"#utility.yul\":411:453   */\n      0xffffffffffffffffffffffffffffffffffffffff\n        /* \"#utility.yul\":404:409   */\n      dup3\n        /* \"#utility.yul\":400:454   */\n      and\n        /* \"#utility.yul\":389:454   */\n      swap1\n      pop\n        /* \"#utility.yul\":334:460   */\n      swap2\n      swap1\n      pop\n      jump\t// out\n        /* \"#utility.yul\":466:562   */\n    tag_132:\n        /* \"#utility.yul\":503:510   */\n      0x00\n        /* \"#utility.yul\":532:556   */\n      tag_203\n        /* \"#utility.yul\":550:555   */\n      dup3\n        /* \"#utility.yul\":532:556   */\n      tag_131\n      jump\t// in\n    tag_203:\n        /* \"#utility.yul\":521:556   */\n      swap1\n      pop\n        /* \"#utility.yul\":466:562   */\n      swap2\n      swap1\n      pop\n      jump\t// out\n        /* \"#utility.yul\":568:690   */\n    tag_133:\n        /* \"#utility.yul\":641:665   */\n      tag_205\n        /* \"#utility.yul\":659:664   */\n      dup2\n        /* \"#utility.yul\":641:665   */\n      tag_132\n      jump\t// in\n    tag_205:\n        /* \"#utility.yul\":634:639   */\n      dup2\n        /* \"#utility.yul\":631:666   */\n      eq\n        /* \"#utility.yul\":621:684   */\n      tag_206\n      jumpi\n        /* \"#utility.yul\":680:681   */\n      0x00\n        /* \"#utility.yul\":677:678   */\n      0x00\n        /* \"#utility.yul\":670:682   */\n      revert\n        /* \"#utility.yul\":621:684   */\n    tag_206:\n        /* \"#utility.yul\":568:690   */\n      pop\n      jump\t// out\n        /* \"#utility.yul\":696:835   */\n    tag_134:\n        /* \"#utility.yul\":742:747   */\n      0x00\n        /* \"#utility.yul\":780:786   */\n      dup2\n        /* \"#utility.yul\":767:787   */\n      calldataload\n        /* \"#utility.yul\":758:787   */\n      swap1\n      pop\n        /* \"#utility.yul\":796:829   */\n      tag_208\n        /* \"#utility.yul\":823:828   */\n      dup2\n        /* \"#utility.yul\":796:829   */\n      tag_133\n      jump\t// in\n    tag_208:\n        /* \"#utility.yul\":696:835   */\n      swap3\n      swap2\n      pop\n      pop\n      jump\t// out\n        /* \"#utility.yul\":841:1170   */\n    tag_15:\n        /* \"#utility.yul\":900:906   */\n      0x00\n        /* \"#utility.yul\":949:951   */\n      0x20\n        /* \"#utility.yul\":937:946   */\n      dup3\n        /* \"#utility.yul\":928:935   */\n      dup5\n        /* \"#utility.yul\":924:947   */\n      sub\n        /* \"#utility.yul\":920:952   */\n      slt\n        /* \"#utility.yul\":917:1036   */\n      iszero\n      tag_210\n      jumpi\n        /* \"#utility.yul\":955:1034   */\n      tag_211\n      tag_129\n      jump\t// in\n    tag_211:\n        /* \"#utility.yul\":917:1036   */\n    tag_210:\n        /* \"#utility.yul\":1075:1076   */\n      0x00\n        /* \"#utility.yul\":1100:1153   */\n      tag_212\n        /* \"#utility.yul\":1145:1152   */\n      dup5\n        /* \"#utility.yul\":1136:1142   */\n      dup3\n        /* \"#utility.yul\":1125:1134   */\n      dup6\n        /* \"#utility.yul\":1121:1143   */\n      add\n        /* \"#utility.yul\":1100:1153   */\n      tag_134\n      jump\t// in\n    tag_212:\n        /* \"#utility.yul\":1090:1153   */\n      swap2\n      pop\n        /* \"#utility.yul\":1046:1163   */\n      pop\n        /* \"#utility.yul\":841:1170   */\n      swap3\n      swap2\n      pop\n      pop\n      jump\t// out\n        /* \"#utility.yul\":1176:1253   */\n    tag_135:\n        /* \"#utility.yul\":1213:1220   */\n      0x00\n        /* \"#utility.yul\":1242:1247   */\n      dup2\n        /* \"#utility.yul\":1231:1247   */\n      swap1\n      pop\n        /* \"#utility.yul\":1176:1253   */\n      swap2\n      swap1\n      pop\n      jump\t// out\n        /* \"#utility.yul\":1259:1377   */\n    tag_136:\n        /* \"#utility.yul\":1346:1370   */\n      tag_215\n        /* \"#utility.yul\":1364:1369   */\n      dup2\n        /* \"#utility.yul\":1346:1370   */\n      tag_135\n      jump\t// in\n    tag_215:\n        /* \"#utility.yul\":1341:1344   */\n      dup3\n        /* \"#utility.yul\":1334:1371   */\n      mstore\n        /* \"#utility.yul\":1259:1377   */\n      pop\n      pop\n      jump\t// out\n        /* \"#utility.yul\":1383:1605   */\n    tag_18:\n        /* \"#utility.yul\":1476:1480   */\n      0x00\n        /* \"#utility.yul\":1514:1516   */\n      0x20\n        /* \"#utility.yul\":1503:1512   */\n      dup3\n        /* \"#utility.yul\":1499:1517   */\n      add\n        /* \"#utility.yul\":1491:1517   */\n      swap1\n      pop\n        /* \"#utility.yul\":1527:1598   */\n      tag_217\n        /* \"#utility.yul\":1595:1596   */\n      0x00\n        /* \"#utility.yul\":1584:1593   */\n      dup4\n        /* \"#utility.yul\":1580:1597   */\n      add\n        /* \"#utility.yul\":1571:1577   */\n      dup5\n        /* \"#utility.yul\":1527:1598   */\n      tag_136\n      jump\t// in\n    tag_217:\n        /* \"#utility.yul\":1383:1605   */\n      swap3\n      swap2\n      pop\n      pop\n      jump\t// out\n        /* \"#utility.yul\":1611:1733   */\n    tag_137:\n        /* \"#utility.yul\":1684:1708   */\n      tag_219\n        /* \"#utility.yul\":1702:1707   */\n      dup2\n        /* \"#utility.yul\":1684:1708   */\n      tag_135\n      jump\t// in\n    tag_219:\n        /* \"#utility.yul\":1677:1682   */\n      dup2\n        /* \"#utility.yul\":1674:1709   */\n      eq\n        /* \"#utility.yul\":1664:1727   */\n      tag_220\n      jumpi\n        /* \"#utility.yul\":1723:1724   */\n      0x00\n        /* \"#utility.yul\":1720:1721   */\n      0x00\n        /* \"#utility.yul\":1713:1725   */\n      revert\n        /* \"#utility.yul\":1664:1727   */\n    tag_220:\n        /* \"#utility.yul\":1611:1733   */\n      pop\n      jump\t// out\n        /* \"#utility.yul\":1739:1878   */\n    tag_138:\n        /* \"#utility.yul\":1785:1790   */\n      0x00\n        /* \"#utility.yul\":1823:1829   */\n      dup2\n        /* \"#utility.yul\":1810:1830   */\n      calldataload\n        /* \"#utility.yul\":1801:1830   */\n      swap1\n      pop\n        /* \"#utility.yul\":1839:1872   */\n      tag_222\n        /* \"#utility.yul\":1866:1871   */\n      dup2\n        /* \"#utility.yul\":1839:1872   */\n      tag_137\n      jump\t// in\n    tag_222:\n        /* \"#utility.yul\":1739:1878   */\n      swap3\n      swap2\n      pop\n      pop\n      jump\t// out\n        /* \"#utility.yul\":1884:2001   */\n    tag_139:\n        /* \"#utility.yul\":1993:1994   */\n      0x00\n        /* \"#utility.yul\":1990:1991   */\n      0x00\n        /* \"#utility.yul\":1983:1995   */\n      revert\n        /* \"#utility.yul\":2007:2124   */\n    tag_140:\n        /* \"#utility.yul\":2116:2117   */\n      0x00\n        /* \"#utility.yul\":2113:2114   */\n      0x00\n        /* \"#utility.yul\":2106:2118   */\n      revert\n        /* \"#utility.yul\":2130:2232   */\n    tag_141:\n        /* \"#utility.yul\":2171:2177   */\n      0x00\n        /* \"#utility.yul\":2222:2224   */\n      0x1f\n        /* \"#utility.yul\":2218:2225   */\n      not\n        /* \"#utility.yul\":2213:2215   */\n      0x1f\n        /* \"#utility.yul\":2206:2211   */\n      dup4\n        /* \"#utility.yul\":2202:2216   */\n      add\n        /* \"#utility.yul\":2198:2226   */\n      and\n        /* \"#utility.yul\":2188:2226   */\n      swap1\n      pop\n        /* \"#utility.yul\":2130:2232   */\n      swap2\n      swap1\n      pop\n      jump\t// out\n        /* \"#utility.yul\":2238:2418   */\n    tag_142:\n        /* \"#utility.yul\":2286:2363   */\n      0x4e487b7100000000000000000000000000000000000000000000000000000000\n        /* \"#utility.yul\":2283:2284   */\n      0x00\n        /* \"#utility.yul\":2276:2364   */\n      mstore\n        /* \"#utility.yul\":2383:2387   */\n      0x41\n        /* \"#utility.yul\":2380:2381   */\n      0x04\n        /* \"#utility.yul\":2373:2388   */\n      mstore\n        /* \"#utility.yul\":2407:2411   */\n      0x24\n        /* \"#utility.yul\":2404:2405   */\n      0x00\n        /* \"#utility.yul\":2397:2412   */\n      revert\n        /* \"#utility.yul\":2424:2705   */\n    tag_143:\n        /* \"#utility.yul\":2507:2534   */\n      tag_228\n        /* \"#utility.yul\":2529:2533   */\n      dup3\n        /* \"#utility.yul\":2507:2534   */\n      tag_141\n      jump\t// in\n    tag_228:\n        /* \"#utility.yul\":2499:2505   */\n      dup2\n        /* \"#utility.yul\":2495:2535   */\n      add\n        /* \"#utility.yul\":2637:2643   */\n      dup2\n        /* \"#utility.yul\":2625:2635   */\n      dup2\n        /* \"#utility.yul\":2622:2644   */\n      lt\n        /* \"#utility.yul\":2601:2619   */\n      0xffffffffffffffff\n        /* \"#utility.yul\":2589:2599   */\n      dup3\n        /* \"#utility.yul\":2586:2620   */\n      gt\n        /* \"#utility.yul\":2583:2645   */\n      or\n        /* \"#utility.yul\":2580:2668   */\n      iszero\n      tag_229\n      jumpi\n        /* \"#utility.yul\":2648:2666   */\n      tag_230\n      tag_142\n      jump\t// in\n    tag_230:\n        /* \"#utility.yul\":2580:2668   */\n    tag_229:\n        /* \"#utility.yul\":2688:2698   */\n      dup1\n        /* \"#utility.yul\":2684:2686   */\n      0x40\n        /* \"#utility.yul\":2677:2699   */\n      mstore\n        /* \"#utility.yul\":2467:2705   */\n      pop\n        /* \"#utility.yul\":2424:2705   */\n      pop\n      pop\n      jump\t// out\n        /* \"#utility.yul\":2711:2840   */\n    tag_144:\n        /* \"#utility.yul\":2745:2751   */\n      0x00\n        /* \"#utility.yul\":2772:2792   */\n      tag_232\n      tag_128\n      jump\t// in\n    tag_232:\n        /* \"#utility.yul\":2762:2792   */\n      swap1\n      pop\n        /* \"#utility.yul\":2801:2834   */\n      tag_233\n        /* \"#utility.yul\":2829:2833   */\n      dup3\n        /* \"#utility.yul\":2821:2827   */\n      dup3\n        /* \"#utility.yul\":2801:2834   */\n      tag_143\n      jump\t// in\n    tag_233:\n        /* \"#utility.yul\":2711:2840   */\n      swap2\n      swap1\n      pop\n      jump\t// out\n        /* \"#utility.yul\":2846:3154   */\n    tag_145:\n        /* \"#utility.yul\":2908:2912   */\n      0x00\n        /* \"#utility.yul\":2998:3016   */\n      0xffffffffffffffff\n        /* \"#utility.yul\":2990:2996   */\n      dup3\n        /* \"#utility.yul\":2987:3017   */\n      gt\n        /* \"#utility.yul\":2984:3040   */\n      iszero\n      tag_235\n      jumpi\n        /* \"#utility.yul\":3020:3038   */\n      tag_236\n      tag_142\n      jump\t// in\n    tag_236:\n        /* \"#utility.yul\":2984:3040   */\n    tag_235:\n        /* \"#utility.yul\":3058:3087   */\n      tag_237\n        /* \"#utility.yul\":3080:3086   */\n      dup3\n        /* \"#utility.yul\":3058:3087   */\n      tag_141\n      jump\t// in\n    tag_237:\n        /* \"#utility.yul\":3050:3087   */\n      swap1\n      pop\n        /* \"#utility.yul\":3142:3146   */\n      0x20\n        /* \"#utility.yul\":3136:3140   */\n      dup2\n        /* \"#utility.yul\":3132:3147   */\n      add\n        /* \"#utility.yul\":3124:3147   */\n      swap1\n      pop\n        /* \"#utility.yul\":2846:3154   */\n      swap2\n      swap1\n      pop\n      jump\t// out\n        /* \"#utility.yul\":3160:3308   */\n    tag_146:\n        /* \"#utility.yul\":3258:3264   */\n      dup3\n        /* \"#utility.yul\":3253:3256   */\n      dup2\n        /* \"#utility.yul\":3248:3251   */\n      dup4\n        /* \"#utility.yul\":3235:3265   */\n      calldatacopy\n        /* \"#utility.yul\":3299:3300   */\n      0x00\n        /* \"#utility.yul\":3290:3296   */\n      dup4\n        /* \"#utility.yul\":3285:3288   */\n      dup4\n        /* \"#utility.yul\":3281:3297   */\n      add\n        /* \"#utility.yul\":3274:3301   */\n      mstore\n        /* \"#utility.yul\":3160:3308   */\n      pop\n      pop\n      pop\n      jump\t// out\n        /* \"#utility.yul\":3314:3739   */\n    tag_147:\n        /* \"#utility.yul\":3392:3397   */\n      0x00\n        /* \"#utility.yul\":3417:3483   */\n      tag_240\n        /* \"#utility.yul\":3433:3482   */\n      tag_241\n        /* \"#utility.yul\":3475:3481   */\n      dup5\n        /* \"#utility.yul\":3433:3482   */\n      tag_145\n      jump\t// in\n    tag_241:\n        /* \"#utility.yul\":3417:3483   */\n      tag_144\n      jump\t// in\n    tag_240:\n        /* \"#utility.yul\":3408:3483   */\n      swap1\n      pop\n        /* \"#utility.yul\":3506:3512   */\n      dup3\n        /* \"#utility.yul\":3499:3504   */\n      dup2\n        /* \"#utility.yul\":3492:3513   */\n      mstore\n        /* \"#utility.yul\":3544:3548   */\n      0x20\n        /* \"#utility.yul\":3537:3542   */\n      dup2\n        /* \"#utility.yul\":3533:3549   */\n      add\n        /* \"#utility.yul\":3582:3585   */\n      dup5\n        /* \"#utility.yul\":3573:3579   */\n      dup5\n        /* \"#utility.yul\":3568:3571   */\n      dup5\n        /* \"#utility.yul\":3564:3580   */\n      add\n        /* \"#utility.yul\":3561:3586   */\n      gt\n        /* \"#utility.yul\":3558:3670   */\n      iszero\n      tag_242\n      jumpi\n        /* \"#utility.yul\":3589:3668   */\n      tag_243\n      tag_140\n      jump\t// in\n    tag_243:\n        /* \"#utility.yul\":3558:3670   */\n    tag_242:\n        /* \"#utility.yul\":3679:3733   */\n      tag_244\n        /* \"#utility.yul\":3726:3732   */\n      dup5\n        /* \"#utility.yul\":3721:3724   */\n      dup3\n        /* \"#utility.yul\":3716:3719   */\n      dup6\n        /* \"#utility.yul\":3679:3733   */\n      tag_146\n      jump\t// in\n    tag_244:\n        /* \"#utility.yul\":3398:3739   */\n      pop\n        /* \"#utility.yul\":3314:3739   */\n      swap4\n      swap3\n      pop\n      pop\n      pop\n      jump\t// out\n        /* \"#utility.yul\":3759:4099   */\n    tag_148:\n        /* \"#utility.yul\":3815:3820   */\n      0x00\n        /* \"#utility.yul\":3864:3867   */\n      dup3\n        /* \"#utility.yul\":3857:3861   */\n      0x1f\n        /* \"#utility.yul\":3849:3855   */\n      dup4\n        /* \"#utility.yul\":3845:3862   */\n      add\n        /* \"#utility.yul\":3841:3868   */\n      slt\n        /* \"#utility.yul\":3831:3953   */\n      tag_246\n      jumpi\n        /* \"#utility.yul\":3872:3951   */\n      tag_247\n      tag_139\n      jump\t// in\n    tag_247:\n        /* \"#utility.yul\":3831:3953   */\n    tag_246:\n        /* \"#utility.yul\":3989:3995   */\n      dup2\n        /* \"#utility.yul\":3976:3996   */\n      calldataload\n        /* \"#utility.yul\":4014:4093   */\n      tag_248\n        /* \"#utility.yul\":4089:4092   */\n      dup5\n        /* \"#utility.yul\":4081:4087   */\n      dup3\n        /* \"#utility.yul\":4074:4078   */\n      0x20\n        /* \"#utility.yul\":4066:4072   */\n      dup7\n        /* \"#utility.yul\":4062:4079   */\n      add\n        /* \"#utility.yul\":4014:4093   */\n      tag_147\n      jump\t// in\n    tag_248:\n        /* \"#utility.yul\":4005:4093   */\n      swap2\n      pop\n        /* \"#utility.yul\":3821:4099   */\n      pop\n        /* \"#utility.yul\":3759:4099   */\n      swap3\n      swap2\n      pop\n      pop\n      jump\t// out\n        /* \"#utility.yul\":4105:4759   */\n    tag_25:\n        /* \"#utility.yul\":4183:4189   */\n      0x00\n        /* \"#utility.yul\":4191:4197   */\n      0x00\n        /* \"#utility.yul\":4240:4242   */\n      0x40\n        /* \"#utility.yul\":4228:4237   */\n      dup4\n        /* \"#utility.yul\":4219:4226   */\n      dup6\n        /* \"#utility.yul\":4215:4238   */\n      sub\n        /* \"#utility.yul\":4211:4243   */\n      slt\n        /* \"#utility.yul\":4208:4327   */\n      iszero\n      tag_250\n      jumpi\n        /* \"#utility.yul\":4246:4325   */\n      tag_251\n      tag_129\n      jump\t// in\n    tag_251:\n        /* \"#utility.yul\":4208:4327   */\n    tag_250:\n        /* \"#utility.yul\":4366:4367   */\n      0x00\n        /* \"#utility.yul\":4391:4444   */\n      tag_252\n        /* \"#utility.yul\":4436:4443   */\n      dup6\n        /* \"#utility.yul\":4427:4433   */\n      dup3\n        /* \"#utility.yul\":4416:4425   */\n      dup7\n        /* \"#utility.yul\":4412:4434   */\n      add\n        /* \"#utility.yul\":4391:4444   */\n      tag_138\n      jump\t// in\n    tag_252:\n        /* \"#utility.yul\":4381:4444   */\n      swap3\n      pop\n        /* \"#utility.yul\":4337:4454   */\n      pop\n        /* \"#utility.yul\":4521:4523   */\n      0x20\n        /* \"#utility.yul\":4510:4519   */\n      dup4\n        /* \"#utility.yul\":4506:4524   */\n      add\n        /* \"#utility.yul\":4493:4525   */\n      calldataload\n        /* \"#utility.yul\":4552:4570   */\n      0xffffffffffffffff\n        /* \"#utility.yul\":4544:4550   */\n      dup2\n        /* \"#utility.yul\":4541:4571   */\n      gt\n        /* \"#utility.yul\":4538:4655   */\n      iszero\n      tag_253\n      jumpi\n        /* \"#utility.yul\":4574:4653   */\n      tag_254\n      tag_130\n      jump\t// in\n    tag_254:\n        /* \"#utility.yul\":4538:4655   */\n    tag_253:\n        /* \"#utility.yul\":4679:4742   */\n      tag_255\n        /* \"#utility.yul\":4734:4741   */\n      dup6\n        /* \"#utility.yul\":4725:4731   */\n      dup3\n        /* \"#utility.yul\":4714:4723   */\n      dup7\n        /* \"#utility.yul\":4710:4732   */\n      add\n        /* \"#utility.yul\":4679:4742   */\n      tag_148\n      jump\t// in\n    tag_255:\n        /* \"#utility.yul\":4669:4742   */\n      swap2\n      pop\n        /* \"#utility.yul\":4464:4752   */\n      pop\n        /* \"#utility.yul\":4105:4759   */\n      swap3\n      pop\n      swap3\n      swap1\n      pop\n      jump\t// out\n        /* \"#utility.yul\":4765:4864   */\n    tag_149:\n        /* \"#utility.yul\":4817:4823   */\n      0x00\n        /* \"#utility.yul\":4851:4856   */\n      dup2\n        /* \"#utility.yul\":4845:4857   */\n      mload\n        /* \"#utility.yul\":4835:4857   */\n      swap1\n      pop\n        /* \"#utility.yul\":4765:4864   */\n      swap2\n      swap1\n      pop\n      jump\t// out\n        /* \"#utility.yul\":4870:5039   */\n    tag_150:\n        /* \"#utility.yul\":4954:4965   */\n      0x00\n        /* \"#utility.yul\":4988:4994   */\n      dup3\n        /* \"#utility.yul\":4983:4986   */\n      dup3\n        /* \"#utility.yul\":4976:4995   */\n      mstore\n        /* \"#utility.yul\":5028:5032   */\n      0x20\n        /* \"#utility.yul\":5023:5026   */\n      dup3\n        /* \"#utility.yul\":5019:5033   */\n      add\n        /* \"#utility.yul\":5004:5033   */\n      swap1\n      pop\n        /* \"#utility.yul\":4870:5039   */\n      swap3\n      swap2\n      pop\n      pop\n      jump\t// out\n        /* \"#utility.yul\":5045:5184   */\n    tag_151:\n        /* \"#utility.yul\":5134:5140   */\n      dup3\n        /* \"#utility.yul\":5129:5132   */\n      dup2\n        /* \"#utility.yul\":5124:5127   */\n      dup4\n        /* \"#utility.yul\":5118:5141   */\n      mcopy\n        /* \"#utility.yul\":5175:5176   */\n      0x00\n        /* \"#utility.yul\":5166:5172   */\n      dup4\n        /* \"#utility.yul\":5161:5164   */\n      dup4\n        /* \"#utility.yul\":5157:5173   */\n      add\n        /* \"#utility.yul\":5150:5177   */\n      mstore\n        /* \"#utility.yul\":5045:5184   */\n      pop\n      pop\n      pop\n      jump\t// out\n        /* \"#utility.yul\":5190:5567   */\n    tag_152:\n        /* \"#utility.yul\":5278:5281   */\n      0x00\n        /* \"#utility.yul\":5306:5345   */\n      tag_260\n        /* \"#utility.yul\":5339:5344   */\n      dup3\n        /* \"#utility.yul\":5306:5345   */\n      tag_149\n      jump\t// in\n    tag_260:\n        /* \"#utility.yul\":5361:5432   */\n      tag_261\n        /* \"#utility.yul\":5425:5431   */\n      dup2\n        /* \"#utility.yul\":5420:5423   */\n      dup6\n        /* \"#utility.yul\":5361:5432   */\n      tag_150\n      jump\t// in\n    tag_261:\n        /* \"#utility.yul\":5354:5432   */\n      swap4\n      pop\n        /* \"#utility.yul\":5441:5506   */\n      tag_262\n        /* \"#utility.yul\":5499:5505   */\n      dup2\n        /* \"#utility.yul\":5494:5497   */\n      dup6\n        /* \"#utility.yul\":5487:5491   */\n      0x20\n        /* \"#utility.yul\":5480:5485   */\n      dup7\n        /* \"#utility.yul\":5476:5492   */\n      add\n        /* \"#utility.yul\":5441:5506   */\n      tag_151\n      jump\t// in\n    tag_262:\n        /* \"#utility.yul\":5531:5560   */\n      tag_263\n        /* \"#utility.yul\":5553:5559   */\n      dup2\n        /* \"#utility.yul\":5531:5560   */\n      tag_141\n      jump\t// in\n    tag_263:\n        /* \"#utility.yul\":5526:5529   */\n      dup5\n        /* \"#utility.yul\":5522:5561   */\n      add\n        /* \"#utility.yul\":5515:5561   */\n      swap2\n      pop\n        /* \"#utility.yul\":5282:5567   */\n      pop\n        /* \"#utility.yul\":5190:5567   */\n      swap3\n      swap2\n      pop\n      pop\n      jump\t// out\n        /* \"#utility.yul\":5573:5886   */\n    tag_28:\n        /* \"#utility.yul\":5686:5690   */\n      0x00\n        /* \"#utility.yul\":5724:5726   */\n      0x20\n        /* \"#utility.yul\":5713:5722   */\n      dup3\n        /* \"#utility.yul\":5709:5727   */\n      add\n        /* \"#utility.yul\":5701:5727   */\n      swap1\n      pop\n        /* \"#utility.yul\":5773:5782   */\n      dup2\n        /* \"#utility.yul\":5767:5771   */\n      dup2\n        /* \"#utility.yul\":5763:5783   */\n      sub\n        /* \"#utility.yul\":5759:5760   */\n      0x00\n        /* \"#utility.yul\":5748:5757   */\n      dup4\n        /* \"#utility.yul\":5744:5761   */\n      add\n        /* \"#utility.yul\":5737:5784   */\n      mstore\n        /* \"#utility.yul\":5801:5879   */\n      tag_265\n        /* \"#utility.yul\":5874:5878   */\n      dup2\n        /* \"#utility.yul\":5865:5871   */\n      dup5\n        /* \"#utility.yul\":5801:5879   */\n      tag_152\n      jump\t// in\n    tag_265:\n        /* \"#utility.yul\":5793:5879   */\n      swap1\n      pop\n        /* \"#utility.yul\":5573:5886   */\n      swap3\n      swap2\n      pop\n      pop\n      jump\t// out\n        /* \"#utility.yul\":5892:5952   */\n    tag_153:\n        /* \"#utility.yul\":5920:5923   */\n      0x00\n        /* \"#utility.yul\":5941:5946   */\n      dup2\n        /* \"#utility.yul\":5934:5946   */\n      swap1\n      pop\n        /* \"#utility.yul\":5892:5952   */\n      swap2\n      swap1\n      pop\n      jump\t// out\n        /* \"#utility.yul\":5958:6100   */\n    tag_154:\n        /* \"#utility.yul\":6008:6017   */\n      0x00\n        /* \"#utility.yul\":6041:6094   */\n      tag_268\n        /* \"#utility.yul\":6059:6093   */\n      tag_269\n        /* \"#utility.yul\":6068:6092   */\n      tag_270\n        /* \"#utility.yul\":6086:6091   */\n      dup5\n        /* \"#utility.yul\":6068:6092   */\n      tag_131\n      jump\t// in\n    tag_270:\n        /* \"#utility.yul\":6059:6093   */\n      tag_153\n      jump\t// in\n    tag_269:\n        /* \"#utility.yul\":6041:6094   */\n      tag_131\n      jump\t// in\n    tag_268:\n        /* \"#utility.yul\":6028:6094   */\n      swap1\n      pop\n        /* \"#utility.yul\":5958:6100   */\n      swap2\n      swap1\n      pop\n      jump\t// out\n        /* \"#utility.yul\":6106:6232   */\n    tag_155:\n        /* \"#utility.yul\":6156:6165   */\n      0x00\n        /* \"#utility.yul\":6189:6226   */\n      tag_272\n        /* \"#utility.yul\":6220:6225   */\n      dup3\n        /* \"#utility.yul\":6189:6226   */\n      tag_154\n      jump\t// in\n    tag_272:\n        /* \"#utility.yul\":6176:6226   */\n      swap1\n      pop\n        /* \"#utility.yul\":6106:6232   */\n      swap2\n      swap1\n      pop\n      jump\t// out\n        /* \"#utility.yul\":6238:6386   */\n    tag_156:\n        /* \"#utility.yul\":6310:6319   */\n      0x00\n        /* \"#utility.yul\":6343:6380   */\n      tag_274\n        /* \"#utility.yul\":6374:6379   */\n      dup3\n        /* \"#utility.yul\":6343:6380   */\n      tag_155\n      jump\t// in\n    tag_274:\n        /* \"#utility.yul\":6330:6380   */\n      swap1\n      pop\n        /* \"#utility.yul\":6238:6386   */\n      swap2\n      swap1\n      pop\n      jump\t// out\n        /* \"#utility.yul\":6392:6567   */\n    tag_157:\n        /* \"#utility.yul\":6501:6560   */\n      tag_276\n        /* \"#utility.yul\":6554:6559   */\n      dup2\n        /* \"#utility.yul\":6501:6560   */\n      tag_156\n      jump\t// in\n    tag_276:\n        /* \"#utility.yul\":6496:6499   */\n      dup3\n        /* \"#utility.yul\":6489:6561   */\n      mstore\n        /* \"#utility.yul\":6392:6567   */\n      pop\n      pop\n      jump\t// out\n        /* \"#utility.yul\":6573:6839   */\n    tag_32:\n        /* \"#utility.yul\":6688:6692   */\n      0x00\n        /* \"#utility.yul\":6726:6728   */\n      0x20\n        /* \"#utility.yul\":6715:6724   */\n      dup3\n        /* \"#utility.yul\":6711:6729   */\n      add\n        /* \"#utility.yul\":6703:6729   */\n      swap1\n      pop\n        /* \"#utility.yul\":6739:6832   */\n      tag_278\n        /* \"#utility.yul\":6829:6830   */\n      0x00\n        /* \"#utility.yul\":6818:6827   */\n      dup4\n        /* \"#utility.yul\":6814:6831   */\n      add\n        /* \"#utility.yul\":6805:6811   */\n      dup5\n        /* \"#utility.yul\":6739:6832   */\n      tag_157\n      jump\t// in\n    tag_278:\n        /* \"#utility.yul\":6573:6839   */\n      swap3\n      swap2\n      pop\n      pop\n      jump\t// out\n        /* \"#utility.yul\":6845:7174   */\n    tag_35:\n        /* \"#utility.yul\":6904:6910   */\n      0x00\n        /* \"#utility.yul\":6953:6955   */\n      0x20\n        /* \"#utility.yul\":6941:6950   */\n      dup3\n        /* \"#utility.yul\":6932:6939   */\n      dup5\n        /* \"#utility.yul\":6928:6951   */\n      sub\n        /* \"#utility.yul\":6924:6956   */\n      slt\n        /* \"#utility.yul\":6921:7040   */\n      iszero\n      tag_280\n      jumpi\n        /* \"#utility.yul\":6959:7038   */\n      tag_281\n      tag_129\n      jump\t// in\n    tag_281:\n        /* \"#utility.yul\":6921:7040   */\n    tag_280:\n        /* \"#utility.yul\":7079:7080   */\n      0x00\n        /* \"#utility.yul\":7104:7157   */\n      tag_282\n        /* \"#utility.yul\":7149:7156   */\n      dup5\n        /* \"#utility.yul\":7140:7146   */\n      dup3\n        /* \"#utility.yul\":7129:7138   */\n      dup6\n        /* \"#utility.yul\":7125:7147   */\n      add\n        /* \"#utility.yul\":7104:7157   */\n      tag_138\n      jump\t// in\n    tag_282:\n        /* \"#utility.yul\":7094:7157   */\n      swap2\n      pop\n        /* \"#utility.yul\":7050:7167   */\n      pop\n        /* \"#utility.yul\":6845:7174   */\n      swap3\n      swap2\n      pop\n      pop\n      jump\t// out\n        /* \"#utility.yul\":7180:7298   */\n    tag_158:\n        /* \"#utility.yul\":7267:7291   */\n      tag_284\n        /* \"#utility.yul\":7285:7290   */\n      dup2\n        /* \"#utility.yul\":7267:7291   */\n      tag_132\n      jump\t// in\n    tag_284:\n        /* \"#utility.yul\":7262:7265   */\n      dup3\n        /* \"#utility.yul\":7255:7292   */\n      mstore\n        /* \"#utility.yul\":7180:7298   */\n      pop\n      pop\n      jump\t// out\n        /* \"#utility.yul\":7304:8372   */\n    tag_38:\n        /* \"#utility.yul\":7605:7609   */\n      0x00\n        /* \"#utility.yul\":7643:7646   */\n      0xe0\n        /* \"#utility.yul\":7632:7641   */\n      dup3\n        /* \"#utility.yul\":7628:7647   */\n      add\n        /* \"#utility.yul\":7620:7647   */\n      swap1\n      pop\n        /* \"#utility.yul\":7657:7728   */\n      tag_286\n        /* \"#utility.yul\":7725:7726   */\n      0x00\n        /* \"#utility.yul\":7714:7723   */\n      dup4\n        /* \"#utility.yul\":7710:7727   */\n      add\n        /* \"#utility.yul\":7701:7707   */\n      dup11\n        /* \"#utility.yul\":7657:7728   */\n      tag_136\n      jump\t// in\n    tag_286:\n        /* \"#utility.yul\":7738:7810   */\n      tag_287\n        /* \"#utility.yul\":7806:7808   */\n      0x20\n        /* \"#utility.yul\":7795:7804   */\n      dup4\n        /* \"#utility.yul\":7791:7809   */\n      add\n        /* \"#utility.yul\":7782:7788   */\n      dup10\n        /* \"#utility.yul\":7738:7810   */\n      tag_158\n      jump\t// in\n    tag_287:\n        /* \"#utility.yul\":7820:7892   */\n      tag_288\n        /* \"#utility.yul\":7888:7890   */\n      0x40\n        /* \"#utility.yul\":7877:7886   */\n      dup4\n        /* \"#utility.yul\":7873:7891   */\n      add\n        /* \"#utility.yul\":7864:7870   */\n      dup9\n        /* \"#utility.yul\":7820:7892   */\n      tag_158\n      jump\t// in\n    tag_288:\n        /* \"#utility.yul\":7939:7948   */\n      dup2\n        /* \"#utility.yul\":7933:7937   */\n      dup2\n        /* \"#utility.yul\":7929:7949   */\n      sub\n        /* \"#utility.yul\":7924:7926   */\n      0x60\n        /* \"#utility.yul\":7913:7922   */\n      dup4\n        /* \"#utility.yul\":7909:7927   */\n      add\n        /* \"#utility.yul\":7902:7950   */\n      mstore\n        /* \"#utility.yul\":7967:8045   */\n      tag_289\n        /* \"#utility.yul\":8040:8044   */\n      dup2\n        /* \"#utility.yul\":8031:8037   */\n      dup8\n        /* \"#utility.yul\":7967:8045   */\n      tag_152\n      jump\t// in\n    tag_289:\n        /* \"#utility.yul\":7959:8045   */\n      swap1\n      pop\n        /* \"#utility.yul\":8093:8102   */\n      dup2\n        /* \"#utility.yul\":8087:8091   */\n      dup2\n        /* \"#utility.yul\":8083:8103   */\n      sub\n        /* \"#utility.yul\":8077:8080   */\n      0x80\n        /* \"#utility.yul\":8066:8075   */\n      dup4\n        /* \"#utility.yul\":8062:8081   */\n      add\n        /* \"#utility.yul\":8055:8104   */\n      mstore\n        /* \"#utility.yul\":8121:8199   */\n      tag_290\n        /* \"#utility.yul\":8194:8198   */\n      dup2\n        /* \"#utility.yul\":8185:8191   */\n      dup7\n        /* \"#utility.yul\":8121:8199   */\n      tag_152\n      jump\t// in\n    tag_290:\n        /* \"#utility.yul\":8113:8199   */\n      swap1\n      pop\n        /* \"#utility.yul\":8209:8282   */\n      tag_291\n        /* \"#utility.yul\":8277:8280   */\n      0xa0\n        /* \"#utility.yul\":8266:8275   */\n      dup4\n        /* \"#utility.yul\":8262:8281   */\n      add\n        /* \"#utility.yul\":8253:8259   */\n      dup6\n        /* \"#utility.yul\":8209:8282   */\n      tag_136\n      jump\t// in\n    tag_291:\n        /* \"#utility.yul\":8292:8365   */\n      tag_292\n        /* \"#utility.yul\":8360:8363   */\n      0xc0\n        /* \"#utility.yul\":8349:8358   */\n      dup4\n        /* \"#utility.yul\":8345:8364   */\n      add\n        /* \"#utility.yul\":8336:8342   */\n      dup5\n        /* \"#utility.yul\":8292:8365   */\n      tag_136\n      jump\t// in\n    tag_292:\n        /* \"#utility.yul\":7304:8372   */\n      swap9\n      swap8\n      pop\n      pop\n      pop\n      pop\n      pop\n      pop\n      pop\n      pop\n      jump\t// out\n        /* \"#utility.yul\":8378:9357   */\n    tag_44:\n        /* \"#utility.yul\":8475:8481   */\n      0x00\n        /* \"#utility.yul\":8483:8489   */\n      0x00\n        /* \"#utility.yul\":8491:8497   */\n      0x00\n        /* \"#utility.yul\":8540:8542   */\n      0x60\n        /* \"#utility.yul\":8528:8537   */\n      dup5\n        /* \"#utility.yul\":8519:8526   */\n      dup7\n        /* \"#utility.yul\":8515:8538   */\n      sub\n        /* \"#utility.yul\":8511:8543   */\n      slt\n        /* \"#utility.yul\":8508:8627   */\n      iszero\n      tag_294\n      jumpi\n        /* \"#utility.yul\":8546:8625   */\n      tag_295\n      tag_129\n      jump\t// in\n    tag_295:\n        /* \"#utility.yul\":8508:8627   */\n    tag_294:\n        /* \"#utility.yul\":8666:8667   */\n      0x00\n        /* \"#utility.yul\":8691:8744   */\n      tag_296\n        /* \"#utility.yul\":8736:8743   */\n      dup7\n        /* \"#utility.yul\":8727:8733   */\n      dup3\n        /* \"#utility.yul\":8716:8725   */\n      dup8\n        /* \"#utility.yul\":8712:8734   */\n      add\n        /* \"#utility.yul\":8691:8744   */\n      tag_134\n      jump\t// in\n    tag_296:\n        /* \"#utility.yul\":8681:8744   */\n      swap4\n      pop\n        /* \"#utility.yul\":8637:8754   */\n      pop\n        /* \"#utility.yul\":8821:8823   */\n      0x20\n        /* \"#utility.yul\":8810:8819   */\n      dup5\n        /* \"#utility.yul\":8806:8824   */\n      add\n        /* \"#utility.yul\":8793:8825   */\n      calldataload\n        /* \"#utility.yul\":8852:8870   */\n      0xffffffffffffffff\n        /* \"#utility.yul\":8844:8850   */\n      dup2\n        /* \"#utility.yul\":8841:8871   */\n      gt\n        /* \"#utility.yul\":8838:8955   */\n      iszero\n      tag_297\n      jumpi\n        /* \"#utility.yul\":8874:8953   */\n      tag_298\n      tag_130\n      jump\t// in\n    tag_298:\n        /* \"#utility.yul\":8838:8955   */\n    tag_297:\n        /* \"#utility.yul\":8979:9042   */\n      tag_299\n        /* \"#utility.yul\":9034:9041   */\n      dup7\n        /* \"#utility.yul\":9025:9031   */\n      dup3\n        /* \"#utility.yul\":9014:9023   */\n      dup8\n        /* \"#utility.yul\":9010:9032   */\n      add\n        /* \"#utility.yul\":8979:9042   */\n      tag_148\n      jump\t// in\n    tag_299:\n        /* \"#utility.yul\":8969:9042   */\n      swap3\n      pop\n        /* \"#utility.yul\":8764:9052   */\n      pop\n        /* \"#utility.yul\":9119:9121   */\n      0x40\n        /* \"#utility.yul\":9108:9117   */\n      dup5\n        /* \"#utility.yul\":9104:9122   */\n      add\n        /* \"#utility.yul\":9091:9123   */\n      calldataload\n        /* \"#utility.yul\":9150:9168   */\n      0xffffffffffffffff\n        /* \"#utility.yul\":9142:9148   */\n      dup2\n        /* \"#utility.yul\":9139:9169   */\n      gt\n        /* \"#utility.yul\":9136:9253   */\n      iszero\n      tag_300\n      jumpi\n        /* \"#utility.yul\":9172:9251   */\n      tag_301\n      tag_130\n      jump\t// in\n    tag_301:\n        /* \"#utility.yul\":9136:9253   */\n    tag_300:\n        /* \"#utility.yul\":9277:9340   */\n      tag_302\n        /* \"#utility.yul\":9332:9339   */\n      dup7\n        /* \"#utility.yul\":9323:9329   */\n      dup3\n        /* \"#utility.yul\":9312:9321   */\n      dup8\n        /* \"#utility.yul\":9308:9330   */\n      add\n        /* \"#utility.yul\":9277:9340   */\n      tag_148\n      jump\t// in\n    tag_302:\n        /* \"#utility.yul\":9267:9340   */\n      swap2\n      pop\n        /* \"#utility.yul\":9062:9350   */\n      pop\n        /* \"#utility.yul\":8378:9357   */\n      swap3\n      pop\n      swap3\n      pop\n      swap3\n      jump\t// out\n        /* \"#utility.yul\":9363:9477   */\n    tag_159:\n        /* \"#utility.yul\":9430:9436   */\n      0x00\n        /* \"#utility.yul\":9464:9469   */\n      dup2\n        /* \"#utility.yul\":9458:9470   */\n      mload\n        /* \"#utility.yul\":9448:9470   */\n      swap1\n      pop\n        /* \"#utility.yul\":9363:9477   */\n      swap2\n      swap1\n      pop\n      jump\t// out\n        /* \"#utility.yul\":9483:9667   */\n    tag_160:\n        /* \"#utility.yul\":9582:9593   */\n      0x00\n        /* \"#utility.yul\":9616:9622   */\n      dup3\n        /* \"#utility.yul\":9611:9614   */\n      dup3\n        /* \"#utility.yul\":9604:9623   */\n      mstore\n        /* \"#utility.yul\":9656:9660   */\n      0x20\n        /* \"#utility.yul\":9651:9654   */\n      dup3\n        /* \"#utility.yul\":9647:9661   */\n      add\n        /* \"#utility.yul\":9632:9661   */\n      swap1\n      pop\n        /* \"#utility.yul\":9483:9667   */\n      swap3\n      swap2\n      pop\n      pop\n      jump\t// out\n        /* \"#utility.yul\":9673:9805   */\n    tag_161:\n        /* \"#utility.yul\":9740:9744   */\n      0x00\n        /* \"#utility.yul\":9763:9766   */\n      dup2\n        /* \"#utility.yul\":9755:9766   */\n      swap1\n      pop\n        /* \"#utility.yul\":9793:9797   */\n      0x20\n        /* \"#utility.yul\":9788:9791   */\n      dup3\n        /* \"#utility.yul\":9784:9798   */\n      add\n        /* \"#utility.yul\":9776:9798   */\n      swap1\n      pop\n        /* \"#utility.yul\":9673:9805   */\n      swap2\n      swap1\n      pop\n      jump\t// out\n        /* \"#utility.yul\":9811:9919   */\n    tag_162:\n        /* \"#utility.yul\":9888:9912   */\n      tag_307\n        /* \"#utility.yul\":9906:9911   */\n      dup2\n        /* \"#utility.yul\":9888:9912   */\n      tag_135\n      jump\t// in\n    tag_307:\n        /* \"#utility.yul\":9883:9886   */\n      dup3\n        /* \"#utility.yul\":9876:9913   */\n      mstore\n        /* \"#utility.yul\":9811:9919   */\n      pop\n      pop\n      jump\t// out\n        /* \"#utility.yul\":9925:10104   */\n    tag_163:\n        /* \"#utility.yul\":9994:10004   */\n      0x00\n        /* \"#utility.yul\":10015:10061   */\n      tag_309\n        /* \"#utility.yul\":10057:10060   */\n      dup4\n        /* \"#utility.yul\":10049:10055   */\n      dup4\n        /* \"#utility.yul\":10015:10061   */\n      tag_162\n      jump\t// in\n    tag_309:\n        /* \"#utility.yul\":10093:10097   */\n      0x20\n        /* \"#utility.yul\":10088:10091   */\n      dup4\n        /* \"#utility.yul\":10084:10098   */\n      add\n        /* \"#utility.yul\":10070:10098   */\n      swap1\n      pop\n        /* \"#utility.yul\":9925:10104   */\n      swap3\n      swap2\n      pop\n      pop\n      jump\t// out\n        /* \"#utility.yul\":10110:10223   */\n    tag_164:\n        /* \"#utility.yul\":10180:10184   */\n      0x00\n        /* \"#utility.yul\":10212:10216   */\n      0x20\n        /* \"#utility.yul\":10207:10210   */\n      dup3\n        /* \"#utility.yul\":10203:10217   */\n      add\n        /* \"#utility.yul\":10195:10217   */\n      swap1\n      pop\n        /* \"#utility.yul\":10110:10223   */\n      swap2\n      swap1\n      pop\n      jump\t// out\n        /* \"#utility.yul\":10259:10991   */\n    tag_165:\n        /* \"#utility.yul\":10378:10381   */\n      0x00\n        /* \"#utility.yul\":10407:10461   */\n      tag_312\n        /* \"#utility.yul\":10455:10460   */\n      dup3\n        /* \"#utility.yul\":10407:10461   */\n      tag_159\n      jump\t// in\n    tag_312:\n        /* \"#utility.yul\":10477:10563   */\n      tag_313\n        /* \"#utility.yul\":10556:10562   */\n      dup2\n        /* \"#utility.yul\":10551:10554   */\n      dup6\n        /* \"#utility.yul\":10477:10563   */\n      tag_160\n      jump\t// in\n    tag_313:\n        /* \"#utility.yul\":10470:10563   */\n      swap4\n      pop\n        /* \"#utility.yul\":10587:10643   */\n      tag_314\n        /* \"#utility.yul\":10637:10642   */\n      dup4\n        /* \"#utility.yul\":10587:10643   */\n      tag_161\n      jump\t// in\n    tag_314:\n        /* \"#utility.yul\":10666:10673   */\n      dup1\n        /* \"#utility.yul\":10697:10698   */\n      0x00\n        /* \"#utility.yul\":10682:10966   */\n    tag_315:\n        /* \"#utility.yul\":10707:10713   */\n      dup4\n        /* \"#utility.yul\":10704:10705   */\n      dup2\n        /* \"#utility.yul\":10701:10714   */\n      lt\n        /* \"#utility.yul\":10682:10966   */\n      iszero\n      tag_317\n      jumpi\n        /* \"#utility.yul\":10783:10789   */\n      dup2\n        /* \"#utility.yul\":10777:10790   */\n      mload\n        /* \"#utility.yul\":10810:10873   */\n      tag_318\n        /* \"#utility.yul\":10869:10872   */\n      dup9\n        /* \"#utility.yul\":10854:10867   */\n      dup3\n        /* \"#utility.yul\":10810:10873   */\n      tag_163\n      jump\t// in\n    tag_318:\n        /* \"#utility.yul\":10803:10873   */\n      swap8\n      pop\n        /* \"#utility.yul\":10896:10956   */\n      tag_319\n        /* \"#utility.yul\":10949:10955   */\n      dup4\n        /* \"#utility.yul\":10896:10956   */\n      tag_164\n      jump\t// in\n    tag_319:\n        /* \"#utility.yul\":10886:10956   */\n      swap3\n      pop\n        /* \"#utility.yul\":10742:10966   */\n      pop\n        /* \"#utility.yul\":10729:10730   */\n      0x01\n        /* \"#utility.yul\":10726:10727   */\n      dup2\n        /* \"#utility.yul\":10722:10731   */\n      add\n        /* \"#utility.yul\":10717:10731   */\n      swap1\n      pop\n        /* \"#utility.yul\":10682:10966   */\n      jump(tag_315)\n    tag_317:\n        /* \"#utility.yul\":10686:10700   */\n      pop\n        /* \"#utility.yul\":10982:10985   */\n      dup6\n        /* \"#utility.yul\":10975:10985   */\n      swap4\n      pop\n        /* \"#utility.yul\":10383:10991   */\n      pop\n      pop\n      pop\n        /* \"#utility.yul\":10259:10991   */\n      swap3\n      swap2\n      pop\n      pop\n      jump\t// out\n        /* \"#utility.yul\":10997:11370   */\n    tag_50:\n        /* \"#utility.yul\":11140:11144   */\n      0x00\n        /* \"#utility.yul\":11178:11180   */\n      0x20\n        /* \"#utility.yul\":11167:11176   */\n      dup3\n        /* \"#utility.yul\":11163:11181   */\n      add\n        /* \"#utility.yul\":11155:11181   */\n      swap1\n      pop\n        /* \"#utility.yul\":11227:11236   */\n      dup2\n        /* \"#utility.yul\":11221:11225   */\n      dup2\n        /* \"#utility.yul\":11217:11237   */\n      sub\n        /* \"#utility.yul\":11213:11214   */\n      0x00\n        /* \"#utility.yul\":11202:11211   */\n      dup4\n        /* \"#utility.yul\":11198:11215   */\n      add\n        /* \"#utility.yul\":11191:11238   */\n      mstore\n        /* \"#utility.yul\":11255:11363   */\n      tag_321\n        /* \"#utility.yul\":11358:11362   */\n      dup2\n        /* \"#utility.yul\":11349:11355   */\n      dup5\n        /* \"#utility.yul\":11255:11363   */\n      tag_165\n      jump\t// in\n    tag_321:\n        /* \"#utility.yul\":11247:11363   */\n      swap1\n      pop\n        /* \"#utility.yul\":10997:11370   */\n      swap3\n      swap2\n      pop\n      pop\n      jump\t// out\n        /* \"#utility.yul\":11376:11543   */\n    tag_166:\n        /* \"#utility.yul\":11516:11535   */\n      0x496e76616c6964207265636f7264204944000000000000000000000000000000\n        /* \"#utility.yul\":11512:11513   */\n      0x00\n        /* \"#utility.yul\":11504:11510   */\n      dup3\n        /* \"#utility.yul\":11500:11514   */\n      add\n        /* \"#utility.yul\":11493:11536   */\n      mstore\n        /* \"#utility.yul\":11376:11543   */\n      pop\n      jump\t// out\n        /* \"#utility.yul\":11549:11915   */\n    tag_167:\n        /* \"#utility.yul\":11691:11694   */\n      0x00\n        /* \"#utility.yul\":11712:11779   */\n      tag_324\n        /* \"#utility.yul\":11776:11778   */\n      0x11\n        /* \"#utility.yul\":11771:11774   */\n      dup4\n        /* \"#utility.yul\":11712:11779   */\n      tag_150\n      jump\t// in\n    tag_324:\n        /* \"#utility.yul\":11705:11779   */\n      swap2\n      pop\n        /* \"#utility.yul\":11788:11881   */\n      tag_325\n        /* \"#utility.yul\":11877:11880   */\n      dup3\n        /* \"#utility.yul\":11788:11881   */\n      tag_166\n      jump\t// in\n    tag_325:\n        /* \"#utility.yul\":11906:11908   */\n      0x20\n        /* \"#utility.yul\":11901:11904   */\n      dup3\n        /* \"#utility.yul\":11897:11909   */\n      add\n        /* \"#utility.yul\":11890:11909   */\n      swap1\n      pop\n        /* \"#utility.yul\":11549:11915   */\n      swap2\n      swap1\n      pop\n      jump\t// out\n        /* \"#utility.yul\":11921:12340   */\n    tag_61:\n        /* \"#utility.yul\":12087:12091   */\n      0x00\n        /* \"#utility.yul\":12125:12127   */\n      0x20\n        /* \"#utility.yul\":12114:12123   */\n      dup3\n        /* \"#utility.yul\":12110:12128   */\n      add\n        /* \"#utility.yul\":12102:12128   */\n      swap1\n      pop\n        /* \"#utility.yul\":12174:12183   */\n      dup2\n        /* \"#utility.yul\":12168:12172   */\n      dup2\n        /* \"#utility.yul\":12164:12184   */\n      sub\n        /* \"#utility.yul\":12160:12161   */\n      0x00\n        /* \"#utility.yul\":12149:12158   */\n      dup4\n        /* \"#utility.yul\":12145:12162   */\n      add\n        /* \"#utility.yul\":12138:12185   */\n      mstore\n        /* \"#utility.yul\":12202:12333   */\n      tag_327\n        /* \"#utility.yul\":12328:12332   */\n      dup2\n        /* \"#utility.yul\":12202:12333   */\n      tag_167\n      jump\t// in\n    tag_327:\n        /* \"#utility.yul\":12194:12333   */\n      swap1\n      pop\n        /* \"#utility.yul\":11921:12340   */\n      swap2\n      swap1\n      pop\n      jump\t// out\n        /* \"#utility.yul\":12346:12678   */\n    tag_63:\n        /* \"#utility.yul\":12467:12471   */\n      0x00\n        /* \"#utility.yul\":12505:12507   */\n      0x40\n        /* \"#utility.yul\":12494:12503   */\n      dup3\n        /* \"#utility.yul\":12490:12508   */\n      add\n        /* \"#utility.yul\":12482:12508   */\n      swap1\n      pop\n        /* \"#utility.yul\":12518:12589   */\n      tag_329\n        /* \"#utility.yul\":12586:12587   */\n      0x00\n        /* \"#utility.yul\":12575:12584   */\n      dup4\n        /* \"#utility.yul\":12571:12588   */\n      add\n        /* \"#utility.yul\":12562:12568   */\n      dup6\n        /* \"#utility.yul\":12518:12589   */\n      tag_158\n      jump\t// in\n    tag_329:\n        /* \"#utility.yul\":12599:12671   */\n      tag_330\n        /* \"#utility.yul\":12667:12669   */\n      0x20\n        /* \"#utility.yul\":12656:12665   */\n      dup4\n        /* \"#utility.yul\":12652:12670   */\n      add\n        /* \"#utility.yul\":12643:12649   */\n      dup5\n        /* \"#utility.yul\":12599:12671   */\n      tag_158\n      jump\t// in\n    tag_330:\n        /* \"#utility.yul\":12346:12678   */\n      swap4\n      swap3\n      pop\n      pop\n      pop\n      jump\t// out\n        /* \"#utility.yul\":12684:12774   */\n    tag_168:\n        /* \"#utility.yul\":12718:12725   */\n      0x00\n        /* \"#utility.yul\":12761:12766   */\n      dup2\n        /* \"#utility.yul\":12754:12767   */\n      iszero\n        /* \"#utility.yul\":12747:12768   */\n      iszero\n        /* \"#utility.yul\":12736:12768   */\n      swap1\n      pop\n        /* \"#utility.yul\":12684:12774   */\n      swap2\n      swap1\n      pop\n      jump\t// out\n        /* \"#utility.yul\":12780:12896   */\n    tag_169:\n        /* \"#utility.yul\":12850:12871   */\n      tag_333\n        /* \"#utility.yul\":12865:12870   */\n      dup2\n        /* \"#utility.yul\":12850:12871   */\n      tag_168\n      jump\t// in\n    tag_333:\n        /* \"#utility.yul\":12843:12848   */\n      dup2\n        /* \"#utility.yul\":12840:12872   */\n      eq\n        /* \"#utility.yul\":12830:12890   */\n      tag_334\n      jumpi\n        /* \"#utility.yul\":12886:12887   */\n      0x00\n        /* \"#utility.yul\":12883:12884   */\n      0x00\n        /* \"#utility.yul\":12876:12888   */\n      revert\n        /* \"#utility.yul\":12830:12890   */\n    tag_334:\n        /* \"#utility.yul\":12780:12896   */\n      pop\n      jump\t// out\n        /* \"#utility.yul\":12902:13039   */\n    tag_170:\n        /* \"#utility.yul\":12956:12961   */\n      0x00\n        /* \"#utility.yul\":12987:12993   */\n      dup2\n        /* \"#utility.yul\":12981:12994   */\n      mload\n        /* \"#utility.yul\":12972:12994   */\n      swap1\n      pop\n        /* \"#utility.yul\":13003:13033   */\n      tag_336\n        /* \"#utility.yul\":13027:13032   */\n      dup2\n        /* \"#utility.yul\":13003:13033   */\n      tag_169\n      jump\t// in\n    tag_336:\n        /* \"#utility.yul\":12902:13039   */\n      swap3\n      swap2\n      pop\n      pop\n      jump\t// out\n        /* \"#utility.yul\":13045:13390   */\n    tag_67:\n        /* \"#utility.yul\":13112:13118   */\n      0x00\n        /* \"#utility.yul\":13161:13163   */\n      0x20\n        /* \"#utility.yul\":13149:13158   */\n      dup3\n        /* \"#utility.yul\":13140:13147   */\n      dup5\n        /* \"#utility.yul\":13136:13159   */\n      sub\n        /* \"#utility.yul\":13132:13164   */\n      slt\n        /* \"#utility.yul\":13129:13248   */\n      iszero\n      tag_338\n      jumpi\n        /* \"#utility.yul\":13167:13246   */\n      tag_339\n      tag_129\n      jump\t// in\n    tag_339:\n        /* \"#utility.yul\":13129:13248   */\n    tag_338:\n        /* \"#utility.yul\":13287:13288   */\n      0x00\n        /* \"#utility.yul\":13312:13373   */\n      tag_340\n        /* \"#utility.yul\":13365:13372   */\n      dup5\n        /* \"#utility.yul\":13356:13362   */\n      dup3\n        /* \"#utility.yul\":13345:13354   */\n      dup6\n        /* \"#utility.yul\":13341:13363   */\n      add\n        /* \"#utility.yul\":13312:13373   */\n      tag_170\n      jump\t// in\n    tag_340:\n        /* \"#utility.yul\":13302:13373   */\n      swap2\n      pop\n        /* \"#utility.yul\":13258:13383   */\n      pop\n        /* \"#utility.yul\":13045:13390   */\n      swap3\n      swap2\n      pop\n      pop\n      jump\t// out\n        /* \"#utility.yul\":13396:13575   */\n    tag_171:\n        /* \"#utility.yul\":13536:13567   */\n      0x4e6f2076616c696420636f6e73656e742066726f6d2070617469656e74000000\n        /* \"#utility.yul\":13532:13533   */\n      0x00\n        /* \"#utility.yul\":13524:13530   */\n      dup3\n        /* \"#utility.yul\":13520:13534   */\n      add\n        /* \"#utility.yul\":13513:13568   */\n      mstore\n        /* \"#utility.yul\":13396:13575   */\n      pop\n      jump\t// out\n        /* \"#utility.yul\":13581:13947   */\n    tag_172:\n        /* \"#utility.yul\":13723:13726   */\n      0x00\n        /* \"#utility.yul\":13744:13811   */\n      tag_343\n        /* \"#utility.yul\":13808:13810   */\n      0x1d\n        /* \"#utility.yul\":13803:13806   */\n      dup4\n        /* \"#utility.yul\":13744:13811   */\n      tag_150\n      jump\t// in\n    tag_343:\n        /* \"#utility.yul\":13737:13811   */\n      swap2\n      pop\n        /* \"#utility.yul\":13820:13913   */\n      tag_344\n        /* \"#utility.yul\":13909:13912   */\n      dup3\n        /* \"#utility.yul\":13820:13913   */\n      tag_171\n      jump\t// in\n    tag_344:\n        /* \"#utility.yul\":13938:13940   */\n      0x20\n        /* \"#utility.yul\":13933:13936   */\n      dup3\n        /* \"#utility.yul\":13929:13941   */\n      add\n        /* \"#utility.yul\":13922:13941   */\n      swap1\n      pop\n        /* \"#utility.yul\":13581:13947   */\n      swap2\n      swap1\n      pop\n      jump\t// out\n        /* \"#utility.yul\":13953:14372   */\n    tag_70:\n        /* \"#utility.yul\":14119:14123   */\n      0x00\n        /* \"#utility.yul\":14157:14159   */\n      0x20\n        /* \"#utility.yul\":14146:14155   */\n      dup3\n        /* \"#utility.yul\":14142:14160   */\n      add\n        /* \"#utility.yul\":14134:14160   */\n      swap1\n      pop\n        /* \"#utility.yul\":14206:14215   */\n      dup2\n        /* \"#utility.yul\":14200:14204   */\n      dup2\n        /* \"#utility.yul\":14196:14216   */\n      sub\n        /* \"#utility.yul\":14192:14193   */\n      0x00\n        /* \"#utility.yul\":14181:14190   */\n      dup4\n        /* \"#utility.yul\":14177:14194   */\n      add\n        /* \"#utility.yul\":14170:14217   */\n      mstore\n        /* \"#utility.yul\":14234:14365   */\n      tag_346\n        /* \"#utility.yul\":14360:14364   */\n      dup2\n        /* \"#utility.yul\":14234:14365   */\n      tag_172\n      jump\t// in\n    tag_346:\n        /* \"#utility.yul\":14226:14365   */\n      swap1\n      pop\n        /* \"#utility.yul\":13953:14372   */\n      swap2\n      swap1\n      pop\n      jump\t// out\n        /* \"#utility.yul\":14378:14801   */\n    tag_72:\n        /* \"#utility.yul\":14519:14523   */\n      0x00\n        /* \"#utility.yul\":14557:14559   */\n      0x40\n        /* \"#utility.yul\":14546:14555   */\n      dup3\n        /* \"#utility.yul\":14542:14560   */\n      add\n        /* \"#utility.yul\":14534:14560   */\n      swap1\n      pop\n        /* \"#utility.yul\":14606:14615   */\n      dup2\n        /* \"#utility.yul\":14600:14604   */\n      dup2\n        /* \"#utility.yul\":14596:14616   */\n      sub\n        /* \"#utility.yul\":14592:14593   */\n      0x00\n        /* \"#utility.yul\":14581:14590   */\n      dup4\n        /* \"#utility.yul\":14577:14594   */\n      add\n        /* \"#utility.yul\":14570:14617   */\n      mstore\n        /* \"#utility.yul\":14634:14712   */\n      tag_348\n        /* \"#utility.yul\":14707:14711   */\n      dup2\n        /* \"#utility.yul\":14698:14704   */\n      dup6\n        /* \"#utility.yul\":14634:14712   */\n      tag_152\n      jump\t// in\n    tag_348:\n        /* \"#utility.yul\":14626:14712   */\n      swap1\n      pop\n        /* \"#utility.yul\":14722:14794   */\n      tag_349\n        /* \"#utility.yul\":14790:14792   */\n      0x20\n        /* \"#utility.yul\":14779:14788   */\n      dup4\n        /* \"#utility.yul\":14775:14793   */\n      add\n        /* \"#utility.yul\":14766:14772   */\n      dup5\n        /* \"#utility.yul\":14722:14794   */\n      tag_136\n      jump\t// in\n    tag_349:\n        /* \"#utility.yul\":14378:14801   */\n      swap4\n      swap3\n      pop\n      pop\n      pop\n      jump\t// out\n        /* \"#utility.yul\":14807:14987   */\n    tag_173:\n        /* \"#utility.yul\":14855:14932   */\n      0x4e487b7100000000000000000000000000000000000000000000000000000000\n        /* \"#utility.yul\":14852:14853   */\n      0x00\n        /* \"#utility.yul\":14845:14933   */\n      mstore\n        /* \"#utility.yul\":14952:14956   */\n      0x22\n        /* \"#utility.yul\":14949:14950   */\n      0x04\n        /* \"#utility.yul\":14942:14957   */\n      mstore\n        /* \"#utility.yul\":14976:14980   */\n      0x24\n        /* \"#utility.yul\":14973:14974   */\n      0x00\n        /* \"#utility.yul\":14966:14981   */\n      revert\n        /* \"#utility.yul\":14993:15313   */\n    tag_74:\n        /* \"#utility.yul\":15037:15043   */\n      0x00\n        /* \"#utility.yul\":15074:15075   */\n      0x02\n        /* \"#utility.yul\":15068:15072   */\n      dup3\n        /* \"#utility.yul\":15064:15076   */\n      div\n        /* \"#utility.yul\":15054:15076   */\n      swap1\n      pop\n        /* \"#utility.yul\":15121:15122   */\n      0x01\n        /* \"#utility.yul\":15115:15119   */\n      dup3\n        /* \"#utility.yul\":15111:15123   */\n      and\n        /* \"#utility.yul\":15142:15160   */\n      dup1\n        /* \"#utility.yul\":15132:15213   */\n      tag_352\n      jumpi\n        /* \"#utility.yul\":15198:15202   */\n      0x7f\n        /* \"#utility.yul\":15190:15196   */\n      dup3\n        /* \"#utility.yul\":15186:15203   */\n      and\n        /* \"#utility.yul\":15176:15203   */\n      swap2\n      pop\n        /* \"#utility.yul\":15132:15213   */\n    tag_352:\n        /* \"#utility.yul\":15260:15262   */\n      0x20\n        /* \"#utility.yul\":15252:15258   */\n      dup3\n        /* \"#utility.yul\":15249:15263   */\n      lt\n        /* \"#utility.yul\":15229:15247   */\n      dup2\n        /* \"#utility.yul\":15226:15264   */\n      sub\n        /* \"#utility.yul\":15223:15307   */\n      tag_353\n      jumpi\n        /* \"#utility.yul\":15279:15297   */\n      tag_354\n      tag_173\n      jump\t// in\n    tag_354:\n        /* \"#utility.yul\":15223:15307   */\n    tag_353:\n        /* \"#utility.yul\":15044:15313   */\n      pop\n        /* \"#utility.yul\":14993:15313   */\n      swap2\n      swap1\n      pop\n      jump\t// out\n        /* \"#utility.yul\":15319:15541   */\n    tag_91:\n        /* \"#utility.yul\":15412:15416   */\n      0x00\n        /* \"#utility.yul\":15450:15452   */\n      0x20\n        /* \"#utility.yul\":15439:15448   */\n      dup3\n        /* \"#utility.yul\":15435:15453   */\n      add\n        /* \"#utility.yul\":15427:15453   */\n      swap1\n      pop\n        /* \"#utility.yul\":15463:15534   */\n      tag_356\n        /* \"#utility.yul\":15531:15532   */\n      0x00\n        /* \"#utility.yul\":15520:15529   */\n      dup4\n        /* \"#utility.yul\":15516:15533   */\n      add\n        /* \"#utility.yul\":15507:15513   */\n      dup5\n        /* \"#utility.yul\":15463:15534   */\n      tag_158\n      jump\t// in\n    tag_356:\n        /* \"#utility.yul\":15319:15541   */\n      swap3\n      swap2\n      pop\n      pop\n      jump\t// out\n        /* \"#utility.yul\":15547:15719   */\n    tag_174:\n        /* \"#utility.yul\":15687:15711   */\n      0x50617469656e74206e6f74207265676973746572656400000000000000000000\n        /* \"#utility.yul\":15683:15684   */\n      0x00\n        /* \"#utility.yul\":15675:15681   */\n      dup3\n        /* \"#utility.yul\":15671:15685   */\n      add\n        /* \"#utility.yul\":15664:15712   */\n      mstore\n        /* \"#utility.yul\":15547:15719   */\n      pop\n      jump\t// out\n        /* \"#utility.yul\":15725:16091   */\n    tag_175:\n        /* \"#utility.yul\":15867:15870   */\n      0x00\n        /* \"#utility.yul\":15888:15955   */\n      tag_359\n        /* \"#utility.yul\":15952:15954   */\n      0x16\n        /* \"#utility.yul\":15947:15950   */\n      dup4\n        /* \"#utility.yul\":15888:15955   */\n      tag_150\n      jump\t// in\n    tag_359:\n        /* \"#utility.yul\":15881:15955   */\n      swap2\n      pop\n        /* \"#utility.yul\":15964:16057   */\n      tag_360\n        /* \"#utility.yul\":16053:16056   */\n      dup3\n        /* \"#utility.yul\":15964:16057   */\n      tag_174\n      jump\t// in\n    tag_360:\n        /* \"#utility.yul\":16082:16084   */\n      0x20\n        /* \"#utility.yul\":16077:16080   */\n      dup3\n        /* \"#utility.yul\":16073:16085   */\n      add\n        /* \"#utility.yul\":16066:16085   */\n      swap1\n      pop\n        /* \"#utility.yul\":15725:16091   */\n      swap2\n      swap1\n      pop\n      jump\t// out\n        /* \"#utility.yul\":16097:16516   */\n    tag_97:\n        /* \"#utility.yul\":16263:16267   */\n      0x00\n        /* \"#utility.yul\":16301:16303   */\n      0x20\n        /* \"#utility.yul\":16290:16299   */\n      dup3\n        /* \"#utility.yul\":16286:16304   */\n      add\n        /* \"#utility.yul\":16278:16304   */\n      swap1\n      pop\n        /* \"#utility.yul\":16350:16359   */\n      dup2\n        /* \"#utility.yul\":16344:16348   */\n      dup2\n        /* \"#utility.yul\":16340:16360   */\n      sub\n        /* \"#utility.yul\":16336:16337   */\n      0x00\n        /* \"#utility.yul\":16325:16334   */\n      dup4\n        /* \"#utility.yul\":16321:16338   */\n      add\n        /* \"#utility.yul\":16314:16361   */\n      mstore\n        /* \"#utility.yul\":16378:16509   */\n      tag_362\n        /* \"#utility.yul\":16504:16508   */\n      dup2\n        /* \"#utility.yul\":16378:16509   */\n      tag_175\n      jump\t// in\n    tag_362:\n        /* \"#utility.yul\":16370:16509   */\n      swap1\n      pop\n        /* \"#utility.yul\":16097:16516   */\n      swap2\n      swap1\n      pop\n      jump\t// out\n        /* \"#utility.yul\":16522:16703   */\n    tag_176:\n        /* \"#utility.yul\":16662:16695   */\n      0x5265656e7472616e637947756172643a207265656e7472616e742063616c6c00\n        /* \"#utility.yul\":16658:16659   */\n      0x00\n        /* \"#utility.yul\":16650:16656   */\n      dup3\n        /* \"#utility.yul\":16646:16660   */\n      add\n        /* \"#utility.yul\":16639:16696   */\n      mstore\n        /* \"#utility.yul\":16522:16703   */\n      pop\n      jump\t// out\n        /* \"#utility.yul\":16709:17075   */\n    tag_177:\n        /* \"#utility.yul\":16851:16854   */\n      0x00\n        /* \"#utility.yul\":16872:16939   */\n      tag_365\n        /* \"#utility.yul\":16936:16938   */\n      0x1f\n        /* \"#utility.yul\":16931:16934   */\n      dup4\n        /* \"#utility.yul\":16872:16939   */\n      tag_150\n      jump\t// in\n    tag_365:\n        /* \"#utility.yul\":16865:16939   */\n      swap2\n      pop\n        /* \"#utility.yul\":16948:17041   */\n      tag_366\n        /* \"#utility.yul\":17037:17040   */\n      dup3\n        /* \"#utility.yul\":16948:17041   */\n      tag_176\n      jump\t// in\n    tag_366:\n        /* \"#utility.yul\":17066:17068   */\n      0x20\n        /* \"#utility.yul\":17061:17064   */\n      dup3\n        /* \"#utility.yul\":17057:17069   */\n      add\n        /* \"#utility.yul\":17050:17069   */\n      swap1\n      pop\n        /* \"#utility.yul\":16709:17075   */\n      swap2\n      swap1\n      pop\n      jump\t// out\n        /* \"#utility.yul\":17081:17500   */\n    tag_108:\n        /* \"#utility.yul\":17247:17251   */\n      0x00\n        /* \"#utility.yul\":17285:17287   */\n      0x20\n        /* \"#utility.yul\":17274:17283   */\n      dup3\n        /* \"#utility.yul\":17270:17288   */\n      add\n        /* \"#utility.yul\":17262:17288   */\n      swap1\n      pop\n        /* \"#utility.yul\":17334:17343   */\n      dup2\n        /* \"#utility.yul\":17328:17332   */\n      dup2\n        /* \"#utility.yul\":17324:17344   */\n      sub\n        /* \"#utility.yul\":17320:17321   */\n      0x00\n        /* \"#utility.yul\":17309:17318   */\n      dup4\n        /* \"#utility.yul\":17305:17322   */\n      add\n        /* \"#utility.yul\":17298:17345   */\n      mstore\n        /* \"#utility.yul\":17362:17493   */\n      tag_368\n        /* \"#utility.yul\":17488:17492   */\n      dup2\n        /* \"#utility.yul\":17362:17493   */\n      tag_177\n      jump\t// in\n    tag_368:\n        /* \"#utility.yul\":17354:17493   */\n      swap1\n      pop\n        /* \"#utility.yul\":17081:17500   */\n      swap2\n      swap1\n      pop\n      jump\t// out\n        /* \"#utility.yul\":17506:17674   */\n    tag_178:\n        /* \"#utility.yul\":17646:17666   */\n      0x4950465320686173682072657175697265640000000000000000000000000000\n        /* \"#utility.yul\":17642:17643   */\n      0x00\n        /* \"#utility.yul\":17634:17640   */\n      dup3\n        /* \"#utility.yul\":17630:17644   */\n      add\n        /* \"#utility.yul\":17623:17667   */\n      mstore\n        /* \"#utility.yul\":17506:17674   */\n      pop\n      jump\t// out\n        /* \"#utility.yul\":17680:18046   */\n    tag_179:\n        /* \"#utility.yul\":17822:17825   */\n      0x00\n        /* \"#utility.yul\":17843:17910   */\n      tag_371\n        /* \"#utility.yul\":17907:17909   */\n      0x12\n        /* \"#utility.yul\":17902:17905   */\n      dup4\n        /* \"#utility.yul\":17843:17910   */\n      tag_150\n      jump\t// in\n    tag_371:\n        /* \"#utility.yul\":17836:17910   */\n      swap2\n      pop\n        /* \"#utility.yul\":17919:18012   */\n      tag_372\n        /* \"#utility.yul\":18008:18011   */\n      dup3\n        /* \"#utility.yul\":17919:18012   */\n      tag_178\n      jump\t// in\n    tag_372:\n        /* \"#utility.yul\":18037:18039   */\n      0x20\n        /* \"#utility.yul\":18032:18035   */\n      dup3\n        /* \"#utility.yul\":18028:18040   */\n      add\n        /* \"#utility.yul\":18021:18040   */\n      swap1\n      pop\n        /* \"#utility.yul\":17680:18046   */\n      swap2\n      swap1\n      pop\n      jump\t// out\n        /* \"#utility.yul\":18052:18471   */\n    tag_112:\n        /* \"#utility.yul\":18218:18222   */\n      0x00\n        /* \"#utility.yul\":18256:18258   */\n      0x20\n        /* \"#utility.yul\":18245:18254   */\n      dup3\n        /* \"#utility.yul\":18241:18259   */\n      add\n        /* \"#utility.yul\":18233:18259   */\n      swap1\n      pop\n        /* \"#utility.yul\":18305:18314   */\n      dup2\n        /* \"#utility.yul\":18299:18303   */\n      dup2\n        /* \"#utility.yul\":18295:18315   */\n      sub\n        /* \"#utility.yul\":18291:18292   */\n      0x00\n        /* \"#utility.yul\":18280:18289   */\n      dup4\n        /* \"#utility.yul\":18276:18293   */\n      add\n        /* \"#utility.yul\":18269:18316   */\n      mstore\n        /* \"#utility.yul\":18333:18464   */\n      tag_374\n        /* \"#utility.yul\":18459:18463   */\n      dup2\n        /* \"#utility.yul\":18333:18464   */\n      tag_179\n      jump\t// in\n    tag_374:\n        /* \"#utility.yul\":18325:18464   */\n      swap1\n      pop\n        /* \"#utility.yul\":18052:18471   */\n      swap2\n      swap1\n      pop\n      jump\t// out\n        /* \"#utility.yul\":18477:18647   */\n    tag_180:\n        /* \"#utility.yul\":18617:18639   */\n      0x5265636f72642074797065207265717569726564000000000000000000000000\n        /* \"#utility.yul\":18613:18614   */\n      0x00\n        /* \"#utility.yul\":18605:18611   */\n      dup3\n        /* \"#utility.yul\":18601:18615   */\n      add\n        /* \"#utility.yul\":18594:18640   */\n      mstore\n        /* \"#utility.yul\":18477:18647   */\n      pop\n      jump\t// out\n        /* \"#utility.yul\":18653:19019   */\n    tag_181:\n        /* \"#utility.yul\":18795:18798   */\n      0x00\n        /* \"#utility.yul\":18816:18883   */\n      tag_377\n        /* \"#utility.yul\":18880:18882   */\n      0x14\n        /* \"#utility.yul\":18875:18878   */\n      dup4\n        /* \"#utility.yul\":18816:18883   */\n      tag_150\n      jump\t// in\n    tag_377:\n        /* \"#utility.yul\":18809:18883   */\n      swap2\n      pop\n        /* \"#utility.yul\":18892:18985   */\n      tag_378\n        /* \"#utility.yul\":18981:18984   */\n      dup3\n        /* \"#utility.yul\":18892:18985   */\n      tag_180\n      jump\t// in\n    tag_378:\n        /* \"#utility.yul\":19010:19012   */\n      0x20\n        /* \"#utility.yul\":19005:19008   */\n      dup3\n        /* \"#utility.yul\":19001:19013   */\n      add\n        /* \"#utility.yul\":18994:19013   */\n      swap1\n      pop\n        /* \"#utility.yul\":18653:19019   */\n      swap2\n      swap1\n      pop\n      jump\t// out\n        /* \"#utility.yul\":19025:19444   */\n    tag_115:\n        /* \"#utility.yul\":19191:19195   */\n      0x00\n        /* \"#utility.yul\":19229:19231   */\n      0x20\n        /* \"#utility.yul\":19218:19227   */\n      dup3\n        /* \"#utility.yul\":19214:19232   */\n      add\n        /* \"#utility.yul\":19206:19232   */\n      swap1\n      pop\n        /* \"#utility.yul\":19278:19287   */\n      dup2\n        /* \"#utility.yul\":19272:19276   */\n      dup2\n        /* \"#utility.yul\":19268:19288   */\n      sub\n        /* \"#utility.yul\":19264:19265   */\n      0x00\n        /* \"#utility.yul\":19253:19262   */\n      dup4\n        /* \"#utility.yul\":19249:19266   */\n      add\n        /* \"#utility.yul\":19242:19289   */\n      mstore\n        /* \"#utility.yul\":19306:19437   */\n      tag_380\n        /* \"#utility.yul\":19432:19436   */\n      dup2\n        /* \"#utility.yul\":19306:19437   */\n      tag_181\n      jump\t// in\n    tag_380:\n        /* \"#utility.yul\":19298:19437   */\n      swap1\n      pop\n        /* \"#utility.yul\":19025:19444   */\n      swap2\n      swap1\n      pop\n      jump\t// out\n        /* \"#utility.yul\":19450:19630   */\n    tag_182:\n        /* \"#utility.yul\":19498:19575   */\n      0x4e487b7100000000000000000000000000000000000000000000000000000000\n        /* \"#utility.yul\":19495:19496   */\n      0x00\n        /* \"#utility.yul\":19488:19576   */\n      mstore\n        /* \"#utility.yul\":19595:19599   */\n      0x11\n        /* \"#utility.yul\":19592:19593   */\n      0x04\n        /* \"#utility.yul\":19585:19600   */\n      mstore\n        /* \"#utility.yul\":19619:19623   */\n      0x24\n        /* \"#utility.yul\":19616:19617   */\n      0x00\n        /* \"#utility.yul\":19609:19624   */\n      revert\n        /* \"#utility.yul\":19636:19869   */\n    tag_117:\n        /* \"#utility.yul\":19675:19678   */\n      0x00\n        /* \"#utility.yul\":19698:19722   */\n      tag_383\n        /* \"#utility.yul\":19716:19721   */\n      dup3\n        /* \"#utility.yul\":19698:19722   */\n      tag_135\n      jump\t// in\n    tag_383:\n        /* \"#utility.yul\":19689:19722   */\n      swap2\n      pop\n        /* \"#utility.yul\":19744:19810   */\n      0xffffffffffffffffffffffffffffffffffffffffffffffffffffffffffffffff\n        /* \"#utility.yul\":19737:19742   */\n      dup3\n        /* \"#utility.yul\":19734:19811   */\n      sub\n        /* \"#utility.yul\":19731:19834   */\n      tag_384\n      jumpi\n        /* \"#utility.yul\":19814:19832   */\n      tag_385\n      tag_182\n      jump\t// in\n    tag_385:\n        /* \"#utility.yul\":19731:19834   */\n    tag_384:\n        /* \"#utility.yul\":19861:19862   */\n      0x01\n        /* \"#utility.yul\":19854:19859   */\n      dup3\n        /* \"#utility.yul\":19850:19863   */\n      add\n        /* \"#utility.yul\":19843:19863   */\n      swap1\n      pop\n        /* \"#utility.yul\":19636:19869   */\n      swap2\n      swap1\n      pop\n      jump\t// out\n        /* \"#utility.yul\":19875:20016   */\n    tag_183:\n        /* \"#utility.yul\":19924:19928   */\n      0x00\n        /* \"#utility.yul\":19947:19950   */\n      dup2\n        /* \"#utility.yul\":19939:19950   */\n      swap1\n      pop\n        /* \"#utility.yul\":19970:19973   */\n      dup2\n        /* \"#utility.yul\":19967:19968   */\n      0x00\n        /* \"#utility.yul\":19960:19974   */\n      mstore\n        /* \"#utility.yul\":20004:20008   */\n      0x20\n        /* \"#utility.yul\":20001:20002   */\n      0x00\n        /* \"#utility.yul\":19991:20009   */\n      keccak256\n        /* \"#utility.yul\":19983:20009   */\n      swap1\n      pop\n        /* \"#utility.yul\":19875:20016   */\n      swap2\n      swap1\n      pop\n      jump\t// out\n        /* \"#utility.yul\":20022:20115   */\n    tag_184:\n        /* \"#utility.yul\":20059:20065   */\n      0x00\n        /* \"#utility.yul\":20106:20108   */\n      0x20\n        /* \"#utility.yul\":20101:20103   */\n      0x1f\n        /* \"#utility.yul\":20094:20099   */\n      dup4\n        /* \"#utility.yul\":20090:20104   */\n      add\n        /* \"#utility.yul\":20086:20109   */\n      div\n        /* \"#utility.yul\":20076:20109   */\n      swap1\n      pop\n        /* \"#utility.yul\":20022:20115   */\n      swap2\n      swap1\n      pop\n      jump\t// out\n        /* \"#utility.yul\":20121:20228   */\n    tag_185:\n        /* \"#utility.yul\":20165:20173   */\n      0x00\n        /* \"#utility.yul\":20215:20220   */\n      dup3\n        /* \"#utility.yul\":20209:20213   */\n      dup3\n        /* \"#utility.yul\":20205:20221   */\n      shl\n        /* \"#utility.yul\":20184:20221   */\n      swap1\n      pop\n        /* \"#utility.yul\":20121:20228   */\n      swap3\n      swap2\n      pop\n      pop\n      jump\t// out\n        /* \"#utility.yul\":20234:20627   */\n    tag_186:\n        /* \"#utility.yul\":20303:20309   */\n      0x00\n        /* \"#utility.yul\":20353:20354   */\n      0x08\n        /* \"#utility.yul\":20341:20351   */\n      dup4\n        /* \"#utility.yul\":20337:20355   */\n      mul\n        /* \"#utility.yul\":20376:20473   */\n      tag_390\n        /* \"#utility.yul\":20406:20472   */\n      0xffffffffffffffffffffffffffffffffffffffffffffffffffffffffffffffff\n        /* \"#utility.yul\":20395:20404   */\n      dup3\n        /* \"#utility.yul\":20376:20473   */\n      tag_185\n      jump\t// in\n    tag_390:\n        /* \"#utility.yul\":20494:20533   */\n      tag_391\n        /* \"#utility.yul\":20524:20532   */\n      dup7\n        /* \"#utility.yul\":20513:20522   */\n      dup4\n        /* \"#utility.yul\":20494:20533   */\n      tag_185\n      jump\t// in\n    tag_391:\n        /* \"#utility.yul\":20482:20533   */\n      swap6\n      pop\n        /* \"#utility.yul\":20566:20570   */\n      dup1\n        /* \"#utility.yul\":20562:20571   */\n      not\n        /* \"#utility.yul\":20555:20560   */\n      dup5\n        /* \"#utility.yul\":20551:20572   */\n      and\n        /* \"#utility.yul\":20542:20572   */\n      swap4\n      pop\n        /* \"#utility.yul\":20615:20619   */\n      dup1\n        /* \"#utility.yul\":20605:20613   */\n      dup7\n        /* \"#utility.yul\":20601:20620   */\n      and\n        /* \"#utility.yul\":20594:20599   */\n      dup5\n        /* \"#utility.yul\":20591:20621   */\n      or\n        /* \"#utility.yul\":20581:20621   */\n      swap3\n      pop\n        /* \"#utility.yul\":20310:20627   */\n      pop\n      pop\n        /* \"#utility.yul\":20234:20627   */\n      swap4\n      swap3\n      pop\n      pop\n      pop\n      jump\t// out\n        /* \"#utility.yul\":20633:20775   */\n    tag_187:\n        /* \"#utility.yul\":20683:20692   */\n      0x00\n        /* \"#utility.yul\":20716:20769   */\n      tag_393\n        /* \"#utility.yul\":20734:20768   */\n      tag_394\n        /* \"#utility.yul\":20743:20767   */\n      tag_395\n        /* \"#utility.yul\":20761:20766   */\n      dup5\n        /* \"#utility.yul\":20743:20767   */\n      tag_135\n      jump\t// in\n    tag_395:\n        /* \"#utility.yul\":20734:20768   */\n      tag_153\n      jump\t// in\n    tag_394:\n        /* \"#utility.yul\":20716:20769   */\n      tag_135\n      jump\t// in\n    tag_393:\n        /* \"#utility.yul\":20703:20769   */\n      swap1\n      pop\n        /* \"#utility.yul\":20633:20775   */\n      swap2\n      swap1\n      pop\n      jump\t// out\n        /* \"#utility.yul\":20781:20856   */\n    tag_188:\n        /* \"#utility.yul\":20824:20827   */\n      0x00\n        /* \"#utility.yul\":20845:20850   */\n      dup2\n        /* \"#utility.yul\":20838:20850   */\n      swap1\n      pop\n        /* \"#utility.yul\":20781:20856   */\n      swap2\n      swap1\n      pop\n      jump\t// out\n        /* \"#utility.yul\":20862:21131   */\n    tag_189:\n        /* \"#utility.yul\":20972:21011   */\n      tag_398\n        /* \"#utility.yul\":21003:21010   */\n      dup4\n        /* \"#utility.yul\":20972:21011   */\n      tag_187\n      jump\t// in\n    tag_398:\n        /* \"#utility.yul\":21033:21124   */\n      tag_399\n        /* \"#utility.yul\":21082:21123   */\n      tag_400\n        /* \"#utility.yul\":21106:21122   */\n      dup3\n        /* \"#utility.yul\":21082:21123   */\n      tag_188\n      jump\t// in\n    tag_400:\n        /* \"#utility.yul\":21074:21080   */\n      dup5\n        /* \"#utility.yul\":21067:21071   */\n      dup5\n        /* \"#utility.yul\":21061:21072   */\n      sload\n        /* \"#utility.yul\":21033:21124   */\n      tag_186\n      jump\t// in\n    tag_399:\n        /* \"#utility.yul\":21027:21031   */\n      dup3\n        /* \"#utility.yul\":21020:21125   */\n      sstore\n        /* \"#utility.yul\":20938:21131   */\n      pop\n        /* \"#utility.yul\":20862:21131   */\n      pop\n      pop\n      pop\n      jump\t// out\n        /* \"#utility.yul\":21137:21210   */\n    tag_190:\n        /* \"#utility.yul\":21182:21185   */\n      0x00\n        /* \"#utility.yul\":21203:21204   */\n      0x00\n        /* \"#utility.yul\":21196:21204   */\n      swap1\n      pop\n        /* \"#utility.yul\":21137:21210   */\n      swap1\n      jump\t// out\n        /* \"#utility.yul\":21216:21405   */\n    tag_191:\n        /* \"#utility.yul\":21293:21325   */\n      tag_403\n      tag_190\n      jump\t// in\n    tag_403:\n        /* \"#utility.yul\":21334:21399   */\n      tag_404\n        /* \"#utility.yul\":21392:21398   */\n      dup2\n        /* \"#utility.yul\":21384:21390   */\n      dup5\n        /* \"#utility.yul\":21378:21382   */\n      dup5\n        /* \"#utility.yul\":21334:21399   */\n      tag_189\n      jump\t// in\n    tag_404:\n        /* \"#utility.yul\":21269:21405   */\n      pop\n        /* \"#utility.yul\":21216:21405   */\n      pop\n      pop\n      jump\t// out\n        /* \"#utility.yul\":21411:21625   */\n    tag_192:\n        /* \"#utility.yul\":21496:21497   */\n      0x00\n        /* \"#utility.yul\":21481:21619   */\n    tag_406:\n        /* \"#utility.yul\":21506:21515   */\n      dup3\n        /* \"#utility.yul\":21503:21504   */\n      dup2\n        /* \"#utility.yul\":21500:21516   */\n      lt\n        /* \"#utility.yul\":21481:21619   */\n      iszero\n      tag_408\n      jumpi\n        /* \"#utility.yul\":21558:21609   */\n      tag_409\n        /* \"#utility.yul\":21607:21608   */\n      0x00\n        /* \"#utility.yul\":21603:21604   */\n      dup3\n        /* \"#utility.yul\":21592:21601   */\n      dup5\n        /* \"#utility.yul\":21588:21605   */\n      add\n        /* \"#utility.yul\":21558:21609   */\n      tag_191\n      jump\t// in\n    tag_409:\n        /* \"#utility.yul\":21531:21532   */\n      0x01\n        /* \"#utility.yul\":21528:21529   */\n      dup2\n        /* \"#utility.yul\":21524:21533   */\n      add\n        /* \"#utility.yul\":21519:21533   */\n      swap1\n      pop\n        /* \"#utility.yul\":21481:21619   */\n      jump(tag_406)\n    tag_408:\n        /* \"#utility.yul\":21485:21499   */\n      pop\n        /* \"#utility.yul\":21411:21625   */\n      pop\n      pop\n      jump\t// out\n        /* \"#utility.yul\":21631:22377   */\n    tag_193:\n        /* \"#utility.yul\":21732:21734   */\n      0x1f\n        /* \"#utility.yul\":21727:21730   */\n      dup3\n        /* \"#utility.yul\":21724:21735   */\n      gt\n        /* \"#utility.yul\":21721:22370   */\n      iszero\n      tag_411\n      jumpi\n        /* \"#utility.yul\":21761:21771   */\n      dup3\n        /* \"#utility.yul\":21756:21759   */\n      dup3\n        /* \"#utility.yul\":21753:21772   */\n      gt\n        /* \"#utility.yul\":21750:22360   */\n      iszero\n      tag_412\n      jumpi\n        /* \"#utility.yul\":21807:21845   */\n      tag_413\n        /* \"#utility.yul\":21839:21844   */\n      dup2\n        /* \"#utility.yul\":21807:21845   */\n      tag_183\n      jump\t// in\n    tag_413:\n        /* \"#utility.yul\":21882:21904   */\n      tag_414\n        /* \"#utility.yul\":21900:21903   */\n      dup4\n        /* \"#utility.yul\":21882:21904   */\n      tag_184\n      jump\t// in\n    tag_414:\n        /* \"#utility.yul\":21941:21970   */\n      tag_415\n        /* \"#utility.yul\":21959:21969   */\n      dup6\n        /* \"#utility.yul\":21941:21970   */\n      tag_184\n      jump\t// in\n    tag_415:\n        /* \"#utility.yul\":22131:22133   */\n      0x20\n        /* \"#utility.yul\":22119:22129   */\n      dup7\n        /* \"#utility.yul\":22116:22134   */\n      lt\n        /* \"#utility.yul\":22113:22192   */\n      iszero\n      tag_416\n      jumpi\n        /* \"#utility.yul\":22173:22174   */\n      0x00\n        /* \"#utility.yul\":22157:22174   */\n      swap1\n      pop\n        /* \"#utility.yul\":22113:22192   */\n    tag_416:\n        /* \"#utility.yul\":22242:22254   */\n      dup1\n        /* \"#utility.yul\":22232:22240   */\n      dup4\n        /* \"#utility.yul\":22228:22255   */\n      add\n        /* \"#utility.yul\":22272:22346   */\n      tag_417\n        /* \"#utility.yul\":22332:22344   */\n      dup3\n        /* \"#utility.yul\":22318:22330   */\n      dup5\n        /* \"#utility.yul\":22314:22345   */\n      sub\n        /* \"#utility.yul\":22301:22312   */\n      dup3\n        /* \"#utility.yul\":22272:22346   */\n      tag_192\n      jump\t// in\n    tag_417:\n        /* \"#utility.yul\":21773:22360   */\n      pop\n      pop\n      pop\n      pop\n        /* \"#utility.yul\":21750:22360   */\n    tag_412:\n        /* \"#utility.yul\":21721:22370   */\n    tag_411:\n        /* \"#utility.yul\":21631:22377   */\n      pop\n      pop\n      pop\n      jump\t// out\n        /* \"#utility.yul\":22383:22500   */\n    tag_194:\n        /* \"#utility.yul\":22437:22445   */\n      0x00\n        /* \"#utility.yul\":22487:22492   */\n      dup3\n        /* \"#utility.yul\":22481:22485   */\n      dup3\n        /* \"#utility.yul\":22477:22493   */\n      shr\n        /* \"#utility.yul\":22456:22493   */\n      swap1\n      pop\n        /* \"#utility.yul\":22383:22500   */\n      swap3\n      swap2\n      pop\n      pop\n      jump\t// out\n        /* \"#utility.yul\":22506:22675   */\n    tag_195:\n        /* \"#utility.yul\":22550:22556   */\n      0x00\n        /* \"#utility.yul\":22583:22634   */\n      tag_420\n        /* \"#utility.yul\":22631:22632   */\n      0x00\n        /* \"#utility.yul\":22627:22633   */\n      not\n        /* \"#utility.yul\":22619:22624   */\n      dup5\n        /* \"#utility.yul\":22616:22617   */\n      0x08\n        /* \"#utility.yul\":22612:22625   */\n      mul\n        /* \"#utility.yul\":22583:22634   */\n      tag_194\n      jump\t// in\n    tag_420:\n        /* \"#utility.yul\":22579:22635   */\n      not\n        /* \"#utility.yul\":22664:22668   */\n      dup1\n        /* \"#utility.yul\":22658:22662   */\n      dup4\n        /* \"#utility.yul\":22654:22669   */\n      and\n        /* \"#utility.yul\":22644:22669   */\n      swap2\n      pop\n        /* \"#utility.yul\":22557:22675   */\n      pop\n        /* \"#utility.yul\":22506:22675   */\n      swap3\n      swap2\n      pop\n      pop\n      jump\t// out\n        /* \"#utility.yul\":22680:22975   */\n    tag_196:\n        /* \"#utility.yul\":22756:22760   */\n      0x00\n        /* \"#utility.yul\":22902:22931   */\n      tag_422\n        /* \"#utility.yul\":22927:22930   */\n      dup4\n        /* \"#utility.yul\":22921:22925   */\n      dup4\n        /* \"#utility.yul\":22902:22931   */\n      tag_195\n      jump\t// in\n    tag_422:\n        /* \"#utility.yul\":22894:22931   */\n      swap2\n      pop\n        /* \"#utility.yul\":22964:22967   */\n      dup3\n        /* \"#utility.yul\":22961:22962   */\n      0x02\n        /* \"#utility.yul\":22957:22968   */\n      mul\n        /* \"#utility.yul\":22951:22955   */\n      dup3\n        /* \"#utility.yul\":22948:22969   */\n      or\n        /* \"#utility.yul\":22940:22969   */\n      swap1\n      pop\n        /* \"#utility.yul\":22680:22975   */\n      swap3\n      swap2\n      pop\n      pop\n      jump\t// out\n        /* \"#utility.yul\":22980:24375   */\n    tag_120:\n        /* \"#utility.yul\":23097:23134   */\n      tag_424\n        /* \"#utility.yul\":23130:23133   */\n      dup3\n        /* \"#utility.yul\":23097:23134   */\n      tag_149\n      jump\t// in\n    tag_424:\n        /* \"#utility.yul\":23199:23217   */\n      0xffffffffffffffff\n        /* \"#utility.yul\":23191:23197   */\n      dup2\n        /* \"#utility.yul\":23188:23218   */\n      gt\n        /* \"#utility.yul\":23185:23241   */\n      iszero\n      tag_425\n      jumpi\n        /* \"#utility.yul\":23221:23239   */\n      tag_426\n      tag_142\n      jump\t// in\n    tag_426:\n        /* \"#utility.yul\":23185:23241   */\n    tag_425:\n        /* \"#utility.yul\":23265:23303   */\n      tag_427\n        /* \"#utility.yul\":23297:23301   */\n      dup3\n        /* \"#utility.yul\":23291:23302   */\n      sload\n        /* \"#utility.yul\":23265:23303   */\n      tag_74\n      jump\t// in\n    tag_427:\n        /* \"#utility.yul\":23350:23417   */\n      tag_428\n        /* \"#utility.yul\":23410:23416   */\n      dup3\n        /* \"#utility.yul\":23402:23408   */\n      dup3\n        /* \"#utility.yul\":23396:23400   */\n      dup6\n        /* \"#utility.yul\":23350:23417   */\n      tag_193\n      jump\t// in\n    tag_428:\n        /* \"#utility.yul\":23444:23445   */\n      0x00\n        /* \"#utility.yul\":23468:23472   */\n      0x20\n        /* \"#utility.yul\":23455:23472   */\n      swap1\n      pop\n        /* \"#utility.yul\":23500:23502   */\n      0x1f\n        /* \"#utility.yul\":23492:23498   */\n      dup4\n        /* \"#utility.yul\":23489:23503   */\n      gt\n        /* \"#utility.yul\":23517:23518   */\n      0x01\n        /* \"#utility.yul\":23512:24130   */\n      dup2\n      eq\n      tag_430\n      jumpi\n        /* \"#utility.yul\":24174:24175   */\n      0x00\n        /* \"#utility.yul\":24191:24197   */\n      dup5\n        /* \"#utility.yul\":24188:24265   */\n      iszero\n      tag_431\n      jumpi\n        /* \"#utility.yul\":24240:24249   */\n      dup3\n        /* \"#utility.yul\":24235:24238   */\n      dup8\n        /* \"#utility.yul\":24231:24250   */\n      add\n        /* \"#utility.yul\":24225:24251   */\n      mload\n        /* \"#utility.yul\":24216:24251   */\n      swap1\n      pop\n        /* \"#utility.yul\":24188:24265   */\n    tag_431:\n        /* \"#utility.yul\":24291:24358   */\n      tag_432\n        /* \"#utility.yul\":24351:24357   */\n      dup6\n        /* \"#utility.yul\":24344:24349   */\n      dup3\n        /* \"#utility.yul\":24291:24358   */\n      tag_196\n      jump\t// in\n    tag_432:\n        /* \"#utility.yul\":24285:24289   */\n      dup7\n        /* \"#utility.yul\":24278:24359   */\n      sstore\n        /* \"#utility.yul\":24147:24369   */\n      pop\n        /* \"#utility.yul\":23482:24369   */\n      jump(tag_429)\n        /* \"#utility.yul\":23512:24130   */\n    tag_430:\n        /* \"#utility.yul\":23564:23568   */\n      0x1f\n        /* \"#utility.yul\":23560:23569   */\n      not\n        /* \"#utility.yul\":23552:23558   */\n      dup5\n        /* \"#utility.yul\":23548:23570   */\n      and\n        /* \"#utility.yul\":23598:23635   */\n      tag_433\n        /* \"#utility.yul\":23630:23634   */\n      dup7\n        /* \"#utility.yul\":23598:23635   */\n      tag_183\n      jump\t// in\n    tag_433:\n        /* \"#utility.yul\":23657:23658   */\n      0x00\n        /* \"#utility.yul\":23671:23879   */\n    tag_434:\n        /* \"#utility.yul\":23685:23692   */\n      dup3\n        /* \"#utility.yul\":23682:23683   */\n      dup2\n        /* \"#utility.yul\":23679:23693   */\n      lt\n        /* \"#utility.yul\":23671:23879   */\n      iszero\n      tag_436\n      jumpi\n        /* \"#utility.yul\":23764:23773   */\n      dup5\n        /* \"#utility.yul\":23759:23762   */\n      dup10\n        /* \"#utility.yul\":23755:23774   */\n      add\n        /* \"#utility.yul\":23749:23775   */\n      mload\n        /* \"#utility.yul\":23741:23747   */\n      dup3\n        /* \"#utility.yul\":23734:23776   */\n      sstore\n        /* \"#utility.yul\":23815:23816   */\n      0x01\n        /* \"#utility.yul\":23807:23813   */\n      dup3\n        /* \"#utility.yul\":23803:23817   */\n      add\n        /* \"#utility.yul\":23793:23817   */\n      swap2\n      pop\n        /* \"#utility.yul\":23862:23864   */\n      0x20\n        /* \"#utility.yul\":23851:23860   */\n      dup6\n        /* \"#utility.yul\":23847:23865   */\n      add\n        /* \"#utility.yul\":23834:23865   */\n      swap5\n      pop\n        /* \"#utility.yul\":23708:23712   */\n      0x20\n        /* \"#utility.yul\":23705:23706   */\n      dup2\n        /* \"#utility.yul\":23701:23713   */\n      add\n        /* \"#utility.yul\":23696:23713   */\n      swap1\n      pop\n        /* \"#utility.yul\":23671:23879   */\n      jump(tag_434)\n    tag_436:\n        /* \"#utility.yul\":23907:23913   */\n      dup7\n        /* \"#utility.yul\":23898:23905   */\n      dup4\n        /* \"#utility.yul\":23895:23914   */\n      lt\n        /* \"#utility.yul\":23892:24071   */\n      iszero\n      tag_437\n      jumpi\n        /* \"#utility.yul\":23965:23974   */\n      dup5\n        /* \"#utility.yul\":23960:23963   */\n      dup10\n        /* \"#utility.yul\":23956:23975   */\n      add\n        /* \"#utility.yul\":23950:23976   */\n      mload\n        /* \"#utility.yul\":24008:24056   */\n      tag_438\n        /* \"#utility.yul\":24050:24054   */\n      0x1f\n        /* \"#utility.yul\":24042:24048   */\n      dup10\n        /* \"#utility.yul\":24038:24055   */\n      and\n        /* \"#utility.yul\":24027:24036   */\n      dup3\n        /* \"#utility.yul\":24008:24056   */\n      tag_195\n      jump\t// in\n    tag_438:\n        /* \"#utility.yul\":24000:24006   */\n      dup4\n        /* \"#utility.yul\":23993:24057   */\n      sstore\n        /* \"#utility.yul\":23915:24071   */\n      pop\n        /* \"#utility.yul\":23892:24071   */\n    tag_437:\n        /* \"#utility.yul\":24117:24118   */\n      0x01\n        /* \"#utility.yul\":24113:24114   */\n      0x02\n        /* \"#utility.yul\":24105:24111   */\n      dup9\n        /* \"#utility.yul\":24101:24115   */\n      mul\n        /* \"#utility.yul\":24097:24119   */\n      add\n        /* \"#utility.yul\":24091:24095   */\n      dup9\n        /* \"#utility.yul\":24084:24120   */\n      sstore\n        /* \"#utility.yul\":23519:24130   */\n      pop\n      pop\n      pop\n        /* \"#utility.yul\":23482:24369   */\n    tag_429:\n      pop\n        /* \"#utility.yul\":23072:24375   */\n      pop\n      pop\n      pop\n        /* \"#utility.yul\":22980:24375   */\n      pop\n      pop\n      jump\t// out\n        /* \"#utility.yul\":24381:25116   */\n    tag_124:\n        /* \"#utility.yul\":24598:24602   */\n      0x00\n        /* \"#utility.yul\":24636:24639   */\n      0x80\n        /* \"#utility.yul\":24625:24634   */\n      dup3\n        /* \"#utility.yul\":24621:24640   */\n      add\n        /* \"#utility.yul\":24613:24640   */\n      swap1\n      pop\n        /* \"#utility.yul\":24686:24695   */\n      dup2\n        /* \"#utility.yul\":24680:24684   */\n      dup2\n        /* \"#utility.yul\":24676:24696   */\n      sub\n        /* \"#utility.yul\":24672:24673   */\n      0x00\n        /* \"#utility.yul\":24661:24670   */\n      dup4\n        /* \"#utility.yul\":24657:24674   */\n      add\n        /* \"#utility.yul\":24650:24697   */\n      mstore\n        /* \"#utility.yul\":24714:24792   */\n      tag_440\n        /* \"#utility.yul\":24787:24791   */\n      dup2\n        /* \"#utility.yul\":24778:24784   */\n      dup8\n        /* \"#utility.yul\":24714:24792   */\n      tag_152\n      jump\t// in\n    tag_440:\n        /* \"#utility.yul\":24706:24792   */\n      swap1\n      pop\n        /* \"#utility.yul\":24839:24848   */\n      dup2\n        /* \"#utility.yul\":24833:24837   */\n      dup2\n        /* \"#utility.yul\":24829:24849   */\n      sub\n        /* \"#utility.yul\":24824:24826   */\n      0x20\n        /* \"#utility.yul\":24813:24822   */\n      dup4\n        /* \"#utility.yul\":24809:24827   */\n      add\n        /* \"#utility.yul\":24802:24850   */\n      mstore\n        /* \"#utility.yul\":24867:24945   */\n      tag_441\n        /* \"#utility.yul\":24940:24944   */\n      dup2\n        /* \"#utility.yul\":24931:24937   */\n      dup7\n        /* \"#utility.yul\":24867:24945   */\n      tag_152\n      jump\t// in\n    tag_441:\n        /* \"#utility.yul\":24859:24945   */\n      swap1\n      pop\n        /* \"#utility.yul\":24955:25027   */\n      tag_442\n        /* \"#utility.yul\":25023:25025   */\n      0x40\n        /* \"#utility.yul\":25012:25021   */\n      dup4\n        /* \"#utility.yul\":25008:25026   */\n      add\n        /* \"#utility.yul\":24999:25005   */\n      dup6\n        /* \"#utility.yul\":24955:25027   */\n      tag_136\n      jump\t// in\n    tag_442:\n        /* \"#utility.yul\":25037:25109   */\n      tag_443\n        /* \"#utility.yul\":25105:25107   */\n      0x60\n        /* \"#utility.yul\":25094:25103   */\n      dup4\n        /* \"#utility.yul\":25090:25108   */\n      add\n        /* \"#utility.yul\":25081:25087   */\n      dup5\n        /* \"#utility.yul\":25037:25109   */\n      tag_136\n      jump\t// in\n    tag_443:\n        /* \"#utility.yul\":24381:25116   */\n      swap6\n      swap5\n      pop\n      pop\n      pop\n      pop\n      pop\n      jump\t// out\n\n    auxdata: 0xa2646970667358221220f80d4b601e75fc3626e3c38d307fb9c4a7c6df5ea16810012bbca985082acc0d64736f6c63430008220033\n}\n",
				"bytecode": {
					"linkReferences": {},
					"object": "608060405260015f55348015610013575f5ffd5b50604051611b7f380380611b7f83398181016040528101906100359190610147565b5f73ffffffffffffffffffffffffffffffffffffffff168173ffffffffffffffffffffffffffffffffffffffff16036100a3576040517f08c379a000000000000000000000000000000000000000000000000000000000815260040161009a906101f2565b60405180910390fd5b8060015f6101000a81548173ffffffffffffffffffffffffffffffffffffffff021916908373ffffffffffffffffffffffffffffffffffffffff16021790555050610210565b5f5ffd5b5f73ffffffffffffffffffffffffffffffffffffffff82169050919050565b5f610116826100ed565b9050919050565b6101268161010c565b8114610130575f5ffd5b50565b5f815190506101418161011d565b92915050565b5f6020828403121561015c5761015b6100e9565b5b5f61016984828501610133565b91505092915050565b5f82825260208201905092915050565b7f496e76616c6964206964656e7469747920636f6e7472616374206164647265735f8201527f7300000000000000000000000000000000000000000000000000000000000000602082015250565b5f6101dc602183610172565b91506101e782610182565b604082019050919050565b5f6020820190508181035f830152610209816101d0565b9050919050565b6119628061021d5f395ff3fe608060405234801561000f575f5ffd5b5060043610610091575f3560e01c80637564a13c116100645780637564a13c14610143578063900407bc14610179578063aa0ced9014610197578063ae68e776146101b3578063b1e75df9146101e357610091565b806350abe9101461009557806358214308146100c557806363fc6040146100f557806367031bae14610125575b5f5ffd5b6100af60048036038101906100aa9190610d31565b610213565b6040516100bc9190610d74565b60405180910390f35b6100df60048036038101906100da9190610d31565b610259565b6040516100ec9190610d74565b60405180910390f35b61010f600480360381019061010a9190610ef3565b6102a2565b60405161011c9190610fad565b60405180910390f35b61012d610511565b60405161013a9190611028565b60405180910390f35b61015d60048036038101906101589190611041565b610536565b604051610170979695949392919061107b565b60405180910390f35b6101816106be565b60405161018e9190610d74565b60405180910390f35b6101b160048036038101906101ac91906110f6565b6106c4565b005b6101cd60048036038101906101c89190610d31565b610c1e565b6040516101da9190611235565b60405180910390f35b6101fd60048036038101906101f89190610d31565b610cb1565b60405161020a9190610d74565b60405180910390f35b5f60055f8373ffffffffffffffffffffffffffffffffffffffff1673ffffffffffffffffffffffffffffffffffffffff1681526020019081526020015f20549050919050565b5f60045f8373ffffffffffffffffffffffffffffffffffffffff1673ffffffffffffffffffffffffffffffffffffffff1681526020019081526020015f20805490509050919050565b60605f831180156102b557506002548311155b6102f4576040517f08c379a00000000000000000000000000000000000000000000000000000000081526004016102eb9061129f565b60405180910390fd5b5f60035f8581526020019081526020015f206001015f9054906101000a900473ffffffffffffffffffffffffffffffffffffffff16905060015f9054906101000a900473ffffffffffffffffffffffffffffffffffffffff1673ffffffffffffffffffffffffffffffffffffffff1663a6d41f3382336040518363ffffffff1660e01b81526004016103879291906112bd565b602060405180830381865afa1580156103a2573d5f5f3e3d5ffd5b505050506040513d601f19601f820116820180604052508101906103c69190611319565b610405576040517f08c379a00000000000000000000000000000000000000000000000000000000081526004016103fc9061138e565b60405180910390fd5b3373ffffffffffffffffffffffffffffffffffffffff168173ffffffffffffffffffffffffffffffffffffffff16857fd45bdb85767000c90389e3e0bb2dece5049eb535b71aef83e642bfb192e08bf286426040516104659291906113ac565b60405180910390a460035f8581526020019081526020015f20600301805461048c90611407565b80601f01602080910402602001604051908101604052809291908181526020018280546104b890611407565b80156105035780601f106104da57610100808354040283529160200191610503565b820191905f5260205f20905b8154815290600101906020018083116104e657829003601f168201915b505050505091505092915050565b60015f9054906101000a900473ffffffffffffffffffffffffffffffffffffffff1681565b6003602052805f5260405f205f91509050805f015490806001015f9054906101000a900473ffffffffffffffffffffffffffffffffffffffff1690806002015f9054906101000a900473ffffffffffffffffffffffffffffffffffffffff16908060030180546105a590611407565b80601f01602080910402602001604051908101604052809291908181526020018280546105d190611407565b801561061c5780601f106105f35761010080835404028352916020019161061c565b820191905f5260205f20905b8154815290600101906020018083116105ff57829003601f168201915b50505050509080600401805461063190611407565b80601f016020809104026020016040519081016040528092919081815260200182805461065d90611407565b80156106a85780601f1061067f576101008083540402835291602001916106a8565b820191905f5260205f20905b81548152906001019060200180831161068b57829003601f168201915b5050505050908060050154908060060154905087565b60025481565b8260015f9054906101000a900473ffffffffffffffffffffffffffffffffffffffff1673ffffffffffffffffffffffffffffffffffffffff16633c4f7a9d826040518263ffffffff1660e01b815260040161071f9190611437565b602060405180830381865afa15801561073a573d5f5f3e3d5ffd5b505050506040513d601f19601f8201168201806040525081019061075e9190611319565b61079d576040517f08c379a00000000000000000000000000000000000000000000000000000000081526004016107949061149a565b60405180910390fd5b8360015f9054906101000a900473ffffffffffffffffffffffffffffffffffffffff1673ffffffffffffffffffffffffffffffffffffffff1663a6d41f3382336040518363ffffffff1660e01b81526004016107fa9291906112bd565b602060405180830381865afa158015610815573d5f5f3e3d5ffd5b505050506040513d601f19601f820116820180604052508101906108399190611319565b610878576040517f08c379a000000000000000000000000000000000000000000000000000000000815260040161086f9061138e565b60405180910390fd5b60015f54146108bc576040517f08c379a00000000000000000000000000000000000000000000000000000000081526004016108b390611502565b60405180910390fd5b60025f819055505f845111610906576040517f08c379a00000000000000000000000000000000000000000000000000000000081526004016108fd9061156a565b60405180910390fd5b5f835111610949576040517f08c379a0000000000000000000000000000000000000000000000000000000008152600401610940906115d2565b60405180910390fd5b60025f81548092919061095b9061161d565b919050555060055f8673ffffffffffffffffffffffffffffffffffffffff1673ffffffffffffffffffffffffffffffffffffffff1681526020019081526020015f205f8154809291906109ad9061161d565b91905055505f60055f8773ffffffffffffffffffffffffffffffffffffffff1673ffffffffffffffffffffffffffffffffffffffff1681526020019081526020015f205490506040518060e0016040528060025481526020018773ffffffffffffffffffffffffffffffffffffffff1681526020013373ffffffffffffffffffffffffffffffffffffffff1681526020018681526020018581526020018281526020014281525060035f60025481526020019081526020015f205f820151815f01556020820151816001015f6101000a81548173ffffffffffffffffffffffffffffffffffffffff021916908373ffffffffffffffffffffffffffffffffffffffff1602179055506040820151816002015f6101000a81548173ffffffffffffffffffffffffffffffffffffffff021916908373ffffffffffffffffffffffffffffffffffffffff1602179055506060820151816003019081610b10919061180c565b506080820151816004019081610b26919061180c565b5060a0820151816005015560c0820151816006015590505060045f8773ffffffffffffffffffffffffffffffffffffffff1673ffffffffffffffffffffffffffffffffffffffff1681526020019081526020015f20600254908060018154018082558091505060019003905f5260205f20015f90919091909150553373ffffffffffffffffffffffffffffffffffffffff168673ffffffffffffffffffffffffffffffffffffffff166002547fa28f8bdc9799975b639b79d43b5ed976631e99b2b05ef7394d7406f9081604c488888642604051610c0794939291906118db565b60405180910390a45060015f819055505050505050565b606060045f8373ffffffffffffffffffffffffffffffffffffffff1673ffffffffffffffffffffffffffffffffffffffff1681526020019081526020015f20805480602002602001604051908101604052809291908181526020018280548015610ca557602002820191905f5260205f20905b815481526020019060010190808311610c91575b50505050509050919050565b6005602052805f5260405f205f915090505481565b5f604051905090565b5f5ffd5b5f5ffd5b5f73ffffffffffffffffffffffffffffffffffffffff82169050919050565b5f610d0082610cd7565b9050919050565b610d1081610cf6565b8114610d1a575f5ffd5b50565b5f81359050610d2b81610d07565b92915050565b5f60208284031215610d4657610d45610ccf565b5b5f610d5384828501610d1d565b91505092915050565b5f819050919050565b610d6e81610d5c565b82525050565b5f602082019050610d875f830184610d65565b92915050565b610d9681610d5c565b8114610da0575f5ffd5b50565b5f81359050610db181610d8d565b92915050565b5f5ffd5b5f5ffd5b5f601f19601f8301169050919050565b7f4e487b71000000000000000000000000000000000000000000000000000000005f52604160045260245ffd5b610e0582610dbf565b810181811067ffffffffffffffff82111715610e2457610e23610dcf565b5b80604052505050565b5f610e36610cc6565b9050610e428282610dfc565b919050565b5f67ffffffffffffffff821115610e6157610e60610dcf565b5b610e6a82610dbf565b9050602081019050919050565b828183375f83830152505050565b5f610e97610e9284610e47565b610e2d565b905082815260208101848484011115610eb357610eb2610dbb565b5b610ebe848285610e77565b509392505050565b5f82601f830112610eda57610ed9610db7565b5b8135610eea848260208601610e85565b91505092915050565b5f5f60408385031215610f0957610f08610ccf565b5b5f610f1685828601610da3565b925050602083013567ffffffffffffffff811115610f3757610f36610cd3565b5b610f4385828601610ec6565b9150509250929050565b5f81519050919050565b5f82825260208201905092915050565b8281835e5f83830152505050565b5f610f7f82610f4d565b610f898185610f57565b9350610f99818560208601610f67565b610fa281610dbf565b840191505092915050565b5f6020820190508181035f830152610fc58184610f75565b905092915050565b5f819050919050565b5f610ff0610feb610fe684610cd7565b610fcd565b610cd7565b9050919050565b5f61100182610fd6565b9050919050565b5f61101282610ff7565b9050919050565b61102281611008565b82525050565b5f60208201905061103b5f830184611019565b92915050565b5f6020828403121561105657611055610ccf565b5b5f61106384828501610da3565b91505092915050565b61107581610cf6565b82525050565b5f60e08201905061108e5f83018a610d65565b61109b602083018961106c565b6110a8604083018861106c565b81810360608301526110ba8187610f75565b905081810360808301526110ce8186610f75565b90506110dd60a0830185610d65565b6110ea60c0830184610d65565b98975050505050505050565b5f5f5f6060848603121561110d5761110c610ccf565b5b5f61111a86828701610d1d565b935050602084013567ffffffffffffffff81111561113b5761113a610cd3565b5b61114786828701610ec6565b925050604084013567ffffffffffffffff81111561116857611167610cd3565b5b61117486828701610ec6565b9150509250925092565b5f81519050919050565b5f82825260208201905092915050565b5f819050602082019050919050565b6111b081610d5c565b82525050565b5f6111c183836111a7565b60208301905092915050565b5f602082019050919050565b5f6111e38261117e565b6111ed8185611188565b93506111f883611198565b805f5b8381101561122857815161120f88826111b6565b975061121a836111cd565b9250506001810190506111fb565b5085935050505092915050565b5f6020820190508181035f83015261124d81846111d9565b905092915050565b7f496e76616c6964207265636f72642049440000000000000000000000000000005f82015250565b5f611289601183610f57565b915061129482611255565b602082019050919050565b5f6020820190508181035f8301526112b68161127d565b9050919050565b5f6040820190506112d05f83018561106c565b6112dd602083018461106c565b9392505050565b5f8115159050919050565b6112f8816112e4565b8114611302575f5ffd5b50565b5f81519050611313816112ef565b92915050565b5f6020828403121561132e5761132d610ccf565b5b5f61133b84828501611305565b91505092915050565b7f4e6f2076616c696420636f6e73656e742066726f6d2070617469656e740000005f82015250565b5f611378601d83610f57565b915061138382611344565b602082019050919050565b5f6020820190508181035f8301526113a58161136c565b9050919050565b5f6040820190508181035f8301526113c48185610f75565b90506113d36020830184610d65565b9392505050565b7f4e487b71000000000000000000000000000000000000000000000000000000005f52602260045260245ffd5b5f600282049050600182168061141e57607f821691505b602082108103611431576114306113da565b5b50919050565b5f60208201905061144a5f83018461106c565b92915050565b7f50617469656e74206e6f742072656769737465726564000000000000000000005f82015250565b5f611484601683610f57565b915061148f82611450565b602082019050919050565b5f6020820190508181035f8301526114b181611478565b9050919050565b7f5265656e7472616e637947756172643a207265656e7472616e742063616c6c005f82015250565b5f6114ec601f83610f57565b91506114f7826114b8565b602082019050919050565b5f6020820190508181035f830152611519816114e0565b9050919050565b7f49504653206861736820726571756972656400000000000000000000000000005f82015250565b5f611554601283610f57565b915061155f82611520565b602082019050919050565b5f6020820190508181035f83015261158181611548565b9050919050565b7f5265636f726420747970652072657175697265640000000000000000000000005f82015250565b5f6115bc601483610f57565b91506115c782611588565b602082019050919050565b5f6020820190508181035f8301526115e9816115b0565b9050919050565b7f4e487b71000000000000000000000000000000000000000000000000000000005f52601160045260245ffd5b5f61162782610d5c565b91507fffffffffffffffffffffffffffffffffffffffffffffffffffffffffffffffff8203611659576116586115f0565b5b600182019050919050565b5f819050815f5260205f209050919050565b5f6020601f8301049050919050565b5f82821b905092915050565b5f600883026116c07fffffffffffffffffffffffffffffffffffffffffffffffffffffffffffffffff82611685565b6116ca8683611685565b95508019841693508086168417925050509392505050565b5f6116fc6116f76116f284610d5c565b610fcd565b610d5c565b9050919050565b5f819050919050565b611715836116e2565b61172961172182611703565b848454611691565b825550505050565b5f5f905090565b611740611731565b61174b81848461170c565b505050565b5f5b82811015611771576117665f828401611738565b600181019050611752565b505050565b601f8211156117c457828211156117c35761179081611664565b61179983611676565b6117a285611676565b60208610156117af575f90505b8083016117be82840382611750565b505050505b5b505050565b5f82821c905092915050565b5f6117e45f19846008026117c9565b1980831691505092915050565b5f6117fc83836117d5565b9150826002028217905092915050565b61181582610f4d565b67ffffffffffffffff81111561182e5761182d610dcf565b5b6118388254611407565b611843828285611776565b5f60209050601f831160018114611874575f8415611862578287015190505b61186c85826117f1565b8655506118d3565b601f19841661188286611664565b5f5b828110156118a957848901518255600182019150602085019450602081019050611884565b868310156118c657848901516118c2601f8916826117d5565b8355505b6001600288020188555050505b505050505050565b5f6080820190508181035f8301526118f38187610f75565b905081810360208301526119078186610f75565b90506119166040830185610d65565b6119236060830184610d65565b9594505050505056fea2646970667358221220f80d4b601e75fc3626e3c38d307fb9c4a7c6df5ea16810012bbca985082acc0d64736f6c63430008220033",
					"opcodes": "PUSH1 0x80 PUSH1 0x40 MSTORE PUSH1 0x1 PUSH0 SSTORE CALLVALUE DUP1 ISZERO PUSH2 0x13 JUMPI PUSH0 PUSH0 REVERT JUMPDEST POP PUSH1 0x40 MLOAD PUSH2 0x1B7F CODESIZE SUB DUP1 PUSH2 0x1B7F DUP4 CODECOPY DUP2 DUP2 ADD PUSH1 0x40 MSTORE DUP2 ADD SWAP1 PUSH2 0x35 SWAP2 SWAP1 PUSH2 0x147 JUMP JUMPDEST PUSH0 PUSH20 0xFFFFFFFFFFFFFFFFFFFFFFFFFFFFFFFFFFFFFFFF AND DUP2 PUSH20 0xFFFFFFFFFFFFFFFFFFFFFFFFFFFFFFFFFFFFFFFF AND SUB PUSH2 0xA3 JUMPI PUSH1 0x40 MLOAD PUSH32 0x8C379A000000000000000000000000000000000000000000000000000000000 DUP2 MSTORE PUSH1 0x4 ADD PUSH2 0x9A SWAP1 PUSH2 0x1F2 JUMP JUMPDEST PUSH1 0x40 MLOAD DUP1 SWAP2 SUB SWAP1 REVERT JUMPDEST DUP1 PUSH1 0x1 PUSH0 PUSH2 0x100 EXP DUP2 SLOAD DUP2 PUSH20 0xFFFFFFFFFFFFFFFFFFFFFFFFFFFFFFFFFFFFFFFF MUL NOT AND SWAP1 DUP4 PUSH20 0xFFFFFFFFFFFFFFFFFFFFFFFFFFFFFFFFFFFFFFFF AND MUL OR SWAP1 SSTORE POP POP PUSH2 0x210 JUMP JUMPDEST PUSH0 PUSH0 REVERT JUMPDEST PUSH0 PUSH20 0xFFFFFFFFFFFFFFFFFFFFFFFFFFFFFFFFFFFFFFFF DUP3 AND SWAP1 POP SWAP2 SWAP1 POP JUMP JUMPDEST PUSH0 PUSH2 0x116 DUP3 PUSH2 0xED JUMP JUMPDEST SWAP1 POP SWAP2 SWAP1 POP JUMP JUMPDEST PUSH2 0x126 DUP2 PUSH2 0x10C JUMP JUMPDEST DUP2 EQ PUSH2 0x130 JUMPI PUSH0 PUSH0 REVERT JUMPDEST POP JUMP JUMPDEST PUSH0 DUP2 MLOAD SWAP1 POP PUSH2 0x141 DUP2 PUSH2 0x11D JUMP JUMPDEST SWAP3 SWAP2 POP POP JUMP JUMPDEST PUSH0 PUSH1 0x20 DUP3 DUP5 SUB SLT ISZERO PUSH2 0x15C JUMPI PUSH2 0x15B PUSH2 0xE9 JUMP JUMPDEST JUMPDEST PUSH0 PUSH2 0x169 DUP5 DUP3 DUP6 ADD PUSH2 0x133 JUMP JUMPDEST SWAP2 POP POP SWAP3 SWAP2 POP POP JUMP JUMPDEST PUSH0 DUP3 DUP3 MSTORE PUSH1 0x20 DUP3 ADD SWAP1 POP SWAP3 SWAP2 POP POP JUMP JUMPDEST PUSH32 0x496E76616C6964206964656E7469747920636F6E747261637420616464726573 PUSH0 DUP3 ADD MSTORE PUSH32 0x7300000000000000000000000000000000000000000000000000000000000000 PUSH1 0x20 DUP3 ADD MSTORE POP JUMP JUMPDEST PUSH0 PUSH2 0x1DC PUSH1 0x21 DUP4 PUSH2 0x172 JUMP JUMPDEST SWAP2 POP PUSH2 0x1E7 DUP3 PUSH2 0x182 JUMP JUMPDEST PUSH1 0x40 DUP3 ADD SWAP1 POP SWAP2 SWAP1 POP JUMP JUMPDEST PUSH0 PUSH1 0x20 DUP3 ADD SWAP1 POP DUP2 DUP2 SUB PUSH0 DUP4 ADD MSTORE PUSH2 0x209 DUP2 PUSH2 0x1D0 JUMP JUMPDEST SWAP1 POP SWAP2 SWAP1 POP JUMP JUMPDEST PUSH2 0x1962 DUP1 PUSH2 0x21D PUSH0 CODECOPY PUSH0 RETURN INVALID PUSH1 0x80 PUSH1 0x40 MSTORE CALLVALUE DUP1 ISZERO PUSH2 0xF JUMPI PUSH0 PUSH0 REVERT JUMPDEST POP PUSH1 0x4 CALLDATASIZE LT PUSH2 0x91 JUMPI PUSH0 CALLDATALOAD PUSH1 0xE0 SHR DUP1 PUSH4 0x7564A13C GT PUSH2 0x64 JUMPI DUP1 PUSH4 0x7564A13C EQ PUSH2 0x143 JUMPI DUP1 PUSH4 0x900407BC EQ PUSH2 0x179 JUMPI DUP1 PUSH4 0xAA0CED90 EQ PUSH2 0x197 JUMPI DUP1 PUSH4 0xAE68E776 EQ PUSH2 0x1B3 JUMPI DUP1 PUSH4 0xB1E75DF9 EQ PUSH2 0x1E3 JUMPI PUSH2 0x91 JUMP JUMPDEST DUP1 PUSH4 0x50ABE910 EQ PUSH2 0x95 JUMPI DUP1 PUSH4 0x58214308 EQ PUSH2 0xC5 JUMPI DUP1 PUSH4 0x63FC6040 EQ PUSH2 0xF5 JUMPI DUP1 PUSH4 0x67031BAE EQ PUSH2 0x125 JUMPI JUMPDEST PUSH0 PUSH0 REVERT JUMPDEST PUSH2 0xAF PUSH1 0x4 DUP1 CALLDATASIZE SUB DUP2 ADD SWAP1 PUSH2 0xAA SWAP2 SWAP1 PUSH2 0xD31 JUMP JUMPDEST PUSH2 0x213 JUMP JUMPDEST PUSH1 0x40 MLOAD PUSH2 0xBC SWAP2 SWAP1 PUSH2 0xD74 JUMP JUMPDEST PUSH1 0x40 MLOAD DUP1 SWAP2 SUB SWAP1 RETURN JUMPDEST PUSH2 0xDF PUSH1 0x4 DUP1 CALLDATASIZE SUB DUP2 ADD SWAP1 PUSH2 0xDA SWAP2 SWAP1 PUSH2 0xD31 JUMP JUMPDEST PUSH2 0x259 JUMP JUMPDEST PUSH1 0x40 MLOAD PUSH2 0xEC SWAP2 SWAP1 PUSH2 0xD74 JUMP JUMPDEST PUSH1 0x40 MLOAD DUP1 SWAP2 SUB SWAP1 RETURN JUMPDEST PUSH2 0x10F PUSH1 0x4 DUP1 CALLDATASIZE SUB DUP2 ADD SWAP1 PUSH2 0x10A SWAP2 SWAP1 PUSH2 0xEF3 JUMP JUMPDEST PUSH2 0x2A2 JUMP JUMPDEST PUSH1 0x40 MLOAD PUSH2 0x11C SWAP2 SWAP1 PUSH2 0xFAD JUMP JUMPDEST PUSH1 0x40 MLOAD DUP1 SWAP2 SUB SWAP1 RETURN JUMPDEST PUSH2 0x12D PUSH2 0x511 JUMP JUMPDEST PUSH1 0x40 MLOAD PUSH2 0x13A SWAP2 SWAP1 PUSH2 0x1028 JUMP JUMPDEST PUSH1 0x40 MLOAD DUP1 SWAP2 SUB SWAP1 RETURN JUMPDEST PUSH2 0x15D PUSH1 0x4 DUP1 CALLDATASIZE SUB DUP2 ADD SWAP1 PUSH2 0x158 SWAP2 SWAP1 PUSH2 0x1041 JUMP JUMPDEST PUSH2 0x536 JUMP JUMPDEST PUSH1 0x40 MLOAD PUSH2 0x170 SWAP8 SWAP7 SWAP6 SWAP5 SWAP4 SWAP3 SWAP2 SWAP1 PUSH2 0x107B JUMP JUMPDEST PUSH1 0x40 MLOAD DUP1 SWAP2 SUB SWAP1 RETURN JUMPDEST PUSH2 0x181 PUSH2 0x6BE JUMP JUMPDEST PUSH1 0x40 MLOAD PUSH2 0x18E SWAP2 SWAP1 PUSH2 0xD74 JUMP JUMPDEST PUSH1 0x40 MLOAD DUP1 SWAP2 SUB SWAP1 RETURN JUMPDEST PUSH2 0x1B1 PUSH1 0x4 DUP1 CALLDATASIZE SUB DUP2 ADD SWAP1 PUSH2 0x1AC SWAP2 SWAP1 PUSH2 0x10F6 JUMP JUMPDEST PUSH2 0x6C4 JUMP JUMPDEST STOP JUMPDEST PUSH2 0x1CD PUSH1 0x4 DUP1 CALLDATASIZE SUB DUP2 ADD SWAP1 PUSH2 0x1C8 SWAP2 SWAP1 PUSH2 0xD31 JUMP JUMPDEST PUSH2 0xC1E JUMP JUMPDEST PUSH1 0x40 MLOAD PUSH2 0x1DA SWAP2 SWAP1 PUSH2 0x1235 JUMP JUMPDEST PUSH1 0x40 MLOAD DUP1 SWAP2 SUB SWAP1 RETURN JUMPDEST PUSH2 0x1FD PUSH1 0x4 DUP1 CALLDATASIZE SUB DUP2 ADD SWAP1 PUSH2 0x1F8 SWAP2 SWAP1 PUSH2 0xD31 JUMP JUMPDEST PUSH2 0xCB1 JUMP JUMPDEST PUSH1 0x40 MLOAD PUSH2 0x20A SWAP2 SWAP1 PUSH2 0xD74 JUMP JUMPDEST PUSH1 0x40 MLOAD DUP1 SWAP2 SUB SWAP1 RETURN JUMPDEST PUSH0 PUSH1 0x5 PUSH0 DUP4 PUSH20 0xFFFFFFFFFFFFFFFFFFFFFFFFFFFFFFFFFFFFFFFF AND PUSH20 0xFFFFFFFFFFFFFFFFFFFFFFFFFFFFFFFFFFFFFFFF AND DUP2 MSTORE PUSH1 0x20 ADD SWAP1 DUP2 MSTORE PUSH1 0x20 ADD PUSH0 KECCAK256 SLOAD SWAP1 POP SWAP2 SWAP1 POP JUMP JUMPDEST PUSH0 PUSH1 0x4 PUSH0 DUP4 PUSH20 0xFFFFFFFFFFFFFFFFFFFFFFFFFFFFFFFFFFFFFFFF AND PUSH20 0xFFFFFFFFFFFFFFFFFFFFFFFFFFFFFFFFFFFFFFFF AND DUP2 MSTORE PUSH1 0x20 ADD SWAP1 DUP2 MSTORE PUSH1 0x20 ADD PUSH0 KECCAK256 DUP1 SLOAD SWAP1 POP SWAP1 POP SWAP2 SWAP1 POP JUMP JUMPDEST PUSH1 0x60 PUSH0 DUP4 GT DUP1 ISZERO PUSH2 0x2B5 JUMPI POP PUSH1 0x2 SLOAD DUP4 GT ISZERO JUMPDEST PUSH2 0x2F4 JUMPI PUSH1 0x40 MLOAD PUSH32 0x8C379A000000000000000000000000000000000000000000000000000000000 DUP2 MSTORE PUSH1 0x4 ADD PUSH2 0x2EB SWAP1 PUSH2 0x129F JUMP JUMPDEST PUSH1 0x40 MLOAD DUP1 SWAP2 SUB SWAP1 REVERT JUMPDEST PUSH0 PUSH1 0x3 PUSH0 DUP6 DUP2 MSTORE PUSH1 0x20 ADD SWAP1 DUP2 MSTORE PUSH1 0x20 ADD PUSH0 KECCAK256 PUSH1 0x1 ADD PUSH0 SWAP1 SLOAD SWAP1 PUSH2 0x100 EXP SWAP1 DIV PUSH20 0xFFFFFFFFFFFFFFFFFFFFFFFFFFFFFFFFFFFFFFFF AND SWAP1 POP PUSH1 0x1 PUSH0 SWAP1 SLOAD SWAP1 PUSH2 0x100 EXP SWAP1 DIV PUSH20 0xFFFFFFFFFFFFFFFFFFFFFFFFFFFFFFFFFFFFFFFF AND PUSH20 0xFFFFFFFFFFFFFFFFFFFFFFFFFFFFFFFFFFFFFFFF AND PUSH4 0xA6D41F33 DUP3 CALLER PUSH1 0x40 MLOAD DUP4 PUSH4 0xFFFFFFFF AND PUSH1 0xE0 SHL DUP2 MSTORE PUSH1 0x4 ADD PUSH2 0x387 SWAP3 SWAP2 SWAP1 PUSH2 0x12BD JUMP JUMPDEST PUSH1 0x20 PUSH1 0x40 MLOAD DUP1 DUP4 SUB DUP2 DUP7 GAS STATICCALL ISZERO DUP1 ISZERO PUSH2 0x3A2 JUMPI RETURNDATASIZE PUSH0 PUSH0 RETURNDATACOPY RETURNDATASIZE PUSH0 REVERT JUMPDEST POP POP POP POP PUSH1 0x40 MLOAD RETURNDATASIZE PUSH1 0x1F NOT PUSH1 0x1F DUP3 ADD AND DUP3 ADD DUP1 PUSH1 0x40 MSTORE POP DUP2 ADD SWAP1 PUSH2 0x3C6 SWAP2 SWAP1 PUSH2 0x1319 JUMP JUMPDEST PUSH2 0x405 JUMPI PUSH1 0x40 MLOAD PUSH32 0x8C379A000000000000000000000000000000000000000000000000000000000 DUP2 MSTORE PUSH1 0x4 ADD PUSH2 0x3FC SWAP1 PUSH2 0x138E JUMP JUMPDEST PUSH1 0x40 MLOAD DUP1 SWAP2 SUB SWAP1 REVERT JUMPDEST CALLER PUSH20 0xFFFFFFFFFFFFFFFFFFFFFFFFFFFFFFFFFFFFFFFF AND DUP2 PUSH20 0xFFFFFFFFFFFFFFFFFFFFFFFFFFFFFFFFFFFFFFFF AND DUP6 PUSH32 0xD45BDB85767000C90389E3E0BB2DECE5049EB535B71AEF83E642BFB192E08BF2 DUP7 TIMESTAMP PUSH1 0x40 MLOAD PUSH2 0x465 SWAP3 SWAP2 SWAP1 PUSH2 0x13AC JUMP JUMPDEST PUSH1 0x40 MLOAD DUP1 SWAP2 SUB SWAP1 LOG4 PUSH1 0x3 PUSH0 DUP6 DUP2 MSTORE PUSH1 0x20 ADD SWAP1 DUP2 MSTORE PUSH1 0x20 ADD PUSH0 KECCAK256 PUSH1 0x3 ADD DUP1 SLOAD PUSH2 0x48C SWAP1 PUSH2 0x1407 JUMP JUMPDEST DUP1 PUSH1 0x1F ADD PUSH1 0x20 DUP1 SWAP2 DIV MUL PUSH1 0x20 ADD PUSH1 0x40 MLOAD SWAP1 DUP2 ADD PUSH1 0x40 MSTORE DUP1 SWAP3 SWAP2 SWAP1 DUP2 DUP2 MSTORE PUSH1 0x20 ADD DUP3 DUP1 SLOAD PUSH2 0x4B8 SWAP1 PUSH2 0x1407 JUMP JUMPDEST DUP1 ISZERO PUSH2 0x503 JUMPI DUP1 PUSH1 0x1F LT PUSH2 0x4DA JUMPI PUSH2 0x100 DUP1 DUP4 SLOAD DIV MUL DUP4 MSTORE SWAP2 PUSH1 0x20 ADD SWAP2 PUSH2 0x503 JUMP JUMPDEST DUP3 ADD SWAP2 SWAP1 PUSH0 MSTORE PUSH1 0x20 PUSH0 KECCAK256 SWAP1 JUMPDEST DUP2 SLOAD DUP2 MSTORE SWAP1 PUSH1 0x1 ADD SWAP1 PUSH1 0x20 ADD DUP1 DUP4 GT PUSH2 0x4E6 JUMPI DUP3 SWAP1 SUB PUSH1 0x1F AND DUP3 ADD SWAP2 JUMPDEST POP POP POP POP POP SWAP2 POP POP SWAP3 SWAP2 POP POP JUMP JUMPDEST PUSH1 0x1 PUSH0 SWAP1 SLOAD SWAP1 PUSH2 0x100 EXP SWAP1 DIV PUSH20 0xFFFFFFFFFFFFFFFFFFFFFFFFFFFFFFFFFFFFFFFF AND DUP2 JUMP JUMPDEST PUSH1 0x3 PUSH1 0x20 MSTORE DUP1 PUSH0 MSTORE PUSH1 0x40 PUSH0 KECCAK256 PUSH0 SWAP2 POP SWAP1 POP DUP1 PUSH0 ADD SLOAD SWAP1 DUP1 PUSH1 0x1 ADD PUSH0 SWAP1 SLOAD SWAP1 PUSH2 0x100 EXP SWAP1 DIV PUSH20 0xFFFFFFFFFFFFFFFFFFFFFFFFFFFFFFFFFFFFFFFF AND SWAP1 DUP1 PUSH1 0x2 ADD PUSH0 SWAP1 SLOAD SWAP1 PUSH2 0x100 EXP SWAP1 DIV PUSH20 0xFFFFFFFFFFFFFFFFFFFFFFFFFFFFFFFFFFFFFFFF AND SWAP1 DUP1 PUSH1 0x3 ADD DUP1 SLOAD PUSH2 0x5A5 SWAP1 PUSH2 0x1407 JUMP JUMPDEST DUP1 PUSH1 0x1F ADD PUSH1 0x20 DUP1 SWAP2 DIV MUL PUSH1 0x20 ADD PUSH1 0x40 MLOAD SWAP1 DUP2 ADD PUSH1 0x40 MSTORE DUP1 SWAP3 SWAP2 SWAP1 DUP2 DUP2 MSTORE PUSH1 0x20 ADD DUP3 DUP1 SLOAD PUSH2 0x5D1 SWAP1 PUSH2 0x1407 JUMP JUMPDEST DUP1 ISZERO PUSH2 0x61C JUMPI DUP1 PUSH1 0x1F LT PUSH2 0x5F3 JUMPI PUSH2 0x100 DUP1 DUP4 SLOAD DIV MUL DUP4 MSTORE SWAP2 PUSH1 0x20 ADD SWAP2 PUSH2 0x61C JUMP JUMPDEST DUP3 ADD SWAP2 SWAP1 PUSH0 MSTORE PUSH1 0x20 PUSH0 KECCAK256 SWAP1 JUMPDEST DUP2 SLOAD DUP2 MSTORE SWAP1 PUSH1 0x1 ADD SWAP1 PUSH1 0x20 ADD DUP1 DUP4 GT PUSH2 0x5FF JUMPI DUP3 SWAP1 SUB PUSH1 0x1F AND DUP3 ADD SWAP2 JUMPDEST POP POP POP POP POP SWAP1 DUP1 PUSH1 0x4 ADD DUP1 SLOAD PUSH2 0x631 SWAP1 PUSH2 0x1407 JUMP JUMPDEST DUP1 PUSH1 0x1F ADD PUSH1 0x20 DUP1 SWAP2 DIV MUL PUSH1 0x20 ADD PUSH1 0x40 MLOAD SWAP1 DUP2 ADD PUSH1 0x40 MSTORE DUP1 SWAP3 SWAP2 SWAP1 DUP2 DUP2 MSTORE PUSH1 0x20 ADD DUP3 DUP1 SLOAD PUSH2 0x65D SWAP1 PUSH2 0x1407 JUMP JUMPDEST DUP1 ISZERO PUSH2 0x6A8 JUMPI DUP1 PUSH1 0x1F LT PUSH2 0x67F JUMPI PUSH2 0x100 DUP1 DUP4 SLOAD DIV MUL DUP4 MSTORE SWAP2 PUSH1 0x20 ADD SWAP2 PUSH2 0x6A8 JUMP JUMPDEST DUP3 ADD SWAP2 SWAP1 PUSH0 MSTORE PUSH1 0x20 PUSH0 KECCAK256 SWAP1 JUMPDEST DUP2 SLOAD DUP2 MSTORE SWAP1 PUSH1 0x1 ADD SWAP1 PUSH1 0x20 ADD DUP1 DUP4 GT PUSH2 0x68B JUMPI DUP3 SWAP1 SUB PUSH1 0x1F AND DUP3 ADD SWAP2 JUMPDEST POP POP POP POP POP SWAP1 DUP1 PUSH1 0x5 ADD SLOAD SWAP1 DUP1 PUSH1 0x6 ADD SLOAD SWAP1 POP DUP8 JUMP JUMPDEST PUSH1 0x2 SLOAD DUP2 JUMP JUMPDEST DUP3 PUSH1 0x1 PUSH0 SWAP1 SLOAD SWAP1 PUSH2 0x100 EXP SWAP1 DIV PUSH20 0xFFFFFFFFFFFFFFFFFFFFFFFFFFFFFFFFFFFFFFFF AND PUSH20 0xFFFFFFFFFFFFFFFFFFFFFFFFFFFFFFFFFFFFFFFF AND PUSH4 0x3C4F7A9D DUP3 PUSH1 0x40 MLOAD DUP3 PUSH4 0xFFFFFFFF AND PUSH1 0xE0 SHL DUP2 MSTORE PUSH1 0x4 ADD PUSH2 0x71F SWAP2 SWAP1 PUSH2 0x1437 JUMP JUMPDEST PUSH1 0x20 PUSH1 0x40 MLOAD DUP1 DUP4 SUB DUP2 DUP7 GAS STATICCALL ISZERO DUP1 ISZERO PUSH2 0x73A JUMPI RETURNDATASIZE PUSH0 PUSH0 RETURNDATACOPY RETURNDATASIZE PUSH0 REVERT JUMPDEST POP POP POP POP PUSH1 0x40 MLOAD RETURNDATASIZE PUSH1 0x1F NOT PUSH1 0x1F DUP3 ADD AND DUP3 ADD DUP1 PUSH1 0x40 MSTORE POP DUP2 ADD SWAP1 PUSH2 0x75E SWAP2 SWAP1 PUSH2 0x1319 JUMP JUMPDEST PUSH2 0x79D JUMPI PUSH1 0x40 MLOAD PUSH32 0x8C379A000000000000000000000000000000000000000000000000000000000 DUP2 MSTORE PUSH1 0x4 ADD PUSH2 0x794 SWAP1 PUSH2 0x149A JUMP JUMPDEST PUSH1 0x40 MLOAD DUP1 SWAP2 SUB SWAP1 REVERT JUMPDEST DUP4 PUSH1 0x1 PUSH0 SWAP1 SLOAD SWAP1 PUSH2 0x100 EXP SWAP1 DIV PUSH20 0xFFFFFFFFFFFFFFFFFFFFFFFFFFFFFFFFFFFFFFFF AND PUSH20 0xFFFFFFFFFFFFFFFFFFFFFFFFFFFFFFFFFFFFFFFF AND PUSH4 0xA6D41F33 DUP3 CALLER PUSH1 0x40 MLOAD DUP4 PUSH4 0xFFFFFFFF AND PUSH1 0xE0 SHL DUP2 MSTORE PUSH1 0x4 ADD PUSH2 0x7FA SWAP3 SWAP2 SWAP1 PUSH2 0x12BD JUMP JUMPDEST PUSH1 0x20 PUSH1 0x40 MLOAD DUP1 DUP4 SUB DUP2 DUP7 GAS STATICCALL ISZERO DUP1 ISZERO PUSH2 0x815 JUMPI RETURNDATASIZE PUSH0 PUSH0 RETURNDATACOPY RETURNDATASIZE PUSH0 REVERT JUMPDEST POP POP POP POP PUSH1 0x40 MLOAD RETURNDATASIZE PUSH1 0x1F NOT PUSH1 0x1F DUP3 ADD AND DUP3 ADD DUP1 PUSH1 0x40 MSTORE POP DUP2 ADD SWAP1 PUSH2 0x839 SWAP2 SWAP1 PUSH2 0x1319 JUMP JUMPDEST PUSH2 0x878 JUMPI PUSH1 0x40 MLOAD PUSH32 0x8C379A000000000000000000000000000000000000000000000000000000000 DUP2 MSTORE PUSH1 0x4 ADD PUSH2 0x86F SWAP1 PUSH2 0x138E JUMP JUMPDEST PUSH1 0x40 MLOAD DUP1 SWAP2 SUB SWAP1 REVERT JUMPDEST PUSH1 0x1 PUSH0 SLOAD EQ PUSH2 0x8BC JUMPI PUSH1 0x40 MLOAD PUSH32 0x8C379A000000000000000000000000000000000000000000000000000000000 DUP2 MSTORE PUSH1 0x4 ADD PUSH2 0x8B3 SWAP1 PUSH2 0x1502 JUMP JUMPDEST PUSH1 0x40 MLOAD DUP1 SWAP2 SUB SWAP1 REVERT JUMPDEST PUSH1 0x2 PUSH0 DUP2 SWAP1 SSTORE POP PUSH0 DUP5 MLOAD GT PUSH2 0x906 JUMPI PUSH1 0x40 MLOAD PUSH32 0x8C379A000000000000000000000000000000000000000000000000000000000 DUP2 MSTORE PUSH1 0x4 ADD PUSH2 0x8FD SWAP1 PUSH2 0x156A JUMP JUMPDEST PUSH1 0x40 MLOAD DUP1 SWAP2 SUB SWAP1 REVERT JUMPDEST PUSH0 DUP4 MLOAD GT PUSH2 0x949 JUMPI PUSH1 0x40 MLOAD PUSH32 0x8C379A000000000000000000000000000000000000000000000000000000000 DUP2 MSTORE PUSH1 0x4 ADD PUSH2 0x940 SWAP1 PUSH2 0x15D2 JUMP JUMPDEST PUSH1 0x40 MLOAD DUP1 SWAP2 SUB SWAP1 REVERT JUMPDEST PUSH1 0x2 PUSH0 DUP2 SLOAD DUP1 SWAP3 SWAP2 SWAP1 PUSH2 0x95B SWAP1 PUSH2 0x161D JUMP JUMPDEST SWAP2 SWAP1 POP SSTORE POP PUSH1 0x5 PUSH0 DUP7 PUSH20 0xFFFFFFFFFFFFFFFFFFFFFFFFFFFFFFFFFFFFFFFF AND PUSH20 0xFFFFFFFFFFFFFFFFFFFFFFFFFFFFFFFFFFFFFFFF AND DUP2 MSTORE PUSH1 0x20 ADD SWAP1 DUP2 MSTORE PUSH1 0x20 ADD PUSH0 KECCAK256 PUSH0 DUP2 SLOAD DUP1 SWAP3 SWAP2 SWAP1 PUSH2 0x9AD SWAP1 PUSH2 0x161D JUMP JUMPDEST SWAP2 SWAP1 POP SSTORE POP PUSH0 PUSH1 0x5 PUSH0 DUP8 PUSH20 0xFFFFFFFFFFFFFFFFFFFFFFFFFFFFFFFFFFFFFFFF AND PUSH20 0xFFFFFFFFFFFFFFFFFFFFFFFFFFFFFFFFFFFFFFFF AND DUP2 MSTORE PUSH1 0x20 ADD SWAP1 DUP2 MSTORE PUSH1 0x20 ADD PUSH0 KECCAK256 SLOAD SWAP1 POP PUSH1 0x40 MLOAD DUP1 PUSH1 0xE0 ADD PUSH1 0x40 MSTORE DUP1 PUSH1 0x2 SLOAD DUP2 MSTORE PUSH1 0x20 ADD DUP8 PUSH20 0xFFFFFFFFFFFFFFFFFFFFFFFFFFFFFFFFFFFFFFFF AND DUP2 MSTORE PUSH1 0x20 ADD CALLER PUSH20 0xFFFFFFFFFFFFFFFFFFFFFFFFFFFFFFFFFFFFFFFF AND DUP2 MSTORE PUSH1 0x20 ADD DUP7 DUP2 MSTORE PUSH1 0x20 ADD DUP6 DUP2 MSTORE PUSH1 0x20 ADD DUP3 DUP2 MSTORE PUSH1 0x20 ADD TIMESTAMP DUP2 MSTORE POP PUSH1 0x3 PUSH0 PUSH1 0x2 SLOAD DUP2 MSTORE PUSH1 0x20 ADD SWAP1 DUP2 MSTORE PUSH1 0x20 ADD PUSH0 KECCAK256 PUSH0 DUP3 ADD MLOAD DUP2 PUSH0 ADD SSTORE PUSH1 0x20 DUP3 ADD MLOAD DUP2 PUSH1 0x1 ADD PUSH0 PUSH2 0x100 EXP DUP2 SLOAD DUP2 PUSH20 0xFFFFFFFFFFFFFFFFFFFFFFFFFFFFFFFFFFFFFFFF MUL NOT AND SWAP1 DUP4 PUSH20 0xFFFFFFFFFFFFFFFFFFFFFFFFFFFFFFFFFFFFFFFF AND MUL OR SWAP1 SSTORE POP PUSH1 0x40 DUP3 ADD MLOAD DUP2 PUSH1 0x2 ADD PUSH0 PUSH2 0x100 EXP DUP2 SLOAD DUP2 PUSH20 0xFFFFFFFFFFFFFFFFFFFFFFFFFFFFFFFFFFFFFFFF MUL NOT AND SWAP1 DUP4 PUSH20 0xFFFFFFFFFFFFFFFFFFFFFFFFFFFFFFFFFFFFFFFF AND MUL OR SWAP1 SSTORE POP PUSH1 0x60 DUP3 ADD MLOAD DUP2 PUSH1 0x3 ADD SWAP1 DUP2 PUSH2 0xB10 SWAP2 SWAP1 PUSH2 0x180C JUMP JUMPDEST POP PUSH1 0x80 DUP3 ADD MLOAD DUP2 PUSH1 0x4 ADD SWAP1 DUP2 PUSH2 0xB26 SWAP2 SWAP1 PUSH2 0x180C JUMP JUMPDEST POP PUSH1 0xA0 DUP3 ADD MLOAD DUP2 PUSH1 0x5 ADD SSTORE PUSH1 0xC0 DUP3 ADD MLOAD DUP2 PUSH1 0x6 ADD SSTORE SWAP1 POP POP PUSH1 0x4 PUSH0 DUP8 PUSH20 0xFFFFFFFFFFFFFFFFFFFFFFFFFFFFFFFFFFFFFFFF AND PUSH20 0xFFFFFFFFFFFFFFFFFFFFFFFFFFFFFFFFFFFFFFFF AND DUP2 MSTORE PUSH1 0x20 ADD SWAP1 DUP2 MSTORE PUSH1 0x20 ADD PUSH0 KECCAK256 PUSH1 0x2 SLOAD SWAP1 DUP1 PUSH1 0x1 DUP2 SLOAD ADD DUP1 DUP3 SSTORE DUP1 SWAP2 POP POP PUSH1 0x1 SWAP1 SUB SWAP1 PUSH0 MSTORE PUSH1 0x20 PUSH0 KECCAK256 ADD PUSH0 SWAP1 SWAP2 SWAP1 SWAP2 SWAP1 SWAP2 POP SSTORE CALLER PUSH20 0xFFFFFFFFFFFFFFFFFFFFFFFFFFFFFFFFFFFFFFFF AND DUP7 PUSH20 0xFFFFFFFFFFFFFFFFFFFFFFFFFFFFFFFFFFFFFFFF AND PUSH1 0x2 SLOAD PUSH32 0xA28F8BDC9799975B639B79D43B5ED976631E99B2B05EF7394D7406F9081604C4 DUP9 DUP9 DUP7 TIMESTAMP PUSH1 0x40 MLOAD PUSH2 0xC07 SWAP5 SWAP4 SWAP3 SWAP2 SWAP1 PUSH2 0x18DB JUMP JUMPDEST PUSH1 0x40 MLOAD DUP1 SWAP2 SUB SWAP1 LOG4 POP PUSH1 0x1 PUSH0 DUP2 SWAP1 SSTORE POP POP POP POP POP POP JUMP JUMPDEST PUSH1 0x60 PUSH1 0x4 PUSH0 DUP4 PUSH20 0xFFFFFFFFFFFFFFFFFFFFFFFFFFFFFFFFFFFFFFFF AND PUSH20 0xFFFFFFFFFFFFFFFFFFFFFFFFFFFFFFFFFFFFFFFF AND DUP2 MSTORE PUSH1 0x20 ADD SWAP1 DUP2 MSTORE PUSH1 0x20 ADD PUSH0 KECCAK256 DUP1 SLOAD DUP1 PUSH1 0x20 MUL PUSH1 0x20 ADD PUSH1 0x40 MLOAD SWAP1 DUP2 ADD PUSH1 0x40 MSTORE DUP1 SWAP3 SWAP2 SWAP1 DUP2 DUP2 MSTORE PUSH1 0x20 ADD DUP3 DUP1 SLOAD DUP1 ISZERO PUSH2 0xCA5 JUMPI PUSH1 0x20 MUL DUP3 ADD SWAP2 SWAP1 PUSH0 MSTORE PUSH1 0x20 PUSH0 KECCAK256 SWAP1 JUMPDEST DUP2 SLOAD DUP2 MSTORE PUSH1 0x20 ADD SWAP1 PUSH1 0x1 ADD SWAP1 DUP1 DUP4 GT PUSH2 0xC91 JUMPI JUMPDEST POP POP POP POP POP SWAP1 POP SWAP2 SWAP1 POP JUMP JUMPDEST PUSH1 0x5 PUSH1 0x20 MSTORE DUP1 PUSH0 MSTORE PUSH1 0x40 PUSH0 KECCAK256 PUSH0 SWAP2 POP SWAP1 POP SLOAD DUP2 JUMP JUMPDEST PUSH0 PUSH1 0x40 MLOAD SWAP1 POP SWAP1 JUMP JUMPDEST PUSH0 PUSH0 REVERT JUMPDEST PUSH0 PUSH0 REVERT JUMPDEST PUSH0 PUSH20 0xFFFFFFFFFFFFFFFFFFFFFFFFFFFFFFFFFFFFFFFF DUP3 AND SWAP1 POP SWAP2 SWAP1 POP JUMP JUMPDEST PUSH0 PUSH2 0xD00 DUP3 PUSH2 0xCD7 JUMP JUMPDEST SWAP1 POP SWAP2 SWAP1 POP JUMP JUMPDEST PUSH2 0xD10 DUP2 PUSH2 0xCF6 JUMP JUMPDEST DUP2 EQ PUSH2 0xD1A JUMPI PUSH0 PUSH0 REVERT JUMPDEST POP JUMP JUMPDEST PUSH0 DUP2 CALLDATALOAD SWAP1 POP PUSH2 0xD2B DUP2 PUSH2 0xD07 JUMP JUMPDEST SWAP3 SWAP2 POP POP JUMP JUMPDEST PUSH0 PUSH1 0x20 DUP3 DUP5 SUB SLT ISZERO PUSH2 0xD46 JUMPI PUSH2 0xD45 PUSH2 0xCCF JUMP JUMPDEST JUMPDEST PUSH0 PUSH2 0xD53 DUP5 DUP3 DUP6 ADD PUSH2 0xD1D JUMP JUMPDEST SWAP2 POP POP SWAP3 SWAP2 POP POP JUMP JUMPDEST PUSH0 DUP2 SWAP1 POP SWAP2 SWAP1 POP JUMP JUMPDEST PUSH2 0xD6E DUP2 PUSH2 0xD5C JUMP JUMPDEST DUP3 MSTORE POP POP JUMP JUMPDEST PUSH0 PUSH1 0x20 DUP3 ADD SWAP1 POP PUSH2 0xD87 PUSH0 DUP4 ADD DUP5 PUSH2 0xD65 JUMP JUMPDEST SWAP3 SWAP2 POP POP JUMP JUMPDEST PUSH2 0xD96 DUP2 PUSH2 0xD5C JUMP JUMPDEST DUP2 EQ PUSH2 0xDA0 JUMPI PUSH0 PUSH0 REVERT JUMPDEST POP JUMP JUMPDEST PUSH0 DUP2 CALLDATALOAD SWAP1 POP PUSH2 0xDB1 DUP2 PUSH2 0xD8D JUMP JUMPDEST SWAP3 SWAP2 POP POP JUMP JUMPDEST PUSH0 PUSH0 REVERT JUMPDEST PUSH0 PUSH0 REVERT JUMPDEST PUSH0 PUSH1 0x1F NOT PUSH1 0x1F DUP4 ADD AND SWAP1 POP SWAP2 SWAP1 POP JUMP JUMPDEST PUSH32 0x4E487B7100000000000000000000000000000000000000000000000000000000 PUSH0 MSTORE PUSH1 0x41 PUSH1 0x4 MSTORE PUSH1 0x24 PUSH0 REVERT JUMPDEST PUSH2 0xE05 DUP3 PUSH2 0xDBF JUMP JUMPDEST DUP2 ADD DUP2 DUP2 LT PUSH8 0xFFFFFFFFFFFFFFFF DUP3 GT OR ISZERO PUSH2 0xE24 JUMPI PUSH2 0xE23 PUSH2 0xDCF JUMP JUMPDEST JUMPDEST DUP1 PUSH1 0x40 MSTORE POP POP POP JUMP JUMPDEST PUSH0 PUSH2 0xE36 PUSH2 0xCC6 JUMP JUMPDEST SWAP1 POP PUSH2 0xE42 DUP3 DUP3 PUSH2 0xDFC JUMP JUMPDEST SWAP2 SWAP1 POP JUMP JUMPDEST PUSH0 PUSH8 0xFFFFFFFFFFFFFFFF DUP3 GT ISZERO PUSH2 0xE61 JUMPI PUSH2 0xE60 PUSH2 0xDCF JUMP JUMPDEST JUMPDEST PUSH2 0xE6A DUP3 PUSH2 0xDBF JUMP JUMPDEST SWAP1 POP PUSH1 0x20 DUP2 ADD SWAP1 POP SWAP2 SWAP1 POP JUMP JUMPDEST DUP3 DUP2 DUP4 CALLDATACOPY PUSH0 DUP4 DUP4 ADD MSTORE POP POP POP JUMP JUMPDEST PUSH0 PUSH2 0xE97 PUSH2 0xE92 DUP5 PUSH2 0xE47 JUMP JUMPDEST PUSH2 0xE2D JUMP JUMPDEST SWAP1 POP DUP3 DUP2 MSTORE PUSH1 0x20 DUP2 ADD DUP5 DUP5 DUP5 ADD GT ISZERO PUSH2 0xEB3 JUMPI PUSH2 0xEB2 PUSH2 0xDBB JUMP JUMPDEST JUMPDEST PUSH2 0xEBE DUP5 DUP3 DUP6 PUSH2 0xE77 JUMP JUMPDEST POP SWAP4 SWAP3 POP POP POP JUMP JUMPDEST PUSH0 DUP3 PUSH1 0x1F DUP4 ADD SLT PUSH2 0xEDA JUMPI PUSH2 0xED9 PUSH2 0xDB7 JUMP JUMPDEST JUMPDEST DUP2 CALLDATALOAD PUSH2 0xEEA DUP5 DUP3 PUSH1 0x20 DUP7 ADD PUSH2 0xE85 JUMP JUMPDEST SWAP2 POP POP SWAP3 SWAP2 POP POP JUMP JUMPDEST PUSH0 PUSH0 PUSH1 0x40 DUP4 DUP6 SUB SLT ISZERO PUSH2 0xF09 JUMPI PUSH2 0xF08 PUSH2 0xCCF JUMP JUMPDEST JUMPDEST PUSH0 PUSH2 0xF16 DUP6 DUP3 DUP7 ADD PUSH2 0xDA3 JUMP JUMPDEST SWAP3 POP POP PUSH1 0x20 DUP4 ADD CALLDATALOAD PUSH8 0xFFFFFFFFFFFFFFFF DUP2 GT ISZERO PUSH2 0xF37 JUMPI PUSH2 0xF36 PUSH2 0xCD3 JUMP JUMPDEST JUMPDEST PUSH2 0xF43 DUP6 DUP3 DUP7 ADD PUSH2 0xEC6 JUMP JUMPDEST SWAP2 POP POP SWAP3 POP SWAP3 SWAP1 POP JUMP JUMPDEST PUSH0 DUP2 MLOAD SWAP1 POP SWAP2 SWAP1 POP JUMP JUMPDEST PUSH0 DUP3 DUP3 MSTORE PUSH1 0x20 DUP3 ADD SWAP1 POP SWAP3 SWAP2 POP POP JUMP JUMPDEST DUP3 DUP2 DUP4 MCOPY PUSH0 DUP4 DUP4 ADD MSTORE POP POP POP JUMP JUMPDEST PUSH0 PUSH2 0xF7F DUP3 PUSH2 0xF4D JUMP JUMPDEST PUSH2 0xF89 DUP2 DUP6 PUSH2 0xF57 JUMP JUMPDEST SWAP4 POP PUSH2 0xF99 DUP2 DUP6 PUSH1 0x20 DUP7 ADD PUSH2 0xF67 JUMP JUMPDEST PUSH2 0xFA2 DUP2 PUSH2 0xDBF JUMP JUMPDEST DUP5 ADD SWAP2 POP POP SWAP3 SWAP2 POP POP JUMP JUMPDEST PUSH0 PUSH1 0x20 DUP3 ADD SWAP1 POP DUP2 DUP2 SUB PUSH0 DUP4 ADD MSTORE PUSH2 0xFC5 DUP2 DUP5 PUSH2 0xF75 JUMP JUMPDEST SWAP1 POP SWAP3 SWAP2 POP POP JUMP JUMPDEST PUSH0 DUP2 SWAP1 POP SWAP2 SWAP1 POP JUMP JUMPDEST PUSH0 PUSH2 0xFF0 PUSH2 0xFEB PUSH2 0xFE6 DUP5 PUSH2 0xCD7 JUMP JUMPDEST PUSH2 0xFCD JUMP JUMPDEST PUSH2 0xCD7 JUMP JUMPDEST SWAP1 POP SWAP2 SWAP1 POP JUMP JUMPDEST PUSH0 PUSH2 0x1001 DUP3 PUSH2 0xFD6 JUMP JUMPDEST SWAP1 POP SWAP2 SWAP1 POP JUMP JUMPDEST PUSH0 PUSH2 0x1012 DUP3 PUSH2 0xFF7 JUMP JUMPDEST SWAP1 POP SWAP2 SWAP1 POP JUMP JUMPDEST PUSH2 0x1022 DUP2 PUSH2 0x1008 JUMP JUMPDEST DUP3 MSTORE POP POP JUMP JUMPDEST PUSH0 PUSH1 0x20 DUP3 ADD SWAP1 POP PUSH2 0x103B PUSH0 DUP4 ADD DUP5 PUSH2 0x1019 JUMP JUMPDEST SWAP3 SWAP2 POP POP JUMP JUMPDEST PUSH0 PUSH1 0x20 DUP3 DUP5 SUB SLT ISZERO PUSH2 0x1056 JUMPI PUSH2 0x1055 PUSH2 0xCCF JUMP JUMPDEST JUMPDEST PUSH0 PUSH2 0x1063 DUP5 DUP3 DUP6 ADD PUSH2 0xDA3 JUMP JUMPDEST SWAP2 POP POP SWAP3 SWAP2 POP POP JUMP JUMPDEST PUSH2 0x1075 DUP2 PUSH2 0xCF6 JUMP JUMPDEST DUP3 MSTORE POP POP JUMP JUMPDEST PUSH0 PUSH1 0xE0 DUP3 ADD SWAP1 POP PUSH2 0x108E PUSH0 DUP4 ADD DUP11 PUSH2 0xD65 JUMP JUMPDEST PUSH2 0x109B PUSH1 0x20 DUP4 ADD DUP10 PUSH2 0x106C JUMP JUMPDEST PUSH2 0x10A8 PUSH1 0x40 DUP4 ADD DUP9 PUSH2 0x106C JUMP JUMPDEST DUP2 DUP2 SUB PUSH1 0x60 DUP4 ADD MSTORE PUSH2 0x10BA DUP2 DUP8 PUSH2 0xF75 JUMP JUMPDEST SWAP1 POP DUP2 DUP2 SUB PUSH1 0x80 DUP4 ADD MSTORE PUSH2 0x10CE DUP2 DUP7 PUSH2 0xF75 JUMP JUMPDEST SWAP1 POP PUSH2 0x10DD PUSH1 0xA0 DUP4 ADD DUP6 PUSH2 0xD65 JUMP JUMPDEST PUSH2 0x10EA PUSH1 0xC0 DUP4 ADD DUP5 PUSH2 0xD65 JUMP JUMPDEST SWAP9 SWAP8 POP POP POP POP POP POP POP POP JUMP JUMPDEST PUSH0 PUSH0 PUSH0 PUSH1 0x60 DUP5 DUP7 SUB SLT ISZERO PUSH2 0x110D JUMPI PUSH2 0x110C PUSH2 0xCCF JUMP JUMPDEST JUMPDEST PUSH0 PUSH2 0x111A DUP7 DUP3 DUP8 ADD PUSH2 0xD1D JUMP JUMPDEST SWAP4 POP POP PUSH1 0x20 DUP5 ADD CALLDATALOAD PUSH8 0xFFFFFFFFFFFFFFFF DUP2 GT ISZERO PUSH2 0x113B JUMPI PUSH2 0x113A PUSH2 0xCD3 JUMP JUMPDEST JUMPDEST PUSH2 0x1147 DUP7 DUP3 DUP8 ADD PUSH2 0xEC6 JUMP JUMPDEST SWAP3 POP POP PUSH1 0x40 DUP5 ADD CALLDATALOAD PUSH8 0xFFFFFFFFFFFFFFFF DUP2 GT ISZERO PUSH2 0x1168 JUMPI PUSH2 0x1167 PUSH2 0xCD3 JUMP JUMPDEST JUMPDEST PUSH2 0x1174 DUP7 DUP3 DUP8 ADD PUSH2 0xEC6 JUMP JUMPDEST SWAP2 POP POP SWAP3 POP SWAP3 POP SWAP3 JUMP JUMPDEST PUSH0 DUP2 MLOAD SWAP1 POP SWAP2 SWAP1 POP JUMP JUMPDEST PUSH0 DUP3 DUP3 MSTORE PUSH1 0x20 DUP3 ADD SWAP1 POP SWAP3 SWAP2 POP POP JUMP JUMPDEST PUSH0 DUP2 SWAP1 POP PUSH1 0x20 DUP3 ADD SWAP1 POP SWAP2 SWAP1 POP JUMP JUMPDEST PUSH2 0x11B0 DUP2 PUSH2 0xD5C JUMP JUMPDEST DUP3 MSTORE POP POP JUMP JUMPDEST PUSH0 PUSH2 0x11C1 DUP4 DUP4 PUSH2 0x11A7 JUMP JUMPDEST PUSH1 0x20 DUP4 ADD SWAP1 POP SWAP3 SWAP2 POP POP JUMP JUMPDEST PUSH0 PUSH1 0x20 DUP3 ADD SWAP1 POP SWAP2 SWAP1 POP JUMP JUMPDEST PUSH0 PUSH2 0x11E3 DUP3 PUSH2 0x117E JUMP JUMPDEST PUSH2 0x11ED DUP2 DUP6 PUSH2 0x1188 JUMP JUMPDEST SWAP4 POP PUSH2 0x11F8 DUP4 PUSH2 0x1198 JUMP JUMPDEST DUP1 PUSH0 JUMPDEST DUP4 DUP2 LT ISZERO PUSH2 0x1228 JUMPI DUP2 MLOAD PUSH2 0x120F DUP9 DUP3 PUSH2 0x11B6 JUMP JUMPDEST SWAP8 POP PUSH2 0x121A DUP4 PUSH2 0x11CD JUMP JUMPDEST SWAP3 POP POP PUSH1 0x1 DUP2 ADD SWAP1 POP PUSH2 0x11FB JUMP JUMPDEST POP DUP6 SWAP4 POP POP POP POP SWAP3 SWAP2 POP POP JUMP JUMPDEST PUSH0 PUSH1 0x20 DUP3 ADD SWAP1 POP DUP2 DUP2 SUB PUSH0 DUP4 ADD MSTORE PUSH2 0x124D DUP2 DUP5 PUSH2 0x11D9 JUMP JUMPDEST SWAP1 POP SWAP3 SWAP2 POP POP JUMP JUMPDEST PUSH32 0x496E76616C6964207265636F7264204944000000000000000000000000000000 PUSH0 DUP3 ADD MSTORE POP JUMP JUMPDEST PUSH0 PUSH2 0x1289 PUSH1 0x11 DUP4 PUSH2 0xF57 JUMP JUMPDEST SWAP2 POP PUSH2 0x1294 DUP3 PUSH2 0x1255 JUMP JUMPDEST PUSH1 0x20 DUP3 ADD SWAP1 POP SWAP2 SWAP1 POP JUMP JUMPDEST PUSH0 PUSH1 0x20 DUP3 ADD SWAP1 POP DUP2 DUP2 SUB PUSH0 DUP4 ADD MSTORE PUSH2 0x12B6 DUP2 PUSH2 0x127D JUMP JUMPDEST SWAP1 POP SWAP2 SWAP1 POP JUMP JUMPDEST PUSH0 PUSH1 0x40 DUP3 ADD SWAP1 POP PUSH2 0x12D0 PUSH0 DUP4 ADD DUP6 PUSH2 0x106C JUMP JUMPDEST PUSH2 0x12DD PUSH1 0x20 DUP4 ADD DUP5 PUSH2 0x106C JUMP JUMPDEST SWAP4 SWAP3 POP POP POP JUMP JUMPDEST PUSH0 DUP2 ISZERO ISZERO SWAP1 POP SWAP2 SWAP1 POP JUMP JUMPDEST PUSH2 0x12F8 DUP2 PUSH2 0x12E4 JUMP JUMPDEST DUP2 EQ PUSH2 0x1302 JUMPI PUSH0 PUSH0 REVERT JUMPDEST POP JUMP JUMPDEST PUSH0 DUP2 MLOAD SWAP1 POP PUSH2 0x1313 DUP2 PUSH2 0x12EF JUMP JUMPDEST SWAP3 SWAP2 POP POP JUMP JUMPDEST PUSH0 PUSH1 0x20 DUP3 DUP5 SUB SLT ISZERO PUSH2 0x132E JUMPI PUSH2 0x132D PUSH2 0xCCF JUMP JUMPDEST JUMPDEST PUSH0 PUSH2 0x133B DUP5 DUP3 DUP6 ADD PUSH2 0x1305 JUMP JUMPDEST SWAP2 POP POP SWAP3 SWAP2 POP POP JUMP JUMPDEST PUSH32 0x4E6F2076616C696420636F6E73656E742066726F6D2070617469656E74000000 PUSH0 DUP3 ADD MSTORE POP JUMP JUMPDEST PUSH0 PUSH2 0x1378 PUSH1 0x1D DUP4 PUSH2 0xF57 JUMP JUMPDEST SWAP2 POP PUSH2 0x1383 DUP3 PUSH2 0x1344 JUMP JUMPDEST PUSH1 0x20 DUP3 ADD SWAP1 POP SWAP2 SWAP1 POP JUMP JUMPDEST PUSH0 PUSH1 0x20 DUP3 ADD SWAP1 POP DUP2 DUP2 SUB PUSH0 DUP4 ADD MSTORE PUSH2 0x13A5 DUP2 PUSH2 0x136C JUMP JUMPDEST SWAP1 POP SWAP2 SWAP1 POP JUMP JUMPDEST PUSH0 PUSH1 0x40 DUP3 ADD SWAP1 POP DUP2 DUP2 SUB PUSH0 DUP4 ADD MSTORE PUSH2 0x13C4 DUP2 DUP6 PUSH2 0xF75 JUMP JUMPDEST SWAP1 POP PUSH2 0x13D3 PUSH1 0x20 DUP4 ADD DUP5 PUSH2 0xD65 JUMP JUMPDEST SWAP4 SWAP3 POP POP POP JUMP JUMPDEST PUSH32 0x4E487B7100000000000000000000000000000000000000000000000000000000 PUSH0 MSTORE PUSH1 0x22 PUSH1 0x4 MSTORE PUSH1 0x24 PUSH0 REVERT JUMPDEST PUSH0 PUSH1 0x2 DUP3 DIV SWAP1 POP PUSH1 0x1 DUP3 AND DUP1 PUSH2 0x141E JUMPI PUSH1 0x7F DUP3 AND SWAP2 POP JUMPDEST PUSH1 0x20 DUP3 LT DUP2 SUB PUSH2 0x1431 JUMPI PUSH2 0x1430 PUSH2 0x13DA JUMP JUMPDEST JUMPDEST POP SWAP2 SWAP1 POP JUMP JUMPDEST PUSH0 PUSH1 0x20 DUP3 ADD SWAP1 POP PUSH2 0x144A PUSH0 DUP4 ADD DUP5 PUSH2 0x106C JUMP JUMPDEST SWAP3 SWAP2 POP POP JUMP JUMPDEST PUSH32 0x50617469656E74206E6F74207265676973746572656400000000000000000000 PUSH0 DUP3 ADD MSTORE POP JUMP JUMPDEST PUSH0 PUSH2 0x1484 PUSH1 0x16 DUP4 PUSH2 0xF57 JUMP JUMPDEST SWAP2 POP PUSH2 0x148F DUP3 PUSH2 0x1450 JUMP JUMPDEST PUSH1 0x20 DUP3 ADD SWAP1 POP SWAP2 SWAP1 POP JUMP JUMPDEST PUSH0 PUSH1 0x20 DUP3 ADD SWAP1 POP DUP2 DUP2 SUB PUSH0 DUP4 ADD MSTORE PUSH2 0x14B1 DUP2 PUSH2 0x1478 JUMP JUMPDEST SWAP1 POP SWAP2 SWAP1 POP JUMP JUMPDEST PUSH32 0x5265656E7472616E637947756172643A207265656E7472616E742063616C6C00 PUSH0 DUP3 ADD MSTORE POP JUMP JUMPDEST PUSH0 PUSH2 0x14EC PUSH1 0x1F DUP4 PUSH2 0xF57 JUMP JUMPDEST SWAP2 POP PUSH2 0x14F7 DUP3 PUSH2 0x14B8 JUMP JUMPDEST PUSH1 0x20 DUP3 ADD SWAP1 POP SWAP2 SWAP1 POP JUMP JUMPDEST PUSH0 PUSH1 0x20 DUP3 ADD SWAP1 POP DUP2 DUP2 SUB PUSH0 DUP4 ADD MSTORE PUSH2 0x1519 DUP2 PUSH2 0x14E0 JUMP JUMPDEST SWAP1 POP SWAP2 SWAP1 POP JUMP JUMPDEST PUSH32 0x4950465320686173682072657175697265640000000000000000000000000000 PUSH0 DUP3 ADD MSTORE POP JUMP JUMPDEST PUSH0 PUSH2 0x1554 PUSH1 0x12 DUP4 PUSH2 0xF57 JUMP JUMPDEST SWAP2 POP PUSH2 0x155F DUP3 PUSH2 0x1520 JUMP JUMPDEST PUSH1 0x20 DUP3 ADD SWAP1 POP SWAP2 SWAP1 POP JUMP JUMPDEST PUSH0 PUSH1 0x20 DUP3 ADD SWAP1 POP DUP2 DUP2 SUB PUSH0 DUP4 ADD MSTORE PUSH2 0x1581 DUP2 PUSH2 0x1548 JUMP JUMPDEST SWAP1 POP SWAP2 SWAP1 POP JUMP JUMPDEST PUSH32 0x5265636F72642074797065207265717569726564000000000000000000000000 PUSH0 DUP3 ADD MSTORE POP JUMP JUMPDEST PUSH0 PUSH2 0x15BC PUSH1 0x14 DUP4 PUSH2 0xF57 JUMP JUMPDEST SWAP2 POP PUSH2 0x15C7 DUP3 PUSH2 0x1588 JUMP JUMPDEST PUSH1 0x20 DUP3 ADD SWAP1 POP SWAP2 SWAP1 POP JUMP JUMPDEST PUSH0 PUSH1 0x20 DUP3 ADD SWAP1 POP DUP2 DUP2 SUB PUSH0 DUP4 ADD MSTORE PUSH2 0x15E9 DUP2 PUSH2 0x15B0 JUMP JUMPDEST SWAP1 POP SWAP2 SWAP1 POP JUMP JUMPDEST PUSH32 0x4E487B7100000000000000000000000000000000000000000000000000000000 PUSH0 MSTORE PUSH1 0x11 PUSH1 0x4 MSTORE PUSH1 0x24 PUSH0 REVERT JUMPDEST PUSH0 PUSH2 0x1627 DUP3 PUSH2 0xD5C JUMP JUMPDEST SWAP2 POP PUSH32 0xFFFFFFFFFFFFFFFFFFFFFFFFFFFFFFFFFFFFFFFFFFFFFFFFFFFFFFFFFFFFFFFF DUP3 SUB PUSH2 0x1659 JUMPI PUSH2 0x1658 PUSH2 0x15F0 JUMP JUMPDEST JUMPDEST PUSH1 0x1 DUP3 ADD SWAP1 POP SWAP2 SWAP1 POP JUMP JUMPDEST PUSH0 DUP2 SWAP1 POP DUP2 PUSH0 MSTORE PUSH1 0x20 PUSH0 KECCAK256 SWAP1 POP SWAP2 SWAP1 POP JUMP JUMPDEST PUSH0 PUSH1 0x20 PUSH1 0x1F DUP4 ADD DIV SWAP1 POP SWAP2 SWAP1 POP JUMP JUMPDEST PUSH0 DUP3 DUP3 SHL SWAP1 POP SWAP3 SWAP2 POP POP JUMP JUMPDEST PUSH0 PUSH1 0x8 DUP4 MUL PUSH2 0x16C0 PUSH32 0xFFFFFFFFFFFFFFFFFFFFFFFFFFFFFFFFFFFFFFFFFFFFFFFFFFFFFFFFFFFFFFFF DUP3 PUSH2 0x1685 JUMP JUMPDEST PUSH2 0x16CA DUP7 DUP4 PUSH2 0x1685 JUMP JUMPDEST SWAP6 POP DUP1 NOT DUP5 AND SWAP4 POP DUP1 DUP7 AND DUP5 OR SWAP3 POP POP POP SWAP4 SWAP3 POP POP POP JUMP JUMPDEST PUSH0 PUSH2 0x16FC PUSH2 0x16F7 PUSH2 0x16F2 DUP5 PUSH2 0xD5C JUMP JUMPDEST PUSH2 0xFCD JUMP JUMPDEST PUSH2 0xD5C JUMP JUMPDEST SWAP1 POP SWAP2 SWAP1 POP JUMP JUMPDEST PUSH0 DUP2 SWAP1 POP SWAP2 SWAP1 POP JUMP JUMPDEST PUSH2 0x1715 DUP4 PUSH2 0x16E2 JUMP JUMPDEST PUSH2 0x1729 PUSH2 0x1721 DUP3 PUSH2 0x1703 JUMP JUMPDEST DUP5 DUP5 SLOAD PUSH2 0x1691 JUMP JUMPDEST DUP3 SSTORE POP POP POP POP JUMP JUMPDEST PUSH0 PUSH0 SWAP1 POP SWAP1 JUMP JUMPDEST PUSH2 0x1740 PUSH2 0x1731 JUMP JUMPDEST PUSH2 0x174B DUP2 DUP5 DUP5 PUSH2 0x170C JUMP JUMPDEST POP POP POP JUMP JUMPDEST PUSH0 JUMPDEST DUP3 DUP2 LT ISZERO PUSH2 0x1771 JUMPI PUSH2 0x1766 PUSH0 DUP3 DUP5 ADD PUSH2 0x1738 JUMP JUMPDEST PUSH1 0x1 DUP2 ADD SWAP1 POP PUSH2 0x1752 JUMP JUMPDEST POP POP POP JUMP JUMPDEST PUSH1 0x1F DUP3 GT ISZERO PUSH2 0x17C4 JUMPI DUP3 DUP3 GT ISZERO PUSH2 0x17C3 JUMPI PUSH2 0x1790 DUP2 PUSH2 0x1664 JUMP JUMPDEST PUSH2 0x1799 DUP4 PUSH2 0x1676 JUMP JUMPDEST PUSH2 0x17A2 DUP6 PUSH2 0x1676 JUMP JUMPDEST PUSH1 0x20 DUP7 LT ISZERO PUSH2 0x17AF JUMPI PUSH0 SWAP1 POP JUMPDEST DUP1 DUP4 ADD PUSH2 0x17BE DUP3 DUP5 SUB DUP3 PUSH2 0x1750 JUMP JUMPDEST POP POP POP POP JUMPDEST JUMPDEST POP POP POP JUMP JUMPDEST PUSH0 DUP3 DUP3 SHR SWAP1 POP SWAP3 SWAP2 POP POP JUMP JUMPDEST PUSH0 PUSH2 0x17E4 PUSH0 NOT DUP5 PUSH1 0x8 MUL PUSH2 0x17C9 JUMP JUMPDEST NOT DUP1 DUP4 AND SWAP2 POP POP SWAP3 SWAP2 POP POP JUMP JUMPDEST PUSH0 PUSH2 0x17FC DUP4 DUP4 PUSH2 0x17D5 JUMP JUMPDEST SWAP2 POP DUP3 PUSH1 0x2 MUL DUP3 OR SWAP1 POP SWAP3 SWAP2 POP POP JUMP JUMPDEST PUSH2 0x1815 DUP3 PUSH2 0xF4D JUMP JUMPDEST PUSH8 0xFFFFFFFFFFFFFFFF DUP2 GT ISZERO PUSH2 0x182E JUMPI PUSH2 0x182D PUSH2 0xDCF JUMP JUMPDEST JUMPDEST PUSH2 0x1838 DUP3 SLOAD PUSH2 0x1407 JUMP JUMPDEST PUSH2 0x1843 DUP3 DUP3 DUP6 PUSH2 0x1776 JUMP JUMPDEST PUSH0 PUSH1 0x20 SWAP1 POP PUSH1 0x1F DUP4 GT PUSH1 0x1 DUP2 EQ PUSH2 0x1874 JUMPI PUSH0 DUP5 ISZERO PUSH2 0x1862 JUMPI DUP3 DUP8 ADD MLOAD SWAP1 POP JUMPDEST PUSH2 0x186C DUP6 DUP3 PUSH2 0x17F1 JUMP JUMPDEST DUP7 SSTORE POP PUSH2 0x18D3 JUMP JUMPDEST PUSH1 0x1F NOT DUP5 AND PUSH2 0x1882 DUP7 PUSH2 0x1664 JUMP JUMPDEST PUSH0 JUMPDEST DUP3 DUP2 LT ISZERO PUSH2 0x18A9 JUMPI DUP5 DUP10 ADD MLOAD DUP3 SSTORE PUSH1 0x1 DUP3 ADD SWAP2 POP PUSH1 0x20 DUP6 ADD SWAP5 POP PUSH1 0x20 DUP2 ADD SWAP1 POP PUSH2 0x1884 JUMP JUMPDEST DUP7 DUP4 LT ISZERO PUSH2 0x18C6 JUMPI DUP5 DUP10 ADD MLOAD PUSH2 0x18C2 PUSH1 0x1F DUP10 AND DUP3 PUSH2 0x17D5 JUMP JUMPDEST DUP4 SSTORE POP JUMPDEST PUSH1 0x1 PUSH1 0x2 DUP9 MUL ADD DUP9 SSTORE POP POP POP JUMPDEST POP POP POP POP POP POP JUMP JUMPDEST PUSH0 PUSH1 0x80 DUP3 ADD SWAP1 POP DUP2 DUP2 SUB PUSH0 DUP4 ADD MSTORE PUSH2 0x18F3 DUP2 DUP8 PUSH2 0xF75 JUMP JUMPDEST SWAP1 POP DUP2 DUP2 SUB PUSH1 0x20 DUP4 ADD MSTORE PUSH2 0x1907 DUP2 DUP7 PUSH2 0xF75 JUMP JUMPDEST SWAP1 POP PUSH2 0x1916 PUSH1 0x40 DUP4 ADD DUP6 PUSH2 0xD65 JUMP JUMPDEST PUSH2 0x1923 PUSH1 0x60 DUP4 ADD DUP5 PUSH2 0xD65 JUMP JUMPDEST SWAP6 SWAP5 POP POP POP POP POP JUMP INVALID LOG2 PUSH5 0x6970667358 0x22 SLT KECCAK256 EXTCALL 0xD 0x4B PUSH1 0x1E PUSH22 0xFC3626E3C38D307FB9C4A7C6DF5EA16810012BBCA985 ADDMOD 0x2A 0xCC 0xD PUSH5 0x736F6C6343 STOP ADDMOD 0x22 STOP CALLER "
				},
				"gasEstimates": {
					"creation": {
						"codeDepositCost": "1299600",
						"executionCost": "infinite",
						"totalCost": "infinite"
					},
					"external": {
						"addMedicalRecord(address,string,string)": "infinite",
						"getLatestVersion(address)": "2830",
						"getRecordCount(address)": "2860",
						"getRecordsByPatient(address)": "infinite",
						"identityContract()": "infinite",
						"medicalRecords(uint256)": "infinite",
						"patientRecordVersion(address)": "2890",
						"recordCount()": "2447",
						"viewMedicalRecord(uint256,string)": "infinite"
					}
				},
				"methodIdentifiers": {
					"addMedicalRecord(address,string,string)": "aa0ced90",
					"getLatestVersion(address)": "50abe910",
					"getRecordCount(address)": "58214308",
					"getRecordsByPatient(address)": "ae68e776",
					"identityContract()": "67031bae",
					"medicalRecords(uint256)": "7564a13c",
					"patientRecordVersion(address)": "b1e75df9",
					"recordCount()": "900407bc",
					"viewMedicalRecord(uint256,string)": "63fc6040"
				}
			},
			"storageLayout": {
				"storage": [
					{
						"astId": 22,
						"contract": "contracts/MedicalRecordsAndAccess.sol:MedicalRecordsAndAccess",
						"label": "_guardStatus",
						"offset": 0,
						"slot": "0",
						"type": "t_uint256"
					},
					{
						"astId": 62,
						"contract": "contracts/MedicalRecordsAndAccess.sol:MedicalRecordsAndAccess",
						"label": "identityContract",
						"offset": 0,
						"slot": "1",
						"type": "t_contract(IPatientConsent)19"
					},
					{
						"astId": 64,
						"contract": "contracts/MedicalRecordsAndAccess.sol:MedicalRecordsAndAccess",
						"label": "recordCount",
						"offset": 0,
						"slot": "2",
						"type": "t_uint256"
					},
					{
						"astId": 69,
						"contract": "contracts/MedicalRecordsAndAccess.sol:MedicalRecordsAndAccess",
						"label": "medicalRecords",
						"offset": 0,
						"slot": "3",
						"type": "t_mapping(t_uint256,t_struct(MedicalRecord)59_storage)"
					},
					{
						"astId": 74,
						"contract": "contracts/MedicalRecordsAndAccess.sol:MedicalRecordsAndAccess",
						"label": "_patientRecordIds",
						"offset": 0,
						"slot": "4",
						"type": "t_mapping(t_address,t_array(t_uint256)dyn_storage)"
					},
					{
						"astId": 78,
						"contract": "contracts/MedicalRecordsAndAccess.sol:MedicalRecordsAndAccess",
						"label": "patientRecordVersion",
						"offset": 0,
						"slot": "5",
						"type": "t_mapping(t_address,t_uint256)"
					}
				],
				"types": {
					"t_address": {
						"encoding": "inplace",
						"label": "address",
						"numberOfBytes": "20"
					},
					"t_array(t_uint256)dyn_storage": {
						"base": "t_uint256",
						"encoding": "dynamic_array",
						"label": "uint256[]",
						"numberOfBytes": "32"
					},
					"t_contract(IPatientConsent)19": {
						"encoding": "inplace",
						"label": "contract IPatientConsent",
						"numberOfBytes": "20"
					},
					"t_mapping(t_address,t_array(t_uint256)dyn_storage)": {
						"encoding": "mapping",
						"key": "t_address",
						"label": "mapping(address => uint256[])",
						"numberOfBytes": "32",
						"value": "t_array(t_uint256)dyn_storage"
					},
					"t_mapping(t_address,t_uint256)": {
						"encoding": "mapping",
						"key": "t_address",
						"label": "mapping(address => uint256)",
						"numberOfBytes": "32",
						"value": "t_uint256"
					},
					"t_mapping(t_uint256,t_struct(MedicalRecord)59_storage)": {
						"encoding": "mapping",
						"key": "t_uint256",
						"label": "mapping(uint256 => struct MedicalRecordsAndAccess.MedicalRecord)",
						"numberOfBytes": "32",
						"value": "t_struct(MedicalRecord)59_storage"
					},
					"t_string_storage": {
						"encoding": "bytes",
						"label": "string",
						"numberOfBytes": "32"
					},
					"t_struct(MedicalRecord)59_storage": {
						"encoding": "inplace",
						"label": "struct MedicalRecordsAndAccess.MedicalRecord",
						"members": [
							{
								"astId": 46,
								"contract": "contracts/MedicalRecordsAndAccess.sol:MedicalRecordsAndAccess",
								"label": "recordId",
								"offset": 0,
								"slot": "0",
								"type": "t_uint256"
							},
							{
								"astId": 48,
								"contract": "contracts/MedicalRecordsAndAccess.sol:MedicalRecordsAndAccess",
								"label": "patient",
								"offset": 0,
								"slot": "1",
								"type": "t_address"
							},
							{
								"astId": 50,
								"contract": "contracts/MedicalRecordsAndAccess.sol:MedicalRecordsAndAccess",
								"label": "uploadedBy",
								"offset": 0,
								"slot": "2",
								"type": "t_address"
							},
							{
								"astId": 52,
								"contract": "contracts/MedicalRecordsAndAccess.sol:MedicalRecordsAndAccess",
								"label": "ipfsHash",
								"offset": 0,
								"slot": "3",
								"type": "t_string_storage"
							},
							{
								"astId": 54,
								"contract": "contracts/MedicalRecordsAndAccess.sol:MedicalRecordsAndAccess",
								"label": "recordType",
								"offset": 0,
								"slot": "4",
								"type": "t_string_storage"
							},
							{
								"astId": 56,
								"contract": "contracts/MedicalRecordsAndAccess.sol:MedicalRecordsAndAccess",
								"label": "version",
								"offset": 0,
								"slot": "5",
								"type": "t_uint256"
							},
							{
								"astId": 58,
								"contract": "contracts/MedicalRecordsAndAccess.sol:MedicalRecordsAndAccess",
								"label": "timestamp",
								"offset": 0,
								"slot": "6",
								"type": "t_uint256"
							}
						],
						"numberOfBytes": "224"
					},
					"t_uint256": {
						"encoding": "inplace",
						"label": "uint256",
						"numberOfBytes": "32"
					}
				}
			},
			"userdoc": {
				"kind": "user",
				"methods": {
					"addMedicalRecord(address,string,string)": {
						"notice": "Add a medical record for a patient.         Caller must hold valid patient consent."
					},
					"getLatestVersion(address)": {
						"notice": "Returns the latest version number of a patient's records.         Useful for checking if a patient's records have been updated."
					},
					"getRecordCount(address)": {
						"notice": "Returns the total number of records for a patient."
					},
					"getRecordsByPatient(address)": {
						"notice": "Returns all record IDs belonging to a patient.         Frontend uses this to paginate a patient's record history."
					},
					"viewMedicalRecord(uint256,string)": {
						"notice": "View a specific medical record and emit an access log.         Requires valid patient consent."
					}
				},
				"version": 1
			}
		}
	}
}