{
	"data": {
		"bytecode": {
			"linkReferences": {},
			"object": "608060405260015f55348015610013575f5ffd5b50604051611dfe380380611dfe83398181016040528101906100359190610147565b5f73ffffffffffffffffffffffffffffffffffffffff168173ffffffffffffffffffffffffffffffffffffffff16036100a3576040517f08c379a000000000000000000000000000000000000000000000000000000000815260040161009a906101f2565b60405180910390fd5b8060015f6101000a81548173ffffffffffffffffffffffffffffffffffffffff021916908373ffffffffffffffffffffffffffffffffffffffff16021790555050610210565b5f5ffd5b5f73ffffffffffffffffffffffffffffffffffffffff82169050919050565b5f610116826100ed565b9050919050565b6101268161010c565b8114610130575f5ffd5b50565b5f815190506101418161011d565b92915050565b5f6020828403121561015c5761015b6100e9565b5b5f61016984828501610133565b91505092915050565b5f82825260208201905092915050565b7f496e76616c6964206964656e7469747920636f6e7472616374206164647265735f8201527f7300000000000000000000000000000000000000000000000000000000000000602082015250565b5f6101dc602183610172565b91506101e782610182565b604082019050919050565b5f6020820190508181035f830152610209816101d0565b9050919050565b611be18061021d5f395ff3fe608060405234801561000f575f5ffd5b506004361061009c575f3560e01c80638d36eb1e116100645780638d36eb1e14610184578063900407bc146101a0578063aa0ced90146101be578063ae68e776146101da578063b1e75df91461020a5761009c565b806350abe910146100a057806358214308146100d057806363fc60401461010057806367031bae146101305780637564a13c1461014e575b5f5ffd5b6100ba60048036038101906100b59190610edf565b61023a565b6040516100c79190610f22565b60405180910390f35b6100ea60048036038101906100e59190610edf565b610280565b6040516100f79190610f22565b60405180910390f35b61011a600480360381019061011591906110a1565b6102c9565b604051610127919061115b565b60405180910390f35b610138610538565b60405161014591906111d6565b60405180910390f35b610168600480360381019061016391906111ef565b61055d565b60405161017b9796959493929190611229565b60405180910390f35b61019e600480360381019061019991906110a1565b6106e5565b005b6101a861086c565b6040516101b59190610f22565b60405180910390f35b6101d860048036038101906101d391906112a4565b610872565b005b6101f460048036038101906101ef9190610edf565b610dcc565b60405161020191906113e3565b60405180910390f35b610224600480360381019061021f9190610edf565b610e5f565b6040516102319190610f22565b60405180910390f35b5f60055f8373ffffffffffffffffffffffffffffffffffffffff1673ffffffffffffffffffffffffffffffffffffffff1681526020019081526020015f20549050919050565b5f60045f8373ffffffffffffffffffffffffffffffffffffffff1673ffffffffffffffffffffffffffffffffffffffff1681526020019081526020015f20805490509050919050565b60605f831180156102dc57506002548311155b61031b576040517f08c379a00000000000000000000000000000000000000000000000000000000081526004016103129061144d565b60405180910390fd5b5f60035f8581526020019081526020015f206001015f9054906101000a900473ffffffffffffffffffffffffffffffffffffffff16905060015f9054906101000a900473ffffffffffffffffffffffffffffffffffffffff1673ffffffffffffffffffffffffffffffffffffffff1663a6d41f3382336040518363ffffffff1660e01b81526004016103ae92919061146b565b602060405180830381865afa1580156103c9573d5f5f3e3d5ffd5b505050506040513d601f19601f820116820180604052508101906103ed91906114c7565b61042c576040517f08c379a00000000000000000000000000000000000000000000000000000000081526004016104239061153c565b60405180910390fd5b3373ffffffffffffffffffffffffffffffffffffffff168173ffffffffffffffffffffffffffffffffffffffff16857fd45bdb85767000c90389e3e0bb2dece5049eb535b71aef83e642bfb192e08bf2864260405161048c92919061155a565b60405180910390a460035f8581526020019081526020015f2060030180546104b3906115b5565b80601f01602080910402602001604051908101604052809291908181526020018280546104df906115b5565b801561052a5780601f106105015761010080835404028352916020019161052a565b820191905f5260205f20905b81548152906001019060200180831161050d57829003601f168201915b505050505091505092915050565b60015f9054906101000a900473ffffffffffffffffffffffffffffffffffffffff1681565b6003602052805f5260405f205f91509050805f015490806001015f9054906101000a900473ffffffffffffffffffffffffffffffffffffffff1690806002015f9054906101000a900473ffffffffffffffffffffffffffffffffffffffff16908060030180546105cc906115b5565b80601f01602080910402602001604051908101604052809291908181526020018280546105f8906115b5565b80156106435780601f1061061a57610100808354040283529160200191610643565b820191905f5260205f20905b81548152906001019060200180831161062657829003601f168201915b505050505090806004018054610658906115b5565b80601f0160208091040260200160405190810160405280929190818152602001828054610684906115b5565b80156106cf5780601f106106a6576101008083540402835291602001916106cf565b820191905f5260205f20905b8154815290600101906020018083116106b257829003601f168201915b5050505050908060050154908060060154905087565b5f60035f8481526020019081526020015f209050806002015f9054906101000a900473ffffffffffffffffffffffffffffffffffffffff1673ffffffffffffffffffffffffffffffffffffffff163373ffffffffffffffffffffffffffffffffffffffff161461078a576040517f08c379a000000000000000000000000000000000000000000000000000000000815260040161078190611655565b60405180910390fd5b5f81600301805461079a906115b5565b80601f01602080910402602001604051908101604052809291908181526020018280546107c6906115b5565b80156108115780601f106107e857610100808354040283529160200191610811565b820191905f5260205f20905b8154815290600101906020018083116107f457829003601f168201915b5050505050905082826003019081610829919061181b565b50837ff8553e29cd0cf9bfd617ab4b6f118662191f74b4e51d0dd5e7cefe39a51de88d82854260405161085e939291906118ea565b60405180910390a250505050565b60025481565b8260015f9054906101000a900473ffffffffffffffffffffffffffffffffffffffff1673ffffffffffffffffffffffffffffffffffffffff16633c4f7a9d826040518263ffffffff1660e01b81526004016108cd919061192d565b602060405180830381865afa1580156108e8573d5f5f3e3d5ffd5b505050506040513d601f19601f8201168201806040525081019061090c91906114c7565b61094b576040517f08c379a000000000000000000000000000000000000000000000000000000000815260040161094290611990565b60405180910390fd5b8360015f9054906101000a900473ffffffffffffffffffffffffffffffffffffffff1673ffffffffffffffffffffffffffffffffffffffff1663a6d41f3382336040518363ffffffff1660e01b81526004016109a892919061146b565b602060405180830381865afa1580156109c3573d5f5f3e3d5ffd5b505050506040513d601f19601f820116820180604052508101906109e791906114c7565b610a26576040517f08c379a0000000000000000000000000000000000000000000000000000000008152600401610a1d9061153c565b60405180910390fd5b60015f5414610a6a576040517f08c379a0000000000000000000000000000000000000000000000000000000008152600401610a61906119f8565b60405180910390fd5b60025f819055505f845111610ab4576040517f08c379a0000000000000000000000000000000000000000000000000000000008152600401610aab90611a60565b60405180910390fd5b5f835111610af7576040517f08c379a0000000000000000000000000000000000000000000000000000000008152600401610aee90611ac8565b60405180910390fd5b60025f815480929190610b0990611b13565b919050555060055f8673ffffffffffffffffffffffffffffffffffffffff1673ffffffffffffffffffffffffffffffffffffffff1681526020019081526020015f205f815480929190610b5b90611b13565b91905055505f60055f8773ffffffffffffffffffffffffffffffffffffffff1673ffffffffffffffffffffffffffffffffffffffff1681526020019081526020015f205490506040518060e0016040528060025481526020018773ffffffffffffffffffffffffffffffffffffffff1681526020013373ffffffffffffffffffffffffffffffffffffffff1681526020018681526020018581526020018281526020014281525060035f60025481526020019081526020015f205f820151815f01556020820151816001015f6101000a81548173ffffffffffffffffffffffffffffffffffffffff021916908373ffffffffffffffffffffffffffffffffffffffff1602179055506040820151816002015f6101000a81548173ffffffffffffffffffffffffffffffffffffffff021916908373ffffffffffffffffffffffffffffffffffffffff1602179055506060820151816003019081610cbe919061181b565b506080820151816004019081610cd4919061181b565b5060a0820151816005015560c0820151816006015590505060045f8773ffffffffffffffffffffffffffffffffffffffff1673ffffffffffffffffffffffffffffffffffffffff1681526020019081526020015f20600254908060018154018082558091505060019003905f5260205f20015f90919091909150553373ffffffffffffffffffffffffffffffffffffffff168673ffffffffffffffffffffffffffffffffffffffff166002547fa28f8bdc9799975b639b79d43b5ed976631e99b2b05ef7394d7406f9081604c488888642604051610db59493929190611b5a565b60405180910390a45060015f819055505050505050565b606060045f8373ffffffffffffffffffffffffffffffffffffffff1673ffffffffffffffffffffffffffffffffffffffff1681526020019081526020015f20805480602002602001604051908101604052809291908181526020018280548015610e5357602002820191905f5260205f20905b815481526020019060010190808311610e3f575b50505050509050919050565b6005602052805f5260405f205f915090505481565b5f604051905090565b5f5ffd5b5f5ffd5b5f73ffffffffffffffffffffffffffffffffffffffff82169050919050565b5f610eae82610e85565b9050919050565b610ebe81610ea4565b8114610ec8575f5ffd5b50565b5f81359050610ed981610eb5565b92915050565b5f60208284031215610ef457610ef3610e7d565b5b5f610f0184828501610ecb565b91505092915050565b5f819050919050565b610f1c81610f0a565b82525050565b5f602082019050610f355f830184610f13565b92915050565b610f4481610f0a565b8114610f4e575f5ffd5b50565b5f81359050610f5f81610f3b565b92915050565b5f5ffd5b5f5ffd5b5f601f19601f8301169050919050565b7f4e487b71000000000000000000000000000000000000000000000000000000005f52604160045260245ffd5b610fb382610f6d565b810181811067ffffffffffffffff82111715610fd257610fd1610f7d565b5b80604052505050565b5f610fe4610e74565b9050610ff08282610faa565b919050565b5f67ffffffffffffffff82111561100f5761100e610f7d565b5b61101882610f6d565b9050602081019050919050565b828183375f83830152505050565b5f61104561104084610ff5565b610fdb565b90508281526020810184848401111561106157611060610f69565b5b61106c848285611025565b509392505050565b5f82601f83011261108857611087610f65565b5b8135611098848260208601611033565b91505092915050565b5f5f604083850312156110b7576110b6610e7d565b5b5f6110c485828601610f51565b925050602083013567ffffffffffffffff8111156110e5576110e4610e81565b5b6110f185828601611074565b9150509250929050565b5f81519050919050565b5f82825260208201905092915050565b8281835e5f83830152505050565b5f61112d826110fb565b6111378185611105565b9350611147818560208601611115565b61115081610f6d565b840191505092915050565b5f6020820190508181035f8301526111738184611123565b905092915050565b5f819050919050565b5f61119e61119961119484610e85565b61117b565b610e85565b9050919050565b5f6111af82611184565b9050919050565b5f6111c0826111a5565b9050919050565b6111d0816111b6565b82525050565b5f6020820190506111e95f8301846111c7565b92915050565b5f6020828403121561120457611203610e7d565b5b5f61121184828501610f51565b91505092915050565b61122381610ea4565b82525050565b5f60e08201905061123c5f83018a610f13565b611249602083018961121a565b611256604083018861121a565b81810360608301526112688187611123565b9050818103608083015261127c8186611123565b905061128b60a0830185610f13565b61129860c0830184610f13565b98975050505050505050565b5f5f5f606084860312156112bb576112ba610e7d565b5b5f6112c886828701610ecb565b935050602084013567ffffffffffffffff8111156112e9576112e8610e81565b5b6112f586828701611074565b925050604084013567ffffffffffffffff81111561131657611315610e81565b5b61132286828701611074565b9150509250925092565b5f81519050919050565b5f82825260208201905092915050565b5f819050602082019050919050565b61135e81610f0a565b82525050565b5f61136f8383611355565b60208301905092915050565b5f602082019050919050565b5f6113918261132c565b61139b8185611336565b93506113a683611346565b805f5b838110156113d65781516113bd8882611364565b97506113c88361137b565b9250506001810190506113a9565b5085935050505092915050565b5f6020820190508181035f8301526113fb8184611387565b905092915050565b7f496e76616c6964207265636f72642049440000000000000000000000000000005f82015250565b5f611437601183611105565b915061144282611403565b602082019050919050565b5f6020820190508181035f8301526114648161142b565b9050919050565b5f60408201905061147e5f83018561121a565b61148b602083018461121a565b9392505050565b5f8115159050919050565b6114a681611492565b81146114b0575f5ffd5b50565b5f815190506114c18161149d565b92915050565b5f602082840312156114dc576114db610e7d565b5b5f6114e9848285016114b3565b91505092915050565b7f4e6f2076616c696420636f6e73656e742066726f6d2070617469656e740000005f82015250565b5f611526601d83611105565b9150611531826114f2565b602082019050919050565b5f6020820190508181035f8301526115538161151a565b9050919050565b5f6040820190508181035f8301526115728185611123565b90506115816020830184610f13565b9392505050565b7f4e487b71000000000000000000000000000000000000000000000000000000005f52602260045260245ffd5b5f60028204905060018216806115cc57607f821691505b6020821081036115df576115de611588565b5b50919050565b7f4f6e6c7920746865207072657363726962696e6720646f63746f722063616e205f8201527f7570646174652074686973207265636f72640000000000000000000000000000602082015250565b5f61163f603283611105565b915061164a826115e5565b604082019050919050565b5f6020820190508181035f83015261166c81611633565b9050919050565b5f819050815f5260205f209050919050565b5f6020601f8301049050919050565b5f82821b905092915050565b5f600883026116cf7fffffffffffffffffffffffffffffffffffffffffffffffffffffffffffffffff82611694565b6116d98683611694565b95508019841693508086168417925050509392505050565b5f61170b61170661170184610f0a565b61117b565b610f0a565b9050919050565b5f819050919050565b611724836116f1565b61173861173082611712565b8484546116a0565b825550505050565b5f5f905090565b61174f611740565b61175a81848461171b565b505050565b5f5b82811015611780576117755f828401611747565b600181019050611761565b505050565b601f8211156117d357828211156117d25761179f81611673565b6117a883611685565b6117b185611685565b60208610156117be575f90505b8083016117cd8284038261175f565b505050505b5b505050565b5f82821c905092915050565b5f6117f35f19846008026117d8565b1980831691505092915050565b5f61180b83836117e4565b9150826002028217905092915050565b611824826110fb565b67ffffffffffffffff81111561183d5761183c610f7d565b5b61184782546115b5565b611852828285611785565b5f60209050601f831160018114611883575f8415611871578287015190505b61187b8582611800565b8655506118e2565b601f19841661189186611673565b5f5b828110156118b857848901518255600182019150602085019450602081019050611893565b868310156118d557848901516118d1601f8916826117e4565b8355505b6001600288020188555050505b505050505050565b5f6060820190508181035f8301526119028186611123565b905081810360208301526119168185611123565b90506119256040830184610f13565b949350505050565b5f6020820190506119405f83018461121a565b92915050565b7f50617469656e74206e6f742072656769737465726564000000000000000000005f82015250565b5f61197a601683611105565b915061198582611946565b602082019050919050565b5f6020820190508181035f8301526119a78161196e565b9050919050565b7f5265656e7472616e637947756172643a207265656e7472616e742063616c6c005f82015250565b5f6119e2601f83611105565b91506119ed826119ae565b602082019050919050565b5f6020820190508181035f830152611a0f816119d6565b9050919050565b7f49504653206861736820726571756972656400000000000000000000000000005f82015250565b5f611a4a601283611105565b9150611a5582611a16565b602082019050919050565b5f6020820190508181035f830152611a7781611a3e565b9050919050565b7f5265636f726420747970652072657175697265640000000000000000000000005f82015250565b5f611ab2601483611105565b9150611abd82611a7e565b602082019050919050565b5f6020820190508181035f830152611adf81611aa6565b9050919050565b7f4e487b71000000000000000000000000000000000000000000000000000000005f52601160045260245ffd5b5f611b1d82610f0a565b91507fffffffffffffffffffffffffffffffffffffffffffffffffffffffffffffffff8203611b4f57611b4e611ae6565b5b600182019050919050565b5f6080820190508181035f830152611b728187611123565b90508181036020830152611b868186611123565b9050611b956040830185610f13565b611ba26060830184610f13565b9594505050505056fea264697066735822122062cdaf30beed88f7df64719933552ea809c5d5d1066a3b55801520f5a5c7ce3964736f6c63430008220033",
			"opcodes": "PUSH1 0x80 PUSH1 0x40 MSTORE PUSH1 0x1 PUSH0 SSTORE CALLVALUE DUP1 ISZERO PUSH2 0x13 JUMPI PUSH0 PUSH0 REVERT JUMPDEST POP PUSH1 0x40 MLOAD PUSH2 0x1DFE CODESIZE SUB DUP1 PUSH2 0x1DFE DUP4 CODECOPY DUP2 DUP2 ADD PUSH1 0x40 MSTORE DUP2 ADD SWAP1 PUSH2 0x35 SWAP2 SWAP1 PUSH2 0x147 JUMP JUMPDEST PUSH0 PUSH20 0xFFFFFFFFFFFFFFFFFFFFFFFFFFFFFFFFFFFFFFFF AND DUP2 PUSH20 0xFFFFFFFFFFFFFFFFFFFFFFFFFFFFFFFFFFFFFFFF AND SUB PUSH2 0xA3 JUMPI PUSH1 0x40 MLOAD PUSH32 0x8C379A000000000000000000000000000000000000000000000000000000000 DUP2 MSTORE PUSH1 0x4 ADD PUSH2 0x9A SWAP1 PUSH2 0x1F2 JUMP JUMPDEST PUSH1 0x40 MLOAD DUP1 SWAP2 SUB SWAP1 REVERT JUMPDEST DUP1 PUSH1 0x1 PUSH0 PUSH2 0x100 EXP DUP2 SLOAD DUP2 PUSH20 0xFFFFFFFFFFFFFFFFFFFFFFFFFFFFFFFFFFFFFFFF MUL NOT AND SWAP1 DUP4 PUSH20 0xFFFFFFFFFFFFFFFFFFFFFFFFFFFFFFFFFFFFFFFF AND MUL OR SWAP1 SSTORE POP POP PUSH2 0x210 JUMP JUMPDEST PUSH0 PUSH0 REVERT JUMPDEST PUSH0 PUSH20 0xFFFFFFFFFFFFFFFFFFFFFFFFFFFFFFFFFFFFFFFF DUP3 AND SWAP1 POP SWAP2 SWAP1 POP JUMP JUMPDEST PUSH0 PUSH2 0x116 DUP3 PUSH2 0xED JUMP JUMPDEST SWAP1 POP SWAP2 SWAP1 POP JUMP JUMPDEST PUSH2 0x126 DUP2 PUSH2 0x10C JUMP JUMPDEST DUP2 EQ PUSH2 0x130 JUMPI PUSH0 PUSH0 REVERT JUMPDEST POP JUMP JUMPDEST PUSH0 DUP2 MLOAD SWAP1 POP PUSH2 0x141 DUP2 PUSH2 0x11D JUMP JUMPDEST SWAP3 SWAP2 POP POP JUMP JUMPDEST PUSH0 PUSH1 0x20 DUP3 DUP5 SUB SLT ISZERO PUSH2 0x15C JUMPI PUSH2 0x15B PUSH2 0xE9 JUMP JUMPDEST JUMPDEST PUSH0 PUSH2 0x169 DUP5 DUP3 DUP6 ADD PUSH2 0x133 JUMP JUMPDEST SWAP2 POP POP SWAP3 SWAP2 POP POP JUMP JUMPDEST PUSH0 DUP3 DUP3 MSTORE PUSH1 0x20 DUP3 ADD SWAP1 POP SWAP3 SWAP2 POP POP JUMP JUMPDEST PUSH32 0x496E76616C6964206964656E7469747920636F6E747261637420616464726573 PUSH0 DUP3 ADD MSTORE PUSH32 0x7300000000000000000000000000000000000000000000000000000000000000 PUSH1 0x20 DUP3 ADD MSTORE POP JUMP JUMPDEST PUSH0 PUSH2 0x1DC PUSH1 0x21 DUP4 PUSH2 0x172 JUMP JUMPDEST SWAP2 POP PUSH2 0x1E7 DUP3 PUSH2 0x182 JUMP JUMPDEST PUSH1 0x40 DUP3 ADD SWAP1 POP SWAP2 SWAP1 POP JUMP JUMPDEST PUSH0 PUSH1 0x20 DUP3 ADD SWAP1 POP DUP2 DUP2 SUB PUSH0 DUP4 ADD MSTORE PUSH2 0x209 DUP2 PUSH2 0x1D0 JUMP JUMPDEST SWAP1 POP SWAP2 SWAP1 POP JUMP JUMPDEST PUSH2 0x1BE1 DUP1 PUSH2 0x21D PUSH0 CODECOPY PUSH0 RETURN INVALID PUSH1 0x80 PUSH1 0x40 MSTORE CALLVALUE DUP1 ISZERO PUSH2 0xF JUMPI PUSH0 PUSH0 REVERT JUMPDEST POP PUSH1 0x4 CALLDATASIZE LT PUSH2 0x9C JUMPI PUSH0 CALLDATALOAD PUSH1 0xE0 SHR DUP1 PUSH4 0x8D36EB1E GT PUSH2 0x64 JUMPI DUP1 PUSH4 0x8D36EB1E EQ PUSH2 0x184 JUMPI DUP1 PUSH4 0x900407BC EQ PUSH2 0x1A0 JUMPI DUP1 PUSH4 0xAA0CED90 EQ PUSH2 0x1BE JUMPI DUP1 PUSH4 0xAE68E776 EQ PUSH2 0x1DA JUMPI DUP1 PUSH4 0xB1E75DF9 EQ PUSH2 0x20A JUMPI PUSH2 0x9C JUMP JUMPDEST DUP1 PUSH4 0x50ABE910 EQ PUSH2 0xA0 JUMPI DUP1 PUSH4 0x58214308 EQ PUSH2 0xD0 JUMPI DUP1 PUSH4 0x63FC6040 EQ PUSH2 0x100 JUMPI DUP1 PUSH4 0x67031BAE EQ PUSH2 0x130 JUMPI DUP1 PUSH4 0x7564A13C EQ PUSH2 0x14E JUMPI JUMPDEST PUSH0 PUSH0 REVERT JUMPDEST PUSH2 0xBA PUSH1 0x4 DUP1 CALLDATASIZE SUB DUP2 ADD SWAP1 PUSH2 0xB5 SWAP2 SWAP1 PUSH2 0xEDF JUMP JUMPDEST PUSH2 0x23A JUMP JUMPDEST PUSH1 0x40 MLOAD PUSH2 0xC7 SWAP2 SWAP1 PUSH2 0xF22 JUMP JUMPDEST PUSH1 0x40 MLOAD DUP1 SWAP2 SUB SWAP1 RETURN JUMPDEST PUSH2 0xEA PUSH1 0x4 DUP1 CALLDATASIZE SUB DUP2 ADD SWAP1 PUSH2 0xE5 SWAP2 SWAP1 PUSH2 0xEDF JUMP JUMPDEST PUSH2 0x280 JUMP JUMPDEST PUSH1 0x40 MLOAD PUSH2 0xF7 SWAP2 SWAP1 PUSH2 0xF22 JUMP JUMPDEST PUSH1 0x40 MLOAD DUP1 SWAP2 SUB SWAP1 RETURN JUMPDEST PUSH2 0x11A PUSH1 0x4 DUP1 CALLDATASIZE SUB DUP2 ADD SWAP1 PUSH2 0x115 SWAP2 SWAP1 PUSH2 0x10A1 JUMP JUMPDEST PUSH2 0x2C9 JUMP JUMPDEST PUSH1 0x40 MLOAD PUSH2 0x127 SWAP2 SWAP1 PUSH2 0x115B JUMP JUMPDEST PUSH1 0x40 MLOAD DUP1 SWAP2 SUB SWAP1 RETURN JUMPDEST PUSH2 0x138 PUSH2 0x538 JUMP JUMPDEST PUSH1 0x40 MLOAD PUSH2 0x145 SWAP2 SWAP1 PUSH2 0x11D6 JUMP JUMPDEST PUSH1 0x40 MLOAD DUP1 SWAP2 SUB SWAP1 RETURN JUMPDEST PUSH2 0x168 PUSH1 0x4 DUP1 CALLDATASIZE SUB DUP2 ADD SWAP1 PUSH2 0x163 SWAP2 SWAP1 PUSH2 0x11EF JUMP JUMPDEST PUSH2 0x55D JUMP JUMPDEST PUSH1 0x40 MLOAD PUSH2 0x17B SWAP8 SWAP7 SWAP6 SWAP5 SWAP4 SWAP3 SWAP2 SWAP1 PUSH2 0x1229 JUMP JUMPDEST PUSH1 0x40 MLOAD DUP1 SWAP2 SUB SWAP1 RETURN JUMPDEST PUSH2 0x19E PUSH1 0x4 DUP1 CALLDATASIZE SUB DUP2 ADD SWAP1 PUSH2 0x199 SWAP2 SWAP1 PUSH2 0x10A1 JUMP JUMPDEST PUSH2 0x6E5 JUMP JUMPDEST STOP JUMPDEST PUSH2 0x1A8 PUSH2 0x86C JUMP JUMPDEST PUSH1 0x40 MLOAD PUSH2 0x1B5 SWAP2 SWAP1 PUSH2 0xF22 JUMP JUMPDEST PUSH1 0x40 MLOAD DUP1 SWAP2 SUB SWAP1 RETURN JUMPDEST PUSH2 0x1D8 PUSH1 0x4 DUP1 CALLDATASIZE SUB DUP2 ADD SWAP1 PUSH2 0x1D3 SWAP2 SWAP1 PUSH2 0x12A4 JUMP JUMPDEST PUSH2 0x872 JUMP JUMPDEST STOP JUMPDEST PUSH2 0x1F4 PUSH1 0x4 DUP1 CALLDATASIZE SUB DUP2 ADD SWAP1 PUSH2 0x1EF SWAP2 SWAP1 PUSH2 0xEDF JUMP JUMPDEST PUSH2 0xDCC JUMP JUMPDEST PUSH1 0x40 MLOAD PUSH2 0x201 SWAP2 SWAP1 PUSH2 0x13E3 JUMP JUMPDEST PUSH1 0x40 MLOAD DUP1 SWAP2 SUB SWAP1 RETURN JUMPDEST PUSH2 0x224 PUSH1 0x4 DUP1 CALLDATASIZE SUB DUP2 ADD SWAP1 PUSH2 0x21F SWAP2 SWAP1 PUSH2 0xEDF JUMP JUMPDEST PUSH2 0xE5F JUMP JUMPDEST PUSH1 0x40 MLOAD PUSH2 0x231 SWAP2 SWAP1 PUSH2 0xF22 JUMP JUMPDEST PUSH1 0x40 MLOAD DUP1 SWAP2 SUB SWAP1 RETURN JUMPDEST PUSH0 PUSH1 0x5 PUSH0 DUP4 PUSH20 0xFFFFFFFFFFFFFFFFFFFFFFFFFFFFFFFFFFFFFFFF AND PUSH20 0xFFFFFFFFFFFFFFFFFFFFFFFFFFFFFFFFFFFFFFFF AND DUP2 MSTORE PUSH1 0x20 ADD SWAP1 DUP2 MSTORE PUSH1 0x20 ADD PUSH0 KECCAK256 SLOAD SWAP1 POP SWAP2 SWAP1 POP JUMP JUMPDEST PUSH0 PUSH1 0x4 PUSH0 DUP4 PUSH20 0xFFFFFFFFFFFFFFFFFFFFFFFFFFFFFFFFFFFFFFFF AND PUSH20 0xFFFFFFFFFFFFFFFFFFFFFFFFFFFFFFFFFFFFFFFF AND DUP2 MSTORE PUSH1 0x20 ADD SWAP1 DUP2 MSTORE PUSH1 0x20 ADD PUSH0 KECCAK256 DUP1 SLOAD SWAP1 POP SWAP1 POP SWAP2 SWAP1 POP JUMP JUMPDEST PUSH1 0x60 PUSH0 DUP4 GT DUP1 ISZERO PUSH2 0x2DC JUMPI POP PUSH1 0x2 SLOAD DUP4 GT ISZERO JUMPDEST PUSH2 0x31B JUMPI PUSH1 0x40 MLOAD PUSH32 0x8C379A000000000000000000000000000000000000000000000000000000000 DUP2 MSTORE PUSH1 0x4 ADD PUSH2 0x312 SWAP1 PUSH2 0x144D JUMP JUMPDEST PUSH1 0x40 MLOAD DUP1 SWAP2 SUB SWAP1 REVERT JUMPDEST PUSH0 PUSH1 0x3 PUSH0 DUP6 DUP2 MSTORE PUSH1 0x20 ADD SWAP1 DUP2 MSTORE PUSH1 0x20 ADD PUSH0 KECCAK256 PUSH1 0x1 ADD PUSH0 SWAP1 SLOAD SWAP1 PUSH2 0x100 EXP SWAP1 DIV PUSH20 0xFFFFFFFFFFFFFFFFFFFFFFFFFFFFFFFFFFFFFFFF AND SWAP1 POP PUSH1 0x1 PUSH0 SWAP1 SLOAD SWAP1 PUSH2 0x100 EXP SWAP1 DIV PUSH20 0xFFFFFFFFFFFFFFFFFFFFFFFFFFFFFFFFFFFFFFFF AND PUSH20 0xFFFFFFFFFFFFFFFFFFFFFFFFFFFFFFFFFFFFFFFF AND PUSH4 0xA6D41F33 DUP3 CALLER PUSH1 0x40 MLOAD DUP4 PUSH4 0xFFFFFFFF AND PUSH1 0xE0 SHL DUP2 MSTORE PUSH1 0x4 ADD PUSH2 0x3AE SWAP3 SWAP2 SWAP1 PUSH2 0x146B JUMP JUMPDEST PUSH1 0x20 PUSH1 0x40 MLOAD DUP1 DUP4 SUB DUP2 DUP7 GAS STATICCALL ISZERO DUP1 ISZERO PUSH2 0x3C9 JUMPI RETURNDATASIZE PUSH0 PUSH0 RETURNDATACOPY RETURNDATASIZE PUSH0 REVERT JUMPDEST POP POP POP POP PUSH1 0x40 MLOAD RETURNDATASIZE PUSH1 0x1F NOT PUSH1 0x1F DUP3 ADD AND DUP3 ADD DUP1 PUSH1 0x40 MSTORE POP DUP2 ADD SWAP1 PUSH2 0x3ED SWAP2 SWAP1 PUSH2 0x14C7 JUMP JUMPDEST PUSH2 0x42C JUMPI PUSH1 0x40 MLOAD PUSH32 0x8C379A000000000000000000000000000000000000000000000000000000000 DUP2 MSTORE PUSH1 0x4 ADD PUSH2 0x423 SWAP1 PUSH2 0x153C JUMP JUMPDEST PUSH1 0x40 MLOAD DUP1 SWAP2 SUB SWAP1 REVERT JUMPDEST CALLER PUSH20 0xFFFFFFFFFFFFFFFFFFFFFFFFFFFFFFFFFFFFFFFF AND DUP2 PUSH20 0xFFFFFFFFFFFFFFFFFFFFFFFFFFFFFFFFFFFFFFFF AND DUP6 PUSH32 0xD45BDB85767000C90389E3E0BB2DECE5049EB535B71AEF83E642BFB192E08BF2 DUP7 TIMESTAMP PUSH1 0x40 MLOAD PUSH2 0x48C SWAP3 SWAP2 SWAP1 PUSH2 0x155A JUMP JUMPDEST PUSH1 0x40 MLOAD DUP1 SWAP2 SUB SWAP1 LOG4 PUSH1 0x3 PUSH0 DUP6 DUP2 MSTORE PUSH1 0x20 ADD SWAP1 DUP2 MSTORE PUSH1 0x20 ADD PUSH0 KECCAK256 PUSH1 0x3 ADD DUP1 SLOAD PUSH2 0x4B3 SWAP1 PUSH2 0x15B5 JUMP JUMPDEST DUP1 PUSH1 0x1F ADD PUSH1 0x20 DUP1 SWAP2 DIV MUL PUSH1 0x20 ADD PUSH1 0x40 MLOAD SWAP1 DUP2 ADD PUSH1 0x40 MSTORE DUP1 SWAP3 SWAP2 SWAP1 DUP2 DUP2 MSTORE PUSH1 0x20 ADD DUP3 DUP1 SLOAD PUSH2 0x4DF SWAP1 PUSH2 0x15B5 JUMP JUMPDEST DUP1 ISZERO PUSH2 0x52A JUMPI DUP1 PUSH1 0x1F LT PUSH2 0x501 JUMPI PUSH2 0x100 DUP1 DUP4 SLOAD DIV MUL DUP4 MSTORE SWAP2 PUSH1 0x20 ADD SWAP2 PUSH2 0x52A JUMP JUMPDEST DUP3 ADD SWAP2 SWAP1 PUSH0 MSTORE PUSH1 0x20 PUSH0 KECCAK256 SWAP1 JUMPDEST DUP2 SLOAD DUP2 MSTORE SWAP1 PUSH1 0x1 ADD SWAP1 PUSH1 0x20 ADD DUP1 DUP4 GT PUSH2 0x50D JUMPI DUP3 SWAP1 SUB PUSH1 0x1F AND DUP3 ADD SWAP2 JUMPDEST POP POP POP POP POP SWAP2 POP POP SWAP3 SWAP2 POP POP JUMP JUMPDEST PUSH1 0x1 PUSH0 SWAP1 SLOAD SWAP1 PUSH2 0x100 EXP SWAP1 DIV PUSH20 0xFFFFFFFFFFFFFFFFFFFFFFFFFFFFFFFFFFFFFFFF AND DUP2 JUMP JUMPDEST PUSH1 0x3 PUSH1 0x20 MSTORE DUP1 PUSH0 MSTORE PUSH1 0x40 PUSH0 KECCAK256 PUSH0 SWAP2 POP SWAP1 POP DUP1 PUSH0 ADD SLOAD SWAP1 DUP1 PUSH1 0x1 ADD PUSH0 SWAP1 SLOAD SWAP1 PUSH2 0x100 EXP SWAP1 DIV PUSH20 0xFFFFFFFFFFFFFFFFFFFFFFFFFFFFFFFFFFFFFFFF AND SWAP1 DUP1 PUSH1 0x2 ADD PUSH0 SWAP1 SLOAD SWAP1 PUSH2 0x100 EXP SWAP1 DIV PUSH20 0xFFFFFFFFFFFFFFFFFFFFFFFFFFFFFFFFFFFFFFFF AND SWAP1 DUP1 PUSH1 0x3 ADD DUP1 SLOAD PUSH2 0x5CC SWAP1 PUSH2 0x15B5 JUMP JUMPDEST DUP1 PUSH1 0x1F ADD PUSH1 0x20 DUP1 SWAP2 DIV MUL PUSH1 0x20 ADD PUSH1 0x40 MLOAD SWAP1 DUP2 ADD PUSH1 0x40 MSTORE DUP1 SWAP3 SWAP2 SWAP1 DUP2 DUP2 MSTORE PUSH1 0x20 ADD DUP3 DUP1 SLOAD PUSH2 0x5F8 SWAP1 PUSH2 0x15B5 JUMP JUMPDEST DUP1 ISZERO PUSH2 0x643 JUMPI DUP1 PUSH1 0x1F LT PUSH2 0x61A JUMPI PUSH2 0x100 DUP1 DUP4 SLOAD DIV MUL DUP4 MSTORE SWAP2 PUSH1 0x20 ADD SWAP2 PUSH2 0x643 JUMP JUMPDEST DUP3 ADD SWAP2 SWAP1 PUSH0 MSTORE PUSH1 0x20 PUSH0 KECCAK256 SWAP1 JUMPDEST DUP2 SLOAD DUP2 MSTORE SWAP1 PUSH1 0x1 ADD SWAP1 PUSH1 0x20 ADD DUP1 DUP4 GT PUSH2 0x626 JUMPI DUP3 SWAP1 SUB PUSH1 0x1F AND DUP3 ADD SWAP2 JUMPDEST POP POP POP POP POP SWAP1 DUP1 PUSH1 0x4 ADD DUP1 SLOAD PUSH2 0x658 SWAP1 PUSH2 0x15B5 JUMP JUMPDEST DUP1 PUSH1 0x1F ADD PUSH1 0x20 DUP1 SWAP2 DIV MUL PUSH1 0x20 ADD PUSH1 0x40 MLOAD SWAP1 DUP2 ADD PUSH1 0x40 MSTORE DUP1 SWAP3 SWAP2 SWAP1 DUP2 DUP2 MSTORE PUSH1 0x20 ADD DUP3 DUP1 SLOAD PUSH2 0x684 SWAP1 PUSH2 0x15B5 JUMP JUMPDEST DUP1 ISZERO PUSH2 0x6CF JUMPI DUP1 PUSH1 0x1F LT PUSH2 0x6A6 JUMPI PUSH2 0x100 DUP1 DUP4 SLOAD DIV MUL DUP4 MSTORE SWAP2 PUSH1 0x20 ADD SWAP2 PUSH2 0x6CF JUMP JUMPDEST DUP3 ADD SWAP2 SWAP1 PUSH0 MSTORE PUSH1 0x20 PUSH0 KECCAK256 SWAP1 JUMPDEST DUP2 SLOAD DUP2 MSTORE SWAP1 PUSH1 0x1 ADD SWAP1 PUSH1 0x20 ADD DUP1 DUP4 GT PUSH2 0x6B2 JUMPI DUP3 SWAP1 SUB PUSH1 0x1F AND DUP3 ADD SWAP2 JUMPDEST POP POP POP POP POP SWAP1 DUP1 PUSH1 0x5 ADD SLOAD SWAP1 DUP1 PUSH1 0x6 ADD SLOAD SWAP1 POP DUP8 JUMP JUMPDEST PUSH0 PUSH1 0x3 PUSH0 DUP5 DUP2 MSTORE PUSH1 0x20 ADD SWAP1 DUP2 MSTORE PUSH1 0x20 ADD PUSH0 KECCAK256 SWAP1 POP DUP1 PUSH1 0x2 ADD PUSH0 SWAP1 SLOAD SWAP1 PUSH2 0x100 EXP SWAP1 DIV PUSH20 0xFFFFFFFFFFFFFFFFFFFFFFFFFFFFFFFFFFFFFFFF AND PUSH20 0xFFFFFFFFFFFFFFFFFFFFFFFFFFFFFFFFFFFFFFFF AND CALLER PUSH20 0xFFFFFFFFFFFFFFFFFFFFFFFFFFFFFFFFFFFFFFFF AND EQ PUSH2 0x78A JUMPI PUSH1 0x40 MLOAD PUSH32 0x8C379A000000000000000000000000000000000000000000000000000000000 DUP2 MSTORE PUSH1 0x4 ADD PUSH2 0x781 SWAP1 PUSH2 0x1655 JUMP JUMPDEST PUSH1 0x40 MLOAD DUP1 SWAP2 SUB SWAP1 REVERT JUMPDEST PUSH0 DUP2 PUSH1 0x3 ADD DUP1 SLOAD PUSH2 0x79A SWAP1 PUSH2 0x15B5 JUMP JUMPDEST DUP1 PUSH1 0x1F ADD PUSH1 0x20 DUP1 SWAP2 DIV MUL PUSH1 0x20 ADD PUSH1 0x40 MLOAD SWAP1 DUP2 ADD PUSH1 0x40 MSTORE DUP1 SWAP3 SWAP2 SWAP1 DUP2 DUP2 MSTORE PUSH1 0x20 ADD DUP3 DUP1 SLOAD PUSH2 0x7C6 SWAP1 PUSH2 0x15B5 JUMP JUMPDEST DUP1 ISZERO PUSH2 0x811 JUMPI DUP1 PUSH1 0x1F LT PUSH2 0x7E8 JUMPI PUSH2 0x100 DUP1 DUP4 SLOAD DIV MUL DUP4 MSTORE SWAP2 PUSH1 0x20 ADD SWAP2 PUSH2 0x811 JUMP JUMPDEST DUP3 ADD SWAP2 SWAP1 PUSH0 MSTORE PUSH1 0x20 PUSH0 KECCAK256 SWAP1 JUMPDEST DUP2 SLOAD DUP2 MSTORE SWAP1 PUSH1 0x1 ADD SWAP1 PUSH1 0x20 ADD DUP1 DUP4 GT PUSH2 0x7F4 JUMPI DUP3 SWAP1 SUB PUSH1 0x1F AND DUP3 ADD SWAP2 JUMPDEST POP POP POP POP POP SWAP1 POP DUP3 DUP3 PUSH1 0x3 ADD SWAP1 DUP2 PUSH2 0x829 SWAP2 SWAP1 PUSH2 0x181B JUMP JUMPDEST POP DUP4 PUSH32 0xF8553E29CD0CF9BFD617AB4B6F118662191F74B4E51D0DD5E7CEFE39A51DE88D DUP3 DUP6 TIMESTAMP PUSH1 0x40 MLOAD PUSH2 0x85E SWAP4 SWAP3 SWAP2 SWAP1 PUSH2 0x18EA JUMP JUMPDEST PUSH1 0x40 MLOAD DUP1 SWAP2 SUB SWAP1 LOG2 POP POP POP POP JUMP JUMPDEST PUSH1 0x2 SLOAD DUP2 JUMP JUMPDEST DUP3 PUSH1 0x1 PUSH0 SWAP1 SLOAD SWAP1 PUSH2 0x100 EXP SWAP1 DIV PUSH20 0xFFFFFFFFFFFFFFFFFFFFFFFFFFFFFFFFFFFFFFFF AND PUSH20 0xFFFFFFFFFFFFFFFFFFFFFFFFFFFFFFFFFFFFFFFF AND PUSH4 0x3C4F7A9D DUP3 PUSH1 0x40 MLOAD DUP3 PUSH4 0xFFFFFFFF AND PUSH1 0xE0 SHL DUP2 MSTORE PUSH1 0x4 ADD PUSH2 0x8CD SWAP2 SWAP1 PUSH2 0x192D JUMP JUMPDEST PUSH1 0x20 PUSH1 0x40 MLOAD DUP1 DUP4 SUB DUP2 DUP7 GAS STATICCALL ISZERO DUP1 ISZERO PUSH2 0x8E8 JUMPI RETURNDATASIZE PUSH0 PUSH0 RETURNDATACOPY RETURNDATASIZE PUSH0 REVERT JUMPDEST POP POP POP POP PUSH1 0x40 MLOAD RETURNDATASIZE PUSH1 0x1F NOT PUSH1 0x1F DUP3 ADD AND DUP3 ADD DUP1 PUSH1 0x40 MSTORE POP DUP2 ADD SWAP1 PUSH2 0x90C SWAP2 SWAP1 PUSH2 0x14C7 JUMP JUMPDEST PUSH2 0x94B JUMPI PUSH1 0x40 MLOAD PUSH32 0x8C379A000000000000000000000000000000000000000000000000000000000 DUP2 MSTORE PUSH1 0x4 ADD PUSH2 0x942 SWAP1 PUSH2 0x1990 JUMP JUMPDEST PUSH1 0x40 MLOAD DUP1 SWAP2 SUB SWAP1 REVERT JUMPDEST DUP4 PUSH1 0x1 PUSH0 SWAP1 SLOAD SWAP1 PUSH2 0x100 EXP SWAP1 DIV PUSH20 0xFFFFFFFFFFFFFFFFFFFFFFFFFFFFFFFFFFFFFFFF AND PUSH20 0xFFFFFFFFFFFFFFFFFFFFFFFFFFFFFFFFFFFFFFFF AND PUSH4 0xA6D41F33 DUP3 CALLER PUSH1 0x40 MLOAD DUP4 PUSH4 0xFFFFFFFF AND PUSH1 0xE0 SHL DUP2 MSTORE PUSH1 0x4 ADD PUSH2 0x9A8 SWAP3 SWAP2 SWAP1 PUSH2 0x146B JUMP JUMPDEST PUSH1 0x20 PUSH1 0x40 MLOAD DUP1 DUP4 SUB DUP2 DUP7 GAS STATICCALL ISZERO DUP1 ISZERO PUSH2 0x9C3 JUMPI RETURNDATASIZE PUSH0 PUSH0 RETURNDATACOPY RETURNDATASIZE PUSH0 REVERT JUMPDEST POP POP POP POP PUSH1 0x40 MLOAD RETURNDATASIZE PUSH1 0x1F NOT PUSH1 0x1F DUP3 ADD AND DUP3 ADD DUP1 PUSH1 0x40 MSTORE POP DUP2 ADD SWAP1 PUSH2 0x9E7 SWAP2 SWAP1 PUSH2 0x14C7 JUMP JUMPDEST PUSH2 0xA26 JUMPI PUSH1 0x40 MLOAD PUSH32 0x8C379A000000000000000000000000000000000000000000000000000000000 DUP2 MSTORE PUSH1 0x4 ADD PUSH2 0xA1D SWAP1 PUSH2 0x153C JUMP JUMPDEST PUSH1 0x40 MLOAD DUP1 SWAP2 SUB SWAP1 REVERT JUMPDEST PUSH1 0x1 PUSH0 SLOAD EQ PUSH2 0xA6A JUMPI PUSH1 0x40 MLOAD PUSH32 0x8C379A000000000000000000000000000000000000000000000000000000000 DUP2 MSTORE PUSH1 0x4 ADD PUSH2 0xA61 SWAP1 PUSH2 0x19F8 JUMP JUMPDEST PUSH1 0x40 MLOAD DUP1 SWAP2 SUB SWAP1 REVERT JUMPDEST PUSH1 0x2 PUSH0 DUP2 SWAP1 SSTORE POP PUSH0 DUP5 MLOAD GT PUSH2 0xAB4 JUMPI PUSH1 0x40 MLOAD PUSH32 0x8C379A000000000000000000000000000000000000000000000000000000000 DUP2 MSTORE PUSH1 0x4 ADD PUSH2 0xAAB SWAP1 PUSH2 0x1A60 JUMP JUMPDEST PUSH1 0x40 MLOAD DUP1 SWAP2 SUB SWAP1 REVERT JUMPDEST PUSH0 DUP4 MLOAD GT PUSH2 0xAF7 JUMPI PUSH1 0x40 MLOAD PUSH32 0x8C379A000000000000000000000000000000000000000000000000000000000 DUP2 MSTORE PUSH1 0x4 ADD PUSH2 0xAEE SWAP1 PUSH2 0x1AC8 JUMP JUMPDEST PUSH1 0x40 MLOAD DUP1 SWAP2 SUB SWAP1 REVERT JUMPDEST PUSH1 0x2 PUSH0 DUP2 SLOAD DUP1 SWAP3 SWAP2 SWAP1 PUSH2 0xB09 SWAP1 PUSH2 0x1B13 JUMP JUMPDEST SWAP2 SWAP1 POP SSTORE POP PUSH1 0x5 PUSH0 DUP7 PUSH20 0xFFFFFFFFFFFFFFFFFFFFFFFFFFFFFFFFFFFFFFFF AND PUSH20 0xFFFFFFFFFFFFFFFFFFFFFFFFFFFFFFFFFFFFFFFF AND DUP2 MSTORE PUSH1 0x20 ADD SWAP1 DUP2 MSTORE PUSH1 0x20 ADD PUSH0 KECCAK256 PUSH0 DUP2 SLOAD DUP1 SWAP3 SWAP2 SWAP1 PUSH2 0xB5B SWAP1 PUSH2 0x1B13 JUMP JUMPDEST SWAP2 SWAP1 POP SSTORE POP PUSH0 PUSH1 0x5 PUSH0 DUP8 PUSH20 0xFFFFFFFFFFFFFFFFFFFFFFFFFFFFFFFFFFFFFFFF AND PUSH20 0xFFFFFFFFFFFFFFFFFFFFFFFFFFFFFFFFFFFFFFFF AND DUP2 MSTORE PUSH1 0x20 ADD SWAP1 DUP2 MSTORE PUSH1 0x20 ADD PUSH0 KECCAK256 SLOAD SWAP1 POP PUSH1 0x40 MLOAD DUP1 PUSH1 0xE0 ADD PUSH1 0x40 MSTORE DUP1 PUSH1 0x2 SLOAD DUP2 MSTORE PUSH1 0x20 ADD DUP8 PUSH20 0xFFFFFFFFFFFFFFFFFFFFFFFFFFFFFFFFFFFFFFFF AND DUP2 MSTORE PUSH1 0x20 ADD CALLER PUSH20 0xFFFFFFFFFFFFFFFFFFFFFFFFFFFFFFFFFFFFFFFF AND DUP2 MSTORE PUSH1 0x20 ADD DUP7 DUP2 MSTORE PUSH1 0x20 ADD DUP6 DUP2 MSTORE PUSH1 0x20 ADD DUP3 DUP2 MSTORE PUSH1 0x20 ADD TIMESTAMP DUP2 MSTORE POP PUSH1 0x3 PUSH0 PUSH1 0x2 SLOAD DUP2 MSTORE PUSH1 0x20 ADD SWAP1 DUP2 MSTORE PUSH1 0x20 ADD PUSH0 KECCAK256 PUSH0 DUP3 ADD MLOAD DUP2 PUSH0 ADD SSTORE PUSH1 0x20 DUP3 ADD MLOAD DUP2 PUSH1 0x1 ADD PUSH0 PUSH2 0x100 EXP DUP2 SLOAD DUP2 PUSH20 0xFFFFFFFFFFFFFFFFFFFFFFFFFFFFFFFFFFFFFFFF MUL NOT AND SWAP1 DUP4 PUSH20 0xFFFFFFFFFFFFFFFFFFFFFFFFFFFFFFFFFFFFFFFF AND MUL OR SWAP1 SSTORE POP PUSH1 0x40 DUP3 ADD MLOAD DUP2 PUSH1 0x2 ADD PUSH0 PUSH2 0x100 EXP DUP2 SLOAD DUP2 PUSH20 0xFFFFFFFFFFFFFFFFFFFFFFFFFFFFFFFFFFFFFFFF MUL NOT AND SWAP1 DUP4 PUSH20 0xFFFFFFFFFFFFFFFFFFFFFFFFFFFFFFFFFFFFFFFF AND MUL OR SWAP1 SSTORE POP PUSH1 0x60 DUP3 ADD MLOAD DUP2 PUSH1 0x3 ADD SWAP1 DUP2 PUSH2 0xCBE SWAP2 SWAP1 PUSH2 0x181B JUMP JUMPDEST POP PUSH1 0x80 DUP3 ADD MLOAD DUP2 PUSH1 0x4 ADD SWAP1 DUP2 PUSH2 0xCD4 SWAP2 SWAP1 PUSH2 0x181B JUMP JUMPDEST POP PUSH1 0xA0 DUP3 ADD MLOAD DUP2 PUSH1 0x5 ADD SSTORE PUSH1 0xC0 DUP3 ADD MLOAD DUP2 PUSH1 0x6 ADD SSTORE SWAP1 POP POP PUSH1 0x4 PUSH0 DUP8 PUSH20 0xFFFFFFFFFFFFFFFFFFFFFFFFFFFFFFFFFFFFFFFF AND PUSH20 0xFFFFFFFFFFFFFFFFFFFFFFFFFFFFFFFFFFFFFFFF AND DUP2 MSTORE PUSH1 0x20 ADD SWAP1 DUP2 MSTORE PUSH1 0x20 ADD PUSH0 KECCAK256 PUSH1 0x2 SLOAD SWAP1 DUP1 PUSH1 0x1 DUP2 SLOAD ADD DUP1 DUP3 SSTORE DUP1 SWAP2 POP POP PUSH1 0x1 SWAP1 SUB SWAP1 PUSH0 MSTORE PUSH1 0x20 PUSH0 KECCAK256 ADD PUSH0 SWAP1 SWAP2 SWAP1 SWAP2 SWAP1 SWAP2 POP SSTORE CALLER PUSH20 0xFFFFFFFFFFFFFFFFFFFFFFFFFFFFFFFFFFFFFFFF AND DUP7 PUSH20 0xFFFFFFFFFFFFFFFFFFFFFFFFFFFFFFFFFFFFFFFF AND PUSH1 0x2 SLOAD PUSH32 0xA28F8BDC9799975B639B79D43B5ED976631E99B2B05EF7394D7406F9081604C4 DUP9 DUP9 DUP7 TIMESTAMP PUSH1 0x40 MLOAD PUSH2 0xDB5 SWAP5 SWAP4 SWAP3 SWAP2 SWAP1 PUSH2 0x1B5A JUMP JUMPDEST PUSH1 0x40 MLOAD DUP1 SWAP2 SUB SWAP1 LOG4 POP PUSH1 0x1 PUSH0 DUP2 SWAP1 SSTORE POP POP POP POP POP POP JUMP JUMPDEST PUSH1 0x60 PUSH1 0x4 PUSH0 DUP4 PUSH20 0xFFFFFFFFFFFFFFFFFFFFFFFFFFFFFFFFFFFFFFFF AND PUSH20 0xFFFFFFFFFFFFFFFFFFFFFFFFFFFFFFFFFFFFFFFF AND DUP2 MSTORE PUSH1 0x20 ADD SWAP1 DUP2 MSTORE PUSH1 0x20 ADD PUSH0 KECCAK256 DUP1 SLOAD DUP1 PUSH1 0x20 MUL PUSH1 0x20 ADD PUSH1 0x40 MLOAD SWAP1 DUP2 ADD PUSH1 0x40 MSTORE DUP1 SWAP3 SWAP2 SWAP1 DUP2 DUP2 MSTORE PUSH1 0x20 ADD DUP3 DUP1 SLOAD DUP1 ISZERO PUSH2 0xE53 JUMPI PUSH1 0x20 MUL DUP3 ADD SWAP2 SWAP1 PUSH0 MSTORE PUSH1 0x20 PUSH0 KECCAK256 SWAP1 JUMPDEST DUP2 SLOAD DUP2 MSTORE PUSH1 0x20 ADD SWAP1 PUSH1 0x1 ADD SWAP1 DUP1 DUP4 GT PUSH2 0xE3F JUMPI JUMPDEST POP POP POP POP POP SWAP1 POP SWAP2 SWAP1 POP JUMP JUMPDEST PUSH1 0x5 PUSH1 0x20 MSTORE DUP1 PUSH0 MSTORE PUSH1 0x40 PUSH0 KECCAK256 PUSH0 SWAP2 POP SWAP1 POP SLOAD DUP2 JUMP JUMPDEST PUSH0 PUSH1 0x40 MLOAD SWAP1 POP SWAP1 JUMP JUMPDEST PUSH0 PUSH0 REVERT JUMPDEST PUSH0 PUSH0 REVERT JUMPDEST PUSH0 PUSH20 0xFFFFFFFFFFFFFFFFFFFFFFFFFFFFFFFFFFFFFFFF DUP3 AND SWAP1 POP SWAP2 SWAP1 POP JUMP JUMPDEST PUSH0 PUSH2 0xEAE DUP3 PUSH2 0xE85 JUMP JUMPDEST SWAP1 POP SWAP2 SWAP1 POP JUMP JUMPDEST PUSH2 0xEBE DUP2 PUSH2 0xEA4 JUMP JUMPDEST DUP2 EQ PUSH2 0xEC8 JUMPI PUSH0 PUSH0 REVERT JUMPDEST POP JUMP JUMPDEST PUSH0 DUP2 CALLDATALOAD SWAP1 POP PUSH2 0xED9 DUP2 PUSH2 0xEB5 JUMP JUMPDEST SWAP3 SWAP2 POP POP JUMP JUMPDEST PUSH0 PUSH1 0x20 DUP3 DUP5 SUB SLT ISZERO PUSH2 0xEF4 JUMPI PUSH2 0xEF3 PUSH2 0xE7D JUMP JUMPDEST JUMPDEST PUSH0 PUSH2 0xF01 DUP5 DUP3 DUP6 ADD PUSH2 0xECB JUMP JUMPDEST SWAP2 POP POP SWAP3 SWAP2 POP POP JUMP JUMPDEST PUSH0 DUP2 SWAP1 POP SWAP2 SWAP1 POP JUMP JUMPDEST PUSH2 0xF1C DUP2 PUSH2 0xF0A JUMP JUMPDEST DUP3 MSTORE POP POP JUMP JUMPDEST PUSH0 PUSH1 0x20 DUP3 ADD SWAP1 POP PUSH2 0xF35 PUSH0 DUP4 ADD DUP5 PUSH2 0xF13 JUMP JUMPDEST SWAP3 SWAP2 POP POP JUMP JUMPDEST PUSH2 0xF44 DUP2 PUSH2 0xF0A JUMP JUMPDEST DUP2 EQ PUSH2 0xF4E JUMPI PUSH0 PUSH0 REVERT JUMPDEST POP JUMP JUMPDEST PUSH0 DUP2 CALLDATALOAD SWAP1 POP PUSH2 0xF5F DUP2 PUSH2 0xF3B JUMP JUMPDEST SWAP3 SWAP2 POP POP JUMP JUMPDEST PUSH0 PUSH0 REVERT JUMPDEST PUSH0 PUSH0 REVERT JUMPDEST PUSH0 PUSH1 0x1F NOT PUSH1 0x1F DUP4 ADD AND SWAP1 POP SWAP2 SWAP1 POP JUMP JUMPDEST PUSH32 0x4E487B7100000000000000000000000000000000000000000000000000000000 PUSH0 MSTORE PUSH1 0x41 PUSH1 0x4 MSTORE PUSH1 0x24 PUSH0 REVERT JUMPDEST PUSH2 0xFB3 DUP3 PUSH2 0xF6D JUMP JUMPDEST DUP2 ADD DUP2 DUP2 LT PUSH8 0xFFFFFFFFFFFFFFFF DUP3 GT OR ISZERO PUSH2 0xFD2 JUMPI PUSH2 0xFD1 PUSH2 0xF7D JUMP JUMPDEST JUMPDEST DUP1 PUSH1 0x40 MSTORE POP POP POP JUMP JUMPDEST PUSH0 PUSH2 0xFE4 PUSH2 0xE74 JUMP JUMPDEST SWAP1 POP PUSH2 0xFF0 DUP3 DUP3 PUSH2 0xFAA JUMP JUMPDEST SWAP2 SWAP1 POP JUMP JUMPDEST PUSH0 PUSH8 0xFFFFFFFFFFFFFFFF DUP3 GT ISZERO PUSH2 0x100F JUMPI PUSH2 0x100E PUSH2 0xF7D JUMP JUMPDEST JUMPDEST PUSH2 0x1018 DUP3 PUSH2 0xF6D JUMP JUMPDEST SWAP1 POP PUSH1 0x20 DUP2 ADD SWAP1 POP SWAP2 SWAP1 POP JUMP JUMPDEST DUP3 DUP2 DUP4 CALLDATACOPY PUSH0 DUP4 DUP4 ADD MSTORE POP POP POP JUMP JUMPDEST PUSH0 PUSH2 0x1045 PUSH2 0x1040 DUP5 PUSH2 0xFF5 JUMP JUMPDEST PUSH2 0xFDB JUMP JUMPDEST SWAP1 POP DUP3 DUP2 MSTORE PUSH1 0x20 DUP2 ADD DUP5 DUP5 DUP5 ADD GT ISZERO PUSH2 0x1061 JUMPI PUSH2 0x1060 PUSH2 0xF69 JUMP JUMPDEST JUMPDEST PUSH2 0x106C DUP5 DUP3 DUP6 PUSH2 0x1025 JUMP JUMPDEST POP SWAP4 SWAP3 POP POP POP JUMP JUMPDEST PUSH0 DUP3 PUSH1 0x1F DUP4 ADD SLT PUSH2 0x1088 JUMPI PUSH2 0x1087 PUSH2 0xF65 JUMP JUMPDEST JUMPDEST DUP2 CALLDATALOAD PUSH2 0x1098 DUP5 DUP3 PUSH1 0x20 DUP7 ADD PUSH2 0x1033 JUMP JUMPDEST SWAP2 POP POP SWAP3 SWAP2 POP POP JUMP JUMPDEST PUSH0 PUSH0 PUSH1 0x40 DUP4 DUP6 SUB SLT ISZERO PUSH2 0x10B7 JUMPI PUSH2 0x10B6 PUSH2 0xE7D JUMP JUMPDEST JUMPDEST PUSH0 PUSH2 0x10C4 DUP6 DUP3 DUP7 ADD PUSH2 0xF51 JUMP JUMPDEST SWAP3 POP POP PUSH1 0x20 DUP4 ADD CALLDATALOAD PUSH8 0xFFFFFFFFFFFFFFFF DUP2 GT ISZERO PUSH2 0x10E5 JUMPI PUSH2 0x10E4 PUSH2 0xE81 JUMP JUMPDEST JUMPDEST PUSH2 0x10F1 DUP6 DUP3 DUP7 ADD PUSH2 0x1074 JUMP JUMPDEST SWAP2 POP POP SWAP3 POP SWAP3 SWAP1 POP JUMP JUMPDEST PUSH0 DUP2 MLOAD SWAP1 POP SWAP2 SWAP1 POP JUMP JUMPDEST PUSH0 DUP3 DUP3 MSTORE PUSH1 0x20 DUP3 ADD SWAP1 POP SWAP3 SWAP2 POP POP JUMP JUMPDEST DUP3 DUP2 DUP4 MCOPY PUSH0 DUP4 DUP4 ADD MSTORE POP POP POP JUMP JUMPDEST PUSH0 PUSH2 0x112D DUP3 PUSH2 0x10FB JUMP JUMPDEST PUSH2 0x1137 DUP2 DUP6 PUSH2 0x1105 JUMP JUMPDEST SWAP4 POP PUSH2 0x1147 DUP2 DUP6 PUSH1 0x20 DUP7 ADD PUSH2 0x1115 JUMP JUMPDEST PUSH2 0x1150 DUP2 PUSH2 0xF6D JUMP JUMPDEST DUP5 ADD SWAP2 POP POP SWAP3 SWAP2 POP POP JUMP JUMPDEST PUSH0 PUSH1 0x20 DUP3 ADD SWAP1 POP DUP2 DUP2 SUB PUSH0 DUP4 ADD MSTORE PUSH2 0x1173 DUP2 DUP5 PUSH2 0x1123 JUMP JUMPDEST SWAP1 POP SWAP3 SWAP2 POP POP JUMP JUMPDEST PUSH0 DUP2 SWAP1 POP SWAP2 SWAP1 POP JUMP JUMPDEST PUSH0 PUSH2 0x119E PUSH2 0x1199 PUSH2 0x1194 DUP5 PUSH2 0xE85 JUMP JUMPDEST PUSH2 0x117B JUMP JUMPDEST PUSH2 0xE85 JUMP JUMPDEST SWAP1 POP SWAP2 SWAP1 POP JUMP JUMPDEST PUSH0 PUSH2 0x11AF DUP3 PUSH2 0x1184 JUMP JUMPDEST SWAP1 POP SWAP2 SWAP1 POP JUMP JUMPDEST PUSH0 PUSH2 0x11C0 DUP3 PUSH2 0x11A5 JUMP JUMPDEST SWAP1 POP SWAP2 SWAP1 POP JUMP JUMPDEST PUSH2 0x11D0 DUP2 PUSH2 0x11B6 JUMP JUMPDEST DUP3 MSTORE POP POP JUMP JUMPDEST PUSH0 PUSH1 0x20 DUP3 ADD SWAP1 POP PUSH2 0x11E9 PUSH0 DUP4 ADD DUP5 PUSH2 0x11C7 JUMP JUMPDEST SWAP3 SWAP2 POP POP JUMP JUMPDEST PUSH0 PUSH1 0x20 DUP3 DUP5 SUB SLT ISZERO PUSH2 0x1204 JUMPI PUSH2 0x1203 PUSH2 0xE7D JUMP JUMPDEST JUMPDEST PUSH0 PUSH2 0x1211 DUP5 DUP3 DUP6 ADD PUSH2 0xF51 JUMP JUMPDEST SWAP2 POP POP SWAP3 SWAP2 POP POP JUMP JUMPDEST PUSH2 0x1223 DUP2 PUSH2 0xEA4 JUMP JUMPDEST DUP3 MSTORE POP POP JUMP JUMPDEST PUSH0 PUSH1 0xE0 DUP3 ADD SWAP1 POP PUSH2 0x123C PUSH0 DUP4 ADD DUP11 PUSH2 0xF13 JUMP JUMPDEST PUSH2 0x1249 PUSH1 0x20 DUP4 ADD DUP10 PUSH2 0x121A JUMP JUMPDEST PUSH2 0x1256 PUSH1 0x40 DUP4 ADD DUP9 PUSH2 0x121A JUMP JUMPDEST DUP2 DUP2 SUB PUSH1 0x60 DUP4 ADD MSTORE PUSH2 0x1268 DUP2 DUP8 PUSH2 0x1123 JUMP JUMPDEST SWAP1 POP DUP2 DUP2 SUB PUSH1 0x80 DUP4 ADD MSTORE PUSH2 0x127C DUP2 DUP7 PUSH2 0x1123 JUMP JUMPDEST SWAP1 POP PUSH2 0x128B PUSH1 0xA0 DUP4 ADD DUP6 PUSH2 0xF13 JUMP JUMPDEST PUSH2 0x1298 PUSH1 0xC0 DUP4 ADD DUP5 PUSH2 0xF13 JUMP JUMPDEST SWAP9 SWAP8 POP POP POP POP POP POP POP POP JUMP JUMPDEST PUSH0 PUSH0 PUSH0 PUSH1 0x60 DUP5 DUP7 SUB SLT ISZERO PUSH2 0x12BB JUMPI PUSH2 0x12BA PUSH2 0xE7D JUMP JUMPDEST JUMPDEST PUSH0 PUSH2 0x12C8 DUP7 DUP3 DUP8 ADD PUSH2 0xECB JUMP JUMPDEST SWAP4 POP POP PUSH1 0x20 DUP5 ADD CALLDATALOAD PUSH8 0xFFFFFFFFFFFFFFFF DUP2 GT ISZERO PUSH2 0x12E9 JUMPI PUSH2 0x12E8 PUSH2 0xE81 JUMP JUMPDEST JUMPDEST PUSH2 0x12F5 DUP7 DUP3 DUP8 ADD PUSH2 0x1074 JUMP JUMPDEST SWAP3 POP POP PUSH1 0x40 DUP5 ADD CALLDATALOAD PUSH8 0xFFFFFFFFFFFFFFFF DUP2 GT ISZERO PUSH2 0x1316 JUMPI PUSH2 0x1315 PUSH2 0xE81 JUMP JUMPDEST JUMPDEST PUSH2 0x1322 DUP7 DUP3 DUP8 ADD PUSH2 0x1074 JUMP JUMPDEST SWAP2 POP POP SWAP3 POP SWAP3 POP SWAP3 JUMP JUMPDEST PUSH0 DUP2 MLOAD SWAP1 POP SWAP2 SWAP1 POP JUMP JUMPDEST PUSH0 DUP3 DUP3 MSTORE PUSH1 0x20 DUP3 ADD SWAP1 POP SWAP3 SWAP2 POP POP JUMP JUMPDEST PUSH0 DUP2 SWAP1 POP PUSH1 0x20 DUP3 ADD SWAP1 POP SWAP2 SWAP1 POP JUMP JUMPDEST PUSH2 0x135E DUP2 PUSH2 0xF0A JUMP JUMPDEST DUP3 MSTORE POP POP JUMP JUMPDEST PUSH0 PUSH2 0x136F DUP4 DUP4 PUSH2 0x1355 JUMP JUMPDEST PUSH1 0x20 DUP4 ADD SWAP1 POP SWAP3 SWAP2 POP POP JUMP JUMPDEST PUSH0 PUSH1 0x20 DUP3 ADD SWAP1 POP SWAP2 SWAP1 POP JUMP JUMPDEST PUSH0 PUSH2 0x1391 DUP3 PUSH2 0x132C JUMP JUMPDEST PUSH2 0x139B DUP2 DUP6 PUSH2 0x1336 JUMP JUMPDEST SWAP4 POP PUSH2 0x13A6 DUP4 PUSH2 0x1346 JUMP JUMPDEST DUP1 PUSH0 JUMPDEST DUP4 DUP2 LT ISZERO PUSH2 0x13D6 JUMPI DUP2 MLOAD PUSH2 0x13BD DUP9 DUP3 PUSH2 0x1364 JUMP JUMPDEST SWAP8 POP PUSH2 0x13C8 DUP4 PUSH2 0x137B JUMP JUMPDEST SWAP3 POP POP PUSH1 0x1 DUP2 ADD SWAP1 POP PUSH2 0x13A9 JUMP JUMPDEST POP DUP6 SWAP4 POP POP POP POP SWAP3 SWAP2 POP POP JUMP JUMPDEST PUSH0 PUSH1 0x20 DUP3 ADD SWAP1 POP DUP2 DUP2 SUB PUSH0 DUP4 ADD MSTORE PUSH2 0x13FB DUP2 DUP5 PUSH2 0x1387 JUMP JUMPDEST SWAP1 POP SWAP3 SWAP2 POP POP JUMP JUMPDEST PUSH32 0x496E76616C6964207265636F7264204944000000000000000000000000000000 PUSH0 DUP3 ADD MSTORE POP JUMP JUMPDEST PUSH0 PUSH2 0x1437 PUSH1 0x11 DUP4 PUSH2 0x1105 JUMP JUMPDEST SWAP2 POP PUSH2 0x1442 DUP3 PUSH2 0x1403 JUMP JUMPDEST PUSH1 0x20 DUP3 ADD SWAP1 POP SWAP2 SWAP1 POP JUMP JUMPDEST PUSH0 PUSH1 0x20 DUP3 ADD SWAP1 POP DUP2 DUP2 SUB PUSH0 DUP4 ADD MSTORE PUSH2 0x1464 DUP2 PUSH2 0x142B JUMP JUMPDEST SWAP1 POP SWAP2 SWAP1 POP JUMP JUMPDEST PUSH0 PUSH1 0x40 DUP3 ADD SWAP1 POP PUSH2 0x147E PUSH0 DUP4 ADD DUP6 PUSH2 0x121A JUMP JUMPDEST PUSH2 0x148B PUSH1 0x20 DUP4 ADD DUP5 PUSH2 0x121A JUMP JUMPDEST SWAP4 SWAP3 POP POP POP JUMP JUMPDEST PUSH0 DUP2 ISZERO ISZERO SWAP1 POP SWAP2 SWAP1 POP JUMP JUMPDEST PUSH2 0x14A6 DUP2 PUSH2 0x1492 JUMP JUMPDEST DUP2 EQ PUSH2 0x14B0 JUMPI PUSH0 PUSH0 REVERT JUMPDEST POP JUMP JUMPDEST PUSH0 DUP2 MLOAD SWAP1 POP PUSH2 0x14C1 DUP2 PUSH2 0x149D JUMP JUMPDEST SWAP3 SWAP2 POP POP JUMP JUMPDEST PUSH0 PUSH1 0x20 DUP3 DUP5 SUB SLT ISZERO PUSH2 0x14DC JUMPI PUSH2 0x14DB PUSH2 0xE7D JUMP JUMPDEST JUMPDEST PUSH0 PUSH2 0x14E9 DUP5 DUP3 DUP6 ADD PUSH2 0x14B3 JUMP JUMPDEST SWAP2 POP POP SWAP3 SWAP2 POP POP JUMP JUMPDEST PUSH32 0x4E6F2076616C696420636F6E73656E742066726F6D2070617469656E74000000 PUSH0 DUP3 ADD MSTORE POP JUMP JUMPDEST PUSH0 PUSH2 0x1526 PUSH1 0x1D DUP4 PUSH2 0x1105 JUMP JUMPDEST SWAP2 POP PUSH2 0x1531 DUP3 PUSH2 0x14F2 JUMP JUMPDEST PUSH1 0x20 DUP3 ADD SWAP1 POP SWAP2 SWAP1 POP JUMP JUMPDEST PUSH0 PUSH1 0x20 DUP3 ADD SWAP1 POP DUP2 DUP2 SUB PUSH0 DUP4 ADD MSTORE PUSH2 0x1553 DUP2 PUSH2 0x151A JUMP JUMPDEST SWAP1 POP SWAP2 SWAP1 POP JUMP JUMPDEST PUSH0 PUSH1 0x40 DUP3 ADD SWAP1 POP DUP2 DUP2 SUB PUSH0 DUP4 ADD MSTORE PUSH2 0x1572 DUP2 DUP6 PUSH2 0x1123 JUMP JUMPDEST SWAP1 POP PUSH2 0x1581 PUSH1 0x20 DUP4 ADD DUP5 PUSH2 0xF13 JUMP JUMPDEST SWAP4 SWAP3 POP POP POP JUMP JUMPDEST PUSH32 0x4E487B7100000000000000000000000000000000000000000000000000000000 PUSH0 MSTORE PUSH1 0x22 PUSH1 0x4 MSTORE PUSH1 0x24 PUSH0 REVERT JUMPDEST PUSH0 PUSH1 0x2 DUP3 DIV SWAP1 POP PUSH1 0x1 DUP3 AND DUP1 PUSH2 0x15CC JUMPI PUSH1 0x7F DUP3 AND SWAP2 POP JUMPDEST PUSH1 0x20 DUP3 LT DUP2 SUB PUSH2 0x15DF JUMPI PUSH2 0x15DE PUSH2 0x1588 JUMP JUMPDEST JUMPDEST POP SWAP2 SWAP1 POP JUMP JUMPDEST PUSH32 0x4F6E6C7920746865207072657363726962696E6720646F63746F722063616E20 PUSH0 DUP3 ADD MSTORE PUSH32 0x7570646174652074686973207265636F72640000000000000000000000000000 PUSH1 0x20 DUP3 ADD MSTORE POP JUMP JUMPDEST PUSH0 PUSH2 0x163F PUSH1 0x32 DUP4 PUSH2 0x1105 JUMP JUMPDEST SWAP2 POP PUSH2 0x164A DUP3 PUSH2 0x15E5 JUMP JUMPDEST PUSH1 0x40 DUP3 ADD SWAP1 POP SWAP2 SWAP1 POP JUMP JUMPDEST PUSH0 PUSH1 0x20 DUP3 ADD SWAP1 POP DUP2 DUP2 SUB PUSH0 DUP4 ADD MSTORE PUSH2 0x166C DUP2 PUSH2 0x1633 JUMP JUMPDEST SWAP1 POP SWAP2 SWAP1 POP JUMP JUMPDEST PUSH0 DUP2 SWAP1 POP DUP2 PUSH0 MSTORE PUSH1 0x20 PUSH0 KECCAK256 SWAP1 POP SWAP2 SWAP1 POP JUMP JUMPDEST PUSH0 PUSH1 0x20 PUSH1 0x1F DUP4 ADD DIV SWAP1 POP SWAP2 SWAP1 POP JUMP JUMPDEST PUSH0 DUP3 DUP3 SHL SWAP1 POP SWAP3 SWAP2 POP POP JUMP JUMPDEST PUSH0 PUSH1 0x8 DUP4 MUL PUSH2 0x16CF PUSH32 0xFFFFFFFFFFFFFFFFFFFFFFFFFFFFFFFFFFFFFFFFFFFFFFFFFFFFFFFFFFFFFFFF DUP3 PUSH2 0x1694 JUMP JUMPDEST PUSH2 0x16D9 DUP7 DUP4 PUSH2 0x1694 JUMP JUMPDEST SWAP6 POP DUP1 NOT DUP5 AND SWAP4 POP DUP1 DUP7 AND DUP5 OR SWAP3 POP POP POP SWAP4 SWAP3 POP POP POP JUMP JUMPDEST PUSH0 PUSH2 0x170B PUSH2 0x1706 PUSH2 0x1701 DUP5 PUSH2 0xF0A JUMP JUMPDEST PUSH2 0x117B JUMP JUMPDEST PUSH2 0xF0A JUMP JUMPDEST SWAP1 POP SWAP2 SWAP1 POP JUMP JUMPDEST PUSH0 DUP2 SWAP1 POP SWAP2 SWAP1 POP JUMP JUMPDEST PUSH2 0x1724 DUP4 PUSH2 0x16F1 JUMP JUMPDEST PUSH2 0x1738 PUSH2 0x1730 DUP3 PUSH2 0x1712 JUMP JUMPDEST DUP5 DUP5 SLOAD PUSH2 0x16A0 JUMP JUMPDEST DUP3 SSTORE POP POP POP POP JUMP JUMPDEST PUSH0 PUSH0 SWAP1 POP SWAP1 JUMP JUMPDEST PUSH2 0x174F PUSH2 0x1740 JUMP JUMPDEST PUSH2 0x175A DUP2 DUP5 DUP5 PUSH2 0x171B JUMP JUMPDEST POP POP POP JUMP JUMPDEST PUSH0 JUMPDEST DUP3 DUP2 LT ISZERO PUSH2 0x1780 JUMPI PUSH2 0x1775 PUSH0 DUP3 DUP5 ADD PUSH2 0x1747 JUMP JUMPDEST PUSH1 0x1 DUP2 ADD SWAP1 POP PUSH2 0x1761 JUMP JUMPDEST POP POP POP JUMP JUMPDEST PUSH1 0x1F DUP3 GT ISZERO PUSH2 0x17D3 JUMPI DUP3 DUP3 GT ISZERO PUSH2 0x17D2 JUMPI PUSH2 0x179F DUP2 PUSH2 0x1673 JUMP JUMPDEST PUSH2 0x17A8 DUP4 PUSH2 0x1685 JUMP JUMPDEST PUSH2 0x17B1 DUP6 PUSH2 0x1685 JUMP JUMPDEST PUSH1 0x20 DUP7 LT ISZERO PUSH2 0x17BE JUMPI PUSH0 SWAP1 POP JUMPDEST DUP1 DUP4 ADD PUSH2 0x17CD DUP3 DUP5 SUB DUP3 PUSH2 0x175F JUMP JUMPDEST POP POP POP POP JUMPDEST JUMPDEST POP POP POP JUMP JUMPDEST PUSH0 DUP3 DUP3 SHR SWAP1 POP SWAP3 SWAP2 POP POP JUMP JUMPDEST PUSH0 PUSH2 0x17F3 PUSH0 NOT DUP5 PUSH1 0x8 MUL PUSH2 0x17D8 JUMP JUMPDEST NOT DUP1 DUP4 AND SWAP2 POP POP SWAP3 SWAP2 POP POP JUMP JUMPDEST PUSH0 PUSH2 0x180B DUP4 DUP4 PUSH2 0x17E4 JUMP JUMPDEST SWAP2 POP DUP3 PUSH1 0x2 MUL DUP3 OR SWAP1 POP SWAP3 SWAP2 POP POP JUMP JUMPDEST PUSH2 0x1824 DUP3 PUSH2 0x10FB JUMP JUMPDEST PUSH8 0xFFFFFFFFFFFFFFFF DUP2 GT ISZERO PUSH2 0x183D JUMPI PUSH2 0x183C PUSH2 0xF7D JUMP JUMPDEST JUMPDEST PUSH2 0x1847 DUP3 SLOAD PUSH2 0x15B5 JUMP JUMPDEST PUSH2 0x1852 DUP3 DUP3 DUP6 PUSH2 0x1785 JUMP JUMPDEST PUSH0 PUSH1 0x20 SWAP1 POP PUSH1 0x1F DUP4 GT PUSH1 0x1 DUP2 EQ PUSH2 0x1883 JUMPI PUSH0 DUP5 ISZERO PUSH2 0x1871 JUMPI DUP3 DUP8 ADD MLOAD SWAP1 POP JUMPDEST PUSH2 0x187B DUP6 DUP3 PUSH2 0x1800 JUMP JUMPDEST DUP7 SSTORE POP PUSH2 0x18E2 JUMP JUMPDEST PUSH1 0x1F NOT DUP5 AND PUSH2 0x1891 DUP7 PUSH2 0x1673 JUMP JUMPDEST PUSH0 JUMPDEST DUP3 DUP2 LT ISZERO PUSH2 0x18B8 JUMPI DUP5 DUP10 ADD MLOAD DUP3 SSTORE PUSH1 0x1 DUP3 ADD SWAP2 POP PUSH1 0x20 DUP6 ADD SWAP5 POP PUSH1 0x20 DUP2 ADD SWAP1 POP PUSH2 0x1893 JUMP JUMPDEST DUP7 DUP4 LT ISZERO PUSH2 0x18D5 JUMPI DUP5 DUP10 ADD MLOAD PUSH2 0x18D1 PUSH1 0x1F DUP10 AND DUP3 PUSH2 0x17E4 JUMP JUMPDEST DUP4 SSTORE POP JUMPDEST PUSH1 0x1 PUSH1 0x2 DUP9 MUL ADD DUP9 SSTORE POP POP POP JUMPDEST POP POP POP POP POP POP JUMP JUMPDEST PUSH0 PUSH1 0x60 DUP3 ADD SWAP1 POP DUP2 DUP2 SUB PUSH0 DUP4 ADD MSTORE PUSH2 0x1902 DUP2 DUP7 PUSH2 0x1123 JUMP JUMPDEST SWAP1 POP DUP2 DUP2 SUB PUSH1 0x20 DUP4 ADD MSTORE PUSH2 0x1916 DUP2 DUP6 PUSH2 0x1123 JUMP JUMPDEST SWAP1 POP PUSH2 0x1925 PUSH1 0x40 DUP4 ADD DUP5 PUSH2 0xF13 JUMP JUMPDEST SWAP5 SWAP4 POP POP POP POP JUMP JUMPDEST PUSH0 PUSH1 0x20 DUP3 ADD SWAP1 POP PUSH2 0x1940 PUSH0 DUP4 ADD DUP5 PUSH2 0x121A JUMP JUMPDEST SWAP3 SWAP2 POP POP JUMP JUMPDEST PUSH32 0x50617469656E74206E6F74207265676973746572656400000000000000000000 PUSH0 DUP3 ADD MSTORE POP JUMP JUMPDEST PUSH0 PUSH2 0x197A PUSH1 0x16 DUP4 PUSH2 0x1105 JUMP JUMPDEST SWAP2 POP PUSH2 0x1985 DUP3 PUSH2 0x1946 JUMP JUMPDEST PUSH1 0x20 DUP3 ADD SWAP1 POP SWAP2 SWAP1 POP JUMP JUMPDEST PUSH0 PUSH1 0x20 DUP3 ADD SWAP1 POP DUP2 DUP2 SUB PUSH0 DUP4 ADD MSTORE PUSH2 0x19A7 DUP2 PUSH2 0x196E JUMP JUMPDEST SWAP1 POP SWAP2 SWAP1 POP JUMP JUMPDEST PUSH32 0x5265656E7472616E637947756172643A207265656E7472616E742063616C6C00 PUSH0 DUP3 ADD MSTORE POP JUMP JUMPDEST PUSH0 PUSH2 0x19E2 PUSH1 0x1F DUP4 PUSH2 0x1105 JUMP JUMPDEST SWAP2 POP PUSH2 0x19ED DUP3 PUSH2 0x19AE JUMP JUMPDEST PUSH1 0x20 DUP3 ADD SWAP1 POP SWAP2 SWAP1 POP JUMP JUMPDEST PUSH0 PUSH1 0x20 DUP3 ADD SWAP1 POP DUP2 DUP2 SUB PUSH0 DUP4 ADD MSTORE PUSH2 0x1A0F DUP2 PUSH2 0x19D6 JUMP JUMPDEST SWAP1 POP SWAP2 SWAP1 POP JUMP JUMPDEST PUSH32 0x4950465320686173682072657175697265640000000000000000000000000000 PUSH0 DUP3 ADD MSTORE POP JUMP JUMPDEST PUSH0 PUSH2 0x1A4A PUSH1 0x12 DUP4 PUSH2 0x1105 JUMP JUMPDEST SWAP2 POP PUSH2 0x1A55 DUP3 PUSH2 0x1A16 JUMP JUMPDEST PUSH1 0x20 DUP3 ADD SWAP1 POP SWAP2 SWAP1 POP JUMP JUMPDEST PUSH0 PUSH1 0x20 DUP3 ADD SWAP1 POP DUP2 DUP2 SUB PUSH0 DUP4 ADD MSTORE PUSH2 0x1A77 DUP2 PUSH2 0x1A3E JUMP JUMPDEST SWAP1 POP SWAP2 SWAP1 POP JUMP JUMPDEST PUSH32 0x5265636F72642074797065207265717569726564000000000000000000000000 PUSH0 DUP3 ADD MSTORE POP JUMP JUMPDEST PUSH0 PUSH2 0x1AB2 PUSH1 0x14 DUP4 PUSH2 0x1105 JUMP JUMPDEST SWAP2 POP PUSH2 0x1ABD DUP3 PUSH2 0x1A7E JUMP JUMPDEST PUSH1 0x20 DUP3 ADD SWAP1 POP SWAP2 SWAP1 POP JUMP JUMPDEST PUSH0 PUSH1 0x20 DUP3 ADD SWAP1 POP DUP2 DUP2 SUB PUSH0 DUP4 ADD MSTORE PUSH2 0x1ADF DUP2 PUSH2 0x1AA6 JUMP JUMPDEST SWAP1 POP SWAP2 SWAP1 POP JUMP JUMPDEST PUSH32 0x4E487B7100000000000000000000000000000000000000000000000000000000 PUSH0 MSTORE PUSH1 0x11 PUSH1 0x4 MSTORE PUSH1 0x24 PUSH0 REVERT JUMPDEST PUSH0 PUSH2 0x1B1D DUP3 PUSH2 0xF0A JUMP JUMPDEST SWAP2 POP PUSH32 0xFFFFFFFFFFFFFFFFFFFFFFFFFFFFFFFFFFFFFFFFFFFFFFFFFFFFFFFFFFFFFFFF DUP3 SUB PUSH2 0x1B4F JUMPI PUSH2 0x1B4E PUSH2 0x1AE6 JUMP JUMPDEST JUMPDEST PUSH1 0x1 DUP3 ADD SWAP1 POP SWAP2 SWAP1 POP JUMP JUMPDEST PUSH0 PUSH1 0x80 DUP3 ADD SWAP1 POP DUP2 DUP2 SUB PUSH0 DUP4 ADD MSTORE PUSH2 0x1B72 DUP2 DUP8 PUSH2 0x1123 JUMP JUMPDEST SWAP1 POP DUP2 DUP2 SUB PUSH1 0x20 DUP4 ADD MSTORE PUSH2 0x1B86 DUP2 DUP7 PUSH2 0x1123 JUMP JUMPDEST SWAP1 POP PUSH2 0x1B95 PUSH1 0x40 DUP4 ADD DUP6 PUSH2 0xF13 JUMP JUMPDEST PUSH2 0x1BA2 PUSH1 0x60 DUP4 ADD DUP5 PUSH2 0xF13 JUMP JUMPDEST SWAP6 SWAP5 POP POP POP POP POP JUMP INVALID LOG2 PUSH5 0x6970667358 0x22 SLT KECCAK256 PUSH3 0xCDAF30 0xBE 0xED DUP9 0xF7 0xDF PUSH5 0x719933552E 0xA8 MULMOD 0xC5 0xD5 DATALOADN 0x66A EXTCODESIZE SSTORE DUP1 ISZERO KECCAK256 CREATE2 0xA5 0xC7 0xCE CODECOPY PUSH5 0x736F6C6343 STOP ADDMOD 0x22 STOP CALLER "
		},
		"gasEstimates": {
			"creation": {
				"codeDepositCost": "1427400",
				"executionCost": "infinite",
				"totalCost": "infinite"
			},
			"external": {
				"addMedicalRecord(address,string,string)": "infinite",
				"getLatestVersion(address)": "2830",
				"getRecordCount(address)": "2860",
				"getRecordsByPatient(address)": "infinite",
				"identityContract()": "infinite",
				"medicalRecords(uint256)": "infinite",
				"patientRecordVersion(address)": "2890",
				"recordCount()": "2447",
				"updateMedicalRecord(uint256,string)": "infinite",
				"viewMedicalRecord(uint256,string)": "infinite"
			}
		},
		"methodIdentifiers": {
			"addMedicalRecord(address,string,string)": "aa0ced90",
			"getLatestVersion(address)": "50abe910",
			"getRecordCount(address)": "58214308",
			"getRecordsByPatient(address)": "ae68e776",
			"identityContract()": "67031bae",
			"medicalRecords(uint256)": "7564a13c",
			"patientRecordVersion(address)": "b1e75df9",
			"recordCount()": "900407bc",
			"updateMedicalRecord(uint256,string)": "8d36eb1e",
			"viewMedicalRecord(uint256,string)": "63fc6040"
		}
	},
	"abi": [
		{
			"inputs": [
				{
					"internalType": "address",
					"name": "_identityContract",
					"type": "address"
				}
			],
			"stateMutability": "nonpayable",
			"type": "constructor"
		},
		{
			"anonymous": false,
			"inputs": [
				{
					"indexed": true,
					"internalType": "uint256",
					"name": "recordId",
					"type": "uint256"
				},
				{
					"indexed": true,
					"internalType": "address",
					"name": "patient",
					"type": "address"
				},
				{
					"indexed": true,
					"internalType": "address",
					"name": "accessedBy",
					"type": "address"
				},
				{
					"indexed": false,
					"internalType": "string",
					"name": "accessorRole",
					"type": "string"
				},
				{
					"indexed": false,
					"internalType": "uint256",
					"name": "timestamp",
					"type": "uint256"
				}
			],
			"name": "RecordAccessed",
			"type": "event"
		},
		{
			"anonymous": false,
			"inputs": [
				{
					"indexed": true,
					"internalType": "uint256",
					"name": "recordId",
					"type": "uint256"
				},
				{
					"indexed": true,
					"internalType": "address",
					"name": "patient",
					"type": "address"
				},
				{
					"indexed": true,
					"internalType": "address",
					"name": "uploadedBy",
					"type": "address"
				},
				{
					"indexed": false,
					"internalType": "string",
					"name": "ipfsHash",
					"type": "string"
				},
				{
					"indexed": false,
					"internalType": "string",
					"name": "recordType",
					"type": "string"
				},
				{
					"indexed": false,
					"internalType": "uint256",
					"name": "version",
					"type": "uint256"
				},
				{
					"indexed": false,
					"internalType": "uint256",
					"name": "timestamp",
					"type": "uint256"
				}
			],
			"name": "RecordAdded",
			"type": "event"
		},
		{
			"anonymous": false,
			"inputs": [
				{
					"indexed": true,
					"internalType": "uint256",
					"name": "recordId",
					"type": "uint256"
				},
				{
					"indexed": false,
					"internalType": "string",
					"name": "oldHash",
					"type": "string"
				},
				{
					"indexed": false,
					"internalType": "string",
					"name": "newHash",
					"type": "string"
				},
				{
					"indexed": false,
					"internalType": "uint256",
					"name": "timestamp",
					"type": "uint256"
				}
			],
			"name": "RecordUpdated",
			"type": "event"
		},
		{
			"inputs": [
				{
					"internalType": "address",
					"name": "patient",
					"type": "address"
				},
				{
					"internalType": "string",
					"name": "ipfsHash",
					"type": "string"
				},
				{
					"internalType": "string",
					"name": "recordType",
					"type": "string"
				}
			],
			"name": "addMedicalRecord",
			"outputs": [],
			"stateMutability": "nonpayable",
			"type": "function"
		},
		{
			"inputs": [
				{
					"internalType": "address",
					"name": "patient",
					"type": "address"
				}
			],
			"name": "getLatestVersion",
			"outputs": [
				{
					"internalType": "uint256",
					"name": "",
					"type": "uint256"
				}
			],
			"stateMutability": "view",
			"type": "function"
		},
		{
			"inputs": [
				{
					"internalType": "address",
					"name": "patient",
					"type": "address"
				}
			],
			"name": "getRecordCount",
			"outputs": [
				{
					"internalType": "uint256",
					"name": "",
					"type": "uint256"
				}
			],
			"stateMutability": "view",
			"type": "function"
		},
		{
			"inputs": [
				{
					"internalType": "address",
					"name": "patient",
					"type": "address"
				}
			],
			"name": "getRecordsByPatient",
			"outputs": [
				{
					"internalType": "uint256[]",
					"name": "",
					"type": "uint256[]"
				}
			],
			"stateMutability": "view",
			"type": "function"
		},
		{
			"inputs": [],
			"name": "identityContract",
			"outputs": [
				{
					"internalType": "contract IPatientConsent",
					"name": "",
					"type": "address"
				}
			],
			"stateMutability": "view",
			"type": "function"
		},
		{
			"inputs": [
				{
					"internalType": "uint256",
					"name": "",
					"type": "uint256"
				}
			],
			"name": "medicalRecords",
			"outputs": [
				{
					"internalType": "uint256",
					"name": "recordId",
					"type": "uint256"
				},
				{
					"internalType": "address",
					"name": "patient",
					"type": "address"
				},
				{
					"internalType": "address",
					"name": "uploadedBy",
					"type": "address"
				},
				{
					"internalType": "string",
					"name": "ipfsHash",
					"type": "string"
				},
				{
					"internalType": "string",
					"name": "recordType",
					"type": "string"
				},
				{
					"internalType": "uint256",
					"name": "version",
					"type": "uint256"
				},
				{
					"internalType": "uint256",
					"name": "timestamp",
					"type": "uint256"
				}
			],
			"stateMutability": "view",
			"type": "function"
		},
		{
			"inputs": [
				{
					"internalType": "address",
					"name": "",
					"type": "address"
				}
			],
			"name": "patientRecordVersion",
			"outputs": [
				{
					"internalType": "uint256",
					"name": "",
					"type": "uint256"
				}
			],
			"stateMutability": "view",
			"type": "function"
		},
		{
			"inputs": [],
			"name": "recordCount",
			"outputs": [
				{
					"internalType": "uint256",
					"name": "",
					"type": "uint256"
				}
			],
			"stateMutability": "view",
			"type": "function"
		},
		{
			"inputs": [
				{
					"internalType": "uint256",
					"name": "_recordId",
					"type": "uint256"
				},
				{
					"internalType": "string",
					"name": "_newIpfsHash",
					"type": "string"
				}
			],
			"name": "updateMedicalRecord",
			"outputs": [],
			"stateMutability": "nonpayable",
			"type": "function"
		},
		{
			"inputs": [
				{
					"internalType": "uint256",
					"name": "recordId",
					"type": "uint256"
				},
				{
					"internalType": "string",
					"name": "accessorRole",
					"type": "string"
				}
			],
			"name": "viewMedicalRecord",
			"outputs": [
				{
					"internalType": "string",
					"name": "ipfsHash",
					"type": "string"
				}
			],
			"stateMutability": "nonpayable",
			"type": "function"
		}
	]
}